{
  "fileName": "Claims.sol",
  "contractName": "Claims",
  "source": "/* Copyright (C) 2020 NexusMutual.io\n\n  This program is free software: you can redistribute it and/or modify\n    it under the terms of the GNU General Public License as published by\n    the Free Software Foundation, either version 3 of the License, or\n    (at your option) any later version.\n\n  This program is distributed in the hope that it will be useful,\n    but WITHOUT ANY WARRANTY; without even the implied warranty of\n    MERCHANTABILITY or FITNESS FOR A PARTICULAR PURPOSE.  See the\n    GNU General Public License for more details.\n\n  You should have received a copy of the GNU General Public License\n    along with this program.  If not, see http://www.gnu.org/licenses/ */\n\npragma solidity ^0.5.0;\n\nimport \"../capital/MCR.sol\";\nimport \"../capital/Pool2.sol\";\nimport \"../claims/ClaimsReward.sol\";\nimport \"../token/NXMToken.sol\";\nimport \"../token/TokenController.sol\";\nimport \"../token/TokenFunctions.sol\";\nimport \"./ClaimsData.sol\";\n\ncontract Claims is Iupgradable {\n  using SafeMath for uint;\n\n\n  TokenFunctions internal tf;\n  NXMToken internal tk;\n  TokenController internal tc;\n  ClaimsReward internal cr;\n  Pool1 internal p1;\n  ClaimsData internal cd;\n  TokenData internal td;\n  PoolData internal pd;\n  Pool2 internal p2;\n  QuotationData internal qd;\n  MCR internal m1;\n\n  uint private constant DECIMAL1E18 = uint(10) ** 18;\n\n  /**\n   * @dev Sets the status of claim using claim id.\n   * @param claimId claim id.\n   * @param stat status to be set.\n   */\n  function setClaimStatus(uint claimId, uint stat) external onlyInternal {\n    _setClaimStatus(claimId, stat);\n  }\n\n  /**\n   * @dev Gets claim details of claim id = pending claim start + given index\n   */\n  function getClaimFromNewStart(\n    uint index\n  )\n  external\n  view\n  returns (\n    uint coverId,\n    uint claimId,\n    int8 voteCA,\n    int8 voteMV,\n    uint statusnumber\n  )\n  {\n    (coverId, claimId, voteCA, voteMV, statusnumber) = cd.getClaimFromNewStart(index, msg.sender);\n    // status = rewardStatus[statusnumber].claimStatusDesc;\n  }\n\n  /**\n   * @dev Gets details of a claim submitted by the calling user, at a given index\n   */\n  function getUserClaimByIndex(\n    uint index\n  )\n  external\n  view\n  returns (\n    uint status,\n    uint coverId,\n    uint claimId\n  )\n  {\n    uint statusno;\n    (statusno, coverId, claimId) = cd.getUserClaimByIndex(index, msg.sender);\n    status = statusno;\n  }\n\n  /**\n   * @dev Gets details of a given claim id.\n   * @param _claimId Claim Id.\n   * @return status Current status of claim id\n   * @return finalVerdict Decision made on the claim, 1 -> acceptance, -1 -> denial\n   * @return claimOwner Address through which claim is submitted\n   * @return coverId Coverid associated with the claim id\n   */\n  function getClaimbyIndex(uint _claimId) external view returns (\n    uint claimId,\n    uint status,\n    int8 finalVerdict,\n    address claimOwner,\n    uint coverId\n  )\n  {\n    uint stat;\n    claimId = _claimId;\n    (, coverId, finalVerdict, stat,,) = cd.getClaim(_claimId);\n    claimOwner = qd.getCoverMemberAddress(coverId);\n    status = stat;\n  }\n\n  /**\n   * @dev Calculates total amount that has been used to assess a claim.\n   * Computaion:Adds acceptCA(tokens used for voting in favor of a claim)\n   * denyCA(tokens used for voting against a claim) *  current token price.\n   * @param claimId Claim Id.\n   * @param member Member type 0 -> Claim Assessors, else members.\n   * @return tokens Total Amount used in Claims assessment.\n   */\n  function getCATokens(uint claimId, uint member) external view returns (uint tokens) {\n    uint coverId;\n    (, coverId) = cd.getClaimCoverId(claimId);\n    bytes4 curr = qd.getCurrencyOfCover(coverId);\n    uint tokenx1e18 = m1.calculateTokenPrice(curr);\n    uint accept;\n    uint deny;\n    if (member == 0) {\n      (, accept, deny) = cd.getClaimsTokenCA(claimId);\n    } else {\n      (, accept, deny) = cd.getClaimsTokenMV(claimId);\n    }\n    tokens = ((accept.add(deny)).mul(tokenx1e18)).div(DECIMAL1E18); // amount (not in tokens)\n  }\n\n  /**\n   * Iupgradable Interface to update dependent contract address\n   */\n  function changeDependentContractAddress() public onlyInternal {\n    tk = NXMToken(ms.tokenAddress());\n    td = TokenData(ms.getLatestAddress(\"TD\"));\n    tf = TokenFunctions(ms.getLatestAddress(\"TF\"));\n    tc = TokenController(ms.getLatestAddress(\"TC\"));\n    p1 = Pool1(ms.getLatestAddress(\"P1\"));\n    p2 = Pool2(ms.getLatestAddress(\"P2\"));\n    pd = PoolData(ms.getLatestAddress(\"PD\"));\n    cr = ClaimsReward(ms.getLatestAddress(\"CR\"));\n    cd = ClaimsData(ms.getLatestAddress(\"CD\"));\n    qd = QuotationData(ms.getLatestAddress(\"QD\"));\n    m1 = MCR(ms.getLatestAddress(\"MC\"));\n  }\n\n  /**\n   * @dev Updates the pending claim start variable,\n   * the lowest claim id with a pending decision/payout.\n   */\n  function changePendingClaimStart() public onlyInternal {\n\n    uint origstat;\n    uint state12Count;\n    uint pendingClaimStart = cd.pendingClaimStart();\n    uint actualClaimLength = cd.actualClaimLength();\n    for (uint i = pendingClaimStart; i < actualClaimLength; i++) {\n      (, , , origstat, , state12Count) = cd.getClaim(i);\n\n      if (origstat > 5 && ((origstat != 12) || (origstat == 12 && state12Count >= 60)))\n        cd.setpendingClaimStart(i);\n      else\n        break;\n    }\n  }\n\n  /**\n   * @dev Submits a claim for a given cover note.\n   * Adds claim to queue incase of emergency pause else directly submits the claim.\n   * @param coverId Cover Id.\n   */\n  function submitClaim(uint coverId) public {\n    address qadd = qd.getCoverMemberAddress(coverId);\n    require(qadd == msg.sender);\n    uint8 cStatus;\n    (, cStatus,,,) = qd.getCoverDetailsByCoverID2(coverId);\n    require(cStatus != uint8(QuotationData.CoverStatus.ClaimSubmitted), \"Claim already submitted\");\n    require(cStatus != uint8(QuotationData.CoverStatus.CoverExpired), \"Cover already expired\");\n    if (ms.isPause() == false) {\n      _addClaim(coverId, now, qadd);\n    } else {\n      cd.setClaimAtEmergencyPause(coverId, now, false);\n      qd.changeCoverStatusNo(coverId, uint8(QuotationData.CoverStatus.Requested));\n    }\n  }\n\n  /**\n   * @dev Submits the Claims queued once the emergency pause is switched off.\n   */\n  function submitClaimAfterEPOff() public onlyInternal {\n    uint lengthOfClaimSubmittedAtEP = cd.getLengthOfClaimSubmittedAtEP();\n    uint firstClaimIndexToSubmitAfterEP = cd.getFirstClaimIndexToSubmitAfterEP();\n    uint coverId;\n    uint dateUpd;\n    bool submit;\n    address qadd;\n    for (uint i = firstClaimIndexToSubmitAfterEP; i < lengthOfClaimSubmittedAtEP; i++) {\n      (coverId, dateUpd, submit) = cd.getClaimOfEmergencyPauseByIndex(i);\n      require(submit == false);\n      qadd = qd.getCoverMemberAddress(coverId);\n      _addClaim(coverId, dateUpd, qadd);\n      cd.setClaimSubmittedAtEPTrue(i, true);\n    }\n    cd.setFirstClaimIndexToSubmitAfterEP(lengthOfClaimSubmittedAtEP);\n  }\n\n  /**\n   * @dev Castes vote for members who have tokens locked under Claims Assessment\n   * @param claimId  claim id.\n   * @param verdict 1 for Accept,-1 for Deny.\n   */\n  function submitCAVote(uint claimId, int8 verdict) public isMemberAndcheckPause {\n    require(checkVoteClosing(claimId) != 1);\n    require(cd.userClaimVotePausedOn(msg.sender).add(cd.pauseDaysCA()) < now);\n    uint tokens = tc.tokensLockedAtTime(msg.sender, \"CLA\", now.add(cd.claimDepositTime()));\n    require(tokens > 0);\n    uint stat;\n    (, stat) = cd.getClaimStatusNumber(claimId);\n    require(stat == 0);\n    require(cd.getUserClaimVoteCA(msg.sender, claimId) == 0);\n    td.bookCATokens(msg.sender);\n    cd.addVote(msg.sender, tokens, claimId, verdict);\n    cd.callVoteEvent(msg.sender, claimId, \"CAV\", tokens, now, verdict);\n    uint voteLength = cd.getAllVoteLength();\n    cd.addClaimVoteCA(claimId, voteLength);\n    cd.setUserClaimVoteCA(msg.sender, claimId, voteLength);\n    cd.setClaimTokensCA(claimId, verdict, tokens);\n    tc.extendLockOf(msg.sender, \"CLA\", td.lockCADays());\n    int close = checkVoteClosing(claimId);\n    if (close == 1) {\n      cr.changeClaimStatus(claimId);\n    }\n  }\n\n  /**\n   * @dev Submits a member vote for assessing a claim.\n   * Tokens other than those locked under Claims\n   * Assessment can be used to cast a vote for a given claim id.\n   * @param claimId Selected claim id.\n   * @param verdict 1 for Accept,-1 for Deny.\n   */\n  function submitMemberVote(uint claimId, int8 verdict) public isMemberAndcheckPause {\n    require(checkVoteClosing(claimId) != 1);\n    uint stat;\n    uint tokens = tc.totalBalanceOf(msg.sender);\n    (, stat) = cd.getClaimStatusNumber(claimId);\n    require(stat >= 1 && stat <= 5);\n    require(cd.getUserClaimVoteMember(msg.sender, claimId) == 0);\n    cd.addVote(msg.sender, tokens, claimId, verdict);\n    cd.callVoteEvent(msg.sender, claimId, \"MV\", tokens, now, verdict);\n    tc.lockForMemberVote(msg.sender, td.lockMVDays());\n    uint voteLength = cd.getAllVoteLength();\n    cd.addClaimVotemember(claimId, voteLength);\n    cd.setUserClaimVoteMember(msg.sender, claimId, voteLength);\n    cd.setClaimTokensMV(claimId, verdict, tokens);\n    int close = checkVoteClosing(claimId);\n    if (close == 1) {\n      cr.changeClaimStatus(claimId);\n    }\n  }\n\n  /**\n  * @dev Pause Voting of All Pending Claims when Emergency Pause Start.\n  */\n  function pauseAllPendingClaimsVoting() public onlyInternal {\n    uint firstIndex = cd.pendingClaimStart();\n    uint actualClaimLength = cd.actualClaimLength();\n    for (uint i = firstIndex; i < actualClaimLength; i++) {\n      if (checkVoteClosing(i) == 0) {\n        uint dateUpd = cd.getClaimDateUpd(i);\n        cd.setPendingClaimDetails(i, (dateUpd.add(cd.maxVotingTime())).sub(now), false);\n      }\n    }\n  }\n\n  /**\n   * @dev Resume the voting phase of all Claims paused due to an emergency pause.\n   */\n  function startAllPendingClaimsVoting() public onlyInternal {\n    uint firstIndx = cd.getFirstClaimIndexToStartVotingAfterEP();\n    uint i;\n    uint lengthOfClaimVotingPause = cd.getLengthOfClaimVotingPause();\n    for (i = firstIndx; i < lengthOfClaimVotingPause; i++) {\n      uint pendingTime;\n      uint claimID;\n      (claimID, pendingTime,) = cd.getPendingClaimDetailsByIndex(i);\n      uint pTime = (now.sub(cd.maxVotingTime())).add(pendingTime);\n      cd.setClaimdateUpd(claimID, pTime);\n      cd.setPendingClaimVoteStatus(i, true);\n      uint coverid;\n      (, coverid) = cd.getClaimCoverId(claimID);\n      address qadd = qd.getCoverMemberAddress(coverid);\n      tf.extendCNEPOff(qadd, coverid, pendingTime.add(cd.claimDepositTime()));\n      p1.closeClaimsOraclise(claimID, uint64(pTime));\n    }\n    cd.setFirstClaimIndexToStartVotingAfterEP(i);\n  }\n\n  /**\n   * @dev Checks if voting of a claim should be closed or not.\n   * @param claimId Claim Id.\n   * @return close 1 -> voting should be closed, 0 -> if voting should not be closed,\n   * -1 -> voting has already been closed.\n   */\n  function checkVoteClosing(uint claimId) public view returns (int8 close) {\n    close = 0;\n    uint status;\n    (, status) = cd.getClaimStatusNumber(claimId);\n    uint dateUpd = cd.getClaimDateUpd(claimId);\n    if (status == 12 && dateUpd.add(cd.payoutRetryTime()) < now) {\n      if (cd.getClaimState12Count(claimId) < 60)\n        close = 1;\n    }\n\n    if (status > 5 && status != 12) {\n      close = - 1;\n    } else if (status != 12 && dateUpd.add(cd.maxVotingTime()) <= now) {\n      close = 1;\n    } else if (status != 12 && dateUpd.add(cd.minVotingTime()) >= now) {\n      close = 0;\n    } else if (status == 0 || (status >= 1 && status <= 5)) {\n      close = _checkVoteClosingFinal(claimId, status);\n    }\n\n  }\n\n  /**\n   * @dev Checks if voting of a claim should be closed or not.\n   * Internally called by checkVoteClosing method\n   * for Claims whose status number is 0 or status number lie between 2 and 6.\n   * @param claimId Claim Id.\n   * @param status Current status of claim.\n   * @return close 1 if voting should be closed,0 in case voting should not be closed,\n   * -1 if voting has already been closed.\n   */\n  function _checkVoteClosingFinal(uint claimId, uint status) internal view returns (int8 close) {\n    close = 0;\n    uint coverId;\n    (, coverId) = cd.getClaimCoverId(claimId);\n    bytes4 curr = qd.getCurrencyOfCover(coverId);\n    uint tokenx1e18 = m1.calculateTokenPrice(curr);\n    uint accept;\n    uint deny;\n    (, accept, deny) = cd.getClaimsTokenCA(claimId);\n    uint caTokens = ((accept.add(deny)).mul(tokenx1e18)).div(DECIMAL1E18);\n    (, accept, deny) = cd.getClaimsTokenMV(claimId);\n    uint mvTokens = ((accept.add(deny)).mul(tokenx1e18)).div(DECIMAL1E18);\n    uint sumassured = qd.getCoverSumAssured(coverId).mul(DECIMAL1E18);\n    if (status == 0 && caTokens >= sumassured.mul(10)) {\n      close = 1;\n    } else if (status >= 1 && status <= 5 && mvTokens >= sumassured.mul(10)) {\n      close = 1;\n    }\n  }\n\n  /**\n   * @dev Changes the status of an existing claim id, based on current\n   * status and current conditions of the system\n   * @param claimId Claim Id.\n   * @param stat status number.\n   */\n  function _setClaimStatus(uint claimId, uint stat) internal {\n\n    uint origstat;\n    uint state12Count;\n    uint dateUpd;\n    uint coverId;\n    (, coverId, , origstat, dateUpd, state12Count) = cd.getClaim(claimId);\n    (, origstat) = cd.getClaimStatusNumber(claimId);\n\n    if (stat == 12 && origstat == 12) {\n      cd.updateState12Count(claimId, 1);\n    }\n    cd.setClaimStatus(claimId, stat);\n\n    if (state12Count >= 60 && stat == 12) {\n      cd.setClaimStatus(claimId, 13);\n      qd.changeCoverStatusNo(coverId, uint8(QuotationData.CoverStatus.ClaimDenied));\n    }\n    uint time = now;\n    cd.setClaimdateUpd(claimId, time);\n\n    if (stat >= 2 && stat <= 5) {\n      p1.closeClaimsOraclise(claimId, cd.maxVotingTime());\n    }\n\n    if (stat == 12 && (dateUpd.add(cd.payoutRetryTime()) <= now) && (state12Count < 60)) {\n      p1.closeClaimsOraclise(claimId, cd.payoutRetryTime());\n    } else if (stat == 12 && (dateUpd.add(cd.payoutRetryTime()) > now) && (state12Count < 60)) {\n      uint64 timeLeft = uint64((dateUpd.add(cd.payoutRetryTime())).sub(now));\n      p1.closeClaimsOraclise(claimId, timeLeft);\n    }\n  }\n\n  /**\n   * @dev Submits a claim for a given cover note.\n   * Set deposits flag against cover.\n   */\n  function _addClaim(uint coverId, uint time, address add) internal {\n    tf.depositCN(coverId);\n    uint len = cd.actualClaimLength();\n    cd.addClaim(len, coverId, add, now);\n    cd.callClaimEvent(coverId, add, len, time);\n    qd.changeCoverStatusNo(coverId, uint8(QuotationData.CoverStatus.ClaimSubmitted));\n    bytes4 curr = qd.getCurrencyOfCover(coverId);\n    uint sumAssured = qd.getCoverSumAssured(coverId).mul(DECIMAL1E18);\n    pd.changeCurrencyAssetVarMin(curr, pd.getCurrencyAssetVarMin(curr).add(sumAssured));\n    p2.internalLiquiditySwap(curr);\n    p1.closeClaimsOraclise(len, cd.maxVotingTime());\n  }\n}\n",
  "sourcePath": "contracts/modules/claims/Claims.sol",
  "abi": [
    {
      "constant": false,
      "inputs": [],
      "name": "changeDependentContractAddress",
      "outputs": [],
      "payable": false,
      "stateMutability": "nonpayable",
      "type": "function"
    },
    {
      "constant": false,
      "inputs": [],
      "name": "pauseAllPendingClaimsVoting",
      "outputs": [],
      "payable": false,
      "stateMutability": "nonpayable",
      "type": "function"
    },
    {
      "constant": true,
      "inputs": [
        {
          "name": "_claimId",
          "type": "uint256"
        }
      ],
      "name": "getClaimbyIndex",
      "outputs": [
        {
          "name": "claimId",
          "type": "uint256"
        },
        {
          "name": "status",
          "type": "uint256"
        },
        {
          "name": "finalVerdict",
          "type": "int8"
        },
        {
          "name": "claimOwner",
          "type": "address"
        },
        {
          "name": "coverId",
          "type": "uint256"
        }
      ],
      "payable": false,
      "stateMutability": "view",
      "type": "function"
    },
    {
      "constant": true,
      "inputs": [
        {
          "name": "index",
          "type": "uint256"
        }
      ],
      "name": "getUserClaimByIndex",
      "outputs": [
        {
          "name": "status",
          "type": "uint256"
        },
        {
          "name": "coverId",
          "type": "uint256"
        },
        {
          "name": "claimId",
          "type": "uint256"
        }
      ],
      "payable": false,
      "stateMutability": "view",
      "type": "function"
    },
    {
      "constant": true,
      "inputs": [
        {
          "name": "claimId",
          "type": "uint256"
        },
        {
          "name": "member",
          "type": "uint256"
        }
      ],
      "name": "getCATokens",
      "outputs": [
        {
          "name": "tokens",
          "type": "uint256"
        }
      ],
      "payable": false,
      "stateMutability": "view",
      "type": "function"
    },
    {
      "constant": false,
      "inputs": [
        {
          "name": "coverId",
          "type": "uint256"
        }
      ],
      "name": "submitClaim",
      "outputs": [],
      "payable": false,
      "stateMutability": "nonpayable",
      "type": "function"
    },
    {
      "constant": false,
      "inputs": [],
      "name": "submitClaimAfterEPOff",
      "outputs": [],
      "payable": false,
      "stateMutability": "nonpayable",
      "type": "function"
    },
    {
      "constant": false,
      "inputs": [],
      "name": "startAllPendingClaimsVoting",
      "outputs": [],
      "payable": false,
      "stateMutability": "nonpayable",
      "type": "function"
    },
    {
      "constant": true,
      "inputs": [],
      "name": "ms",
      "outputs": [
        {
          "name": "",
          "type": "address"
        }
      ],
      "payable": false,
      "stateMutability": "view",
      "type": "function"
    },
    {
      "constant": false,
      "inputs": [],
      "name": "changePendingClaimStart",
      "outputs": [],
      "payable": false,
      "stateMutability": "nonpayable",
      "type": "function"
    },
    {
      "constant": false,
      "inputs": [
        {
          "name": "claimId",
          "type": "uint256"
        },
        {
          "name": "verdict",
          "type": "int8"
        }
      ],
      "name": "submitCAVote",
      "outputs": [],
      "payable": false,
      "stateMutability": "nonpayable",
      "type": "function"
    },
    {
      "constant": false,
      "inputs": [
        {
          "name": "_masterAddress",
          "type": "address"
        }
      ],
      "name": "changeMasterAddress",
      "outputs": [],
      "payable": false,
      "stateMutability": "nonpayable",
      "type": "function"
    },
    {
      "constant": false,
      "inputs": [
        {
          "name": "claimId",
          "type": "uint256"
        },
        {
          "name": "verdict",
          "type": "int8"
        }
      ],
      "name": "submitMemberVote",
      "outputs": [],
      "payable": false,
      "stateMutability": "nonpayable",
      "type": "function"
    },
    {
      "constant": true,
      "inputs": [
        {
          "name": "claimId",
          "type": "uint256"
        }
      ],
      "name": "checkVoteClosing",
      "outputs": [
        {
          "name": "close",
          "type": "int8"
        }
      ],
      "payable": false,
      "stateMutability": "view",
      "type": "function"
    },
    {
      "constant": true,
      "inputs": [],
      "name": "nxMasterAddress",
      "outputs": [
        {
          "name": "",
          "type": "address"
        }
      ],
      "payable": false,
      "stateMutability": "view",
      "type": "function"
    },
    {
      "constant": false,
      "inputs": [
        {
          "name": "claimId",
          "type": "uint256"
        },
        {
          "name": "stat",
          "type": "uint256"
        }
      ],
      "name": "setClaimStatus",
      "outputs": [],
      "payable": false,
      "stateMutability": "nonpayable",
      "type": "function"
    },
    {
      "constant": true,
      "inputs": [
        {
          "name": "index",
          "type": "uint256"
        }
      ],
      "name": "getClaimFromNewStart",
      "outputs": [
        {
          "name": "coverId",
          "type": "uint256"
        },
        {
          "name": "claimId",
          "type": "uint256"
        },
        {
          "name": "voteCA",
          "type": "int8"
        },
        {
          "name": "voteMV",
          "type": "int8"
        },
        {
          "name": "statusnumber",
          "type": "uint256"
        }
      ],
      "payable": false,
      "stateMutability": "view",
      "type": "function"
    }
  ],
  "bytecode": "0x608060405234801561001057600080fd5b50614a27806100206000396000f3fe608060405234801561001057600080fd5b506004361061010b5760003560e01c8063a0b2d57f116100a2578063ed2f21c511610071578063ed2f21c51461028d578063ef154cf2146102b3578063f17a3bec146102e9578063f511bdfe146102f1578063fe589997146103145761010b565b8063a0b2d57f14610215578063b23d763414610239578063bfa52b1214610241578063d46655f4146102675761010b565b806357af0515116100de57806357af0515146101b35780636aa14a96146101e857806375a0f521146102055780639755fafe1461020d5761010b565b80630ea9c98414610110578063380216711461011a5780633c836e521461012257806355d9dc5f14610178575b600080fd5b610118610366565b005b610118610a55565b61013f6004803603602081101561013857600080fd5b5035610d6e565b604080519586526020860194909452600092830b90920b848401526001600160a01b031660608401526080830152519081900360a00190f35b6101956004803603602081101561018e57600080fd5b5035610e93565b60408051938452602084019290925282820152519081900360600190f35b6101d6600480360360408110156101c957600080fd5b5080359060200135610f33565b60408051918252519081900360200190f35b610118600480360360208110156101fe57600080fd5b5035611223565b610118611562565b6101186118f2565b61021d611f4d565b604080516001600160a01b039092168252519081900360200190f35b610118611f5c565b6101186004803603604081101561025757600080fd5b508035906020013560000b61221b565b6101186004803603602081101561027d57600080fd5b50356001600160a01b0316612b4e565b610118600480360360408110156102a357600080fd5b508035906020013560000b612bdd565b6102d0600480360360208110156102c957600080fd5b5035613274565b60408051600092830b90920b8252519081900360200190f35b61021d6135c8565b6101186004803603604081101561030757600080fd5b50803590602001356135d7565b6103316004803603602081101561032a57600080fd5b5035613668565b604080519586526020860194909452600092830b830b8585015290820b90910b60608401526080830152519081900360a00190f35b60005460408051600160e21b6323c5b10702815233600482015290516001600160a01b0390921691638f16c41c91602480820192602092909190829003018186803b1580156103b457600080fd5b505afa1580156103c8573d6000803e3d6000fd5b505050506040513d60208110156103de57600080fd5b50516103e957600080fd5b6000809054906101000a90046001600160a01b03166001600160a01b0316639d76ea586040518163ffffffff1660e01b815260040160206040518083038186803b15801561043657600080fd5b505afa15801561044a573d6000803e3d6000fd5b505050506040513d602081101561046057600080fd5b5051600380546001600160a01b0319166001600160a01b0392831617905560005460408051600160e31b6227050b028152600160f21b611511026004820152905191909216916301382858916024808301926020929190829003018186803b1580156104cb57600080fd5b505afa1580156104df573d6000803e3d6000fd5b505050506040513d60208110156104f557600080fd5b5051600880546001600160a01b0319166001600160a01b0392831617905560005460408051600160e31b6227050b028152600160f11b612a23026004820152905191909216916301382858916024808301926020929190829003018186803b15801561056057600080fd5b505afa158015610574573d6000803e3d6000fd5b505050506040513d602081101561058a57600080fd5b5051600280546001600160a01b0319166001600160a01b0392831617905560005460408051600160e31b6227050b028152600160f01b615443026004820152905191909216916301382858916024808301926020929190829003018186803b1580156105f557600080fd5b505afa158015610609573d6000803e3d6000fd5b505050506040513d602081101561061f57600080fd5b5051600480546001600160a01b0319166001600160a01b0392831617815560005460408051600160e31b6227050b028152600160f01b615031029381019390935251921691630138285891602480820192602092909190829003018186803b15801561068a57600080fd5b505afa15801561069e573d6000803e3d6000fd5b505050506040513d60208110156106b457600080fd5b5051600680546001600160a01b0319166001600160a01b0392831617905560005460408051600160e31b6227050b028152600160f11b612819026004820152905191909216916301382858916024808301926020929190829003018186803b15801561071f57600080fd5b505afa158015610733573d6000803e3d6000fd5b505050506040513d602081101561074957600080fd5b5051600a80546001600160a01b0319166001600160a01b0392831617905560005460408051600160e31b6227050b028152600160f21b611411026004820152905191909216916301382858916024808301926020929190829003018186803b1580156107b457600080fd5b505afa1580156107c8573d6000803e3d6000fd5b505050506040513d60208110156107de57600080fd5b5051600980546001600160a01b0319166001600160a01b0392831617905560005460408051600160e31b6227050b028152600160f11b6121a9026004820152905191909216916301382858916024808301926020929190829003018186803b15801561084957600080fd5b505afa15801561085d573d6000803e3d6000fd5b505050506040513d602081101561087357600080fd5b5051600580546001600160a01b0319166001600160a01b0392831617905560005460408051600160e31b6227050b028152600160f21b6110d1026004820152905191909216916301382858916024808301926020929190829003018186803b1580156108de57600080fd5b505afa1580156108f2573d6000803e3d6000fd5b505050506040513d602081101561090857600080fd5b5051600780546001600160a01b0319166001600160a01b0392831617905560005460408051600160e31b6227050b028152600160f21b611451026004820152905191909216916301382858916024808301926020929190829003018186803b15801561097357600080fd5b505afa158015610987573d6000803e3d6000fd5b505050506040513d602081101561099d57600080fd5b5051600b80546001600160a01b0319166001600160a01b0392831617905560005460408051600160e31b6227050b028152600160f01b614d43026004820152905191909216916301382858916024808301926020929190829003018186803b158015610a0857600080fd5b505afa158015610a1c573d6000803e3d6000fd5b505050506040513d6020811015610a3257600080fd5b5051600c80546001600160a01b0319166001600160a01b03909216919091179055565b60005460408051600160e21b6323c5b10702815233600482015290516001600160a01b0390921691638f16c41c91602480820192602092909190829003018186803b158015610aa357600080fd5b505afa158015610ab7573d6000803e3d6000fd5b505050506040513d6020811015610acd57600080fd5b5051610ad857600080fd5b60075460408051600160e11b6327d3593902815290516000926001600160a01b031691634fa6b272916004808301926020929190829003018186803b158015610b2057600080fd5b505afa158015610b34573d6000803e3d6000fd5b505050506040513d6020811015610b4a57600080fd5b505160075460408051600160e11b636235bbe102815290519293506000926001600160a01b039092169163c46b77c291600480820192602092909190829003018186803b158015610b9a57600080fd5b505afa158015610bae573d6000803e3d6000fd5b505050506040513d6020811015610bc457600080fd5b50519050815b81811015610d6957610bdb81613274565b60000b610d615760075460408051600160e31b630a9a1f1b0281526004810184905290516000926001600160a01b0316916354d0f8d8916024808301926020929190829003018186803b158015610c3157600080fd5b505afa158015610c45573d6000803e3d6000fd5b505050506040513d6020811015610c5b57600080fd5b505160075460408051600160e21b630e14a8bb02815290519293506001600160a01b0390911691637eb7b2ee918591610d01914291610cf5918791633852a2ec91600480820192602092909190829003018186803b158015610cbc57600080fd5b505afa158015610cd0573d6000803e3d6000fd5b505050506040513d6020811015610ce657600080fd5b5051879063ffffffff61371b16565b9063ffffffff61378116565b6040805163ffffffff851660e01b815260048101939093526024830191909152600060448301819052905160648084019382900301818387803b158015610d4757600080fd5b505af1158015610d5b573d6000803e3d6000fd5b50505050505b600101610bca565b505050565b60075460408051600160e01b635aef2447028152600481018490529051839260009283928392839283926001600160a01b0390921691635aef24479160248082019260c092909190829003018186803b158015610dca57600080fd5b505afa158015610dde573d6000803e3d6000fd5b505050506040513d60c0811015610df457600080fd5b50602080820151604080840151606090940151600b548251600160e01b633c2d4daf02815260048101859052925195995092965094506001600160a01b0390911692633c2d4daf92602480840193919291829003018186803b158015610e5957600080fd5b505afa158015610e6d573d6000803e3d6000fd5b505050506040513d6020811015610e8357600080fd5b5051959790965092949350919050565b60075460408051600160e11b63371cbcf10281526004810184905233602482015290516000928392839283926001600160a01b031691636e3979e2916044808301926060929190829003018186803b158015610eee57600080fd5b505afa158015610f02573d6000803e3d6000fd5b505050506040513d6060811015610f1857600080fd5b50805160208201516040909201519097919650945092505050565b60075460408051600160e01b6396ff592f02815260048101859052815160009384936001600160a01b03909116926396ff592f9260248083019392829003018186803b158015610f8257600080fd5b505afa158015610f96573d6000803e3d6000fd5b505050506040513d6040811015610fac57600080fd5b50602090810151600b5460408051600160e21b6322d5c8bd0281526004810184905290519294506000936001600160a01b0390921692638b5722f492602480840193919291829003018186803b15801561100557600080fd5b505afa158015611019573d6000803e3d6000fd5b505050506040513d602081101561102f57600080fd5b5051600c5460408051600160e01b633cb23b2d0281526001600160e01b03198416600482015290519293506000926001600160a01b0390921691633cb23b2d91602480820192602092909190829003018186803b15801561108f57600080fd5b505afa1580156110a3573d6000803e3d6000fd5b505050506040513d60208110156110b957600080fd5b50519050600080866111545760075460408051600160e21b6336f40193028152600481018b905290516001600160a01b039092169163dbd0064c91602480820192606092909190829003018186803b15801561111457600080fd5b505afa158015611128573d6000803e3d6000fd5b505050506040513d606081101561113e57600080fd5b50602081015160409091015190925090506111df565b60075460408051600160e11b634a4ecebb028152600481018b905290516001600160a01b039092169163949d9d7691602480820192606092909190829003018186803b1580156111a357600080fd5b505afa1580156111b7573d6000803e3d6000fd5b505050506040513d60608110156111cd57600080fd5b50602081015160409091015190925090505b611217670de0b6b3a764000061120b856111ff868663ffffffff61371b16565b9063ffffffff6137c316565b9063ffffffff61381f16565b98975050505050505050565b600b5460408051600160e01b633c2d4daf0281526004810184905290516000926001600160a01b031691633c2d4daf916024808301926020929190829003018186803b15801561127257600080fd5b505afa158015611286573d6000803e3d6000fd5b505050506040513d602081101561129c57600080fd5b505190506001600160a01b03811633146112b557600080fd5b600b5460408051600160e11b631993d17d0281526004810185905290516000926001600160a01b031691633327a2fa9160248083019260a0929190829003018186803b15801561130457600080fd5b505afa158015611318573d6000803e3d6000fd5b505050506040513d60a081101561132e57600080fd5b5060200151905060ff8116600414156113915760408051600160e51b62461bcd02815260206004820152601760248201527f436c61696d20616c7265616479207375626d6974746564000000000000000000604482015290519081900360640190fd5b60ff8116600314156113ed5760408051600160e51b62461bcd02815260206004820152601560248201527f436f76657220616c726561647920657870697265640000000000000000000000604482015290519081900360640190fd5b6000809054906101000a90046001600160a01b03166001600160a01b031663ff0938a76040518163ffffffff1660e01b815260040160206040518083038186803b15801561143a57600080fd5b505afa15801561144e573d6000803e3d6000fd5b505050506040513d602081101561146457600080fd5b505161147a57611475834284613861565b610d69565b60075460408051600160e11b634a2482c90281526004810186905242602482015260006044820181905291516001600160a01b039093169263944905929260648084019391929182900301818387803b1580156114d657600080fd5b505af11580156114ea573d6000803e3d6000fd5b5050600b5460408051600160e11b63570e2f65028152600481018890526005602482015290516001600160a01b03909216935063ae1c5eca925060448082019260009290919082900301818387803b15801561154557600080fd5b505af1158015611559573d6000803e3d6000fd5b50505050505050565b60005460408051600160e21b6323c5b10702815233600482015290516001600160a01b0390921691638f16c41c91602480820192602092909190829003018186803b1580156115b057600080fd5b505afa1580156115c4573d6000803e3d6000fd5b505050506040513d60208110156115da57600080fd5b50516115e557600080fd5b60075460408051600160e01b637532b09102815290516000926001600160a01b031691637532b091916004808301926020929190829003018186803b15801561162d57600080fd5b505afa158015611641573d6000803e3d6000fd5b505050506040513d602081101561165757600080fd5b505160075460408051600160e01b63af3bd83f02815290519293506000926001600160a01b039092169163af3bd83f91600480820192602092909190829003018186803b1580156116a757600080fd5b505afa1580156116bb573d6000803e3d6000fd5b505050506040513d60208110156116d157600080fd5b505190506000808080845b868110156118815760075460408051600160e01b63965bfafb0281526004810184905290516001600160a01b039092169163965bfafb91602480820192606092909190829003018186803b15801561173357600080fd5b505afa158015611747573d6000803e3d6000fd5b505050506040513d606081101561175d57600080fd5b50805160208201516040909201519096509094509250821561177e57600080fd5b600b5460408051600160e01b633c2d4daf0281526004810188905290516001600160a01b0390921691633c2d4daf91602480820192602092909190829003018186803b1580156117cd57600080fd5b505afa1580156117e1573d6000803e3d6000fd5b505050506040513d60208110156117f757600080fd5b50519150611806858584613861565b60075460408051600160e11b6361a26663028152600481018490526001602482015290516001600160a01b039092169163c344ccc69160448082019260009290919082900301818387803b15801561185d57600080fd5b505af1158015611871573d6000803e3d6000fd5b5050600190920191506116dc9050565b5060075460408051600160e11b635492409b0281526004810189905290516001600160a01b039092169163a92481369160248082019260009290919082900301818387803b1580156118d257600080fd5b505af11580156118e6573d6000803e3d6000fd5b50505050505050505050565b60005460408051600160e21b6323c5b10702815233600482015290516001600160a01b0390921691638f16c41c91602480820192602092909190829003018186803b15801561194057600080fd5b505afa158015611954573d6000803e3d6000fd5b505050506040513d602081101561196a57600080fd5b505161197557600080fd5b60075460408051600160e01b63b18e594102815290516000926001600160a01b03169163b18e5941916004808301926020929190829003018186803b1580156119bd57600080fd5b505afa1580156119d1573d6000803e3d6000fd5b505050506040513d60208110156119e757600080fd5b505160075460408051600160e11b6344d88e7f028152905192935060009283926001600160a01b0316916389b11cfe916004808301926020929190829003018186803b158015611a3657600080fd5b505afa158015611a4a573d6000803e3d6000fd5b505050506040513d6020811015611a6057600080fd5b505183925090505b80821015611efd5760075460408051600160e31b631481a6a302815260048101859052905160009283926001600160a01b039091169163a40d351891602480820192606092909190829003018186803b158015611ac457600080fd5b505afa158015611ad8573d6000803e3d6000fd5b505050506040513d6060811015611aee57600080fd5b50805160209182015160075460408051600160e21b630e14a8bb0281529051929650929450600093611b90938793611b84936001600160a01b031692633852a2ec9260048082019391829003018186803b158015611b4b57600080fd5b505afa158015611b5f573d6000803e3d6000fd5b505050506040513d6020811015611b7557600080fd5b5051429063ffffffff61378116565b9063ffffffff61371b16565b60075460408051600160e11b633e157b77028152600481018690526024810184905290519293506001600160a01b0390911691637c2af6ee9160448082019260009290919082900301818387803b158015611bea57600080fd5b505af1158015611bfe573d6000803e3d6000fd5b505060075460408051600160e01b63a788c1ff028152600481018a90526001602482015290516001600160a01b03909216935063a788c1ff925060448082019260009290919082900301818387803b158015611c5957600080fd5b505af1158015611c6d573d6000803e3d6000fd5b505060075460408051600160e01b6396ff592f028152600481018790528151600095506001600160a01b0390931693506396ff592f9260248083019392829003018186803b158015611cbe57600080fd5b505afa158015611cd2573d6000803e3d6000fd5b505050506040513d6040811015611ce857600080fd5b50602090810151600b5460408051600160e01b633c2d4daf0281526004810184905290519294506000936001600160a01b0390921692633c2d4daf92602480840193919291829003018186803b158015611d4157600080fd5b505afa158015611d55573d6000803e3d6000fd5b505050506040513d6020811015611d6b57600080fd5b505160025460075460408051600160e01b63a90a6e1102815290519394506001600160a01b039283169363e8ed92149386938893611e0693919092169163a90a6e11916004808301926020929190829003018186803b158015611dcd57600080fd5b505afa158015611de1573d6000803e3d6000fd5b505050506040513d6020811015611df757600080fd5b50518a9063ffffffff61371b16565b6040518463ffffffff1660e01b815260040180846001600160a01b03166001600160a01b031681526020018381526020018281526020019350505050600060405180830381600087803b158015611e5c57600080fd5b505af1158015611e70573d6000803e3d6000fd5b505060065460408051600160e01b63a19ed7830281526004810189905267ffffffffffffffff8816602482015290516001600160a01b03909216935063a19ed783925060448082019260009290919082900301818387803b158015611ed457600080fd5b505af1158015611ee8573d6000803e3d6000fd5b505060019098019750611a6895505050505050565b60075460408051600160e01b63f2eb3b6b0281526004810185905290516001600160a01b039092169163f2eb3b6b9160248082019260009290919082900301818387803b15801561154557600080fd5b6000546001600160a01b031681565b60005460408051600160e21b6323c5b10702815233600482015290516001600160a01b0390921691638f16c41c91602480820192602092909190829003018186803b158015611faa57600080fd5b505afa158015611fbe573d6000803e3d6000fd5b505050506040513d6020811015611fd457600080fd5b5051611fdf57600080fd5b6000806000600760009054906101000a90046001600160a01b03166001600160a01b0316634fa6b2726040518163ffffffff1660e01b815260040160206040518083038186803b15801561203257600080fd5b505afa158015612046573d6000803e3d6000fd5b505050506040513d602081101561205c57600080fd5b505160075460408051600160e11b636235bbe102815290519293506000926001600160a01b039092169163c46b77c291600480820192602092909190829003018186803b1580156120ac57600080fd5b505afa1580156120c0573d6000803e3d6000fd5b505050506040513d60208110156120d657600080fd5b50519050815b818110156122145760075460408051600160e01b635aef24470281526004810184905290516001600160a01b0390921691635aef24479160248082019260c092909190829003018186803b15801561213357600080fd5b505afa158015612147573d6000803e3d6000fd5b505050506040513d60c081101561215d57600080fd5b50606081015160a0909101519095509350600585118015612195575084600c141580612195575084600c1480156121955750603c8410155b156122075760075460408051600160e11b6367ed09030281526004810184905290516001600160a01b039092169163cfda12069160248082019260009290919082900301818387803b1580156121ea57600080fd5b505af11580156121fe573d6000803e3d6000fd5b5050505061220c565b612214565b6001016120dc565b5050505050565b6000809054906101000a90046001600160a01b03166001600160a01b031663ff0938a76040518163ffffffff1660e01b815260040160206040518083038186803b15801561226857600080fd5b505afa15801561227c573d6000803e3d6000fd5b505050506040513d602081101561229257600080fd5b505115801561231c575060005460408051600160e21b63288c314902815233600482015290516001600160a01b039092169163a230c52491602480820192602092909190829003018186803b1580156122ea57600080fd5b505afa1580156122fe573d6000803e3d6000fd5b505050506040513d602081101561231457600080fd5b505115156001145b61232557600080fd5b61232e82613274565b60000b6001141561233e57600080fd5b42612442600760009054906101000a90046001600160a01b03166001600160a01b031663bb67643a6040518163ffffffff1660e01b815260040160206040518083038186803b15801561239057600080fd5b505afa1580156123a4573d6000803e3d6000fd5b505050506040513d60208110156123ba57600080fd5b505160075460408051600160e31b6307f9c86502815233600482015290516001600160a01b0390921691633fce432891602480820192602092909190829003018186803b15801561240a57600080fd5b505afa15801561241e573d6000803e3d6000fd5b505050506040513d602081101561243457600080fd5b50519063ffffffff61371b16565b1061244c57600080fd5b6004805460075460408051600160e01b63a90a6e1102815290516000946001600160a01b039485169463179e91f19433946124e194929091169263a90a6e11928282019260209290829003018186803b1580156124a857600080fd5b505afa1580156124bc573d6000803e3d6000fd5b505050506040513d60208110156124d257600080fd5b5051429063ffffffff61371b16565b6040518363ffffffff1660e01b815260040180836001600160a01b03166001600160a01b0316815260200180600160e81b62434c41028152506020018281526020019250505060206040518083038186803b15801561253f57600080fd5b505afa158015612553573d6000803e3d6000fd5b505050506040513d602081101561256957600080fd5b505190508061257757600080fd5b60075460408051600160e01b630325ea370281526004810186905281516000936001600160a01b031692630325ea379260248082019391829003018186803b1580156125c257600080fd5b505afa1580156125d6573d6000803e3d6000fd5b505050506040513d60408110156125ec57600080fd5b5060200151905080156125fe57600080fd5b60075460408051600160e41b630990dcb90281523360048201526024810187905290516001600160a01b039092169163990dcb9091604480820192602092909190829003018186803b15801561265357600080fd5b505afa158015612667573d6000803e3d6000fd5b505050506040513d602081101561267d57600080fd5b50511561268957600080fd5b60085460408051600160e01b633739e43902815233600482015290516001600160a01b0390921691633739e4399160248082019260009290919082900301818387803b1580156126d857600080fd5b505af11580156126ec573d6000803e3d6000fd5b505060075460408051600160e01b6386d2b2010281523360048201526024810187905260448101899052600088810b810b606483015291516001600160a01b0390931694506386d2b20193506084808201939182900301818387803b15801561275457600080fd5b505af1158015612768573d6000803e3d6000fd5b505060075460408051600160e01b63bc82d08902815233600482015260248101899052600160e91b6221a0ab02604482015260648101879052426084820152600088810b810b60a483015291516001600160a01b03909316945063bc82d089935060c4808201939182900301818387803b1580156127e557600080fd5b505af11580156127f9573d6000803e3d6000fd5b505050506000600760009054906101000a90046001600160a01b03166001600160a01b03166370e2630b6040518163ffffffff1660e01b815260040160206040518083038186803b15801561284d57600080fd5b505afa158015612861573d6000803e3d6000fd5b505050506040513d602081101561287757600080fd5b505160075460408051600160e11b6351ae849d028152600481018990526024810184905290519293506001600160a01b039091169163a35d093a9160448082019260009290919082900301818387803b1580156128d357600080fd5b505af11580156128e7573d6000803e3d6000fd5b505060075460408051600160e11b63707eb741028152336004820152602481018a90526044810186905290516001600160a01b03909216935063e0fd6e82925060648082019260009290919082900301818387803b15801561294857600080fd5b505af115801561295c573d6000803e3d6000fd5b505060075460408051600160e11b63787bac3d028152600481018a9052600089810b810b60248301526044820189905291516001600160a01b03909316945063f0f7587a93506064808201939182900301818387803b1580156129be57600080fd5b505af11580156129d2573d6000803e3d6000fd5b50506004805460085460408051600160e21b63034b044102815290516001600160a01b039384169650632c69d416955033949390921692630d2c1104928282019260209290829003018186803b158015612a2b57600080fd5b505afa158015612a3f573d6000803e3d6000fd5b505050506040513d6020811015612a5557600080fd5b50516040805163ffffffff851660e01b81526001600160a01b039093166004840152600160e81b62434c4102602484015260448301919091525160648083019260209291908290030181600087803b158015612ab057600080fd5b505af1158015612ac4573d6000803e3d6000fd5b505050506040513d6020811015612ada57600080fd5b5060009050612ae886613274565b60000b90508060011415612b465760055460408051600160e01b637f6715c90281526004810189905290516001600160a01b0390921691637f6715c99160248082019260009290919082900301818387803b1580156118d257600080fd5b505050505050565b6000546001600160a01b031615612bb1576000546001600160a01b03163314612bb15760408051600160e51b62461bcd02815260206004820152600a6024820152600160b11b692737ba1036b0b9ba32b902604482015290519081900360640190fd5b600080546001600160a01b039092166001600160a01b0319928316811790915560018054909216179055565b6000809054906101000a90046001600160a01b03166001600160a01b031663ff0938a76040518163ffffffff1660e01b815260040160206040518083038186803b158015612c2a57600080fd5b505afa158015612c3e573d6000803e3d6000fd5b505050506040513d6020811015612c5457600080fd5b5051158015612cde575060005460408051600160e21b63288c314902815233600482015290516001600160a01b039092169163a230c52491602480820192602092909190829003018186803b158015612cac57600080fd5b505afa158015612cc0573d6000803e3d6000fd5b505050506040513d6020811015612cd657600080fd5b505115156001145b612ce757600080fd5b612cf082613274565b60000b60011415612d0057600080fd5b6004805460408051600160e11b632587701502815233938101939093525160009283926001600160a01b031691634b0ee02a91602480820192602092909190829003018186803b158015612d5357600080fd5b505afa158015612d67573d6000803e3d6000fd5b505050506040513d6020811015612d7d57600080fd5b505160075460408051600160e01b630325ea370281526004810188905281519394506001600160a01b0390921692630325ea37926024808201939291829003018186803b158015612dcd57600080fd5b505afa158015612de1573d6000803e3d6000fd5b505050506040513d6040811015612df757600080fd5b5060200151915060018210801590612e10575060058211155b612e1957600080fd5b60075460408051600160e01b63aee927410281523360048201526024810187905290516001600160a01b039092169163aee9274191604480820192602092909190829003018186803b158015612e6e57600080fd5b505afa158015612e82573d6000803e3d6000fd5b505050506040513d6020811015612e9857600080fd5b505115612ea457600080fd5b60075460408051600160e01b6386d2b2010281523360048201526024810184905260448101879052600086810b810b606483015291516001600160a01b03909316926386d2b2019260848084019391929182900301818387803b158015612f0a57600080fd5b505af1158015612f1e573d6000803e3d6000fd5b505060075460408051600160e01b63bc82d08902815233600482015260248101899052600160f11b6126ab02604482015260648101869052426084820152600088810b810b60a483015291516001600160a01b03909316945063bc82d089935060c4808201939182900301818387803b158015612f9a57600080fd5b505af1158015612fae573d6000803e3d6000fd5b50506004805460085460408051600160e01b63200e7ccf02815290516001600160a01b039384169650634c47e71d95503394939092169263200e7ccf928282019260209290829003018186803b15801561300757600080fd5b505afa15801561301b573d6000803e3d6000fd5b505050506040513d602081101561303157600080fd5b50516040805163ffffffff851660e01b81526001600160a01b039093166004840152602483019190915251604480830192600092919082900301818387803b15801561307c57600080fd5b505af1158015613090573d6000803e3d6000fd5b505050506000600760009054906101000a90046001600160a01b03166001600160a01b03166370e2630b6040518163ffffffff1660e01b815260040160206040518083038186803b1580156130e457600080fd5b505afa1580156130f8573d6000803e3d6000fd5b505050506040513d602081101561310e57600080fd5b505160075460408051600160e01b63b2dd6f79028152600481018990526024810184905290519293506001600160a01b039091169163b2dd6f799160448082019260009290919082900301818387803b15801561316a57600080fd5b505af115801561317e573d6000803e3d6000fd5b505060075460408051600160e31b631c7a21db028152336004820152602481018a90526044810186905290516001600160a01b03909216935063e3d10ed8925060648082019260009290919082900301818387803b1580156131df57600080fd5b505af11580156131f3573d6000803e3d6000fd5b505060075460408051600160e11b635de93af7028152600481018a9052600089810b810b60248301526044820188905291516001600160a01b03909316945063bbd275ee93506064808201939182900301818387803b15801561325557600080fd5b505af1158015613269573d6000803e3d6000fd5b505050506000612ae8865b60075460408051600160e01b630325ea3702815260048101849052815160009384936001600160a01b0390911692630325ea379260248083019392829003018186803b1580156132c357600080fd5b505afa1580156132d7573d6000803e3d6000fd5b505050506040513d60408110156132ed57600080fd5b5060209081015160075460408051600160e31b630a9a1f1b0281526004810188905290519294506000936001600160a01b03909216926354d0f8d892602480840193919291829003018186803b15801561334657600080fd5b505afa15801561335a573d6000803e3d6000fd5b505050506040513d602081101561337057600080fd5b50519050600c8214801561340c57504261340a600760009054906101000a90046001600160a01b03166001600160a01b031663ee8dea636040518163ffffffff1660e01b815260040160206040518083038186803b1580156133d157600080fd5b505afa1580156133e5573d6000803e3d6000fd5b505050506040513d60208110156133fb57600080fd5b5051839063ffffffff61371b16565b105b156134975760075460408051600160e11b630e62327f028152600481018790529051603c926001600160a01b031691631cc464fe916024808301926020929190829003018186803b15801561346057600080fd5b505afa158015613474573d6000803e3d6000fd5b505050506040513d602081101561348a57600080fd5b5051101561349757600192505b6005821180156134a8575081600c14155b156134b75760001992506135c1565b81600c14158015613518575042613515600760009054906101000a90046001600160a01b03166001600160a01b0316633852a2ec6040518163ffffffff1660e01b815260040160206040518083038186803b1580156133d157600080fd5b11155b1561352657600192506135c1565b81600c14158015613587575042613584600760009054906101000a90046001600160a01b03166001600160a01b03166379c80e726040518163ffffffff1660e01b815260040160206040518083038186803b1580156133d157600080fd5b10155b1561359557600092506135c1565b8115806135af5750600182101580156135af575060058211155b156135c1576135be8483613ddb565b92505b5050919050565b6001546001600160a01b031681565b60005460408051600160e21b6323c5b10702815233600482015290516001600160a01b0390921691638f16c41c91602480820192602092909190829003018186803b15801561362557600080fd5b505afa158015613639573d6000803e3d6000fd5b505050506040513d602081101561364f57600080fd5b505161365a57600080fd5b613664828261419a565b5050565b60075460408051600160e21b630ebb8bdf02815260048101849052336024820152905160009283928392839283926001600160a01b0390911691633aee2f7c9160448082019260a092909190829003018186803b1580156136c857600080fd5b505afa1580156136dc573d6000803e3d6000fd5b505050506040513d60a08110156136f257600080fd5b508051602082015160408301516060840151608090940151929a91995097509195509350915050565b6000828201838110156137785760408051600160e51b62461bcd02815260206004820152601b60248201527f536166654d6174683a206164646974696f6e206f766572666c6f770000000000604482015290519081900360640190fd5b90505b92915050565b600061377883836040518060400160405280601e81526020017f536166654d6174683a207375627472616374696f6e206f766572666c6f7700008152506148d8565b6000826137d25750600061377b565b828202828482816137df57fe5b041461377857604051600160e51b62461bcd0281526004018080602001828103825260218152602001806149db6021913960400191505060405180910390fd5b600061377883836040518060400160405280601a81526020017f536166654d6174683a206469766973696f6e206279207a65726f000000000000815250614972565b60025460408051600160e31b63098296750281526004810186905290516001600160a01b0390921691634c14b3a8916024808201926020929091908290030181600087803b1580156138b257600080fd5b505af11580156138c6573d6000803e3d6000fd5b505050506040513d60208110156138dc57600080fd5b505060075460408051600160e11b636235bbe102815290516000926001600160a01b03169163c46b77c2916004808301926020929190829003018186803b15801561392657600080fd5b505afa15801561393a573d6000803e3d6000fd5b505050506040513d602081101561395057600080fd5b505160075460408051600160e11b635568763d02815260048101849052602481018890526001600160a01b038681166044830152426064830152915193945091169163aad0ec7a9160848082019260009290919082900301818387803b1580156139b957600080fd5b505af11580156139cd573d6000803e3d6000fd5b505060075460408051600160e41b63037bc7f9028152600481018990526001600160a01b038781166024830152604482018790526064820189905291519190921693506337bc7f909250608480830192600092919082900301818387803b158015613a3757600080fd5b505af1158015613a4b573d6000803e3d6000fd5b5050600b5460408051600160e11b63570e2f6502815260048181018a9052602482015290516001600160a01b03909216935063ae1c5eca925060448082019260009290919082900301818387803b158015613aa557600080fd5b505af1158015613ab9573d6000803e3d6000fd5b5050600b5460408051600160e21b6322d5c8bd028152600481018990529051600094506001600160a01b039092169250638b5722f4916024808301926020929190829003018186803b158015613b0e57600080fd5b505afa158015613b22573d6000803e3d6000fd5b505050506040513d6020811015613b3857600080fd5b5051600b5460408051600160e01b631ce48f3d028152600481018990529051929350600092613bd592670de0b6b3a7640000926001600160a01b0390911691631ce48f3d91602480820192602092909190829003018186803b158015613b9d57600080fd5b505afa158015613bb1573d6000803e3d6000fd5b505050506040513d6020811015613bc757600080fd5b50519063ffffffff6137c316565b60095460408051600160e81b62487d2d0281526001600160e01b03198616600482015290519293506001600160a01b039091169163d1750585918591613c3e918691869163487d2d00916024808301926020929190829003018186803b15801561240a57600080fd5b6040518363ffffffff1660e01b815260040180836001600160e01b0319166001600160e01b031916815260200182815260200192505050600060405180830381600087803b158015613c8f57600080fd5b505af1158015613ca3573d6000803e3d6000fd5b5050600a5460408051600160e81b622d9fa50281526001600160e01b03198716600482015290516001600160a01b039092169350632d9fa500925060248082019260009290919082900301818387803b158015613cff57600080fd5b505af1158015613d13573d6000803e3d6000fd5b505060065460075460408051600160e21b630e14a8bb02815290516001600160a01b03938416955063a19ed7839450889390921691633852a2ec91600480820192602092909190829003018186803b158015613d6e57600080fd5b505afa158015613d82573d6000803e3d6000fd5b505050506040513d6020811015613d9857600080fd5b50516040805163ffffffff851660e01b81526004810193909352602483019190915251604480830192600092919082900301818387803b1580156118d257600080fd5b60075460408051600160e01b6396ff592f02815260048101859052815160009384936001600160a01b03909116926396ff592f9260248083019392829003018186803b158015613e2a57600080fd5b505afa158015613e3e573d6000803e3d6000fd5b505050506040513d6040811015613e5457600080fd5b50602090810151600b5460408051600160e21b6322d5c8bd0281526004810184905290519294506000936001600160a01b0390921692638b5722f492602480840193919291829003018186803b158015613ead57600080fd5b505afa158015613ec1573d6000803e3d6000fd5b505050506040513d6020811015613ed757600080fd5b5051600c5460408051600160e01b633cb23b2d0281526001600160e01b03198416600482015290519293506000926001600160a01b0390921691633cb23b2d91602480820192602092909190829003018186803b158015613f3757600080fd5b505afa158015613f4b573d6000803e3d6000fd5b505050506040513d6020811015613f6157600080fd5b505160075460408051600160e21b6336f40193028152600481018a9052905192935060009283926001600160a01b03169163dbd0064c916024808301926060929190829003018186803b158015613fb757600080fd5b505afa158015613fcb573d6000803e3d6000fd5b505050506040513d6060811015613fe157600080fd5b50602081015160409091015190925090506000614014670de0b6b3a764000061120b866111ff878763ffffffff61371b16565b60075460408051600160e11b634a4ecebb028152600481018d905290519293506001600160a01b039091169163949d9d7691602480820192606092909190829003018186803b15801561406657600080fd5b505afa15801561407a573d6000803e3d6000fd5b505050506040513d606081101561409057600080fd5b506020810151604090910151909350915060006140c3670de0b6b3a764000061120b876111ff888863ffffffff61371b16565b600b5460408051600160e01b631ce48f3d028152600481018b9052905192935060009261412692670de0b6b3a7640000926001600160a01b0390911691631ce48f3d91602480820192602092909190829003018186803b158015613b9d57600080fd5b905089158015614146575061414281600a63ffffffff6137c316565b8310155b15614154576001985061418c565b60018a10158015614166575060058a11155b8015614182575061417e81600a63ffffffff6137c316565b8210155b1561418c57600198505b505050505050505092915050565b60075460408051600160e01b635aef24470281526004810185905290516000928392839283926001600160a01b031691635aef24479160248083019260c0929190829003018186803b1580156141ef57600080fd5b505afa158015614203573d6000803e3d6000fd5b505050506040513d60c081101561421957600080fd5b5060208101516060820151608083015160a09093015160075460408051600160e01b630325ea37028152600481018d90528151949a509298509496509294506001600160a01b0390921692630325ea379260248082019391829003018186803b15801561428557600080fd5b505afa158015614299573d6000803e3d6000fd5b505050506040513d60408110156142af57600080fd5b50602001519350600c851480156142c6575083600c145b1561433b5760075460408051600160e01b639bc5aa23028152600481018990526001602482015290516001600160a01b0390921691639bc5aa239160448082019260009290919082900301818387803b15801561432257600080fd5b505af1158015614336573d6000803e3d6000fd5b505050505b60075460408051600160e11b637a88deff028152600481018990526024810188905290516001600160a01b039092169163f511bdfe9160448082019260009290919082900301818387803b15801561439257600080fd5b505af11580156143a6573d6000803e3d6000fd5b50505050603c83101580156143bb575084600c145b1561449f5760075460408051600160e11b637a88deff02815260048101899052600d602482015290516001600160a01b039092169163f511bdfe9160448082019260009290919082900301818387803b15801561441757600080fd5b505af115801561442b573d6000803e3d6000fd5b5050600b5460408051600160e11b63570e2f65028152600481018690526002602482015290516001600160a01b03909216935063ae1c5eca925060448082019260009290919082900301818387803b15801561448657600080fd5b505af115801561449a573d6000803e3d6000fd5b505050505b60075460408051600160e11b633e157b77028152600481018990524260248201819052915191926001600160a01b031691637c2af6ee9160448082019260009290919082900301818387803b1580156144f757600080fd5b505af115801561450b573d6000803e3d6000fd5b5050505060028610158015614521575060058611155b156146025760065460075460408051600160e21b630e14a8bb02815290516001600160a01b039384169363a19ed783938c93911691633852a2ec91600480820192602092909190829003018186803b15801561457c57600080fd5b505afa158015614590573d6000803e3d6000fd5b505050506040513d60208110156145a657600080fd5b50516040805163ffffffff851660e01b81526004810193909352602483019190915251604480830192600092919082900301818387803b1580156145e957600080fd5b505af11580156145fd573d6000803e3d6000fd5b505050505b85600c14801561469b575042614698600760009054906101000a90046001600160a01b03166001600160a01b031663ee8dea636040518163ffffffff1660e01b815260040160206040518083038186803b15801561465f57600080fd5b505afa158015614673573d6000803e3d6000fd5b505050506040513d602081101561468957600080fd5b5051859063ffffffff61371b16565b11155b80156146a75750603c84105b1561478c5760065460075460408051600160e01b63ee8dea6302815290516001600160a01b039384169363a19ed783938c9391169163ee8dea6391600480820192602092909190829003018186803b15801561470257600080fd5b505afa158015614716573d6000803e3d6000fd5b505050506040513d602081101561472c57600080fd5b50516040805163ffffffff851660e01b81526004810193909352602483019190915251604480830192600092919082900301818387803b15801561476f57600080fd5b505af1158015614783573d6000803e3d6000fd5b50505050611559565b85600c1480156147eb5750426147e9600760009054906101000a90046001600160a01b03166001600160a01b031663ee8dea636040518163ffffffff1660e01b815260040160206040518083038186803b15801561465f57600080fd5b115b80156147f75750603c84105b1561155957600061485342610cf5600760009054906101000a90046001600160a01b03166001600160a01b031663ee8dea636040518163ffffffff1660e01b815260040160206040518083038186803b158015610cbc57600080fd5b60065460408051600160e01b63a19ed783028152600481018c905267ffffffffffffffff8416602482015290519293506001600160a01b039091169163a19ed7839160448082019260009290919082900301818387803b1580156148b657600080fd5b505af11580156148ca573d6000803e3d6000fd5b505050505050505050505050565b6000818484111561496a57604051600160e51b62461bcd0281526004018080602001828103825283818151815260200191508051906020019080838360005b8381101561492f578181015183820152602001614917565b50505050905090810190601f16801561495c5780820380516001836020036101000a031916815260200191505b509250505060405180910390fd5b505050900390565b600081836149c457604051600160e51b62461bcd02815260206004820181815283516024840152835190928392604490910191908501908083836000831561492f578181015183820152602001614917565b5060008385816149d057fe5b049594505050505056fe536166654d6174683a206d756c7469706c69636174696f6e206f766572666c6f77a165627a7a7230582018dc6045243d2ef5fd906f3d24bc6eb42669641f0f4e133336bcafcade143b560029",
  "compiler": {
    "name": "solc",
    "version": "0.5.7+commit.6da8b019.Emscripten.clang",
    "optimizer": {
      "enabled": true,
      "runs": 200
    },
    "evmVersion": "petersburg"
  }
}