{
  "fileName": "ClaimsReward.sol",
  "contractName": "ClaimsReward",
  "source": "/* Copyright (C) 2020 NexusMutual.io\n\n  This program is free software: you can redistribute it and/or modify\n    it under the terms of the GNU General Public License as published by\n    the Free Software Foundation, either version 3 of the License, or\n    (at your option) any later version.\n\n  This program is distributed in the hope that it will be useful,\n    but WITHOUT ANY WARRANTY; without even the implied warranty of\n    MERCHANTABILITY or FITNESS FOR A PARTICULAR PURPOSE.  See the\n    GNU General Public License for more details.\n\n  You should have received a copy of the GNU General Public License\n    along with this program.  If not, see http://www.gnu.org/licenses/ */\n\n//Claims Reward Contract contains the functions for calculating number of tokens\n// that will get rewarded, unlocked or burned depending upon the status of claim.\n\npragma solidity ^0.5.0;\n\nimport \"../../interfaces/IPooledStaking.sol\";\nimport \"../capital/Pool1.sol\";\nimport \"../capital/Pool2.sol\";\nimport \"../capital/PoolData.sol\";\nimport \"../cover/QuotationData.sol\";\nimport \"../governance/Governance.sol\";\nimport \"../token/TokenData.sol\";\nimport \"../token/TokenFunctions.sol\";\nimport \"./Claims.sol\";\nimport \"./ClaimsData.sol\";\n\ncontract ClaimsReward is Iupgradable {\n  using SafeMath for uint;\n\n  NXMToken internal tk;\n  TokenController internal tc;\n  TokenFunctions internal tf;\n  TokenData internal td;\n  QuotationData internal qd;\n  Claims internal c1;\n  ClaimsData internal cd;\n  Pool1 internal p1;\n  Pool2 internal p2;\n  PoolData internal pd;\n  Governance internal gv;\n  IPooledStaking internal pooledStaking;\n\n  uint private constant DECIMAL1E18 = uint(10) ** 18;\n\n  function changeDependentContractAddress() public onlyInternal {\n    c1 = Claims(ms.getLatestAddress(\"CL\"));\n    cd = ClaimsData(ms.getLatestAddress(\"CD\"));\n    tk = NXMToken(ms.tokenAddress());\n    tc = TokenController(ms.getLatestAddress(\"TC\"));\n    td = TokenData(ms.getLatestAddress(\"TD\"));\n    tf = TokenFunctions(ms.getLatestAddress(\"TF\"));\n    p1 = Pool1(ms.getLatestAddress(\"P1\"));\n    p2 = Pool2(ms.getLatestAddress(\"P2\"));\n    pd = PoolData(ms.getLatestAddress(\"PD\"));\n    qd = QuotationData(ms.getLatestAddress(\"QD\"));\n    gv = Governance(ms.getLatestAddress(\"GV\"));\n    pooledStaking = IPooledStaking(ms.getLatestAddress(\"PS\"));\n  }\n\n  /// @dev Decides the next course of action for a given claim.\n  function changeClaimStatus(uint claimid) public checkPause onlyInternal {\n\n    uint coverid;\n    (, coverid) = cd.getClaimCoverId(claimid);\n\n    uint status;\n    (, status) = cd.getClaimStatusNumber(claimid);\n\n    // when current status is \"Pending-Claim Assessor Vote\"\n    if (status == 0) {\n      _changeClaimStatusCA(claimid, coverid, status);\n    } else if (status >= 1 && status <= 5) {\n      _changeClaimStatusMV(claimid, coverid, status);\n    } else if (status == 12) {// when current status is \"Claim Accepted Payout Pending\"\n\n      uint sumAssured = qd.getCoverSumAssured(coverid).mul(DECIMAL1E18);\n      address payable coverHolder = qd.getCoverMemberAddress(coverid);\n      bytes4 coverCurrency = qd.getCurrencyOfCover(coverid);\n      bool success = p1.sendClaimPayout(coverid, claimid, sumAssured, coverHolder, coverCurrency);\n\n      if (success) {\n        tf.burnStakedTokens(coverid, coverCurrency, sumAssured);\n        c1.setClaimStatus(claimid, 14);\n      }\n    }\n\n    c1.changePendingClaimStart();\n  }\n\n  /// @dev Amount of tokens to be rewarded to a user for a particular vote id.\n  /// @param check 1 -> CA vote, else member vote\n  /// @param voteid vote id for which reward has to be Calculated\n  /// @param flag if 1 calculate even if claimed,else don't calculate if already claimed\n  /// @return tokenCalculated reward to be given for vote id\n  /// @return lastClaimedCheck true if final verdict is still pending for that voteid\n  /// @return tokens number of tokens locked under that voteid\n  /// @return perc percentage of reward to be given.\n  function getRewardToBeGiven(\n    uint check,\n    uint voteid,\n    uint flag\n  )\n  public\n  view\n  returns (\n    uint tokenCalculated,\n    bool lastClaimedCheck,\n    uint tokens,\n    uint perc\n  )\n\n  {\n    uint claimId;\n    int8 verdict;\n    bool claimed;\n    uint tokensToBeDist;\n    uint totalTokens;\n    (tokens, claimId, verdict, claimed) = cd.getVoteDetails(voteid);\n    lastClaimedCheck = false;\n    int8 claimVerdict = cd.getFinalVerdict(claimId);\n    if (claimVerdict == 0) {\n      lastClaimedCheck = true;\n    }\n\n    if (claimVerdict == verdict && (claimed == false || flag == 1)) {\n\n      if (check == 1) {\n        (perc, , tokensToBeDist) = cd.getClaimRewardDetail(claimId);\n      } else {\n        (, perc, tokensToBeDist) = cd.getClaimRewardDetail(claimId);\n      }\n\n      if (perc > 0) {\n        if (check == 1) {\n          if (verdict == 1) {\n            (, totalTokens,) = cd.getClaimsTokenCA(claimId);\n          } else {\n            (,, totalTokens) = cd.getClaimsTokenCA(claimId);\n          }\n        } else {\n          if (verdict == 1) {\n            (, totalTokens,) = cd.getClaimsTokenMV(claimId);\n          } else {\n            (,, totalTokens) = cd.getClaimsTokenMV(claimId);\n          }\n        }\n        tokenCalculated = (perc.mul(tokens).mul(tokensToBeDist)).div(totalTokens.mul(100));\n\n\n      }\n    }\n  }\n\n  /// @dev Transfers all tokens held by contract to a new contract in case of upgrade.\n  function upgrade(address _newAdd) public onlyInternal {\n    uint amount = tk.balanceOf(address(this));\n    if (amount > 0) {\n      require(tk.transfer(_newAdd, amount));\n    }\n\n  }\n\n  /// @dev Total reward in token due for claim by a user.\n  /// @return total total number of tokens\n  function getRewardToBeDistributedByUser(address _add) public view returns (uint total) {\n    uint lengthVote = cd.getVoteAddressCALength(_add);\n    uint lastIndexCA;\n    uint lastIndexMV;\n    uint tokenForVoteId;\n    uint voteId;\n    (lastIndexCA, lastIndexMV) = cd.getRewardDistributedIndex(_add);\n\n    for (uint i = lastIndexCA; i < lengthVote; i++) {\n      voteId = cd.getVoteAddressCA(_add, i);\n      (tokenForVoteId,,,) = getRewardToBeGiven(1, voteId, 0);\n      total = total.add(tokenForVoteId);\n    }\n\n    lengthVote = cd.getVoteAddressMemberLength(_add);\n\n    for (uint j = lastIndexMV; j < lengthVote; j++) {\n      voteId = cd.getVoteAddressMember(_add, j);\n      (tokenForVoteId,,,) = getRewardToBeGiven(0, voteId, 0);\n      total = total.add(tokenForVoteId);\n    }\n    return (total);\n  }\n\n  /// @dev Gets reward amount and claiming status for a given claim id.\n  /// @return reward amount of tokens to user.\n  /// @return claimed true if already claimed false if yet to be claimed.\n  function getRewardAndClaimedStatus(uint check, uint claimId) public view returns (uint reward, bool claimed) {\n    uint voteId;\n    uint claimid;\n    uint lengthVote;\n\n    if (check == 1) {\n      lengthVote = cd.getVoteAddressCALength(msg.sender);\n      for (uint i = 0; i < lengthVote; i++) {\n        voteId = cd.getVoteAddressCA(msg.sender, i);\n        (, claimid, , claimed) = cd.getVoteDetails(voteId);\n        if (claimid == claimId) {break;}\n      }\n    } else {\n      lengthVote = cd.getVoteAddressMemberLength(msg.sender);\n      for (uint j = 0; j < lengthVote; j++) {\n        voteId = cd.getVoteAddressMember(msg.sender, j);\n        (, claimid, , claimed) = cd.getVoteDetails(voteId);\n        if (claimid == claimId) {break;}\n      }\n    }\n    (reward,,,) = getRewardToBeGiven(check, voteId, 1);\n\n  }\n\n  /**\n   * @dev Function used to claim all pending rewards : Claims Assessment + Risk Assessment + Governance\n   * Claim assesment, Risk assesment, Governance rewards\n   */\n  function claimAllPendingReward(uint records) public isMemberAndcheckPause {\n    _claimRewardToBeDistributed(records);\n    pooledStaking.withdrawReward(msg.sender);\n    uint governanceRewards = gv.claimReward(msg.sender, records);\n    if (governanceRewards > 0) {\n      require(tk.transfer(msg.sender, governanceRewards));\n    }\n  }\n\n  /**\n   * @dev Function used to get pending rewards of a particular user address.\n   * @param _add user address.\n   * @return total reward amount of the user\n   */\n  function getAllPendingRewardOfUser(address _add) public view returns (uint) {\n    uint caReward = getRewardToBeDistributedByUser(_add);\n    uint pooledStakingReward = pooledStaking.stakerReward(_add);\n    uint governanceReward = gv.getPendingReward(_add);\n    return caReward.add(pooledStakingReward).add(governanceReward);\n  }\n\n  /// @dev Rewards/Punishes users who  participated in Claims assessment.\n  //    Unlocking and burning of the tokens will also depend upon the status of claim.\n  /// @param claimid Claim Id.\n  function _rewardAgainstClaim(uint claimid, uint coverid, uint sumAssured, uint status) internal {\n    uint premiumNXM = qd.getCoverPremiumNXM(coverid);\n    bytes4 curr = qd.getCurrencyOfCover(coverid);\n    uint distributableTokens = premiumNXM.mul(cd.claimRewardPerc()).div(100); // 20% of premium\n\n    uint percCA;\n    uint percMV;\n\n    (percCA, percMV) = cd.getRewardStatus(status);\n    cd.setClaimRewardDetail(claimid, percCA, percMV, distributableTokens);\n    if (percCA > 0 || percMV > 0) {\n      tc.mint(address(this), distributableTokens);\n    }\n\n    if (status == 6 || status == 9 || status == 11) {\n      cd.changeFinalVerdict(claimid, - 1);\n      td.setDepositCN(coverid, false); // Unset flag\n      tf.burnDepositCN(coverid); // burn Deposited CN\n\n      pd.changeCurrencyAssetVarMin(curr, pd.getCurrencyAssetVarMin(curr).sub(sumAssured));\n      p2.internalLiquiditySwap(curr);\n\n    } else if (status == 7 || status == 8 || status == 10) {\n      cd.changeFinalVerdict(claimid, 1);\n      td.setDepositCN(coverid, false); // Unset flag\n      tf.unlockCN(coverid);\n      bool success = p1.sendClaimPayout(coverid, claimid, sumAssured, qd.getCoverMemberAddress(coverid), curr);\n      if (success) {\n        tf.burnStakedTokens(coverid, curr, sumAssured);\n      }\n    }\n  }\n\n  /// @dev Computes the result of Claim Assessors Voting for a given claim id.\n  function _changeClaimStatusCA(uint claimid, uint coverid, uint status) internal {\n    // Check if voting should be closed or not\n    if (c1.checkVoteClosing(claimid) == 1) {\n      uint caTokens = c1.getCATokens(claimid, 0); // converted in cover currency.\n      uint accept;\n      uint deny;\n      uint acceptAndDeny;\n      bool rewardOrPunish;\n      uint sumAssured;\n      (, accept) = cd.getClaimVote(claimid, 1);\n      (, deny) = cd.getClaimVote(claimid, - 1);\n      acceptAndDeny = accept.add(deny);\n      accept = accept.mul(100);\n      deny = deny.mul(100);\n\n      if (caTokens == 0) {\n        status = 3;\n      } else {\n        sumAssured = qd.getCoverSumAssured(coverid).mul(DECIMAL1E18);\n        // Min threshold reached tokens used for voting > 5* sum assured\n        if (caTokens > sumAssured.mul(5)) {\n\n          if (accept.div(acceptAndDeny) > 70) {\n            status = 7;\n            qd.changeCoverStatusNo(coverid, uint8(QuotationData.CoverStatus.ClaimAccepted));\n            rewardOrPunish = true;\n          } else if (deny.div(acceptAndDeny) > 70) {\n            status = 6;\n            qd.changeCoverStatusNo(coverid, uint8(QuotationData.CoverStatus.ClaimDenied));\n            rewardOrPunish = true;\n          } else if (accept.div(acceptAndDeny) > deny.div(acceptAndDeny)) {\n            status = 4;\n          } else {\n            status = 5;\n          }\n\n        } else {\n\n          if (accept.div(acceptAndDeny) > deny.div(acceptAndDeny)) {\n            status = 2;\n          } else {\n            status = 3;\n          }\n        }\n      }\n\n      c1.setClaimStatus(claimid, status);\n\n      if (rewardOrPunish) {\n        _rewardAgainstClaim(claimid, coverid, sumAssured, status);\n      }\n    }\n  }\n\n  /// @dev Computes the result of Member Voting for a given claim id.\n  function _changeClaimStatusMV(uint claimid, uint coverid, uint status) internal {\n\n    // Check if voting should be closed or not\n    if (c1.checkVoteClosing(claimid) == 1) {\n      uint8 coverStatus;\n      uint statusOrig = status;\n      uint mvTokens = c1.getCATokens(claimid, 1); // converted in cover currency.\n\n      // If tokens used for acceptance >50%, claim is accepted\n      uint sumAssured = qd.getCoverSumAssured(coverid).mul(DECIMAL1E18);\n      uint thresholdUnreached = 0;\n      // Minimum threshold for member voting is reached only when\n      // value of tokens used for voting > 5* sum assured of claim id\n      if (mvTokens < sumAssured.mul(5)) {\n        thresholdUnreached = 1;\n      }\n\n      uint accept;\n      (, accept) = cd.getClaimMVote(claimid, 1);\n      uint deny;\n      (, deny) = cd.getClaimMVote(claimid, - 1);\n\n      if (accept.add(deny) > 0) {\n        if (accept.mul(100).div(accept.add(deny)) >= 50 && statusOrig > 1 &&\n        statusOrig <= 5 && thresholdUnreached == 0) {\n          status = 8;\n          coverStatus = uint8(QuotationData.CoverStatus.ClaimAccepted);\n        } else if (deny.mul(100).div(accept.add(deny)) >= 50 && statusOrig > 1 &&\n        statusOrig <= 5 && thresholdUnreached == 0) {\n          status = 9;\n          coverStatus = uint8(QuotationData.CoverStatus.ClaimDenied);\n        }\n      }\n\n      if (thresholdUnreached == 1 && (statusOrig == 2 || statusOrig == 4)) {\n        status = 10;\n        coverStatus = uint8(QuotationData.CoverStatus.ClaimAccepted);\n      } else if (thresholdUnreached == 1 && (statusOrig == 5 || statusOrig == 3 || statusOrig == 1)) {\n        status = 11;\n        coverStatus = uint8(QuotationData.CoverStatus.ClaimDenied);\n      }\n\n      c1.setClaimStatus(claimid, status);\n      qd.changeCoverStatusNo(coverid, uint8(coverStatus));\n      // Reward/Punish Claim Assessors and Members who participated in Claims assessment\n      _rewardAgainstClaim(claimid, coverid, sumAssured, status);\n    }\n  }\n\n  /// @dev Allows a user to claim all pending  Claims assessment rewards.\n  function _claimRewardToBeDistributed(uint _records) internal {\n    uint lengthVote = cd.getVoteAddressCALength(msg.sender);\n    uint voteid;\n    uint lastIndex;\n    (lastIndex,) = cd.getRewardDistributedIndex(msg.sender);\n    uint total = 0;\n    uint tokenForVoteId = 0;\n    bool lastClaimedCheck;\n    uint _days = td.lockCADays();\n    bool claimed;\n    uint counter = 0;\n    uint claimId;\n    uint perc;\n    uint i;\n    uint lastClaimed = lengthVote;\n\n    for (i = lastIndex; i < lengthVote && counter < _records; i++) {\n      voteid = cd.getVoteAddressCA(msg.sender, i);\n      (tokenForVoteId, lastClaimedCheck, , perc) = getRewardToBeGiven(1, voteid, 0);\n      if (lastClaimed == lengthVote && lastClaimedCheck == true) {\n        lastClaimed = i;\n      }\n      (, claimId, , claimed) = cd.getVoteDetails(voteid);\n\n      if (perc > 0 && !claimed) {\n        counter++;\n        cd.setRewardClaimed(voteid, true);\n      } else if (perc == 0 && cd.getFinalVerdict(claimId) != 0 && !claimed) {\n        (perc,,) = cd.getClaimRewardDetail(claimId);\n        if (perc == 0) {\n          counter++;\n        }\n        cd.setRewardClaimed(voteid, true);\n      }\n      if (tokenForVoteId > 0) {\n        total = tokenForVoteId.add(total);\n      }\n    }\n    if (lastClaimed == lengthVote) {\n      cd.setRewardDistributedIndexCA(msg.sender, i);\n    }\n    else {\n      cd.setRewardDistributedIndexCA(msg.sender, lastClaimed);\n    }\n    lengthVote = cd.getVoteAddressMemberLength(msg.sender);\n    lastClaimed = lengthVote;\n    _days = _days.mul(counter);\n    if (tc.tokensLockedAtTime(msg.sender, \"CLA\", now) > 0) {\n      tc.reduceLock(msg.sender, \"CLA\", _days);\n    }\n    (, lastIndex) = cd.getRewardDistributedIndex(msg.sender);\n    lastClaimed = lengthVote;\n    counter = 0;\n    for (i = lastIndex; i < lengthVote && counter < _records; i++) {\n      voteid = cd.getVoteAddressMember(msg.sender, i);\n      (tokenForVoteId, lastClaimedCheck,,) = getRewardToBeGiven(0, voteid, 0);\n      if (lastClaimed == lengthVote && lastClaimedCheck == true) {\n        lastClaimed = i;\n      }\n      (, claimId, , claimed) = cd.getVoteDetails(voteid);\n      if (claimed == false && cd.getFinalVerdict(claimId) != 0) {\n        cd.setRewardClaimed(voteid, true);\n        counter++;\n      }\n      if (tokenForVoteId > 0) {\n        total = tokenForVoteId.add(total);\n      }\n    }\n    if (total > 0) {\n      require(tk.transfer(msg.sender, total));\n    }\n    if (lastClaimed == lengthVote) {\n      cd.setRewardDistributedIndexMV(msg.sender, i);\n    }\n    else {\n      cd.setRewardDistributedIndexMV(msg.sender, lastClaimed);\n    }\n  }\n\n  /**\n   * @dev Function used to claim the commission earned by the staker.\n   */\n  function _claimStakeCommission(uint _records, address _user) external onlyInternal {\n    uint total = 0;\n    uint len = td.getStakerStakedContractLength(_user);\n    uint lastCompletedStakeCommission = td.lastCompletedStakeCommission(_user);\n    uint commissionEarned;\n    uint commissionRedeemed;\n    uint maxCommission;\n    uint lastCommisionRedeemed = len;\n    uint counter;\n    uint i;\n\n    for (i = lastCompletedStakeCommission; i < len && counter < _records; i++) {\n      commissionRedeemed = td.getStakerRedeemedStakeCommission(_user, i);\n      commissionEarned = td.getStakerEarnedStakeCommission(_user, i);\n      maxCommission = td.getStakerInitialStakedAmountOnContract(\n        _user, i).mul(td.stakerMaxCommissionPer()).div(100);\n      if (lastCommisionRedeemed == len && maxCommission != commissionEarned)\n        lastCommisionRedeemed = i;\n      td.pushRedeemedStakeCommissions(_user, i, commissionEarned.sub(commissionRedeemed));\n      total = total.add(commissionEarned.sub(commissionRedeemed));\n      counter++;\n    }\n    if (lastCommisionRedeemed == len) {\n      td.setLastCompletedStakeCommissionIndex(_user, i);\n    } else {\n      td.setLastCompletedStakeCommissionIndex(_user, lastCommisionRedeemed);\n    }\n\n    if (total > 0)\n      require(tk.transfer(_user, total)); // solhint-disable-line\n  }\n}\n",
  "sourcePath": "contracts/modules/claims/ClaimsReward.sol",
  "abi": [
    {
      "constant": false,
      "inputs": [
        {
          "name": "_records",
          "type": "uint256"
        },
        {
          "name": "_user",
          "type": "address"
        }
      ],
      "name": "_claimStakeCommission",
      "outputs": [],
      "payable": false,
      "stateMutability": "nonpayable",
      "type": "function"
    },
    {
      "constant": false,
      "inputs": [
        {
          "name": "_newAdd",
          "type": "address"
        }
      ],
      "name": "upgrade",
      "outputs": [],
      "payable": false,
      "stateMutability": "nonpayable",
      "type": "function"
    },
    {
      "constant": false,
      "inputs": [],
      "name": "changeDependentContractAddress",
      "outputs": [],
      "payable": false,
      "stateMutability": "nonpayable",
      "type": "function"
    },
    {
      "constant": true,
      "inputs": [
        {
          "name": "_add",
          "type": "address"
        }
      ],
      "name": "getAllPendingRewardOfUser",
      "outputs": [
        {
          "name": "",
          "type": "uint256"
        }
      ],
      "payable": false,
      "stateMutability": "view",
      "type": "function"
    },
    {
      "constant": true,
      "inputs": [
        {
          "name": "check",
          "type": "uint256"
        },
        {
          "name": "claimId",
          "type": "uint256"
        }
      ],
      "name": "getRewardAndClaimedStatus",
      "outputs": [
        {
          "name": "reward",
          "type": "uint256"
        },
        {
          "name": "claimed",
          "type": "bool"
        }
      ],
      "payable": false,
      "stateMutability": "view",
      "type": "function"
    },
    {
      "constant": true,
      "inputs": [
        {
          "name": "_add",
          "type": "address"
        }
      ],
      "name": "getRewardToBeDistributedByUser",
      "outputs": [
        {
          "name": "total",
          "type": "uint256"
        }
      ],
      "payable": false,
      "stateMutability": "view",
      "type": "function"
    },
    {
      "constant": false,
      "inputs": [
        {
          "name": "records",
          "type": "uint256"
        }
      ],
      "name": "claimAllPendingReward",
      "outputs": [],
      "payable": false,
      "stateMutability": "nonpayable",
      "type": "function"
    },
    {
      "constant": false,
      "inputs": [
        {
          "name": "claimid",
          "type": "uint256"
        }
      ],
      "name": "changeClaimStatus",
      "outputs": [],
      "payable": false,
      "stateMutability": "nonpayable",
      "type": "function"
    },
    {
      "constant": true,
      "inputs": [],
      "name": "ms",
      "outputs": [
        {
          "name": "",
          "type": "address"
        }
      ],
      "payable": false,
      "stateMutability": "view",
      "type": "function"
    },
    {
      "constant": false,
      "inputs": [
        {
          "name": "_masterAddress",
          "type": "address"
        }
      ],
      "name": "changeMasterAddress",
      "outputs": [],
      "payable": false,
      "stateMutability": "nonpayable",
      "type": "function"
    },
    {
      "constant": true,
      "inputs": [
        {
          "name": "check",
          "type": "uint256"
        },
        {
          "name": "voteid",
          "type": "uint256"
        },
        {
          "name": "flag",
          "type": "uint256"
        }
      ],
      "name": "getRewardToBeGiven",
      "outputs": [
        {
          "name": "tokenCalculated",
          "type": "uint256"
        },
        {
          "name": "lastClaimedCheck",
          "type": "bool"
        },
        {
          "name": "tokens",
          "type": "uint256"
        },
        {
          "name": "perc",
          "type": "uint256"
        }
      ],
      "payable": false,
      "stateMutability": "view",
      "type": "function"
    },
    {
      "constant": true,
      "inputs": [],
      "name": "nxMasterAddress",
      "outputs": [
        {
          "name": "",
          "type": "address"
        }
      ],
      "payable": false,
      "stateMutability": "view",
      "type": "function"
    }
  ],
  "bytecode": "0x608060405234801561001057600080fd5b506148da806100206000396000f3fe608060405234801561001057600080fd5b50600436106100b45760003560e01c806363bb23be1161007157806363bb23be146101af5780637f6715c9146101cc578063a0b2d57f146101e9578063d46655f41461020d578063df31f20814610233578063f17a3bec14610282576100b4565b806304ee27c6146100b95780630900f010146100e75780630ea9c9841461010d57806335afb14e1461011557806341becc071461014d578063452efce914610189575b600080fd5b6100e5600480360360408110156100cf57600080fd5b50803590602001356001600160a01b031661028a565b005b6100e5600480360360208110156100fd57600080fd5b50356001600160a01b03166108e5565b6100e5610a7c565b61013b6004803603602081101561012b57600080fd5b50356001600160a01b03166111fb565b60408051918252519081900360200190f35b6101706004803603604081101561016357600080fd5b5080359060200135611336565b6040805192835290151560208301528051918290030190f35b61013b6004803603602081101561019f57600080fd5b50356001600160a01b03166116be565b6100e5600480360360208110156101c557600080fd5b50356119d1565b6100e5600480360360208110156101e257600080fd5b5035611c2e565b6101f16121e2565b604080516001600160a01b039092168252519081900360200190f35b6100e56004803603602081101561022357600080fd5b50356001600160a01b03166121f1565b61025c6004803603606081101561024957600080fd5b5080359060208101359060400135612280565b604080519485529215156020850152838301919091526060830152519081900360800190f35b6101f161277e565b60005460408051600160e21b6323c5b10702815233600482015290516001600160a01b0390921691638f16c41c91602480820192602092909190829003018186803b1580156102d857600080fd5b505afa1580156102ec573d6000803e3d6000fd5b505050506040513d602081101561030257600080fd5b505161030d57600080fd5b60055460408051600160e21b6338c97bdd0281526001600160a01b03848116600483015291516000938493169163e325ef74916024808301926020929190829003018186803b15801561035f57600080fd5b505afa158015610373573d6000803e3d6000fd5b505050506040513d602081101561038957600080fd5b505160055460408051600160e31b631bb5ffcb0281526001600160a01b0387811660048301529151939450600093919092169163ddaffe58916024808301926020929190829003018186803b1580156103e157600080fd5b505afa1580156103f5573d6000803e3d6000fd5b505050506040513d602081101561040b57600080fd5b50519050600080808481855b878110801561042557508a82105b156107565760055460408051600160e11b637b89c5570281526001600160a01b038d81166004830152602482018590529151919092169163f7138aae916044808301926020929190829003018186803b15801561048157600080fd5b505afa158015610495573d6000803e3d6000fd5b505050506040513d60208110156104ab57600080fd5b505160055460408051600160e31b63057844c50281526001600160a01b038e81166004830152602482018690529151939850911691632bc2262891604480820192602092909190829003018186803b15801561050657600080fd5b505afa15801561051a573d6000803e3d6000fd5b505050506040513d602081101561053057600080fd5b505160055460408051600160e01b636a964451028152905192985061067a9260649261066e926001600160a01b0390911691636a96445191600480820192602092909190829003018186803b15801561058857600080fd5b505afa15801561059c573d6000803e3d6000fd5b505050506040513d60208110156105b257600080fd5b8101908080519060200190929190505050600560009054906101000a90046001600160a01b03166001600160a01b03166343148d238f876040518363ffffffff1660e01b815260040180836001600160a01b03166001600160a01b031681526020018281526020019250505060206040518083038186803b15801561063657600080fd5b505afa15801561064a573d6000803e3d6000fd5b505050506040513d602081101561066057600080fd5b50519063ffffffff61278d16565b9063ffffffff6127f216565b9350878314801561068b5750858414155b15610694578092505b6005546001600160a01b031663d9249bff8b836106b78a8a63ffffffff61283416565b6040518463ffffffff1660e01b815260040180846001600160a01b03166001600160a01b031681526020018381526020018281526020019350505050600060405180830381600087803b15801561070d57600080fd5b505af1158015610721573d6000803e3d6000fd5b5050505061074861073b868861283490919063ffffffff16565b8a9063ffffffff61287616565b985060019182019101610417565b878314156107d35760055460408051600160e01b63181908170281526001600160a01b038d811660048301526024820185905291519190921691631819081791604480830192600092919082900301818387803b1580156107b657600080fd5b505af11580156107ca573d6000803e3d6000fd5b50505050610844565b60055460408051600160e01b63181908170281526001600160a01b038d811660048301526024820187905291519190921691631819081791604480830192600092919082900301818387803b15801561082b57600080fd5b505af115801561083f573d6000803e3d6000fd5b505050505b88156108d85760025460408051600160e01b63a9059cbb0281526001600160a01b038d81166004830152602482018d90529151919092169163a9059cbb9160448083019260209291908290030181600087803b1580156108a357600080fd5b505af11580156108b7573d6000803e3d6000fd5b505050506040513d60208110156108cd57600080fd5b50516108d857600080fd5b5050505050505050505050565b60005460408051600160e21b6323c5b10702815233600482015290516001600160a01b0390921691638f16c41c91602480820192602092909190829003018186803b15801561093357600080fd5b505afa158015610947573d6000803e3d6000fd5b505050506040513d602081101561095d57600080fd5b505161096857600080fd5b60025460408051600160e01b6370a0823102815230600482015290516000926001600160a01b0316916370a08231916024808301926020929190829003018186803b1580156109b657600080fd5b505afa1580156109ca573d6000803e3d6000fd5b505050506040513d60208110156109e057600080fd5b505190508015610a785760025460408051600160e01b63a9059cbb0281526001600160a01b038581166004830152602482018590529151919092169163a9059cbb9160448083019260209291908290030181600087803b158015610a4357600080fd5b505af1158015610a57573d6000803e3d6000fd5b505050506040513d6020811015610a6d57600080fd5b5051610a7857600080fd5b5050565b60005460408051600160e21b6323c5b10702815233600482015290516001600160a01b0390921691638f16c41c91602480820192602092909190829003018186803b158015610aca57600080fd5b505afa158015610ade573d6000803e3d6000fd5b505050506040513d6020811015610af457600080fd5b5051610aff57600080fd5b60005460408051600160e31b6227050b028152600160f21b6110d302600482015290516001600160a01b0390921691630138285891602480820192602092909190829003018186803b158015610b5457600080fd5b505afa158015610b68573d6000803e3d6000fd5b505050506040513d6020811015610b7e57600080fd5b5051600780546001600160a01b0319166001600160a01b0392831617905560005460408051600160e31b6227050b028152600160f21b6110d1026004820152905191909216916301382858916024808301926020929190829003018186803b158015610be957600080fd5b505afa158015610bfd573d6000803e3d6000fd5b505050506040513d6020811015610c1357600080fd5b5051600880546001600160a01b0319166001600160a01b0392831617905560005460408051600160e31b6313aedd4b02815290519190921691639d76ea58916004808301926020929190829003018186803b158015610c7157600080fd5b505afa158015610c85573d6000803e3d6000fd5b505050506040513d6020811015610c9b57600080fd5b5051600280546001600160a01b0319166001600160a01b0392831617905560005460408051600160e31b6227050b028152600160f01b615443026004820152905191909216916301382858916024808301926020929190829003018186803b158015610d0657600080fd5b505afa158015610d1a573d6000803e3d6000fd5b505050506040513d6020811015610d3057600080fd5b5051600380546001600160a01b0319166001600160a01b0392831617905560005460408051600160e31b6227050b028152600160f21b611511026004820152905191909216916301382858916024808301926020929190829003018186803b158015610d9b57600080fd5b505afa158015610daf573d6000803e3d6000fd5b505050506040513d6020811015610dc557600080fd5b5051600580546001600160a01b0319166001600160a01b0392831617905560005460408051600160e31b6227050b028152600160f11b612a23026004820152905191909216916301382858916024808301926020929190829003018186803b158015610e3057600080fd5b505afa158015610e44573d6000803e3d6000fd5b505050506040513d6020811015610e5a57600080fd5b5051600480546001600160a01b0319166001600160a01b0392831617815560005460408051600160e31b6227050b028152600160f01b615031029381019390935251921691630138285891602480820192602092909190829003018186803b158015610ec557600080fd5b505afa158015610ed9573d6000803e3d6000fd5b505050506040513d6020811015610eef57600080fd5b5051600980546001600160a01b0319166001600160a01b0392831617905560005460408051600160e31b6227050b028152600160f11b612819026004820152905191909216916301382858916024808301926020929190829003018186803b158015610f5a57600080fd5b505afa158015610f6e573d6000803e3d6000fd5b505050506040513d6020811015610f8457600080fd5b5051600a80546001600160a01b0319166001600160a01b0392831617905560005460408051600160e31b6227050b028152600160f21b611411026004820152905191909216916301382858916024808301926020929190829003018186803b158015610fef57600080fd5b505afa158015611003573d6000803e3d6000fd5b505050506040513d602081101561101957600080fd5b5051600b80546001600160a01b0319166001600160a01b0392831617905560005460408051600160e31b6227050b028152600160f21b611451026004820152905191909216916301382858916024808301926020929190829003018186803b15801561108457600080fd5b505afa158015611098573d6000803e3d6000fd5b505050506040513d60208110156110ae57600080fd5b5051600680546001600160a01b0319166001600160a01b0392831617905560005460408051600160e31b6227050b028152600160f11b6123ab026004820152905191909216916301382858916024808301926020929190829003018186803b15801561111957600080fd5b505afa15801561112d573d6000803e3d6000fd5b505050506040513d602081101561114357600080fd5b5051600c80546001600160a01b0319166001600160a01b0392831617905560005460408051600160e31b6227050b028152600160f01b615053026004820152905191909216916301382858916024808301926020929190829003018186803b1580156111ae57600080fd5b505afa1580156111c2573d6000803e3d6000fd5b505050506040513d60208110156111d857600080fd5b5051600d80546001600160a01b0319166001600160a01b03909216919091179055565b600080611207836116be565b600d5460408051600160e01b630ea474c70281526001600160a01b03878116600483015291519394506000939190921691630ea474c7916024808301926020929190829003018186803b15801561125d57600080fd5b505afa158015611271573d6000803e3d6000fd5b505050506040513d602081101561128757600080fd5b5051600c5460408051600160e11b6326fceb5d0281526001600160a01b03888116600483015291519394506000939190921691634df9d6ba916024808301926020929190829003018186803b1580156112df57600080fd5b505afa1580156112f3573d6000803e3d6000fd5b505050506040513d602081101561130957600080fd5b5051905061132d81611321858563ffffffff61287616565b9063ffffffff61287616565b95945050505050565b600080600080600086600114156114f65760085460408051600160e21b630d3c678b02815233600482015290516001600160a01b03909216916334f19e2c91602480820192602092909190829003018186803b15801561139557600080fd5b505afa1580156113a9573d6000803e3d6000fd5b505050506040513d60208110156113bf57600080fd5b5051905060005b818110156114f05760085460408051600160e01b63fc57c9bb0281523360048201526024810184905290516001600160a01b039092169163fc57c9bb91604480820192602092909190829003018186803b15801561142357600080fd5b505afa158015611437573d6000803e3d6000fd5b505050506040513d602081101561144d57600080fd5b505160085460408051600160e01b6354a1b4310281526004810184905290519296506001600160a01b03909116916354a1b43191602480820192608092909190829003018186803b1580156114a157600080fd5b505afa1580156114b5573d6000803e3d6000fd5b505050506040513d60808110156114cb57600080fd5b50602081015160609091015195509250868314156114e8576114f0565b6001016113c6565b506116a1565b60085460408051600160e01b63274d865f02815233600482015290516001600160a01b039092169163274d865f91602480820192602092909190829003018186803b15801561154457600080fd5b505afa158015611558573d6000803e3d6000fd5b505050506040513d602081101561156e57600080fd5b5051905060005b8181101561169f5760085460408051600160e11b637968b7150281523360048201526024810184905290516001600160a01b039092169163f2d16e2a91604480820192602092909190829003018186803b1580156115d257600080fd5b505afa1580156115e6573d6000803e3d6000fd5b505050506040513d60208110156115fc57600080fd5b505160085460408051600160e01b6354a1b4310281526004810184905290519296506001600160a01b03909116916354a1b43191602480820192608092909190829003018186803b15801561165057600080fd5b505afa158015611664573d6000803e3d6000fd5b505050506040513d608081101561167a57600080fd5b50602081015160609091015195509250868314156116975761169f565b600101611575565b505b6116ad87846001612280565b509199959850949650505050505050565b60085460408051600160e21b630d3c678b0281526001600160a01b0384811660048301529151600093849316916334f19e2c916024808301926020929190829003018186803b15801561171057600080fd5b505afa158015611724573d6000803e3d6000fd5b505050506040513d602081101561173a57600080fd5b505160085460408051600160e01b6304ecffeb0281526001600160a01b038781166004830152825194955060009485948594859493909116926304ecffeb9260248083019392829003018186803b15801561179457600080fd5b505afa1580156117a8573d6000803e3d6000fd5b505050506040513d60408110156117be57600080fd5b5080516020909101519094509250835b8581101561188a5760085460408051600160e01b63fc57c9bb0281526001600160a01b038b81166004830152602482018590529151919092169163fc57c9bb916044808301926020929190829003018186803b15801561182d57600080fd5b505afa158015611841573d6000803e3d6000fd5b505050506040513d602081101561185757600080fd5b505191506118686001836000612280565b5091945061188091508890508463ffffffff61287616565b96506001016117ce565b5060085460408051600160e01b63274d865f0281526001600160a01b038a811660048301529151919092169163274d865f916024808301926020929190829003018186803b1580156118db57600080fd5b505afa1580156118ef573d6000803e3d6000fd5b505050506040513d602081101561190557600080fd5b50519450825b858110156119c65760085460408051600160e11b637968b7150281526001600160a01b038b81166004830152602482018590529151919092169163f2d16e2a916044808301926020929190829003018186803b15801561196a57600080fd5b505afa15801561197e573d6000803e3d6000fd5b505050506040513d602081101561199457600080fd5b505191506119a460008381612280565b509194506119bc91508890508463ffffffff61287616565b965060010161190b565b505050505050919050565b6000809054906101000a90046001600160a01b03166001600160a01b031663ff0938a76040518163ffffffff1660e01b815260040160206040518083038186803b158015611a1e57600080fd5b505afa158015611a32573d6000803e3d6000fd5b505050506040513d6020811015611a4857600080fd5b5051158015611ad2575060005460408051600160e21b63288c314902815233600482015290516001600160a01b039092169163a230c52491602480820192602092909190829003018186803b158015611aa057600080fd5b505afa158015611ab4573d6000803e3d6000fd5b505050506040513d6020811015611aca57600080fd5b505115156001145b611adb57600080fd5b611ae4816128d3565b600d5460408051600160e21b632e1b8c8702815233600482015290516001600160a01b039092169163b86e321c9160248082019260009290919082900301818387803b158015611b3357600080fd5b505af1158015611b47573d6000803e3d6000fd5b5050600c5460408051600160e21b6305d38c71028152336004820152602481018690529051600094506001600160a01b03909216925063174e31c491604480830192602092919082900301818787803b158015611ba357600080fd5b505af1158015611bb7573d6000803e3d6000fd5b505050506040513d6020811015611bcd57600080fd5b505190508015610a785760025460408051600160e01b63a9059cbb0281523360048201526024810184905290516001600160a01b039092169163a9059cbb916044808201926020929091908290030181600087803b158015610a4357600080fd5b6000809054906101000a90046001600160a01b03166001600160a01b031663ff0938a76040518163ffffffff1660e01b815260040160206040518083038186803b158015611c7b57600080fd5b505afa158015611c8f573d6000803e3d6000fd5b505050506040513d6020811015611ca557600080fd5b505115611cb157600080fd5b60005460408051600160e21b6323c5b10702815233600482015290516001600160a01b0390921691638f16c41c91602480820192602092909190829003018186803b158015611cff57600080fd5b505afa158015611d13573d6000803e3d6000fd5b505050506040513d6020811015611d2957600080fd5b5051611d3457600080fd5b60085460408051600160e01b6396ff592f0281526004810184905281516000936001600160a01b0316926396ff592f9260248082019391829003018186803b158015611d7f57600080fd5b505afa158015611d93573d6000803e3d6000fd5b505050506040513d6040811015611da957600080fd5b506020015160085460408051600160e01b630325ea370281526004810186905281519394506000936001600160a01b0390931692630325ea3792602480840193919291829003018186803b158015611e0057600080fd5b505afa158015611e14573d6000803e3d6000fd5b505050506040513d6040811015611e2a57600080fd5b5060200151905080611e4657611e418383836134fc565b612175565b60018110158015611e58575060058111155b15611e6857611e4183838361399e565b80600c14156121755760065460408051600160e01b631ce48f3d028152600481018590529051600092611ed192670de0b6b3a7640000926001600160a01b0390921691631ce48f3d91602480820192602092909190829003018186803b15801561063657600080fd5b60065460408051600160e01b633c2d4daf0281526004810187905290519293506000926001600160a01b0390921691633c2d4daf91602480820192602092909190829003018186803b158015611f2657600080fd5b505afa158015611f3a573d6000803e3d6000fd5b505050506040513d6020811015611f5057600080fd5b505160065460408051600160e21b6322d5c8bd0281526004810188905290519293506000926001600160a01b0390921691638b5722f491602480820192602092909190829003018186803b158015611fa757600080fd5b505afa158015611fbb573d6000803e3d6000fd5b505050506040513d6020811015611fd157600080fd5b505160095460408051600160e11b634cddac2b02815260048101899052602481018a9052604481018790526001600160a01b0386811660648301526001600160e01b031985166084830152915193945060009391909216916399bb58569160a480830192602092919082900301818787803b15801561204f57600080fd5b505af1158015612063573d6000803e3d6000fd5b505050506040513d602081101561207957600080fd5b505190508015612170576004805460408051600160e01b63fd5509b70281529283018990526001600160e01b03198516602484015260448301879052516001600160a01b039091169163fd5509b791606480830192600092919082900301818387803b1580156120e857600080fd5b505af11580156120fc573d6000803e3d6000fd5b505060075460408051600160e11b637a88deff028152600481018c9052600e602482015290516001600160a01b03909216935063f511bdfe925060448082019260009290919082900301818387803b15801561215757600080fd5b505af115801561216b573d6000803e3d6000fd5b505050505b505050505b600760009054906101000a90046001600160a01b03166001600160a01b031663b23d76346040518163ffffffff1660e01b8152600401600060405180830381600087803b1580156121c557600080fd5b505af11580156121d9573d6000803e3d6000fd5b50505050505050565b6000546001600160a01b031681565b6000546001600160a01b031615612254576000546001600160a01b031633146122545760408051600160e51b62461bcd02815260206004820152600a6024820152600160b11b692737ba1036b0b9ba32b902604482015290519081900360640190fd5b600080546001600160a01b039092166001600160a01b0319928316811790915560018054909216179055565b6000806000806000806000806000600860009054906101000a90046001600160a01b03166001600160a01b03166354a1b4318c6040518263ffffffff1660e01b81526004018082815260200191505060806040518083038186803b1580156122e757600080fd5b505afa1580156122fb573d6000803e3d6000fd5b505050506040513d608081101561231157600080fd5b5080516020808301516040808501516060909501516008548251600160e21b631381b00502815260048101859052925160009f50959d50929a509498509396508b936001600160a01b0390911692634e06c01492602480840193919291829003018186803b15801561238257600080fd5b505afa158015612396573d6000803e3d6000fd5b505050506040513d60208110156123ac57600080fd5b50519050600081900b6123be57600198505b8460000b8160000b1480156123db57508315806123db57508a6001145b1561276f578c600114156124755760085460408051600160e01b63c49a8b190281526004810189905290516001600160a01b039092169163c49a8b1991602480820192606092909190829003018186803b15801561243857600080fd5b505afa15801561244c573d6000803e3d6000fd5b505050506040513d606081101561246257600080fd5b5080516040909101519097509250612500565b60085460408051600160e01b63c49a8b190281526004810189905290516001600160a01b039092169163c49a8b1991602480820192606092909190829003018186803b1580156124c457600080fd5b505afa1580156124d8573d6000803e3d6000fd5b505050506040513d60608110156124ee57600080fd5b50602081015160409091015190975092505b861561276f578c60011415612626578460000b600114156125a05760085460408051600160e21b6336f401930281526004810189905290516001600160a01b039092169163dbd0064c91602480820192606092909190829003018186803b15801561256a57600080fd5b505afa15801561257e573d6000803e3d6000fd5b505050506040513d606081101561259457600080fd5b50602001519150612621565b60085460408051600160e21b6336f401930281526004810189905290516001600160a01b039092169163dbd0064c91602480820192606092909190829003018186803b1580156125ef57600080fd5b505afa158015612603573d6000803e3d6000fd5b505050506040513d606081101561261957600080fd5b506040015191505b612738565b8460000b600114156126b75760085460408051600160e11b634a4ecebb0281526004810189905290516001600160a01b039092169163949d9d7691602480820192606092909190829003018186803b15801561268157600080fd5b505afa158015612695573d6000803e3d6000fd5b505050506040513d60608110156126ab57600080fd5b50602001519150612738565b60085460408051600160e11b634a4ecebb0281526004810189905290516001600160a01b039092169163949d9d7691602480820192606092909190829003018186803b15801561270657600080fd5b505afa15801561271a573d6000803e3d6000fd5b505050506040513d606081101561273057600080fd5b506040015191505b61276c61274c83606463ffffffff61278d16565b61066e856127608b8d63ffffffff61278d16565b9063ffffffff61278d16565b99505b50505050505093509350935093565b6001546001600160a01b031681565b60008261279c575060006127ec565b828202828482816127a957fe5b04146127e957604051600160e51b62461bcd02815260040180806020018281038252602181526020018061488e6021913960400191505060405180910390fd5b90505b92915050565b60006127e983836040518060400160405280601a81526020017f536166654d6174683a206469766973696f6e206279207a65726f000000000000815250613e61565b60006127e983836040518060400160405280601e81526020017f536166654d6174683a207375627472616374696f6e206f766572666c6f770000815250613f06565b6000828201838110156127e95760408051600160e51b62461bcd02815260206004820152601b60248201527f536166654d6174683a206164646974696f6e206f766572666c6f770000000000604482015290519081900360640190fd5b60085460408051600160e21b630d3c678b02815233600482015290516000926001600160a01b0316916334f19e2c916024808301926020929190829003018186803b15801561292157600080fd5b505afa158015612935573d6000803e3d6000fd5b505050506040513d602081101561294b57600080fd5b505160085460408051600160e01b6304ecffeb028152336004820152815193945060009384936001600160a01b0316926304ecffeb9260248082019391829003018186803b15801561299c57600080fd5b505afa1580156129b0573d6000803e3d6000fd5b505050506040513d60408110156129c657600080fd5b505160055460408051600160e21b63034b044102815290519293506000928392839283926001600160a01b0390921691630d2c110491600480820192602092909190829003018186803b158015612a1c57600080fd5b505afa158015612a30573d6000803e3d6000fd5b505050506040513d6020811015612a4657600080fd5b505190506000808080888b5b8c82108015612a6057508d85105b15612de35760085460408051600160e01b63fc57c9bb0281523360048201526024810185905290516001600160a01b039092169163fc57c9bb91604480820192602092909190829003018186803b158015612aba57600080fd5b505afa158015612ace573d6000803e3d6000fd5b505050506040513d6020811015612ae457600080fd5b50519b50612af560018d6000612280565b929b5090995090935050808d148015612b1057506001881515145b15612b185750805b60085460408051600160e01b6354a1b431028152600481018f905290516001600160a01b03909216916354a1b43191602480820192608092909190829003018186803b158015612b6757600080fd5b505afa158015612b7b573d6000803e3d6000fd5b505050506040513d6080811015612b9157600080fd5b506020810151606090910151965093508215801590612bae575085155b15612c2d5760085460408051600160e01b63f27a1047028152600481018f9052600160248201819052915191909701966001600160a01b039092169163f27a104791604480830192600092919082900301818387803b158015612c1057600080fd5b505af1158015612c24573d6000803e3d6000fd5b50505050612dbf565b82158015612cb7575060085460408051600160e21b631381b0050281526004810187905290516001600160a01b0390921691634e06c01491602480820192602092909190829003018186803b158015612c8557600080fd5b505afa158015612c99573d6000803e3d6000fd5b505050506040513d6020811015612caf57600080fd5b505160000b15155b8015612cc1575085155b15612dbf5760085460408051600160e01b63c49a8b190281526004810187905290516001600160a01b039092169163c49a8b1991602480820192606092909190829003018186803b158015612d1557600080fd5b505afa158015612d29573d6000803e3d6000fd5b505050506040513d6060811015612d3f57600080fd5b5051925082612d4f576001909401935b60085460408051600160e01b63f27a1047028152600481018f90526001602482015290516001600160a01b039092169163f27a10479160448082019260009290919082900301818387803b158015612da657600080fd5b505af1158015612dba573d6000803e3d6000fd5b505050505b8815612dd857612dd5898b63ffffffff61287616565b99505b600190910190612a52565b8c811415612e5e5760085460408051600160e21b632f9f2f170281523360048201526024810185905290516001600160a01b039092169163be7cbc5c9160448082019260009290919082900301818387803b158015612e4157600080fd5b505af1158015612e55573d6000803e3d6000fd5b50505050612ecd565b60085460408051600160e21b632f9f2f170281523360048201526024810184905290516001600160a01b039092169163be7cbc5c9160448082019260009290919082900301818387803b158015612eb457600080fd5b505af1158015612ec8573d6000803e3d6000fd5b505050505b60085460408051600160e01b63274d865f02815233600482015290516001600160a01b039092169163274d865f91602480820192602092909190829003018186803b158015612f1b57600080fd5b505afa158015612f2f573d6000803e3d6000fd5b505050506040513d6020811015612f4557600080fd5b50519c508c9050612f5c878663ffffffff61278d16565b60035460408051600160e01b63179e91f1028152336004820152600160e81b62434c4102602482015242604482015290519299506000926001600160a01b039092169163179e91f191606480820192602092909190829003018186803b158015612fc557600080fd5b505afa158015612fd9573d6000803e3d6000fd5b505050506040513d6020811015612fef57600080fd5b505111156130755760035460408051600160e01b631fea558f028152336004820152600160e81b62434c41026024820152604481018a905290516001600160a01b0390921691631fea558f9160648082019260009290919082900301818387803b15801561305c57600080fd5b505af1158015613070573d6000803e3d6000fd5b505050505b60085460408051600160e01b6304ecffeb02815233600482015281516001600160a01b03909316926304ecffeb92602480840193919291829003018186803b1580156130c057600080fd5b505afa1580156130d4573d6000803e3d6000fd5b505050506040513d60408110156130ea57600080fd5b50602001519a50600094508a91508c90505b8c8210801561310a57508d85105b156133705760085460408051600160e11b637968b7150281523360048201526024810185905290516001600160a01b039092169163f2d16e2a91604480820192602092909190829003018186803b15801561316457600080fd5b505afa158015613178573d6000803e3d6000fd5b505050506040513d602081101561318e57600080fd5b50519b5061319e60008d81612280565b50919a50985050808d1480156131b657506001881515145b156131be5750805b60085460408051600160e01b6354a1b431028152600481018f905290516001600160a01b03909216916354a1b43191602480820192608092909190829003018186803b15801561320d57600080fd5b505afa158015613221573d6000803e3d6000fd5b505050506040513d608081101561323757600080fd5b50602081015160609091015196509350851580156132d1575060085460408051600160e21b631381b0050281526004810187905290516001600160a01b0390921691634e06c01491602480820192602092909190829003018186803b15801561329f57600080fd5b505afa1580156132b3573d6000803e3d6000fd5b505050506040513d60208110156132c957600080fd5b505160000b15155b1561334c5760085460408051600160e01b63f27a1047028152600481018f90526001602482015290516001600160a01b039092169163f27a10479160448082019260009290919082900301818387803b15801561332d57600080fd5b505af1158015613341573d6000803e3d6000fd5b505060019096019550505b881561336557613362898b63ffffffff61287616565b99505b6001909101906130fc565b89156134025760025460408051600160e01b63a9059cbb028152336004820152602481018d905290516001600160a01b039092169163a9059cbb916044808201926020929091908290030181600087803b1580156133cd57600080fd5b505af11580156133e1573d6000803e3d6000fd5b505050506040513d60208110156133f757600080fd5b505161340257600080fd5b8c81141561347d5760085460408051600160e21b630f305e950281523360048201526024810185905290516001600160a01b0390921691633cc17a549160448082019260009290919082900301818387803b15801561346057600080fd5b505af1158015613474573d6000803e3d6000fd5b505050506134ec565b60085460408051600160e21b630f305e950281523360048201526024810184905290516001600160a01b0390921691633cc17a549160448082019260009290919082900301818387803b1580156134d357600080fd5b505af11580156134e7573d6000803e3d6000fd5b505050505b5050505050505050505050505050565b60075460408051600160e11b63778aa6790281526004810186905290516001600160a01b039092169163ef154cf291602480820192602092909190829003018186803b15801561354b57600080fd5b505afa15801561355f573d6000803e3d6000fd5b505050506040513d602081101561357557600080fd5b505160000b600114156139995760075460408051600160e01b6357af051502815260048101869052600060248201819052915191926001600160a01b0316916357af051591604480820192602092909190829003018186803b1580156135da57600080fd5b505afa1580156135ee573d6000803e3d6000fd5b505050506040513d602081101561360457600080fd5b505160085460408051600160e21b631509d4c90281526004810188905260016024820152815193945060009384938493849384936001600160a01b0390931692635427532492604480840193919291829003018186803b15801561366757600080fd5b505afa15801561367b573d6000803e3d6000fd5b505050506040513d604081101561369157600080fd5b506020015160085460408051600160e21b631509d4c9028152600481018d9052600019602482015281519398506001600160a01b03909216926354275324926044808201939291829003018186803b1580156136ec57600080fd5b505afa158015613700573d6000803e3d6000fd5b505050506040513d604081101561371657600080fd5b5060200151935061372d858563ffffffff61287616565b925061374085606463ffffffff61278d16565b945061375384606463ffffffff61278d16565b9350856137635760039650613911565b60065460408051600160e01b631ce48f3d028152600481018b905290516137c092670de0b6b3a7640000926001600160a01b0390911691631ce48f3d91602480820192602092909190829003018186803b15801561063657600080fd5b90506137d381600563ffffffff61278d16565b8611156138dd5760466137ec868563ffffffff6127f216565b111561386f57600654600797506001600160a01b031663ae1c5eca8960015b6040518363ffffffff1660e01b8152600401808381526020018260ff1660ff16815260200192505050600060405180830381600087803b15801561384e57600080fd5b505af1158015613862573d6000803e3d6000fd5b50505050600191506138d8565b6046613881858563ffffffff6127f216565b11156138a457600680549097506001600160a01b031663ae1c5eca89600261380b565b6138b4848463ffffffff6127f216565b6138c4868563ffffffff6127f216565b11156138d357600496506138d8565b600596505b613911565b6138ed848463ffffffff6127f216565b6138fd868563ffffffff6127f216565b111561390c5760029650613911565b600396505b60075460408051600160e11b637a88deff028152600481018c9052602481018a905290516001600160a01b039092169163f511bdfe9160448082019260009290919082900301818387803b15801561396857600080fd5b505af115801561397c573d6000803e3d6000fd5b505050508115613992576139928989838a613f63565b5050505050505b505050565b60075460408051600160e11b63778aa6790281526004810186905290516001600160a01b039092169163ef154cf291602480820192602092909190829003018186803b1580156139ed57600080fd5b505afa158015613a01573d6000803e3d6000fd5b505050506040513d6020811015613a1757600080fd5b505160000b600114156139995760075460408051600160e01b6357af051502815260048101869052600160248201529051600092849284926001600160a01b03909216916357af051591604480820192602092909190829003018186803b158015613a8157600080fd5b505afa158015613a95573d6000803e3d6000fd5b505050506040513d6020811015613aab57600080fd5b505160065460408051600160e01b631ce48f3d028152600481018990529051929350600092613b1092670de0b6b3a7640000926001600160a01b0390911691631ce48f3d91602480820192602092909190829003018186803b15801561063657600080fd5b90506000613b2582600563ffffffff61278d16565b831015613b30575060015b60085460408051600160e01b635ca1ce8b028152600481018b90526001602482015281516000936001600160a01b031692635ca1ce8b9260448082019391829003018186803b158015613b8257600080fd5b505afa158015613b96573d6000803e3d6000fd5b505050506040513d6040811015613bac57600080fd5b506020015160085460408051600160e01b635ca1ce8b028152600481018d9052600019602482015281519394506000936001600160a01b0390931692635ca1ce8b92604480840193919291829003018186803b158015613c0b57600080fd5b505afa158015613c1f573d6000803e3d6000fd5b505050506040513d6040811015613c3557600080fd5b506020015190506000613c4e838363ffffffff61287616565b1115613d0a576032613c7a613c69848463ffffffff61287616565b61066e85606463ffffffff61278d16565b10158015613c885750600186115b8015613c95575060058611155b8015613c9f575082155b15613cb1576008975060019650613d0a565b6032613cd7613cc6848463ffffffff61287616565b61066e84606463ffffffff61278d16565b10158015613ce55750600186115b8015613cf2575060058611155b8015613cfc575082155b15613d0a5760099750600296505b826001148015613d2457508560021480613d245750856004145b15613d3657600a975060019650613d69565b826001148015613d5b57508560051480613d505750856003145b80613d5b5750856001145b15613d6957600b9750600296505b60075460408051600160e11b637a88deff028152600481018d9052602481018b905290516001600160a01b039092169163f511bdfe9160448082019260009290919082900301818387803b158015613dc057600080fd5b505af1158015613dd4573d6000803e3d6000fd5b505060065460408051600160e11b63570e2f65028152600481018e905260ff8c16602482015290516001600160a01b03909216935063ae1c5eca925060448082019260009290919082900301818387803b158015613e3157600080fd5b505af1158015613e45573d6000803e3d6000fd5b50505050613e558a8a868b613f63565b50505050505050505050565b60008183613ef057604051600160e51b62461bcd0281526004018080602001828103825283818151815260200191508051906020019080838360005b83811015613eb5578181015183820152602001613e9d565b50505050905090810190601f168015613ee25780820380516001836020036101000a031916815260200191505b509250505060405180910390fd5b506000838581613efc57fe5b0495945050505050565b60008184841115613f5b57604051600160e51b62461bcd028152602060048201818152835160248401528351909283926044909101919085019080838360008315613eb5578181015183820152602001613e9d565b505050900390565b60065460408051600160e01b63ba38de350281526004810186905290516000926001600160a01b03169163ba38de35916024808301926020929190829003018186803b158015613fb257600080fd5b505afa158015613fc6573d6000803e3d6000fd5b505050506040513d6020811015613fdc57600080fd5b505160065460408051600160e21b6322d5c8bd0281526004810188905290519293506000926001600160a01b0390921691638b5722f491602480820192602092909190829003018186803b15801561403357600080fd5b505afa158015614047573d6000803e3d6000fd5b505050506040513d602081101561405d57600080fd5b505160085460408051600160e11b635459cad502815290519293506000926140f19260649261066e926001600160a01b039092169163a8b395aa91600480820192602092909190829003018186803b1580156140b857600080fd5b505afa1580156140cc573d6000803e3d6000fd5b505050506040513d60208110156140e257600080fd5b5051869063ffffffff61278d16565b60085460408051600160e01b635f39579d02815260048101889052815193945060009384936001600160a01b031692635f39579d9260248082019391829003018186803b15801561414157600080fd5b505afa158015614155573d6000803e3d6000fd5b505050506040513d604081101561416b57600080fd5b50805160209091015160085460408051600160e11b6363393925028152600481018e905260248101859052604481018490526064810188905290519395509193506001600160a01b03169163c672724a9160848082019260009290919082900301818387803b1580156141dd57600080fd5b505af11580156141f1573d6000803e3d6000fd5b5050505060008211806142045750600081115b156142785760035460408051600160e01b6340c10f190281523060048201526024810186905290516001600160a01b03909216916340c10f199160448082019260009290919082900301818387803b15801561425f57600080fd5b505af1158015614273573d6000803e3d6000fd5b505050505b85600614806142875750856009145b80614292575085600b145b1561456a5760085460408051600160e01b6346f4da57028152600481018c9052600019602482015290516001600160a01b03909216916346f4da579160448082019260009290919082900301818387803b1580156142ef57600080fd5b505af1158015614303573d6000803e3d6000fd5b505060055460408051600160e41b6308831d59028152600481018d905260006024820181905291516001600160a01b039093169450638831d59093506044808201939182900301818387803b15801561435b57600080fd5b505af115801561436f573d6000803e3d6000fd5b50506004805460408051600160e01b637dded30d0281529283018d9052516001600160a01b039091169350637dded30d925060248083019260209291908290030181600087803b1580156143c257600080fd5b505af11580156143d6573d6000803e3d6000fd5b505050506040513d60208110156143ec57600080fd5b5050600b5460408051600160e81b62487d2d0281526001600160e01b03198716600482015290516001600160a01b039092169163d175058591879161448c918c91869163487d2d00916024808301926020929190829003018186803b15801561445457600080fd5b505afa158015614468573d6000803e3d6000fd5b505050506040513d602081101561447e57600080fd5b50519063ffffffff61283416565b6040518363ffffffff1660e01b815260040180836001600160e01b0319166001600160e01b031916815260200182815260200192505050600060405180830381600087803b1580156144dd57600080fd5b505af11580156144f1573d6000803e3d6000fd5b5050600a5460408051600160e81b622d9fa50281526001600160e01b03198916600482015290516001600160a01b039092169350632d9fa500925060248082019260009290919082900301818387803b15801561454d57600080fd5b505af1158015614561573d6000803e3d6000fd5b50505050613992565b85600714806145795750856008145b80614584575085600a145b156139925760085460408051600160e01b6346f4da57028152600481018c90526001602482015290516001600160a01b03909216916346f4da579160448082019260009290919082900301818387803b1580156145e057600080fd5b505af11580156145f4573d6000803e3d6000fd5b505060055460408051600160e41b6308831d59028152600481018d905260006024820181905291516001600160a01b039093169450638831d59093506044808201939182900301818387803b15801561464c57600080fd5b505af1158015614660573d6000803e3d6000fd5b50506004805460408051600160e21b63217d48810281529283018d9052516001600160a01b0390911693506385f522049250602480830192600092919082900301818387803b1580156146b257600080fd5b505af11580156146c6573d6000803e3d6000fd5b505050506000600960009054906101000a90046001600160a01b03166001600160a01b03166399bb58568a8c8b600660009054906101000a90046001600160a01b03166001600160a01b0316633c2d4daf8f6040518263ffffffff1660e01b81526004018082815260200191505060206040518083038186803b15801561474c57600080fd5b505afa158015614760573d6000803e3d6000fd5b505050506040513d602081101561477657600080fd5b50516040805163ffffffff871660e01b81526004810195909552602485019390935260448401919091526001600160a01b031660648301526001600160e01b0319891660848301525160a48083019260209291908290030181600087803b1580156147e057600080fd5b505af11580156147f4573d6000803e3d6000fd5b505050506040513d602081101561480a57600080fd5b505190508015613e55576004805460408051600160e01b63fd5509b70281529283018c90526001600160e01b031988166024840152604483018b9052516001600160a01b039091169163fd5509b791606480830192600092919082900301818387803b15801561487957600080fd5b505af11580156134ec573d6000803e3d6000fdfe536166654d6174683a206d756c7469706c69636174696f6e206f766572666c6f77a165627a7a72305820c11df38657b32d6033cfdc39235bd43f3d2a91c38c1d350adede3c5c0c1b28ba0029",
  "compiler": {
    "name": "solc",
    "version": "0.5.7+commit.6da8b019.Emscripten.clang",
    "optimizer": {
      "enabled": true,
      "runs": 200
    },
    "evmVersion": "petersburg"
  }
}