{
  "fileName": "ClaimProofs.sol",
  "contractName": "ClaimProofs",
  "source": "/* Copyright (C) 2020 NexusMutual.io\n\n  This program is free software: you can redistribute it and/or modify\n    it under the terms of the GNU General Public License as published by\n    the Free Software Foundation, either version 3 of the License, or\n    (at your option) any later version.\n\n  This program is distributed in the hope that it will be useful,\n    but WITHOUT ANY WARRANTY; without even the implied warranty of\n    MERCHANTABILITY or FITNESS FOR A PARTICULAR PURPOSE.  See the\n    GNU General Public License for more details.\n\n  You should have received a copy of the GNU General Public License\n    along with this program.  If not, see http://www.gnu.org/licenses/\n*/\n\npragma solidity ^0.5.0;\n\ncontract ClaimProofs {\n\n  event ProofAdded(uint indexed coverId, address indexed owner, string ipfsHash);\n\n  function addProof(uint _coverId, string calldata _ipfsHash) external {\n    emit ProofAdded(_coverId, msg.sender, _ipfsHash);\n  }\n\n}\n",
  "sourcePath": "contracts/modules/claims/ClaimProofs.sol",
  "abi": [
    {
      "constant": false,
      "inputs": [
        {
          "name": "_coverId",
          "type": "uint256"
        },
        {
          "name": "_ipfsHash",
          "type": "string"
        }
      ],
      "name": "addProof",
      "outputs": [],
      "payable": false,
      "stateMutability": "nonpayable",
      "type": "function"
    },
    {
      "anonymous": false,
      "inputs": [
        {
          "indexed": true,
          "name": "coverId",
          "type": "uint256"
        },
        {
          "indexed": true,
          "name": "owner",
          "type": "address"
        },
        {
          "indexed": false,
          "name": "ipfsHash",
          "type": "string"
        }
      ],
      "name": "ProofAdded",
      "type": "event"
    }
  ],
  "bytecode": "0x608060405234801561001057600080fd5b50610145806100206000396000f3fe608060405234801561001057600080fd5b506004361061002b5760003560e01c8063f9f3d0d914610030575b600080fd5b6100a76004803603604081101561004657600080fd5b8135919081019060408101602082013564010000000081111561006857600080fd5b82018360208201111561007a57600080fd5b8035906020019184600183028401116401000000008311171561009c57600080fd5b5090925090506100a9565b005b336001600160a01b0316837fbaa675765274f1b054a7c8dd5d7bdc8fcef9a7c314f58d93e4c5097809a7c668848460405180806020018281038252848482818152602001925080828437600083820152604051601f909101601f19169092018290039550909350505050a350505056fea165627a7a72305820db6b887465095add42fa3ce7e48679c755877b0b3c80baa2c7f56199b9df6d2f0029",
  "compiler": {
    "name": "solc",
    "version": "0.5.7+commit.6da8b019.Emscripten.clang",
    "optimizer": {
      "enabled": true,
      "runs": 200
    },
    "evmVersion": "petersburg"
  }
}