{
  "fileName": "Deployer.sol",
  "contractName": "Deployer",
  "source": "pragma solidity ^0.5.0;\n\ncontract Deployer {\n\n  function deploy(bytes memory data, uint256 salt) public {\n    assembly {\n      pop(create2(0, add(data, 32), mload(data), salt))\n    }\n  }\n\n}\n",
  "sourcePath": "contracts/external/Deployer.sol",
  "abi": [
    {
      "constant": false,
      "inputs": [
        {
          "name": "data",
          "type": "bytes"
        },
        {
          "name": "salt",
          "type": "uint256"
        }
      ],
      "name": "deploy",
      "outputs": [],
      "payable": false,
      "stateMutability": "nonpayable",
      "type": "function"
    }
  ],
  "bytecode": "0x608060405234801561001057600080fd5b5061010c806100206000396000f3fe6080604052348015600f57600080fd5b506004361060285760003560e01c80639c4ae2d014602d575b600080fd5b60cf60048036036040811015604157600080fd5b810190602081018135640100000000811115605b57600080fd5b820183602082011115606c57600080fd5b80359060200191846001830284011164010000000083111715608d57600080fd5b91908080601f016020809104026020016040519081016040528093929190818152602001838380828437600092019190915250929550509135925060d1915050565b005b808251602084016000f550505056fea165627a7a723058203c8e319f51b47cad6adefa6b0e8117812595012e3d14ab56283ab84863bcdfc70029",
  "compiler": {
    "name": "solc",
    "version": "0.5.7+commit.6da8b019.Emscripten.clang",
    "optimizer": {
      "enabled": true,
      "runs": 200
    },
    "evmVersion": "petersburg"
  }
}