{
  "fileName": "DisposableTokenController.sol",
  "contractName": "DisposableTokenController",
  "source": "pragma solidity ^0.5.0;\n\nimport \"../modules/token/TokenController.sol\";\nimport \"../modules/token/NXMToken.sol\";\n\ncontract DisposableTokenController is TokenController {\n\n  function initialize(\n    address _masterAddress,\n    address _tokenAddress,\n    address _pooledStakingAddress,\n    uint _claimsAssessmentLockTime\n  ) external {\n\n    token = NXMToken(_tokenAddress);\n    token.changeOperator(address(this));\n\n    changeMasterAddress(_masterAddress);\n    pooledStaking = IPooledStaking(_pooledStakingAddress);\n    minCALockTime = _claimsAssessmentLockTime;\n\n  }\n\n}\n",
  "sourcePath": "contracts/mocks/DisposableTokenController.sol",
  "abi": [
    {
      "constant": false,
      "inputs": [
        {
          "name": "_newOperator",
          "type": "address"
        }
      ],
      "name": "changeOperator",
      "outputs": [],
      "payable": false,
      "stateMutability": "nonpayable",
      "type": "function"
    },
    {
      "constant": true,
      "inputs": [
        {
          "name": "_of",
          "type": "address"
        },
        {
          "name": "reason",
          "type": "bytes32"
        }
      ],
      "name": "getLockedTokensValidity",
      "outputs": [
        {
          "name": "validity",
          "type": "uint256"
        }
      ],
      "payable": false,
      "stateMutability": "view",
      "type": "function"
    },
    {
      "constant": false,
      "inputs": [
        {
          "name": "_from",
          "type": "address"
        },
        {
          "name": "_to",
          "type": "address"
        },
        {
          "name": "_value",
          "type": "uint256"
        }
      ],
      "name": "operatorTransfer",
      "outputs": [
        {
          "name": "",
          "type": "bool"
        }
      ],
      "payable": false,
      "stateMutability": "nonpayable",
      "type": "function"
    },
    {
      "constant": false,
      "inputs": [],
      "name": "changeDependentContractAddress",
      "outputs": [],
      "payable": false,
      "stateMutability": "nonpayable",
      "type": "function"
    },
    {
      "constant": true,
      "inputs": [],
      "name": "pooledStaking",
      "outputs": [
        {
          "name": "",
          "type": "address"
        }
      ],
      "payable": false,
      "stateMutability": "view",
      "type": "function"
    },
    {
      "constant": true,
      "inputs": [
        {
          "name": "_of",
          "type": "address"
        },
        {
          "name": "_reason",
          "type": "bytes32"
        },
        {
          "name": "_time",
          "type": "uint256"
        }
      ],
      "name": "tokensLockedAtTime",
      "outputs": [
        {
          "name": "amount",
          "type": "uint256"
        }
      ],
      "payable": false,
      "stateMutability": "view",
      "type": "function"
    },
    {
      "constant": true,
      "inputs": [],
      "name": "totalSupply",
      "outputs": [
        {
          "name": "",
          "type": "uint256"
        }
      ],
      "payable": false,
      "stateMutability": "view",
      "type": "function"
    },
    {
      "constant": false,
      "inputs": [
        {
          "name": "_of",
          "type": "address"
        },
        {
          "name": "_reason",
          "type": "bytes32"
        },
        {
          "name": "_time",
          "type": "uint256"
        }
      ],
      "name": "reduceLock",
      "outputs": [],
      "payable": false,
      "stateMutability": "nonpayable",
      "type": "function"
    },
    {
      "constant": false,
      "inputs": [
        {
          "name": "_of",
          "type": "address"
        },
        {
          "name": "_reason",
          "type": "bytes32"
        },
        {
          "name": "_time",
          "type": "uint256"
        }
      ],
      "name": "extendLockOf",
      "outputs": [
        {
          "name": "",
          "type": "bool"
        }
      ],
      "payable": false,
      "stateMutability": "nonpayable",
      "type": "function"
    },
    {
      "constant": false,
      "inputs": [
        {
          "name": "_reason",
          "type": "bytes32"
        },
        {
          "name": "_amount",
          "type": "uint256"
        },
        {
          "name": "_time",
          "type": "uint256"
        }
      ],
      "name": "lock",
      "outputs": [
        {
          "name": "",
          "type": "bool"
        }
      ],
      "payable": false,
      "stateMutability": "nonpayable",
      "type": "function"
    },
    {
      "constant": false,
      "inputs": [
        {
          "name": "_of",
          "type": "address"
        }
      ],
      "name": "unlock",
      "outputs": [
        {
          "name": "unlockableTokens",
          "type": "uint256"
        }
      ],
      "payable": false,
      "stateMutability": "nonpayable",
      "type": "function"
    },
    {
      "constant": true,
      "inputs": [
        {
          "name": "_of",
          "type": "address"
        },
        {
          "name": "_time",
          "type": "uint256"
        }
      ],
      "name": "totalLockedBalance",
      "outputs": [
        {
          "name": "amount",
          "type": "uint256"
        }
      ],
      "payable": false,
      "stateMutability": "view",
      "type": "function"
    },
    {
      "constant": false,
      "inputs": [
        {
          "name": "_member",
          "type": "address"
        },
        {
          "name": "_amount",
          "type": "uint256"
        }
      ],
      "name": "mint",
      "outputs": [],
      "payable": false,
      "stateMutability": "nonpayable",
      "type": "function"
    },
    {
      "constant": true,
      "inputs": [
        {
          "name": "_of",
          "type": "address"
        }
      ],
      "name": "totalBalanceOf",
      "outputs": [
        {
          "name": "amount",
          "type": "uint256"
        }
      ],
      "payable": false,
      "stateMutability": "view",
      "type": "function"
    },
    {
      "constant": false,
      "inputs": [
        {
          "name": "_of",
          "type": "address"
        },
        {
          "name": "_days",
          "type": "uint256"
        }
      ],
      "name": "lockForMemberVote",
      "outputs": [],
      "payable": false,
      "stateMutability": "nonpayable",
      "type": "function"
    },
    {
      "constant": true,
      "inputs": [
        {
          "name": "_of",
          "type": "address"
        },
        {
          "name": "_reason",
          "type": "bytes32"
        }
      ],
      "name": "tokensUnlockable",
      "outputs": [
        {
          "name": "amount",
          "type": "uint256"
        }
      ],
      "payable": false,
      "stateMutability": "view",
      "type": "function"
    },
    {
      "constant": true,
      "inputs": [
        {
          "name": "_of",
          "type": "address"
        },
        {
          "name": "_reason",
          "type": "bytes32"
        }
      ],
      "name": "tokensLocked",
      "outputs": [
        {
          "name": "amount",
          "type": "uint256"
        }
      ],
      "payable": false,
      "stateMutability": "view",
      "type": "function"
    },
    {
      "constant": true,
      "inputs": [
        {
          "name": "",
          "type": "address"
        },
        {
          "name": "",
          "type": "uint256"
        }
      ],
      "name": "lockReason",
      "outputs": [
        {
          "name": "",
          "type": "bytes32"
        }
      ],
      "payable": false,
      "stateMutability": "view",
      "type": "function"
    },
    {
      "constant": false,
      "inputs": [
        {
          "name": "_of",
          "type": "address"
        },
        {
          "name": "amount",
          "type": "uint256"
        }
      ],
      "name": "burnFrom",
      "outputs": [
        {
          "name": "",
          "type": "bool"
        }
      ],
      "payable": false,
      "stateMutability": "nonpayable",
      "type": "function"
    },
    {
      "constant": false,
      "inputs": [
        {
          "name": "_of",
          "type": "address"
        },
        {
          "name": "_reason",
          "type": "bytes32"
        },
        {
          "name": "_amount",
          "type": "uint256"
        }
      ],
      "name": "burnLockedTokens",
      "outputs": [],
      "payable": false,
      "stateMutability": "nonpayable",
      "type": "function"
    },
    {
      "constant": false,
      "inputs": [
        {
          "name": "_of",
          "type": "address"
        },
        {
          "name": "_reason",
          "type": "bytes32"
        },
        {
          "name": "_amount",
          "type": "uint256"
        }
      ],
      "name": "releaseLockedTokens",
      "outputs": [],
      "payable": false,
      "stateMutability": "nonpayable",
      "type": "function"
    },
    {
      "constant": false,
      "inputs": [
        {
          "name": "_reason",
          "type": "bytes32"
        },
        {
          "name": "_amount",
          "type": "uint256"
        }
      ],
      "name": "increaseLockAmount",
      "outputs": [
        {
          "name": "",
          "type": "bool"
        }
      ],
      "payable": false,
      "stateMutability": "nonpayable",
      "type": "function"
    },
    {
      "constant": false,
      "inputs": [
        {
          "name": "_member",
          "type": "address"
        }
      ],
      "name": "removeFromWhitelist",
      "outputs": [],
      "payable": false,
      "stateMutability": "nonpayable",
      "type": "function"
    },
    {
      "constant": false,
      "inputs": [
        {
          "name": "code",
          "type": "bytes8"
        },
        {
          "name": "val",
          "type": "uint256"
        }
      ],
      "name": "updateUintParameters",
      "outputs": [],
      "payable": false,
      "stateMutability": "nonpayable",
      "type": "function"
    },
    {
      "constant": true,
      "inputs": [],
      "name": "ms",
      "outputs": [
        {
          "name": "",
          "type": "address"
        }
      ],
      "payable": false,
      "stateMutability": "view",
      "type": "function"
    },
    {
      "constant": false,
      "inputs": [
        {
          "name": "_reason",
          "type": "bytes32"
        },
        {
          "name": "_time",
          "type": "uint256"
        }
      ],
      "name": "extendLock",
      "outputs": [
        {
          "name": "",
          "type": "bool"
        }
      ],
      "payable": false,
      "stateMutability": "nonpayable",
      "type": "function"
    },
    {
      "constant": true,
      "inputs": [
        {
          "name": "_of",
          "type": "address"
        }
      ],
      "name": "getUnlockableTokens",
      "outputs": [
        {
          "name": "unlockableTokens",
          "type": "uint256"
        }
      ],
      "payable": false,
      "stateMutability": "view",
      "type": "function"
    },
    {
      "constant": true,
      "inputs": [],
      "name": "minCALockTime",
      "outputs": [
        {
          "name": "",
          "type": "uint256"
        }
      ],
      "payable": false,
      "stateMutability": "view",
      "type": "function"
    },
    {
      "constant": false,
      "inputs": [
        {
          "name": "_masterAddress",
          "type": "address"
        },
        {
          "name": "_tokenAddress",
          "type": "address"
        },
        {
          "name": "_pooledStakingAddress",
          "type": "address"
        },
        {
          "name": "_claimsAssessmentLockTime",
          "type": "uint256"
        }
      ],
      "name": "initialize",
      "outputs": [],
      "payable": false,
      "stateMutability": "nonpayable",
      "type": "function"
    },
    {
      "constant": false,
      "inputs": [
        {
          "name": "_masterAddress",
          "type": "address"
        }
      ],
      "name": "changeMasterAddress",
      "outputs": [],
      "payable": false,
      "stateMutability": "nonpayable",
      "type": "function"
    },
    {
      "constant": true,
      "inputs": [
        {
          "name": "",
          "type": "address"
        },
        {
          "name": "",
          "type": "bytes32"
        }
      ],
      "name": "locked",
      "outputs": [
        {
          "name": "amount",
          "type": "uint256"
        },
        {
          "name": "validity",
          "type": "uint256"
        },
        {
          "name": "claimed",
          "type": "bool"
        }
      ],
      "payable": false,
      "stateMutability": "view",
      "type": "function"
    },
    {
      "constant": false,
      "inputs": [
        {
          "name": "_member",
          "type": "address"
        }
      ],
      "name": "addToWhitelist",
      "outputs": [],
      "payable": false,
      "stateMutability": "nonpayable",
      "type": "function"
    },
    {
      "constant": true,
      "inputs": [],
      "name": "nxMasterAddress",
      "outputs": [
        {
          "name": "",
          "type": "address"
        }
      ],
      "payable": false,
      "stateMutability": "view",
      "type": "function"
    },
    {
      "constant": false,
      "inputs": [
        {
          "name": "_of",
          "type": "address"
        },
        {
          "name": "_reason",
          "type": "bytes32"
        },
        {
          "name": "_amount",
          "type": "uint256"
        },
        {
          "name": "_time",
          "type": "uint256"
        }
      ],
      "name": "lockOf",
      "outputs": [
        {
          "name": "",
          "type": "bool"
        }
      ],
      "payable": false,
      "stateMutability": "nonpayable",
      "type": "function"
    },
    {
      "constant": true,
      "inputs": [],
      "name": "token",
      "outputs": [
        {
          "name": "",
          "type": "address"
        }
      ],
      "payable": false,
      "stateMutability": "view",
      "type": "function"
    },
    {
      "anonymous": false,
      "inputs": [
        {
          "indexed": true,
          "name": "member",
          "type": "address"
        },
        {
          "indexed": false,
          "name": "lockedUnder",
          "type": "bytes32"
        },
        {
          "indexed": false,
          "name": "amount",
          "type": "uint256"
        }
      ],
      "name": "Burned",
      "type": "event"
    },
    {
      "anonymous": false,
      "inputs": [
        {
          "indexed": true,
          "name": "_of",
          "type": "address"
        },
        {
          "indexed": true,
          "name": "_reason",
          "type": "bytes32"
        },
        {
          "indexed": false,
          "name": "_amount",
          "type": "uint256"
        },
        {
          "indexed": false,
          "name": "_validity",
          "type": "uint256"
        }
      ],
      "name": "Locked",
      "type": "event"
    },
    {
      "anonymous": false,
      "inputs": [
        {
          "indexed": true,
          "name": "_of",
          "type": "address"
        },
        {
          "indexed": true,
          "name": "_reason",
          "type": "bytes32"
        },
        {
          "indexed": false,
          "name": "_amount",
          "type": "uint256"
        }
      ],
      "name": "Unlocked",
      "type": "event"
    }
  ],
  "bytecode": "0x60806040526200002262015180601e6200003960201b620028f61790919060201c565b6006553480156200003257600080fd5b50620000ba565b6000826200004a57506000620000b4565b828202828482816200005857fe5b0414620000b1576040517f08c379a000000000000000000000000000000000000000000000000000000000815260040180806020018281038252602181526020018062002cb36021913960400191505060405180910390fd5b90505b92915050565b612be980620000ca6000396000f3fe608060405234801561001057600080fd5b50600436106102115760003560e01c806371d66f0011610125578063ab4a2eb3116100ad578063d71be8db1161007c578063d71be8db146106ce578063e43252d71461071a578063f17a3bec14610740578063fa64f8c114610748578063fc0c546a1461078057610211565b8063ab4a2eb31461063e578063ceed948d14610664578063cf756fdf1461066c578063d46655f4146106a857610211565b806381fc4d90116100f457806381fc4d901461059d5780638ab1d681146105c05780639dd86e0f146105e6578063a0b2d57f14610613578063a9dab1671461061b57610211565b806371d66f00146104e157806379cc67901461050d5780637aef5b731461053957806380c7561a1461056b57610211565b80632c69d416116101a857806340c10f191161017757806340c10f191461040b5780634b0ee02a146104375780634c47e71d1461045d5780635294d0e8146104895780635ca48d8c146104b557610211565b80632c69d4161461035e5780632e82aaf2146103905780632f6c493c146103b957806339081b92146103df57610211565b8063133663f9116101e4578063133663f9146102ce578063179e91f1146102f257806318160ddd146103245780631fea558f1461032c57610211565b806306394c9b1461021657806308f802cc1461023e5780630d1af1031461027c5780630ea9c984146102c6575b600080fd5b61023c6004803603602081101561022c57600080fd5b50356001600160a01b0316610788565b005b61026a6004803603604081101561025457600080fd5b506001600160a01b038135169060200135610890565b60408051918252519081900360200190f35b6102b26004803603606081101561029257600080fd5b506001600160a01b038135811691602081013590911690604001356108ba565b604080519115158252519081900360200190f35b61023c610b4e565b6102d6610c7e565b604080516001600160a01b039092168252519081900360200190f35b61026a6004803603606081101561030857600080fd5b506001600160a01b038135169060208101359060400135610c8d565b61026a610ca2565b61023c6004803603606081101561034257600080fd5b506001600160a01b038135169060208101359060400135610d23565b6102b26004803603606081101561037457600080fd5b506001600160a01b038135169060208101359060400135610db1565b6102b2600480360360608110156103a657600080fd5b5080359060208101359060400135610e3f565b61026a600480360360208110156103cf57600080fd5b50356001600160a01b0316610f86565b61026a600480360360408110156103f557600080fd5b506001600160a01b038135169060200135611119565b61023c6004803603604081101561042157600080fd5b506001600160a01b03813516906020013561122a565b61026a6004803603602081101561044d57600080fd5b50356001600160a01b0316611325565b61023c6004803603604081101561047357600080fd5b506001600160a01b038135169060200135611541565b61026a6004803603604081101561049f57600080fd5b506001600160a01b038135169060200135611620565b61026a600480360360408110156104cb57600080fd5b506001600160a01b038135169060200135611632565b61026a600480360360408110156104f757600080fd5b506001600160a01b03813516906020013561163e565b6102b26004803603604081101561052357600080fd5b506001600160a01b03813516906020013561166c565b61023c6004803603606081101561054f57600080fd5b506001600160a01b03813516906020810135906040013561177f565b61023c6004803603606081101561058157600080fd5b506001600160a01b03813516906020810135906040013561180d565b6102b2600480360360408110156105b357600080fd5b508035906020013561189b565b61023c600480360360208110156105d657600080fd5b50356001600160a01b0316611aa1565b61023c600480360360408110156105fc57600080fd5b506001600160c01b03198135169060200135611b79565b6102d6611c88565b6102b26004803603604081101561063157600080fd5b5080359060200135611c97565b61026a6004803603602081101561065457600080fd5b50356001600160a01b0316611d8c565b61026a611e06565b61023c6004803603608081101561068257600080fd5b506001600160a01b03813581169160208101358216916040820135169060600135611e0c565b61023c600480360360208110156106be57600080fd5b50356001600160a01b0316611ece565b6106fa600480360360408110156106e457600080fd5b506001600160a01b038135169060200135611f5d565b604080519384526020840192909252151582820152519081900360600190f35b61023c6004803603602081101561073057600080fd5b50356001600160a01b0316611f88565b6102d6612061565b6102b26004803603608081101561075e57600080fd5b506001600160a01b038135169060208101359060408101359060600135612070565b6102d661210a565b60025460408051600160e21b6323c5b10702815233600482015290516001600160a01b0390921691638f16c41c91602480820192602092909190829003018186803b1580156107d657600080fd5b505afa1580156107ea573d6000803e3d6000fd5b505050506040513d602081101561080057600080fd5b505161080b57600080fd5b6004805460408051600160e01b6306394c9b0281526001600160a01b0385811694820194909452905192909116916306394c9b916024808201926020929091908290030181600087803b15801561086157600080fd5b505af1158015610875573d6000803e3d6000fd5b505050506040513d602081101561088b57600080fd5b505050565b6001600160a01b039091166000908152600160208181526040808420948452939052919020015490565b60025460408051600160e21b6323c5b10702815233600482015290516000926001600160a01b031691638f16c41c916024808301926020929190829003018186803b15801561090857600080fd5b505afa15801561091c573d6000803e3d6000fd5b505050506040513d602081101561093257600080fd5b505161093d57600080fd5b6005546001600160a01b0316331461098957604051600160e51b62461bcd02815260040180806020018281038252602f815260200180612b8f602f913960400191505060405180910390fd5b6004805460408051600160e01b63b0e65d070281526001600160a01b0388811694820194909452602481018690529051929091169163b0e65d07916044808201926020929091908290030181600087803b1580156109e657600080fd5b505af11580156109fa573d6000803e3d6000fd5b505050506040513d6020811015610a1057600080fd5b5051610a665760408051600160e51b62461bcd02815260206004820152601860248201527f4f70657261746f72207472616e73666572206661696c65640000000000000000604482015290519081900360640190fd5b6004805460408051600160e01b63a9059cbb0281526001600160a01b0387811694820194909452602481018690529051929091169163a9059cbb916044808201926020929091908290030181600087803b158015610ac357600080fd5b505af1158015610ad7573d6000803e3d6000fd5b505050506040513d6020811015610aed57600080fd5b5051610b435760408051600160e51b62461bcd02815260206004820152601860248201527f496e7465726e616c207472616e73666572206661696c65640000000000000000604482015290519081900360640190fd5b5060015b9392505050565b600260009054906101000a90046001600160a01b03166001600160a01b0316639d76ea586040518163ffffffff1660e01b815260040160206040518083038186803b158015610b9c57600080fd5b505afa158015610bb0573d6000803e3d6000fd5b505050506040513d6020811015610bc657600080fd5b5051600480546001600160a01b0319166001600160a01b0392831617815560025460408051600160e31b6227050b028152600160f01b615053029381019390935251921691630138285891602480820192602092909190829003018186803b158015610c3157600080fd5b505afa158015610c45573d6000803e3d6000fd5b505050506040513d6020811015610c5b57600080fd5b5051600580546001600160a01b0319166001600160a01b03909216919091179055565b6005546001600160a01b031681565b6000610c9a848484612119565b949350505050565b6000600460009054906101000a90046001600160a01b03166001600160a01b03166318160ddd6040518163ffffffff1660e01b815260040160206040518083038186803b158015610cf257600080fd5b505afa158015610d06573d6000803e3d6000fd5b505050506040513d6020811015610d1c57600080fd5b5051905090565b60025460408051600160e21b6323c5b10702815233600482015290516001600160a01b0390921691638f16c41c91602480820192602092909190829003018186803b158015610d7157600080fd5b505afa158015610d85573d6000803e3d6000fd5b505050506040513d6020811015610d9b57600080fd5b5051610da657600080fd5b61088b83838361216f565b60025460408051600160e21b6323c5b10702815233600482015290516000926001600160a01b031691638f16c41c916024808301926020929190829003018186803b158015610dff57600080fd5b505afa158015610e13573d6000803e3d6000fd5b505050506040513d6020811015610e2957600080fd5b5051610e3457600080fd5b610b4384848461226b565b600254604080516001600160e01b62f6c759020319815290516000926001600160a01b03169163ff0938a7916004808301926020929190829003018186803b158015610e8a57600080fd5b505afa158015610e9e573d6000803e3d6000fd5b505050506040513d6020811015610eb457600080fd5b505115610ec057600080fd5b600160e81b62434c41028414610f205760408051600160e51b62461bcd02815260206004820152601860248201527f5265737472696374656420746f20726561736f6e20434c410000000000000000604482015290519081900360640190fd5b816006541115610f7a5760408051600160e51b62461bcd02815260206004820152601c60248201527f53686f756c64206c6f636b20666f72206d696e696d756d2074696d6500000000604482015290519081900360640190fd5b610b43338585856122fd565b600254604080516001600160e01b62f6c759020319815290516000926001600160a01b03169163ff0938a7916004808301926020929190829003018186803b158015610fd157600080fd5b505afa158015610fe5573d6000803e3d6000fd5b505050506040513d6020811015610ffb57600080fd5b50511561100757600080fd5b61101a82600160e81b62434c41026124b3565b90508015611114576001600160a01b0382166000818152600160208181526040808420600160e81b62434c410280865290835293819020600201805460ff191690931790925581518581529151929392600080516020612b6f8339815191529281900390910190a36004805460408051600160e01b63a9059cbb0281526001600160a01b0386811694820194909452602481018590529051929091169163a9059cbb916044808201926020929091908290030181600087803b1580156110df57600080fd5b505af11580156110f3573d6000803e3d6000fd5b505050506040513d602081101561110957600080fd5b505161111457600080fd5b919050565b6000805b6001600160a01b03841660009081526020819052604090205481101561119b5761119161118485600080886001600160a01b03166001600160a01b03168152602001908152602001600020848154811061117357fe5b906000526020600020015486612119565b839063ffffffff61253c16565b915060010161111d565b5060055460408051600160e01b6339ac5eb90281526001600160a01b0386811660048301529151610b479392909216916339ac5eb991602480820192602092909190829003018186803b1580156111f157600080fd5b505afa158015611205573d6000803e3d6000fd5b505050506040513d602081101561121b57600080fd5b5051829063ffffffff61253c16565b60025460408051600160e21b6323c5b10702815233600482015290516001600160a01b0390921691638f16c41c91602480820192602092909190829003018186803b15801561127857600080fd5b505afa15801561128c573d6000803e3d6000fd5b505050506040513d60208110156112a257600080fd5b50516112ad57600080fd5b6004805460408051600160e01b6340c10f190281526001600160a01b038681169482019490945260248101859052905192909116916340c10f199160448082019260009290919082900301818387803b15801561130957600080fd5b505af115801561131d573d6000803e3d6000fd5b505050505050565b6004805460408051600160e01b6370a082310281526001600160a01b03858116948201949094529051600093909216916370a0823191602480820192602092909190829003018186803b15801561137b57600080fd5b505afa15801561138f573d6000803e3d6000fd5b505050506040513d60208110156113a557600080fd5b5051905060005b6001600160a01b03831660009081526020819052604090205481101561141c5761141261118484600080876001600160a01b03166001600160a01b03168152602001908152602001600020848154811061140257fe5b9060005260206000200154612599565b91506001016113ac565b5060055460408051600160e01b630ea474c70281526001600160a01b03858116600483015291516000939290921691630ea474c791602480820192602092909190829003018186803b15801561147157600080fd5b505afa158015611485573d6000803e3d6000fd5b505050506040513d602081101561149b57600080fd5b505160055460408051600160e01b6339ac5eb90281526001600160a01b038781166004830152915193945060009391909216916339ac5eb9916024808301926020929190829003018186803b1580156114f357600080fd5b505afa158015611507573d6000803e3d6000fd5b505050506040513d602081101561151d57600080fd5b50519050610c9a82611535858463ffffffff61253c16565b9063ffffffff61253c16565b60025460408051600160e21b6323c5b10702815233600482015290516001600160a01b0390921691638f16c41c91602480820192602092909190829003018186803b15801561158f57600080fd5b505afa1580156115a3573d6000803e3d6000fd5b505050506040513d60208110156115b957600080fd5b50516115c457600080fd5b6004805460408051600160e01b634c47e71d0281526001600160a01b03868116948201949094526024810185905290519290911691634c47e71d9160448082019260009290919082900301818387803b15801561130957600080fd5b6000610b4783836124b3565b92915050565b6000610b478383612599565b6000602052816000526040600020818154811061165757fe5b90600052602060002001600091509150505481565b60025460408051600160e21b6323c5b10702815233600482015290516000926001600160a01b031691638f16c41c916024808301926020929190829003018186803b1580156116ba57600080fd5b505afa1580156116ce573d6000803e3d6000fd5b505050506040513d60208110156116e457600080fd5b50516116ef57600080fd5b6004805460408051600160e41b63079cc6790281526001600160a01b038781169482019490945260248101869052905192909116916379cc6790916044808201926020929091908290030181600087803b15801561174c57600080fd5b505af1158015611760573d6000803e3d6000fd5b505050506040513d602081101561177657600080fd5b50519392505050565b60025460408051600160e21b6323c5b10702815233600482015290516001600160a01b0390921691638f16c41c91602480820192602092909190829003018186803b1580156117cd57600080fd5b505afa1580156117e1573d6000803e3d6000fd5b505050506040513d60208110156117f757600080fd5b505161180257600080fd5b61088b8383836125f0565b60025460408051600160e21b6323c5b10702815233600482015290516001600160a01b0390921691638f16c41c91602480820192602092909190829003018186803b15801561185b57600080fd5b505afa15801561186f573d6000803e3d6000fd5b505050506040513d602081101561188557600080fd5b505161189057600080fd5b61088b838383612772565b600254604080516001600160e01b62f6c759020319815290516000926001600160a01b03169163ff0938a7916004808301926020929190829003018186803b1580156118e657600080fd5b505afa1580156118fa573d6000803e3d6000fd5b505050506040513d602081101561191057600080fd5b50511561191c57600080fd5b600160e81b62434c4102831461197c5760408051600160e51b62461bcd02815260206004820152601860248201527f5265737472696374656420746f20726561736f6e20434c410000000000000000604482015290519081900360640190fd5b60006119883385612599565b1161199257600080fd5b6004805460408051600160e01b63b0e65d07028152339381019390935260248301859052516001600160a01b039091169163b0e65d079160448083019260209291908290030181600087803b1580156119ea57600080fd5b505af11580156119fe573d6000803e3d6000fd5b505050506040513d6020811015611a1457600080fd5b5050336000908152600160209081526040808320868452909152902054611a41908363ffffffff61253c16565b336000818152600160208181526040808420898552825292839020948555930154815186815293840152805186937fea90ef40963535482537f0689e05cb8d259e459ebd21530e826702294d0eafdd92908290030190a350600192915050565b60025460408051600160e21b6323c5b10702815233600482015290516001600160a01b0390921691638f16c41c91602480820192602092909190829003018186803b158015611aef57600080fd5b505afa158015611b03573d6000803e3d6000fd5b505050506040513d6020811015611b1957600080fd5b5051611b2457600080fd5b6004805460408051600160e31b6237ecc90281526001600160a01b0385811694820194909452905192909116916301bf6648916024808201926020929091908290030181600087803b15801561086157600080fd5b60025460408051600160e11b632c1a733d02815233600482015290516001600160a01b0390921691635834e67a91602480820192602092909190829003018186803b158015611bc757600080fd5b505afa158015611bdb573d6000803e3d6000fd5b505050506040513d6020811015611bf157600080fd5b5051611bfc57600080fd5b600160da1b64135390d315026001600160c01b031983161415611c3457611c2c816201518063ffffffff6128f616565b600655611c84565b60408051600160e51b62461bcd02815260206004820152601260248201527f496e76616c696420706172616d20636f64650000000000000000000000000000604482015290519081900360640190fd5b5050565b6002546001600160a01b031681565b600254604080516001600160e01b62f6c759020319815290516000926001600160a01b03169163ff0938a7916004808301926020929190829003018186803b158015611ce257600080fd5b505afa158015611cf6573d6000803e3d6000fd5b505050506040513d6020811015611d0c57600080fd5b505115611d1857600080fd5b600160e81b62434c41028314611d785760408051600160e51b62461bcd02815260206004820152601860248201527f5265737472696374656420746f20726561736f6e20434c410000000000000000604482015290519081900360640190fd5b611d8333848461226b565b50600192915050565b6000805b6001600160a01b038316600090815260208190526040902054811015611e0057611df661118484600080876001600160a01b03166001600160a01b031681526020019081526020016000208481548110611de657fe5b90600052602060002001546124b3565b9150600101611d90565b50919050565b60065481565b600480546001600160a01b0319166001600160a01b038581169190911780835560408051600160e01b6306394c9b0281523094810194909452519116916306394c9b9160248083019260209291908290030181600087803b158015611e7057600080fd5b505af1158015611e84573d6000803e3d6000fd5b505050506040513d6020811015611e9a57600080fd5b50611ea6905084611ece565b600580546001600160a01b0319166001600160a01b0393909316929092179091556006555050565b6002546001600160a01b031615611f31576002546001600160a01b03163314611f315760408051600160e51b62461bcd02815260206004820152600a6024820152600160b11b692737ba1036b0b9ba32b902604482015290519081900360640190fd5b600280546001600160a01b039092166001600160a01b0319928316811790915560038054909216179055565b6001602081815260009384526040808520909152918352912080549181015460029091015460ff1683565b60025460408051600160e21b6323c5b10702815233600482015290516001600160a01b0390921691638f16c41c91602480820192602092909190829003018186803b158015611fd657600080fd5b505afa158015611fea573d6000803e3d6000fd5b505050506040513d602081101561200057600080fd5b505161200b57600080fd5b6004805460408051600160e21b6311fb80e50281526001600160a01b0385811694820194909452905192909116916347ee0394916024808201926020929091908290030181600087803b15801561086157600080fd5b6003546001600160a01b031681565b60025460408051600160e21b6323c5b10702815233600482015290516000926001600160a01b031691638f16c41c916024808301926020929190829003018186803b1580156120be57600080fd5b505afa1580156120d2573d6000803e3d6000fd5b505050506040513d60208110156120e857600080fd5b50516120f357600080fd5b6120ff858585856122fd565b506001949350505050565b6004546001600160a01b031681565b6001600160a01b038316600090815260016020818152604080842086855290915282200154821015610b475750506001600160a01b03919091166000908152600160209081526040808320938352929052205490565b600061217b8484612599565b1161218557600080fd5b6001600160a01b03831660008181526001602090815260408083208684528252918290205482519081529151859392600080516020612b6f83398151915292908290030190a36001600160a01b03831660009081526001602081815260408084208685529091529091200154612201908263ffffffff61295216565b6001600160a01b03841660008181526001602081815260408084208885528252928390209182018590559054825190815290810193909352805185937fea90ef40963535482537f0689e05cb8d259e459ebd21530e826702294d0eafdd92908290030190a3505050565b60006122778484612599565b1161228157600080fd5b6001600160a01b03831660008181526001602090815260408083208684528252918290205482519081529151859392600080516020612b6f83398151915292908290030190a36001600160a01b03831660009081526001602081815260408084208685529091529091200154612201908263ffffffff61253c16565b6123078484612599565b1561231157600080fd5b8161231b57600080fd5b6001600160a01b038416600090815260016020908152604080832086845290915290205461236d576001600160a01b038416600090815260208181526040822080546001810182559083529120018390555b6004805460408051600160e01b63b0e65d070281526001600160a01b0388811694820194909452602481018690529051929091169163b0e65d07916044808201926020929091908290030181600087803b1580156123ca57600080fd5b505af11580156123de573d6000803e3d6000fd5b505050506040513d60208110156123f457600080fd5b50516123ff57600080fd5b6000612411428363ffffffff61253c16565b60408051606081018252858152602080820184815260008385018181526001600160a01b038c1680835260018086528784208d855286529287902095518655925191850191909155516002909301805460ff19169315159390931790925582518781529081018490528251939450879391927fea90ef40963535482537f0689e05cb8d259e459ebd21530e826702294d0eafdd92918290030190a35050505050565b6001600160a01b038216600090815260016020818152604080842085855290915282200154421080159061250e57506001600160a01b038316600090815260016020908152604080832085845290915290206002015460ff16155b1561162c57506001600160a01b03919091166000908152600160209081526040808320938352929052205490565b600082820183811015610b475760408051600160e51b62461bcd02815260206004820152601b60248201527f536166654d6174683a206164646974696f6e206f766572666c6f770000000000604482015290519081900360640190fd5b6001600160a01b038216600090815260016020908152604080832084845290915281206002015460ff1661162c57506001600160a01b03919091166000908152600160209081526040808320938352929052205490565b60006125fc8484612599565b90508181101561260b57600080fd5b81811415612646576001600160a01b0384166000908152600160208181526040808420878552909152909120600201805460ff191690911790555b6001600160a01b038416600090815260016020908152604080832086845290915290205461267a908363ffffffff61295216565b6001600160a01b038516600090815260016020908152604080832087845290915290208190556126ae576126ae8484612994565b6004805460408051600160e31b630852cd8d028152928301859052516001600160a01b03909116916342966c689160248083019260209291908290030181600087803b1580156126fd57600080fd5b505af1158015612711573d6000803e3d6000fd5b505050506040513d602081101561272757600080fd5b5050604080518481526020810184905281516001600160a01b038716927f7298c49d4a02f128c91eac867376070b76cb09e92a8867b22356c6c797cac1b2928290030190a250505050565b600061277e8484612599565b90508181101561278d57600080fd5b818114156127c8576001600160a01b0384166000908152600160208181526040808420878552909152909120600201805460ff191690911790555b6001600160a01b03841660009081526001602090815260408083208684529091529020546127fc908363ffffffff61295216565b6001600160a01b03851660009081526001602090815260408083208784529091529020819055612830576128308484612994565b6004805460408051600160e01b63a9059cbb0281526001600160a01b0388811694820194909452602481018690529051929091169163a9059cbb916044808201926020929091908290030181600087803b15801561288d57600080fd5b505af11580156128a1573d6000803e3d6000fd5b505050506040513d60208110156128b757600080fd5b50516128c257600080fd5b60408051838152905184916001600160a01b03871691600080516020612b6f8339815191529181900360200190a350505050565b6000826129055750600061162c565b8282028284828161291257fe5b0414610b4757604051600160e51b62461bcd028152600401808060200182810382526021815260200180612b4e6021913960400191505060405180910390fd5b6000610b4783836040518060400160405280601e81526020017f536166654d6174683a207375627472616374696f6e206f766572666c6f770000815250612ab3565b6001600160a01b038216600090815260208190526040812054905b81811015612aad576001600160a01b03841660009081526020819052604090208054849190839081106129de57fe5b90600052602060002001541415612aa5576001600160a01b0384166000908152602081905260409020612a1883600163ffffffff61295216565b81548110612a2257fe5b9060005260206000200154600080866001600160a01b03166001600160a01b031681526020019081526020016000208281548110612a5c57fe5b60009182526020808320909101929092556001600160a01b03861681529081905260409020805480612a8a57fe5b60019003818190600052602060002001600090559055612aad565b6001016129af565b50505050565b60008184841115612b4557604051600160e51b62461bcd0281526004018080602001828103825283818151815260200191508051906020019080838360005b83811015612b0a578181015183820152602001612af2565b50505050905090810190601f168015612b375780820380516001836020036101000a031916815260200191505b509250505060405180910390fd5b50505090039056fe536166654d6174683a206d756c7469706c69636174696f6e206f766572666c6f7711f87fd5adcd05786919b8b868f59a70d78ae4eb6f305c5927f9c5b1659841a443616c6c206973206f6e6c7920616c6c6f7765642066726f6d20506f6f6c65645374616b696e672061646472657373a165627a7a723058209c83fb2cfefd8015bfd30493981723b43664753698b48e05b5b39eaa5065e2980029536166654d6174683a206d756c7469706c69636174696f6e206f766572666c6f77",
  "compiler": {
    "name": "solc",
    "version": "0.5.7+commit.6da8b019.Emscripten.clang",
    "optimizer": {
      "enabled": true,
      "runs": 200
    },
    "evmVersion": "petersburg"
  }
}