{
  "fileName": "DisposableGovernance.sol",
  "contractName": "DisposableGovernance",
  "source": "pragma solidity ^0.5.0;\n\nimport \"../modules/governance/Governance.sol\";\n\n/*\n * Due to the bytecode size limit on the Governance contract,\n * we don't inherit it but just copy the state variables here instead\n * to allow a safe upgrade from the disposable to the normal contract\n */\n\nimport \"../modules/governance/MemberRoles.sol\";\nimport \"../modules/governance/ProposalCategory.sol\";\nimport \"../modules/governance/external/IGovernance.sol\";\nimport \"../modules/token/TokenController.sol\";\nimport \"@openzeppelin/contracts/math/SafeMath.sol\";\n\ncontract DisposableGovernance is IGovernance, Iupgradable {\n\n  /* disposable initialization function */\n\n  // mainnet param values added in comments\n  function initialize(\n    uint _tokenHoldingTime, // 3 days\n    uint _maxDraftTime, // 14 days\n    uint _maxVoteWeigthPer, // 5\n    uint _maxFollowers, // 40\n    uint _specialResolutionMajPerc, // 75\n    uint _actionWaitingTime // 1 day\n  ) external {\n\n    require(!constructorCheck);\n    constructorCheck = true;\n\n    totalProposals = 1;\n    allVotes.push(ProposalVote(address(0), 0, 0));\n    allDelegation.push(DelegateVote(address(0), address(0), now));\n    roleIdAllowedToCatgorize = uint(MemberRoles.Role.AdvisoryBoard);\n\n    tokenHoldingTime = _tokenHoldingTime;\n    maxDraftTime = _maxDraftTime;\n    maxVoteWeigthPer = _maxVoteWeigthPer;\n    maxFollowers = _maxFollowers;\n    specialResolutionMajPerc = _specialResolutionMajPerc;\n    actionWaitingTime = _actionWaitingTime;\n  }\n\n  /* structs used in state variables */\n\n  struct ProposalData {\n    uint propStatus;\n    uint finalVerdict;\n    uint category;\n    uint commonIncentive;\n    uint dateUpd;\n    address owner;\n  }\n\n  struct ProposalVote {\n    address voter;\n    uint proposalId;\n    uint dateAdd;\n  }\n\n  struct VoteTally {\n    mapping(uint => uint) memberVoteValue;\n    mapping(uint => uint) abVoteValue;\n    uint voters;\n  }\n\n  struct DelegateVote {\n    address follower;\n    address leader;\n    uint lastUpd;\n  }\n\n  /* copied state variables */\n\n  ProposalVote[] internal allVotes;\n  DelegateVote[] public allDelegation;\n\n  mapping(uint => ProposalData) internal allProposalData;\n  mapping(uint => bytes[]) internal allProposalSolutions;\n  mapping(address => uint[]) internal allVotesByMember;\n  mapping(uint => mapping(address => bool)) public rewardClaimed;\n  mapping(address => mapping(uint => uint)) public memberProposalVote;\n  mapping(address => uint) public followerDelegation;\n  mapping(address => uint) internal followerCount;\n  mapping(address => uint[]) internal leaderDelegation;\n  mapping(uint => VoteTally) public proposalVoteTally;\n  mapping(address => bool) public isOpenForDelegation;\n  mapping(address => uint) public lastRewardClaimed;\n\n  bool internal constructorCheck;\n  uint public tokenHoldingTime;\n  uint internal roleIdAllowedToCatgorize;\n  uint internal maxVoteWeigthPer;\n  uint internal specialResolutionMajPerc;\n  uint internal maxFollowers;\n  uint internal totalProposals;\n  uint internal maxDraftTime;\n\n  MemberRoles internal memberRole;\n  ProposalCategory internal proposalCategory;\n  TokenController internal tokenInstance;\n\n  mapping(uint => uint) public proposalActionStatus;\n  mapping(uint => uint) internal proposalExecutionTime;\n  mapping(uint => mapping(address => bool)) public proposalRejectedByAB;\n  mapping(uint => uint) internal actionRejectedCount;\n\n  bool internal actionParamsInitialised;\n  uint internal actionWaitingTime;\n\n  /* function required for Iupgradable and IGovernance implementation */\n\n  function changeDependentContractAddress() public {}\n\n  function createProposal(string calldata, string calldata, string calldata, uint) external {}\n\n  function updateProposal(uint, string calldata, string calldata, string calldata) external {}\n\n  function categorizeProposal(uint, uint, uint) external {}\n\n  function submitProposalWithSolution(uint, string calldata, bytes calldata) external {}\n\n  function createProposalwithSolution(string calldata, string calldata, string calldata, uint, string calldata, bytes calldata) external {}\n\n  function submitVote(uint, uint) external {}\n\n  function closeProposal(uint) external {}\n\n  function claimReward(address, uint) external returns (uint) {return 0;}\n\n  function proposal(uint) external view returns (uint, uint, uint, uint, uint) {return (0, 0, 0, 0, 0);}\n\n  function canCloseProposal(uint) public view returns (uint) {return 0;}\n\n  function allowedToCatgorize() public view returns (uint) {return 0;}\n}\n",
  "sourcePath": "contracts/mocks/DisposableGovernance.sol",
  "abi": [
    {
      "constant": false,
      "inputs": [
        {
          "name": "",
          "type": "uint256"
        }
      ],
      "name": "closeProposal",
      "outputs": [],
      "payable": false,
      "stateMutability": "nonpayable",
      "type": "function"
    },
    {
      "constant": true,
      "inputs": [
        {
          "name": "",
          "type": "address"
        },
        {
          "name": "",
          "type": "uint256"
        }
      ],
      "name": "memberProposalVote",
      "outputs": [
        {
          "name": "",
          "type": "uint256"
        }
      ],
      "payable": false,
      "stateMutability": "view",
      "type": "function"
    },
    {
      "constant": true,
      "inputs": [
        {
          "name": "",
          "type": "uint256"
        },
        {
          "name": "",
          "type": "address"
        }
      ],
      "name": "proposalRejectedByAB",
      "outputs": [
        {
          "name": "",
          "type": "bool"
        }
      ],
      "payable": false,
      "stateMutability": "view",
      "type": "function"
    },
    {
      "constant": false,
      "inputs": [],
      "name": "changeDependentContractAddress",
      "outputs": [],
      "payable": false,
      "stateMutability": "nonpayable",
      "type": "function"
    },
    {
      "constant": false,
      "inputs": [
        {
          "name": "",
          "type": "string"
        },
        {
          "name": "",
          "type": "string"
        },
        {
          "name": "",
          "type": "string"
        },
        {
          "name": "",
          "type": "uint256"
        },
        {
          "name": "",
          "type": "string"
        },
        {
          "name": "",
          "type": "bytes"
        }
      ],
      "name": "createProposalwithSolution",
      "outputs": [],
      "payable": false,
      "stateMutability": "nonpayable",
      "type": "function"
    },
    {
      "constant": false,
      "inputs": [
        {
          "name": "",
          "type": "address"
        },
        {
          "name": "",
          "type": "uint256"
        }
      ],
      "name": "claimReward",
      "outputs": [
        {
          "name": "",
          "type": "uint256"
        }
      ],
      "payable": false,
      "stateMutability": "nonpayable",
      "type": "function"
    },
    {
      "constant": true,
      "inputs": [
        {
          "name": "",
          "type": "uint256"
        }
      ],
      "name": "proposalActionStatus",
      "outputs": [
        {
          "name": "",
          "type": "uint256"
        }
      ],
      "payable": false,
      "stateMutability": "view",
      "type": "function"
    },
    {
      "constant": false,
      "inputs": [
        {
          "name": "_tokenHoldingTime",
          "type": "uint256"
        },
        {
          "name": "_maxDraftTime",
          "type": "uint256"
        },
        {
          "name": "_maxVoteWeigthPer",
          "type": "uint256"
        },
        {
          "name": "_maxFollowers",
          "type": "uint256"
        },
        {
          "name": "_specialResolutionMajPerc",
          "type": "uint256"
        },
        {
          "name": "_actionWaitingTime",
          "type": "uint256"
        }
      ],
      "name": "initialize",
      "outputs": [],
      "payable": false,
      "stateMutability": "nonpayable",
      "type": "function"
    },
    {
      "constant": true,
      "inputs": [
        {
          "name": "",
          "type": "uint256"
        }
      ],
      "name": "proposal",
      "outputs": [
        {
          "name": "",
          "type": "uint256"
        },
        {
          "name": "",
          "type": "uint256"
        },
        {
          "name": "",
          "type": "uint256"
        },
        {
          "name": "",
          "type": "uint256"
        },
        {
          "name": "",
          "type": "uint256"
        }
      ],
      "payable": false,
      "stateMutability": "view",
      "type": "function"
    },
    {
      "constant": true,
      "inputs": [],
      "name": "tokenHoldingTime",
      "outputs": [
        {
          "name": "",
          "type": "uint256"
        }
      ],
      "payable": false,
      "stateMutability": "view",
      "type": "function"
    },
    {
      "constant": false,
      "inputs": [
        {
          "name": "",
          "type": "string"
        },
        {
          "name": "",
          "type": "string"
        },
        {
          "name": "",
          "type": "string"
        },
        {
          "name": "",
          "type": "uint256"
        }
      ],
      "name": "createProposal",
      "outputs": [],
      "payable": false,
      "stateMutability": "nonpayable",
      "type": "function"
    },
    {
      "constant": true,
      "inputs": [
        {
          "name": "",
          "type": "uint256"
        },
        {
          "name": "",
          "type": "address"
        }
      ],
      "name": "rewardClaimed",
      "outputs": [
        {
          "name": "",
          "type": "bool"
        }
      ],
      "payable": false,
      "stateMutability": "view",
      "type": "function"
    },
    {
      "constant": false,
      "inputs": [
        {
          "name": "",
          "type": "uint256"
        },
        {
          "name": "",
          "type": "uint256"
        },
        {
          "name": "",
          "type": "uint256"
        }
      ],
      "name": "categorizeProposal",
      "outputs": [],
      "payable": false,
      "stateMutability": "nonpayable",
      "type": "function"
    },
    {
      "constant": false,
      "inputs": [
        {
          "name": "",
          "type": "uint256"
        },
        {
          "name": "",
          "type": "uint256"
        }
      ],
      "name": "submitVote",
      "outputs": [],
      "payable": false,
      "stateMutability": "nonpayable",
      "type": "function"
    },
    {
      "constant": false,
      "inputs": [
        {
          "name": "",
          "type": "uint256"
        },
        {
          "name": "",
          "type": "string"
        },
        {
          "name": "",
          "type": "bytes"
        }
      ],
      "name": "submitProposalWithSolution",
      "outputs": [],
      "payable": false,
      "stateMutability": "nonpayable",
      "type": "function"
    },
    {
      "constant": true,
      "inputs": [
        {
          "name": "",
          "type": "address"
        }
      ],
      "name": "followerDelegation",
      "outputs": [
        {
          "name": "",
          "type": "uint256"
        }
      ],
      "payable": false,
      "stateMutability": "view",
      "type": "function"
    },
    {
      "constant": true,
      "inputs": [],
      "name": "ms",
      "outputs": [
        {
          "name": "",
          "type": "address"
        }
      ],
      "payable": false,
      "stateMutability": "view",
      "type": "function"
    },
    {
      "constant": true,
      "inputs": [],
      "name": "allowedToCatgorize",
      "outputs": [
        {
          "name": "",
          "type": "uint256"
        }
      ],
      "payable": false,
      "stateMutability": "view",
      "type": "function"
    },
    {
      "constant": true,
      "inputs": [
        {
          "name": "",
          "type": "uint256"
        }
      ],
      "name": "allDelegation",
      "outputs": [
        {
          "name": "follower",
          "type": "address"
        },
        {
          "name": "leader",
          "type": "address"
        },
        {
          "name": "lastUpd",
          "type": "uint256"
        }
      ],
      "payable": false,
      "stateMutability": "view",
      "type": "function"
    },
    {
      "constant": true,
      "inputs": [
        {
          "name": "",
          "type": "uint256"
        }
      ],
      "name": "canCloseProposal",
      "outputs": [
        {
          "name": "",
          "type": "uint256"
        }
      ],
      "payable": false,
      "stateMutability": "view",
      "type": "function"
    },
    {
      "constant": false,
      "inputs": [
        {
          "name": "_masterAddress",
          "type": "address"
        }
      ],
      "name": "changeMasterAddress",
      "outputs": [],
      "payable": false,
      "stateMutability": "nonpayable",
      "type": "function"
    },
    {
      "constant": true,
      "inputs": [
        {
          "name": "",
          "type": "address"
        }
      ],
      "name": "isOpenForDelegation",
      "outputs": [
        {
          "name": "",
          "type": "bool"
        }
      ],
      "payable": false,
      "stateMutability": "view",
      "type": "function"
    },
    {
      "constant": true,
      "inputs": [
        {
          "name": "",
          "type": "address"
        }
      ],
      "name": "lastRewardClaimed",
      "outputs": [
        {
          "name": "",
          "type": "uint256"
        }
      ],
      "payable": false,
      "stateMutability": "view",
      "type": "function"
    },
    {
      "constant": false,
      "inputs": [
        {
          "name": "",
          "type": "uint256"
        },
        {
          "name": "",
          "type": "string"
        },
        {
          "name": "",
          "type": "string"
        },
        {
          "name": "",
          "type": "string"
        }
      ],
      "name": "updateProposal",
      "outputs": [],
      "payable": false,
      "stateMutability": "nonpayable",
      "type": "function"
    },
    {
      "constant": true,
      "inputs": [
        {
          "name": "",
          "type": "uint256"
        }
      ],
      "name": "proposalVoteTally",
      "outputs": [
        {
          "name": "voters",
          "type": "uint256"
        }
      ],
      "payable": false,
      "stateMutability": "view",
      "type": "function"
    },
    {
      "constant": true,
      "inputs": [],
      "name": "nxMasterAddress",
      "outputs": [
        {
          "name": "",
          "type": "address"
        }
      ],
      "payable": false,
      "stateMutability": "view",
      "type": "function"
    },
    {
      "anonymous": false,
      "inputs": [
        {
          "indexed": true,
          "name": "proposalOwner",
          "type": "address"
        },
        {
          "indexed": true,
          "name": "proposalId",
          "type": "uint256"
        },
        {
          "indexed": false,
          "name": "dateAdd",
          "type": "uint256"
        },
        {
          "indexed": false,
          "name": "proposalTitle",
          "type": "string"
        },
        {
          "indexed": false,
          "name": "proposalSD",
          "type": "string"
        },
        {
          "indexed": false,
          "name": "proposalDescHash",
          "type": "string"
        }
      ],
      "name": "Proposal",
      "type": "event"
    },
    {
      "anonymous": false,
      "inputs": [
        {
          "indexed": true,
          "name": "proposalId",
          "type": "uint256"
        },
        {
          "indexed": true,
          "name": "solutionOwner",
          "type": "address"
        },
        {
          "indexed": true,
          "name": "solutionId",
          "type": "uint256"
        },
        {
          "indexed": false,
          "name": "solutionDescHash",
          "type": "string"
        },
        {
          "indexed": false,
          "name": "dateAdd",
          "type": "uint256"
        }
      ],
      "name": "Solution",
      "type": "event"
    },
    {
      "anonymous": false,
      "inputs": [
        {
          "indexed": true,
          "name": "from",
          "type": "address"
        },
        {
          "indexed": true,
          "name": "proposalId",
          "type": "uint256"
        },
        {
          "indexed": true,
          "name": "voteId",
          "type": "uint256"
        },
        {
          "indexed": false,
          "name": "dateAdd",
          "type": "uint256"
        },
        {
          "indexed": false,
          "name": "solutionChosen",
          "type": "uint256"
        }
      ],
      "name": "Vote",
      "type": "event"
    },
    {
      "anonymous": false,
      "inputs": [
        {
          "indexed": true,
          "name": "member",
          "type": "address"
        },
        {
          "indexed": false,
          "name": "gbtReward",
          "type": "uint256"
        }
      ],
      "name": "RewardClaimed",
      "type": "event"
    },
    {
      "anonymous": false,
      "inputs": [
        {
          "indexed": false,
          "name": "proposalId",
          "type": "uint256"
        }
      ],
      "name": "VoteCast",
      "type": "event"
    },
    {
      "anonymous": false,
      "inputs": [
        {
          "indexed": false,
          "name": "proposalId",
          "type": "uint256"
        }
      ],
      "name": "ProposalAccepted",
      "type": "event"
    },
    {
      "anonymous": false,
      "inputs": [
        {
          "indexed": true,
          "name": "proposalId",
          "type": "uint256"
        },
        {
          "indexed": false,
          "name": "time",
          "type": "uint256"
        }
      ],
      "name": "CloseProposalOnTime",
      "type": "event"
    },
    {
      "anonymous": false,
      "inputs": [
        {
          "indexed": false,
          "name": "proposalId",
          "type": "uint256"
        }
      ],
      "name": "ActionSuccess",
      "type": "event"
    }
  ],
  "bytecode": "0x608060405234801561001057600080fd5b50610d4a806100206000396000f3fe608060405234801561001057600080fd5b506004361061018e5760003560e01c80636f93bfb7116100de578063bcc81c0c11610097578063e0429d0911610071578063e0429d091461080b578063e3b34c8814610831578063eeff918814610946578063f17a3bec146109635761018e565b8063bcc81c0c146107a2578063d46655f4146107bf578063d5950ad1146107e55761018e565b80636f93bfb7146106215780637287078614610644578063787112a614610709578063a0b2d57f1461072f578063aaf86c3014610753578063bb73c5621461075b5761018e565b80631d35ab491161014b57806339bb96071161012557806339bb9607146104b65780634c15676b146104be57806353fb6c5c146105cc5780636edde0bd146105f85761018e565b80631d35ab49146104165780632d7aa82b1461043357806330326c171461046e5761018e565b80630386a01614610193578063060225f6146101b25780630852a6e3146101f05780630ea9c9841461023057806316fdc34e14610238578063174e31c4146103ea575b600080fd5b6101b0600480360360208110156101a957600080fd5b503561096b565b005b6101de600480360360408110156101c857600080fd5b506001600160a01b03813516906020013561096e565b60408051918252519081900360200190f35b61021c6004803603604081101561020657600080fd5b50803590602001356001600160a01b031661098b565b604080519115158252519081900360200190f35b6101b06109ab565b6101b0600480360360c081101561024e57600080fd5b810190602081018135600160201b81111561026857600080fd5b82018360208201111561027a57600080fd5b803590602001918460018302840111600160201b8311171561029b57600080fd5b919390929091602081019035600160201b8111156102b857600080fd5b8201836020820111156102ca57600080fd5b803590602001918460018302840111600160201b831117156102eb57600080fd5b919390929091602081019035600160201b81111561030857600080fd5b82018360208201111561031a57600080fd5b803590602001918460018302840111600160201b8311171561033b57600080fd5b91939092823592604081019060200135600160201b81111561035c57600080fd5b82018360208201111561036e57600080fd5b803590602001918460018302840111600160201b8311171561038f57600080fd5b919390929091602081019035600160201b8111156103ac57600080fd5b8201836020820111156103be57600080fd5b803590602001918460018302840111600160201b831117156103df57600080fd5b5090925090506109ad565b6101de6004803603604081101561040057600080fd5b506001600160a01b0381351690602001356109ba565b6101de6004803603602081101561042c57600080fd5b50356109c2565b6101b0600480360360c081101561044957600080fd5b5080359060208101359060408101359060608101359060808101359060a001356109d4565b61048b6004803603602081101561048457600080fd5b5035610b8e565b6040805195865260208601949094528484019290925260608401526080830152519081900360a00190f35b6101de610b9c565b6101b0600480360360808110156104d457600080fd5b810190602081018135600160201b8111156104ee57600080fd5b82018360208201111561050057600080fd5b803590602001918460018302840111600160201b8311171561052157600080fd5b919390929091602081019035600160201b81111561053e57600080fd5b82018360208201111561055057600080fd5b803590602001918460018302840111600160201b8311171561057157600080fd5b919390929091602081019035600160201b81111561058e57600080fd5b8201836020820111156105a057600080fd5b803590602001918460018302840111600160201b831117156105c157600080fd5b919350915035610ba2565b61021c600480360360408110156105e257600080fd5b50803590602001356001600160a01b0316610bab565b6101b06004803603606081101561060e57600080fd5b5080359060208101359060400135610bcb565b6101b06004803603604081101561063757600080fd5b5080359060200135610bd0565b6101b06004803603606081101561065a57600080fd5b81359190810190604081016020820135600160201b81111561067b57600080fd5b82018360208201111561068d57600080fd5b803590602001918460018302840111600160201b831117156106ae57600080fd5b919390929091602081019035600160201b8111156106cb57600080fd5b8201836020820111156106dd57600080fd5b803590602001918460018302840111600160201b831117156106fe57600080fd5b509092509050610bd4565b6101de6004803603602081101561071f57600080fd5b50356001600160a01b0316610bdb565b610737610bed565b604080516001600160a01b039092168252519081900360200190f35b6101de610bfc565b6107786004803603602081101561077157600080fd5b5035610c01565b604080516001600160a01b0394851681529290931660208301528183015290519081900360600190f35b6101de600480360360208110156107b857600080fd5b5035610c3e565b6101b0600480360360208110156107d557600080fd5b50356001600160a01b0316610c44565b61021c600480360360208110156107fb57600080fd5b50356001600160a01b0316610cd3565b6101de6004803603602081101561082157600080fd5b50356001600160a01b0316610ce8565b6101b06004803603608081101561084757600080fd5b81359190810190604081016020820135600160201b81111561086857600080fd5b82018360208201111561087a57600080fd5b803590602001918460018302840111600160201b8311171561089b57600080fd5b919390929091602081019035600160201b8111156108b857600080fd5b8201836020820111156108ca57600080fd5b803590602001918460018302840111600160201b831117156108eb57600080fd5b919390929091602081019035600160201b81111561090857600080fd5b82018360208201111561091a57600080fd5b803590602001918460018302840111600160201b8311171561093b57600080fd5b509092509050610ba2565b6101de6004803603602081101561095c57600080fd5b5035610cfa565b610737610d0f565b50565b600860209081526000928352604080842090915290825290205481565b601c60209081526000928352604080842090915290825290205460ff1681565b565b5050505050505050505050565b600092915050565b601a6020526000908152604090205481565b600f5460ff16156109e457600080fd5b600f805460ff19166001908117909155601581905560408051606080820183526000808352602080840182815284860183815260028054808a018255908552955160039687027f405787fa12a823e0f2b7631cc41b3ba8828b3321ca811111fa75cd3aa3bb5ace810180546001600160a01b039384166001600160a01b03199182161790915593517f405787fa12a823e0f2b7631cc41b3ba8828b3321ca811111fa75cd3aa3bb5acf82015591517f405787fa12a823e0f2b7631cc41b3ba8828b3321ca811111fa75cd3aa3bb5ad090920191909155865194850187528385529184018381524296850196875285548089018755938690529351929094027fc2575a0e9e593c00f959f8c92f12db2869c3395a3b0502d05e2516446f71f85b810180549383169386169390931790925591517fc2575a0e9e593c00f959f8c92f12db2869c3395a3b0502d05e2516446f71f85c8201805491909316931692909217905590517fc2575a0e9e593c00f959f8c92f12db2869c3395a3b0502d05e2516446f71f85d90910155601155601095909555601693909355601291909155601455601355601f55565b506000908190819081908190565b60105481565b50505050505050565b600760209081526000928352604080842090915290825290205460ff1681565b505050565b5050565b5050505050565b60096020526000908152604090205481565b6000546001600160a01b031681565b600090565b60038181548110610c0e57fe5b60009182526020909120600390910201805460018201546002909201546001600160a01b03918216935091169083565b50600090565b6000546001600160a01b031615610ca7576000546001600160a01b03163314610ca75760408051600160e51b62461bcd02815260206004820152600a6024820152600160b11b692737ba1036b0b9ba32b902604482015290519081900360640190fd5b600080546001600160a01b039092166001600160a01b0319928316811790915560018054909216179055565b600d6020526000908152604090205460ff1681565b600e6020526000908152604090205481565b600c6020526000908152604090206002015481565b6001546001600160a01b03168156fea165627a7a723058201acde60b28964fda1c0070634ac52946c351c52688928c9238d75dc63139beea0029",
  "compiler": {
    "name": "solc",
    "version": "0.5.7+commit.6da8b019.Emscripten.clang",
    "optimizer": {
      "enabled": true,
      "runs": 200
    },
    "evmVersion": "petersburg"
  }
}