{
  "fileName": "DisposableMemberRoles.sol",
  "contractName": "DisposableMemberRoles",
  "source": "pragma solidity ^0.5.0;\n\nimport \"../modules/governance/MemberRoles.sol\";\nimport \"../modules/token/TokenController.sol\";\n\ncontract DisposableMemberRoles is MemberRoles {\n\n  function initialize(\n    address _owner,\n    address _masterAddress,\n    address _tokenControllerAddress,\n    address[] calldata _initialMembers,\n    uint[] calldata _initialMemberTokens,\n    address[] calldata _initialABMembers\n  ) external {\n\n    require(!constructorCheck);\n    constructorCheck = true;\n    launched = true;\n    launchedOn = now;\n\n    require(\n      _initialMembers.length == _initialMemberTokens.length,\n      \"initial members and member tokens arrays should have the same length\"\n    );\n\n    dAppToken = TokenController(_tokenControllerAddress);\n    changeMasterAddress(_masterAddress);\n\n    _addInitialMemberRoles(_owner, _owner);\n\n    for (uint i = 0; i < _initialMembers.length; i++) {\n      _updateRole(_initialMembers[i], uint(Role.Member), true);\n      dAppToken.addToWhitelist(_initialMembers[i]);\n      dAppToken.mint(_initialMembers[i], _initialMemberTokens[i]);\n    }\n\n    require(_initialABMembers.length <= maxABCount);\n\n    for (uint i = 0; i < _initialABMembers.length; i++) {\n      _updateRole(_initialABMembers[i], uint(Role.AdvisoryBoard), true);\n    }\n  }\n\n}\n",
  "sourcePath": "contracts/mocks/DisposableMemberRoles.sol",
  "abi": [
    {
      "constant": true,
      "inputs": [
        {
          "name": "_memberRoleId",
          "type": "uint256"
        }
      ],
      "name": "authorized",
      "outputs": [
        {
          "name": "",
          "type": "address"
        }
      ],
      "payable": false,
      "stateMutability": "view",
      "type": "function"
    },
    {
      "constant": true,
      "inputs": [
        {
          "name": "_memberRoleId",
          "type": "uint256"
        }
      ],
      "name": "numberOfMembers",
      "outputs": [
        {
          "name": "",
          "type": "uint256"
        }
      ],
      "payable": false,
      "stateMutability": "view",
      "type": "function"
    },
    {
      "constant": false,
      "inputs": [],
      "name": "changeDependentContractAddress",
      "outputs": [],
      "payable": false,
      "stateMutability": "nonpayable",
      "type": "function"
    },
    {
      "constant": false,
      "inputs": [
        {
          "name": "_userAddress",
          "type": "address"
        }
      ],
      "name": "payJoiningFee",
      "outputs": [],
      "payable": true,
      "stateMutability": "payable",
      "type": "function"
    },
    {
      "constant": false,
      "inputs": [
        {
          "name": "_firstAB",
          "type": "address"
        },
        {
          "name": "memberAuthority",
          "type": "address"
        }
      ],
      "name": "memberRolesInitiate",
      "outputs": [],
      "payable": false,
      "stateMutability": "nonpayable",
      "type": "function"
    },
    {
      "constant": true,
      "inputs": [],
      "name": "tk",
      "outputs": [
        {
          "name": "",
          "type": "address"
        }
      ],
      "payable": false,
      "stateMutability": "view",
      "type": "function"
    },
    {
      "constant": true,
      "inputs": [
        {
          "name": "_toCheck",
          "type": "address"
        }
      ],
      "name": "isAuthorizedToGovern",
      "outputs": [
        {
          "name": "",
          "type": "bool"
        }
      ],
      "payable": false,
      "stateMutability": "view",
      "type": "function"
    },
    {
      "constant": false,
      "inputs": [
        {
          "name": "_roleName",
          "type": "bytes32"
        },
        {
          "name": "_roleDescription",
          "type": "string"
        },
        {
          "name": "_authorized",
          "type": "address"
        }
      ],
      "name": "addRole",
      "outputs": [],
      "payable": false,
      "stateMutability": "nonpayable",
      "type": "function"
    },
    {
      "constant": false,
      "inputs": [
        {
          "name": "_memberAddress",
          "type": "address"
        },
        {
          "name": "_roleId",
          "type": "uint256"
        },
        {
          "name": "_active",
          "type": "bool"
        }
      ],
      "name": "updateRole",
      "outputs": [],
      "payable": false,
      "stateMutability": "nonpayable",
      "type": "function"
    },
    {
      "constant": true,
      "inputs": [],
      "name": "maxABCount",
      "outputs": [
        {
          "name": "",
          "type": "uint256"
        }
      ],
      "payable": false,
      "stateMutability": "view",
      "type": "function"
    },
    {
      "constant": false,
      "inputs": [
        {
          "name": "_add",
          "type": "address"
        }
      ],
      "name": "switchMembership",
      "outputs": [],
      "payable": false,
      "stateMutability": "nonpayable",
      "type": "function"
    },
    {
      "constant": true,
      "inputs": [
        {
          "name": "_memberAddress",
          "type": "address"
        },
        {
          "name": "_roleId",
          "type": "uint256"
        }
      ],
      "name": "checkRole",
      "outputs": [
        {
          "name": "",
          "type": "bool"
        }
      ],
      "payable": false,
      "stateMutability": "view",
      "type": "function"
    },
    {
      "constant": true,
      "inputs": [
        {
          "name": "_memberRoleId",
          "type": "uint256"
        }
      ],
      "name": "members",
      "outputs": [
        {
          "name": "",
          "type": "uint256"
        },
        {
          "name": "memberArray",
          "type": "address[]"
        }
      ],
      "payable": false,
      "stateMutability": "view",
      "type": "function"
    },
    {
      "constant": false,
      "inputs": [
        {
          "name": "abArray",
          "type": "address[]"
        }
      ],
      "name": "addInitialABMembers",
      "outputs": [],
      "payable": false,
      "stateMutability": "nonpayable",
      "type": "function"
    },
    {
      "constant": true,
      "inputs": [],
      "name": "getMemberLengthForAllRoles",
      "outputs": [
        {
          "name": "totalMembers",
          "type": "uint256[]"
        }
      ],
      "payable": false,
      "stateMutability": "view",
      "type": "function"
    },
    {
      "constant": false,
      "inputs": [
        {
          "name": "userArray",
          "type": "address[]"
        },
        {
          "name": "tokens",
          "type": "uint256[]"
        }
      ],
      "name": "addMembersBeforeLaunch",
      "outputs": [],
      "payable": false,
      "stateMutability": "nonpayable",
      "type": "function"
    },
    {
      "constant": false,
      "inputs": [
        {
          "name": "_owner",
          "type": "address"
        },
        {
          "name": "_masterAddress",
          "type": "address"
        },
        {
          "name": "_tokenControllerAddress",
          "type": "address"
        },
        {
          "name": "_initialMembers",
          "type": "address[]"
        },
        {
          "name": "_initialMemberTokens",
          "type": "uint256[]"
        },
        {
          "name": "_initialABMembers",
          "type": "address[]"
        }
      ],
      "name": "initialize",
      "outputs": [],
      "payable": false,
      "stateMutability": "nonpayable",
      "type": "function"
    },
    {
      "constant": true,
      "inputs": [],
      "name": "totalRoles",
      "outputs": [
        {
          "name": "",
          "type": "uint256"
        }
      ],
      "payable": false,
      "stateMutability": "view",
      "type": "function"
    },
    {
      "constant": true,
      "inputs": [],
      "name": "launched",
      "outputs": [
        {
          "name": "",
          "type": "bool"
        }
      ],
      "payable": false,
      "stateMutability": "view",
      "type": "function"
    },
    {
      "constant": true,
      "inputs": [
        {
          "name": "_memberRoleId",
          "type": "uint256"
        }
      ],
      "name": "membersLength",
      "outputs": [
        {
          "name": "",
          "type": "uint256"
        }
      ],
      "payable": false,
      "stateMutability": "view",
      "type": "function"
    },
    {
      "constant": false,
      "inputs": [
        {
          "name": "_val",
          "type": "uint256"
        }
      ],
      "name": "changeMaxABCount",
      "outputs": [],
      "payable": false,
      "stateMutability": "nonpayable",
      "type": "function"
    },
    {
      "constant": false,
      "inputs": [
        {
          "name": "_newOwnerAddress",
          "type": "address"
        }
      ],
      "name": "swapOwner",
      "outputs": [],
      "payable": false,
      "stateMutability": "nonpayable",
      "type": "function"
    },
    {
      "constant": true,
      "inputs": [
        {
          "name": "_memberAddress",
          "type": "address"
        }
      ],
      "name": "roles",
      "outputs": [
        {
          "name": "",
          "type": "uint256[]"
        }
      ],
      "payable": false,
      "stateMutability": "view",
      "type": "function"
    },
    {
      "constant": true,
      "inputs": [],
      "name": "ms",
      "outputs": [
        {
          "name": "",
          "type": "address"
        }
      ],
      "payable": false,
      "stateMutability": "view",
      "type": "function"
    },
    {
      "constant": false,
      "inputs": [
        {
          "name": "_roleId",
          "type": "uint256"
        },
        {
          "name": "_newAuthorized",
          "type": "address"
        }
      ],
      "name": "changeAuthorized",
      "outputs": [],
      "payable": false,
      "stateMutability": "nonpayable",
      "type": "function"
    },
    {
      "constant": false,
      "inputs": [],
      "name": "withdrawMembership",
      "outputs": [],
      "payable": false,
      "stateMutability": "nonpayable",
      "type": "function"
    },
    {
      "constant": true,
      "inputs": [
        {
          "name": "_memberRoleId",
          "type": "uint256"
        },
        {
          "name": "index",
          "type": "uint256"
        }
      ],
      "name": "memberAtIndex",
      "outputs": [
        {
          "name": "",
          "type": "address"
        },
        {
          "name": "",
          "type": "bool"
        }
      ],
      "payable": false,
      "stateMutability": "view",
      "type": "function"
    },
    {
      "constant": false,
      "inputs": [
        {
          "name": "_newABAddress",
          "type": "address"
        },
        {
          "name": "_removeAB",
          "type": "address"
        }
      ],
      "name": "swapABMember",
      "outputs": [],
      "payable": false,
      "stateMutability": "nonpayable",
      "type": "function"
    },
    {
      "constant": true,
      "inputs": [],
      "name": "masterAddress",
      "outputs": [
        {
          "name": "",
          "type": "address"
        }
      ],
      "payable": false,
      "stateMutability": "view",
      "type": "function"
    },
    {
      "constant": false,
      "inputs": [
        {
          "name": "_masterAddress",
          "type": "address"
        }
      ],
      "name": "changeMasterAddress",
      "outputs": [],
      "payable": false,
      "stateMutability": "nonpayable",
      "type": "function"
    },
    {
      "constant": false,
      "inputs": [
        {
          "name": "_userAddress",
          "type": "address"
        },
        {
          "name": "verdict",
          "type": "bool"
        }
      ],
      "name": "kycVerdict",
      "outputs": [],
      "payable": false,
      "stateMutability": "nonpayable",
      "type": "function"
    },
    {
      "constant": true,
      "inputs": [],
      "name": "launchedOn",
      "outputs": [
        {
          "name": "",
          "type": "uint256"
        }
      ],
      "payable": false,
      "stateMutability": "view",
      "type": "function"
    },
    {
      "constant": true,
      "inputs": [],
      "name": "dAppToken",
      "outputs": [
        {
          "name": "",
          "type": "address"
        }
      ],
      "payable": false,
      "stateMutability": "view",
      "type": "function"
    },
    {
      "constant": true,
      "inputs": [],
      "name": "nxMasterAddress",
      "outputs": [
        {
          "name": "",
          "type": "address"
        }
      ],
      "payable": false,
      "stateMutability": "view",
      "type": "function"
    },
    {
      "anonymous": false,
      "inputs": [
        {
          "indexed": true,
          "name": "roleId",
          "type": "uint256"
        },
        {
          "indexed": false,
          "name": "roleName",
          "type": "bytes32"
        },
        {
          "indexed": false,
          "name": "roleDescription",
          "type": "string"
        }
      ],
      "name": "MemberRole",
      "type": "event"
    },
    {
      "anonymous": false,
      "inputs": [
        {
          "indexed": true,
          "name": "previousMember",
          "type": "address"
        },
        {
          "indexed": true,
          "name": "newMember",
          "type": "address"
        },
        {
          "indexed": false,
          "name": "timeStamp",
          "type": "uint256"
        }
      ],
      "name": "switchedMembership",
      "type": "event"
    }
  ],
  "bytecode": "0x608060405234801561001057600080fd5b50613eee806100206000396000f3fe6080604052600436106101f95760003560e01c8063790e118c1161010d578063ae393df9116100a0578063d46655f41161006f578063d46655f414610a94578063d8b2114e14610ac7578063df05eef514610b02578063eaf2c47714610b17578063f17a3bec14610b2c576101f9565b8063ae393df9146109dc578063b53e4679146109f1578063c578f23014610a44578063d365a08e14610a7f576101f9565b806390a79368116100dc57806390a7936814610928578063993746421461095b578063a0b2d57f1461098e578063aa561f9d146109a3576101f9565b8063790e118c146108aa5780638091f3bf146108bf5780638bed69eb146108d45780638f8c0094146108fe576101f9565b80632f473021116101905780635daf08ca1161015f5780635daf08ca146104d9578063648edd9c1461055e5780636d1c31d2146105d95780636eb4b91f1461063e5780637623bac51461076e576101f9565b80632f4730211461041757806337f15a58146104585780634ed75d471461046d578063505ef22f146104a0576101f9565b80631b5c6ded116101cc5780631b5c6ded146102bd57806321f408be146102f857806322ce72541461030d5780632dc4bdca14610354576101f9565b80630d48669a146101fe5780630dc6f847146102445780630ea9c984146102805780630ead3e7214610297575b600080fd5b34801561020a57600080fd5b506102286004803603602081101561022157600080fd5b5035610b41565b604080516001600160a01b039092168252519081900360200190f35b34801561025057600080fd5b5061026e6004803603602081101561026757600080fd5b5035610b73565b60408051918252519081900360200190f35b34801561028c57600080fd5b50610295610b9b565b005b610295600480360360208110156102ad57600080fd5b50356001600160a01b0316610fae565b3480156102c957600080fd5b50610295600480360360408110156102e057600080fd5b506001600160a01b0381358116916020013516611518565b34801561030457600080fd5b50610228611543565b34801561031957600080fd5b506103406004803603602081101561033057600080fd5b50356001600160a01b0316611552565b604080519115158252519081900360200190f35b34801561036057600080fd5b506102956004803603606081101561037757600080fd5b81359190810190604081016020820135600160201b81111561039857600080fd5b8201836020820111156103aa57600080fd5b803590602001918460018302840111600160201b831117156103cb57600080fd5b91908080601f016020809104026020016040519081016040528093929190818152602001838380828437600092019190915250929550505090356001600160a01b031691506115ea9050565b34801561042357600080fd5b506102956004803603606081101561043a57600080fd5b506001600160a01b03813516906020810135906040013515156116de565b34801561046457600080fd5b5061026e6117af565b34801561047957600080fd5b506102956004803603602081101561049057600080fd5b50356001600160a01b03166117b5565b3480156104ac57600080fd5b50610340600480360360408110156104c357600080fd5b506001600160a01b038135169060200135611e34565b3480156104e557600080fd5b50610503600480360360208110156104fc57600080fd5b5035611e93565b6040518083815260200180602001828103825283818151815260200191508051906020019060200280838360005b83811015610549578181015183820152602001610531565b50505050905001935050505060405180910390f35b34801561056a57600080fd5b506102956004803603602081101561058157600080fd5b810190602081018135600160201b81111561059b57600080fd5b8201836020820111156105ad57600080fd5b803590602001918460208302840111600160201b831117156105ce57600080fd5b509092509050611ff1565b3480156105e557600080fd5b506105ee612196565b60408051602080825283518183015283519192839290830191858101910280838360005b8381101561062a578181015183820152602001610612565b505050509050019250505060405180910390f35b34801561064a57600080fd5b506102956004803603604081101561066157600080fd5b810190602081018135600160201b81111561067b57600080fd5b82018360208201111561068d57600080fd5b803590602001918460208302840111600160201b831117156106ae57600080fd5b9190808060200260200160405190810160405280939291908181526020018383602002808284376000920191909152509295949360208101935035915050600160201b8111156106fd57600080fd5b82018360208201111561070f57600080fd5b803590602001918460208302840111600160201b8311171561073057600080fd5b919080806020026020016040519081016040528093929190818152602001838360200280828437600092019190915250929550612200945050505050565b34801561077a57600080fd5b50610295600480360360c081101561079157600080fd5b6001600160a01b0382358116926020810135821692604082013590921691810190608081016060820135600160201b8111156107cc57600080fd5b8201836020820111156107de57600080fd5b803590602001918460208302840111600160201b831117156107ff57600080fd5b919390929091602081019035600160201b81111561081c57600080fd5b82018360208201111561082e57600080fd5b803590602001918460208302840111600160201b8311171561084f57600080fd5b919390929091602081019035600160201b81111561086c57600080fd5b82018360208201111561087e57600080fd5b803590602001918460208302840111600160201b8311171561089f57600080fd5b5090925090506124bd565b3480156108b657600080fd5b5061026e612714565b3480156108cb57600080fd5b5061034061271b565b3480156108e057600080fd5b5061026e600480360360208110156108f757600080fd5b5035612724565b34801561090a57600080fd5b506102956004803603602081101561092157600080fd5b503561274d565b34801561093457600080fd5b506102956004803603602081101561094b57600080fd5b50356001600160a01b03166127d5565b34801561096757600080fd5b506105ee6004803603602081101561097e57600080fd5b50356001600160a01b0316612873565b34801561099a57600080fd5b50610228612924565b3480156109af57600080fd5b50610295600480360360408110156109c657600080fd5b50803590602001356001600160a01b0316612933565b3480156109e857600080fd5b50610295612a41565b3480156109fd57600080fd5b50610a2160048036036040811015610a1457600080fd5b5080359060200135612f77565b604080516001600160a01b03909316835290151560208301528051918290030190f35b348015610a5057600080fd5b5061029560048036036040811015610a6757600080fd5b506001600160a01b0381358116916020013516613008565b348015610a8b57600080fd5b506102286130e5565b348015610aa057600080fd5b5061029560048036036020811015610ab757600080fd5b50356001600160a01b03166130f4565b348015610ad357600080fd5b5061029560048036036040811015610aea57600080fd5b506001600160a01b0381351690602001351515613152565b348015610b0e57600080fd5b5061026e6136bb565b348015610b2357600080fd5b506102286136c1565b348015610b3857600080fd5b506102286136d0565b6000600a8281548110610b5057fe5b60009182526020909120600490910201600301546001600160a01b031692915050565b6000600a8281548110610b8257fe5b9060005260206000209060040201600001549050919050565b60015460408051600160e31b6227050b028152600160f21b61151102600482015290516001600160a01b0390921691630138285891602480820192602092909190829003018186803b158015610bf057600080fd5b505afa158015610c04573d6000803e3d6000fd5b505050506040513d6020811015610c1a57600080fd5b5051600480546001600160a01b0319166001600160a01b0392831617815560015460408051600160e31b6227050b028152600160f11b6121a9029381019390935251921691630138285891602480820192602092909190829003018186803b158015610c8557600080fd5b505afa158015610c99573d6000803e3d6000fd5b505050506040513d6020811015610caf57600080fd5b5051600680546001600160a01b0319166001600160a01b0392831617905560015460408051600160e31b6227050b028152600160f21b611451026004820152905191909216916301382858916024808301926020929190829003018186803b158015610d1a57600080fd5b505afa158015610d2e573d6000803e3d6000fd5b505050506040513d6020811015610d4457600080fd5b5051600580546001600160a01b0319166001600160a01b0392831617905560015460408051600160e31b6227050b028152600160f11b6123ab026004820152905191909216916301382858916024808301926020929190829003018186803b158015610daf57600080fd5b505afa158015610dc3573d6000803e3d6000fd5b505050506040513d6020811015610dd957600080fd5b5051600780546001600160a01b0319166001600160a01b0392831617905560015460408051600160e31b6227050b028152600160f11b612a23026004820152905191909216916301382858916024808301926020929190829003018186803b158015610e4457600080fd5b505afa158015610e58573d6000803e3d6000fd5b505050506040513d6020811015610e6e57600080fd5b5051600880546001600160a01b0319166001600160a01b0392831617905560015460408051600160e31b6313aedd4b02815290519190921691639d76ea58916004808301926020929190829003018186803b158015610ecc57600080fd5b505afa158015610ee0573d6000803e3d6000fd5b505050506040513d6020811015610ef657600080fd5b5051600980546001600160a01b0319166001600160a01b0392831617905560015460408051600160e31b6227050b028152600160f01b615443026004820152905191909216916301382858916024808301926020929190829003018186803b158015610f6157600080fd5b505afa158015610f75573d6000803e3d6000fd5b505050506040513d6020811015610f8b57600080fd5b5051600380546001600160a01b0319166001600160a01b03909216919091179055565b6001600160a01b038116610fc157600080fd5b600160009054906101000a90046001600160a01b03166001600160a01b031663ff0938a76040518163ffffffff1660e01b815260040160206040518083038186803b15801561100f57600080fd5b505afa158015611023573d6000803e3d6000fd5b505050506040513d602081101561103957600080fd5b5051156110905760408051600160e51b62461bcd02815260206004820152601760248201527f456d657267656e6379205061757365204170706c696564000000000000000000604482015290519081900360640190fd5b60015460408051600160e31b6227050b028152600160f21b61145502600482015290516001600160a01b0390921691630138285891602480820192602092909190829003018186803b1580156110e557600080fd5b505afa1580156110f9573d6000803e3d6000fd5b505050506040513d602081101561110f57600080fd5b50516001600160a01b031633141561131c576004805460408051600160e11b63356ad9f502815290516000936001600160a01b0390931692636ad5b3ea92808201926020929091829003018186803b15801561116a57600080fd5b505afa15801561117e573d6000803e3d6000fd5b505050506040513d602081101561119457600080fd5b50516001600160a01b031614156111f55760408051600160e51b62461bcd02815260206004820152601860248201527f4e6f2077616c6c6574416464726573732070726573656e740000000000000000604482015290519081900360640190fd5b60035460408051600160e01b63e43252d70281526001600160a01b0384811660048301529151919092169163e43252d791602480830192600092919082900301818387803b15801561124657600080fd5b505af115801561125a573d6000803e3d6000fd5b5061126f9250839150600290505b60016136df565b6004805460408051600160e11b63356ad9f502815290516001600160a01b0390921692636ad5b3ea928282019260209290829003018186803b1580156112b457600080fd5b505afa1580156112c8573d6000803e3d6000fd5b505050506040513d60208110156112de57600080fd5b50516040516001600160a01b03909116903480156108fc02916000818181858888f19350505050158015611316573d6000803e3d6000fd5b50611515565b60055460408051600160e11b636f3adaf50281526001600160a01b0384811660048301529151919092169163de75b5ea916024808301926020929190829003018186803b15801561136c57600080fd5b505afa158015611380573d6000803e3d6000fd5b505050506040513d602081101561139657600080fd5b5051156113a257600080fd5b60015460408051600160e21b63288c31490281526001600160a01b0384811660048301529151919092169163a230c524916024808301926020929190829003018186803b1580156113f257600080fd5b505afa158015611406573d6000803e3d6000fd5b505050506040513d602081101561141c57600080fd5b50511561142857600080fd5b6004805460408051600160e01b636eeeaaa502815290516001600160a01b0390921692636eeeaaa5928282019260209290829003018186803b15801561146d57600080fd5b505afa158015611481573d6000803e3d6000fd5b505050506040513d602081101561149757600080fd5b505134146114a457600080fd5b60055460408051600160e21b633d8ea1f50281526001600160a01b038481166004830152600160248301529151919092169163f63a87d491604480830192600092919082900301818387803b1580156114fc57600080fd5b505af1158015611510573d6000803e3d6000fd5b505050505b50565b600b5460ff161561152857600080fd5b61153282826138d5565b5050600b805460ff19166001179055565b6009546001600160a01b031681565b6000805460408051600160e31b6227050b028152600160f11b6123ab02600482015290516001600160a01b03928316928516918391630138285891602480820192602092909190829003018186803b1580156115ad57600080fd5b505afa1580156115c1573d6000803e3d6000fd5b505050506040513d60208110156115d757600080fd5b50516001600160a01b0316149392505050565b60005460408051600160e31b6227050b028152600160f11b6123ab02600482015290516001600160a01b039092169133918391630138285891602480820192602092909190829003018186803b15801561164357600080fd5b505afa158015611657573d6000803e3d6000fd5b505050506040513d602081101561166d57600080fd5b50516001600160a01b0316146116cd5760408051600160e51b62461bcd02815260206004820152600e60248201527f4e6f7420617574686f72697a6564000000000000000000000000000000000000604482015290519081900360640190fd5b6116d88484846139fc565b50505050565b8160006001600160a01b0316600a82815481106116f757fe5b60009182526020909120600360049092020101546001600160a01b03161461175357600a818154811061172657fe5b60009182526020909120600490910201600301546001600160a01b0316331461174e57600080fd5b6117a4565b61175c33611552565b6117a45760408051600160e51b62461bcd02815260206004820152600e6024820152600160921b6d139bdd08105d5d1a1bdc9a5e995902604482015290519081900360640190fd5b6116d88484846136df565b600c5481565b600160009054906101000a90046001600160a01b03166001600160a01b031663ff0938a76040518163ffffffff1660e01b815260040160206040518083038186803b15801561180357600080fd5b505afa158015611817573d6000803e3d6000fd5b505050506040513d602081101561182d57600080fd5b50511580156118b2575060015460408051600160e21b63288c314902815233600482015290516001600160a01b039092169163a230c52491602480820192602092909190829003018186803b15801561188557600080fd5b505afa158015611899573d6000803e3d6000fd5b505050506040513d60208110156118af57600080fd5b50515b8015611937575060015460408051600160e21b63288c31490281526001600160a01b0384811660048301529151919092169163a230c524916024808301926020929190829003018186803b15801561190957600080fd5b505afa15801561191d573d6000803e3d6000fd5b505050506040513d602081101561193357600080fd5b5051155b61194057600080fd5b60035460408051600160e11b631c840dc902815233600482015242602482015290516001600160a01b03909216916339081b9291604480820192602092909190829003018186803b15801561199457600080fd5b505afa1580156119a8573d6000803e3d6000fd5b505050506040513d60208110156119be57600080fd5b5051156119ca57600080fd5b60085460408051600160e11b63562d6d7b02815233600482015290516001600160a01b039092169163ac5adaf691602480820192602092909190829003018186803b158015611a1857600080fd5b505afa158015611a2c573d6000803e3d6000fd5b505050506040513d6020811015611a4257600080fd5b505115611a4e57600080fd5b60065460408051600160e11b631ad7d8a702815233600482015290516001600160a01b03909216916335afb14e91602480820192602092909190829003018186803b158015611a9c57600080fd5b505afa158015611ab0573d6000803e3d6000fd5b505050506040513d6020811015611ac657600080fd5b505115611ad257600080fd5b60035460408051600160e31b630a529a1d028152336004820152600160e81b62434c4102602482015290516001600160a01b0390921691635294d0e891604480820192602092909190829003018186803b158015611b2f57600080fd5b505afa158015611b43573d6000803e3d6000fd5b505050506040513d6020811015611b5957600080fd5b505115611b9a57604051600160e51b62461bcd02815260040180806020018281038252602b815260200180613e54602b913960400191505060405180910390fd5b60075460408051600160e01b63f0466c7302815233600482015290516001600160a01b039092169163f0466c739160248082019260009290919082900301818387803b158015611be957600080fd5b505af1158015611bfd573d6000803e3d6000fd5b505060035460408051600160e01b63e43252d70281526001600160a01b038681166004830152915191909216935063e43252d79250602480830192600092919082900301818387803b158015611c5257600080fd5b505af1158015611c66573d6000803e3d6000fd5b50611c78925083915060029050611268565b60095460408051600160e01b6370a08231028152336004820181905291516001600160a01b03909316926323b872dd9291859185916370a08231916024808301926020929190829003018186803b158015611cd257600080fd5b505afa158015611ce6573d6000803e3d6000fd5b505050506040513d6020811015611cfc57600080fd5b50516040805163ffffffff861660e01b81526001600160a01b0394851660048201529290931660248301526044820152905160648083019260209291908290030181600087803b158015611d4f57600080fd5b505af1158015611d63573d6000803e3d6000fd5b505050506040513d6020811015611d7957600080fd5b50611d8a90503360025b60006136df565b60035460408051600160e01b638ab1d68102815233600482015290516001600160a01b0390921691638ab1d6819160248082019260009290919082900301818387803b158015611dd957600080fd5b505af1158015611ded573d6000803e3d6000fd5b50506040805142815290516001600160a01b03851693503392507f192a4c3625bef7938e23abe9b048e44af0928d8ea055694936e5269479ae2ca19181900360200190a350565b600081611e4357506001611e8d565b600a8281548110611e5057fe5b600091825260208083206001600160a01b03871684526001600490930201919091019052604090205460ff1615611e8957506001611e8d565b5060005b92915050565b600060606000600a8481548110611ea657fe5b60009182526020822060026004909202010154600a8054919350829187908110611ecc57fe5b906000526020600020906004020160000154604051908082528060200260200182016040528015611f07578160200160208202803883390190505b509350600091505b82821015611fe6576000600a8781548110611f2657fe5b90600052602060002090600402016002018381548110611f4257fe5b600091825260209091200154600a80546001600160a01b0390921692509088908110611f6a57fe5b600091825260208083206001600160a01b03851684526001600490930201919091019052604090205460ff168015611fa95750611fa78186613b76565b155b15611fda5780858381518110611fbb57fe5b6001600160a01b03909216602092830291909101909101526001909101905b50600190910190611f0f565b508493505050915091565b60015460408051600160e11b6317aa5fb702815233600482015290516001600160a01b0390921691632f54bf6e91602480820192602092909190829003018186803b15801561203f57600080fd5b505afa158015612053573d6000803e3d6000fd5b505050506040513d602081101561206957600080fd5b505161207457600080fd5b600160009054906101000a90046001600160a01b03166001600160a01b031663c15041d56040518163ffffffff1660e01b815260040160206040518083038186803b1580156120c257600080fd5b505afa1580156120d6573d6000803e3d6000fd5b505050506040513d60208110156120ec57600080fd5b50516120f757600080fd5b61210a6121046001610b73565b82613bc8565b600c54101561211857600080fd5b60005b818110156121915761215483838381811061213257fe5b905060200201356001600160a01b03166002600381111561214f57fe5b611e34565b61215d57600080fd5b61218983838381811061216c57fe5b905060200201356001600160a01b03166001600381111561126857fe5b60010161211b565b505050565b600a5460408051828152602080840282010190915260609180156121c4578160200160208202803883390190505b50905060005b600a548110156121fc576121dd81610b73565b8282815181106121e957fe5b60209081029190910101526001016121ca565b5090565b60015460408051600160e11b6317aa5fb702815233600482015290516001600160a01b0390921691632f54bf6e91602480820192602092909190829003018186803b15801561224e57600080fd5b505afa158015612262573d6000803e3d6000fd5b505050506040513d602081101561227857600080fd5b505161228357600080fd5b600d5460ff161561229357600080fd5b60005b82518110156124a75760015483516001600160a01b039091169063a230c524908590849081106122c257fe5b60200260200101516040518263ffffffff1660e01b815260040180826001600160a01b03166001600160a01b0316815260200191505060206040518083038186803b15801561231057600080fd5b505afa158015612324573d6000803e3d6000fd5b505050506040513d602081101561233a57600080fd5b50511561234657600080fd5b60035483516001600160a01b039091169063e43252d79085908490811061236957fe5b60200260200101516040518263ffffffff1660e01b815260040180826001600160a01b03166001600160a01b03168152602001915050600060405180830381600087803b1580156123b957600080fd5b505af11580156123cd573d6000803e3d6000fd5b505050506123f58382815181106123e057fe5b60200260200101516002600381111561126857fe5b60035483516001600160a01b03909116906340c10f199085908490811061241857fe5b602002602001015184848151811061242c57fe5b60200260200101516040518363ffffffff1660e01b815260040180836001600160a01b03166001600160a01b0316815260200182815260200192505050600060405180830381600087803b15801561248357600080fd5b505af1158015612497573d6000803e3d6000fd5b5050600190920191506122969050565b5050600d805460ff191660011790555042600e55565b600b5460ff16156124cd57600080fd5b600b8054600160ff199182168117909255600d8054909116909117905542600e5582851461252f57604051600160e51b62461bcd028152600401808060200182810382526044815260200180613e7f6044913960600191505060405180910390fd5b600380546001600160a01b0319166001600160a01b038916179055612553886130f4565b61255d898a6138d5565b60005b858110156126d65761259487878381811061257757fe5b905060200201356001600160a01b03166002600381111561126857fe5b6003546001600160a01b031663e43252d78888848181106125b157fe5b905060200201356001600160a01b03166040518263ffffffff1660e01b815260040180826001600160a01b03166001600160a01b03168152602001915050600060405180830381600087803b15801561260957600080fd5b505af115801561261d573d6000803e3d6000fd5b50506003546001600160a01b031691506340c10f19905088888481811061264057fe5b905060200201356001600160a01b031687878581811061265c57fe5b905060200201356040518363ffffffff1660e01b815260040180836001600160a01b03166001600160a01b0316815260200182815260200192505050600060405180830381600087803b1580156126b257600080fd5b505af11580156126c6573d6000803e3d6000fd5b5050600190920191506125609050565b50600c548111156126e657600080fd5b60005b818110156127085761270083838381811061216c57fe5b6001016126e9565b50505050505050505050565b600a545b90565b600d5460ff1681565b6000600a828154811061273357fe5b600091825260209091206002600490920201015492915050565b60015460408051600160e21b6323c5b10702815233600482015290516001600160a01b0390921691638f16c41c91602480820192602092909190829003018186803b15801561279b57600080fd5b505afa1580156127af573d6000803e3d6000fd5b505050506040513d60208110156127c557600080fd5b50516127d057600080fd5b600c55565b6001546001600160a01b031633146127ec57600080fd5b60015460408051600160e01b638da5cb5b0281529051612868926001600160a01b031691638da5cb5b916004808301926020929190829003018186803b15801561283557600080fd5b505afa158015612849573d6000803e3d6000fd5b505050506040513d602081101561285f57600080fd5b50516003611d83565b611515816003611268565b600a546040805182815260208084028201019091526060919082908280156128a5578160200160208202803883390190505b509050600060015b8381101561291a57600a81815481106128c257fe5b600091825260208083206001600160a01b038a1684526001600490930201919091019052604090205460ff1615612912578083838151811061290057fe5b60209081029190910101526001909101905b6001016128ad565b5090949350505050565b6001546001600160a01b031681565b8160006001600160a01b0316600a828154811061294c57fe5b60009182526020909120600360049092020101546001600160a01b0316146129a857600a818154811061297b57fe5b60009182526020909120600490910201600301546001600160a01b031633146129a357600080fd5b6129f9565b6129b133611552565b6129f95760408051600160e51b62461bcd02815260206004820152600e6024820152600160921b6d139bdd08105d5d1a1bdc9a5e995902604482015290519081900360640190fd5b81600a8481548110612a0757fe5b906000526020600020906004020160030160006101000a8154816001600160a01b0302191690836001600160a01b03160217905550505050565b600160009054906101000a90046001600160a01b03166001600160a01b031663ff0938a76040518163ffffffff1660e01b815260040160206040518083038186803b158015612a8f57600080fd5b505afa158015612aa3573d6000803e3d6000fd5b505050506040513d6020811015612ab957600080fd5b5051158015612b3e575060015460408051600160e21b63288c314902815233600482015290516001600160a01b039092169163a230c52491602480820192602092909190829003018186803b158015612b1157600080fd5b505afa158015612b25573d6000803e3d6000fd5b505050506040513d6020811015612b3b57600080fd5b50515b612b4757600080fd5b60035460408051600160e11b631c840dc902815233600482015242602482015290516001600160a01b03909216916339081b9291604480820192602092909190829003018186803b158015612b9b57600080fd5b505afa158015612baf573d6000803e3d6000fd5b505050506040513d6020811015612bc557600080fd5b505115612bd157600080fd5b60085460408051600160e11b63562d6d7b02815233600482015290516001600160a01b039092169163ac5adaf691602480820192602092909190829003018186803b158015612c1f57600080fd5b505afa158015612c33573d6000803e3d6000fd5b505050506040513d6020811015612c4957600080fd5b505115612c5557600080fd5b60065460408051600160e11b631ad7d8a702815233600482015290516001600160a01b03909216916335afb14e91602480820192602092909190829003018186803b158015612ca357600080fd5b505afa158015612cb7573d6000803e3d6000fd5b505050506040513d6020811015612ccd57600080fd5b505115612cd957600080fd5b60035460408051600160e31b630a529a1d028152336004820152600160e81b62434c4102602482015290516001600160a01b0390921691635294d0e891604480820192602092909190829003018186803b158015612d3657600080fd5b505afa158015612d4a573d6000803e3d6000fd5b505050506040513d6020811015612d6057600080fd5b505115612da157604051600160e51b62461bcd02815260040180806020018281038252602b815260200180613e54602b913960400191505060405180910390fd5b60075460408051600160e01b63f0466c7302815233600482015290516001600160a01b039092169163f0466c739160248082019260009290919082900301818387803b158015612df057600080fd5b505af1158015612e04573d6000803e3d6000fd5b505060035460095460408051600160e01b6370a08231028152336004820181905291516001600160a01b0394851696506379cc679095509193909216916370a08231916024808301926020929190829003018186803b158015612e6657600080fd5b505afa158015612e7a573d6000803e3d6000fd5b505050506040513d6020811015612e9057600080fd5b50516040805163ffffffff851660e01b81526001600160a01b03909316600484015260248301919091525160448083019260209291908290030181600087803b158015612edc57600080fd5b505af1158015612ef0573d6000803e3d6000fd5b505050506040513d6020811015612f0657600080fd5b50612f149050336002611d83565b60035460408051600160e01b638ab1d68102815233600482015290516001600160a01b0390921691638ab1d6819160248082019260009290919082900301818387803b158015612f6357600080fd5b505af11580156116d8573d6000803e3d6000fd5b6000806000600a8581548110612f8957fe5b90600052602060002090600402016002018481548110612fa557fe5b600091825260209091200154600a80546001600160a01b039092169250829187908110612fce57fe5b600091825260208083206001600160a01b039095168352600160049092029094010190925260409091205490925060ff1690509250929050565b600160006001600160a01b0316600a828154811061302257fe5b60009182526020909120600360049092020101546001600160a01b03161461307e57600a818154811061305157fe5b60009182526020909120600490910201600301546001600160a01b0316331461307957600080fd5b6130cf565b61308733611552565b6130cf5760408051600160e51b62461bcd02815260206004820152600e6024820152600160921b6d139bdd08105d5d1a1bdc9a5e995902604482015290519081900360640190fd5b6130da836001611268565b612191826001611d83565b6000546001600160a01b031681565b6000546001600160a01b03161561311c576000546001600160a01b0316331461311c57600080fd5b600080546001600160a01b039092166001600160a01b031992831681179091556001805483168217905560028054909216179055565b600560009054906101000a90046001600160a01b03166001600160a01b03166384434b9f6040518163ffffffff1660e01b815260040160206040518083038186803b1580156131a057600080fd5b505afa1580156131b4573d6000803e3d6000fd5b505050506040513d60208110156131ca57600080fd5b50516001600160a01b031633146131e057600080fd5b600160009054906101000a90046001600160a01b03166001600160a01b031663ff0938a76040518163ffffffff1660e01b815260040160206040518083038186803b15801561322e57600080fd5b505afa158015613242573d6000803e3d6000fd5b505050506040513d602081101561325857600080fd5b50511561326457600080fd5b6001600160a01b03821661327757600080fd5b60015460408051600160e21b63288c31490281526001600160a01b0385811660048301529151919092169163a230c524916024808301926020929190829003018186803b1580156132c757600080fd5b505afa1580156132db573d6000803e3d6000fd5b505050506040513d60208110156132f157600080fd5b5051156132fd57600080fd5b60055460408051600160e11b636f3adaf50281526001600160a01b0385811660048301529151919092169163de75b5ea916024808301926020929190829003018186803b15801561334d57600080fd5b505afa158015613361573d6000803e3d6000fd5b505050506040513d602081101561337757600080fd5b505161338257600080fd5b801561359a5760055460408051600160e21b633d8ea1f50281526001600160a01b038581166004830152600060248301819052925193169263f63a87d49260448084019391929182900301818387803b1580156133de57600080fd5b505af11580156133f2573d6000803e3d6000fd5b505050506000600460009054906101000a90046001600160a01b03166001600160a01b0316636eeeaaa56040518163ffffffff1660e01b815260040160206040518083038186803b15801561344657600080fd5b505afa15801561345a573d6000803e3d6000fd5b505050506040513d602081101561347057600080fd5b505160035460408051600160e01b63e43252d70281526001600160a01b038781166004830152915193945091169163e43252d79160248082019260009290919082900301818387803b1580156134c557600080fd5b505af11580156134d9573d6000803e3d6000fd5b506134eb925085915060029050611268565b6004805460408051600160e11b63356ad9f502815290516001600160a01b0390921692636ad5b3ea928282019260209290829003018186803b15801561353057600080fd5b505afa158015613544573d6000803e3d6000fd5b505050506040513d602081101561355a57600080fd5b50516040516001600160a01b039091169082156108fc029083906000818181858888f19350505050158015613593573d6000803e3d6000fd5b50506136b7565b60055460408051600160e21b633d8ea1f50281526001600160a01b038581166004830152600060248301819052925193169263f63a87d49260448084019391929182900301818387803b1580156135f057600080fd5b505af1158015613604573d6000803e3d6000fd5b50505050816001600160a01b03166108fc600460009054906101000a90046001600160a01b03166001600160a01b0316636eeeaaa56040518163ffffffff1660e01b815260040160206040518083038186803b15801561366357600080fd5b505afa158015613677573d6000803e3d6000fd5b505050506040513d602081101561368d57600080fd5b50516040518115909202916000818181858888f19350505050158015612191573d6000803e3d6000fd5b5050565b600e5481565b6003546001600160a01b031681565b6002546001600160a01b031681565b801561380957600a82815481106136f257fe5b600091825260208083206001600160a01b03871684526001600490930201919091019052604090205460ff161561372857600080fd5b613751600a838154811061373857fe5b9060005260206000209060040201600001546001613bc8565b600a838154811061375e57fe5b9060005260206000209060040201600001819055506001600a838154811061378257fe5b600091825260208083206001600160a01b0388168452600492909202909101600101905260409020805460ff1916911515919091179055600a8054839081106137c757fe5b60009182526020808320600492909202909101600201805460018101825590835291200180546001600160a01b0319166001600160a01b038516179055612191565b600a828154811061381657fe5b600091825260208083206001600160a01b03871684526001600490930201919091019052604090205460ff1661384b57600080fd5b613874600a838154811061385b57fe5b9060005260206000209060040201600001546001613c2c565b600a838154811061388157fe5b6000918252602090912060049091020155600a8054839081106138a057fe5b600091825260208083206001600160a01b0387168452600160049093020191909101905260409020805460ff19169055505050565b6005600c5560408051808201909152600a8152600160b21b69155b985cdcda59db9959026020820181905261390b9160006139fc565b6139507f41647669736f727920426f61726400000000000000000000000000000000000060405180610100016040528060d18152602001613d8360d1913960006139fc565b61399c600160d11b6526b2b6b132b9026040518060400160405280601f81526020017f526570726573656e747320616c6c207573657273206f66204d757475616c2e00815250836139fc565b6139e8600160d91b6427bbb732b9026040518060400160405280601b81526020017f526570726573656e7473204f776e6572206f66204d757475616c2e000000000081525060006139fc565b6139f3826003611268565b50506000600e55565b600a805490507fe2981862bbf692aa30ba39d4eca9c69e5dcebf3eae5fb93332940c23c1c4c3c584846040518083815260200180602001828103825283818151815260200191508051906020019080838360005b83811015613a68578181015183820152602001613a50565b50505050905090810190601f168015613a955780820380516001836020036101000a031916815260200191505b50935050505060405180910390a26040805160608101825260008082528251818152602080820185528084019182526001600160a01b03861694840194909452600a80546001810180835591909352835160049093027fc65a7bb8d6351c1cf70c95a316cc6a92839c986682d98bc35f958f4883f9d2a88101938455915180519195613b46937fc65a7bb8d6351c1cf70c95a316cc6a92839c986682d98bc35f958f4883f9d2aa0192910190613d03565b5060409190910151600390910180546001600160a01b0319166001600160a01b0390921691909117905550505050565b6000805b8251811015613bc157836001600160a01b0316838281518110613b9957fe5b60200260200101516001600160a01b03161415613bb95760019150613bc1565b600101613b7a565b5092915050565b600082820183811015613c255760408051600160e51b62461bcd02815260206004820152601b60248201527f536166654d6174683a206164646974696f6e206f766572666c6f770000000000604482015290519081900360640190fd5b9392505050565b6000613c2583836040518060400160405280601e81526020017f536166654d6174683a207375627472616374696f6e206f766572666c6f77000081525060008184841115613cfb57604051600160e51b62461bcd0281526004018080602001828103825283818151815260200191508051906020019080838360005b83811015613cc0578181015183820152602001613ca8565b50505050905090810190601f168015613ced5780820380516001836020036101000a031916815260200191505b509250505060405180910390fd5b505050900390565b828054828255906000526020600020908101928215613d58579160200282015b82811115613d5857825182546001600160a01b0319166001600160a01b03909116178255602090920191600190910190613d23565b506121fc926127189250905b808211156121fc5780546001600160a01b0319168155600101613d6456fe53656c656374656420666577206d656d6265727320746861742061726520646565706c7920656e747275737465642062792074686520644170702e20416e20696465616c2061647669736f727920626f6172642073686f756c642062652061206d6978206f6620736b696c6c73206f6620646f6d61696e2c20676f7665726e616e63652c2072657365617263682c20746563686e6f6c6f67792c20636f6e73756c74696e672065746320746f20696d70726f76652074686520706572666f726d616e6365206f662074686520644170702e4d656d6265722073686f756c642068617665206e6f20434c4120756e6c6f636b61626c6520746f6b656e73696e697469616c206d656d6265727320616e64206d656d62657220746f6b656e73206172726179732073686f756c642068617665207468652073616d65206c656e677468a165627a7a723058200cd05878d35a8a9628ae0464020b78a42ef7e1989c4114cdb10889e0b2d5d3c10029",
  "compiler": {
    "name": "solc",
    "version": "0.5.7+commit.6da8b019.Emscripten.clang",
    "optimizer": {
      "enabled": true,
      "runs": 200
    },
    "evmVersion": "petersburg"
  }
}