{
  "fileName": "DisposablePooledStaking.sol",
  "contractName": "DisposablePooledStaking",
  "source": "pragma solidity ^0.5.0;\n\nimport \"../modules/staking/PooledStaking.sol\";\nimport \"../modules/token/TokenController.sol\";\n\ncontract DisposablePooledStaking is PooledStaking {\n\n  function initialize(\n    address _tokenControllerAddress,\n    uint minStake,\n    uint minUnstake,\n    uint maxExposure,\n    uint unstakeLockTime\n  ) external {\n\n    tokenController = TokenController(_tokenControllerAddress);\n    tokenController.addToWhitelist(address(this));\n    initialized = true;\n\n    MIN_STAKE = minStake;\n    MIN_UNSTAKE = minUnstake;\n    MAX_EXPOSURE = maxExposure;\n    UNSTAKE_LOCK_TIME = unstakeLockTime;\n\n    REWARD_ROUND_DURATION = 7 days;\n    REWARD_ROUNDS_START = now;\n  }\n\n}\n",
  "sourcePath": "contracts/mocks/DisposablePooledStaking.sol",
  "abi": [
    {
      "constant": true,
      "inputs": [],
      "name": "MIN_UNSTAKE",
      "outputs": [
        {
          "name": "",
          "type": "uint256"
        }
      ],
      "payable": false,
      "stateMutability": "view",
      "type": "function"
    },
    {
      "constant": true,
      "inputs": [
        {
          "name": "staker",
          "type": "address"
        }
      ],
      "name": "stakerReward",
      "outputs": [
        {
          "name": "",
          "type": "uint256"
        }
      ],
      "payable": false,
      "stateMutability": "view",
      "type": "function"
    },
    {
      "constant": false,
      "inputs": [],
      "name": "changeDependentContractAddress",
      "outputs": [],
      "payable": false,
      "stateMutability": "nonpayable",
      "type": "function"
    },
    {
      "constant": true,
      "inputs": [
        {
          "name": "",
          "type": "address"
        },
        {
          "name": "",
          "type": "uint256"
        }
      ],
      "name": "contractStakers",
      "outputs": [
        {
          "name": "",
          "type": "address"
        }
      ],
      "payable": false,
      "stateMutability": "view",
      "type": "function"
    },
    {
      "constant": true,
      "inputs": [],
      "name": "initialized",
      "outputs": [
        {
          "name": "",
          "type": "bool"
        }
      ],
      "payable": false,
      "stateMutability": "view",
      "type": "function"
    },
    {
      "constant": true,
      "inputs": [],
      "name": "processedToStakerIndex",
      "outputs": [
        {
          "name": "",
          "type": "uint256"
        }
      ],
      "payable": false,
      "stateMutability": "view",
      "type": "function"
    },
    {
      "constant": true,
      "inputs": [],
      "name": "REWARD_ROUNDS_START",
      "outputs": [
        {
          "name": "",
          "type": "uint256"
        }
      ],
      "payable": false,
      "stateMutability": "view",
      "type": "function"
    },
    {
      "constant": false,
      "inputs": [],
      "name": "initializeRewardRoundsStart",
      "outputs": [],
      "payable": false,
      "stateMutability": "nonpayable",
      "type": "function"
    },
    {
      "constant": true,
      "inputs": [],
      "name": "hasPendingUnstakeRequests",
      "outputs": [
        {
          "name": "",
          "type": "bool"
        }
      ],
      "payable": false,
      "stateMutability": "view",
      "type": "function"
    },
    {
      "constant": true,
      "inputs": [],
      "name": "hasPendingActions",
      "outputs": [
        {
          "name": "",
          "type": "bool"
        }
      ],
      "payable": false,
      "stateMutability": "view",
      "type": "function"
    },
    {
      "constant": true,
      "inputs": [],
      "name": "MAX_EXPOSURE",
      "outputs": [
        {
          "name": "",
          "type": "uint256"
        }
      ],
      "payable": false,
      "stateMutability": "view",
      "type": "function"
    },
    {
      "constant": true,
      "inputs": [],
      "name": "REWARD_ROUND_DURATION",
      "outputs": [
        {
          "name": "",
          "type": "uint256"
        }
      ],
      "payable": false,
      "stateMutability": "view",
      "type": "function"
    },
    {
      "constant": false,
      "inputs": [
        {
          "name": "amount",
          "type": "uint256"
        }
      ],
      "name": "withdraw",
      "outputs": [],
      "payable": false,
      "stateMutability": "nonpayable",
      "type": "function"
    },
    {
      "constant": true,
      "inputs": [],
      "name": "firstReward",
      "outputs": [
        {
          "name": "",
          "type": "uint256"
        }
      ],
      "payable": false,
      "stateMutability": "view",
      "type": "function"
    },
    {
      "constant": true,
      "inputs": [
        {
          "name": "staker",
          "type": "address"
        },
        {
          "name": "contractAddress",
          "type": "address"
        }
      ],
      "name": "stakerContractPendingUnstakeTotal",
      "outputs": [
        {
          "name": "",
          "type": "uint256"
        }
      ],
      "payable": false,
      "stateMutability": "view",
      "type": "function"
    },
    {
      "constant": true,
      "inputs": [
        {
          "name": "staker",
          "type": "address"
        }
      ],
      "name": "stakerDeposit",
      "outputs": [
        {
          "name": "",
          "type": "uint256"
        }
      ],
      "payable": false,
      "stateMutability": "view",
      "type": "function"
    },
    {
      "constant": true,
      "inputs": [],
      "name": "burn",
      "outputs": [
        {
          "name": "amount",
          "type": "uint256"
        },
        {
          "name": "burnedAt",
          "type": "uint256"
        },
        {
          "name": "contractAddress",
          "type": "address"
        }
      ],
      "payable": false,
      "stateMutability": "view",
      "type": "function"
    },
    {
      "constant": true,
      "inputs": [
        {
          "name": "staker",
          "type": "address"
        }
      ],
      "name": "stakerContractsArray",
      "outputs": [
        {
          "name": "",
          "type": "address[]"
        }
      ],
      "payable": false,
      "stateMutability": "view",
      "type": "function"
    },
    {
      "constant": false,
      "inputs": [
        {
          "name": "maxIterations",
          "type": "uint256"
        }
      ],
      "name": "migrateRewardsToAccumulatedRewards",
      "outputs": [
        {
          "name": "finished",
          "type": "bool"
        },
        {
          "name": "iterationsLeft",
          "type": "uint256"
        }
      ],
      "payable": false,
      "stateMutability": "nonpayable",
      "type": "function"
    },
    {
      "constant": true,
      "inputs": [
        {
          "name": "contractAddress",
          "type": "address"
        }
      ],
      "name": "contractStake",
      "outputs": [
        {
          "name": "",
          "type": "uint256"
        }
      ],
      "payable": false,
      "stateMutability": "view",
      "type": "function"
    },
    {
      "constant": false,
      "inputs": [
        {
          "name": "contractAddress",
          "type": "address"
        },
        {
          "name": "amount",
          "type": "uint256"
        }
      ],
      "name": "pushBurn",
      "outputs": [],
      "payable": false,
      "stateMutability": "nonpayable",
      "type": "function"
    },
    {
      "constant": true,
      "inputs": [],
      "name": "hasPendingBurns",
      "outputs": [
        {
          "name": "",
          "type": "bool"
        }
      ],
      "payable": false,
      "stateMutability": "view",
      "type": "function"
    },
    {
      "constant": true,
      "inputs": [],
      "name": "lastUnstakeRequestId",
      "outputs": [
        {
          "name": "",
          "type": "uint256"
        }
      ],
      "payable": false,
      "stateMutability": "view",
      "type": "function"
    },
    {
      "constant": true,
      "inputs": [
        {
          "name": "",
          "type": "address"
        }
      ],
      "name": "accumulatedRewards",
      "outputs": [
        {
          "name": "amount",
          "type": "uint256"
        },
        {
          "name": "lastDistributionRound",
          "type": "uint256"
        }
      ],
      "payable": false,
      "stateMutability": "view",
      "type": "function"
    },
    {
      "constant": true,
      "inputs": [],
      "name": "getCurrentRewardsRound",
      "outputs": [
        {
          "name": "",
          "type": "uint256"
        }
      ],
      "payable": false,
      "stateMutability": "view",
      "type": "function"
    },
    {
      "constant": true,
      "inputs": [
        {
          "name": "staker",
          "type": "address"
        }
      ],
      "name": "stakerContractCount",
      "outputs": [
        {
          "name": "",
          "type": "uint256"
        }
      ],
      "payable": false,
      "stateMutability": "view",
      "type": "function"
    },
    {
      "constant": false,
      "inputs": [],
      "name": "initialize",
      "outputs": [],
      "payable": false,
      "stateMutability": "nonpayable",
      "type": "function"
    },
    {
      "constant": true,
      "inputs": [
        {
          "name": "contractAddress",
          "type": "address"
        }
      ],
      "name": "contractStakerCount",
      "outputs": [
        {
          "name": "",
          "type": "uint256"
        }
      ],
      "payable": false,
      "stateMutability": "view",
      "type": "function"
    },
    {
      "constant": false,
      "inputs": [
        {
          "name": "_contracts",
          "type": "address[]"
        },
        {
          "name": "_amounts",
          "type": "uint256[]"
        },
        {
          "name": "_insertAfter",
          "type": "uint256"
        }
      ],
      "name": "requestUnstake",
      "outputs": [],
      "payable": false,
      "stateMutability": "nonpayable",
      "type": "function"
    },
    {
      "constant": true,
      "inputs": [],
      "name": "UNSTAKE_LOCK_TIME",
      "outputs": [
        {
          "name": "",
          "type": "uint256"
        }
      ],
      "payable": false,
      "stateMutability": "view",
      "type": "function"
    },
    {
      "constant": true,
      "inputs": [
        {
          "name": "",
          "type": "address"
        }
      ],
      "name": "stakers",
      "outputs": [
        {
          "name": "deposit",
          "type": "uint256"
        },
        {
          "name": "reward",
          "type": "uint256"
        }
      ],
      "payable": false,
      "stateMutability": "view",
      "type": "function"
    },
    {
      "constant": true,
      "inputs": [],
      "name": "contractRewarded",
      "outputs": [
        {
          "name": "",
          "type": "uint256"
        }
      ],
      "payable": false,
      "stateMutability": "view",
      "type": "function"
    },
    {
      "constant": true,
      "inputs": [],
      "name": "contractBurned",
      "outputs": [
        {
          "name": "",
          "type": "uint256"
        }
      ],
      "payable": false,
      "stateMutability": "view",
      "type": "function"
    },
    {
      "constant": false,
      "inputs": [
        {
          "name": "code",
          "type": "bytes8"
        },
        {
          "name": "value",
          "type": "uint256"
        }
      ],
      "name": "updateUintParameters",
      "outputs": [],
      "payable": false,
      "stateMutability": "nonpayable",
      "type": "function"
    },
    {
      "constant": true,
      "inputs": [],
      "name": "hasPendingRewards",
      "outputs": [
        {
          "name": "",
          "type": "bool"
        }
      ],
      "payable": false,
      "stateMutability": "view",
      "type": "function"
    },
    {
      "constant": false,
      "inputs": [
        {
          "name": "maxIterations",
          "type": "uint256"
        }
      ],
      "name": "_processPendingActions",
      "outputs": [
        {
          "name": "finished",
          "type": "bool"
        },
        {
          "name": "iterationsLeft",
          "type": "uint256"
        }
      ],
      "payable": false,
      "stateMutability": "nonpayable",
      "type": "function"
    },
    {
      "constant": false,
      "inputs": [
        {
          "name": "maxIterations",
          "type": "uint256"
        }
      ],
      "name": "processPendingActionsReturnLeft",
      "outputs": [
        {
          "name": "finished",
          "type": "bool"
        },
        {
          "name": "iterationsLeft",
          "type": "uint256"
        }
      ],
      "payable": false,
      "stateMutability": "nonpayable",
      "type": "function"
    },
    {
      "constant": true,
      "inputs": [
        {
          "name": "stakerAddress",
          "type": "address"
        }
      ],
      "name": "stakerMaxWithdrawable",
      "outputs": [
        {
          "name": "",
          "type": "uint256"
        }
      ],
      "payable": false,
      "stateMutability": "view",
      "type": "function"
    },
    {
      "constant": false,
      "inputs": [
        {
          "name": "stakerAddress",
          "type": "address"
        }
      ],
      "name": "withdrawReward",
      "outputs": [],
      "payable": false,
      "stateMutability": "nonpayable",
      "type": "function"
    },
    {
      "constant": false,
      "inputs": [
        {
          "name": "amount",
          "type": "uint256"
        },
        {
          "name": "_contracts",
          "type": "address[]"
        },
        {
          "name": "_stakes",
          "type": "uint256[]"
        }
      ],
      "name": "depositAndStake",
      "outputs": [],
      "payable": false,
      "stateMutability": "nonpayable",
      "type": "function"
    },
    {
      "constant": true,
      "inputs": [],
      "name": "contractStaked",
      "outputs": [
        {
          "name": "",
          "type": "uint256"
        }
      ],
      "payable": false,
      "stateMutability": "view",
      "type": "function"
    },
    {
      "constant": true,
      "inputs": [],
      "name": "MIN_STAKE",
      "outputs": [
        {
          "name": "",
          "type": "uint256"
        }
      ],
      "payable": false,
      "stateMutability": "view",
      "type": "function"
    },
    {
      "constant": false,
      "inputs": [
        {
          "name": "masterAddress",
          "type": "address"
        }
      ],
      "name": "changeMasterAddress",
      "outputs": [],
      "payable": false,
      "stateMutability": "nonpayable",
      "type": "function"
    },
    {
      "constant": true,
      "inputs": [
        {
          "name": "contractAddress",
          "type": "address"
        },
        {
          "name": "stakerIndex",
          "type": "uint256"
        }
      ],
      "name": "contractStakerAtIndex",
      "outputs": [
        {
          "name": "",
          "type": "address"
        }
      ],
      "payable": false,
      "stateMutability": "view",
      "type": "function"
    },
    {
      "constant": true,
      "inputs": [
        {
          "name": "unstakeRequestId",
          "type": "uint256"
        }
      ],
      "name": "unstakeRequestAtIndex",
      "outputs": [
        {
          "name": "amount",
          "type": "uint256"
        },
        {
          "name": "unstakeAt",
          "type": "uint256"
        },
        {
          "name": "contractAddress",
          "type": "address"
        },
        {
          "name": "stakerAddress",
          "type": "address"
        },
        {
          "name": "next",
          "type": "uint256"
        }
      ],
      "payable": false,
      "stateMutability": "view",
      "type": "function"
    },
    {
      "constant": true,
      "inputs": [],
      "name": "isContractStakeCalculated",
      "outputs": [
        {
          "name": "",
          "type": "bool"
        }
      ],
      "payable": false,
      "stateMutability": "view",
      "type": "function"
    },
    {
      "constant": true,
      "inputs": [
        {
          "name": "staker",
          "type": "address"
        },
        {
          "name": "contractAddress",
          "type": "address"
        }
      ],
      "name": "stakerContractStake",
      "outputs": [
        {
          "name": "",
          "type": "uint256"
        }
      ],
      "payable": false,
      "stateMutability": "view",
      "type": "function"
    },
    {
      "constant": true,
      "inputs": [],
      "name": "tokenController",
      "outputs": [
        {
          "name": "",
          "type": "address"
        }
      ],
      "payable": false,
      "stateMutability": "view",
      "type": "function"
    },
    {
      "constant": true,
      "inputs": [],
      "name": "master",
      "outputs": [
        {
          "name": "",
          "type": "address"
        }
      ],
      "payable": false,
      "stateMutability": "view",
      "type": "function"
    },
    {
      "constant": true,
      "inputs": [
        {
          "name": "staker",
          "type": "address"
        },
        {
          "name": "contractIndex",
          "type": "uint256"
        }
      ],
      "name": "stakerContractAtIndex",
      "outputs": [
        {
          "name": "",
          "type": "address"
        }
      ],
      "payable": false,
      "stateMutability": "view",
      "type": "function"
    },
    {
      "constant": false,
      "inputs": [
        {
          "name": "contractAddress",
          "type": "address"
        },
        {
          "name": "amount",
          "type": "uint256"
        }
      ],
      "name": "accumulateReward",
      "outputs": [],
      "payable": false,
      "stateMutability": "nonpayable",
      "type": "function"
    },
    {
      "constant": true,
      "inputs": [
        {
          "name": "contractAddress",
          "type": "address"
        }
      ],
      "name": "contractStakersArray",
      "outputs": [
        {
          "name": "_stakers",
          "type": "address[]"
        }
      ],
      "payable": false,
      "stateMutability": "view",
      "type": "function"
    },
    {
      "constant": true,
      "inputs": [
        {
          "name": "",
          "type": "uint256"
        }
      ],
      "name": "rewards",
      "outputs": [
        {
          "name": "amount",
          "type": "uint256"
        },
        {
          "name": "rewardedAt",
          "type": "uint256"
        },
        {
          "name": "contractAddress",
          "type": "address"
        }
      ],
      "payable": false,
      "stateMutability": "view",
      "type": "function"
    },
    {
      "constant": true,
      "inputs": [],
      "name": "lastRewardId",
      "outputs": [
        {
          "name": "",
          "type": "uint256"
        }
      ],
      "payable": false,
      "stateMutability": "view",
      "type": "function"
    },
    {
      "constant": false,
      "inputs": [
        {
          "name": "contractAddresses",
          "type": "address[]"
        }
      ],
      "name": "pushRewards",
      "outputs": [],
      "payable": false,
      "stateMutability": "nonpayable",
      "type": "function"
    },
    {
      "constant": true,
      "inputs": [
        {
          "name": "",
          "type": "uint256"
        }
      ],
      "name": "unstakeRequests",
      "outputs": [
        {
          "name": "amount",
          "type": "uint256"
        },
        {
          "name": "unstakeAt",
          "type": "uint256"
        },
        {
          "name": "contractAddress",
          "type": "address"
        },
        {
          "name": "stakerAddress",
          "type": "address"
        },
        {
          "name": "next",
          "type": "uint256"
        }
      ],
      "payable": false,
      "stateMutability": "view",
      "type": "function"
    },
    {
      "constant": false,
      "inputs": [
        {
          "name": "_tokenControllerAddress",
          "type": "address"
        },
        {
          "name": "minStake",
          "type": "uint256"
        },
        {
          "name": "minUnstake",
          "type": "uint256"
        },
        {
          "name": "maxExposure",
          "type": "uint256"
        },
        {
          "name": "unstakeLockTime",
          "type": "uint256"
        }
      ],
      "name": "initialize",
      "outputs": [],
      "payable": false,
      "stateMutability": "nonpayable",
      "type": "function"
    },
    {
      "constant": true,
      "inputs": [],
      "name": "token",
      "outputs": [
        {
          "name": "",
          "type": "address"
        }
      ],
      "payable": false,
      "stateMutability": "view",
      "type": "function"
    },
    {
      "constant": false,
      "inputs": [
        {
          "name": "maxIterations",
          "type": "uint256"
        }
      ],
      "name": "processPendingActions",
      "outputs": [
        {
          "name": "finished",
          "type": "bool"
        }
      ],
      "payable": false,
      "stateMutability": "nonpayable",
      "type": "function"
    },
    {
      "anonymous": false,
      "inputs": [
        {
          "indexed": true,
          "name": "staker",
          "type": "address"
        },
        {
          "indexed": false,
          "name": "amount",
          "type": "uint256"
        }
      ],
      "name": "Deposited",
      "type": "event"
    },
    {
      "anonymous": false,
      "inputs": [
        {
          "indexed": true,
          "name": "staker",
          "type": "address"
        },
        {
          "indexed": false,
          "name": "amount",
          "type": "uint256"
        }
      ],
      "name": "Withdrawn",
      "type": "event"
    },
    {
      "anonymous": false,
      "inputs": [
        {
          "indexed": true,
          "name": "contractAddress",
          "type": "address"
        },
        {
          "indexed": true,
          "name": "staker",
          "type": "address"
        },
        {
          "indexed": false,
          "name": "amount",
          "type": "uint256"
        }
      ],
      "name": "Staked",
      "type": "event"
    },
    {
      "anonymous": false,
      "inputs": [
        {
          "indexed": true,
          "name": "contractAddress",
          "type": "address"
        },
        {
          "indexed": true,
          "name": "staker",
          "type": "address"
        },
        {
          "indexed": false,
          "name": "amount",
          "type": "uint256"
        },
        {
          "indexed": false,
          "name": "unstakeAt",
          "type": "uint256"
        }
      ],
      "name": "UnstakeRequested",
      "type": "event"
    },
    {
      "anonymous": false,
      "inputs": [
        {
          "indexed": true,
          "name": "contractAddress",
          "type": "address"
        },
        {
          "indexed": true,
          "name": "staker",
          "type": "address"
        },
        {
          "indexed": false,
          "name": "amount",
          "type": "uint256"
        }
      ],
      "name": "Unstaked",
      "type": "event"
    },
    {
      "anonymous": false,
      "inputs": [
        {
          "indexed": true,
          "name": "contractAddress",
          "type": "address"
        },
        {
          "indexed": false,
          "name": "amount",
          "type": "uint256"
        }
      ],
      "name": "BurnRequested",
      "type": "event"
    },
    {
      "anonymous": false,
      "inputs": [
        {
          "indexed": true,
          "name": "contractAddress",
          "type": "address"
        },
        {
          "indexed": false,
          "name": "amount",
          "type": "uint256"
        },
        {
          "indexed": false,
          "name": "contractStakeBeforeBurn",
          "type": "uint256"
        }
      ],
      "name": "Burned",
      "type": "event"
    },
    {
      "anonymous": false,
      "inputs": [
        {
          "indexed": true,
          "name": "contractAddress",
          "type": "address"
        },
        {
          "indexed": false,
          "name": "amount",
          "type": "uint256"
        }
      ],
      "name": "RewardAdded",
      "type": "event"
    },
    {
      "anonymous": false,
      "inputs": [
        {
          "indexed": true,
          "name": "contractAddress",
          "type": "address"
        },
        {
          "indexed": false,
          "name": "amount",
          "type": "uint256"
        }
      ],
      "name": "RewardRequested",
      "type": "event"
    },
    {
      "anonymous": false,
      "inputs": [
        {
          "indexed": true,
          "name": "contractAddress",
          "type": "address"
        },
        {
          "indexed": false,
          "name": "amount",
          "type": "uint256"
        },
        {
          "indexed": false,
          "name": "contractStake",
          "type": "uint256"
        }
      ],
      "name": "Rewarded",
      "type": "event"
    },
    {
      "anonymous": false,
      "inputs": [
        {
          "indexed": true,
          "name": "staker",
          "type": "address"
        },
        {
          "indexed": false,
          "name": "amount",
          "type": "uint256"
        }
      ],
      "name": "RewardWithdrawn",
      "type": "event"
    },
    {
      "anonymous": false,
      "inputs": [
        {
          "indexed": false,
          "name": "finished",
          "type": "bool"
        }
      ],
      "name": "PendingActionsProcessed",
      "type": "event"
    },
    {
      "anonymous": false,
      "inputs": [
        {
          "indexed": false,
          "name": "finished",
          "type": "bool"
        },
        {
          "indexed": false,
          "name": "firstReward",
          "type": "uint256"
        },
        {
          "indexed": false,
          "name": "iterationsLeft",
          "type": "uint256"
        }
      ],
      "name": "RewardsMigrationCompleted",
      "type": "event"
    }
  ],
  "bytecode": "0x608060405234801561001057600080fd5b50614dc0806100206000396000f3fe608060405234801561001057600080fd5b50600436106103995760003560e01c8063908ad10a116101e9578063e3bc92c01161010f578063f2078db5116100ad578063f87975af1161007c578063f87975af14610b5e578063f92ad21914610b7b578063fc0c546a14610bb9578063ff551c8414610bc157610399565b8063f2078db514610aa5578063f301af4214610acb578063f52790bc14610ae8578063f6ceefa214610af057610399565b8063eddd9d82116100e9578063eddd9d8214610a3d578063ee97f7f314610a45578063ef30375d14610a4d578063f0f923c014610a7957610399565b8063e3bc92c0146109b5578063ead4d17414610a07578063eae0171814610a0f57610399565b8063abb215be11610187578063c65cfd5211610156578063c65cfd5214610953578063cb1c2b5c1461095b578063d46655f414610963578063d6b5b8521461098957610399565b8063abb215be14610825578063afd369fd14610842578063b86e321c14610868578063c001472e1461088e57610399565b80639c6f6e84116101c35780639c6f6e84146107cb5780639dd86e0f146107d3578063a4cc380b14610800578063a81d80101461080857610399565b8063908ad10a146107955780639168ae721461079d5780639abbed05146107c357610399565b806334892cea116102ce5780637272135a1161026c57806375a7720f1161023b57806375a7720f146106835780638129fc1c146106a957806385b39d83146106b15780638e91e6bd146106d757610399565b80637272135a1461062c57806372af29321461063457806373f273fc1461063c57806374ff6b901461067b57610399565b80635840ee44116102a85780635840ee441461052c5780635ce92976146105a257806365f212f9146105da57806368989a591461060057610399565b806334892cea146104a957806339ac5eb9146104d757806344df8e70146104fd57610399565b806316faaa8f1161033b57806324f412541161031557806324f4125414610474578063285ece4e1461047c5780632e1a7d4d146104845780632e23dc8f146104a157610399565b806316faaa8f1461045c5780631a839ba71461046457806322b1c2961461046c57610399565b80631354839d116103775780631354839d146103e8578063158ef93e1461043057806315c5673c1461044c5780631694a36a1461045457610399565b80630ca6de031461039e5780630ea474c7146103b85780630ea9c984146103de575b600080fd5b6103a6610bde565b60408051918252519081900360200190f35b6103a6600480360360208110156103ce57600080fd5b50356001600160a01b0316610be4565b6103e6610c02565b005b610414600480360360408110156103fe57600080fd5b506001600160a01b038135169060200135610d59565b604080516001600160a01b039092168252519081900360200190f35b610438610d8e565b604080519115158252519081900360200190f35b6103a6610d9e565b6103a6610da4565b6103e6610daa565b610438610e1e565b610438610e74565b6103a6610e9f565b6103a6610ea5565b6103e66004803603602081101561049a57600080fd5b5035610eab565b6103a6611208565b6103a6600480360360408110156104bf57600080fd5b506001600160a01b038135811691602001351661120e565b6103a6600480360360208110156104ed57600080fd5b50356001600160a01b031661123f565b61050561125a565b6040805193845260208401929092526001600160a01b031682820152519081900360600190f35b6105526004803603602081101561054257600080fd5b50356001600160a01b031661126f565b60408051602080825283518183015283519192839290830191858101910280838360005b8381101561058e578181015183820152602001610576565b505050509050019250505060405180910390f35b6105bf600480360360208110156105b857600080fd5b50356112e8565b60408051921515835260208301919091528051918290030190f35b6103a6600480360360208110156105f057600080fd5b50356001600160a01b031661151d565b6103e66004803603604081101561061657600080fd5b506001600160a01b0381351690602001356115cd565b610438611892565b6103a661189a565b6106626004803603602081101561065257600080fd5b50356001600160a01b03166118a0565b6040805192835260208301919091528051918290030190f35b6103a66118b9565b6103a66004803603602081101561069957600080fd5b50356001600160a01b03166118c3565b6103e66118e1565b6103a6600480360360208110156106c757600080fd5b50356001600160a01b03166119c2565b6103e6600480360360608110156106ed57600080fd5b810190602081018135600160201b81111561070757600080fd5b82018360208201111561071957600080fd5b803590602001918460208302840111600160201b8311171561073a57600080fd5b919390929091602081019035600160201b81111561075757600080fd5b82018360208201111561076957600080fd5b803590602001918460208302840111600160201b8311171561078a57600080fd5b9193509150356119dd565b6103a66120f4565b610662600480360360208110156107b357600080fd5b50356001600160a01b03166120fa565b6103a6612113565b6103a6612119565b6103e6600480360360408110156107e957600080fd5b506001600160c01b0319813516906020013561211f565b61043861227f565b6105bf6004803603602081101561081e57600080fd5b5035612299565b6105bf6004803603602081101561083b57600080fd5b5035612599565b6103a66004803603602081101561085857600080fd5b50356001600160a01b03166126b5565b6103e66004803603602081101561087e57600080fd5b50356001600160a01b031661279d565b6103e6600480360360608110156108a457600080fd5b81359190810190604081016020820135600160201b8111156108c557600080fd5b8201836020820111156108d757600080fd5b803590602001918460208302840111600160201b831117156108f857600080fd5b919390929091602081019035600160201b81111561091557600080fd5b82018360208201111561092757600080fd5b803590602001918460208302840111600160201b8311171561094857600080fd5b50909250905061298b565b6103a661329f565b6103a66132a5565b6103e66004803603602081101561097957600080fd5b50356001600160a01b03166132ab565b6104146004803603604081101561099f57600080fd5b506001600160a01b038135169060200135613330565b6109d2600480360360208110156109cb57600080fd5b5035613370565b6040805195865260208601949094526001600160a01b0392831685850152911660608401526080830152519081900360a00190f35b6104386133aa565b6103a660048036036040811015610a2557600080fd5b506001600160a01b03813581169160200135166133b3565b6104146133fb565b61041461340a565b61041460048036036040811015610a6357600080fd5b506001600160a01b038135169060200135613419565b6103e660048036036040811015610a8f57600080fd5b506001600160a01b038135169060200135613440565b61055260048036036020811015610abb57600080fd5b50356001600160a01b03166136cf565b61050560048036036020811015610ae157600080fd5b5035613743565b6103a661376d565b6103e660048036036020811015610b0657600080fd5b810190602081018135600160201b811115610b2057600080fd5b820183602082011115610b3257600080fd5b803590602001918460208302840111600160201b83111715610b5357600080fd5b509092509050613773565b6109d260048036036020811015610b7457600080fd5b50356138ba565b6103e6600480360360a0811015610b9157600080fd5b506001600160a01b0381351690602081013590604081013590606081013590608001356138f6565b6104146139aa565b61043860048036036020811015610bd757600080fd5b50356139b9565b60055481565b6001600160a01b031660009081526007602052604090206001015490565b6000809054906101000a90046001600160a01b03166001600160a01b0316639d76ea586040518163ffffffff1660e01b815260040160206040518083038186803b158015610c4f57600080fd5b505afa158015610c63573d6000803e3d6000fd5b505050506040513d6020811015610c7957600080fd5b5051600180546001600160a01b0319166001600160a01b0392831617905560005460408051600160e31b6227050b028152600160f01b615443026004820152905191909216916301382858916024808301926020929190829003018186803b158015610ce457600080fd5b505afa158015610cf8573d6000803e3d6000fd5b505050506040513d6020811015610d0e57600080fd5b5051600280546001600160a01b0319166001600160a01b03909216919091179055600054600160a01b900460ff16610d4857610d486118e1565b601854610d5757610d57610daa565b565b600b6020528160005260406000208181548110610d7257fe5b6000918252602090912001546001600160a01b03169150829050565b600054600160a01b900460ff1681565b60145481565b60185481565b60185415610dec57604051600160e51b62461bcd028152600401808060200182810382526027815260200180614b276027913960400191505060405180910390fd5b635f5f311060185562093a80601755604051600090806033614af4823960405190819003603301902060115490555050565b600080805260126020527f7e7fa33969761a458e04f477e039a608702b4f924981d6653935a8319a08ad7f5480610e59576000915050610e71565b60009081526012602052604090206001015442101590505b90565b6000610e7e611892565b80610e8c5750610e8c610e1e565b80610e9a5750610e9a61227f565b905090565b60045481565b60175481565b6000809054906101000a90046001600160a01b03166001600160a01b031663ff0938a76040518163ffffffff1660e01b815260040160206040518083038186803b158015610ef857600080fd5b505afa158015610f0c573d6000803e3d6000fd5b505050506040513d6020811015610f2257600080fd5b505115610f675760408051600160e51b62461bcd0281526020600482015260106024820152600080516020614a8e833981519152604482015290519081900360640190fd5b600054600160a01b900460ff16610fb65760408051600160e51b62461bcd02815260206004820152601b6024820152600080516020614c81833981519152604482015290519081900360640190fd5b60005460408051600160e21b63288c314902815233600482015290516001600160a01b039092169163a230c52491602480820192602092909190829003018186803b15801561100457600080fd5b505afa158015611018573d6000803e3d6000fd5b505050506040513d602081101561102e57600080fd5b50516110845760408051600160e51b62461bcd02815260206004820152601660248201527f43616c6c6572206973206e6f742061206d656d62657200000000000000000000604482015290519081900360640190fd5b61108c611892565b156110cb57604051600160e51b62461bcd02815260040180806020018281038252603081526020018061492d6030913960400191505060405180910390fd5b60006110d6336126b5565b90508181101561111a57604051600160e51b62461bcd028152600401808060200182810382526030815260200180614a3b6030913960400191505060405180910390fd5b3360009081526007602052604090205461113a908363ffffffff613ad616565b336000818152600760209081526040808320949094556001548451600160e01b63a9059cbb02815260048101949094526024840187905293516001600160a01b039094169363a9059cbb93604480820194918390030190829087803b1580156111a257600080fd5b505af11580156111b6573d6000803e3d6000fd5b505050506040513d60208110156111cc57600080fd5b505060408051838152905133917f7084f5476618d8e60b11ef0d7d3f06914655adb8793e28ff7f018d4c76d505d5919081900360200190a25050565b60105481565b6001600160a01b03808316600090815260076020908152604080832093851683526004909301905220545b92915050565b6001600160a01b031660009081526007602052604090205490565b600c54600d54600e546001600160a01b031683565b6001600160a01b0381166000908152600760209081526040918290206002018054835181840281018401909452808452606093928301828280156112dc57602002820191906000526020600020905b81546001600160a01b031681526001909101906020018083116112be575b50505050509050919050565b600080601054600014156113465760408051600160e51b62461bcd02815260206004820152601260248201527f4e6f7468696e6720746f206d6967726174650000000000000000000000000000604482015290519081900360640190fd5b6000806040518080614af460339139603301905060405180910390209050805491508160105411156113c25760408051600160e51b62461bcd02815260206004820152601a60248201527f4578636565646564206c617374206d6967726174696f6e206964000000000000604482015290519081900360640190fd5b8492505b831580156113d45750600083115b156114c5576010546000908152600f6020908152604080832060028101546001600160a01b031684526016909252909120815481546000199096019561141f9163ffffffff613b1f16565b81556002820154825460408051918252516001600160a01b03909216917fac24935fd910bc682b5ccb1a07b718cadf8cf2f6d1404c4f3ddc3662dae40e299181900360200190a2601080546000908152600f6020526040812081815560018082019290925560020180546001600160a01b0319169055815401908190558410156114a857600195505b60115460105411156114be576000601055600195505b50506113c6565b83156114d057600081555b6010546040805186151581526020810192909252818101859052517f26428374401ca9c5de60f1a0ec5c8be7450ddc4f9ce9731bbae77d3c40e77cf39181900360600190a150505b915091565b6001600160a01b0381166000908152600b60205260408120805482805b828110156115c45760006007600086848154811061155457fe5b60009182526020808320909101546001600160a01b03908116845283820194909452604092830182208054948c168352600381019091529190205490925080821061159f57806115a1565b815b90506115b3858263ffffffff613b1f16565b9450506001909201915061153a9050565b50949350505050565b60005460408051600160e21b6323c5b10702815233600482015290516001600160a01b0390921691638f16c41c91602480820192602092909190829003018186803b15801561161b57600080fd5b505afa15801561162f573d6000803e3d6000fd5b505050506040513d602081101561164557600080fd5b505161168557604051600160e51b62461bcd028152600401808060200182810382526022815260200180614c5f6022913960400191505060405180910390fd5b6000809054906101000a90046001600160a01b03166001600160a01b031663ff0938a76040518163ffffffff1660e01b815260040160206040518083038186803b1580156116d257600080fd5b505afa1580156116e6573d6000803e3d6000fd5b505050506040513d60208110156116fc57600080fd5b5051156117415760408051600160e51b62461bcd0281526020600482015260106024820152600080516020614a8e833981519152604482015290519081900360640190fd5b600054600160a01b900460ff166117905760408051600160e51b62461bcd02815260206004820152601b6024820152600080516020614c81833981519152604482015290519081900360640190fd5b611798611892565b156117d757604051600160e51b62461bcd02815260040180806020018281038252603081526020018061492d6030913960400191505060405180910390fd5b60408051600180825281830190925260609160208083019080388339019050509050828160008151811061180757fe5b60200260200101906001600160a01b031690816001600160a01b031681525050611832816001613b7c565b600c82905542600d55600e80546001600160a01b0385166001600160a01b031990911681179091556040805184815290517f5d06931c8dc69a16ea07030839ba70d3794cbda4dc0e16718165f9054db87a5a9181900360200190a2505050565b600d54151590565b60135481565b6016602052600090815260409020805460019091015482565b6000610e9a613cf0565b6001600160a01b031660009081526007602052604090206002015490565b600054600160a01b900460ff16156119435760408051600160e51b62461bcd02815260206004820152601f60248201527f436f6e747261637420697320616c726561647920696e697469616c697a656400604482015290519081900360640190fd5b60025460408051600160e01b63e43252d702815230600482015290516001600160a01b039092169163e43252d79160248082019260009290919082900301818387803b15801561199257600080fd5b505af11580156119a6573d6000803e3d6000fd5b505060008054600160a01b60ff021916600160a01b1790555050565b6001600160a01b03166000908152600b602052604090205490565b6000809054906101000a90046001600160a01b03166001600160a01b031663ff0938a76040518163ffffffff1660e01b815260040160206040518083038186803b158015611a2a57600080fd5b505afa158015611a3e573d6000803e3d6000fd5b505050506040513d6020811015611a5457600080fd5b505115611a995760408051600160e51b62461bcd0281526020600482015260106024820152600080516020614a8e833981519152604482015290519081900360640190fd5b600054600160a01b900460ff16611ae85760408051600160e51b62461bcd02815260206004820152601b6024820152600080516020614c81833981519152604482015290519081900360640190fd5b60005460408051600160e21b63288c314902815233600482015290516001600160a01b039092169163a230c52491602480820192602092909190829003018186803b158015611b3657600080fd5b505afa158015611b4a573d6000803e3d6000fd5b505050506040513d6020811015611b6057600080fd5b5051611bb65760408051600160e51b62461bcd02815260206004820152601660248201527f43616c6c6572206973206e6f742061206d656d62657200000000000000000000604482015290519081900360640190fd5b838214611bf757604051600160e51b62461bcd028152600401808060200182810382526038815260200180614a036038913960400191505060405180910390fd5b601354811115611c3b57604051600160e51b62461bcd028152600401808060200182810382526023815260200180614a6b6023913960400191505060405180910390fd5b336000908152600760205260408120805460065491929091849190611c6790429063ffffffff613b1f16565b60008381526012602052604090209091508215611cc1576001810154611cc157604051600160e51b62461bcd028152600401808060200182810382526037815260200180614c066037913960400191505060405180910390fd5b60005b898110156120e75760008b8b83818110611cda57fe5b602090810292909201356001600160a01b0316600081815260038b019093526040909220549192505086811115611d0e5750855b6001600160a01b0382166000908152600489016020526040812054908c8c86818110611d3657fe5b9050602002013590506000838311611d5d57611d58848463ffffffff613ad616565b611d60565b60005b905060008111611da457604051600160e51b62461bcd028152600401808060200182810382526023815260200180614ad16023913960400191505060405180910390fd5b80821115611dfc5760408051600160e51b62461bcd02815260206004820152601f60248201527f43616e6e6f7420756e7374616b65206d6f7265207468616e207374616b656400604482015290519081900360640190fd5b808214611e9a57600554821015611e4757604051600160e51b62461bcd02815260040180806020018281038252603a815260200180614bcc603a913960400191505060405180910390fd5b600354611e5a828463ffffffff613ad616565b1015611e9a57604051600160e51b62461bcd02815260040180806020018281038252603a815260200180614d13603a913960400191505060405180910390fd5b8660010154881015611ee057604051600160e51b62461bcd028152600401808060200182810382526049815260200180614cca6049913960600191505060405180910390fd5b600487015415611f44576004870154600090815260126020526040902060018101548910611f4257604051600160e51b62461bcd02815260040180806020018281038252604781526020018061498a6047913960600191505060405180910390fd5b505b60136000815460010191905081905598506040518060a00160405280838152602001898152602001866001600160a01b03168152602001336001600160a01b031681526020018860040154815250601260008b8152602001908152602001600020600082015181600001556020820151816001015560408201518160020160006101000a8154816001600160a01b0302191690836001600160a01b0316021790555060608201518160030160006101000a8154816001600160a01b0302191690836001600160a01b0316021790555060808201518160040155905050888760040181905550336001600160a01b0316856001600160a01b03167ffe07ce9fff39f8420b3de5fbc6909ce08f809e2572b62f9df35c25f56d610bb0848b604051808381526020018281526020019250505060405180910390a36001600160a01b038516600090815260048c0160205260408120546120a7908463ffffffff613b1f16565b6001600160a01b03909616600090815260048d0160209081526040808320989098558b8252601290529590952096505060019094019350611cc492505050565b5050505050505050505050565b60065481565b6007602052600090815260409020805460019091015482565b600a5481565b60095481565b60005460408051600160e11b632c1a733d02815233600482015290516001600160a01b0390921691635834e67a91602480820192602092909190829003018186803b15801561216d57600080fd5b505afa158015612181573d6000803e3d6000fd5b505050506040513d602081101561219757600080fd5b50516121d757604051600160e51b62461bcd028152600401808060200182810382526022815260200180614c3d6022913960400191505060405180910390fd5b600160c01b674d494e5f5354414b026001600160c01b03198316141561220157600381905561227b565b600160c01b674d41585f4558504f026001600160c01b03198316141561222b57600481905561227b565b600160c21b6713525397d55394d5026001600160c01b03198316141561225557600581905561227b565b600160c21b67155394d517d312d5026001600160c01b03198316141561227b5760068190555b5050565b6010546000908152600f6020526040902060010154151590565b60008054604080516001600160e01b62f6c7590203198152905183926001600160a01b03169163ff0938a7916004808301926020929190829003018186803b1580156122e457600080fd5b505afa1580156122f8573d6000803e3d6000fd5b505050506040513d602081101561230e57600080fd5b5051156123535760408051600160e51b62461bcd0281526020600482015260106024820152600080516020614a8e833981519152604482015290519081900360640190fd5b600054600160a01b900460ff166123a25760408051600160e51b62461bcd02815260206004820152601b6024820152600080516020614c81833981519152604482015290519081900360640190fd5b50815b601260209081527f7e7fa33969761a458e04f477e039a608702b4f924981d6653935a8319a08ad7f54600081815260408082206010548352600f9094528120600d546001808301549086015494959492939192909186158015906124095750428211155b601054909150841580159115159082612420575082155b801561242a575080155b1561243d5750505050505050505061255c565b818015612451575082158061245157508386105b8015612464575080158061246457508486105b156124d1576124728a613d5c565b909b5099508a6124c357604080516000815290517ff3b343b97db20514b20b9c54105a005716230e231e9bf5d180b1a0dfe6e4fb8a9181900360200190a15060009950611518975050505050505050565b5050505050505050506123a5565b8280156124e557508015806124e557508484105b15612553578961253657604080516000815290517ff3b343b97db20514b20b9c54105a005716230e231e9bf5d180b1a0dfe6e4fb8a9181900360200190a15060009950611518975050505050505050565b61253e614026565b896001900399505050505050505050506123a5565b6124728a61420b565b604080516001815290517ff3b343b97db20514b20b9c54105a005716230e231e9bf5d180b1a0dfe6e4fb8a9181900360200190a160019150915091565b60008054604080516001600160e01b62f6c7590203198152905183926001600160a01b03169163ff0938a7916004808301926020929190829003018186803b1580156125e457600080fd5b505afa1580156125f8573d6000803e3d6000fd5b505050506040513d602081101561260e57600080fd5b5051156126535760408051600160e51b62461bcd0281526020600482015260106024820152600080516020614a8e833981519152604482015290519081900360640190fd5b600054600160a01b900460ff166126a25760408051600160e51b62461bcd02815260206004820152601b6024820152600080516020614c81833981519152604482015290519081900360640190fd5b6126ab83612299565b9094909350915050565b6001600160a01b038116600090815260076020526040812080548280805b60028501548110156127545760008560020182815481106126f057fe5b60009182526020808320909101546001600160a01b0316808352600389019091526040822054909250908187106127275781612729565b865b905061273b868263ffffffff613b1f16565b955084811115612749578094505b5050506001016126d3565b50600061276c600454846144ff90919063ffffffff16565b9050600081831161277d578161277f565b825b9050612791858263ffffffff613ad616565b98975050505050505050565b6000809054906101000a90046001600160a01b03166001600160a01b031663ff0938a76040518163ffffffff1660e01b815260040160206040518083038186803b1580156127ea57600080fd5b505afa1580156127fe573d6000803e3d6000fd5b505050506040513d602081101561281457600080fd5b5051156128595760408051600160e51b62461bcd0281526020600482015260106024820152600080516020614a8e833981519152604482015290519081900360640190fd5b600054600160a01b900460ff166128a85760408051600160e51b62461bcd02815260206004820152601b6024820152600080516020614c81833981519152604482015290519081900360640190fd5b6001600160a01b038082166000818152600760209081526040808320600190810180549085905590548251600160e01b63a9059cbb02815260048101969096526024860182905291519095919091169363a9059cbb9360448083019493928390030190829087803b15801561291c57600080fd5b505af1158015612930573d6000803e3d6000fd5b505050506040513d602081101561294657600080fd5b50506040805182815290516001600160a01b038416917f1d3eee4ca001cff39eec6ec7615aacf2f2bd61791273830728ba00ccbd6e1337919081900360200190a25050565b6000809054906101000a90046001600160a01b03166001600160a01b031663ff0938a76040518163ffffffff1660e01b815260040160206040518083038186803b1580156129d857600080fd5b505afa1580156129ec573d6000803e3d6000fd5b505050506040513d6020811015612a0257600080fd5b505115612a475760408051600160e51b62461bcd0281526020600482015260106024820152600080516020614a8e833981519152604482015290519081900360640190fd5b600054600160a01b900460ff16612a965760408051600160e51b62461bcd02815260206004820152601b6024820152600080516020614c81833981519152604482015290519081900360640190fd5b60005460408051600160e21b63288c314902815233600482015290516001600160a01b039092169163a230c52491602480820192602092909190829003018186803b158015612ae457600080fd5b505afa158015612af8573d6000803e3d6000fd5b505050506040513d6020811015612b0e57600080fd5b5051612b645760408051600160e51b62461bcd02815260206004820152601660248201527f43616c6c6572206973206e6f742061206d656d62657200000000000000000000604482015290519081900360640190fd5b612b6c610e74565b15612bab57604051600160e51b62461bcd0281526004018080602001828103825260328152602001806149d16032913960400191505060405180910390fd5b336000908152600760205260409020600281015480851015612c0157604051600160e51b62461bcd028152600401808060200182810382526029815260200180614ca16029913960400191505060405180910390fd5b848314612c4257604051600160e51b62461bcd028152600401808060200182810382526037815260200180614b956037913960400191505060405180910390fd5b815460009081612c58828b63ffffffff613b1f16565b80865560025460408051600160e01b630d1af103028152336004820152306024820152604481018e905290519293506001600160a01b0390911691630d1af103916064808201926020929091908290030181600087803b158015612cbb57600080fd5b505af1158015612ccf573d6000803e3d6000fd5b505050506040513d6020811015612ce557600080fd5b50600090505b888110156131295760008a8a83818110612d0157fe5b905060200201356001600160a01b0316905060008090505b82811015612d9857816001600160a01b03168c8c83818110612d3757fe5b905060200201356001600160a01b03166001600160a01b03161415612d9057604051600160e51b62461bcd02815260040180806020018281038252602d81526020018061495d602d913960400191505060405180910390fd5b600101612d19565b506001600160a01b038116600090815260038801602052604081205490818610612dc25781612dc4565b855b905060008b8b86818110612dd457fe5b60200291909101359150508885101580612eac578a6002018681548110612df757fe5b6000918252602090912001546001600160a01b03868116911614612e655760408051600160e51b62461bcd02815260206004820152601960248201527f556e657870656374656420636f6e7472616374206f7264657200000000000000604482015290519081900360640190fd5b81831115612ea757604051600160e51b62461bcd028152600401808060200182810382526025815260200180614d4d6025913960400191505060405180910390fd5b612f1f565b60008211612eee57604051600160e51b62461bcd028152600401808060200182810382526023815260200180614aae6023913960400191505060405180910390fd5b60028b018054600181018255600091825260209091200180546001600160a01b0319166001600160a01b0387161790555b81831415612f6857818414612f4c576001600160a01b038516600090815260038c01602052604090208290555b612f5c898363ffffffff613b1f16565b98505050505050613121565b600354821015612fc25760408051600160e51b62461bcd02815260206004820152601c60248201527f4d696e696d756d207374616b6520616d6f756e74206e6f74206d657400000000604482015290519081900360640190fd5b8682111561301a5760408051600160e51b62461bcd02815260206004820181905260248201527f43616e6e6f74207374616b65206d6f7265207468616e206465706f7369746564604482015290519081900360640190fd5b808061304157506001600160a01b038516600090815260058c01602052604090205460ff16155b15613095576001600160a01b038516600090815260058c0160209081526040808320805460ff19166001908117909155600b835290832080549182018155835291200180546001600160a01b031916331790555b6001600160a01b038516600090815260038c01602052604090208290556130c2898363ffffffff613b1f16565b985060006130d6838563ffffffff613ad616565b60408051828152905191925033916001600160a01b038916917f5dac0c1b1112564a045ba943c9d50270893e8e826c49be8e7073adc713ab7bd7919081900360200190a35050505050505b600101612ceb565b50600454855461313e9163ffffffff61454116565b83111561317f57604051600160e51b62461bcd028152600401808060200182810382526023815260200180614d726023913960400191505060405180910390fd5b89156131bc57604080518b8152905133917f2da466a7b24304f47e87fa2e1e5a81b9831ce54fec19055ce277ca2f39ba42c4919081900360200190a25b6000198801845b8015613291578888600183038181106131d857fe5b9050602002013560001415613288578660020182815481106131f657fe5b6000918252602090912001546002880180546001600160a01b0390921691600019840190811061322257fe5b9060005260206000200160006101000a8154816001600160a01b0302191690836001600160a01b031602179055508660020180548061325d57fe5b600082815260209020810160001990810180546001600160a01b031916905590810190915591909101905b600019016131c3565b505050505050505050505050565b60085481565b60035481565b6000546001600160a01b03161561330e576000546001600160a01b0316331461330e5760408051600160e51b62461bcd02815260206004820152600a6024820152600160b11b692737ba1036b0b9ba32b902604482015290519081900360640190fd5b600080546001600160a01b0319166001600160a01b0392909216919091179055565b6001600160a01b0382166000908152600b6020526040812080548390811061335457fe5b6000918252602090912001546001600160a01b03169392505050565b60009081526012602052604090208054600182015460028301546003840154600490940154929491936001600160a01b0391821693911691565b60155460ff1681565b6001600160a01b03808316600081815260076020818152604080842095871684526003860182528320549383525291548082106133f057806133f2565b815b95945050505050565b6002546001600160a01b031681565b6000546001600160a01b031681565b6001600160a01b038216600090815260076020526040812060020180548390811061335457fe5b60005460408051600160e21b6323c5b10702815233600482015290516001600160a01b0390921691638f16c41c91602480820192602092909190829003018186803b15801561348e57600080fd5b505afa1580156134a2573d6000803e3d6000fd5b505050506040513d60208110156134b857600080fd5b50516134f857604051600160e51b62461bcd028152600401808060200182810382526022815260200180614c5f6022913960400191505060405180910390fd5b6000809054906101000a90046001600160a01b03166001600160a01b031663ff0938a76040518163ffffffff1660e01b815260040160206040518083038186803b15801561354557600080fd5b505afa158015613559573d6000803e3d6000fd5b505050506040513d602081101561356f57600080fd5b5051156135b45760408051600160e51b62461bcd0281526020600482015260106024820152600080516020614a8e833981519152604482015290519081900360640190fd5b600054600160a01b900460ff166136035760408051600160e51b62461bcd02815260206004820152601b6024820152600080516020614c81833981519152604482015290519081900360640190fd5b60408051600180825281830190925260609160208083019080388339019050509050828160008151811061363357fe5b60200260200101906001600160a01b031690816001600160a01b03168152505061365e816000613b7c565b6001600160a01b03831660009081526016602052604090208054613688908463ffffffff613b1f16565b81556040805184815290516001600160a01b038616917fac24935fd910bc682b5ccb1a07b718cadf8cf2f6d1404c4f3ddc3662dae40e29919081900360200190a250505050565b6001600160a01b0381166000908152600b60209081526040918290208054835181840281018401909452808452606093928301828280156112dc576020028201919060005260206000209081546001600160a01b031681526001909101906020018083116112be5750505050509050919050565b600f602052600090815260409020805460018201546002909201549091906001600160a01b031683565b60115481565b6000809054906101000a90046001600160a01b03166001600160a01b031663ff0938a76040518163ffffffff1660e01b815260040160206040518083038186803b1580156137c057600080fd5b505afa1580156137d4573d6000803e3d6000fd5b505050506040513d60208110156137ea57600080fd5b50511561382f5760408051600160e51b62461bcd0281526020600482015260106024820152600080516020614a8e833981519152604482015290519081900360640190fd5b600054600160a01b900460ff1661387e5760408051600160e51b62461bcd02815260206004820152601b6024820152600080516020614c81833981519152604482015290519081900360640190fd5b61227b82828080602002602001604051908101604052809392919081815260200183836020028082843760009201829052509250613b7c915050565b60126020526000908152604090208054600182015460028301546003840154600490940154929391926001600160a01b03918216929091169085565b600280546001600160a01b0319166001600160a01b03878116919091179182905560408051600160e01b63e43252d70281523060048201529051929091169163e43252d79160248082019260009290919082900301818387803b15801561395c57600080fd5b505af1158015613970573d6000803e3d6000fd5b505060008054600160a01b60ff021916600160a01b17905550506003939093556005919091556004556006555062093a8060175542601855565b6001546001600160a01b031681565b60008060009054906101000a90046001600160a01b03166001600160a01b031663ff0938a76040518163ffffffff1660e01b815260040160206040518083038186803b158015613a0857600080fd5b505afa158015613a1c573d6000803e3d6000fd5b505050506040513d6020811015613a3257600080fd5b505115613a775760408051600160e51b62461bcd0281526020600482015260106024820152600080516020614a8e833981519152604482015290519081900360640190fd5b600054600160a01b900460ff16613ac65760408051600160e51b62461bcd02815260206004820152601b6024820152600080516020614c81833981519152604482015290519081900360640190fd5b613acf82612299565b5092915050565b6000613b1883836040518060400160405280601e81526020017f536166654d6174683a207375627472616374696f6e206f766572666c6f77000081525061459d565b9392505050565b600082820183811015613b185760408051600160e51b62461bcd02815260206004820152601b60248201527f536166654d6174683a206164646974696f6e206f766572666c6f770000000000604482015290519081900360640190fd5b6000613b86613cf0565b6011549091506000805b8551811015613cdc576000868281518110613ba757fe5b6020908102919091018101516001600160a01b03811660009081526016909252604082206001810154815492945090929091908115801590613bef57508980613bef57508289115b905080613c0f57888314613c0557600184018990555b5050505050613cd4565b604080516060810182528381524260208083019182526001600160a01b0389811684860181815260019e8f016000818152600f86528890209651875594519e86019e909e559c51600290940180546001600160a01b031916949091169390931790925582518581529251909a927f5f5b850fcbd0c09e2b8624b44902a5be89312011ae945e14bc73514fb719891e92908290030190a26000845560018085018a90559687019687148015613cc35750601054155b15613cce5760108890555b50505050505b600101613b90565b508015613ce95760118290555b5050505050565b6017546018546000919080613d3957604051600160e51b62461bcd028152600401808060200182810382526026815260200180614b6f6026913960400191505060405180910390fd5b80421115613d52578181420381613d4c57fe5b04613d55565b60005b9250505090565b600e5460009082906001600160a01b031682613d788284614637565b9095509350905083613d905750600092506115189050565b6001600160a01b0382166000908152600b602052604090208054600c5460095484821115613dbc578491505b6014545b83811015613f265787613de55760099190915560145550600095506115189350505050565b87600190039750600060076000878481548110613dfe57fe5b60009182526020808320909101546001600160a01b031683528201929092526040018120915080613e31838b8b89614754565b9092509050613e46858363ffffffff613b1f16565b94508015613e5657505050613f1e565b6001600160a01b038a1660009081526005840160205260409020805460ff19169055875488906000198901908110613e8a57fe5b9060005260206000200160009054906101000a90046001600160a01b0316888581548110613eb457fe5b9060005260206000200160006101000a8154816001600160a01b0302191690836001600160a01b0316021790555087805480613eec57fe5b600082815260209020810160001990810180546001600160a01b03191690559081019091559687019693909301925050505b600101613dc0565b506000600c819055600d819055600e80546001600160a01b0319169055600981905560148190556015805460ff1916905560015460408051600160e31b630852cd8d0281526004810185905290516001600160a01b03909216926342966c68926024808401936020939083900390910190829087803b158015613fa857600080fd5b505af1158015613fbc573d6000803e3d6000fd5b505050506040513d6020811015613fd257600080fd5b5050604080518281526020810187905281516001600160a01b038916927f23ff0e75edf108e3d0392d92e13e8c8a868ef19001bd49f9e94876dc46dff87f928290030190a250600196505050505050915091565b601260209081527f7e7fa33969761a458e04f477e039a608702b4f924981d6653935a8319a08ad7f54600081815260408082206003808201546001600160a01b039081168086526007885284862060028501548154931680885293810190985293852054959692959394929391929091908183106140a457816140a6565b825b875490915060008183106140ba57816140bc565b825b90506140ce838263ffffffff613ad616565b6001600160a01b038716600090815260038901602090815260408083209390935560048a0190522054614107818463ffffffff613ad616565b886004016000896001600160a01b03166001600160a01b031681526020019081526020016000208190555089600401546012600080815260200190815260200160002060040181905550601260008c815260200190815260200160002060008082016000905560018201600090556002820160006101000a8154906001600160a01b0302191690556003820160006101000a8154906001600160a01b03021916905560048201600090555050886001600160a01b0316876001600160a01b03167fd8654fcc8cf5b36d30b3f5e4688fc78118e6d68de60b9994e09902268b57c3e3856040518082815260200191505060405180910390a35050505050505050505050565b6010546000908152600f60205260408120600281015481548492916001600160a01b0316908461423b8386614637565b909750955090508561425557506000945061151892505050565b6001600160a01b0383166000908152600b602052604090208054600a546014545b828110156143dd578861429c57600a919091556014555060009650611518945050505050565b8860019003985060008482815481106142b157fe5b60009182526020822001546001600160a01b03169150806142d4838b8b8b614810565b9150915080600014156143bf576001600160a01b038084166000908152600760209081526040808320938e168352600584019091529020805460ff1916905587548890600019890190811061432557fe5b9060005260206000200160009054906101000a90046001600160a01b031688868154811061434f57fe5b9060005260206000200160006101000a8154816001600160a01b0302191690836001600160a01b031602179055508780548061438757fe5b600082815260209020810160001990810180546001600160a01b0319169055908101909155968701969490940193506143d592505050565b6143cf858363ffffffff613b1f16565b94505050505b600101614276565b50601080546000908152600f602052604081208181556001808201839055600290910180546001600160a01b0319169055600a8290556014919091556015805460ff19169055601154825490910191829055101561443b5760006010555b60025460408051600160e01b6340c10f190281523060048201526024810184905290516001600160a01b03909216916340c10f199160448082019260009290919082900301818387803b15801561449157600080fd5b505af11580156144a5573d6000803e3d6000fd5b5050604080518481526020810188905281516001600160a01b038b1694507f291e8ba3c0f4b0bd86e6e2346fcee1e7ca0975b1cc1886bfbc722d34f3f24d9193509081900390910190a25060019750505050505050915091565b6000613b1883836040518060400160405280601a81526020017f536166654d6174683a206469766973696f6e206279207a65726f0000000000008152506148c4565b60008261455057506000611239565b8282028284828161455d57fe5b0414613b1857604051600160e51b62461bcd028152600401808060200182810382526021815260200180614b4e6021913960400191505060405180910390fd5b6000818484111561462f57604051600160e51b62461bcd0281526004018080602001828103825283818151815260200191508051906020019080838360005b838110156145f45781810151838201526020016145dc565b50505050905090810190601f1680156146215780820380516001836020036101000a031916815260200191505b509250505060405180910390fd5b505050900390565b6015546000908190839060ff16156146575760085492506001915061474d565b6001600160a01b0385166000908152600b60205260409020805460145480156146805760085495505b805b8281101561472c57846146a35760145550505060088390556000915061474d565b846001900394506000600760008684815481106146bc57fe5b60009182526020808320909101546001600160a01b03908116845283820194909452604092830182208054948f16835260038101909152919020549092508082106147075780614709565b815b905061471b8a8263ffffffff613b1f16565b995050600190920191506146829050565b5050506008849055506015805460ff19166001908117909155600060145591505b9250925092565b6000808080851561478957505085546001600160a01b0386166000908152600388016020526040902054818111156147895750805b8486146147c9576147b0866147a4838863ffffffff61454116565b9063ffffffff6144ff16565b93506147c2818563ffffffff613ad616565b92506147cd565b8093505b83156147e6576147e3828563ffffffff613ad616565b88555b50506001600160a01b03909416600090815260039095016020526040909420839055509192909150565b6001600160a01b038085166000908152600760209081526040808320805494881684526003810190925282205491928083111561484b578092505b841580614856575082155b1561488457506001600160a01b038616600090815260039091016020526040812081905591508190506148bb565b614898856147a4888663ffffffff61454116565b60018301549094506148b0908563ffffffff613b1f16565b826001018190555050505b94509492505050565b6000818361491657604051600160e51b62461bcd0281526020600482018181528351602484015283519092839260449091019190850190808383600083156145f45781810151838201526020016145dc565b50600083858161492257fe5b049594505050505056fe556e61626c6520746f20657865637574652072657175657374207769746820756e70726f636573736564206275726e73436f6e7472616374732061727261792073686f756c64206e6f7420636f6e7461696e206475706c6963617465734e65787420756e7374616b6520726571756573742074696d65206d7573742062652067726561746572207468616e206e657720756e7374616b6520726571756573742074696d65556e61626c6520746f20657865637574652072657175657374207769746820756e70726f63657373656420616374696f6e73436f6e74726163747320616e6420616d6f756e7473206172726179732073686f756c642068617665207468652073616d65206c656e67746852657175657374656420616d6f756e742065786365656473206d617820776974686472617761626c6520616d6f756e74496e76616c696420756e7374616b6520726571756573742069642070726f766964656453797374656d20697320706175736564000000000000000000000000000000004e6577207374616b65732073686f756c642062652067726561746572207468616e20304e6f7468696e6720746f20756e7374616b65206f6e207468697320636f6e74726163746e657875736d757475616c2e706f6f6c65647374616b696e672e4d4947524154494f4e5f4c4153545f49445f504f494e5445525245574152445f524f554e44535f535441525420616c726561647920696e697469616c697a6564536166654d6174683a206d756c7469706c69636174696f6e206f766572666c6f775245574152445f524f554e44535f5354415254206973206e6f7420696e697469616c697a6564436f6e74726163747320616e64207374616b6573206172726179732073686f756c642068617665207468652073616d65206c656e677468556e7374616b656420616d6f756e742063616e6e6f74206265206c657373207468616e206d696e696d756d20756e7374616b6520616d6f756e7450726f766964656420756e7374616b6520726571756573742069642073686f756c64206e6f7420626520616e20656d70747920736c6f7443616c6c6572206973206e6f7420617574686f72697a656420746f20676f7665726e43616c6c6572206973206e6f7420616e20696e7465726e616c20636f6e7472616374436f6e7472616374206973206e6f7420696e697469616c697a656400000000005374616b696e67206f6e20666577657220636f6e747261637473206973206e6f7420616c6c6f776564556e7374616b6520726571756573742074696d65206d7573742062652067726561746572206f7220657175616c20746f2070726576696f757320756e7374616b65207265717565737452656d61696e696e67207374616b652063616e6e6f74206265206c657373207468616e206d696e696d756d20756e7374616b6520616d6f756e744e6577207374616b65206973206c657373207468616e2070726576696f7573207374616b65546f74616c207374616b652065786365656473206d6178696d756d20616c6c6f776564a165627a7a72305820b2421f1fa9dbabacf9cd72d139e1cafcf624ca293dfa2e76838c42a3ce987d980029",
  "compiler": {
    "name": "solc",
    "version": "0.5.7+commit.6da8b019.Emscripten.clang",
    "optimizer": {
      "enabled": true,
      "runs": 200
    },
    "evmVersion": "petersburg"
  }
}