{
  "fileName": "DisposableNXMaster.sol",
  "contractName": "DisposableNXMaster",
  "source": "pragma solidity ^0.5.0;\n\nimport \"../modules/governance/NXMaster.sol\";\n\ncontract DisposableNXMaster is NXMaster {\n\n  function initialize(\n    address _owner,\n    address _tokenAddress,\n    uint _pauseTime,\n    bytes2[] calldata _contractNames,\n    uint8[] calldata _contractTypes, // 0 - eternal storage, 1 - \"upgradable\", 2 - proxy\n    address payable[] calldata _contractAddresses\n  ) external {\n\n    require(!constructorCheck, \"Already initialized\");\n    constructorCheck = true;\n    masterInitialized = true;\n\n    owner = _owner;\n    tokenAddress = _tokenAddress;\n    pauseTime = _pauseTime;\n\n    masterAddress = address(this);\n    contractsActive[address(this)] = true;\n\n    require(\n      _contractNames.length == _contractTypes.length,\n      \"contract names and types arrays should have the same length\"\n    );\n\n    for (uint i = 0; i < _contractNames.length; i++) {\n\n      bytes2 name = _contractNames[i];\n      address payable contractAddress = _contractAddresses[i];\n\n      allContractNames.push(name);\n      allContractVersions[name] = contractAddress;\n      contractsActive[contractAddress] = true;\n\n      if (_contractTypes[i] == 1) {\n        isUpgradable[name] = true;\n      } else if (_contractTypes[i] == 2) {\n        isProxy[name] = true;\n      }\n\n    }\n  }\n\n  function switchGovernanceAddress(address payable newGV) external {\n    address currentGV = allContractVersions[\"GV\"];\n    allContractVersions[\"GV\"] = newGV;\n    contractsActive[currentGV] = false;\n    contractsActive[newGV] = true;\n  }\n\n  function changeAllAddress() external {\n    for (uint i = 0; i < allContractNames.length; i++) {\n      bytes2 name = allContractNames[i];\n      address _address = allContractVersions[name];\n      Iupgradable up = Iupgradable(_address);\n      up.changeMasterAddress(address(this));\n      up.changeDependentContractAddress();\n    }\n  }\n\n}\n",
  "sourcePath": "contracts/mocks/DisposableNXMaster.sol",
  "abi": [
    {
      "constant": true,
      "inputs": [
        {
          "name": "_contractName",
          "type": "bytes2"
        }
      ],
      "name": "getLatestAddress",
      "outputs": [
        {
          "name": "contractAddress",
          "type": "address"
        }
      ],
      "payable": false,
      "stateMutability": "view",
      "type": "function"
    },
    {
      "constant": true,
      "inputs": [],
      "name": "pauseTime",
      "outputs": [
        {
          "name": "",
          "type": "uint256"
        }
      ],
      "payable": false,
      "stateMutability": "view",
      "type": "function"
    },
    {
      "constant": true,
      "inputs": [
        {
          "name": "",
          "type": "address"
        }
      ],
      "name": "contractsActive",
      "outputs": [
        {
          "name": "",
          "type": "bool"
        }
      ],
      "payable": false,
      "stateMutability": "view",
      "type": "function"
    },
    {
      "constant": false,
      "inputs": [
        {
          "name": "_owner",
          "type": "address"
        },
        {
          "name": "_tokenAddress",
          "type": "address"
        },
        {
          "name": "_pauseTime",
          "type": "uint256"
        },
        {
          "name": "_contractNames",
          "type": "bytes2[]"
        },
        {
          "name": "_contractTypes",
          "type": "uint8[]"
        },
        {
          "name": "_contractAddresses",
          "type": "address[]"
        }
      ],
      "name": "initialize",
      "outputs": [],
      "payable": false,
      "stateMutability": "nonpayable",
      "type": "function"
    },
    {
      "constant": false,
      "inputs": [
        {
          "name": "_tokenAdd",
          "type": "address"
        }
      ],
      "name": "initiateMaster",
      "outputs": [],
      "payable": false,
      "stateMutability": "nonpayable",
      "type": "function"
    },
    {
      "constant": true,
      "inputs": [
        {
          "name": "_toCheck",
          "type": "address"
        }
      ],
      "name": "isAuthorizedToGovern",
      "outputs": [
        {
          "name": "",
          "type": "bool"
        }
      ],
      "payable": false,
      "stateMutability": "view",
      "type": "function"
    },
    {
      "constant": false,
      "inputs": [
        {
          "name": "_contractName",
          "type": "bytes2"
        },
        {
          "name": "_contractAddress",
          "type": "address"
        },
        {
          "name": "_type",
          "type": "uint256"
        }
      ],
      "name": "addNewInternalContract",
      "outputs": [],
      "payable": false,
      "stateMutability": "nonpayable",
      "type": "function"
    },
    {
      "constant": true,
      "inputs": [],
      "name": "getLastEmergencyPause",
      "outputs": [
        {
          "name": "_pause",
          "type": "bool"
        },
        {
          "name": "_time",
          "type": "uint256"
        },
        {
          "name": "_by",
          "type": "bytes4"
        }
      ],
      "payable": false,
      "stateMutability": "view",
      "type": "function"
    },
    {
      "constant": true,
      "inputs": [
        {
          "name": "_address",
          "type": "address"
        }
      ],
      "name": "isOwner",
      "outputs": [
        {
          "name": "",
          "type": "bool"
        }
      ],
      "payable": false,
      "stateMutability": "view",
      "type": "function"
    },
    {
      "constant": true,
      "inputs": [],
      "name": "dAppLocker",
      "outputs": [
        {
          "name": "_add",
          "type": "address"
        }
      ],
      "payable": false,
      "stateMutability": "view",
      "type": "function"
    },
    {
      "constant": true,
      "inputs": [
        {
          "name": "",
          "type": "bytes2"
        }
      ],
      "name": "isProxy",
      "outputs": [
        {
          "name": "",
          "type": "bool"
        }
      ],
      "payable": false,
      "stateMutability": "view",
      "type": "function"
    },
    {
      "constant": false,
      "inputs": [
        {
          "name": "_contractNames",
          "type": "bytes2[]"
        },
        {
          "name": "_contractAddresses",
          "type": "address[]"
        }
      ],
      "name": "upgradeMultipleImplementations",
      "outputs": [],
      "payable": false,
      "stateMutability": "nonpayable",
      "type": "function"
    },
    {
      "constant": true,
      "inputs": [
        {
          "name": "_add",
          "type": "address"
        }
      ],
      "name": "checkIsAuthToGoverned",
      "outputs": [
        {
          "name": "",
          "type": "bool"
        }
      ],
      "payable": false,
      "stateMutability": "view",
      "type": "function"
    },
    {
      "constant": false,
      "inputs": [
        {
          "name": "newGV",
          "type": "address"
        }
      ],
      "name": "switchGovernanceAddress",
      "outputs": [],
      "payable": false,
      "stateMutability": "nonpayable",
      "type": "function"
    },
    {
      "constant": true,
      "inputs": [
        {
          "name": "",
          "type": "uint256"
        }
      ],
      "name": "emergencyPaused",
      "outputs": [
        {
          "name": "pause",
          "type": "bool"
        },
        {
          "name": "time",
          "type": "uint256"
        },
        {
          "name": "by",
          "type": "bytes4"
        }
      ],
      "payable": false,
      "stateMutability": "view",
      "type": "function"
    },
    {
      "constant": false,
      "inputs": [
        {
          "name": "_time",
          "type": "uint256"
        }
      ],
      "name": "updatePauseTime",
      "outputs": [],
      "payable": false,
      "stateMutability": "nonpayable",
      "type": "function"
    },
    {
      "constant": false,
      "inputs": [],
      "name": "startEmergencyPause",
      "outputs": [],
      "payable": false,
      "stateMutability": "nonpayable",
      "type": "function"
    },
    {
      "constant": true,
      "inputs": [],
      "name": "owner",
      "outputs": [
        {
          "name": "",
          "type": "address"
        }
      ],
      "payable": false,
      "stateMutability": "view",
      "type": "function"
    },
    {
      "constant": false,
      "inputs": [
        {
          "name": "myid",
          "type": "bytes32"
        }
      ],
      "name": "delegateCallBack",
      "outputs": [],
      "payable": false,
      "stateMutability": "nonpayable",
      "type": "function"
    },
    {
      "constant": true,
      "inputs": [
        {
          "name": "_contractAddress",
          "type": "address"
        }
      ],
      "name": "isInternal",
      "outputs": [
        {
          "name": "",
          "type": "bool"
        }
      ],
      "payable": false,
      "stateMutability": "view",
      "type": "function"
    },
    {
      "constant": true,
      "inputs": [],
      "name": "tokenAddress",
      "outputs": [
        {
          "name": "",
          "type": "address"
        }
      ],
      "payable": false,
      "stateMutability": "view",
      "type": "function"
    },
    {
      "constant": true,
      "inputs": [
        {
          "name": "_add",
          "type": "address"
        }
      ],
      "name": "isMember",
      "outputs": [
        {
          "name": "",
          "type": "bool"
        }
      ],
      "payable": false,
      "stateMutability": "view",
      "type": "function"
    },
    {
      "constant": false,
      "inputs": [
        {
          "name": "_contractAddresses",
          "type": "address[]"
        }
      ],
      "name": "addNewVersion",
      "outputs": [],
      "payable": false,
      "stateMutability": "nonpayable",
      "type": "function"
    },
    {
      "constant": false,
      "inputs": [
        {
          "name": "_contractsName",
          "type": "bytes2[]"
        },
        {
          "name": "_contractsAddress",
          "type": "address[]"
        }
      ],
      "name": "upgradeMultipleContracts",
      "outputs": [],
      "payable": false,
      "stateMutability": "nonpayable",
      "type": "function"
    },
    {
      "constant": true,
      "inputs": [
        {
          "name": "code",
          "type": "bytes8"
        }
      ],
      "name": "getOwnerParameters",
      "outputs": [
        {
          "name": "codeVal",
          "type": "bytes8"
        },
        {
          "name": "val",
          "type": "address"
        }
      ],
      "payable": false,
      "stateMutability": "view",
      "type": "function"
    },
    {
      "constant": true,
      "inputs": [],
      "name": "masterInitialized",
      "outputs": [
        {
          "name": "",
          "type": "bool"
        }
      ],
      "payable": false,
      "stateMutability": "view",
      "type": "function"
    },
    {
      "constant": false,
      "inputs": [
        {
          "name": "_claimId",
          "type": "uint256"
        }
      ],
      "name": "closeClaim",
      "outputs": [],
      "payable": false,
      "stateMutability": "nonpayable",
      "type": "function"
    },
    {
      "constant": true,
      "inputs": [],
      "name": "getVersionData",
      "outputs": [
        {
          "name": "contractsName",
          "type": "bytes2[]"
        },
        {
          "name": "contractsAddress",
          "type": "address[]"
        }
      ],
      "payable": false,
      "stateMutability": "view",
      "type": "function"
    },
    {
      "constant": false,
      "inputs": [],
      "name": "changeAllAddress",
      "outputs": [],
      "payable": false,
      "stateMutability": "nonpayable",
      "type": "function"
    },
    {
      "constant": true,
      "inputs": [],
      "name": "masterAddress",
      "outputs": [
        {
          "name": "",
          "type": "address"
        }
      ],
      "payable": false,
      "stateMutability": "view",
      "type": "function"
    },
    {
      "constant": false,
      "inputs": [
        {
          "name": "code",
          "type": "bytes8"
        },
        {
          "name": "val",
          "type": "address"
        }
      ],
      "name": "updateOwnerParameters",
      "outputs": [],
      "payable": false,
      "stateMutability": "nonpayable",
      "type": "function"
    },
    {
      "constant": true,
      "inputs": [],
      "name": "dAppToken",
      "outputs": [
        {
          "name": "_add",
          "type": "address"
        }
      ],
      "payable": false,
      "stateMutability": "view",
      "type": "function"
    },
    {
      "constant": true,
      "inputs": [
        {
          "name": "",
          "type": "bytes2"
        }
      ],
      "name": "isUpgradable",
      "outputs": [
        {
          "name": "",
          "type": "bool"
        }
      ],
      "payable": false,
      "stateMutability": "view",
      "type": "function"
    },
    {
      "constant": true,
      "inputs": [],
      "name": "getEmergencyPausedLength",
      "outputs": [
        {
          "name": "len",
          "type": "uint256"
        }
      ],
      "payable": false,
      "stateMutability": "view",
      "type": "function"
    },
    {
      "constant": true,
      "inputs": [],
      "name": "isPause",
      "outputs": [
        {
          "name": "",
          "type": "bool"
        }
      ],
      "payable": false,
      "stateMutability": "view",
      "type": "function"
    },
    {
      "constant": false,
      "inputs": [
        {
          "name": "_pause",
          "type": "bool"
        },
        {
          "name": "_by",
          "type": "bytes4"
        }
      ],
      "name": "addEmergencyPause",
      "outputs": [],
      "payable": false,
      "stateMutability": "nonpayable",
      "type": "function"
    }
  ],
  "bytecode": "0x608060405234801561001057600080fd5b50614f55806100206000396000f3fe60806040523480156200001157600080fd5b5060043610620002505760003560e01c80638dd7ff9a1162000141578063c74de06511620000bd578063eaf2c4771162000087578063eaf2c4771462000a82578063fa00d8841462000a8c578063fa3c8a901462000ab6578063ff0938a71462000ac0578063ffa399291462000aca5762000250565b8063c74de065146200098e578063d04e13711462000a35578063d365a08e1462000a3f578063e2cab14d1462000a495762000250565b8063a97ea794116200010b578063a97ea794146200073b578063b96a899514620007e2578063bf1f2819146200090e578063c15041d51462000964578063c3e4d672146200096e5762000250565b80638dd7ff9a14620006bf5780638f16c41c14620006df5780639d76ea581462000708578063a230c52414620007125762000250565b80633a12507f11620001d15780636fc4ed4c116200019b5780636fc4ed4c146200064257806371a2b7f7146200066b57806378ddbed4146200068b578063872f1eb314620006ab5780638da5cb5b14620006b55762000250565b80633a12507f146200051e57806344d479e7146200052857806347f4f88514620005525780635834e67a14620006195762000250565b80631593e7fc116200021f5780631593e7fc146200043057806322ce725414620004595780632c72135314620004825780632d4c115214620004c15780632f54bf6e14620004f55762000250565b8063013828581462000255578063015cb3ff146200029b57806301c09f1414620002b7578063066261d814620002f4575b600080fd5b6200027f600480360360208110156200026d57600080fd5b50356001600160f01b03191662000afc565b604080516001600160a01b039092168252519081900360200190f35b620002a562000b21565b60408051918252519081900360200190f35b620002e060048036036020811015620002cf57600080fd5b50356001600160a01b031662000b27565b604080519115158252519081900360200190f35b6200042e600480360360c08110156200030c57600080fd5b6001600160a01b03823581169260208101359091169160408201359190810190608081016060820135600160201b8111156200034757600080fd5b8201836020820111156200035a57600080fd5b803590602001918460208302840111600160201b831117156200037c57600080fd5b919390929091602081019035600160201b8111156200039a57600080fd5b820183602082011115620003ad57600080fd5b803590602001918460208302840111600160201b83111715620003cf57600080fd5b919390929091602081019035600160201b811115620003ed57600080fd5b8201836020820111156200040057600080fd5b803590602001918460208302840111600160201b831117156200042257600080fd5b50909250905062000b3c565b005b6200042e600480360360208110156200044857600080fd5b50356001600160a01b031662000e6c565b620002e0600480360360208110156200047157600080fd5b50356001600160a01b03166200143c565b6200042e600480360360608110156200049a57600080fd5b506001600160f01b0319813516906001600160a01b036020820135169060400135620014d9565b620004cb62001845565b60408051931515845260208401929092526001600160e01b03191682820152519081900360600190f35b620002e0600480360360208110156200050d57600080fd5b50356001600160a01b0316620018ea565b6200027f620018fe565b620002e0600480360360208110156200054057600080fd5b50356001600160f01b03191662001918565b6200042e600480360360408110156200056a57600080fd5b810190602081018135600160201b8111156200058557600080fd5b8201836020820111156200059857600080fd5b803590602001918460208302840111600160201b83111715620005ba57600080fd5b919390929091602081019035600160201b811115620005d857600080fd5b820183602082011115620005eb57600080fd5b803590602001918460208302840111600160201b831117156200060d57600080fd5b5090925090506200192d565b620002e0600480360360208110156200063157600080fd5b50356001600160a01b031662001c55565b6200042e600480360360208110156200065a57600080fd5b50356001600160a01b031662001c68565b620004cb600480360360208110156200068357600080fd5b503562001cd5565b6200042e60048036036020811015620006a357600080fd5b503562001d0d565b6200042e62001d72565b6200027f62001f98565b6200042e60048036036020811015620006d757600080fd5b503562001fa7565b620002e060048036036020811015620006f757600080fd5b50356001600160a01b0316620028ce565b6200027f620028ec565b620002e0600480360360208110156200072a57600080fd5b50356001600160a01b0316620028fb565b6200042e600480360360208110156200075357600080fd5b810190602081018135600160201b8111156200076e57600080fd5b8201836020820111156200078157600080fd5b803590602001918460208302840111600160201b83111715620007a357600080fd5b919080806020026020016040519081016040528093929190818152602001838360200280828437600092019190915250929550620029a8945050505050565b6200042e60048036036040811015620007fa57600080fd5b810190602081018135600160201b8111156200081557600080fd5b8201836020820111156200082857600080fd5b803590602001918460208302840111600160201b831117156200084a57600080fd5b9190808060200260200160405190810160405280939291908181526020018383602002808284376000920191909152509295949360208101935035915050600160201b8111156200089a57600080fd5b820183602082011115620008ad57600080fd5b803590602001918460208302840111600160201b83111715620008cf57600080fd5b91908080602002602001604051908101604052809392919081815260200183836020028082843760009201919091525092955062002d30945050505050565b62000938600480360360208110156200092657600080fd5b50356001600160c01b03191662003567565b604080516001600160c01b031990931683526001600160a01b0390911660208301528051918290030190f35b620002e0620038e4565b6200042e600480360360208110156200098657600080fd5b5035620038f4565b62000998620039c7565b604051808060200180602001838103835285818151815260200191508051906020019060200280838360005b83811015620009de578181015183820152602001620009c4565b50505050905001838103825284818151815260200191508051906020019060200280838360005b8381101562000a1f57818101518382015260200162000a05565b5050505090500194505050505060405180910390f35b6200042e62003b1a565b6200027f62003c43565b6200042e6004803603604081101562000a6157600080fd5b5080356001600160c01b03191690602001356001600160a01b031662003c52565b6200027f620041ea565b620002e06004803603602081101562000aa457600080fd5b50356001600160f01b031916620041f9565b620002a56200420e565b620002e062004214565b6200042e6004803603604081101562000ae257600080fd5b508035151590602001356001600160e01b03191662004250565b6001600160f01b0319166000908152600460205260409020546001600160a01b031690565b60095481565b60036020526000908152604090205460ff1681565b600a5460ff161562000b985760408051600160e51b62461bcd02815260206004820152601360248201527f416c726561647920696e697469616c697a656400000000000000000000000000604482015290519081900360640190fd5b6001600a60006101000a81548160ff0219169083151502179055506001600760156101000a81548160ff02191690831515021790555088600860006101000a8154816001600160a01b0302191690836001600160a01b0316021790555087600760006101000a8154816001600160a01b0302191690836001600160a01b0316021790555086600981905550306000806101000a8154816001600160a01b0302191690836001600160a01b03160217905550600160036000306001600160a01b03166001600160a01b0316815260200190815260200160002060006101000a81548160ff02191690831515021790555083839050868690501462000cd057604051600160e51b62461bcd02815260040180806020018281038252603b81526020018062004eef603b913960400191505060405180910390fd5b60005b8581101562000e6057600087878381811062000ceb57fe5b905060200201356001600160f01b0319169050600084848481811062000d0d57fe5b6002805460018181018355601082047f405787fa12a823e0f2b7631cc41b3ba8828b3321ca811111fa75cd3aa3bb5ace01805460f08a901c600f9094169094026101000a92830261ffff90930219909316919091179091556001600160f01b03198616600090815260046020908152604080832080546001600160a01b0319166001600160a01b039684029890980135959095169687179094558582526003905291909120805460ff1916909117905550905086868481811062000dcd57fe5b9050602002013560ff1660ff166001141562000e0d576001600160f01b031982166000908152600660205260409020805460ff1916600117905562000e55565b86868481811062000e1a57fe5b9050602002013560ff1660ff166002141562000e55576001600160f01b031982166000908152600560205260409020805460ff191660011790555b505060010162000cd3565b50505050505050505050565b6000309050806001600160a01b031663025313a26040518163ffffffff1660e01b815260040160206040518083038186803b15801562000eab57600080fd5b505afa15801562000ec0573d6000803e3d6000fd5b505050506040513d602081101562000ed757600080fd5b50516001600160a01b0316331462000f395760408051600160e51b62461bcd02815260206004820152601a60248201527f53656e646572206973206e6f742070726f7879206f776e65722e000000000000604482015290519081900360640190fd5b600a5460ff161562000f955760408051600160e51b62461bcd02815260206004820152601860248201527f436f6e7374727563746f7220616c72656164792072616e2e0000000000000000604482015290519081900360640190fd5b50600a805460ff199081166001908117909255600780546001600160a01b039094166001600160a01b031994851617905560088054841633179055600080549093163090811784558352600360209081526040842080548316841790556224ea0060095560028054808501825560108082047f405787fa12a823e0f2b7631cc41b3ba8828b3321ca811111fa75cd3aa3bb5ace9081018054615144600f958616870261010090810a91820261ffff92830219909316929092179092558554808a018755848104840180546154449288168902840a92830292850219169190911790558554808a018755848104840180546143449288168902840a92830292850219169190911790558554808a018755848104840180546150449288168902840a92830292850219169190911790558554808a018755848104840180546151549288168902840a92830292850219169190911790558554808a018755848104840180546154469288168902840a92830292850219169190911790558554808a018755848104840180546154439288168902840a92830292850219169190911790558554808a0187558481048401805461434c9288168902840a92830292850219169190911790558554808a018755848104840180546143529288168902840a92830292850219169190911790558554808a018755848104840180546150319288168902840a92830292850219169190911790558554808a018755848104840180546150329288168902840a92830292850219169190911790558554808a01875584810484018054614d439288168902840a92830292850219169190911790558554808a018755848104840180546147569288168902840a92830292850219169190911790558554808a018755848104840180546150439288168902840a92830292850219169190911790558554808a0187559384049092018054614d529490951690950290910a9182029102199091161790557fa4e06c9270ca5d91a9c42425a0d9d6b8bab7d176f826788ef45adbd62b8668b080548316841790557f572f2f4f7145bdb0a843d6115e9ce469dd3e98085dea06b838389b6ea83f4a5280548316841790557f05f4eda2cc2212af7e847583f7a9d9453228a4affba4d7295fdc22180904375080548316841790557fe6628e527cc9b86d0d7bdb48ff37c9e2a22780087ea871f8d3422104c17bbd1180548316841790557fce0ee55b9b973205227b71b89c5a51200f6f740af2e35cd5bc2986df74ecaadc80548316841790557f1091cd77902cd13d833530bb2aacb3ce010113ef80e3650a198cda4ac61141fb80548316841790557f72b983e1791f172486298016d1db34f85432a011d8a96396243f2c744d825f048054831684179055600590527f70ad5881489813e00231a9fbec33d433db794bc50171aa2fe63e01d6c70cd1e880548216831790557fff0bd943096624e2e1571cbbca4031431b1cf0180e6c5858b8df8b140e5ba4ca80548216831790557f50fc44ab35440e3c8207167a7417f7d29be830bc0ad340eceaa6c93ca2cdb7bb8054821683179055600160f11b6126a9029092527f0fd8fc8935b1eee8a0a8c559390e5c55f8aa70a933933f296f0d51813220e6b58054909216179055565b6000805460408051600160e31b6227050b028152600160f11b6123ab02600482015290516001600160a01b03928316928516918391630138285891602480820192602092909190829003018186803b1580156200149857600080fd5b505afa158015620014ad573d6000803e3d6000fd5b505050506040513d6020811015620014c457600080fd5b50516001600160a01b0316149150505b919050565b60005460408051600160e31b6227050b028152600160f11b6123ab02600482015290516001600160a01b039092169133918391630138285891602480820192602092909190829003018186803b1580156200153357600080fd5b505afa15801562001548573d6000803e3d6000fd5b505050506040513d60208110156200155f57600080fd5b50516001600160a01b031614620015b45760408051600160e51b62461bcd02815260206004820152600e6024820152600160921b6d139bdd08185d5d1a1bdc9a5e995902604482015290519081900360640190fd5b6001600160f01b031984166000908152600460205260409020546001600160a01b0316156200161857604051600160e51b62461bcd02815260040180806020018281038252602381526020018062004e926023913960400191505060405180910390fd5b6001600160a01b038316620016775760408051600160e51b62461bcd02815260206004820152601c60248201527f4e554c4c2061646472657373206973206e6f7420616c6c6f7765642e00000000604482015290519081900360640190fd5b60028054600181810183556000839052601082047f405787fa12a823e0f2b7631cc41b3ba8828b3321ca811111fa75cd3aa3bb5ace01805460f089901c600f9094169094026101000a92830261ffff9093021990931691909117909155839083141562001708576001600160f01b031985166000908152600660205260409020805460ff1916600117905562001744565b826002141562001744576200171d846200452e565b6001600160f01b031986166000908152600560205260409020805460ff1916600117905590505b6001600160f01b03198516600081815260046020818152604080842080546001600160a01b0319166001600160a01b03888116918217835590865260038452828620805460ff191660011790559585529183905290548151600160e21b633519957d02815230938101939093529051931692839263d46655f4926024808201939182900301818387803b158015620017db57600080fd5b505af1158015620017f0573d6000803e3d6000fd5b50505050806001600160a01b0316630ea9c9846040518163ffffffff1660e01b8152600401600060405180830381600087803b1580156200183057600080fd5b505af115801562000e60573d6000803e3d6000fd5b6000808080620018546200420e565b90508015620018e4576200187081600163ffffffff6200457616565b9050600181815481106200188057fe5b60009182526020909120600390910201546001805460ff90921695509082908110620018a857fe5b906000526020600020906003020160010154925060018181548110620018ca57fe5b600091825260209091206002600390920201015460e01b91505b50909192565b6008546001600160a01b0391821691161490565b600062001913600160f01b6154430262000afc565b905090565b60056020526000908152604090205460ff1681565b60005460408051600160e31b6227050b028152600160f11b6123ab02600482015290516001600160a01b039092169133918391630138285891602480820192602092909190829003018186803b1580156200198757600080fd5b505afa1580156200199c573d6000803e3d6000fd5b505050506040513d6020811015620019b357600080fd5b50516001600160a01b03161462001a085760408051600160e51b62461bcd02815260206004820152600e6024820152600160921b6d139bdd08185d5d1a1bdc9a5e995902604482015290519081900360640190fd5b83821462001a605760408051600160e51b62461bcd02815260206004820152601d60248201527f4172726179206c656e6774682073686f756c6420626520657175616c2e000000604482015290519081900360640190fd5b60005b8481101562001c4d57600084848381811062001a7b57fe5b905060200201356001600160a01b03166001600160a01b0316141562001aeb5760408051600160e51b62461bcd02815260206004820152601c60248201527f6e756c6c2061646472657373206973206e6f7420616c6c6f7765642e00000000604482015290519081900360640190fd5b6005600087878481811062001afc57fe5b602090810292909201356001600160f01b0319168352508101919091526040016000205460ff1662001b785760408051600160e51b62461bcd02815260206004820152601960248201527f436f6e74726163742073686f756c642062652070726f78792e00000000000000604482015290519081900360640190fd5b60006004600088888581811062001b8b57fe5b602090810292909201356001600160f01b031916835250810191909152604001600020546001600160a01b0316905080633659cfe686868581811062001bcd57fe5b905060200201356001600160a01b03166040518263ffffffff1660e01b815260040180826001600160a01b03166001600160a01b03168152602001915050600060405180830381600087803b15801562001c2657600080fd5b505af115801562001c3b573d6000803e3d6000fd5b50506001909301925062001a63915050565b505050505050565b600062001c62826200143c565b92915050565b7f48b5d77e6708fd7f3423a4467845bea6010627a481f796e5f084bf79a1374f4d80546001600160a01b039283166001600160a01b03198216811790925591909116600090815260036020526040808220805460ff19908116909155928252902080549091166001179055565b6001818154811062001ce357fe5b600091825260209091206003909102018054600182015460029092015460ff909116925060e01b83565b62001d1833620028ce565b62001d6d5760408051600160e51b62461bcd02815260206004820152601260248201527f4e6f7420696e7465726e616c2063616c6c2e0000000000000000000000000000604482015290519081900360640190fd5b600955565b60005460408051600160e31b6227050b028152600160f11b6123ab02600482015290516001600160a01b039092169133918391630138285891602480820192602092909190829003018186803b15801562001dcc57600080fd5b505afa15801562001de1573d6000803e3d6000fd5b505050506040513d602081101562001df857600080fd5b50516001600160a01b03161462001e4d5760408051600160e51b62461bcd02815260206004820152600e6024820152600160921b6d139bdd08185d5d1a1bdc9a5e995902604482015290519081900360640190fd5b62001e626001600160f11b6120a10262004250565b600160f01b615031026000908152600460208190527f65e528c366d24fe1267504a3fd0d0e6ee46d1498cc6709837295d0fa5e6286545460095460408051600160e31b631b1d4d6102815293840191909152516001600160a01b0390911692839263d8ea6b08926024808301939282900301818387803b15801562001ee657600080fd5b505af115801562001efb573d6000803e3d6000fd5b5050600160f21b6110d3026000908152600460208190527f50dbf33991a9c6292dc70c7475ec00e23dd381ac44ce9260861463e58f0f3b705460408051600160e01b633802167102815290516001600160a01b0390921695508594506338021671938184019390929182900301818387803b15801562001f7a57600080fd5b505af115801562001f8f573d6000803e3d6000fd5b50505050505050565b6008546001600160a01b031681565b600754600160a01b900460ff16156200200a5760408051600160e51b62461bcd02815260206004820152600f60248201527f5265656e7472616e742063616c6c2e0000000000000000000000000000000000604482015290519081900360640190fd5b60078054600160a01b60ff021916600160a01b179055600062002035600160f21b6114110262000afc565b90506000816001600160a01b03166346583d09846040518263ffffffff1660e01b81526004018082815260200191505060206040518083038186803b1580156200207e57600080fd5b505afa15801562002093573d6000803e3d6000fd5b505050506040513d6020811015620020aa57600080fd5b505160408051600160e11b63193bdf4b02815260048101869052905167ffffffffffffffff90921692506000916001600160a01b03851691633277be96916024808301926020929190829003018186803b1580156200210857600080fd5b505afa1580156200211d573d6000803e3d6000fd5b505050506040513d60208110156200213457600080fd5b505167ffffffffffffffff1690508181146200219a5760408051600160e51b62461bcd02815260206004820152601960248201527f43616c6c6261636b20616c726561647920726563656976656400000000000000604482015290519081900360640190fd5b6000836001600160a01b031663fd3e44d5866040518263ffffffff1660e01b81526004018082815260200191505060206040518083038186803b158015620021e157600080fd5b505afa158015620021f6573d6000803e3d6000fd5b505050506040513d60208110156200220d57600080fd5b505160408051600160e01b6361b6c00f0281526004810188905290519192506001600160a01b038616916361b6c00f9160248082019260009290919082900301818387803b1580156200225f57600080fd5b505af115801562002274573d6000803e3d6000fd5b505050506200228262004214565b15620023d15760006200229462001845565b925050506001600160e01b03198216600160f41b6104550214620022ed57604051600160e51b62461bcd02815260040180806020018281038252603a81526020018062004eb5603a913960400191505060405180910390fd5b426200230560095486620045c190919063ffffffff16565b106200235b5760408051600160e51b62461bcd02815260206004820152601c60248201527f43616c6c6261636b207761732063616c6c656420746f6f20736f6f6e00000000604482015290519081900360640190fd5b600160f11b6120a1026001600160e01b0319821614620023b057604051600160e51b62461bcd02815260040180806020018281038252603281526020018062004e606032913960400191505060405180910390fd5b620023c66000600160ea1b621055550262004250565b5050505050620028bb565b6000846001600160a01b031663371e6e12876040518263ffffffff1660e01b81526004018082815260200191505060206040518083038186803b1580156200241857600080fd5b505afa1580156200242d573d6000803e3d6000fd5b505050506040513d60208110156200244457600080fd5b50519050600160e91b6221a7ab026001600160e01b031983161415620024e757600062002479600160f21b6114550262000afc565b9050806001600160a01b031663f4136f7f836040518263ffffffff1660e01b815260040180828152602001915050600060405180830381600087803b158015620024c257600080fd5b505af1158015620024d7573d6000803e3d6000fd5b50505050505050505050620028bb565b600160e81b62434c41026001600160e01b031983161415620025c1576200250e816200461f565b620025635760408051600160e51b62461bcd02815260206004820152601d60248201527f5061796f75742072657472792074696d65206e6f742072656163686564000000604482015290519081900360640190fd5b600062002578600160f11b6121a90262000afc565b9050806001600160a01b0316637f6715c9836040518263ffffffff1660e01b815260040180828152602001915050600060405180830381600087803b158015620024c257600080fd5b600160e11b6326a1a923026001600160e01b03198316141562002721574262002659866001600160a01b031663702ddaab6040518163ffffffff1660e01b815260040160206040518083038186803b1580156200261d57600080fd5b505afa15801562002632573d6000803e3d6000fd5b505050506040513d60208110156200264957600080fd5b5051869063ffffffff620045c116565b10620026af5760408051600160e51b62461bcd02815260206004820152601c60248201527f4d435220706f7374696e672074696d65206e6f74207265616368656400000000604482015290519081900360640190fd5b6000620026c4600160f01b614d430262000afc565b9050806001600160a01b03166380f34275836040518263ffffffff1660e01b8152600401808267ffffffffffffffff1667ffffffffffffffff168152602001915050600060405180830381600087803b158015620024c257600080fd5b600160ea1b62155315026001600160e01b0319831614156200282557426200277c866001600160a01b0316636549ff586040518163ffffffff1660e01b815260040160206040518083038186803b1580156200261d57600080fd5b10620027d25760408051600160e51b62461bcd02815260206004820181905260248201527f4c69717569646974792074726164652074696d65206e6f742072656163686564604482015290519081900360640190fd5b6000620027e7600160f11b6128190262000afc565b9050806001600160a01b031663f720036c6040518163ffffffff1660e01b8152600401600060405180830381600087803b158015620024c257600080fd5b600160e91b6226a1a9026001600160e01b0319831614806200285a5750600160e11b6324a0a921026001600160e01b03198316145b156200286b575050505050620028bb565b60408051600160e51b62461bcd02815260206004820152601060248201527f496e76616c69642063616c6c6261636b00000000000000000000000000000000604482015290519081900360640190fd5b5060078054600160a01b60ff0219169055565b6001600160a01b031660009081526003602052604090205460ff1690565b6007546001600160a01b031681565b60008062002911600160f11b6126a90262000afc565b90506001600160a01b03811663505ef22f8460026040518363ffffffff1660e01b815260040180836001600160a01b03166001600160a01b031681526020018281526020019250505060206040518083038186803b1580156200297357600080fd5b505afa15801562002988573d6000803e3d6000fd5b505050506040513d60208110156200299f57600080fd5b50519392505050565b6008546001600160a01b031633148015620029cd5750600754600160a81b900460ff16155b62002a0d57604051600160e51b62461bcd02815260040180806020018281038252603681526020018062004e2a6036913960400191505060405180910390fd5b60025481511462002a685760408051600160e51b62461bcd02815260206004820152601560248201527f6172726179206c656e677468206e6f742073616d650000000000000000000000604482015290519081900360640190fd5b60078054600160a81b60ff021916600160a81b17905580516000908290600e90811062002a9157fe5b6020026020010151905060008090505b60025481101562002c0a5760006001600160a01b031683828151811062002ac457fe5b60200260200101516001600160a01b0316141562002b2c5760408051600160e51b62461bcd02815260206004820152601c60248201527f4e554c4c2061646472657373206973206e6f7420616c6c6f7765642e00000000604482015290519081900360640190fd5b82818151811062002b3957fe5b6020026020010151600460006002848154811062002b5357fe5b90600052602060002090601091828204019190066002029054906101000a900460f01b6001600160f01b0319166001600160f01b031916815260200190815260200160002060006101000a8154816001600160a01b0302191690836001600160a01b0316021790555060016003600085848151811062002bcf57fe5b6020908102919091018101516001600160a01b03168252810191909152604001600020805460ff191691151591909117905560010162002aa1565b5060606001600160a01b038216635daf08ca60036040518263ffffffff1660e01b81526004018082815260200191505060006040518083038186803b15801562002c5357600080fd5b505afa15801562002c68573d6000803e3d6000fd5b505050506040513d6000823e601f3d908101601f19168201604090815281101562002c9257600080fd5b815160208301805191939283019291600160201b81111562002cb357600080fd5b8201602081018481111562002cc757600080fd5b81518560208202830111600160201b8211171562002ce457600080fd5b50509291905050509150508060008151811062002cfd57fe5b6020026020010151600860006101000a8154816001600160a01b0302191690836001600160a01b03160217905550505050565b60005460408051600160e31b6227050b028152600160f11b6123ab02600482015290516001600160a01b039092169133918391630138285891602480820192602092909190829003018186803b15801562002d8a57600080fd5b505afa15801562002d9f573d6000803e3d6000fd5b505050506040513d602081101562002db657600080fd5b50516001600160a01b03161462002e0b5760408051600160e51b62461bcd02815260206004820152600e6024820152600160921b6d139bdd08185d5d1a1bdc9a5e995902604482015290519081900360640190fd5b815183511462002e655760408051600160e51b62461bcd02815260206004820152601d60248201527f4172726179206c656e6774682073686f756c6420626520657175616c2e000000604482015290519081900360640190fd5b60005b83518110156200355757600083828151811062002e8157fe5b6020026020010151905060006001600160a01b0316816001600160a01b0316141562002ef75760408051600160e51b62461bcd02815260206004820152601c60248201527f4e554c4c2061646472657373206973206e6f7420616c6c6f7765642e00000000604482015290519081900360640190fd5b6006600086848151811062002f0857fe5b6020908102919091018101516001600160f01b03191682528101919091526040016000205460ff1662002f855760408051600160e51b62461bcd02815260206004820152601e60248201527f436f6e74726163742073686f756c642062652075706772616461626c652e0000604482015290519081900360640190fd5b84828151811062002f9257fe5b60200260200101516001600160f01b031916600160f21b6114550214156200305b57600160f21b611455026000908152600460208190527f1d549787ccb98156df3526786c57fb04170d054a2d956c25ea0d700f2f1ba36e5460408051600160e21b633898a65d0281526001600160a01b038681169482019490945290519290911692839263e262997492602480820193929182900301818387803b1580156200303b57600080fd5b505af115801562003050573d6000803e3d6000fd5b5050505050620033dc565b8482815181106200306857fe5b60200260200101516001600160f01b031916600160f11b6121a9021415620032555760006200309f600160f01b6154430262000afc565b9050806001600160a01b031663e43252d7836040518263ffffffff1660e01b815260040180826001600160a01b03166001600160a01b03168152602001915050600060405180830381600087803b158015620030fa57600080fd5b505af11580156200310f573d6000803e3d6000fd5b5050600160f11b6121a9026000908152600460208190527f81a16a8e02e895bc8f23c4b57164801632b22336e581fdbd05bc322b5dbf84745460408051600160e01b638ab1d6810281526001600160a01b0392831693810193909352519086169450638ab1d68193506024808301939282900301818387803b1580156200319557600080fd5b505af1158015620031aa573d6000803e3d6000fd5b5050600160f11b6121a9026000908152600460208190527f81a16a8e02e895bc8f23c4b57164801632b22336e581fdbd05bc322b5dbf84745460408051600160e41b62900f010281526001600160a01b03898116948201949094529051929091169450849350630900f01092602480830193919282900301818387803b1580156200323457600080fd5b505af115801562003249573d6000803e3d6000fd5b505050505050620033dc565b8482815181106200326257fe5b60200260200101516001600160f01b031916600160f01b6150310214156200330b57600160f01b615031026000908152600460208190527f65e528c366d24fe1267504a3fd0d0e6ee46d1498cc6709837295d0fa5e6286545460408051600160e01b6366fd551d0281526001600160a01b03868116948201949094529051929091169283926366fd551d92602480820193929182900301818387803b1580156200303b57600080fd5b8482815181106200331857fe5b60200260200101516001600160f01b031916600160f11b612819021415620033dc57600160f11b612819026000908152600460208190527fe7f2660f02bdcc323d33e7031a5358e57ee06db4b5c7736fbd9ebbc29573a91f5460408051600160e01b636dce9b3d0281526001600160a01b0386811694820194909452905192909116928392636dce9b3d92602480820193929182900301818387803b158015620033c157600080fd5b505af1158015620033d6573d6000803e3d6000fd5b50505050505b600060046000878581518110620033ef57fe5b6020908102919091018101516001600160f01b03191682528181019290925260409081016000908120546001600160a01b03168082526003909352908120805460ff1916905587519192508391600491908990879081106200344d57fe5b6020908102919091018101516001600160f01b0319168252818101929092526040908101600090812080546001600160a01b0319166001600160a01b03958616179055928516835260039091528120805460ff1916600117905586516004908290899087908110620034bb57fe5b6020908102919091018101516001600160f01b031916825281019190915260409081016000908120548251600160e21b633519957d02815230600482015292516001600160a01b039091169350839263d46655f492602480830193919282900301818387803b1580156200352e57600080fd5b505af115801562003543573d6000803e3d6000fd5b50506001909501945062002e689350505050565b506200356262004760565b505050565b8060008080600160c21b671354d5d053131155026001600160c01b03198516141562003616576000620035a2600160f21b6115110262000afc565b9050806001600160a01b0316636ad5b3ea6040518163ffffffff1660e01b815260040160206040518083038186803b158015620035de57600080fd5b505afa158015620035f3573d6000803e3d6000fd5b505050506040513d60208110156200360a57600080fd5b50519350620038dd9050565b600160c81b664d43524e4f5441026001600160c01b031986161415620036bb5762003649600160f21b6114110262000afc565b9050806001600160a01b031663428dfd386040518163ffffffff1660e01b815260040160206040518083038186803b1580156200368557600080fd5b505afa1580156200369a573d6000803e3d6000fd5b505050506040513d6020811015620036b157600080fd5b50519250620038dd565b600160ca1b6611105251915151026001600160c01b0319861614156200372a57620036ee600160f21b6114110262000afc565b9050806001600160a01b031663f0f9f2546040518163ffffffff1660e01b815260040160206040518083038186803b1580156200368557600080fd5b600160c21b6715539254d5d05111026001600160c01b0319861614156200379c57600062003760600160f11b6128190262000afc565b9050806001600160a01b0316633655ac3c6040518163ffffffff1660e01b815260040160206040518083038186803b158015620035de57600080fd5b600160d91b6427aba722a9026001600160c01b031986161415620037ce576008546001600160a01b03169250620038dd565b600160cb1b660a2aa9e82aaa89026001600160c01b0319861614156200383d5762003801600160f21b6114510262000afc565b9150816001600160a01b031663e2c2a5bb6040518163ffffffff1660e01b815260040160206040518083038186803b1580156200368557600080fd5b600160cb1b66096b28682aaa89026001600160c01b031986161415620038dd5762003870600160f21b6114510262000afc565b9150816001600160a01b03166384434b9f6040518163ffffffff1660e01b815260040160206040518083038186803b158015620038ac57600080fd5b505afa158015620038c1573d6000803e3d6000fd5b505050506040513d6020811015620038d857600080fd5b505192505b5050915091565b600754600160a81b900460ff1681565b620038ff816200461f565b620039545760408051600160e51b62461bcd02815260206004820152601e60248201527f5061796f75742072657472792074696d65206e6f7420726561636865642e0000604482015290519081900360640190fd5b600062003969600160f11b6121a90262000afc565b9050806001600160a01b0316637f6715c9836040518263ffffffff1660e01b815260040180828152602001915050600060405180830381600087803b158015620039b257600080fd5b505af115801562001c4d573d6000803e3d6000fd5b606080600280548060200260200160405190810160405280929190818152602001828054801562003a4557602002820191906000526020600020906000905b82829054906101000a900460f01b6001600160f01b0319168152602001906002019060208260010104928301926001038202915080841162003a065790505b5050505050915060028054905060405190808252806020026020018201604052801562003a7c578160200160208202803883390190505b50905060005b60025481101562003b1557600460006002838154811062003a9f57fe5b60009182526020808320601083040154600f9092166002026101000a90910460f01b6001600160f01b031916835282019290925260400190205482516001600160a01b039091169083908390811062003af457fe5b6001600160a01b039092166020928302919091019091015260010162003a82565b509091565b60005b60025481101562003c405760006002828154811062003b3857fe5b60009182526020808320601083040154600f9092166002026101000a90910460f01b6001600160f01b0319811683526004918290526040808420548151600160e21b633519957d028152309481019490945290519194506001600160a01b0316928392839263d46655f49260248084019391929182900301818387803b15801562003bc257600080fd5b505af115801562003bd7573d6000803e3d6000fd5b50505050806001600160a01b0316630ea9c9846040518163ffffffff1660e01b8152600401600060405180830381600087803b15801562003c1757600080fd5b505af115801562003c2c573d6000803e3d6000fd5b50506001909501945062003b1d9350505050565b50565b6000546001600160a01b031681565b60005460408051600160e31b6227050b028152600160f11b6123ab02600482015290516001600160a01b039092169133918391630138285891602480820192602092909190829003018186803b15801562003cac57600080fd5b505afa15801562003cc1573d6000803e3d6000fd5b505050506040513d602081101562003cd857600080fd5b50516001600160a01b03161462003d2d5760408051600160e51b62461bcd02815260206004820152600e6024820152600160921b6d139bdd08185d5d1a1bdc9a5e995902604482015290519081900360640190fd5b600080600160c21b671354d5d053131155026001600160c01b03198616141562003de157600062003d66600160f21b6115110262000afc565b9050806001600160a01b031663ec8edf7a866040518263ffffffff1660e01b815260040180826001600160a01b03166001600160a01b03168152602001915050600060405180830381600087803b15801562003dc157600080fd5b505af115801562003dd6573d6000803e3d6000fd5b5050505050620041e3565b600160c81b664d43524e4f5441026001600160c01b03198616141562003e8e5762003e14600160f21b6114110262000afc565b9050806001600160a01b0316636576ffed856040518263ffffffff1660e01b815260040180826001600160a01b03166001600160a01b03168152602001915050600060405180830381600087803b15801562003e6f57600080fd5b505af115801562003e84573d6000803e3d6000fd5b50505050620041e3565b600160ca1b6611105251915151026001600160c01b03198616141562003f1c5762003ec1600160f21b6114110262000afc565b9050806001600160a01b031663ca0d4c86856040518263ffffffff1660e01b815260040180826001600160a01b03166001600160a01b03168152602001915050600060405180830381600087803b15801562003e6f57600080fd5b600160c21b6715539254d5d05111026001600160c01b03198616141562003fad57600062003f52600160f11b6128190262000afc565b9050806001600160a01b031663b19ab66d866040518263ffffffff1660e01b815260040180826001600160a01b03166001600160a01b03168152602001915050600060405180830381600087803b15801562003dc157600080fd5b600160d91b6427aba722a9026001600160c01b0319861614156200407757600062003fe0600160f11b6126a90262000afc565b9050806001600160a01b03166390a79368866040518263ffffffff1660e01b815260040180826001600160a01b03166001600160a01b03168152602001915050600060405180830381600087803b1580156200403b57600080fd5b505af115801562004050573d6000803e3d6000fd5b5050600880546001600160a01b0319166001600160a01b03891617905550620041e3915050565b600160cb1b660a2aa9e82aaa89026001600160c01b0319861614156200410557620040aa600160f21b6114510262000afc565b9150816001600160a01b0316631407264b856040518263ffffffff1660e01b815260040180826001600160a01b03166001600160a01b03168152602001915050600060405180830381600087803b15801562003e6f57600080fd5b600160cb1b66096b28682aaa89026001600160c01b031986161415620041935762004138600160f21b6114510262000afc565b9150816001600160a01b031663549a65f4856040518263ffffffff1660e01b815260040180826001600160a01b03166001600160a01b03168152602001915050600060405180830381600087803b15801562003e6f57600080fd5b60408051600160e51b62461bcd02815260206004820152601260248201527f496e76616c696420706172616d20636f64650000000000000000000000000000604482015290519081900360640190fd5b5050505050565b6007546001600160a01b031690565b60066020526000908152604090205460ff1681565b60015490565b60015460009080158015906200424a57506001808203815481106200423557fe5b600091825260209091206003909102015460ff165b91505090565b600160f11b6120a1026001600160e01b031982161480620042835750600160ea1b62105555026001600160e01b03198216145b620042d85760408051600160e51b62461bcd02815260206004820152600d60248201527f496e76616c69642063616c6c2e00000000000000000000000000000000000000604482015290519081900360640190fd5b620042eb600160f01b6150310262000afc565b6001600160a01b0316336001600160a01b031614806200432e575062004319600160f11b6123ab0262000afc565b6001600160a01b0316336001600160a01b0316145b620043835760408051600160e51b62461bcd02815260206004820152601b60248201527f43616c6c61626c6520627920503120616e64204756206f6e6c792e0000000000604482015290519081900360640190fd5b6040805160608101825283151580825242602083019081526001600160e01b0319851693830193845260018054808201825560009190915292517fb10e2d527612073b26eecdfd717e6a320cf44b4afac2b0732d9fcbe2b7fa0cf66003909402938401805460ff1916911515919091179055517fb10e2d527612073b26eecdfd717e6a320cf44b4afac2b0732d9fcbe2b7fa0cf783015591517fb10e2d527612073b26eecdfd717e6a320cf44b4afac2b0732d9fcbe2b7fa0cf8909101805463ffffffff191660e09290921c9190911790556200452a57600160f21b6110d3026000908152600460208190527f50dbf33991a9c6292dc70c7475ec00e23dd381ac44ce9260861463e58f0f3b705460408051600160e01b6375a0f52102815290516001600160a01b039092169384936375a0f521938382019390919082900301818387803b158015620044d557600080fd5b505af1158015620044ea573d6000803e3d6000fd5b50505050806001600160a01b0316639755fafe6040518163ffffffff1660e01b8152600401600060405180830381600087803b15801562001f7a57600080fd5b5050565b60008082604051620045409062004946565b6001600160a01b03909116815260405190819003602001906000f0801580156200456e573d6000803e3d6000fd5b509392505050565b6000620045ba83836040518060400160405280601e81526020017f536166654d6174683a207375627472616374696f6e206f766572666c6f770000815250620048a8565b9392505050565b600082820183811015620045ba5760408051600160e51b62461bcd02815260206004820152601b60248201527f536166654d6174683a206164646974696f6e206f766572666c6f770000000000604482015290519081900360640190fd5b60008062004635600160f21b6110d10262000afc565b9050600080826001600160a01b0316635aef2447866040518263ffffffff1660e01b81526004018082815260200191505060c06040518083038186803b1580156200467f57600080fd5b505afa15801562004694573d6000803e3d6000fd5b505050506040513d60c0811015620046ab57600080fd5b5060608101516080909101519092509050600c82141562004755574262004741846001600160a01b031663ee8dea636040518163ffffffff1660e01b815260040160206040518083038186803b1580156200470557600080fd5b505afa1580156200471a573d6000803e3d6000fd5b505050506040513d60208110156200473157600080fd5b5051839063ffffffff620045c116565b1115620047555760009350505050620014d4565b506001949350505050565b60005b60025481101562003c405760016003600060046000600286815481106200478657fe5b60009182526020808320601083040154600f90921660029081026101000a90920460f01b6001600160f01b03191684528381019490945260409283018220546001600160a01b0316855292840194909452919091018220805460ff19169315159390931790925581549091600491839190859081106200480257fe5b60009182526020808320601083040154600f9092166002026101000a90910460f01b6001600160f01b031916835282019290925260409081018220548151600160e21b6303aa726102815291516001600160a01b0390911693508392630ea9c984926004808201939182900301818387803b1580156200488157600080fd5b505af115801562004896573d6000803e3d6000fd5b50506001909301925062004763915050565b600081848411156200493e57604051600160e51b62461bcd0281526004018080602001828103825283818151815260200191508051906020019080838360005b8381101562004902578181015183820152602001620048e8565b50505050905090810190601f168015620049305780820380516001836020036101000a031916815260200191505b509250505060405180910390fd5b505050900390565b6104d580620049558339019056fe608060405234801561001057600080fd5b506040516020806104d58339810180604052602081101561003057600080fd5b505161004233610057602090811b901c565b6100518161008c60201b60201c565b50610149565b604080517f6f72672e676f76626c6f636b732e70726f78792e6f776e6572000000000000008152905190819003601901902055565b600061009c61010460201b60201c565b9050816001600160a01b0316816001600160a01b031614156100bd57600080fd5b6100cc8261012760201b60201c565b6040516001600160a01b038316907fbc7cd75a20ee27fd9adebab32041f755214dbc6bffa90cc0225b39da2e5c2d3b90600090a25050565b60008060405180806104b360229139604051908190036022019020549392505050565b600060405180806104b360229139604051908190036022019020929092555050565b61035b806101586000396000f3fe60806040526004361061003f5760003560e01c8063025313a2146100835780633659cfe6146100b45780635c60da1b146100e9578063f1739cae146100fe575b6000610049610131565b90506001600160a01b03811661005e57600080fd5b60405136600082376000803683855af43d806000843e81801561007f578184f35b8184fd5b34801561008f57600080fd5b50610098610154565b604080516001600160a01b039092168252519081900360200190f35b3480156100c057600080fd5b506100e7600480360360208110156100d757600080fd5b50356001600160a01b031661018a565b005b3480156100f557600080fd5b50610098610131565b34801561010a57600080fd5b506100e76004803603602081101561012157600080fd5b50356001600160a01b03166101bb565b600080604051808061030e60229139604051908190036022019020549392505050565b604080517f6f72672e676f76626c6f636b732e70726f78792e6f776e657200000000000000815290519081900360190190205490565b610192610154565b6001600160a01b0316336001600160a01b0316146101af57600080fd5b6101b88161024a565b50565b6101c3610154565b6001600160a01b0316336001600160a01b0316146101e057600080fd5b6001600160a01b0381166101f357600080fd5b6101fc816102b6565b7f5a3e66efaa1e445ebd894728a69d6959842ea1e97bd79b892797106e270efcd9610225610154565b604080516001600160a01b03928316815291841660208301528051918290030190a150565b6000610254610131565b9050816001600160a01b0316816001600160a01b0316141561027557600080fd5b61027e826102eb565b6040516001600160a01b038316907fbc7cd75a20ee27fd9adebab32041f755214dbc6bffa90cc0225b39da2e5c2d3b90600090a25050565b604080517f6f72672e676f76626c6f636b732e70726f78792e6f776e6572000000000000008152905190819003601901902055565b6000604051808061030e6022913960405190819003602201902092909255505056fe6f72672e676f76626c6f636b732e70726f78792e696d706c656d656e746174696f6ea165627a7a723058201fbd674c7b869f6df4156f2621be44429038e2a6ac1d595fc4f3ad22cd8bc5fc00296f72672e676f76626c6f636b732e70726f78792e696d706c656d656e746174696f6e43616c6c65722073686f756c64206265206f776e657220616e642073686f756c64206f6e6c792062652063616c6c6564206f6e63652e456d657267656e63792070617573656420776173206e6f7420737461727465642062792041647669736f727920426f617264436f6e747261637420636f646520697320616c726561647920617661696c61626c652e4f6e6c792063616c6c6261636b206f66207479706520455020697320616c6c6f77656420647572696e6720656d657267656e6379207061757365636f6e7472616374206e616d657320616e64207479706573206172726179732073686f756c642068617665207468652073616d65206c656e677468a165627a7a72305820b431a9c7eb573b5833cb325ef01ad52684380af816c2506941c5c2e189bb3a850029",
  "compiler": {
    "name": "solc",
    "version": "0.5.7+commit.6da8b019.Emscripten.clang",
    "optimizer": {
      "enabled": true,
      "runs": 200
    },
    "evmVersion": "petersburg"
  }
}