{
  "fileName": "DisposableProposalCategory.sol",
  "contractName": "DisposableProposalCategory",
  "source": "pragma solidity ^0.5.0;\n\nimport \"../modules/governance/ProposalCategory.sol\";\nimport \"../modules/governance/MemberRoles.sol\";\n\ncontract DisposableProposalCategory is ProposalCategory {\n\n  function initialize(\n    address _memberRolesAddress\n  ) external {\n\n    require(!constructorCheck);\n    constructorCheck = true;\n    categoryActionHashUpdated = true;\n\n    mr = MemberRoles(_memberRolesAddress);\n\n    addInitialCategory(\"Uncategorized\", \"MR\", 60, 15, 1, 0);\n    addInitialCategory(\"Add new member role\", \"MR\", 60, 15, 1, 0);\n    addInitialCategory(\"Update member role\", \"MR\", 60, 15, 1, 0);\n    addInitialCategory(\"Add new category\", \"PC\", 60, 15, 1, 0);\n    addInitialCategory(\"Edit category\", \"PC\", 60, 15, 1, 0);\n    addInitialCategory(\"Upgrade a contract Implementation\", \"MS\", 50, 15, 2, 80);\n    addInitialCategory(\"Implement Emergency Pause\", \"MS\", 0, 15, 1, 0);\n    addInitialCategory(\"Extend or Switch Off Emergency Pause\", \"MS\", 50, 15, 2, 0);\n    addInitialCategory(\"Burn Claims Assessor Bond\", \"TF\", 80, 15, 1, 0);\n    addInitialCategory(\"Pause Claim Assessor Voting for 3 days\", \"CD\", 60, 15, 1, 0);\n    addInitialCategory(\"Changes to Capital Model\", \"EX\", 50, 15, 2, 60);\n    addInitialCategory(\"Changes to Pricing Model\", \"EX\", 50, 15, 2, 60);\n    addInitialCategory(\"Withdraw funds to Pay for Support Services\", \"P1\", 50, 15, 2, 80);\n    addInitialCategory(\"Add Investment Asset\", \"PD\", 50, 15, 2, 60);\n    addInitialCategory(\"Edit Investment Asset min and max holding percentages\", \"PD\", 50, 15, 2, 60);\n    addInitialCategory(\"Update Investment Asset Status\", \"PD\", 50, 15, 2, 60);\n    addInitialCategory(\"Change AB Member\", \"MR\", 50, 15, 2, 0);\n    addInitialCategory(\"Add Currency Asset\", \"PD\", 50, 15, 2, 0);\n    addInitialCategory(\"Any other Item\", \"EX\", 50, 15, 2, 80);\n    addInitialCategory(\"Special Resolution\", \"EX\", 75, 0, 2, 0);\n    addInitialCategory(\"Update Token Parameters\", \"TD\", 50, 15, 2, 60);\n    addInitialCategory(\"Update Risk Assessment Parameters\", \"TD\", 50, 15, 2, 60);\n    addInitialCategory(\"Update Governance Parameters\", \"GV\", 50, 15, 2, 60);\n    addInitialCategory(\"Update Quotation Parameters\", \"QD\", 50, 15, 2, 60);\n    addInitialCategory(\"Update Claims Assessment Parameters\", \"CD\", 50, 15, 2, 60);\n    addInitialCategory(\"Update Investment Module Parameters\", \"PD\", 50, 15, 2, 60);\n    addInitialCategory(\"Update Capital Model Parameters\", \"PD\", 50, 15, 2, 60);\n    addInitialCategory(\"Update Address Parameters\", \"MS\", 50, 15, 2, 60);\n    addInitialCategory(\"Update Owner Parameters\", \"MS\", 50, 15, 2, 0);\n    addInitialCategory(\"Release new smart contract code\", \"MS\", 50, 15, 2, 80);\n    addInitialCategory(\"Edit Currency Asset Address\", \"PD\", 50, 15, 1, 60);\n    addInitialCategory(\"Edit Currency Asset baseMin\", \"PD\", 50, 15, 2, 60);\n    addInitialCategory(\"Edit Investment Asset Address and decimal\", \"PD\", 50, 15, 2, 60);\n    addInitialCategory(\"Trading Trigger Check\", \"PD\", 40, 15, 2, 60);\n    addInitialCategory(\"Add new contract\", \"MS\", 60, 15, 2, 60);\n    addInitialCategory(\"Token Controller Parameters\", \"TC\", 60, 15, 2, 60);\n\n    // 0: Uncategorized\n    categoryActionHashes[1] = abi.encodeWithSignature(\"addRole(bytes32,string,address)\");\n    categoryActionHashes[2] = abi.encodeWithSignature(\"updateRole(address,uint256,bool)\");\n    categoryActionHashes[3] = abi.encodeWithSignature(\"newCategory(string,uint256,uint256,uint256,uint256[],uint256,string,address,bytes2,uint256[],string)\");\n    categoryActionHashes[4] = abi.encodeWithSignature(\"editCategory(uint256,string,uint256,uint256,uint256,uint256[],uint256,string,address,bytes2,uint256[],string)\");\n    categoryActionHashes[5] = abi.encodeWithSignature(\"upgradeContractImplementation(bytes2,address)\");\n    categoryActionHashes[6] = abi.encodeWithSignature(\"startEmergencyPause()\");\n    categoryActionHashes[7] = abi.encodeWithSignature(\"addEmergencyPause(bool,bytes4)\");\n    categoryActionHashes[8] = abi.encodeWithSignature(\"burnCAToken(uint256,uint256,address)\");\n    categoryActionHashes[9] = abi.encodeWithSignature(\"setUserClaimVotePausedOn(address)\");\n    // 10: Changes to Capital Model\n    // 11: Changes to Pricing Model\n    categoryActionHashes[12] = abi.encodeWithSignature(\"transferEther(uint256,address)\");\n    categoryActionHashes[13] = abi.encodeWithSignature(\"addInvestmentAssetCurrency(bytes4,address,bool,uint64,uint64,uint8)\");\n    categoryActionHashes[14] = abi.encodeWithSignature(\"changeInvestmentAssetHoldingPerc(bytes4,uint64,uint64)\");\n    categoryActionHashes[15] = abi.encodeWithSignature(\"changeInvestmentAssetStatus(bytes4,bool)\");\n    categoryActionHashes[16] = abi.encodeWithSignature(\"swapABMember(address,address)\");\n    categoryActionHashes[17] = abi.encodeWithSignature(\"addCurrencyAssetCurrency(bytes4,address,uint256)\");\n    // 18: Any other Item\n    // 19: Special Resolution\n    categoryActionHashes[20] = abi.encodeWithSignature(\"updateUintParameters(bytes8,uint256)\");\n    categoryActionHashes[21] = abi.encodeWithSignature(\"updateUintParameters(bytes8,uint256)\");\n    categoryActionHashes[22] = abi.encodeWithSignature(\"updateUintParameters(bytes8,uint256)\");\n    categoryActionHashes[23] = abi.encodeWithSignature(\"updateUintParameters(bytes8,uint256)\");\n    categoryActionHashes[24] = abi.encodeWithSignature(\"updateUintParameters(bytes8,uint256)\");\n    categoryActionHashes[25] = abi.encodeWithSignature(\"updateUintParameters(bytes8,uint256)\");\n    categoryActionHashes[26] = abi.encodeWithSignature(\"updateUintParameters(bytes8,uint256)\");\n    categoryActionHashes[27] = abi.encodeWithSignature(\"updateAddressParameters(bytes8,address)\");\n    categoryActionHashes[28] = abi.encodeWithSignature(\"updateOwnerParameters(bytes8,address)\");\n    categoryActionHashes[29] = abi.encodeWithSignature(\"upgradeContract(bytes2,address)\");\n    categoryActionHashes[30] = abi.encodeWithSignature(\"changeCurrencyAssetAddress(bytes4,address)\");\n    categoryActionHashes[31] = abi.encodeWithSignature(\"changeCurrencyAssetBaseMin(bytes4,uint256)\");\n    categoryActionHashes[32] = abi.encodeWithSignature(\"changeInvestmentAssetAddressAndDecimal(bytes4,address,uint8)\");\n    categoryActionHashes[33] = abi.encodeWithSignature(\"externalLiquidityTrade()\");\n    categoryActionHashes[34] = abi.encodeWithSignature(\"addNewInternalContract(bytes2,address,uint256)\");\n    categoryActionHashes[35] = abi.encodeWithSignature(\"updateUintParameters(bytes8,uint256)\");\n\n  }\n\n  function addInitialCategory(\n    string memory _name,\n    bytes2 _contractName,\n    uint _majorityVotePerc,\n    uint _quorumPerc,\n    uint _memberRoleToVote,\n    uint _categoryABReq\n  ) internal {\n\n    // heads up: ^ action hash was removed from function params as it isn't stored anywhere\n\n    uint[] memory allowedToCreateProposal = new uint[](1);\n    uint[] memory stakeIncentive = new uint[](4);\n\n    allowedToCreateProposal[0] = 2; // board members\n\n    stakeIncentive[0] = 0; // min stake\n    stakeIncentive[1] = 0; // default incentive\n    stakeIncentive[2] = _categoryABReq; // ab voting required\n    stakeIncentive[3] = _quorumPerc == 0 ? 1 : 0; // isSpecialResolution\n\n    _addCategory(\n      _name, _memberRoleToVote, _majorityVotePerc, _quorumPerc, allowedToCreateProposal,\n      604800, \"\", address(0), _contractName, stakeIncentive\n    );\n  }\n}\n",
  "sourcePath": "contracts/mocks/DisposableProposalCategory.sol",
  "abi": [
    {
      "constant": true,
      "inputs": [
        {
          "name": "_categoryId",
          "type": "uint256"
        }
      ],
      "name": "categoryExtendedData",
      "outputs": [
        {
          "name": "",
          "type": "uint256"
        },
        {
          "name": "",
          "type": "uint256"
        },
        {
          "name": "",
          "type": "uint256"
        }
      ],
      "payable": false,
      "stateMutability": "view",
      "type": "function"
    },
    {
      "constant": false,
      "inputs": [],
      "name": "changeDependentContractAddress",
      "outputs": [],
      "payable": false,
      "stateMutability": "nonpayable",
      "type": "function"
    },
    {
      "constant": true,
      "inputs": [
        {
          "name": "_toCheck",
          "type": "address"
        }
      ],
      "name": "isAuthorizedToGovern",
      "outputs": [
        {
          "name": "",
          "type": "bool"
        }
      ],
      "payable": false,
      "stateMutability": "view",
      "type": "function"
    },
    {
      "constant": true,
      "inputs": [
        {
          "name": "_categoryId",
          "type": "uint256"
        }
      ],
      "name": "category",
      "outputs": [
        {
          "name": "",
          "type": "uint256"
        },
        {
          "name": "",
          "type": "uint256"
        },
        {
          "name": "",
          "type": "uint256"
        },
        {
          "name": "",
          "type": "uint256"
        },
        {
          "name": "",
          "type": "uint256[]"
        },
        {
          "name": "",
          "type": "uint256"
        },
        {
          "name": "",
          "type": "uint256"
        }
      ],
      "payable": false,
      "stateMutability": "view",
      "type": "function"
    },
    {
      "constant": true,
      "inputs": [],
      "name": "totalCategories",
      "outputs": [
        {
          "name": "",
          "type": "uint256"
        }
      ],
      "payable": false,
      "stateMutability": "view",
      "type": "function"
    },
    {
      "constant": true,
      "inputs": [],
      "name": "constructorCheck",
      "outputs": [
        {
          "name": "",
          "type": "bool"
        }
      ],
      "payable": false,
      "stateMutability": "view",
      "type": "function"
    },
    {
      "constant": true,
      "inputs": [],
      "name": "categoryActionHashUpdated",
      "outputs": [
        {
          "name": "",
          "type": "bool"
        }
      ],
      "payable": false,
      "stateMutability": "view",
      "type": "function"
    },
    {
      "constant": true,
      "inputs": [
        {
          "name": "",
          "type": "uint256"
        }
      ],
      "name": "categoryActionHashes",
      "outputs": [
        {
          "name": "",
          "type": "bytes"
        }
      ],
      "payable": false,
      "stateMutability": "view",
      "type": "function"
    },
    {
      "constant": true,
      "inputs": [
        {
          "name": "_categoryId",
          "type": "uint256"
        }
      ],
      "name": "categoryAction",
      "outputs": [
        {
          "name": "",
          "type": "uint256"
        },
        {
          "name": "",
          "type": "address"
        },
        {
          "name": "",
          "type": "bytes2"
        },
        {
          "name": "",
          "type": "uint256"
        }
      ],
      "payable": false,
      "stateMutability": "view",
      "type": "function"
    },
    {
      "constant": false,
      "inputs": [],
      "name": "updateCategoryActionHashes",
      "outputs": [],
      "payable": false,
      "stateMutability": "nonpayable",
      "type": "function"
    },
    {
      "constant": true,
      "inputs": [
        {
          "name": "",
          "type": "uint256"
        }
      ],
      "name": "categoryABReq",
      "outputs": [
        {
          "name": "",
          "type": "uint256"
        }
      ],
      "payable": false,
      "stateMutability": "view",
      "type": "function"
    },
    {
      "constant": true,
      "inputs": [
        {
          "name": "",
          "type": "uint256"
        }
      ],
      "name": "isSpecialResolution",
      "outputs": [
        {
          "name": "",
          "type": "uint256"
        }
      ],
      "payable": false,
      "stateMutability": "view",
      "type": "function"
    },
    {
      "constant": false,
      "inputs": [
        {
          "name": "_categoryId",
          "type": "uint256"
        },
        {
          "name": "_name",
          "type": "string"
        },
        {
          "name": "_memberRoleToVote",
          "type": "uint256"
        },
        {
          "name": "_majorityVotePerc",
          "type": "uint256"
        },
        {
          "name": "_quorumPerc",
          "type": "uint256"
        },
        {
          "name": "_allowedToCreateProposal",
          "type": "uint256[]"
        },
        {
          "name": "_closingTime",
          "type": "uint256"
        },
        {
          "name": "_actionHash",
          "type": "string"
        },
        {
          "name": "_contractAddress",
          "type": "address"
        },
        {
          "name": "_contractName",
          "type": "bytes2"
        },
        {
          "name": "_incentives",
          "type": "uint256[]"
        }
      ],
      "name": "updateCategory",
      "outputs": [],
      "payable": false,
      "stateMutability": "nonpayable",
      "type": "function"
    },
    {
      "constant": true,
      "inputs": [],
      "name": "ms",
      "outputs": [
        {
          "name": "",
          "type": "address"
        }
      ],
      "payable": false,
      "stateMutability": "view",
      "type": "function"
    },
    {
      "constant": false,
      "inputs": [
        {
          "name": "_name",
          "type": "string"
        },
        {
          "name": "_memberRoleToVote",
          "type": "uint256"
        },
        {
          "name": "_majorityVotePerc",
          "type": "uint256"
        },
        {
          "name": "_quorumPerc",
          "type": "uint256"
        },
        {
          "name": "_allowedToCreateProposal",
          "type": "uint256[]"
        },
        {
          "name": "_closingTime",
          "type": "uint256"
        },
        {
          "name": "_actionHash",
          "type": "string"
        },
        {
          "name": "_contractAddress",
          "type": "address"
        },
        {
          "name": "_contractName",
          "type": "bytes2"
        },
        {
          "name": "_incentives",
          "type": "uint256[]"
        },
        {
          "name": "_functionHash",
          "type": "string"
        }
      ],
      "name": "newCategory",
      "outputs": [],
      "payable": false,
      "stateMutability": "nonpayable",
      "type": "function"
    },
    {
      "constant": false,
      "inputs": [
        {
          "name": "_categoryId",
          "type": "uint256"
        },
        {
          "name": "_name",
          "type": "string"
        },
        {
          "name": "_memberRoleToVote",
          "type": "uint256"
        },
        {
          "name": "_majorityVotePerc",
          "type": "uint256"
        },
        {
          "name": "_quorumPerc",
          "type": "uint256"
        },
        {
          "name": "_allowedToCreateProposal",
          "type": "uint256[]"
        },
        {
          "name": "_closingTime",
          "type": "uint256"
        },
        {
          "name": "_actionHash",
          "type": "string"
        },
        {
          "name": "_contractAddress",
          "type": "address"
        },
        {
          "name": "_contractName",
          "type": "bytes2"
        },
        {
          "name": "_incentives",
          "type": "uint256[]"
        },
        {
          "name": "_functionHash",
          "type": "string"
        }
      ],
      "name": "editCategory",
      "outputs": [],
      "payable": false,
      "stateMutability": "nonpayable",
      "type": "function"
    },
    {
      "constant": false,
      "inputs": [
        {
          "name": "_memberRolesAddress",
          "type": "address"
        }
      ],
      "name": "initialize",
      "outputs": [],
      "payable": false,
      "stateMutability": "nonpayable",
      "type": "function"
    },
    {
      "constant": false,
      "inputs": [],
      "name": "proposalCategoryInitiate",
      "outputs": [],
      "payable": false,
      "stateMutability": "nonpayable",
      "type": "function"
    },
    {
      "constant": true,
      "inputs": [],
      "name": "masterAddress",
      "outputs": [
        {
          "name": "",
          "type": "address"
        }
      ],
      "payable": false,
      "stateMutability": "view",
      "type": "function"
    },
    {
      "constant": false,
      "inputs": [
        {
          "name": "_masterAddress",
          "type": "address"
        }
      ],
      "name": "changeMasterAddress",
      "outputs": [],
      "payable": false,
      "stateMutability": "nonpayable",
      "type": "function"
    },
    {
      "constant": true,
      "inputs": [
        {
          "name": "_categoryId",
          "type": "uint256"
        }
      ],
      "name": "categoryActionDetails",
      "outputs": [
        {
          "name": "",
          "type": "uint256"
        },
        {
          "name": "",
          "type": "address"
        },
        {
          "name": "",
          "type": "bytes2"
        },
        {
          "name": "",
          "type": "uint256"
        },
        {
          "name": "",
          "type": "bytes"
        }
      ],
      "payable": false,
      "stateMutability": "view",
      "type": "function"
    },
    {
      "constant": false,
      "inputs": [
        {
          "name": "_name",
          "type": "string"
        },
        {
          "name": "_memberRoleToVote",
          "type": "uint256"
        },
        {
          "name": "_majorityVotePerc",
          "type": "uint256"
        },
        {
          "name": "_quorumPerc",
          "type": "uint256"
        },
        {
          "name": "_allowedToCreateProposal",
          "type": "uint256[]"
        },
        {
          "name": "_closingTime",
          "type": "uint256"
        },
        {
          "name": "_actionHash",
          "type": "string"
        },
        {
          "name": "_contractAddress",
          "type": "address"
        },
        {
          "name": "_contractName",
          "type": "bytes2"
        },
        {
          "name": "_incentives",
          "type": "uint256[]"
        }
      ],
      "name": "addCategory",
      "outputs": [],
      "payable": false,
      "stateMutability": "nonpayable",
      "type": "function"
    },
    {
      "constant": true,
      "inputs": [],
      "name": "nxMasterAddress",
      "outputs": [
        {
          "name": "",
          "type": "address"
        }
      ],
      "payable": false,
      "stateMutability": "view",
      "type": "function"
    },
    {
      "anonymous": false,
      "inputs": [
        {
          "indexed": true,
          "name": "categoryId",
          "type": "uint256"
        },
        {
          "indexed": false,
          "name": "categoryName",
          "type": "string"
        },
        {
          "indexed": false,
          "name": "actionHash",
          "type": "string"
        }
      ],
      "name": "Category",
      "type": "event"
    }
  ],
  "bytecode": "0x608060405234801561001057600080fd5b506148f7806100206000396000f3fe608060405234801561001057600080fd5b506004361061014d5760003560e01c806386957731116100c3578063cf3acfbc1161007c578063cf3acfbc14610c55578063d365a08e14610c5d578063d46655f414610c65578063d4aaafb414610c8b578063da3f7bd114610d62578063f17a3bec14610ef65761014d565b806386957731146103a157806395566ebd146103be578063a0b2d57f1461062c578063aef8123614610650578063b02bc3161461093c578063c4d66de814610c2f5761014d565b8063525050e111610115578063525050e11461028657806354911e121461028e57806357c7bec114610296578063674aa712146103285780636debdabf1461037c57806378005297146103845761014d565b806307149ba3146101525780630ea9c9841461018d57806322ce725414610197578063253eca1f146101d157806339275b0a1461026c575b600080fd5b61016f6004803603602081101561016857600080fd5b5035610efe565b60408051938452602084019290925282820152519081900360600190f35b610195610f20565b005b6101bd600480360360208110156101ad57600080fd5b50356001600160a01b0316610fc2565b604080519115158252519081900360200190f35b6101ee600480360360208110156101e757600080fd5b503561105a565b6040518088815260200187815260200186815260200185815260200180602001848152602001838152602001828103825285818151815260200191508051906020019060200280838360005b8381101561025257818101518382015260200161023a565b505050509050019850505050505050505060405180910390f35b61027461118a565b60408051918252519081900360200190f35b6101bd611191565b6101bd6111a1565b6102b3600480360360208110156102ac57600080fd5b50356111aa565b6040805160208082528351818301528351919283929083019185019080838360005b838110156102ed5781810151838201526020016102d5565b50505050905090810190601f16801561031a5780820380516001836020036101000a031916815260200191505b509250505060405180910390f35b6103456004803603602081101561033e57600080fd5b5035611245565b604080519485526001600160a01b0390931660208501526001600160f01b0319909116838301526060830152519081900360800190f35b610195611276565b6102746004803603602081101561039a57600080fd5b5035611ec3565b610274600480360360208110156103b757600080fd5b5035611ed5565b61019560048036036101608110156103d557600080fd5b81359190810190604081016020820135600160201b8111156103f657600080fd5b82018360208201111561040857600080fd5b803590602001918460018302840111600160201b8311171561042957600080fd5b91908080601f0160208091040260200160405190810160405280939291908181526020018383808284376000920191909152509295843595602086013595604081013595509193509150608081019060600135600160201b81111561048d57600080fd5b82018360208201111561049f57600080fd5b803590602001918460208302840111600160201b831117156104c057600080fd5b91908080602002602001604051908101604052809392919081815260200183836020028082843760009201919091525092958435959094909350604081019250602001359050600160201b81111561051757600080fd5b82018360208201111561052957600080fd5b803590602001918460018302840111600160201b8311171561054a57600080fd5b91908080601f01602080910402602001604051908101604052809392919081815260200183838082843760009201919091525092956001600160a01b03853516956001600160f01b031960208701351695919450925060608101915060400135600160201b8111156105bb57600080fd5b8201836020820111156105cd57600080fd5b803590602001918460208302840111600160201b831117156105ee57600080fd5b919080806020026020016040519081016040528093929190818152602001838360200280828437600092019190915250929550611ee7945050505050565b610634611ef4565b604080516001600160a01b039092168252519081900360200190f35b610195600480360361016081101561066757600080fd5b810190602081018135600160201b81111561068157600080fd5b82018360208201111561069357600080fd5b803590602001918460018302840111600160201b831117156106b457600080fd5b91908080601f0160208091040260200160405190810160405280939291908181526020018383808284376000920191909152509295843595602086013595604081013595509193509150608081019060600135600160201b81111561071857600080fd5b82018360208201111561072a57600080fd5b803590602001918460208302840111600160201b8311171561074b57600080fd5b91908080602002602001604051908101604052809392919081815260200183836020028082843760009201919091525092958435959094909350604081019250602001359050600160201b8111156107a257600080fd5b8201836020820111156107b457600080fd5b803590602001918460018302840111600160201b831117156107d557600080fd5b91908080601f01602080910402602001604051908101604052809392919081815260200183838082843760009201919091525092956001600160a01b03853516956001600160f01b031960208701351695919450925060608101915060400135600160201b81111561084657600080fd5b82018360208201111561085857600080fd5b803590602001918460208302840111600160201b8311171561087957600080fd5b9190808060200260200160405190810160405280939291908181526020018383602002808284376000920191909152509295949360208101935035915050600160201b8111156108c857600080fd5b8201836020820111156108da57600080fd5b803590602001918460018302840111600160201b831117156108fb57600080fd5b91908080601f016020809104026020016040519081016040528093929190818152602001838380828437600092019190915250929550611f03945050505050565b610195600480360361018081101561095357600080fd5b81359190810190604081016020820135600160201b81111561097457600080fd5b82018360208201111561098657600080fd5b803590602001918460018302840111600160201b831117156109a757600080fd5b91908080601f0160208091040260200160405190810160405280939291908181526020018383808284376000920191909152509295843595602086013595604081013595509193509150608081019060600135600160201b811115610a0b57600080fd5b820183602082011115610a1d57600080fd5b803590602001918460208302840111600160201b83111715610a3e57600080fd5b91908080602002602001604051908101604052809392919081815260200183836020028082843760009201919091525092958435959094909350604081019250602001359050600160201b811115610a9557600080fd5b820183602082011115610aa757600080fd5b803590602001918460018302840111600160201b83111715610ac857600080fd5b91908080601f01602080910402602001604051908101604052809392919081815260200183838082843760009201919091525092956001600160a01b03853516956001600160f01b031960208701351695919450925060608101915060400135600160201b811115610b3957600080fd5b820183602082011115610b4b57600080fd5b803590602001918460208302840111600160201b83111715610b6c57600080fd5b9190808060200260200160405190810160405280939291908181526020018383602002808284376000920191909152509295949360208101935035915050600160201b811115610bbb57600080fd5b820183602082011115610bcd57600080fd5b803590602001918460018302840111600160201b83111715610bee57600080fd5b91908080601f01602080910402602001604051908101604052809392919081815260200183838082843760009201919091525092955061228a945050505050565b61019560048036036020811015610c4557600080fd5b50356001600160a01b0316612920565b610195613fe0565b610634613fe2565b61019560048036036020811015610c7b57600080fd5b50356001600160a01b0316613ff1565b610ca860048036036020811015610ca157600080fd5b503561404f565b60405180868152602001856001600160a01b03166001600160a01b03168152602001846001600160f01b0319166001600160f01b031916815260200183815260200180602001828103825283818151815260200191508051906020019080838360005b83811015610d23578181015183820152602001610d0b565b50505050905090810190601f168015610d505780820380516001836020036101000a031916815260200191505b50965050505050505060405180910390f35b6101956004803603610140811015610d7957600080fd5b810190602081018135600160201b811115610d9357600080fd5b820183602082011115610da557600080fd5b803590602001918460018302840111600160201b83111715610dc657600080fd5b919390928235926020810135926040820135929091608081019060600135600160201b811115610df557600080fd5b820183602082011115610e0757600080fd5b803590602001918460208302840111600160201b83111715610e2857600080fd5b91939092823592604081019060200135600160201b811115610e4957600080fd5b820183602082011115610e5b57600080fd5b803590602001918460018302840111600160201b83111715610e7c57600080fd5b919390926001600160a01b03833516926001600160f01b0319602082013516929190606081019060400135600160201b811115610eb857600080fd5b820183602082011115610eca57600080fd5b803590602001918460208302840111600160201b83111715610eeb57600080fd5b50909250905061412f565b61063461413f565b6000818152600660209081526040808320546007909252909120549192909190565b60015460408051600160e31b6227050b028152600160f11b6126a902600482015290516001600160a01b0390921691630138285891602480820192602092909190829003018186803b158015610f7557600080fd5b505afa158015610f89573d6000803e3d6000fd5b505050506040513d6020811015610f9f57600080fd5b5051600380546001600160a01b0319166001600160a01b03909216919091179055565b6000805460408051600160e31b6227050b028152600160f11b6123ab02600482015290516001600160a01b03928316928516918391630138285891602480820192602092909190829003018186803b15801561101d57600080fd5b505afa158015611031573d6000803e3d6000fd5b505050506040513d602081101561104757600080fd5b50516001600160a01b0316149392505050565b6000806000806060600080876004898154811061107357fe5b90600052602060002090600602016000015460048a8154811061109257fe5b90600052602060002090600602016001015460048b815481106110b157fe5b90600052602060002090600602016002015460048c815481106110d057fe5b906000526020600020906006020160030160048d815481106110ee57fe5b90600052602060002090600602016004015460048e8154811061110d57fe5b9060005260206000209060060201600501548280548060200260200160405190810160405280929190818152602001828054801561116a57602002820191906000526020600020905b815481526020019060010190808311611156575b505050505092509650965096509650965096509650919395979092949650565b6004545b90565b600254600160a01b900460ff1681565b60095460ff1681565b60086020908152600091825260409182902080548351601f60026000196101006001861615020190931692909204918201849004840281018401909452808452909183018282801561123d5780601f106112125761010080835404028352916020019161123d565b820191906000526020600020905b81548152906001019060200180831161122057829003601f168201915b505050505081565b60008181526005602052604090206001810154905491926001600160a01b03821692600160a01b90920460f01b9190565b60015460408051600160e11b6317aa5fb702815233600482015290516001600160a01b0390921691632f54bf6e91602480820192602092909190829003018186803b1580156112c457600080fd5b505afa1580156112d8573d6000803e3d6000fd5b505050506040513d60208110156112ee57600080fd5b50516112f957600080fd5b60095460ff161561133e57604051600160e51b62461bcd0281526004018080602001828103825260268152602001806148356026913960400191505060405180910390fd5b6009805460ff19166001908117909155604080516004815260248101909152602080820180516001600160e01b0316600160e11b6316e25ee50217815260009390935260089052516113b1917fad67d757c34507f157cacfa2e3153e9f260a2244f30428821be7be64587ac55f91614635565b50604080516004815260248101909152602080820180516001600160e01b0316600160e01b632f47302102178152600260005260089091529051611416917f6add646517a5b0f6793cd5891b7937d28a5b2981a5d88ebc7cd776088fea904191614635565b50604080516004815260248101909152602080820180516001600160e01b0316600160e11b63577c091b0217815260036000526008909152905161147b917f625b35f5e76f098dd7c3a05b10e2e5e78a4a01228d60c3b143426cdf36d2645591614635565b5060408051600480825260248201909252602080820180516001600160e01b0316600160e11b635815e18b0217815260009390935260089052516114e0917f9321edea6e3be4df59a344b401fab4f888b556fda1f954244cff9204bad624b891614635565b50604080516004815260248101909152602080820180516001600160e01b0316600160e01b6365a8c52302178152600560005260089091529051611545917f91238f30f286c9a1c6e901c4eda3b214c381c846e3dbe48df95c21488e8e1fdb91614635565b50604080516004815260248101909152602080820180516001600160e01b0316600160e01b63872f1eb3021781526006600052600890915290516115aa917f13acf3fc7bed94759963f076d5d3443d88732026bffc8253bdf4a6e65f21ecc591614635565b50604080516004815260248101909152602080820180516001600160e01b03166001600160e01b625c66d7020319178152600760005260089091529051611612917f24cd397636bedc6cf9b490d0edd57c769c19b367fb7d5c2344ae1ddc7d21c14491614635565b50604080516004815260248101909152602080820180516001600160e01b0316600160e01b63ccace7df02178152600860008190529091529051611677917fe4c2e8be66af8dd2d277000f4f830a10546f8b14e45cd850b875c98ba0f0d2cd91614635565b50604080516004815260248101909152602080820180516001600160e01b0316600160e11b63311e15e5021781526009600052600890915290516116dc917f82c9e868e45873bb5a4f47c09e14a12f6a6314e13aabd611e4374762bb4e8b3691614635565b50604080516004815260248101909152602080820180516001600160e01b0316600160e01b63bd03e50102178152600c60005260089091529051611741917faba08fc86a199da17c4b45fa0fb586714474d27e5e1f0220658b6275561b2e1891614635565b50604080516004815260248101909152602080820180516001600160e01b0316600160e01b63c6318c2302178152600d600052600890915290516117a6917f9006e1a1959cda25aa0dba7b7a958efb843c4c8cb81a2c2fb8637a074e0818f291614635565b50604080516004815260248101909152602080820180516001600160e01b0316600160e01b63c85e5efd02178152600e6000526008909152905161180b917fb6457486547dfd0925a66a479476c3a3e54935ea6192a908abe6bd58ec247b4191614635565b50604080516004815260248101909152602080820180516001600160e01b0316600160e01b6342a049cd02178152600f60005260089091529051611870917f8fab3b3b6d3bf24f9b00213fe8dda2fb1e188fcd88f523fcb711ff1f6aed59e391614635565b50604080516004815260248101909152602080820180516001600160e01b0316600160e41b630c578f23021781526010600052600890915290516118d5917fdf6cae10d416b4d6f459eba806bebc4b85f190dfac647ab7cb4cd2638815444c91614635565b50604080516004815260248101909152602080820180516001600160e01b0316600160e01b63ebff71c30217815260116000526008909152905161193a917fbb47c685b7a6169f9415fd073108f8b7da3e741b7dde8513850bca404684fa9791614635565b50604080516004815260248101909152602080820180516001600160e01b0316600160e01b639dd86e0f0217815260146000526008909152905161199f917fbb1110247bce6eaaf3cb168d5660645ab99866afefe1e7c6fa4388014157e5ba91614635565b50604080516004815260248101909152602080820180516001600160e01b0316600160e01b639dd86e0f02178152601560005260089091529051611a04917fb29f796e1978e2043677a1f0396c8f9106e30db6bae4734a9de4f7fffa6f3fb891614635565b50604080516004815260248101909152602080820180516001600160e01b0316600160e01b639dd86e0f02178152601660005260089091529051611a69917fe34c1268cf989e507da6d357c2274f08fc653db420491bb916dfda9e5c93bd5591614635565b50604080516004815260248101909152602080820180516001600160e01b0316600160e01b639dd86e0f02178152601760005260089091529051611ace917f69dd648f27f59b1ee254e03cc0e7f3101ebd5768b9ab5a13693b554f528fc0c591614635565b50604080516004815260248101909152602080820180516001600160e01b0316600160e01b639dd86e0f02178152601860005260089091529051611b33917f83ba890607818823e46eb1e5ed8f7282277ac60de8c863727688b48d92a8da6d91614635565b50604080516004815260248101909152602080820180516001600160e01b0316600160e01b639dd86e0f02178152601960005260089091529051611b98917f18fd5681ae57cb24534810e7d412d5f5690a9c6f8b4cd1522e2df7c22ae0888691614635565b50604080516004815260248101909152602080820180516001600160e01b0316600160e01b639dd86e0f02178152601a60005260089091529051611bfd917fb3f2dad8dfd667db2559ced4f80a5b7ba4238a3f650ecbeac793568105f8aa4991614635565b50604080516004815260248101909152602080820180516001600160e01b0316600160e11b6356a6621f02178152601b60005260089091529051611c62917fa7061849acf4dd50ca004db0f3783d22ac4c1e6e6ac4087d7aeaa0345df7c87b91614635565b50604080516004815260248101909152602080820180516001600160e01b0316600160e01b63e2cab14d02178152601c60005260089091529051611cc7917faec422c4c208375fe057bc4dcd2923fcfe7cde0b12bdd0474d1da225c34309b991614635565b50604080516004815260248101909152602080820180516001600160e01b0316600160e11b63495850ab02178152601d60005260089091529051611d2c917f103255ffe274dc2acf72b5305eaa32de1b2a3ce1e49af62b6d4c6ca9993c9e1691614635565b50604080516004815260248101909152602080820180516001600160e01b0316600160e01b63eaad1b3b02178152601e60005260089091529051611d91917f8ff154b69b3b40c11effaf182586e40eb0e8eab5c2d51945cbe34b1b0bcf6e2891614635565b50604080516004815260248101909152602080820180516001600160e01b0316600160e11b6324b5a44302178152601f60005260089091529051611df6917f3d4691043262bb71b358bddc6f01f8c4de71fc1f1a1b51e3a78463b85cab661e91614635565b50604080516004815260248101909152602080820180516001600160e01b0316600160e11b6352931d5102178152600082905260089091529051611e5b917f67c7b623d08894662a80b2d62b2359114b69172cd083a38f4bea1a9a8dcc7eb891614635565b50604080516004815260248101909152602080820180516001600160e01b0316600160e21b633dc800db02178152602160005260089091529051611ec0917f1e00437c059ded11d56fbc0f9acb2b99126636f749097c5c8224b228fcea6fe191614635565b50565b60066020526000908152604090205481565b60076020526000908152604090205481565b5050505050505050505050565b6001546001600160a01b031681565b60005460408051600160e31b6227050b028152600160f11b6123ab02600482015290516001600160a01b039092169133918391630138285891602480820192602092909190829003018186803b158015611f5c57600080fd5b505afa158015611f70573d6000803e3d6000fd5b505050506040513d6020811015611f8657600080fd5b50516001600160a01b031614611fda5760408051600160e51b62461bcd02815260206004820152600e6024820152600160921b6d139bdd08185d5d1a1bdc9a5e995902604482015290519081900360640190fd5b60648911158015611fec575060648a11155b6120385760408051600160e51b62461bcd0281526020600482015260126024820152600160701b71496e76616c69642070657263656e7461676502604482015290519081900360640190fd5b600160f31b6108ab026001600160f01b0319851614801561206057506001600160a01b038516155b8061206c575060008251115b61207557600080fd5b60018360038151811061208457fe5b602002602001015111156120e25760408051600160e51b62461bcd02815260206004820152601f60248201527f496e76616c6964207370656369616c207265736f6c7574696f6e20666c616700604482015290519081900360640190fd5b826003815181106120ef57fe5b6020026020010151600114156121155760028b1461210c57600080fd5b60009950600098505b6121278c8c8c8c8c8c8c8c8c8c61414e565b600082511180156121c6575060408051600481526024810191829052835190918491819060208401908083835b602083106121735780518252601f199092019160209182019101612154565b51815160209384036101000a600019018019909216911617905260405191909301819003902091850180516001600160e01b03199093166001600160e01b03909316929092179091525050905160041490505b1561227c5760408051600481526024810191829052835190918491819060208401908083835b6020831061220b5780518252601f1990920191602091820191016121ec565b51815160001960209485036101000a810191821691199290921617909152604080519590930185900390942087820180516001600160e01b03166001600160e01b03199092169190911781526004549094016000908152600890915220945161227a9594509192506146359050565b505b505050505050505050505050565b60005460408051600160e31b6227050b028152600160f11b6123ab02600482015290516001600160a01b039092169133918391630138285891602480820192602092909190829003018186803b1580156122e357600080fd5b505afa1580156122f7573d6000803e3d6000fd5b505050506040513d602081101561230d57600080fd5b50516001600160a01b0316146123615760408051600160e51b62461bcd02815260206004820152600e6024820152600160921b6d139bdd08185d5d1a1bdc9a5e995902604482015290519081900360640190fd5b61236b8b89614454565b6001146123b45760408051600160e51b62461bcd02815260206004820152600c6024820152600160a01b6b496e76616c696420526f6c6502604482015290519081900360640190fd5b606489111580156123c6575060648a11155b6124125760408051600160e51b62461bcd0281526020600482015260126024820152600160701b71496e76616c69642070657263656e7461676502604482015290519081900360640190fd5b600160f31b6108ab026001600160f01b0319851614801561243a57506001600160a01b038516155b80612446575060008251115b61244f57600080fd5b60018360038151811061245e57fe5b602002602001015111156124bc5760408051600160e51b62461bcd02815260206004820152601f60248201527f496e76616c6964207370656369616c207265736f6c7574696f6e20666c616700604482015290519081900360640190fd5b826003815181106124c957fe5b6020026020010151600114156124ef5760028b146124e657600080fd5b60009950600098505b60008d8152600860205260408120612506916146b3565b600082511180156125a5575060408051600481526024810191829052835190918491819060208401908083835b602083106125525780518252601f199092019160209182019101612533565b51815160209384036101000a600019018019909216911617905260405191909301819003902091850180516001600160e01b03199093166001600160e01b03909316929092179091525050905160041490505b156126625760408051600481526024810191829052835190918491819060208401908083835b602083106125ea5780518252601f1990920191602091820191016125cb565b6001836020036101000a03801982511681845116808217855250505050505090500191505060405180910390206001600160e01b0319166020820180516001600160e01b038381831617835250505050600860008f81526020019081526020016000209080519060200190612660929190614635565b505b8a60048e8154811061267057fe5b9060005260206000209060060201600001819055508960048e8154811061269357fe5b9060005260206000209060060201600101819055508660048e815481106126b657fe5b9060005260206000209060060201600401819055508760048e815481106126d957fe5b906000526020600020906006020160030190805190602001906126fd9291906146f7565b508260008151811061270b57fe5b602002602001015160048e8154811061272057fe5b9060005260206000209060060201600501819055508860048e8154811061274357fe5b9060005260206000209060060201600201819055508260018151811061276557fe5b60209081029190910181015160008f8152600590925260409091209081556001018054600160a01b61ffff021916600160a01b60f087901c02176001600160a01b0319166001600160a01b0387161790558251839060029081106127c557fe5b6020026020010151600660008f815260200190815260200160002081905550826003815181106127f157fe5b6020026020010151600760008f8152602001908152602001600020819055508c7f2a65d0fe76508fb4e604d4804927dce75b70f82e64a2025e3bffb2fc003418508d88604051808060200180602001838103835285818151815260200191508051906020019080838360005b8381101561287557818101518382015260200161285d565b50505050905090810190601f1680156128a25780820380516001836020036101000a031916815260200191505b50838103825284518152845160209182019186019080838360005b838110156128d55781810151838201526020016128bd565b50505050905090810190601f1680156129025780820380516001836020036101000a031916815260200191505b5094505050505060405180910390a250505050505050505050505050565b600254600160a01b900460ff161561293757600080fd5b6002805474ff00000000000000000000000000000000000000001916600160a01b1790556009805460ff19166001908117909155600380546001600160a01b0384166001600160a01b031990911617905560408051808201909152600d81527f556e63617465676f72697a65640000000000000000000000000000000000000060208201526129d791600160f11b6126a90290603c90600f90600061452a565b612a266040518060400160405280601381526020017f416464206e6577206d656d62657220726f6c6500000000000000000000000000815250600160f11b6126a902603c600f6001600061452a565b612a756040518060400160405280601281526020017f557064617465206d656d62657220726f6c650000000000000000000000000000815250600160f11b6126a902603c600f6001600061452a565b612ac46040518060400160405280601081526020017f416464206e65772063617465676f727900000000000000000000000000000000815250600160f01b61504302603c600f6001600061452a565b612b136040518060400160405280600d81526020017f456469742063617465676f727900000000000000000000000000000000000000815250600160f01b61504302603c600f6001600061452a565b612b4560405180606001604052806021815260200161485b60219139600160f01b614d53026032600f6002605061452a565b612b946040518060400160405280601981526020017f496d706c656d656e7420456d657267656e637920506175736500000000000000815250600160f01b614d53026000600f6001600061452a565b612bc66040518060600160405280602481526020016147dc60249139600160f01b614d53026032600f6002600061452a565b612c156040518060400160405280601981526020017f4275726e20436c61696d73204173736573736f7220426f6e6400000000000000815250600160f11b612a23026050600f6001600061452a565b612c476040518060600160405280602681526020016148a660269139600160f21b6110d102603c600f6001600061452a565b612c966040518060400160405280601881526020017f4368616e67657320746f204361706974616c204d6f64656c0000000000000000815250600160f31b6108ab026032600f6002603c61452a565b612ce56040518060400160405280601881526020017f4368616e67657320746f2050726963696e67204d6f64656c0000000000000000815250600160f31b6108ab026032600f6002603c61452a565b612d176040518060600160405280602a815260200161487c602a9139600160f01b615031026032600f6002605061452a565b612d666040518060400160405280601481526020017f41646420496e766573746d656e74204173736574000000000000000000000000815250600160f21b611411026032600f6002603c61452a565b612d9860405180606001604052806035815260200161480060359139600160f21b611411026032600f6002603c61452a565b612de76040518060400160405280601e81526020017f55706461746520496e766573746d656e74204173736574205374617475730000815250600160f21b611411026032600f6002603c61452a565b612e366040518060400160405280601081526020017f4368616e6765204142204d656d62657200000000000000000000000000000000815250600160f11b6126a9026032600f6002600061452a565b612e856040518060400160405280601281526020017f4164642043757272656e63792041737365740000000000000000000000000000815250600160f21b611411026032600f6002600061452a565b612ed46040518060400160405280600e81526020017f416e79206f74686572204974656d000000000000000000000000000000000000815250600160f31b6108ab026032600f6002605061452a565b612f236040518060400160405280601281526020017f5370656369616c205265736f6c7574696f6e0000000000000000000000000000815250600160f31b6108ab02604b60006002600061452a565b612f726040518060400160405280601781526020017f55706461746520546f6b656e20506172616d6574657273000000000000000000815250600160f21b611511026032600f6002603c61452a565b612fa460405180606001604052806021815260200161477560219139600160f21b611511026032600f6002603c61452a565b612ff36040518060400160405280601c81526020017f55706461746520476f7665726e616e636520506172616d657465727300000000815250600160f11b6123ab026032600f6002603c61452a565b6130426040518060400160405280601b81526020017f5570646174652051756f746174696f6e20506172616d65746572730000000000815250600160f21b611451026032600f6002603c61452a565b6130746040518060600160405280602381526020016147b960239139600160f21b6110d1026032600f6002603c61452a565b6130a660405180606001604052806023815260200161479660239139600160f21b611411026032600f6002603c61452a565b6130f56040518060400160405280601f81526020017f557064617465204361706974616c204d6f64656c20506172616d657465727300815250600160f21b611411026032600f6002603c61452a565b6131446040518060400160405280601981526020017f557064617465204164647265737320506172616d657465727300000000000000815250600160f01b614d53026032600f6002603c61452a565b6131936040518060400160405280601781526020017f557064617465204f776e657220506172616d6574657273000000000000000000815250600160f01b614d53026032600f6002600061452a565b6131e26040518060400160405280601f81526020017f52656c65617365206e657720736d61727420636f6e747261637420636f646500815250600160f01b614d53026032600f6002605061452a565b6132316040518060400160405280601b81526020017f456469742043757272656e637920417373657420416464726573730000000000815250600160f21b611411026032600f6001603c61452a565b6132806040518060400160405280601b81526020017f456469742043757272656e637920417373657420626173654d696e0000000000815250600160f21b611411026032600f6002603c61452a565b6132b260405180606001604052806029815260200161474c60299139600160f21b611411026032600f6002603c61452a565b6133016040518060400160405280601581526020017f54726164696e67205472696767657220436865636b0000000000000000000000815250600160f21b611411026028600f6002603c61452a565b6133506040518060400160405280601081526020017f416464206e657720636f6e747261637400000000000000000000000000000000815250600160f01b614d5302603c600f6002603c61452a565b61339f6040518060400160405280601b81526020017f546f6b656e20436f6e74726f6c6c657220506172616d65746572730000000000815250600160f01b61544302603c600f6002603c61452a565b604080516004815260248101909152602080820180516001600160e01b0316600160e11b6316e25ee502178152600160005260089091529051613403917fad67d757c34507f157cacfa2e3153e9f260a2244f30428821be7be64587ac55f91614635565b50604080516004815260248101909152602080820180516001600160e01b0316600160e01b632f47302102178152600260005260089091529051613468917f6add646517a5b0f6793cd5891b7937d28a5b2981a5d88ebc7cd776088fea904191614635565b50604080516004815260248101909152602080820180516001600160e01b0316600160e11b63577c091b021781526003600052600890915290516134cd917f625b35f5e76f098dd7c3a05b10e2e5e78a4a01228d60c3b143426cdf36d2645591614635565b5060408051600480825260248201909252602080820180516001600160e01b0316600160e11b635815e18b021781526000939093526008905251613532917f9321edea6e3be4df59a344b401fab4f888b556fda1f954244cff9204bad624b891614635565b50604080516004815260248101909152602080820180516001600160e01b0316600160e01b6365a8c52302178152600560005260089091529051613597917f91238f30f286c9a1c6e901c4eda3b214c381c846e3dbe48df95c21488e8e1fdb91614635565b50604080516004815260248101909152602080820180516001600160e01b0316600160e01b63872f1eb3021781526006600052600890915290516135fc917f13acf3fc7bed94759963f076d5d3443d88732026bffc8253bdf4a6e65f21ecc591614635565b50604080516004815260248101909152602080820180516001600160e01b03166001600160e01b625c66d7020319178152600760005260089091529051613664917f24cd397636bedc6cf9b490d0edd57c769c19b367fb7d5c2344ae1ddc7d21c14491614635565b50604080516004815260248101909152602080820180516001600160e01b0316600160e01b63ccace7df021781526008600081905290915290516136c9917fe4c2e8be66af8dd2d277000f4f830a10546f8b14e45cd850b875c98ba0f0d2cd91614635565b50604080516004815260248101909152602080820180516001600160e01b0316600160e11b63311e15e50217815260096000526008909152905161372e917f82c9e868e45873bb5a4f47c09e14a12f6a6314e13aabd611e4374762bb4e8b3691614635565b50604080516004815260248101909152602080820180516001600160e01b0316600160e01b63bd03e50102178152600c60005260089091529051613793917faba08fc86a199da17c4b45fa0fb586714474d27e5e1f0220658b6275561b2e1891614635565b50604080516004815260248101909152602080820180516001600160e01b0316600160e01b63c6318c2302178152600d600052600890915290516137f8917f9006e1a1959cda25aa0dba7b7a958efb843c4c8cb81a2c2fb8637a074e0818f291614635565b50604080516004815260248101909152602080820180516001600160e01b0316600160e01b63c85e5efd02178152600e6000526008909152905161385d917fb6457486547dfd0925a66a479476c3a3e54935ea6192a908abe6bd58ec247b4191614635565b50604080516004815260248101909152602080820180516001600160e01b0316600160e01b6342a049cd02178152600f600052600890915290516138c2917f8fab3b3b6d3bf24f9b00213fe8dda2fb1e188fcd88f523fcb711ff1f6aed59e391614635565b50604080516004815260248101909152602080820180516001600160e01b0316600160e41b630c578f2302178152601060005260089091529051613927917fdf6cae10d416b4d6f459eba806bebc4b85f190dfac647ab7cb4cd2638815444c91614635565b50604080516004815260248101909152602080820180516001600160e01b0316600160e01b63ebff71c30217815260116000526008909152905161398c917fbb47c685b7a6169f9415fd073108f8b7da3e741b7dde8513850bca404684fa9791614635565b50604080516004815260248101909152602080820180516001600160e01b0316600160e01b639dd86e0f021781526014600052600890915290516139f1917fbb1110247bce6eaaf3cb168d5660645ab99866afefe1e7c6fa4388014157e5ba91614635565b50604080516004815260248101909152602080820180516001600160e01b0316600160e01b639dd86e0f02178152601560005260089091529051613a56917fb29f796e1978e2043677a1f0396c8f9106e30db6bae4734a9de4f7fffa6f3fb891614635565b50604080516004815260248101909152602080820180516001600160e01b0316600160e01b639dd86e0f02178152601660005260089091529051613abb917fe34c1268cf989e507da6d357c2274f08fc653db420491bb916dfda9e5c93bd5591614635565b50604080516004815260248101909152602080820180516001600160e01b0316600160e01b639dd86e0f02178152601760005260089091529051613b20917f69dd648f27f59b1ee254e03cc0e7f3101ebd5768b9ab5a13693b554f528fc0c591614635565b50604080516004815260248101909152602080820180516001600160e01b0316600160e01b639dd86e0f02178152601860005260089091529051613b85917f83ba890607818823e46eb1e5ed8f7282277ac60de8c863727688b48d92a8da6d91614635565b50604080516004815260248101909152602080820180516001600160e01b0316600160e01b639dd86e0f02178152601960005260089091529051613bea917f18fd5681ae57cb24534810e7d412d5f5690a9c6f8b4cd1522e2df7c22ae0888691614635565b50604080516004815260248101909152602080820180516001600160e01b0316600160e01b639dd86e0f02178152601a60005260089091529051613c4f917fb3f2dad8dfd667db2559ced4f80a5b7ba4238a3f650ecbeac793568105f8aa4991614635565b50604080516004815260248101909152602080820180516001600160e01b0316600160e11b6356a6621f02178152601b60005260089091529051613cb4917fa7061849acf4dd50ca004db0f3783d22ac4c1e6e6ac4087d7aeaa0345df7c87b91614635565b50604080516004815260248101909152602080820180516001600160e01b0316600160e01b63e2cab14d02178152601c60005260089091529051613d19917faec422c4c208375fe057bc4dcd2923fcfe7cde0b12bdd0474d1da225c34309b991614635565b50604080516004815260248101909152602080820180516001600160e01b0316600160e11b63495850ab02178152601d60005260089091529051613d7e917f103255ffe274dc2acf72b5305eaa32de1b2a3ce1e49af62b6d4c6ca9993c9e1691614635565b50604080516004815260248101909152602080820180516001600160e01b0316600160e01b63eaad1b3b02178152601e60005260089091529051613de3917f8ff154b69b3b40c11effaf182586e40eb0e8eab5c2d51945cbe34b1b0bcf6e2891614635565b50604080516004815260248101909152602080820180516001600160e01b0316600160e11b6324b5a44302178152601f60005260089091529051613e48917f3d4691043262bb71b358bddc6f01f8c4de71fc1f1a1b51e3a78463b85cab661e91614635565b50604080516004815260248101909152602080820180516001600160e01b0316600160e11b6352931d5102178152600082905260089091529051613ead917f67c7b623d08894662a80b2d62b2359114b69172cd083a38f4bea1a9a8dcc7eb891614635565b50604080516004815260248101909152602080820180516001600160e01b0316600160e21b633dc800db02178152602160005260089091529051613f12917f1e00437c059ded11d56fbc0f9acb2b99126636f749097c5c8224b228fcea6fe191614635565b50604080516004815260248101909152602080820180516001600160e01b0316600160e01b632c72135302178152602260005260089091529051613f77917f53e745d3a0288b4f074f91b5108d1f15cdc75852e87354269951b8a0b76f980891614635565b50604080516004815260248101909152602080820180516001600160e01b0316600160e01b639dd86e0f02178152602360005260089091529051613fdc917f2f904353aa0b08e30a8bee5eb29611b4fc31bb40ab4d96aba700ec64aa7fc9ae91614635565b5050565b565b6000546001600160a01b031681565b6000546001600160a01b031615614019576000546001600160a01b0316331461401957600080fd5b600080546001600160a01b039092166001600160a01b031992831681179091556001805483168217905560028054909216179055565b600081815260056020908152604080832060018082015491546008855283862080548551600261010095831615959095026000190190911693909304601f81018790048702840187019095528483528695869586956060958b956001600160a01b03831695600160a01b90930460f01b94909383918301828280156141155780601f106140ea57610100808354040283529160200191614115565b820191906000526020600020905b8154815290600101906020018083116140f857829003601f168201915b505050505090509450945094509450945091939590929450565b5050505050505050505050505050565b6002546001600160a01b031681565b6141588987614454565b6001146141a15760408051600160e51b62461bcd02815260206004820152600c6024820152600160a01b6b496e76616c696420526f6c6502604482015290519081900360640190fd5b60046040518060c001604052808b81526020018a8152602001898152602001888152602001878152602001836000815181106141d957fe5b602090810291909101810151909152825460018181018086556000958652948390208451600690930201918255838301519082015560408301516002820155606083015180519192614233926003850192909101906146f7565b506080820151816004015560a082015181600501555050506000600160048054905003905060405180606001604052808360018151811061427057fe5b60209081029190910181015182526001600160a01b03808816838301526001600160f01b03198716604093840152600085815260058352839020845181559184015160019092018054949093015160f01c600160a01b02600160a01b61ffff0219929091166001600160a01b031990941693909317169190911790558151829060029081106142fb57fe5b602002602001015160066000838152602001908152602001600020819055508160038151811061432757fe5b60200260200101516007600083815260200190815260200160002081905550807f2a65d0fe76508fb4e604d4804927dce75b70f82e64a2025e3bffb2fc003418508c87604051808060200180602001838103835285818151815260200191508051906020019080838360005b838110156143ab578181015183820152602001614393565b50505050905090810190601f1680156143d85780820380516001836020036101000a031916815260200191505b50838103825284518152845160209182019186019080838360005b8381101561440b5781810151838201526020016143f3565b50505050905090810190601f1680156144385780820380516001836020036101000a031916815260200191505b5094505050505060405180910390a25050505050505050505050565b600080600360009054906101000a90046001600160a01b03166001600160a01b031663790e118c6040518163ffffffff1660e01b815260040160206040518083038186803b1580156144a557600080fd5b505afa1580156144b9573d6000803e3d6000fd5b505050506040513d60208110156144cf57600080fd5b505190508084106144e4576000915050614524565b60005b835181101561451d57818482815181106144fd57fe5b60200260200101511061451557600092505050614524565b6001016144e7565b5060019150505b92915050565b60408051600180825281830190925260609160208083019080388339505060408051600480825260a0820190925292935060609291506020820160808038833901905050905060028260008151811061457f57fe5b60200260200101818152505060008160008151811061459a57fe5b6020026020010181815250506000816001815181106145b557fe5b60200260200101818152505082816002815181106145cf57fe5b602090810291909101015284156145e75760006145ea565b60015b60ff16816003815181106145fa57fe5b60200260200101818152505061462b888588888662093a806040518060200160405280600081525060008f8a61414e565b5050505050505050565b828054600181600116156101000203166002900490600052602060002090601f016020900481019282601f1061467657805160ff19168380011785556146a3565b828001600101855582156146a3579182015b828111156146a3578251825591602001919060010190614688565b506146af929150614731565b5090565b50805460018160011615610100020316600290046000825580601f106146d95750611ec0565b601f016020900490600052602060002090810190611ec09190614731565b8280548282559060005260206000209081019282156146a357916020028201828111156146a3578251825591602001919060010190614688565b61118e91905b808211156146af576000815560010161473756fe4564697420496e766573746d656e74204173736574204164647265737320616e6420646563696d616c557064617465205269736b204173736573736d656e7420506172616d657465727355706461746520496e766573746d656e74204d6f64756c6520506172616d657465727355706461746520436c61696d73204173736573736d656e7420506172616d6574657273457874656e64206f7220537769746368204f666620456d657267656e63792050617573654564697420496e766573746d656e74204173736574206d696e20616e64206d617820686f6c64696e672070657263656e746167657343617465676f727920616374696f6e2068617368657320616c7265616479207570646174656455706772616465206120636f6e747261637420496d706c656d656e746174696f6e57697468647261772066756e647320746f2050617920666f7220537570706f7274205365727669636573506175736520436c61696d204173736573736f7220566f74696e6720666f7220332064617973a165627a7a723058202cce9a84126b5110d481d4a44d521fe65f2985f08538fcdfceb2cf945540103a0029",
  "compiler": {
    "name": "solc",
    "version": "0.5.7+commit.6da8b019.Emscripten.clang",
    "optimizer": {
      "enabled": true,
      "runs": 200
    },
    "evmVersion": "petersburg"
  }
}