{
  "fileName": "ERC20Mock.sol",
  "contractName": "ERC20Mock",
  "source": "pragma solidity ^0.5.0;\n\nimport \"@openzeppelin/contracts/token/ERC20/ERC20.sol\";\n\ncontract ERC20Mock is ERC20 {\n\n  function mint(uint256 amount) public {\n    _mint(msg.sender, amount);\n  }\n\n  function mint(address account, uint256 amount) public {\n    _mint(account, amount);\n  }\n\n}\n",
  "sourcePath": "contracts/mocks/ERC20Mock.sol",
  "abi": [
    {
      "constant": false,
      "inputs": [
        {
          "name": "spender",
          "type": "address"
        },
        {
          "name": "amount",
          "type": "uint256"
        }
      ],
      "name": "approve",
      "outputs": [
        {
          "name": "",
          "type": "bool"
        }
      ],
      "payable": false,
      "stateMutability": "nonpayable",
      "type": "function"
    },
    {
      "constant": true,
      "inputs": [],
      "name": "totalSupply",
      "outputs": [
        {
          "name": "",
          "type": "uint256"
        }
      ],
      "payable": false,
      "stateMutability": "view",
      "type": "function"
    },
    {
      "constant": false,
      "inputs": [
        {
          "name": "sender",
          "type": "address"
        },
        {
          "name": "recipient",
          "type": "address"
        },
        {
          "name": "amount",
          "type": "uint256"
        }
      ],
      "name": "transferFrom",
      "outputs": [
        {
          "name": "",
          "type": "bool"
        }
      ],
      "payable": false,
      "stateMutability": "nonpayable",
      "type": "function"
    },
    {
      "constant": false,
      "inputs": [
        {
          "name": "spender",
          "type": "address"
        },
        {
          "name": "addedValue",
          "type": "uint256"
        }
      ],
      "name": "increaseAllowance",
      "outputs": [
        {
          "name": "",
          "type": "bool"
        }
      ],
      "payable": false,
      "stateMutability": "nonpayable",
      "type": "function"
    },
    {
      "constant": false,
      "inputs": [
        {
          "name": "account",
          "type": "address"
        },
        {
          "name": "amount",
          "type": "uint256"
        }
      ],
      "name": "mint",
      "outputs": [],
      "payable": false,
      "stateMutability": "nonpayable",
      "type": "function"
    },
    {
      "constant": true,
      "inputs": [
        {
          "name": "account",
          "type": "address"
        }
      ],
      "name": "balanceOf",
      "outputs": [
        {
          "name": "",
          "type": "uint256"
        }
      ],
      "payable": false,
      "stateMutability": "view",
      "type": "function"
    },
    {
      "constant": false,
      "inputs": [
        {
          "name": "amount",
          "type": "uint256"
        }
      ],
      "name": "mint",
      "outputs": [],
      "payable": false,
      "stateMutability": "nonpayable",
      "type": "function"
    },
    {
      "constant": false,
      "inputs": [
        {
          "name": "spender",
          "type": "address"
        },
        {
          "name": "subtractedValue",
          "type": "uint256"
        }
      ],
      "name": "decreaseAllowance",
      "outputs": [
        {
          "name": "",
          "type": "bool"
        }
      ],
      "payable": false,
      "stateMutability": "nonpayable",
      "type": "function"
    },
    {
      "constant": false,
      "inputs": [
        {
          "name": "recipient",
          "type": "address"
        },
        {
          "name": "amount",
          "type": "uint256"
        }
      ],
      "name": "transfer",
      "outputs": [
        {
          "name": "",
          "type": "bool"
        }
      ],
      "payable": false,
      "stateMutability": "nonpayable",
      "type": "function"
    },
    {
      "constant": true,
      "inputs": [
        {
          "name": "owner",
          "type": "address"
        },
        {
          "name": "spender",
          "type": "address"
        }
      ],
      "name": "allowance",
      "outputs": [
        {
          "name": "",
          "type": "uint256"
        }
      ],
      "payable": false,
      "stateMutability": "view",
      "type": "function"
    },
    {
      "anonymous": false,
      "inputs": [
        {
          "indexed": true,
          "name": "from",
          "type": "address"
        },
        {
          "indexed": true,
          "name": "to",
          "type": "address"
        },
        {
          "indexed": false,
          "name": "value",
          "type": "uint256"
        }
      ],
      "name": "Transfer",
      "type": "event"
    },
    {
      "anonymous": false,
      "inputs": [
        {
          "indexed": true,
          "name": "owner",
          "type": "address"
        },
        {
          "indexed": true,
          "name": "spender",
          "type": "address"
        },
        {
          "indexed": false,
          "name": "value",
          "type": "uint256"
        }
      ],
      "name": "Approval",
      "type": "event"
    }
  ],
  "bytecode": "0x60806040526109b3806100136000396000f3fe608060405234801561001057600080fd5b506004361061009e5760003560e01c806370a082311161006657806370a082311461018d578063a0712d68146101b3578063a457c2d7146101d0578063a9059cbb146101fc578063dd62ed3e146102285761009e565b8063095ea7b3146100a357806318160ddd146100e357806323b872dd146100fd578063395093511461013357806340c10f191461015f575b600080fd5b6100cf600480360360408110156100b957600080fd5b506001600160a01b038135169060200135610256565b604080519115158252519081900360200190f35b6100eb610273565b60408051918252519081900360200190f35b6100cf6004803603606081101561011357600080fd5b506001600160a01b03813581169160208101359091169060400135610279565b6100cf6004803603604081101561014957600080fd5b506001600160a01b038135169060200135610306565b61018b6004803603604081101561017557600080fd5b506001600160a01b03813516906020013561035a565b005b6100eb600480360360208110156101a357600080fd5b50356001600160a01b0316610368565b61018b600480360360208110156101c957600080fd5b5035610383565b6100cf600480360360408110156101e657600080fd5b506001600160a01b038135169060200135610390565b6100cf6004803603604081101561021257600080fd5b506001600160a01b0381351690602001356103fe565b6100eb6004803603604081101561023e57600080fd5b506001600160a01b0381358116916020013516610412565b600061026a61026361043d565b8484610441565b50600192915050565b60025490565b6000610286848484610533565b6102fc8461029261043d565b6102f7856040518060600160405280602881526020016108f2602891396001600160a01b038a166000908152600160205260408120906102d061043d565b6001600160a01b03168152602081019190915260400160002054919063ffffffff61069516565b610441565b5060019392505050565b600061026a61031361043d565b846102f7856001600061032461043d565b6001600160a01b03908116825260208083019390935260409182016000908120918c16815292529020549063ffffffff61072f16565b6103648282610793565b5050565b6001600160a01b031660009081526020819052604090205490565b61038d3382610793565b50565b600061026a61039d61043d565b846102f78560405180606001604052806025815260200161096360259139600160006103c761043d565b6001600160a01b03908116825260208083019390935260409182016000908120918d1681529252902054919063ffffffff61069516565b600061026a61040b61043d565b8484610533565b6001600160a01b03918216600090815260016020908152604080832093909416825291909152205490565b3390565b6001600160a01b03831661048957604051600160e51b62461bcd02815260040180806020018281038252602481526020018061093f6024913960400191505060405180910390fd5b6001600160a01b0382166104d157604051600160e51b62461bcd0281526004018080602001828103825260228152602001806108aa6022913960400191505060405180910390fd5b6001600160a01b03808416600081815260016020908152604080832094871680845294825291829020859055815185815291517f8c5be1e5ebec7d5bd14f71427d1e84f3dd0314c0f7b2291e5b200ac8c7c3b9259281900390910190a3505050565b6001600160a01b03831661057b57604051600160e51b62461bcd02815260040180806020018281038252602581526020018061091a6025913960400191505060405180910390fd5b6001600160a01b0382166105c357604051600160e51b62461bcd0281526004018080602001828103825260238152602001806108876023913960400191505060405180910390fd5b610606816040518060600160405280602681526020016108cc602691396001600160a01b038616600090815260208190526040902054919063ffffffff61069516565b6001600160a01b03808516600090815260208190526040808220939093559084168152205461063b908263ffffffff61072f16565b6001600160a01b038084166000818152602081815260409182902094909455805185815290519193928716927fddf252ad1be2c89b69c2b068fc378daa952ba7f163c4a11628f55a4df523b3ef92918290030190a3505050565b6000818484111561072757604051600160e51b62461bcd0281526004018080602001828103825283818151815260200191508051906020019080838360005b838110156106ec5781810151838201526020016106d4565b50505050905090810190601f1680156107195780820380516001836020036101000a031916815260200191505b509250505060405180910390fd5b505050900390565b60008282018381101561078c5760408051600160e51b62461bcd02815260206004820152601b60248201527f536166654d6174683a206164646974696f6e206f766572666c6f770000000000604482015290519081900360640190fd5b9392505050565b6001600160a01b0382166107f15760408051600160e51b62461bcd02815260206004820152601f60248201527f45524332303a206d696e7420746f20746865207a65726f206164647265737300604482015290519081900360640190fd5b600254610804908263ffffffff61072f16565b6002556001600160a01b038216600090815260208190526040902054610830908263ffffffff61072f16565b6001600160a01b0383166000818152602081815260408083209490945583518581529351929391927fddf252ad1be2c89b69c2b068fc378daa952ba7f163c4a11628f55a4df523b3ef9281900390910190a3505056fe45524332303a207472616e7366657220746f20746865207a65726f206164647265737345524332303a20617070726f766520746f20746865207a65726f206164647265737345524332303a207472616e7366657220616d6f756e7420657863656564732062616c616e636545524332303a207472616e7366657220616d6f756e74206578636565647320616c6c6f77616e636545524332303a207472616e736665722066726f6d20746865207a65726f206164647265737345524332303a20617070726f76652066726f6d20746865207a65726f206164647265737345524332303a2064656372656173656420616c6c6f77616e63652062656c6f77207a65726fa165627a7a7230582096557abf42d6757e51d01c72ed4544dc4d583ceb0c1fe1a83993e832aca0d83d0029",
  "compiler": {
    "name": "solc",
    "version": "0.5.7+commit.6da8b019.Emscripten.clang",
    "optimizer": {
      "enabled": true,
      "runs": 200
    },
    "evmVersion": "petersburg"
  }
}