{
  "fileName": "ExchangeFactoryMock.sol",
  "contractName": "ExchangeFactoryMock",
  "source": "pragma solidity ^0.5.0;\n\ncontract ExchangeFactoryMock {\n\n  mapping(address => address) internal exchange;\n\n  mapping(address => address) internal token;\n\n  function getExchange(address _tokenAddress) public view returns (address) {\n\n    return exchange[_tokenAddress];\n  }\n\n  function getToken(address _exchangeAddress) public view returns (address) {\n    return token[_exchangeAddress];\n  }\n\n  function setFactory(address _tokenAddress, address _exchangeAddress) public {\n    exchange[_tokenAddress] = _exchangeAddress;\n    token[_exchangeAddress] = _tokenAddress;\n  }\n\n}\n",
  "sourcePath": "contracts/mocks/ExchangeFactoryMock.sol",
  "abi": [
    {
      "constant": true,
      "inputs": [
        {
          "name": "_tokenAddress",
          "type": "address"
        }
      ],
      "name": "getExchange",
      "outputs": [
        {
          "name": "",
          "type": "address"
        }
      ],
      "payable": false,
      "stateMutability": "view",
      "type": "function"
    },
    {
      "constant": true,
      "inputs": [
        {
          "name": "_exchangeAddress",
          "type": "address"
        }
      ],
      "name": "getToken",
      "outputs": [
        {
          "name": "",
          "type": "address"
        }
      ],
      "payable": false,
      "stateMutability": "view",
      "type": "function"
    },
    {
      "constant": false,
      "inputs": [
        {
          "name": "_tokenAddress",
          "type": "address"
        },
        {
          "name": "_exchangeAddress",
          "type": "address"
        }
      ],
      "name": "setFactory",
      "outputs": [],
      "payable": false,
      "stateMutability": "nonpayable",
      "type": "function"
    }
  ],
  "bytecode": "0x608060405234801561001057600080fd5b5061018c806100206000396000f3fe608060405234801561001057600080fd5b50600436106100415760003560e01c806306f2bf621461004657806359770438146100885780635e825564146100ae575b600080fd5b61006c6004803603602081101561005c57600080fd5b50356001600160a01b03166100de565b604080516001600160a01b039092168252519081900360200190f35b61006c6004803603602081101561009e57600080fd5b50356001600160a01b03166100fc565b6100dc600480360360408110156100c457600080fd5b506001600160a01b038135811691602001351661011a565b005b6001600160a01b039081166000908152602081905260409020541690565b6001600160a01b039081166000908152600160205260409020541690565b6001600160a01b039182166000818152602081815260408083208054969095166001600160a01b031996871681179095559382526001905291909120805490921617905556fea165627a7a7230582040b0700ac5cd9bd98d578f9e8257c8fdc2ddcd858793d4450ebb116641d4d4b70029",
  "compiler": {
    "name": "solc",
    "version": "0.5.7+commit.6da8b019.Emscripten.clang",
    "optimizer": {
      "enabled": true,
      "runs": 200
    },
    "evmVersion": "petersburg"
  }
}