{
  "fileName": "ExchangeMock.sol",
  "contractName": "ExchangeMock",
  "source": "pragma solidity ^0.5.0;\n\nimport \"@openzeppelin/contracts/token/ERC20/ERC20.sol\";\nimport \"./ExchangeFactoryMock.sol\";\n\ncontract ExchangeMock {\n\n  ERC20 internal token;\n  ExchangeFactoryMock internal factory;\n\n  constructor (address tokenAddress, address factoryAddress) public {\n    token = ERC20(tokenAddress);\n    factory = ExchangeFactoryMock(factoryAddress);\n  }\n\n  function recieveEther() public payable {\n\n  }\n\n  function removeEther(uint val) public {\n\n    (msg.sender).transfer(val);\n  }\n\n  function sendEther() public payable {\n\n  }\n\n  function rateFactor() public pure returns (uint256) {\n    return 10;\n  }\n\n  function getEthToTokenInputPrice(uint256 ethSold) public pure returns (uint256) {\n    // require(ethSold > 0);\n    // uint256 tokenReserve = token.balanceOf(address(this));\n    // return getInputPrice(ethSold, address(this).balance, tokenReserve);\n    return ethSold * rateFactor();\n  }\n\n  function getTokenToEthInputPrice(uint256 tokensSold) public pure returns (uint256) {\n    // require(tokensSold > 0);\n    // uint256 tokenReserve = token.balanceOf(address(this));\n    // uint256 ethBought = getInputPrice(tokensSold, tokenReserve, address(this).balance);\n    // return (ethBought * 10**18);\n    return (tokensSold / rateFactor());\n  }\n\n  function ethToTokenSwapInput(\n    uint256 minTokens,\n    uint256 deadline\n  )\n  public\n  payable\n  returns (uint256)\n  {\n    return ethToTokenInput(msg.value, minTokens, deadline, msg.sender, msg.sender);\n  }\n\n  function ethToTokenTransferInput(\n    uint256 minTokens,\n    uint256 deadline,\n    address recipient\n  )\n  public\n  payable\n  returns (uint256)\n  {\n    require(recipient != address(this) && recipient != address(0));\n    return ethToTokenInput(msg.value, minTokens, deadline, msg.sender, recipient);\n  }\n\n  function tokenToEthSwapInput(\n    uint256 tokensSold,\n    uint256 minEth,\n    uint256 deadline\n  )\n  public\n  payable\n  returns (uint256)\n  {\n    return tokenToEthInput(tokensSold, minEth, deadline, msg.sender, msg.sender);\n  }\n\n  function tokenToEthTransferInput(\n    uint256 tokensSold,\n    uint256 minEth,\n    uint256 deadline,\n    address payable recipient\n  )\n  public\n  payable\n  returns (uint256)\n  {\n    require(recipient != address(this) && recipient != address(0));\n    return tokenToEthInput(tokensSold, minEth, deadline, msg.sender, recipient);\n  }\n\n  function tokenToTokenSwapInput(\n    uint256 tokensSold,\n    uint256 minTokensBought,\n    uint256 minEthBought,\n    uint256 deadline,\n    address tokenAddress\n  )\n  public\n  returns (uint256)\n  {\n\n    address exchangeAddress = factory.getExchange(tokenAddress);\n    return tokenToTokenInput(\n      tokensSold,\n      minTokensBought,\n      minEthBought,\n      deadline,\n      msg.sender,\n      msg.sender,\n      exchangeAddress\n    );\n  }\n\n  function tokenToTokenTransferInput(\n    uint256 tokensSold,\n    uint256 minTokensBought,\n    uint256 minEthBought,\n    uint256 deadline,\n    address recipient,\n    address tokenAddress\n  )\n  public\n  returns (uint256)\n  {\n    address exchangeAddress = factory.getExchange(tokenAddress);\n    return tokenToTokenInput(\n      tokensSold,\n      minTokensBought,\n      minEthBought,\n      deadline,\n      msg.sender,\n      recipient,\n      exchangeAddress\n    );\n  }\n\n  function getInputPrice(\n    uint256 inputAmount,\n    uint256 inputReserve,\n    uint256 outputReserve\n  )\n  internal\n  pure\n  returns (uint256)\n  {\n    require(inputReserve > 0 && outputReserve > 0);\n    uint256 inputAmountWithFee = inputAmount * 997;\n    uint256 numerator = inputAmountWithFee * outputReserve;\n    uint256 denominator = (inputReserve * 1000) + inputAmountWithFee;\n    return (numerator / denominator);\n  }\n\n  function getOutputPrice(\n    uint256 outputAmount,\n    uint256 inputReserve,\n    uint256 outputReserve\n  )\n  internal\n  pure\n  returns (uint256)\n  {\n    require(inputReserve > 0 && outputReserve > 0);\n    uint256 numerator = inputReserve * outputAmount * 1000;\n    uint256 denominator = (outputReserve - outputAmount) * 997;\n    return (numerator / denominator + 1);\n  }\n\n  function ethToTokenInput(\n    uint256 ethSold,\n    uint256 minTokens,\n    uint256 deadline,\n    address buyer,\n    address recipient\n  )\n  internal\n  returns (uint256)\n  {\n    require(deadline >= block.timestamp && ethSold > 0 && minTokens > 0);\n    // uint256 tokenReserve = token.balanceOf(address(this));\n    uint256 tokensBought = ethSold * rateFactor();\n    require(tokensBought >= minTokens);\n    require(token.transfer(recipient, tokensBought));\n    buyer;\n    return tokensBought;\n  }\n\n  function tokenToTokenInput(\n    uint256 tokensSold,\n    uint256 minTokensBought,\n    uint256 minEthBought,\n    uint256 deadline,\n    address buyer,\n    address recipient,\n    address exchangeAddress\n  )\n  internal\n  returns (uint256)\n  {\n\n    require((deadline >= block.timestamp && tokensSold > 0) && (minTokensBought > 0 && minEthBought > 0));\n    require(exchangeAddress != address(this) && exchangeAddress != address(0));\n    // uint256 tokenReserve = token.balanceOf(address(this));\n    uint256 ethBought = tokensSold / rateFactor();\n    uint256 weiBought = (ethBought);\n    require(weiBought >= minEthBought);\n    require(token.transferFrom(buyer, address(this), tokensSold));\n\n\n    uint256 tokensBought = ExchangeMock(exchangeAddress).ethToTokenTransferInput.value(\n      weiBought)(minTokensBought, deadline, recipient);\n    // log.EthPurchase(buyer, tokensSold, weiBought);\n    return tokensBought;\n  }\n\n  function tokenToEthInput(\n    uint256 tokensSold,\n    uint256 minEth,\n    uint256 deadline,\n    address buyer,\n    address payable recipient\n  )\n  internal\n  returns (uint256)\n  {\n    require(deadline >= block.timestamp && tokensSold > 0 && minEth > 0);\n    // uint256 tokenReserve = token.balanceOf(address(this));\n    uint256 ethBought = tokensSold / rateFactor();\n    uint256 weiBought = ethBought;\n    require(weiBought >= minEth);\n    recipient.transfer(weiBought);\n    require(token.transferFrom(buyer, address(this), tokensSold));\n    // log.EthPurchase(buyer, tokens_sold, wei_bought)\n    return weiBought;\n  }\n}\n",
  "sourcePath": "contracts/mocks/ExchangeMock.sol",
  "abi": [
    {
      "constant": false,
      "inputs": [],
      "name": "sendEther",
      "outputs": [],
      "payable": true,
      "stateMutability": "payable",
      "type": "function"
    },
    {
      "constant": false,
      "inputs": [
        {
          "name": "tokensSold",
          "type": "uint256"
        },
        {
          "name": "minEth",
          "type": "uint256"
        },
        {
          "name": "deadline",
          "type": "uint256"
        },
        {
          "name": "recipient",
          "type": "address"
        }
      ],
      "name": "tokenToEthTransferInput",
      "outputs": [
        {
          "name": "",
          "type": "uint256"
        }
      ],
      "payable": true,
      "stateMutability": "payable",
      "type": "function"
    },
    {
      "constant": false,
      "inputs": [
        {
          "name": "val",
          "type": "uint256"
        }
      ],
      "name": "removeEther",
      "outputs": [],
      "payable": false,
      "stateMutability": "nonpayable",
      "type": "function"
    },
    {
      "constant": false,
      "inputs": [],
      "name": "recieveEther",
      "outputs": [],
      "payable": true,
      "stateMutability": "payable",
      "type": "function"
    },
    {
      "constant": true,
      "inputs": [
        {
          "name": "tokensSold",
          "type": "uint256"
        }
      ],
      "name": "getTokenToEthInputPrice",
      "outputs": [
        {
          "name": "",
          "type": "uint256"
        }
      ],
      "payable": false,
      "stateMutability": "pure",
      "type": "function"
    },
    {
      "constant": false,
      "inputs": [
        {
          "name": "tokensSold",
          "type": "uint256"
        },
        {
          "name": "minEth",
          "type": "uint256"
        },
        {
          "name": "deadline",
          "type": "uint256"
        }
      ],
      "name": "tokenToEthSwapInput",
      "outputs": [
        {
          "name": "",
          "type": "uint256"
        }
      ],
      "payable": true,
      "stateMutability": "payable",
      "type": "function"
    },
    {
      "constant": true,
      "inputs": [],
      "name": "rateFactor",
      "outputs": [
        {
          "name": "",
          "type": "uint256"
        }
      ],
      "payable": false,
      "stateMutability": "pure",
      "type": "function"
    },
    {
      "constant": false,
      "inputs": [
        {
          "name": "minTokens",
          "type": "uint256"
        },
        {
          "name": "deadline",
          "type": "uint256"
        },
        {
          "name": "recipient",
          "type": "address"
        }
      ],
      "name": "ethToTokenTransferInput",
      "outputs": [
        {
          "name": "",
          "type": "uint256"
        }
      ],
      "payable": true,
      "stateMutability": "payable",
      "type": "function"
    },
    {
      "constant": true,
      "inputs": [
        {
          "name": "ethSold",
          "type": "uint256"
        }
      ],
      "name": "getEthToTokenInputPrice",
      "outputs": [
        {
          "name": "",
          "type": "uint256"
        }
      ],
      "payable": false,
      "stateMutability": "pure",
      "type": "function"
    },
    {
      "constant": false,
      "inputs": [
        {
          "name": "tokensSold",
          "type": "uint256"
        },
        {
          "name": "minTokensBought",
          "type": "uint256"
        },
        {
          "name": "minEthBought",
          "type": "uint256"
        },
        {
          "name": "deadline",
          "type": "uint256"
        },
        {
          "name": "tokenAddress",
          "type": "address"
        }
      ],
      "name": "tokenToTokenSwapInput",
      "outputs": [
        {
          "name": "",
          "type": "uint256"
        }
      ],
      "payable": false,
      "stateMutability": "nonpayable",
      "type": "function"
    },
    {
      "constant": false,
      "inputs": [
        {
          "name": "minTokens",
          "type": "uint256"
        },
        {
          "name": "deadline",
          "type": "uint256"
        }
      ],
      "name": "ethToTokenSwapInput",
      "outputs": [
        {
          "name": "",
          "type": "uint256"
        }
      ],
      "payable": true,
      "stateMutability": "payable",
      "type": "function"
    },
    {
      "constant": false,
      "inputs": [
        {
          "name": "tokensSold",
          "type": "uint256"
        },
        {
          "name": "minTokensBought",
          "type": "uint256"
        },
        {
          "name": "minEthBought",
          "type": "uint256"
        },
        {
          "name": "deadline",
          "type": "uint256"
        },
        {
          "name": "recipient",
          "type": "address"
        },
        {
          "name": "tokenAddress",
          "type": "address"
        }
      ],
      "name": "tokenToTokenTransferInput",
      "outputs": [
        {
          "name": "",
          "type": "uint256"
        }
      ],
      "payable": false,
      "stateMutability": "nonpayable",
      "type": "function"
    },
    {
      "inputs": [
        {
          "name": "tokenAddress",
          "type": "address"
        },
        {
          "name": "factoryAddress",
          "type": "address"
        }
      ],
      "payable": false,
      "stateMutability": "nonpayable",
      "type": "constructor"
    }
  ],
  "bytecode": "0x608060405234801561001057600080fd5b506040516040806109438339810180604052604081101561003057600080fd5b508051602090910151600080546001600160a01b039384166001600160a01b031991821617909155600180549390921692169190911790556108cc806100776000396000f3fe6080604052600436106100a75760003560e01c8063a05e607711610064578063a05e60771461017d578063ad65d76d14610192578063cd7724c3146101c4578063ddf7e1a7146101ee578063f39b5b9b14610239578063f552d91b1461025c576100a7565b80630e29df22146100ac5780637237e031146100b6578063787a051b146101005780638f4062d7146100ac57806395b68fe71461012a57806395e3c50b14610154575b600080fd5b6100b46102af565b005b6100ee600480360360808110156100cc57600080fd5b50803590602081013590604081013590606001356001600160a01b03166102b1565b60408051918252519081900360200190f35b34801561010c57600080fd5b506100b46004803603602081101561012357600080fd5b50356102f3565b34801561013657600080fd5b506100ee6004803603602081101561014d57600080fd5b5035610324565b6100ee6004803603606081101561016a57600080fd5b508035906020810135906040013561033d565b34801561018957600080fd5b506100ee610354565b6100ee600480360360608110156101a857600080fd5b50803590602081013590604001356001600160a01b0316610359565b3480156101d057600080fd5b506100ee600480360360208110156101e757600080fd5b5035610392565b3480156101fa57600080fd5b506100ee600480360360a081101561021157600080fd5b50803590602081013590604081013590606081013590608001356001600160a01b03166103a4565b6100ee6004803603604081101561024f57600080fd5b508035906020013561043e565b34801561026857600080fd5b506100ee600480360360c081101561027f57600080fd5b508035906020810135906040810135906060810135906001600160a01b03608082013581169160a0013516610454565b565b60006001600160a01b03821630148015906102d457506001600160a01b03821615155b6102dd57600080fd5b6102ea85858533866104ef565b95945050505050565b604051339082156108fc029083906000818181858888f19350505050158015610320573d6000803e3d6000fd5b5050565b600061032e610354565b828161033657fe5b0492915050565b600061034c84848433336104ef565b949350505050565b600a90565b60006001600160a01b038216301480159061037c57506001600160a01b03821615155b61038557600080fd5b61034c3485853386610607565b600061039c610354565b909102919050565b60015460408051600160e11b6303795fb10281526001600160a01b0384811660048301529151600093849316916306f2bf62916024808301926020929190829003018186803b1580156103f657600080fd5b505afa15801561040a573d6000803e3d6000fd5b505050506040513d602081101561042057600080fd5b50519050610433878787873380876106e4565b979650505050505050565b600061044d3484843333610607565b9392505050565b60015460408051600160e11b6303795fb10281526001600160a01b0384811660048301529151600093849316916306f2bf62916024808301926020929190829003018186803b1580156104a657600080fd5b505afa1580156104ba573d6000803e3d6000fd5b505050506040513d60208110156104d057600080fd5b505190506104e3888888883389876106e4565b98975050505050505050565b60004284101580156105015750600086115b801561050d5750600085115b61051657600080fd5b6000610520610354565b878161052857fe5b049050808681101561053957600080fd5b6040516001600160a01b0385169082156108fc029083906000818181858888f1935050505015801561056f573d6000803e3d6000fd5b506000805460408051600160e01b6323b872dd0281526001600160a01b038981166004830152306024830152604482018d9052915191909216926323b872dd92606480820193602093909283900390910190829087803b1580156105d257600080fd5b505af11580156105e6573d6000803e3d6000fd5b505050506040513d60208110156105fc57600080fd5b505161043357600080fd5b60004284101580156106195750600086115b80156106255750600085115b61062e57600080fd5b6000610638610354565b870290508581101561064957600080fd5b6000805460408051600160e01b63a9059cbb0281526001600160a01b038781166004830152602482018690529151919092169263a9059cbb92604480820193602093909283900390910190829087803b1580156106a557600080fd5b505af11580156106b9573d6000803e3d6000fd5b505050506040513d60208110156106cf57600080fd5b50516106da57600080fd5b9695505050505050565b60004285101580156106f65750600088115b801561070d575060008711801561070d5750600086115b61071657600080fd5b6001600160a01b038216301480159061073757506001600160a01b03821615155b61074057600080fd5b600061074a610354565b898161075257fe5b049050808781101561076357600080fd5b6000805460408051600160e01b6323b872dd0281526001600160a01b038a81166004830152306024830152604482018f9052915191909216926323b872dd92606480820193602093909283900390910190829087803b1580156107c557600080fd5b505af11580156107d9573d6000803e3d6000fd5b505050506040513d60208110156107ef57600080fd5b50516107fa57600080fd5b6000846001600160a01b031663ad65d76d838c8b8a6040518563ffffffff1660e01b815260040180848152602001838152602001826001600160a01b03166001600160a01b0316815260200193505050506020604051808303818588803b15801561086457600080fd5b505af1158015610878573d6000803e3d6000fd5b50505050506040513d602081101561088f57600080fd5b50519b9a505050505050505050505056fea165627a7a723058202e4a97c1cf2dcc9055f78f5a9526001b0959d47320d9bb0d906b15f912323c120029",
  "compiler": {
    "name": "solc",
    "version": "0.5.7+commit.6da8b019.Emscripten.clang",
    "optimizer": {
      "enabled": true,
      "runs": 200
    },
    "evmVersion": "petersburg"
  }
}