{
  "fileName": "Governance.sol",
  "contractName": "Governance",
  "source": "// /* Copyright (C) 2017 GovBlocks.io\r\n\r\n//   This program is free software: you can redistribute it and/or modify\r\n//     it under the terms of the GNU General Public License as published by\r\n//     the Free Software Foundation, either version 3 of the License, or\r\n//     (at your option) any later version.\r\n\r\n//   This program is distributed in the hope that it will be useful,\r\n//     but WITHOUT ANY WARRANTY; without even the implied warranty of\r\n//     MERCHANTABILITY or FITNESS FOR A PARTICULAR PURPOSE.  See the\r\n//     GNU General Public License for more details.\r\n\r\n//   You should have received a copy of the GNU General Public License\r\n//     along with this program.  If not, see http://www.gnu.org/licenses/ */\r\n\r\npragma solidity ^0.5.0;\r\n\r\nimport \"@openzeppelin/contracts/math/SafeMath.sol\";\r\nimport \"../token/TokenController.sol\";\r\nimport \"./MemberRoles.sol\";\r\nimport \"./ProposalCategory.sol\";\r\nimport \"./external/IGovernance.sol\";\r\n\r\ncontract Governance is IGovernance, Iupgradable {\r\n\r\n  using SafeMath for uint;\r\n\r\n  enum ProposalStatus {\r\n    Draft,\r\n    AwaitingSolution,\r\n    VotingStarted,\r\n    Accepted,\r\n    Rejected,\r\n    Majority_Not_Reached_But_Accepted,\r\n    Denied\r\n  }\r\n\r\n  struct ProposalData {\r\n    uint propStatus;\r\n    uint finalVerdict;\r\n    uint category;\r\n    uint commonIncentive;\r\n    uint dateUpd;\r\n    address owner;\r\n  }\r\n\r\n  struct ProposalVote {\r\n    address voter;\r\n    uint proposalId;\r\n    uint dateAdd;\r\n  }\r\n\r\n  struct VoteTally {\r\n    mapping(uint => uint) memberVoteValue;\r\n    mapping(uint => uint) abVoteValue;\r\n    uint voters;\r\n  }\r\n\r\n  struct DelegateVote {\r\n    address follower;\r\n    address leader;\r\n    uint lastUpd;\r\n  }\r\n\r\n  ProposalVote[] internal allVotes;\r\n  DelegateVote[] public allDelegation;\r\n\r\n  mapping(uint => ProposalData) internal allProposalData;\r\n  mapping(uint => bytes[]) internal allProposalSolutions;\r\n  mapping(address => uint[]) internal allVotesByMember;\r\n  mapping(uint => mapping(address => bool)) public rewardClaimed;\r\n  mapping(address => mapping(uint => uint)) public memberProposalVote;\r\n  mapping(address => uint) public followerDelegation;\r\n  mapping(address => uint) internal followerCount;\r\n  mapping(address => uint[]) internal leaderDelegation;\r\n  mapping(uint => VoteTally) public proposalVoteTally;\r\n  mapping(address => bool) public isOpenForDelegation;\r\n  mapping(address => uint) public lastRewardClaimed;\r\n\r\n  bool internal constructorCheck;\r\n  uint public tokenHoldingTime;\r\n  uint internal roleIdAllowedToCatgorize;\r\n  uint internal maxVoteWeigthPer;\r\n  uint internal specialResolutionMajPerc;\r\n  uint internal maxFollowers;\r\n  uint internal totalProposals;\r\n  uint internal maxDraftTime;\r\n\r\n  MemberRoles internal memberRole;\r\n  ProposalCategory internal proposalCategory;\r\n  TokenController internal tokenInstance;\r\n\r\n  mapping(uint => uint) public proposalActionStatus;\r\n  mapping(uint => uint) internal proposalExecutionTime;\r\n  mapping(uint => mapping(address => bool)) public proposalRejectedByAB;\r\n  mapping(uint => uint) internal actionRejectedCount;\r\n\r\n  bool internal actionParamsInitialised;\r\n  uint internal actionWaitingTime;\r\n  uint constant internal AB_MAJ_TO_REJECT_ACTION = 3;\r\n\r\n  enum ActionStatus {\r\n    Pending,\r\n    Accepted,\r\n    Rejected,\r\n    Executed,\r\n    NoAction\r\n  }\r\n\r\n  /**\r\n  * @dev Called whenever an action execution is failed.\r\n  */\r\n  event ActionFailed (\r\n    uint256 proposalId\r\n  );\r\n\r\n  /**\r\n  * @dev Called whenever an AB member rejects the action execution.\r\n  */\r\n  event ActionRejected (\r\n    uint256 indexed proposalId,\r\n    address rejectedBy\r\n  );\r\n\r\n  /**\r\n  * @dev Checks if msg.sender is proposal owner\r\n  */\r\n  modifier onlyProposalOwner(uint _proposalId) {\r\n    require(msg.sender == allProposalData[_proposalId].owner, \"Not allowed\");\r\n    _;\r\n  }\r\n\r\n  /**\r\n  * @dev Checks if proposal is opened for voting\r\n  */\r\n  modifier voteNotStarted(uint _proposalId) {\r\n    require(allProposalData[_proposalId].propStatus < uint(ProposalStatus.VotingStarted));\r\n    _;\r\n  }\r\n\r\n  /**\r\n  * @dev Checks if msg.sender is allowed to create proposal under given category\r\n  */\r\n  modifier isAllowed(uint _categoryId) {\r\n    require(allowedToCreateProposal(_categoryId), \"Not allowed\");\r\n    _;\r\n  }\r\n\r\n  /**\r\n  * @dev Checks if msg.sender is allowed categorize proposal under given category\r\n  */\r\n  modifier isAllowedToCategorize() {\r\n    require(memberRole.checkRole(msg.sender, roleIdAllowedToCatgorize), \"Not allowed\");\r\n    _;\r\n  }\r\n\r\n  /**\r\n  * @dev Checks if msg.sender had any pending rewards to be claimed\r\n  */\r\n  modifier checkPendingRewards {\r\n    require(getPendingReward(msg.sender) == 0, \"Claim reward\");\r\n    _;\r\n  }\r\n\r\n  /**\r\n  * @dev Event emitted whenever a proposal is categorized\r\n  */\r\n  event ProposalCategorized(\r\n    uint indexed proposalId,\r\n    address indexed categorizedBy,\r\n    uint categoryId\r\n  );\r\n\r\n  /**\r\n   * @dev Removes delegation of an address.\r\n   * @param _add address to undelegate.\r\n   */\r\n  function removeDelegation(address _add) external onlyInternal {\r\n    _unDelegate(_add);\r\n  }\r\n\r\n  /**\r\n  * @dev Creates a new proposal\r\n  * @param _proposalDescHash Proposal description hash through IPFS having Short and long description of proposal\r\n  * @param _categoryId This id tells under which the proposal is categorized i.e. Proposal's Objective\r\n  */\r\n  function createProposal(\r\n    string calldata _proposalTitle,\r\n    string calldata _proposalSD,\r\n    string calldata _proposalDescHash,\r\n    uint _categoryId\r\n  )\r\n  external isAllowed(_categoryId)\r\n  {\r\n    require(ms.isMember(msg.sender), \"Not Member\");\r\n\r\n    _createProposal(_proposalTitle, _proposalSD, _proposalDescHash, _categoryId);\r\n  }\r\n\r\n  /**\r\n  * @dev Edits the details of an existing proposal\r\n  * @param _proposalId Proposal id that details needs to be updated\r\n  * @param _proposalDescHash Proposal description hash having long and short description of proposal.\r\n  */\r\n  function updateProposal(\r\n    uint _proposalId,\r\n    string calldata _proposalTitle,\r\n    string calldata _proposalSD,\r\n    string calldata _proposalDescHash\r\n  )\r\n  external onlyProposalOwner(_proposalId)\r\n  {\r\n    require(\r\n      allProposalSolutions[_proposalId].length < 2,\r\n      \"Not allowed\"\r\n    );\r\n    allProposalData[_proposalId].propStatus = uint(ProposalStatus.Draft);\r\n    allProposalData[_proposalId].category = 0;\r\n    allProposalData[_proposalId].commonIncentive = 0;\r\n    emit Proposal(\r\n      allProposalData[_proposalId].owner,\r\n      _proposalId,\r\n      now,\r\n      _proposalTitle,\r\n      _proposalSD,\r\n      _proposalDescHash\r\n    );\r\n  }\r\n\r\n  /**\r\n  * @dev Categorizes proposal to proceed further. Categories shows the proposal objective.\r\n  */\r\n  function categorizeProposal(\r\n    uint _proposalId,\r\n    uint _categoryId,\r\n    uint _incentive\r\n  )\r\n  external\r\n  voteNotStarted(_proposalId) isAllowedToCategorize\r\n  {\r\n    _categorizeProposal(_proposalId, _categoryId, _incentive);\r\n  }\r\n\r\n  /**\r\n  * @dev Submit proposal with solution\r\n  * @param _proposalId Proposal id\r\n  * @param _solutionHash Solution hash contains  parameters, values and description needed according to proposal\r\n  */\r\n  function submitProposalWithSolution(\r\n    uint _proposalId,\r\n    string calldata _solutionHash,\r\n    bytes calldata _action\r\n  )\r\n  external\r\n  onlyProposalOwner(_proposalId)\r\n  {\r\n\r\n    require(allProposalData[_proposalId].propStatus == uint(ProposalStatus.AwaitingSolution));\r\n\r\n    _proposalSubmission(_proposalId, _solutionHash, _action);\r\n  }\r\n\r\n  /**\r\n  * @dev Creates a new proposal with solution\r\n  * @param _proposalDescHash Proposal description hash through IPFS having Short and long description of proposal\r\n  * @param _categoryId This id tells under which the proposal is categorized i.e. Proposal's Objective\r\n  * @param _solutionHash Solution hash contains  parameters, values and description needed according to proposal\r\n  */\r\n  function createProposalwithSolution(\r\n    string calldata _proposalTitle,\r\n    string calldata _proposalSD,\r\n    string calldata _proposalDescHash,\r\n    uint _categoryId,\r\n    string calldata _solutionHash,\r\n    bytes calldata _action\r\n  )\r\n  external isAllowed(_categoryId)\r\n  {\r\n\r\n\r\n    uint proposalId = totalProposals;\r\n\r\n    _createProposal(_proposalTitle, _proposalSD, _proposalDescHash, _categoryId);\r\n\r\n    require(_categoryId > 0);\r\n\r\n    _proposalSubmission(\r\n      proposalId,\r\n      _solutionHash,\r\n      _action\r\n    );\r\n  }\r\n\r\n  /**\r\n   * @dev Submit a vote on the proposal.\r\n   * @param _proposalId to vote upon.\r\n   * @param _solutionChosen is the chosen vote.\r\n   */\r\n  function submitVote(uint _proposalId, uint _solutionChosen) external {\r\n\r\n    require(allProposalData[_proposalId].propStatus ==\r\n      uint(Governance.ProposalStatus.VotingStarted), \"Not allowed\");\r\n\r\n    require(_solutionChosen < allProposalSolutions[_proposalId].length);\r\n\r\n\r\n    _submitVote(_proposalId, _solutionChosen);\r\n  }\r\n\r\n  /**\r\n   * @dev Closes the proposal.\r\n   * @param _proposalId of proposal to be closed.\r\n   */\r\n  function closeProposal(uint _proposalId) external {\r\n    uint category = allProposalData[_proposalId].category;\r\n\r\n\r\n    uint _memberRole;\r\n    if (allProposalData[_proposalId].dateUpd.add(maxDraftTime) <= now &&\r\n      allProposalData[_proposalId].propStatus < uint(ProposalStatus.VotingStarted)) {\r\n      _updateProposalStatus(_proposalId, uint(ProposalStatus.Denied));\r\n    } else {\r\n      require(canCloseProposal(_proposalId) == 1);\r\n      (, _memberRole,,,,,) = proposalCategory.category(allProposalData[_proposalId].category);\r\n      if (_memberRole == uint(MemberRoles.Role.AdvisoryBoard)) {\r\n        _closeAdvisoryBoardVote(_proposalId, category);\r\n      } else {\r\n        _closeMemberVote(_proposalId, category);\r\n      }\r\n    }\r\n\r\n  }\r\n\r\n  /**\r\n   * @dev Claims reward for member.\r\n   * @param _memberAddress to claim reward of.\r\n   * @param _maxRecords maximum number of records to claim reward for.\r\n   _proposals list of proposals of which reward will be claimed.\r\n   * @return amount of pending reward.\r\n   */\r\n  function claimReward(address _memberAddress, uint _maxRecords)\r\n  external returns (uint pendingDAppReward)\r\n  {\r\n\r\n    uint voteId;\r\n    address leader;\r\n    uint lastUpd;\r\n\r\n    require(msg.sender == ms.getLatestAddress(\"CR\"));\r\n\r\n    uint delegationId = followerDelegation[_memberAddress];\r\n    DelegateVote memory delegationData = allDelegation[delegationId];\r\n    if (delegationId > 0 && delegationData.leader != address(0)) {\r\n      leader = delegationData.leader;\r\n      lastUpd = delegationData.lastUpd;\r\n    } else\r\n      leader = _memberAddress;\r\n\r\n    uint proposalId;\r\n    uint totalVotes = allVotesByMember[leader].length;\r\n    uint lastClaimed = totalVotes;\r\n    uint j;\r\n    uint i;\r\n    for (i = lastRewardClaimed[_memberAddress]; i < totalVotes && j < _maxRecords; i++) {\r\n      voteId = allVotesByMember[leader][i];\r\n      proposalId = allVotes[voteId].proposalId;\r\n      if (proposalVoteTally[proposalId].voters > 0 && (allVotes[voteId].dateAdd > (\r\n      lastUpd.add(tokenHoldingTime)) || leader == _memberAddress)) {\r\n        if (allProposalData[proposalId].propStatus > uint(ProposalStatus.VotingStarted)) {\r\n          if (!rewardClaimed[voteId][_memberAddress]) {\r\n            pendingDAppReward = pendingDAppReward.add(\r\n              allProposalData[proposalId].commonIncentive.div(\r\n                proposalVoteTally[proposalId].voters\r\n              )\r\n            );\r\n            rewardClaimed[voteId][_memberAddress] = true;\r\n            j++;\r\n          }\r\n        } else {\r\n          if (lastClaimed == totalVotes) {\r\n            lastClaimed = i;\r\n          }\r\n        }\r\n      }\r\n    }\r\n\r\n    if (lastClaimed == totalVotes) {\r\n      lastRewardClaimed[_memberAddress] = i;\r\n    } else {\r\n      lastRewardClaimed[_memberAddress] = lastClaimed;\r\n    }\r\n\r\n    if (j > 0) {\r\n      emit RewardClaimed(\r\n        _memberAddress,\r\n        pendingDAppReward\r\n      );\r\n    }\r\n  }\r\n\r\n  /**\r\n   * @dev Sets delegation acceptance status of individual user\r\n   * @param _status delegation acceptance status\r\n   */\r\n  function setDelegationStatus(bool _status) external isMemberAndcheckPause checkPendingRewards {\r\n    isOpenForDelegation[msg.sender] = _status;\r\n  }\r\n\r\n  /**\r\n   * @dev Delegates vote to an address.\r\n   * @param _add is the address to delegate vote to.\r\n   */\r\n  function delegateVote(address _add) external isMemberAndcheckPause checkPendingRewards {\r\n\r\n    require(ms.masterInitialized());\r\n\r\n    require(allDelegation[followerDelegation[_add]].leader == address(0));\r\n\r\n    if (followerDelegation[msg.sender] > 0) {\r\n      require((allDelegation[followerDelegation[msg.sender]].lastUpd).add(tokenHoldingTime) < now);\r\n    }\r\n\r\n    require(!alreadyDelegated(msg.sender));\r\n    require(!memberRole.checkRole(msg.sender, uint(MemberRoles.Role.Owner)));\r\n    require(!memberRole.checkRole(msg.sender, uint(MemberRoles.Role.AdvisoryBoard)));\r\n\r\n\r\n    require(followerCount[_add] < maxFollowers);\r\n\r\n    if (allVotesByMember[msg.sender].length > 0) {\r\n      require((allVotes[allVotesByMember[msg.sender][allVotesByMember[msg.sender].length - 1]].dateAdd).add(tokenHoldingTime)\r\n        < now);\r\n    }\r\n\r\n    require(ms.isMember(_add));\r\n\r\n    require(isOpenForDelegation[_add]);\r\n\r\n    allDelegation.push(DelegateVote(msg.sender, _add, now));\r\n    followerDelegation[msg.sender] = allDelegation.length - 1;\r\n    leaderDelegation[_add].push(allDelegation.length - 1);\r\n    followerCount[_add]++;\r\n    lastRewardClaimed[msg.sender] = allVotesByMember[_add].length;\r\n  }\r\n\r\n  /**\r\n   * @dev Undelegates the sender\r\n   */\r\n  function unDelegate() external isMemberAndcheckPause checkPendingRewards {\r\n    _unDelegate(msg.sender);\r\n  }\r\n\r\n  /**\r\n   * @dev Triggers action of accepted proposal after waiting time is finished\r\n   */\r\n  function triggerAction(uint _proposalId) external {\r\n    require(proposalActionStatus[_proposalId] == uint(ActionStatus.Accepted) && proposalExecutionTime[_proposalId] <= now, \"Cannot trigger\");\r\n    _triggerAction(_proposalId, allProposalData[_proposalId].category);\r\n  }\r\n\r\n  /**\r\n   * @dev Provides option to Advisory board member to reject proposal action execution within actionWaitingTime, if found suspicious\r\n   */\r\n  function rejectAction(uint _proposalId) external {\r\n    require(memberRole.checkRole(msg.sender, uint(MemberRoles.Role.AdvisoryBoard)) && proposalExecutionTime[_proposalId] > now);\r\n\r\n    require(proposalActionStatus[_proposalId] == uint(ActionStatus.Accepted));\r\n\r\n    require(!proposalRejectedByAB[_proposalId][msg.sender]);\r\n\r\n    require(\r\n      keccak256(proposalCategory.categoryActionHashes(allProposalData[_proposalId].category))\r\n      != keccak256(abi.encodeWithSignature(\"swapABMember(address,address)\"))\r\n    );\r\n\r\n    proposalRejectedByAB[_proposalId][msg.sender] = true;\r\n    actionRejectedCount[_proposalId]++;\r\n    emit ActionRejected(_proposalId, msg.sender);\r\n    if (actionRejectedCount[_proposalId] == AB_MAJ_TO_REJECT_ACTION) {\r\n      proposalActionStatus[_proposalId] = uint(ActionStatus.Rejected);\r\n    }\r\n  }\r\n\r\n  /**\r\n   * @dev Sets intial actionWaitingTime value\r\n   * To be called after governance implementation has been updated\r\n   */\r\n  function setInitialActionParameters() external onlyOwner {\r\n    require(!actionParamsInitialised);\r\n    actionParamsInitialised = true;\r\n    actionWaitingTime = 24 * 1 hours;\r\n  }\r\n\r\n  /**\r\n   * @dev Gets Uint Parameters of a code\r\n   * @param code whose details we want\r\n   * @return string value of the code\r\n   * @return associated amount (time or perc or value) to the code\r\n   */\r\n  function getUintParameters(bytes8 code) external view returns (bytes8 codeVal, uint val) {\r\n\r\n    codeVal = code;\r\n\r\n    if (code == \"GOVHOLD\") {\r\n\r\n      val = tokenHoldingTime / (1 days);\r\n\r\n    } else if (code == \"MAXFOL\") {\r\n\r\n      val = maxFollowers;\r\n\r\n    } else if (code == \"MAXDRFT\") {\r\n\r\n      val = maxDraftTime / (1 days);\r\n\r\n    } else if (code == \"EPTIME\") {\r\n\r\n      val = ms.pauseTime() / (1 days);\r\n\r\n    } else if (code == \"ACWT\") {\r\n\r\n      val = actionWaitingTime / (1 hours);\r\n\r\n    }\r\n  }\r\n\r\n  /**\r\n   * @dev Gets all details of a propsal\r\n   * @param _proposalId whose details we want\r\n   * @return proposalId\r\n   * @return category\r\n   * @return status\r\n   * @return finalVerdict\r\n   * @return totalReward\r\n   */\r\n  function proposal(uint _proposalId)\r\n  external\r\n  view\r\n  returns (\r\n    uint proposalId,\r\n    uint category,\r\n    uint status,\r\n    uint finalVerdict,\r\n    uint totalRewar\r\n  )\r\n  {\r\n    return (\r\n    _proposalId,\r\n    allProposalData[_proposalId].category,\r\n    allProposalData[_proposalId].propStatus,\r\n    allProposalData[_proposalId].finalVerdict,\r\n    allProposalData[_proposalId].commonIncentive\r\n    );\r\n  }\r\n\r\n  /**\r\n   * @dev Gets some details of a propsal\r\n   * @param _proposalId whose details we want\r\n   * @return proposalId\r\n   * @return number of all proposal solutions\r\n   * @return amount of votes\r\n   */\r\n  function proposalDetails(uint _proposalId) external view returns (uint, uint, uint) {\r\n    return (\r\n    _proposalId,\r\n    allProposalSolutions[_proposalId].length,\r\n    proposalVoteTally[_proposalId].voters\r\n    );\r\n  }\r\n\r\n  /**\r\n   * @dev Gets solution action on a proposal\r\n   * @param _proposalId whose details we want\r\n   * @param _solution whose details we want\r\n   * @return action of a solution on a proposal\r\n   */\r\n  function getSolutionAction(uint _proposalId, uint _solution) external view returns (uint, bytes memory) {\r\n    return (\r\n    _solution,\r\n    allProposalSolutions[_proposalId][_solution]\r\n    );\r\n  }\r\n\r\n  /**\r\n   * @dev Gets length of propsal\r\n   * @return length of propsal\r\n   */\r\n  function getProposalLength() external view returns (uint) {\r\n    return totalProposals;\r\n  }\r\n\r\n  /**\r\n   * @dev Get followers of an address\r\n   * @return get followers of an address\r\n   */\r\n  function getFollowers(address _add) external view returns (uint[] memory) {\r\n    return leaderDelegation[_add];\r\n  }\r\n\r\n  /**\r\n   * @dev Gets pending rewards of a member\r\n   * @param _memberAddress in concern\r\n   * @return amount of pending reward\r\n   */\r\n  function getPendingReward(address _memberAddress)\r\n  public view returns (uint pendingDAppReward)\r\n  {\r\n    uint delegationId = followerDelegation[_memberAddress];\r\n    address leader;\r\n    uint lastUpd;\r\n    DelegateVote memory delegationData = allDelegation[delegationId];\r\n\r\n    if (delegationId > 0 && delegationData.leader != address(0)) {\r\n      leader = delegationData.leader;\r\n      lastUpd = delegationData.lastUpd;\r\n    } else\r\n      leader = _memberAddress;\r\n\r\n    uint proposalId;\r\n    for (uint i = lastRewardClaimed[_memberAddress]; i < allVotesByMember[leader].length; i++) {\r\n      if (allVotes[allVotesByMember[leader][i]].dateAdd > (\r\n      lastUpd.add(tokenHoldingTime)) || leader == _memberAddress) {\r\n        if (!rewardClaimed[allVotesByMember[leader][i]][_memberAddress]) {\r\n          proposalId = allVotes[allVotesByMember[leader][i]].proposalId;\r\n          if (proposalVoteTally[proposalId].voters > 0 && allProposalData[proposalId].propStatus\r\n          > uint(ProposalStatus.VotingStarted)) {\r\n            pendingDAppReward = pendingDAppReward.add(\r\n              allProposalData[proposalId].commonIncentive.div(\r\n                proposalVoteTally[proposalId].voters\r\n              )\r\n            );\r\n          }\r\n        }\r\n      }\r\n    }\r\n  }\r\n\r\n  /**\r\n   * @dev Updates Uint Parameters of a code\r\n   * @param code whose details we want to update\r\n   * @param val value to set\r\n   */\r\n  function updateUintParameters(bytes8 code, uint val) public {\r\n\r\n    require(ms.checkIsAuthToGoverned(msg.sender));\r\n    if (code == \"GOVHOLD\") {\r\n\r\n      tokenHoldingTime = val * 1 days;\r\n\r\n    } else if (code == \"MAXFOL\") {\r\n\r\n      maxFollowers = val;\r\n\r\n    } else if (code == \"MAXDRFT\") {\r\n\r\n      maxDraftTime = val * 1 days;\r\n\r\n    } else if (code == \"EPTIME\") {\r\n\r\n      ms.updatePauseTime(val * 1 days);\r\n\r\n    } else if (code == \"ACWT\") {\r\n\r\n      actionWaitingTime = val * 1 hours;\r\n\r\n    } else {\r\n\r\n      revert(\"Invalid code\");\r\n\r\n    }\r\n  }\r\n\r\n  /**\r\n  * @dev Updates all dependency addresses to latest ones from Master\r\n  */\r\n  function changeDependentContractAddress() public {\r\n    tokenInstance = TokenController(ms.dAppLocker());\r\n    memberRole = MemberRoles(ms.getLatestAddress(\"MR\"));\r\n    proposalCategory = ProposalCategory(ms.getLatestAddress(\"PC\"));\r\n  }\r\n\r\n  /**\r\n  * @dev Checks if msg.sender is allowed to create a proposal under given category\r\n  */\r\n  function allowedToCreateProposal(uint category) public view returns (bool check) {\r\n    if (category == 0)\r\n      return true;\r\n    uint[] memory mrAllowed;\r\n    (,,,, mrAllowed,,) = proposalCategory.category(category);\r\n    for (uint i = 0; i < mrAllowed.length; i++) {\r\n      if (mrAllowed[i] == 0 || memberRole.checkRole(msg.sender, mrAllowed[i]))\r\n        return true;\r\n    }\r\n  }\r\n\r\n  /**\r\n   * @dev Checks if an address is already delegated\r\n   * @param _add in concern\r\n   * @return bool value if the address is delegated or not\r\n   */\r\n  function alreadyDelegated(address _add) public view returns (bool delegated) {\r\n    for (uint i = 0; i < leaderDelegation[_add].length; i++) {\r\n      if (allDelegation[leaderDelegation[_add][i]].leader == _add) {\r\n        return true;\r\n      }\r\n    }\r\n  }\r\n\r\n  /**\r\n  * @dev Checks If the proposal voting time is up and it's ready to close\r\n  *      i.e. Closevalue is 1 if proposal is ready to be closed, 2 if already closed, 0 otherwise!\r\n  * @param _proposalId Proposal id to which closing value is being checked\r\n  */\r\n  function canCloseProposal(uint _proposalId)\r\n  public\r\n  view\r\n  returns (uint)\r\n  {\r\n    uint dateUpdate;\r\n    uint pStatus;\r\n    uint _closingTime;\r\n    uint _roleId;\r\n    uint majority;\r\n    pStatus = allProposalData[_proposalId].propStatus;\r\n    dateUpdate = allProposalData[_proposalId].dateUpd;\r\n    (, _roleId, majority, , , _closingTime,) = proposalCategory.category(allProposalData[_proposalId].category);\r\n    if (\r\n      pStatus == uint(ProposalStatus.VotingStarted)\r\n    ) {\r\n      uint numberOfMembers = memberRole.numberOfMembers(_roleId);\r\n      if (_roleId == uint(MemberRoles.Role.AdvisoryBoard)) {\r\n        if (proposalVoteTally[_proposalId].abVoteValue[1].mul(100).div(numberOfMembers) >= majority\r\n        || proposalVoteTally[_proposalId].abVoteValue[1].add(proposalVoteTally[_proposalId].abVoteValue[0]) == numberOfMembers\r\n          || dateUpdate.add(_closingTime) <= now) {\r\n\r\n          return 1;\r\n        }\r\n      } else {\r\n        if (numberOfMembers == proposalVoteTally[_proposalId].voters\r\n          || dateUpdate.add(_closingTime) <= now)\r\n          return 1;\r\n      }\r\n    } else if (pStatus > uint(ProposalStatus.VotingStarted)) {\r\n      return 2;\r\n    } else {\r\n      return 0;\r\n    }\r\n  }\r\n\r\n  /**\r\n   * @dev Gets Id of member role allowed to categorize the proposal\r\n   * @return roleId allowed to categorize the proposal\r\n   */\r\n  function allowedToCatgorize() public view returns (uint roleId) {\r\n    return roleIdAllowedToCatgorize;\r\n  }\r\n\r\n  /**\r\n   * @dev Gets vote tally data\r\n   * @param _proposalId in concern\r\n   * @param _solution of a proposal id\r\n   * @return member vote value\r\n   * @return advisory board vote value\r\n   * @return amount of votes\r\n   */\r\n  function voteTallyData(uint _proposalId, uint _solution) public view returns (uint, uint, uint) {\r\n    return (proposalVoteTally[_proposalId].memberVoteValue[_solution],\r\n    proposalVoteTally[_proposalId].abVoteValue[_solution], proposalVoteTally[_proposalId].voters);\r\n  }\r\n\r\n  /**\r\n   * @dev Internal call to create proposal\r\n   * @param _proposalTitle of proposal\r\n   * @param _proposalSD is short description of proposal\r\n   * @param _proposalDescHash IPFS hash value of propsal\r\n   * @param _categoryId of proposal\r\n   */\r\n  function _createProposal(\r\n    string memory _proposalTitle,\r\n    string memory _proposalSD,\r\n    string memory _proposalDescHash,\r\n    uint _categoryId\r\n  )\r\n  internal\r\n  {\r\n    require(proposalCategory.categoryABReq(_categoryId) == 0 || _categoryId == 0);\r\n    uint _proposalId = totalProposals;\r\n    allProposalData[_proposalId].owner = msg.sender;\r\n    allProposalData[_proposalId].dateUpd = now;\r\n    allProposalSolutions[_proposalId].push(\"\");\r\n    totalProposals++;\r\n\r\n    emit Proposal(\r\n      msg.sender,\r\n      _proposalId,\r\n      now,\r\n      _proposalTitle,\r\n      _proposalSD,\r\n      _proposalDescHash\r\n    );\r\n\r\n    if (_categoryId > 0)\r\n      _categorizeProposal(_proposalId, _categoryId, 0);\r\n  }\r\n\r\n  /**\r\n   * @dev Internal call to categorize a proposal\r\n   * @param _proposalId of proposal\r\n   * @param _categoryId of proposal\r\n   * @param _incentive is commonIncentive\r\n   */\r\n  function _categorizeProposal(\r\n    uint _proposalId,\r\n    uint _categoryId,\r\n    uint _incentive\r\n  )\r\n  internal\r\n  {\r\n    require(\r\n      _categoryId > 0 && _categoryId < proposalCategory.totalCategories(),\r\n      \"Invalid category\"\r\n    );\r\n    allProposalData[_proposalId].category = _categoryId;\r\n    allProposalData[_proposalId].commonIncentive = _incentive;\r\n    allProposalData[_proposalId].propStatus = uint(ProposalStatus.AwaitingSolution);\r\n\r\n    emit ProposalCategorized(_proposalId, msg.sender, _categoryId);\r\n  }\r\n\r\n  /**\r\n   * @dev Internal call to add solution to a proposal\r\n   * @param _proposalId in concern\r\n   * @param _action on that solution\r\n   * @param _solutionHash string value\r\n   */\r\n  function _addSolution(uint _proposalId, bytes memory _action, string memory _solutionHash)\r\n  internal\r\n  {\r\n    allProposalSolutions[_proposalId].push(_action);\r\n    emit Solution(_proposalId, msg.sender, allProposalSolutions[_proposalId].length - 1, _solutionHash, now);\r\n  }\r\n\r\n  /**\r\n  * @dev Internal call to add solution and open proposal for voting\r\n  */\r\n  function _proposalSubmission(\r\n    uint _proposalId,\r\n    string memory _solutionHash,\r\n    bytes memory _action\r\n  )\r\n  internal\r\n  {\r\n\r\n    uint _categoryId = allProposalData[_proposalId].category;\r\n    if (proposalCategory.categoryActionHashes(_categoryId).length == 0) {\r\n      require(keccak256(_action) == keccak256(\"\"));\r\n      proposalActionStatus[_proposalId] = uint(ActionStatus.NoAction);\r\n    }\r\n\r\n    _addSolution(\r\n      _proposalId,\r\n      _action,\r\n      _solutionHash\r\n    );\r\n\r\n    _updateProposalStatus(_proposalId, uint(ProposalStatus.VotingStarted));\r\n    (, , , , , uint closingTime,) = proposalCategory.category(_categoryId);\r\n    emit CloseProposalOnTime(_proposalId, closingTime.add(now));\r\n\r\n  }\r\n\r\n  /**\r\n   * @dev Internal call to submit vote\r\n   * @param _proposalId of proposal in concern\r\n   * @param _solution for that proposal\r\n   */\r\n  function _submitVote(uint _proposalId, uint _solution) internal {\r\n\r\n    uint delegationId = followerDelegation[msg.sender];\r\n    uint mrSequence;\r\n    uint majority;\r\n    uint closingTime;\r\n    (, mrSequence, majority, , , closingTime,) = proposalCategory.category(allProposalData[_proposalId].category);\r\n\r\n    require(allProposalData[_proposalId].dateUpd.add(closingTime) > now, \"Closed\");\r\n\r\n    require(memberProposalVote[msg.sender][_proposalId] == 0, \"Not allowed\");\r\n    require((delegationId == 0) || (delegationId > 0 && allDelegation[delegationId].leader == address(0) &&\r\n    _checkLastUpd(allDelegation[delegationId].lastUpd)));\r\n\r\n    require(memberRole.checkRole(msg.sender, mrSequence), \"Not Authorized\");\r\n    uint totalVotes = allVotes.length;\r\n\r\n    allVotesByMember[msg.sender].push(totalVotes);\r\n    memberProposalVote[msg.sender][_proposalId] = totalVotes;\r\n\r\n    allVotes.push(ProposalVote(msg.sender, _proposalId, now));\r\n\r\n    emit Vote(msg.sender, _proposalId, totalVotes, now, _solution);\r\n    if (mrSequence == uint(MemberRoles.Role.Owner)) {\r\n      if (_solution == 1)\r\n        _callIfMajReached(_proposalId, uint(ProposalStatus.Accepted), allProposalData[_proposalId].category, 1, MemberRoles.Role.Owner);\r\n      else\r\n        _updateProposalStatus(_proposalId, uint(ProposalStatus.Rejected));\r\n\r\n    } else {\r\n      uint numberOfMembers = memberRole.numberOfMembers(mrSequence);\r\n      _setVoteTally(_proposalId, _solution, mrSequence);\r\n\r\n      if (mrSequence == uint(MemberRoles.Role.AdvisoryBoard)) {\r\n        if (proposalVoteTally[_proposalId].abVoteValue[1].mul(100).div(numberOfMembers)\r\n        >= majority\r\n          || (proposalVoteTally[_proposalId].abVoteValue[1].add(proposalVoteTally[_proposalId].abVoteValue[0])) == numberOfMembers) {\r\n          emit VoteCast(_proposalId);\r\n        }\r\n      } else {\r\n        if (numberOfMembers == proposalVoteTally[_proposalId].voters)\r\n          emit VoteCast(_proposalId);\r\n      }\r\n    }\r\n\r\n  }\r\n\r\n  /**\r\n   * @dev Internal call to set vote tally of a proposal\r\n   * @param _proposalId of proposal in concern\r\n   * @param _solution of proposal in concern\r\n   * @param mrSequence number of members for a role\r\n   */\r\n  function _setVoteTally(uint _proposalId, uint _solution, uint mrSequence) internal\r\n  {\r\n    uint categoryABReq;\r\n    uint isSpecialResolution;\r\n    (, categoryABReq, isSpecialResolution) = proposalCategory.categoryExtendedData(allProposalData[_proposalId].category);\r\n    if (memberRole.checkRole(msg.sender, uint(MemberRoles.Role.AdvisoryBoard)) && (categoryABReq > 0) ||\r\n      mrSequence == uint(MemberRoles.Role.AdvisoryBoard)) {\r\n      proposalVoteTally[_proposalId].abVoteValue[_solution]++;\r\n    }\r\n    tokenInstance.lockForMemberVote(msg.sender, tokenHoldingTime);\r\n    if (mrSequence != uint(MemberRoles.Role.AdvisoryBoard)) {\r\n      uint voteWeight;\r\n      uint voters = 1;\r\n      uint tokenBalance = tokenInstance.totalBalanceOf(msg.sender);\r\n      uint totalSupply = tokenInstance.totalSupply();\r\n      if (isSpecialResolution == 1) {\r\n        voteWeight = tokenBalance.add(10 ** 18);\r\n      } else {\r\n        voteWeight = (_minOf(tokenBalance, maxVoteWeigthPer.mul(totalSupply).div(100))).add(10 ** 18);\r\n      }\r\n      DelegateVote memory delegationData;\r\n      for (uint i = 0; i < leaderDelegation[msg.sender].length; i++) {\r\n        delegationData = allDelegation[leaderDelegation[msg.sender][i]];\r\n        if (delegationData.leader == msg.sender &&\r\n          _checkLastUpd(delegationData.lastUpd)) {\r\n          if (memberRole.checkRole(delegationData.follower, mrSequence)) {\r\n            tokenBalance = tokenInstance.totalBalanceOf(delegationData.follower);\r\n            tokenInstance.lockForMemberVote(delegationData.follower, tokenHoldingTime);\r\n            voters++;\r\n            if (isSpecialResolution == 1) {\r\n              voteWeight = voteWeight.add(tokenBalance.add(10 ** 18));\r\n            } else {\r\n              voteWeight = voteWeight.add((_minOf(tokenBalance, maxVoteWeigthPer.mul(totalSupply).div(100))).add(10 ** 18));\r\n            }\r\n          }\r\n        }\r\n      }\r\n      proposalVoteTally[_proposalId].memberVoteValue[_solution] = proposalVoteTally[_proposalId].memberVoteValue[_solution].add(voteWeight);\r\n      proposalVoteTally[_proposalId].voters = proposalVoteTally[_proposalId].voters + voters;\r\n    }\r\n  }\r\n\r\n  /**\r\n   * @dev Gets minimum of two numbers\r\n   * @param a one of the two numbers\r\n   * @param b one of the two numbers\r\n   * @return minimum number out of the two\r\n   */\r\n  function _minOf(uint a, uint b) internal pure returns (uint res) {\r\n    res = a;\r\n    if (res > b)\r\n      res = b;\r\n  }\r\n\r\n  /**\r\n   * @dev Check the time since last update has exceeded token holding time or not\r\n   * @param _lastUpd is last update time\r\n   * @return the bool which tells if the time since last update has exceeded token holding time or not\r\n   */\r\n  function _checkLastUpd(uint _lastUpd) internal view returns (bool) {\r\n    return (now - _lastUpd) > tokenHoldingTime;\r\n  }\r\n\r\n  /**\r\n  * @dev Checks if the vote count against any solution passes the threshold value or not.\r\n  */\r\n  function _checkForThreshold(uint _proposalId, uint _category) internal view returns (bool check) {\r\n    uint categoryQuorumPerc;\r\n    uint roleAuthorized;\r\n    (, roleAuthorized, , categoryQuorumPerc, , ,) = proposalCategory.category(_category);\r\n    check = ((proposalVoteTally[_proposalId].memberVoteValue[0]\r\n    .add(proposalVoteTally[_proposalId].memberVoteValue[1]))\r\n    .mul(100))\r\n    .div(\r\n      tokenInstance.totalSupply().add(\r\n        memberRole.numberOfMembers(roleAuthorized).mul(10 ** 18)\r\n      )\r\n    ) >= categoryQuorumPerc;\r\n  }\r\n\r\n  /**\r\n   * @dev Called when vote majority is reached\r\n   * @param _proposalId of proposal in concern\r\n   * @param _status of proposal in concern\r\n   * @param category of proposal in concern\r\n   * @param max vote value of proposal in concern\r\n   */\r\n  function _callIfMajReached(uint _proposalId, uint _status, uint category, uint max, MemberRoles.Role role) internal {\r\n\r\n    allProposalData[_proposalId].finalVerdict = max;\r\n    _updateProposalStatus(_proposalId, _status);\r\n    emit ProposalAccepted(_proposalId);\r\n    if (proposalActionStatus[_proposalId] != uint(ActionStatus.NoAction)) {\r\n      if (role == MemberRoles.Role.AdvisoryBoard) {\r\n        _triggerAction(_proposalId, category);\r\n      } else {\r\n        proposalActionStatus[_proposalId] = uint(ActionStatus.Accepted);\r\n        proposalExecutionTime[_proposalId] = actionWaitingTime.add(now);\r\n      }\r\n    }\r\n  }\r\n\r\n  /**\r\n   * @dev Internal function to trigger action of accepted proposal\r\n   */\r\n  function _triggerAction(uint _proposalId, uint _categoryId) internal {\r\n    proposalActionStatus[_proposalId] = uint(ActionStatus.Executed);\r\n    bytes2 contractName;\r\n    address actionAddress;\r\n    bytes memory _functionHash;\r\n    (, actionAddress, contractName, , _functionHash) = proposalCategory.categoryActionDetails(_categoryId);\r\n    if (contractName == \"MS\") {\r\n      actionAddress = address(ms);\r\n    } else if (contractName != \"EX\") {\r\n      actionAddress = ms.getLatestAddress(contractName);\r\n    }\r\n    // solhint-disable-next-line avoid-low-level-calls\r\n    (bool actionStatus,) = actionAddress.call(abi.encodePacked(_functionHash, allProposalSolutions[_proposalId][1]));\r\n    if (actionStatus) {\r\n      emit ActionSuccess(_proposalId);\r\n    } else {\r\n      proposalActionStatus[_proposalId] = uint(ActionStatus.Accepted);\r\n      emit ActionFailed(_proposalId);\r\n    }\r\n  }\r\n\r\n  /**\r\n   * @dev Internal call to update proposal status\r\n   * @param _proposalId of proposal in concern\r\n   * @param _status of proposal to set\r\n   */\r\n  function _updateProposalStatus(uint _proposalId, uint _status) internal {\r\n    if (_status == uint(ProposalStatus.Rejected) || _status == uint(ProposalStatus.Denied)) {\r\n      proposalActionStatus[_proposalId] = uint(ActionStatus.NoAction);\r\n    }\r\n    allProposalData[_proposalId].dateUpd = now;\r\n    allProposalData[_proposalId].propStatus = _status;\r\n  }\r\n\r\n  /**\r\n   * @dev Internal call to undelegate a follower\r\n   * @param _follower is address of follower to undelegate\r\n   */\r\n  function _unDelegate(address _follower) internal {\r\n    uint followerId = followerDelegation[_follower];\r\n    if (followerId > 0) {\r\n\r\n      followerCount[allDelegation[followerId].leader] = followerCount[allDelegation[followerId].leader].sub(1);\r\n      allDelegation[followerId].leader = address(0);\r\n      allDelegation[followerId].lastUpd = now;\r\n\r\n      lastRewardClaimed[_follower] = allVotesByMember[_follower].length;\r\n    }\r\n  }\r\n\r\n  /**\r\n   * @dev Internal call to close member voting\r\n   * @param _proposalId of proposal in concern\r\n   * @param category of proposal in concern\r\n   */\r\n  function _closeMemberVote(uint _proposalId, uint category) internal {\r\n    uint isSpecialResolution;\r\n    uint abMaj;\r\n    (, abMaj, isSpecialResolution) = proposalCategory.categoryExtendedData(category);\r\n    if (isSpecialResolution == 1) {\r\n      uint acceptedVotePerc = proposalVoteTally[_proposalId].memberVoteValue[1].mul(100)\r\n      .div(\r\n        tokenInstance.totalSupply().add(\r\n          memberRole.numberOfMembers(uint(MemberRoles.Role.Member)).mul(10 ** 18)\r\n        ));\r\n      if (acceptedVotePerc >= specialResolutionMajPerc) {\r\n        _callIfMajReached(_proposalId, uint(ProposalStatus.Accepted), category, 1, MemberRoles.Role.Member);\r\n      } else {\r\n        _updateProposalStatus(_proposalId, uint(ProposalStatus.Denied));\r\n      }\r\n    } else {\r\n      if (_checkForThreshold(_proposalId, category)) {\r\n        uint majorityVote;\r\n        (,, majorityVote,,,,) = proposalCategory.category(category);\r\n        if (\r\n          ((proposalVoteTally[_proposalId].memberVoteValue[1].mul(100))\r\n          .div(proposalVoteTally[_proposalId].memberVoteValue[0]\r\n          .add(proposalVoteTally[_proposalId].memberVoteValue[1])\r\n          ))\r\n          >= majorityVote\r\n        ) {\r\n          _callIfMajReached(_proposalId, uint(ProposalStatus.Accepted), category, 1, MemberRoles.Role.Member);\r\n        } else {\r\n          _updateProposalStatus(_proposalId, uint(ProposalStatus.Rejected));\r\n        }\r\n      } else {\r\n        if (abMaj > 0 && proposalVoteTally[_proposalId].abVoteValue[1].mul(100)\r\n        .div(memberRole.numberOfMembers(uint(MemberRoles.Role.AdvisoryBoard))) >= abMaj) {\r\n          _callIfMajReached(_proposalId, uint(ProposalStatus.Accepted), category, 1, MemberRoles.Role.Member);\r\n        } else {\r\n          _updateProposalStatus(_proposalId, uint(ProposalStatus.Denied));\r\n        }\r\n      }\r\n    }\r\n\r\n    if (proposalVoteTally[_proposalId].voters > 0) {\r\n      tokenInstance.mint(ms.getLatestAddress(\"CR\"), allProposalData[_proposalId].commonIncentive);\r\n    }\r\n  }\r\n\r\n  /**\r\n   * @dev Internal call to close advisory board voting\r\n   * @param _proposalId of proposal in concern\r\n   * @param category of proposal in concern\r\n   */\r\n  function _closeAdvisoryBoardVote(uint _proposalId, uint category) internal {\r\n    uint _majorityVote;\r\n    MemberRoles.Role _roleId = MemberRoles.Role.AdvisoryBoard;\r\n    (,, _majorityVote,,,,) = proposalCategory.category(category);\r\n    if (proposalVoteTally[_proposalId].abVoteValue[1].mul(100)\r\n    .div(memberRole.numberOfMembers(uint(_roleId))) >= _majorityVote) {\r\n      _callIfMajReached(_proposalId, uint(ProposalStatus.Accepted), category, 1, _roleId);\r\n    } else {\r\n      _updateProposalStatus(_proposalId, uint(ProposalStatus.Denied));\r\n    }\r\n\r\n  }\r\n\r\n}\r\n",
  "sourcePath": "contracts/modules/governance/Governance.sol",
  "abi": [
    {
      "constant": false,
      "inputs": [
        {
          "name": "_proposalId",
          "type": "uint256"
        }
      ],
      "name": "closeProposal",
      "outputs": [],
      "payable": false,
      "stateMutability": "nonpayable",
      "type": "function"
    },
    {
      "constant": true,
      "inputs": [
        {
          "name": "",
          "type": "address"
        },
        {
          "name": "",
          "type": "uint256"
        }
      ],
      "name": "memberProposalVote",
      "outputs": [
        {
          "name": "",
          "type": "uint256"
        }
      ],
      "payable": false,
      "stateMutability": "view",
      "type": "function"
    },
    {
      "constant": true,
      "inputs": [
        {
          "name": "",
          "type": "uint256"
        },
        {
          "name": "",
          "type": "address"
        }
      ],
      "name": "proposalRejectedByAB",
      "outputs": [
        {
          "name": "",
          "type": "bool"
        }
      ],
      "payable": false,
      "stateMutability": "view",
      "type": "function"
    },
    {
      "constant": false,
      "inputs": [],
      "name": "changeDependentContractAddress",
      "outputs": [],
      "payable": false,
      "stateMutability": "nonpayable",
      "type": "function"
    },
    {
      "constant": true,
      "inputs": [
        {
          "name": "_proposalId",
          "type": "uint256"
        },
        {
          "name": "_solution",
          "type": "uint256"
        }
      ],
      "name": "voteTallyData",
      "outputs": [
        {
          "name": "",
          "type": "uint256"
        },
        {
          "name": "",
          "type": "uint256"
        },
        {
          "name": "",
          "type": "uint256"
        }
      ],
      "payable": false,
      "stateMutability": "view",
      "type": "function"
    },
    {
      "constant": true,
      "inputs": [
        {
          "name": "_proposalId",
          "type": "uint256"
        }
      ],
      "name": "proposalDetails",
      "outputs": [
        {
          "name": "",
          "type": "uint256"
        },
        {
          "name": "",
          "type": "uint256"
        },
        {
          "name": "",
          "type": "uint256"
        }
      ],
      "payable": false,
      "stateMutability": "view",
      "type": "function"
    },
    {
      "constant": false,
      "inputs": [
        {
          "name": "_proposalTitle",
          "type": "string"
        },
        {
          "name": "_proposalSD",
          "type": "string"
        },
        {
          "name": "_proposalDescHash",
          "type": "string"
        },
        {
          "name": "_categoryId",
          "type": "uint256"
        },
        {
          "name": "_solutionHash",
          "type": "string"
        },
        {
          "name": "_action",
          "type": "bytes"
        }
      ],
      "name": "createProposalwithSolution",
      "outputs": [],
      "payable": false,
      "stateMutability": "nonpayable",
      "type": "function"
    },
    {
      "constant": false,
      "inputs": [
        {
          "name": "_memberAddress",
          "type": "address"
        },
        {
          "name": "_maxRecords",
          "type": "uint256"
        }
      ],
      "name": "claimReward",
      "outputs": [
        {
          "name": "pendingDAppReward",
          "type": "uint256"
        }
      ],
      "payable": false,
      "stateMutability": "nonpayable",
      "type": "function"
    },
    {
      "constant": true,
      "inputs": [
        {
          "name": "",
          "type": "uint256"
        }
      ],
      "name": "proposalActionStatus",
      "outputs": [
        {
          "name": "",
          "type": "uint256"
        }
      ],
      "payable": false,
      "stateMutability": "view",
      "type": "function"
    },
    {
      "constant": false,
      "inputs": [],
      "name": "unDelegate",
      "outputs": [],
      "payable": false,
      "stateMutability": "nonpayable",
      "type": "function"
    },
    {
      "constant": false,
      "inputs": [
        {
          "name": "_status",
          "type": "bool"
        }
      ],
      "name": "setDelegationStatus",
      "outputs": [],
      "payable": false,
      "stateMutability": "nonpayable",
      "type": "function"
    },
    {
      "constant": false,
      "inputs": [
        {
          "name": "_proposalId",
          "type": "uint256"
        }
      ],
      "name": "rejectAction",
      "outputs": [],
      "payable": false,
      "stateMutability": "nonpayable",
      "type": "function"
    },
    {
      "constant": true,
      "inputs": [
        {
          "name": "_proposalId",
          "type": "uint256"
        },
        {
          "name": "_solution",
          "type": "uint256"
        }
      ],
      "name": "getSolutionAction",
      "outputs": [
        {
          "name": "",
          "type": "uint256"
        },
        {
          "name": "",
          "type": "bytes"
        }
      ],
      "payable": false,
      "stateMutability": "view",
      "type": "function"
    },
    {
      "constant": true,
      "inputs": [
        {
          "name": "_proposalId",
          "type": "uint256"
        }
      ],
      "name": "proposal",
      "outputs": [
        {
          "name": "proposalId",
          "type": "uint256"
        },
        {
          "name": "category",
          "type": "uint256"
        },
        {
          "name": "status",
          "type": "uint256"
        },
        {
          "name": "finalVerdict",
          "type": "uint256"
        },
        {
          "name": "totalRewar",
          "type": "uint256"
        }
      ],
      "payable": false,
      "stateMutability": "view",
      "type": "function"
    },
    {
      "constant": true,
      "inputs": [],
      "name": "tokenHoldingTime",
      "outputs": [
        {
          "name": "",
          "type": "uint256"
        }
      ],
      "payable": false,
      "stateMutability": "view",
      "type": "function"
    },
    {
      "constant": false,
      "inputs": [
        {
          "name": "_proposalTitle",
          "type": "string"
        },
        {
          "name": "_proposalSD",
          "type": "string"
        },
        {
          "name": "_proposalDescHash",
          "type": "string"
        },
        {
          "name": "_categoryId",
          "type": "uint256"
        }
      ],
      "name": "createProposal",
      "outputs": [],
      "payable": false,
      "stateMutability": "nonpayable",
      "type": "function"
    },
    {
      "constant": true,
      "inputs": [
        {
          "name": "_memberAddress",
          "type": "address"
        }
      ],
      "name": "getPendingReward",
      "outputs": [
        {
          "name": "pendingDAppReward",
          "type": "uint256"
        }
      ],
      "payable": false,
      "stateMutability": "view",
      "type": "function"
    },
    {
      "constant": true,
      "inputs": [
        {
          "name": "",
          "type": "uint256"
        },
        {
          "name": "",
          "type": "address"
        }
      ],
      "name": "rewardClaimed",
      "outputs": [
        {
          "name": "",
          "type": "bool"
        }
      ],
      "payable": false,
      "stateMutability": "view",
      "type": "function"
    },
    {
      "constant": true,
      "inputs": [
        {
          "name": "code",
          "type": "bytes8"
        }
      ],
      "name": "getUintParameters",
      "outputs": [
        {
          "name": "codeVal",
          "type": "bytes8"
        },
        {
          "name": "val",
          "type": "uint256"
        }
      ],
      "payable": false,
      "stateMutability": "view",
      "type": "function"
    },
    {
      "constant": false,
      "inputs": [
        {
          "name": "_proposalId",
          "type": "uint256"
        },
        {
          "name": "_categoryId",
          "type": "uint256"
        },
        {
          "name": "_incentive",
          "type": "uint256"
        }
      ],
      "name": "categorizeProposal",
      "outputs": [],
      "payable": false,
      "stateMutability": "nonpayable",
      "type": "function"
    },
    {
      "constant": false,
      "inputs": [
        {
          "name": "_proposalId",
          "type": "uint256"
        },
        {
          "name": "_solutionChosen",
          "type": "uint256"
        }
      ],
      "name": "submitVote",
      "outputs": [],
      "payable": false,
      "stateMutability": "nonpayable",
      "type": "function"
    },
    {
      "constant": false,
      "inputs": [
        {
          "name": "_proposalId",
          "type": "uint256"
        },
        {
          "name": "_solutionHash",
          "type": "string"
        },
        {
          "name": "_action",
          "type": "bytes"
        }
      ],
      "name": "submitProposalWithSolution",
      "outputs": [],
      "payable": false,
      "stateMutability": "nonpayable",
      "type": "function"
    },
    {
      "constant": true,
      "inputs": [
        {
          "name": "",
          "type": "address"
        }
      ],
      "name": "followerDelegation",
      "outputs": [
        {
          "name": "",
          "type": "uint256"
        }
      ],
      "payable": false,
      "stateMutability": "view",
      "type": "function"
    },
    {
      "constant": true,
      "inputs": [],
      "name": "getProposalLength",
      "outputs": [
        {
          "name": "",
          "type": "uint256"
        }
      ],
      "payable": false,
      "stateMutability": "view",
      "type": "function"
    },
    {
      "constant": false,
      "inputs": [
        {
          "name": "code",
          "type": "bytes8"
        },
        {
          "name": "val",
          "type": "uint256"
        }
      ],
      "name": "updateUintParameters",
      "outputs": [],
      "payable": false,
      "stateMutability": "nonpayable",
      "type": "function"
    },
    {
      "constant": true,
      "inputs": [
        {
          "name": "category",
          "type": "uint256"
        }
      ],
      "name": "allowedToCreateProposal",
      "outputs": [
        {
          "name": "check",
          "type": "bool"
        }
      ],
      "payable": false,
      "stateMutability": "view",
      "type": "function"
    },
    {
      "constant": true,
      "inputs": [],
      "name": "ms",
      "outputs": [
        {
          "name": "",
          "type": "address"
        }
      ],
      "payable": false,
      "stateMutability": "view",
      "type": "function"
    },
    {
      "constant": true,
      "inputs": [],
      "name": "allowedToCatgorize",
      "outputs": [
        {
          "name": "roleId",
          "type": "uint256"
        }
      ],
      "payable": false,
      "stateMutability": "view",
      "type": "function"
    },
    {
      "constant": false,
      "inputs": [
        {
          "name": "_add",
          "type": "address"
        }
      ],
      "name": "delegateVote",
      "outputs": [],
      "payable": false,
      "stateMutability": "nonpayable",
      "type": "function"
    },
    {
      "constant": true,
      "inputs": [
        {
          "name": "",
          "type": "uint256"
        }
      ],
      "name": "allDelegation",
      "outputs": [
        {
          "name": "follower",
          "type": "address"
        },
        {
          "name": "leader",
          "type": "address"
        },
        {
          "name": "lastUpd",
          "type": "uint256"
        }
      ],
      "payable": false,
      "stateMutability": "view",
      "type": "function"
    },
    {
      "constant": true,
      "inputs": [
        {
          "name": "_proposalId",
          "type": "uint256"
        }
      ],
      "name": "canCloseProposal",
      "outputs": [
        {
          "name": "",
          "type": "uint256"
        }
      ],
      "payable": false,
      "stateMutability": "view",
      "type": "function"
    },
    {
      "constant": true,
      "inputs": [
        {
          "name": "_add",
          "type": "address"
        }
      ],
      "name": "getFollowers",
      "outputs": [
        {
          "name": "",
          "type": "uint256[]"
        }
      ],
      "payable": false,
      "stateMutability": "view",
      "type": "function"
    },
    {
      "constant": false,
      "inputs": [
        {
          "name": "_proposalId",
          "type": "uint256"
        }
      ],
      "name": "triggerAction",
      "outputs": [],
      "payable": false,
      "stateMutability": "nonpayable",
      "type": "function"
    },
    {
      "constant": false,
      "inputs": [],
      "name": "setInitialActionParameters",
      "outputs": [],
      "payable": false,
      "stateMutability": "nonpayable",
      "type": "function"
    },
    {
      "constant": false,
      "inputs": [
        {
          "name": "_masterAddress",
          "type": "address"
        }
      ],
      "name": "changeMasterAddress",
      "outputs": [],
      "payable": false,
      "stateMutability": "nonpayable",
      "type": "function"
    },
    {
      "constant": true,
      "inputs": [
        {
          "name": "",
          "type": "address"
        }
      ],
      "name": "isOpenForDelegation",
      "outputs": [
        {
          "name": "",
          "type": "bool"
        }
      ],
      "payable": false,
      "stateMutability": "view",
      "type": "function"
    },
    {
      "constant": true,
      "inputs": [
        {
          "name": "",
          "type": "address"
        }
      ],
      "name": "lastRewardClaimed",
      "outputs": [
        {
          "name": "",
          "type": "uint256"
        }
      ],
      "payable": false,
      "stateMutability": "view",
      "type": "function"
    },
    {
      "constant": false,
      "inputs": [
        {
          "name": "_proposalId",
          "type": "uint256"
        },
        {
          "name": "_proposalTitle",
          "type": "string"
        },
        {
          "name": "_proposalSD",
          "type": "string"
        },
        {
          "name": "_proposalDescHash",
          "type": "string"
        }
      ],
      "name": "updateProposal",
      "outputs": [],
      "payable": false,
      "stateMutability": "nonpayable",
      "type": "function"
    },
    {
      "constant": true,
      "inputs": [
        {
          "name": "",
          "type": "uint256"
        }
      ],
      "name": "proposalVoteTally",
      "outputs": [
        {
          "name": "voters",
          "type": "uint256"
        }
      ],
      "payable": false,
      "stateMutability": "view",
      "type": "function"
    },
    {
      "constant": false,
      "inputs": [
        {
          "name": "_add",
          "type": "address"
        }
      ],
      "name": "removeDelegation",
      "outputs": [],
      "payable": false,
      "stateMutability": "nonpayable",
      "type": "function"
    },
    {
      "constant": true,
      "inputs": [],
      "name": "nxMasterAddress",
      "outputs": [
        {
          "name": "",
          "type": "address"
        }
      ],
      "payable": false,
      "stateMutability": "view",
      "type": "function"
    },
    {
      "constant": true,
      "inputs": [
        {
          "name": "_add",
          "type": "address"
        }
      ],
      "name": "alreadyDelegated",
      "outputs": [
        {
          "name": "delegated",
          "type": "bool"
        }
      ],
      "payable": false,
      "stateMutability": "view",
      "type": "function"
    },
    {
      "anonymous": false,
      "inputs": [
        {
          "indexed": false,
          "name": "proposalId",
          "type": "uint256"
        }
      ],
      "name": "ActionFailed",
      "type": "event"
    },
    {
      "anonymous": false,
      "inputs": [
        {
          "indexed": true,
          "name": "proposalId",
          "type": "uint256"
        },
        {
          "indexed": false,
          "name": "rejectedBy",
          "type": "address"
        }
      ],
      "name": "ActionRejected",
      "type": "event"
    },
    {
      "anonymous": false,
      "inputs": [
        {
          "indexed": true,
          "name": "proposalId",
          "type": "uint256"
        },
        {
          "indexed": true,
          "name": "categorizedBy",
          "type": "address"
        },
        {
          "indexed": false,
          "name": "categoryId",
          "type": "uint256"
        }
      ],
      "name": "ProposalCategorized",
      "type": "event"
    },
    {
      "anonymous": false,
      "inputs": [
        {
          "indexed": true,
          "name": "proposalOwner",
          "type": "address"
        },
        {
          "indexed": true,
          "name": "proposalId",
          "type": "uint256"
        },
        {
          "indexed": false,
          "name": "dateAdd",
          "type": "uint256"
        },
        {
          "indexed": false,
          "name": "proposalTitle",
          "type": "string"
        },
        {
          "indexed": false,
          "name": "proposalSD",
          "type": "string"
        },
        {
          "indexed": false,
          "name": "proposalDescHash",
          "type": "string"
        }
      ],
      "name": "Proposal",
      "type": "event"
    },
    {
      "anonymous": false,
      "inputs": [
        {
          "indexed": true,
          "name": "proposalId",
          "type": "uint256"
        },
        {
          "indexed": true,
          "name": "solutionOwner",
          "type": "address"
        },
        {
          "indexed": true,
          "name": "solutionId",
          "type": "uint256"
        },
        {
          "indexed": false,
          "name": "solutionDescHash",
          "type": "string"
        },
        {
          "indexed": false,
          "name": "dateAdd",
          "type": "uint256"
        }
      ],
      "name": "Solution",
      "type": "event"
    },
    {
      "anonymous": false,
      "inputs": [
        {
          "indexed": true,
          "name": "from",
          "type": "address"
        },
        {
          "indexed": true,
          "name": "proposalId",
          "type": "uint256"
        },
        {
          "indexed": true,
          "name": "voteId",
          "type": "uint256"
        },
        {
          "indexed": false,
          "name": "dateAdd",
          "type": "uint256"
        },
        {
          "indexed": false,
          "name": "solutionChosen",
          "type": "uint256"
        }
      ],
      "name": "Vote",
      "type": "event"
    },
    {
      "anonymous": false,
      "inputs": [
        {
          "indexed": true,
          "name": "member",
          "type": "address"
        },
        {
          "indexed": false,
          "name": "gbtReward",
          "type": "uint256"
        }
      ],
      "name": "RewardClaimed",
      "type": "event"
    },
    {
      "anonymous": false,
      "inputs": [
        {
          "indexed": false,
          "name": "proposalId",
          "type": "uint256"
        }
      ],
      "name": "VoteCast",
      "type": "event"
    },
    {
      "anonymous": false,
      "inputs": [
        {
          "indexed": false,
          "name": "proposalId",
          "type": "uint256"
        }
      ],
      "name": "ProposalAccepted",
      "type": "event"
    },
    {
      "anonymous": false,
      "inputs": [
        {
          "indexed": true,
          "name": "proposalId",
          "type": "uint256"
        },
        {
          "indexed": false,
          "name": "time",
          "type": "uint256"
        }
      ],
      "name": "CloseProposalOnTime",
      "type": "event"
    },
    {
      "anonymous": false,
      "inputs": [
        {
          "indexed": false,
          "name": "proposalId",
          "type": "uint256"
        }
      ],
      "name": "ActionSuccess",
      "type": "event"
    }
  ],
  "bytecode": "0x608060405234801561001057600080fd5b50615efb80620000216000396000f3fe608060405234801561001057600080fd5b506004361061025e5760003560e01c80637287078611610146578063c2fe2022116100c3578063e0429d0911610087578063e0429d0914610b68578063e3b34c8814610b8e578063eeff918814610ca3578063f0466c7314610cc0578063f17a3bec14610ce6578063fa17e84d14610cee5761025e565b8063c2fe202214610a81578063c5d2eade14610af7578063cc0c886f14610b14578063d46655f414610b1c578063d5950ad114610b425761025e565b8063a0b2d57f1161010a578063a0b2d57f146109cb578063aaf86c30146109ef578063b31e1d4d146109f7578063bb73c56214610a1d578063bcc81c0c14610a645761025e565b8063728707861461088e578063787112a6146109535780638263a938146109795780639dd86e0f146109815780639ed1c7db146109ae5761025e565b8063207008f6116101df5780634c15676b116101a35780634c15676b146106975780634df9d6ba146107a557806353fb6c5c146107cb5780636122f840146107f75780636edde0bd146108425780636f93bfb71461086b5761025e565b8063207008f6146105695780632b4b16b1146105885780632f54243a146105a557806330326c171461064757806339bb96071461068f5761025e565b806316e9eaec1161022657806316e9eaec1461034957806316fdc34e14610366578063174e31c4146105185780631d35ab49146105445780631eef225c146105615761025e565b80630386a01614610263578063060225f6146102825780630852a6e3146102c05780630ea9c984146103005780630fec1dec14610308575b600080fd5b6102806004803603602081101561027957600080fd5b5035610d14565b005b6102ae6004803603604081101561029857600080fd5b506001600160a01b038135169060200135610ebe565b60408051918252519081900360200190f35b6102ec600480360360408110156102d657600080fd5b50803590602001356001600160a01b0316610edb565b604080519115158252519081900360200190f35b610280610efb565b61032b6004803603604081101561031e57600080fd5b50803590602001356110bf565b60408051938452602084019290925282820152519081900360600190f35b61032b6004803603602081101561035f57600080fd5b50356110f3565b610280600480360360c081101561037c57600080fd5b810190602081018135600160201b81111561039657600080fd5b8201836020820111156103a857600080fd5b803590602001918460018302840111600160201b831117156103c957600080fd5b919390929091602081019035600160201b8111156103e657600080fd5b8201836020820111156103f857600080fd5b803590602001918460018302840111600160201b8311171561041957600080fd5b919390929091602081019035600160201b81111561043657600080fd5b82018360208201111561044857600080fd5b803590602001918460018302840111600160201b8311171561046957600080fd5b91939092823592604081019060200135600160201b81111561048a57600080fd5b82018360208201111561049c57600080fd5b803590602001918460018302840111600160201b831117156104bd57600080fd5b919390929091602081019035600160201b8111156104da57600080fd5b8201836020820111156104ec57600080fd5b803590602001918460018302840111600160201b8311171561050d57600080fd5b509092509050611118565b6102ae6004803603604081101561052e57600080fd5b506001600160a01b0381351690602001356112c3565b6102ae6004803603602081101561055a57600080fd5b50356116c7565b6102806116d9565b6102806004803603602081101561057f57600080fd5b5035151561183e565b6102806004803603602081101561059e57600080fd5b50356119b8565b6105c8600480360360408110156105bb57600080fd5b5080359060200135611cae565b6040518083815260200180602001828103825283818151815260200191508051906020019080838360005b8381101561060b5781810151838201526020016105f3565b50505050905090810190601f1680156106385780820380516001836020036101000a031916815260200191505b50935050505060405180910390f35b6106646004803603602081101561065d57600080fd5b5035611d71565b6040805195865260208601949094528484019290925260608401526080830152519081900360a00190f35b6102ae611d9a565b610280600480360360808110156106ad57600080fd5b810190602081018135600160201b8111156106c757600080fd5b8201836020820111156106d957600080fd5b803590602001918460018302840111600160201b831117156106fa57600080fd5b919390929091602081019035600160201b81111561071757600080fd5b82018360208201111561072957600080fd5b803590602001918460018302840111600160201b8311171561074a57600080fd5b919390929091602081019035600160201b81111561076757600080fd5b82018360208201111561077957600080fd5b803590602001918460018302840111600160201b8311171561079a57600080fd5b919350915035611da0565b6102ae600480360360208110156107bb57600080fd5b50356001600160a01b0316611f60565b6102ec600480360360408110156107e157600080fd5b50803590602001356001600160a01b0316612210565b61081e6004803603602081101561080d57600080fd5b50356001600160c01b031916612230565b604080516001600160c01b0319909316835260208301919091528051918290030190f35b6102806004803603606081101561085857600080fd5b5080359060208101359060400135612389565b6102806004803603604081101561088157600080fd5b508035906020013561247f565b610280600480360360608110156108a457600080fd5b81359190810190604081016020820135600160201b8111156108c557600080fd5b8201836020820111156108d757600080fd5b803590602001918460018302840111600160201b831117156108f857600080fd5b919390929091602081019035600160201b81111561091557600080fd5b82018360208201111561092757600080fd5b803590602001918460018302840111600160201b8311171561094857600080fd5b5090925090506124fe565b6102ae6004803603602081101561096957600080fd5b50356001600160a01b03166125f9565b6102ae61260b565b6102806004803603604081101561099757600080fd5b506001600160c01b03198135169060200135612612565b6102ec600480360360208110156109c457600080fd5b503561281a565b6109d3612a16565b604080516001600160a01b039092168252519081900360200190f35b6102ae612a25565b61028060048036036020811015610a0d57600080fd5b50356001600160a01b0316612a2b565b610a3a60048036036020811015610a3357600080fd5b5035613042565b604080516001600160a01b0394851681529290931660208301528183015290519081900360600190f35b6102ae60048036036020811015610a7a57600080fd5b503561307f565b610aa760048036036020811015610a9757600080fd5b50356001600160a01b0316613362565b60408051602080825283518183015283519192839290830191858101910280838360005b83811015610ae3578181015183820152602001610acb565b505050509050019250505060405180910390f35b61028060048036036020811015610b0d57600080fd5b50356133ce565b61028061346b565b61028060048036036020811015610b3257600080fd5b50356001600160a01b0316613514565b6102ec60048036036020811015610b5857600080fd5b50356001600160a01b03166135a3565b6102ae60048036036020811015610b7e57600080fd5b50356001600160a01b03166135b8565b61028060048036036080811015610ba457600080fd5b81359190810190604081016020820135600160201b811115610bc557600080fd5b820183602082011115610bd757600080fd5b803590602001918460018302840111600160201b83111715610bf857600080fd5b919390929091602081019035600160201b811115610c1557600080fd5b820183602082011115610c2757600080fd5b803590602001918460018302840111600160201b83111715610c4857600080fd5b919390929091602081019035600160201b811115610c6557600080fd5b820183602082011115610c7757600080fd5b803590602001918460018302840111600160201b83111715610c9857600080fd5b5090925090506135ca565b6102ae60048036036020811015610cb957600080fd5b5035613789565b61028060048036036020811015610cd657600080fd5b50356001600160a01b031661379e565b6109d361382a565b6102ec60048036036020811015610d0457600080fd5b50356001600160a01b0316613839565b60008181526004602081905260408220600281015460165491909201549192914291610d46919063ffffffff6138d516565b11158015610d6257506002600084815260046020526040902054105b15610d7857610d738360065b61393b565b610eb9565b610d818361307f565b600114610d8d57600080fd5b6018546000848152600460208190526040808320600201548151600160e01b63253eca1f02815292830152516001600160a01b039093169263253eca1f92602480840193919291829003018186803b158015610de857600080fd5b505afa158015610dfc573d6000803e3d6000fd5b505050506040513d6000823e601f3d908101601f1916820160405260e0811015610e2557600080fd5b815160208301516040840151606085015160808601805194969395929491939283019291600160201b811115610e5a57600080fd5b82016020810184811115610e6d57600080fd5b81518560208202830111600160201b82111715610e8957600080fd5b5096985060019750610e9e9650505050505050565b811415610eaf57610d73838361397e565b610eb98383613b59565b505050565b600860209081526000928352604080842090915290825290205481565b601c60209081526000928352604080842090915290825290205460ff1681565b6000809054906101000a90046001600160a01b03166001600160a01b0316633a12507f6040518163ffffffff1660e01b815260040160206040518083038186803b158015610f4857600080fd5b505afa158015610f5c573d6000803e3d6000fd5b505050506040513d6020811015610f7257600080fd5b5051601980546001600160a01b0319166001600160a01b0392831617905560005460408051600160e31b6227050b028152600160f11b6126a9026004820152905191909216916301382858916024808301926020929190829003018186803b158015610fdd57600080fd5b505afa158015610ff1573d6000803e3d6000fd5b505050506040513d602081101561100757600080fd5b5051601780546001600160a01b0319166001600160a01b0392831617905560005460408051600160e31b6227050b028152600160f01b615043026004820152905191909216916301382858916024808301926020929190829003018186803b15801561107257600080fd5b505afa158015611086573d6000803e3d6000fd5b505050506040513d602081101561109c57600080fd5b5051601880546001600160a01b0319166001600160a01b03909216919091179055565b6000828152600c60208181526040808420948452848252808420546001860183529084205495909352526002909101549092565b600081815260056020908152604080832054600c909252909120600201549192909190565b846111228161281a565b6111675760408051600160e51b62461bcd02815260206004820152600b6024820152600160aa1b6a139bdd08185b1b1bddd95902604482015290519081900360640190fd5b601554604080516020601f8f018190048102820181019092528d8152611233918f908f9081908401838280828437600081840152601f19601f820116905080830192505050505050508c8c8080601f016020809104026020016040519081016040528093929190818152602001838380828437600081840152601f19601f820116905080830192505050505050508b8b8080601f0160208091040260200160405190810160405280939291908181526020018383808284376000920191909152508d9250614051915050565b6000871161124057600080fd5b6112b48187878080601f01602080910402602001604051908101604052809392919081815260200183838082843760009201919091525050604080516020601f8b0181900481028201810190925289815292508991508890819084018382808284376000920191909152506142dc92505050565b50505050505050505050505050565b6000805460408051600160e31b6227050b028152600160f11b6121a902600482015290518392839283926001600160a01b0390921691630138285891602480820192602092909190829003018186803b15801561131f57600080fd5b505afa158015611333573d6000803e3d6000fd5b505050506040513d602081101561134957600080fd5b50516001600160a01b0316331461135f57600080fd5b6001600160a01b038616600090815260096020526040902054611380615df6565b6003828154811061138d57fe5b600091825260209182902060408051606081018252600390930290910180546001600160a01b0390811684526001820154169383019390935260029092015491810191909152905081158015906113f0575060208101516001600160a01b031615155b1561140857806020015193508060400151925061140c565b8793505b6001600160a01b03808516600090815260066020908152604080832054938c168352600e909152812054909190819083905b838110801561144c57508b82105b1561162d576001600160a01b038916600090815260066020526040902080548290811061147557fe5b9060005260206000200154995060028a8154811061148f57fe5b90600052602060002090600302016001015494506000600c60008781526020019081526020016000206002015411801561151457506010546114d890899063ffffffff6138d516565b60028b815481106114e557fe5b906000526020600020906003020160020154118061151457508c6001600160a01b0316896001600160a01b0316145b15611625576002600086815260046020526040902054111561161957600760008b815260200190815260200160002060008e6001600160a01b03166001600160a01b0316815260200190815260200160002060009054906101000a900460ff16611614576000858152600c60209081526040808320600201546004909252909120600301546115ba916115ad919063ffffffff61457016565b8c9063ffffffff6138d516565b9a506001600760008c815260200190815260200160002060008f6001600160a01b03166001600160a01b0316815260200190815260200160002060006101000a81548160ff02191690831515021790555081806001019250505b611625565b83831415611625578092505b60010161143e565b83831415611655576001600160a01b038d166000908152600e60205260409020819055611671565b6001600160a01b038d166000908152600e602052604090208390555b81156116b757604080518c815290516001600160a01b038f16917f106f923f993c2149d49b4255ff723acafa1f2d94393f561d3eda32ae348f7241919081900360200190a25b5050505050505050505092915050565b601a6020526000908152604090205481565b6000809054906101000a90046001600160a01b03166001600160a01b031663ff0938a76040518163ffffffff1660e01b815260040160206040518083038186803b15801561172657600080fd5b505afa15801561173a573d6000803e3d6000fd5b505050506040513d602081101561175057600080fd5b50511580156117da575060005460408051600160e21b63288c314902815233600482015290516001600160a01b039092169163a230c52491602480820192602092909190829003018186803b1580156117a857600080fd5b505afa1580156117bc573d6000803e3d6000fd5b505050506040513d60208110156117d257600080fd5b505115156001145b6117e357600080fd5b6117ec33611f60565b156118335760408051600160e51b62461bcd02815260206004820152600c6024820152600160a21b6b10db185a5b481c995dd85c9902604482015290519081900360640190fd5b61183c336145b2565b565b6000809054906101000a90046001600160a01b03166001600160a01b031663ff0938a76040518163ffffffff1660e01b815260040160206040518083038186803b15801561188b57600080fd5b505afa15801561189f573d6000803e3d6000fd5b505050506040513d60208110156118b557600080fd5b505115801561193f575060005460408051600160e21b63288c314902815233600482015290516001600160a01b039092169163a230c52491602480820192602092909190829003018186803b15801561190d57600080fd5b505afa158015611921573d6000803e3d6000fd5b505050506040513d602081101561193757600080fd5b505115156001145b61194857600080fd5b61195133611f60565b156119985760408051600160e51b62461bcd02815260206004820152600c6024820152600160a21b6b10db185a5b481c995dd85c9902604482015290519081900360640190fd5b336000908152600d60205260409020805460ff1916911515919091179055565b60175460408051600160e01b63505ef22f0281523360048201526001602482015290516001600160a01b039092169163505ef22f91604480820192602092909190829003018186803b158015611a0d57600080fd5b505afa158015611a21573d6000803e3d6000fd5b505050506040513d6020811015611a3757600080fd5b50518015611a5257506000818152601b602052604090205442105b611a5b57600080fd5b60016000828152601a602052604090205414611a7657600080fd5b6000818152601c6020908152604080832033845290915290205460ff1615611a9d57600080fd5b60408051600480825260248083018452602080840180516001600160e01b0316600160e41b630c578f23021781529351909320601854600087815294849052858520600201548651600160e01b6357c7bec102815294850152945190946001600160a01b0316936357c7bec1938084019391929190829003018186803b158015611b2657600080fd5b505afa158015611b3a573d6000803e3d6000fd5b505050506040513d6000823e601f3d908101601f191682016040526020811015611b6357600080fd5b810190808051600160201b811115611b7a57600080fd5b82016020810184811115611b8d57600080fd5b8151600160201b811182820187101715611ba657600080fd5b50509291905050506040518082805190602001908083835b60208310611bdd5780518252601f199092019160209182019101611bbe565b6001836020036101000a03801982511681845116808217855250505050505090500191505060405180910390201415611c1557600080fd5b6000818152601c6020908152604080832033808552908352818420805460ff19166001908117909155858552601d845293829020805490940190935580519283525183927f56bdda336a8bb949a57770a7cde5b62bd8913d11d9dde767735db889a609692f92908290030190a26000818152601d602052604090205460031415611cab5760026000828152601a60205260409020555b50565b60008281526005602052604081208054606091849182908110611ccd57fe5b600091825260209182902001805460408051601f600260001961010060018716150201909416939093049283018590048502810185019091528181529192839190830182828015611d5f5780601f10611d3457610100808354040283529160200191611d5f565b820191906000526020600020905b815481529060010190602001808311611d4257829003601f168201915b50505050509050915091509250929050565b600081815260046020526040902060028101548154600183015460039093015493949193909291565b60105481565b80611daa8161281a565b611def5760408051600160e51b62461bcd02815260206004820152600b6024820152600160aa1b6a139bdd08185b1b1bddd95902604482015290519081900360640190fd5b60005460408051600160e21b63288c314902815233600482015290516001600160a01b039092169163a230c52491602480820192602092909190829003018186803b158015611e3d57600080fd5b505afa158015611e51573d6000803e3d6000fd5b505050506040513d6020811015611e6757600080fd5b5051611ead5760408051600160e51b62461bcd02815260206004820152600a6024820152600160b11b692737ba1026b2b6b132b902604482015290519081900360640190fd5b611f5688888080601f01602080910402602001604051908101604052809392919081815260200183838082843760009201919091525050604080516020601f8c018190048102820181019092528a815292508a915089908190840183828082843760009201919091525050604080516020601f8b018190048102820181019092528981529250899150889081908401838280828437600092019190915250889250614051915050565b5050505050505050565b6001600160a01b0381166000908152600960205260408120548180611f83615df6565b60038481548110611f9057fe5b600091825260209182902060408051606081018252600390930290910180546001600160a01b039081168452600182015416938301939093526002909201549181019190915290508315801590611ff3575060208101516001600160a01b031615155b1561200b57806020015192508060400151915061200f565b8592505b6001600160a01b0386166000908152600e60205260408120545b6001600160a01b0385166000908152600660205260409020548110156122055760105461205d90859063ffffffff6138d516565b6001600160a01b03861660009081526006602052604090208054600291908490811061208557fe5b90600052602060002001548154811061209a57fe5b90600052602060002090600302016002015411806120c95750876001600160a01b0316856001600160a01b0316145b156121fd576001600160a01b038516600090815260066020526040812080546007929190849081106120f757fe5b6000918252602080832090910154835282810193909352604091820181206001600160a01b038c16825290925290205460ff166121fd576001600160a01b03851660009081526006602052604090208054600291908390811061215657fe5b90600052602060002001548154811061216b57fe5b90600052602060002090600302016001015491506000600c6000848152602001908152602001600020600201541180156121b357506002600083815260046020526040902054115b156121fd576000828152600c60209081526040808320600201546004909252909120600301546121fa916121ed919063ffffffff61457016565b889063ffffffff6138d516565b96505b600101612029565b505050505050919050565b600760209081526000928352604080842090915290825290205460ff1681565b806000600160ca1b6611d3d59213d311026001600160c01b03198316141561226857620151806010548161226057fe5b049050612384565b600160d21b651350561193d3026001600160c01b03198416141561228f5750601454612384565b600160ca1b6613505611149195026001600160c01b0319841614156122bc57620151806016548161226057fe5b600160d01b65455054494d45026001600160c01b0319841614156123575760005460408051600160e01b63015cb3ff028152905162015180926001600160a01b03169163015cb3ff916004808301926020929190829003018186803b15801561232457600080fd5b505afa158015612338573d6000803e3d6000fd5b505050506040513d602081101561234e57600080fd5b50518161226057fe5b600160e21b631050d5d5026001600160c01b03198416141561238457610e10601f548161238057fe5b0490505b915091565b826002600082815260046020526040902054106123a557600080fd5b60175460115460408051600160e01b63505ef22f0281523360048201526024810192909252516001600160a01b039092169163505ef22f91604480820192602092909190829003018186803b1580156123fd57600080fd5b505afa158015612411573d6000803e3d6000fd5b505050506040513d602081101561242757600080fd5b505161246e5760408051600160e51b62461bcd02815260206004820152600b6024820152600160aa1b6a139bdd08185b1b1bddd95902604482015290519081900360640190fd5b6124798484846146ed565b50505050565b6002600083815260046020526040902054146124d65760408051600160e51b62461bcd02815260206004820152600b6024820152600160aa1b6a139bdd08185b1b1bddd95902604482015290519081900360640190fd5b60008281526005602052604090205481106124f057600080fd5b6124fa8282614826565b5050565b60008581526004602052604090206005015485906001600160a01b031633146125625760408051600160e51b62461bcd02815260206004820152600b6024820152600160aa1b6a139bdd08185b1b1bddd95902604482015290519081900360640190fd5b60016000878152600460205260409020541461257d57600080fd5b6125f18686868080601f01602080910402602001604051908101604052809392919081815260200183838082843760009201919091525050604080516020601f8a0181900481028201810190925288815292508891508790819084018382808284376000920191909152506142dc92505050565b505050505050565b60096020526000908152604090205481565b6015545b90565b60005460408051600160e11b632c1a733d02815233600482015290516001600160a01b0390921691635834e67a91602480820192602092909190829003018186803b15801561266057600080fd5b505afa158015612674573d6000803e3d6000fd5b505050506040513d602081101561268a57600080fd5b505161269557600080fd5b600160ca1b6611d3d59213d311026001600160c01b0319831614156126c2576201518081026010556124fa565b600160d21b651350561193d3026001600160c01b0319831614156126ea5760148190556124fa565b600160ca1b6613505611149195026001600160c01b031983161415612717576201518081026016556124fa565b600160d01b65455054494d45026001600160c01b0319831614156127a1576000805460408051600160e21b631e376fb5028152620151808502600482015290516001600160a01b03909216926378ddbed49260248084019382900301818387803b15801561278457600080fd5b505af1158015612798573d6000803e3d6000fd5b505050506124fa565b600160e21b631050d5d5026001600160c01b0319831614156127ca57610e108102601f556124fa565b60408051600160e51b62461bcd02815260206004820152600c60248201527f496e76616c696420636f64650000000000000000000000000000000000000000604482015290519081900360640190fd5b60008161282957506001612a11565b60185460408051600160e01b63253eca1f0281526004810185905290516060926001600160a01b03169163253eca1f916024808301926000929190829003018186803b15801561287857600080fd5b505afa15801561288c573d6000803e3d6000fd5b505050506040513d6000823e601f3d908101601f1916820160405260e08110156128b557600080fd5b815160208301516040840151606085015160808601805194969395929491939283019291600160201b8111156128ea57600080fd5b820160208101848111156128fd57600080fd5b81518560208202830111600160201b8211171561291957600080fd5b5090985060009750505050505050505b8151811015612a0e5781818151811061293e57fe5b6020026020010151600014806129f6575060175482516001600160a01b039091169063505ef22f90339085908590811061297457fe5b60200260200101516040518363ffffffff1660e01b815260040180836001600160a01b03166001600160a01b031681526020018281526020019250505060206040518083038186803b1580156129c957600080fd5b505afa1580156129dd573d6000803e3d6000fd5b505050506040513d60208110156129f357600080fd5b50515b15612a0657600192505050612a11565b600101612929565b50505b919050565b6000546001600160a01b031681565b60115490565b6000809054906101000a90046001600160a01b03166001600160a01b031663ff0938a76040518163ffffffff1660e01b815260040160206040518083038186803b158015612a7857600080fd5b505afa158015612a8c573d6000803e3d6000fd5b505050506040513d6020811015612aa257600080fd5b5051158015612b2c575060005460408051600160e21b63288c314902815233600482015290516001600160a01b039092169163a230c52491602480820192602092909190829003018186803b158015612afa57600080fd5b505afa158015612b0e573d6000803e3d6000fd5b505050506040513d6020811015612b2457600080fd5b505115156001145b612b3557600080fd5b612b3e33611f60565b15612b855760408051600160e51b62461bcd02815260206004820152600c6024820152600160a21b6b10db185a5b481c995dd85c9902604482015290519081900360640190fd5b6000809054906101000a90046001600160a01b03166001600160a01b031663c15041d56040518163ffffffff1660e01b815260040160206040518083038186803b158015612bd257600080fd5b505afa158015612be6573d6000803e3d6000fd5b505050506040513d6020811015612bfc57600080fd5b5051612c0757600080fd5b6001600160a01b038116600090815260096020526040812054600380549091908110612c2f57fe5b60009182526020909120600160039092020101546001600160a01b031614612c5657600080fd5b3360009081526009602052604090205415612cbd5760105433600090815260096020526040902054600380544293612cb3939092918110612c9357fe5b9060005260206000209060030201600201546138d590919063ffffffff16565b10612cbd57600080fd5b612cc633613839565b15612cd057600080fd5b60175460408051600160e01b63505ef22f0281523360048201526003602482015290516001600160a01b039092169163505ef22f91604480820192602092909190829003018186803b158015612d2557600080fd5b505afa158015612d39573d6000803e3d6000fd5b505050506040513d6020811015612d4f57600080fd5b505115612d5b57600080fd5b60175460408051600160e01b63505ef22f0281523360048201526001602482015290516001600160a01b039092169163505ef22f91604480820192602092909190829003018186803b158015612db057600080fd5b505afa158015612dc4573d6000803e3d6000fd5b505050506040513d6020811015612dda57600080fd5b505115612de657600080fd5b6014546001600160a01b0382166000908152600a602052604090205410612e0c57600080fd5b3360009081526006602052604090205415612e6e5760105433600090815260066020526040902080544292612e64929091600291906000198101908110612e4f57fe5b906000526020600020015481548110612c9357fe5b10612e6e57600080fd5b60005460408051600160e21b63288c31490281526001600160a01b0384811660048301529151919092169163a230c524916024808301926020929190829003018186803b158015612ebe57600080fd5b505afa158015612ed2573d6000803e3d6000fd5b505050506040513d6020811015612ee857600080fd5b5051612ef357600080fd5b6001600160a01b0381166000908152600d602052604090205460ff16612f1857600080fd5b60408051606081018252338082526001600160a01b039384166020808401828152428587019081526003805460018181018355600083815298519183027fc2575a0e9e593c00f959f8c92f12db2869c3395a3b0502d05e2516446f71f85b81018054938d166001600160a01b031994851617905594517fc2575a0e9e593c00f959f8c92f12db2869c3395a3b0502d05e2516446f71f85c8601805491909c1692169190911790995590517fc2575a0e9e593c00f959f8c92f12db2869c3395a3b0502d05e2516446f71f85d909201919091558054848652600983528686206000199182019055838652600b835286862091548254808a0184559287528387209101910155908352600a815283832080549095019094556006845282822054908252600e9093522055565b6003818154811061304f57fe5b60009182526020909120600390910201805460018201546002909201546001600160a01b03918216935091169083565b60008181526004602081905260408083208054818401546018546002909301548451600160e01b63253eca1f028152958601529251929390928592839283926001600160a01b039092169163253eca1f916024808201928692909190829003018186803b1580156130ef57600080fd5b505afa158015613103573d6000803e3d6000fd5b505050506040513d6000823e601f3d908101601f1916820160405260e081101561312c57600080fd5b815160208301516040840151606085015160808601805194969395929491939283019291600160201b81111561316157600080fd5b8201602081018481111561317457600080fd5b81518560208202830111600160201b8211171561319057600080fd5b505050602001519850939650919450600293506131ac92505050565b8414156133335760175460408051600160e01b630dc6f8470281526004810185905290516000926001600160a01b031691630dc6f847916024808301926020929190829003018186803b15801561320257600080fd5b505afa158015613216573d6000803e3d6000fd5b505050506040513d602081101561322c57600080fd5b5051905060018314156132eb576000888152600c60209081526040808320600180855201909152902054829061327b90839061326f90606463ffffffff614e8316565b9063ffffffff61457016565b1015806132b857506000888152600c602090815260408083208380526001908101909252808320549183529091205482916132b691906138d5565b145b806132d25750426132cf878663ffffffff6138d516565b11155b156132e65760019650505050505050612a11565b61332d565b6000888152600c6020526040902060020154811480613319575042613316878663ffffffff6138d516565b11155b1561332d5760019650505050505050612a11565b50613358565b600284111561334a57600295505050505050612a11565b600095505050505050612a11565b5050505050919050565b6001600160a01b0381166000908152600b60209081526040918290208054835181840281018401909452808452606093928301828280156133c257602002820191906000526020600020905b8154815260200190600101908083116133ae575b50505050509050919050565b60016000828152601a60205260409020541480156133fa57506000818152601b60205260409020544210155b61344e5760408051600160e51b62461bcd02815260206004820152600e60248201527f43616e6e6f742074726967676572000000000000000000000000000000000000604482015290519081900360640190fd5b600081815260046020526040902060020154611cab908290614edf565b60005460408051600160e11b6317aa5fb702815233600482015290516001600160a01b0390921691632f54bf6e91602480820192602092909190829003018186803b1580156134b957600080fd5b505afa1580156134cd573d6000803e3d6000fd5b505050506040513d60208110156134e357600080fd5b50516134ee57600080fd5b601e5460ff16156134fe57600080fd5b601e805460ff1916600117905562015180601f55565b6000546001600160a01b031615613577576000546001600160a01b031633146135775760408051600160e51b62461bcd02815260206004820152600a6024820152600160b11b692737ba1036b0b9ba32b902604482015290519081900360640190fd5b600080546001600160a01b039092166001600160a01b0319928316811790915560018054909216179055565b600d6020526000908152604090205460ff1681565b600e6020526000908152604090205481565b60008781526004602052604090206005015487906001600160a01b0316331461362e5760408051600160e51b62461bcd02815260206004820152600b6024820152600160aa1b6a139bdd08185b1b1bddd95902604482015290519081900360640190fd5b6000888152600560205260409020546002116136855760408051600160e51b62461bcd02815260206004820152600b6024820152600160aa1b6a139bdd08185b1b1bddd95902604482015290519081900360640190fd5b600088815260046020908152604080832083815560028101849055600381019390935560059092015482514280825260809382018481529382018b90528c946001600160a01b03909316937f470106408ef1beec24fa0f364830357ef2a70d11457aa4eb9b30b1bbc0172abe9391928d928d928d928d928d928d929182016060830160a084018a8a80828437600083820152601f01601f191690910185810384528881526020019050888880828437600083820152601f01601f191690910185810383528681526020019050868680828437600083820152604051601f909101601f19169092018290039c50909a5050505050505050505050a35050505050505050565b600c6020526000908152604090206002015481565b60005460408051600160e21b6323c5b10702815233600482015290516001600160a01b0390921691638f16c41c91602480820192602092909190829003018186803b1580156137ec57600080fd5b505afa158015613800573d6000803e3d6000fd5b505050506040513d602081101561381657600080fd5b505161382157600080fd5b611cab816145b2565b6001546001600160a01b031681565b6000805b6001600160a01b0383166000908152600b60205260409020548110156138cf576001600160a01b0383166000818152600b602052604090208054600391908490811061388557fe5b90600052602060002001548154811061389a57fe5b60009182526020909120600160039092020101546001600160a01b031614156138c7576001915050612a11565b60010161383d565b50919050565b6000828201838110156139325760408051600160e51b62461bcd02815260206004820152601b60248201527f536166654d6174683a206164646974696f6e206f766572666c6f770000000000604482015290519081900360640190fd5b90505b92915050565b600481148061394a5750600681145b156139615760046000838152601a60205260409020555b600091825260046020819052604090922042928101929092559055565b60185460408051600160e01b63253eca1f0281526004810184905290516000926001926001600160a01b039091169163253eca1f916024808201928792909190829003018186803b1580156139d257600080fd5b505afa1580156139e6573d6000803e3d6000fd5b505050506040513d6000823e601f3d908101601f1916820160405260e0811015613a0f57600080fd5b815160208301516040840151606085015160808601805194969395929491939283019291600160201b811115613a4457600080fd5b82016020810184811115613a5757600080fd5b81518560208202830111600160201b82111715613a7357600080fd5b5050601754959950899750613b359650506001600160a01b039094169350630dc6f8479250869150506003811115613aa757fe5b6040518263ffffffff1660e01b81526004018082815260200191505060206040518083038186803b158015613adb57600080fd5b505afa158015613aef573d6000803e3d6000fd5b505050506040513d6020811015613b0557600080fd5b50516000878152600c6020908152604080832060018085520190915290205461326f90606463ffffffff614e8316565b10613b4e57613b49846003856001856152d6565b612479565b612479846006610d6e565b60185460408051600160e01b6307149ba302815260048101849052905160009283926001600160a01b03909116916307149ba391602480820192606092909190829003018186803b158015613bad57600080fd5b505afa158015613bc1573d6000803e3d6000fd5b505050506040513d6060811015613bd757600080fd5b506020810151604090910151925090506001821415613d6c57601754600090613d3a90613d0e90613c8890670de0b6b3a7640000906001600160a01b0316630dc6f84760026040518263ffffffff1660e01b81526004018082815260200191505060206040518083038186803b158015613c5057600080fd5b505afa158015613c64573d6000803e3d6000fd5b505050506040513d6020811015613c7a57600080fd5b50519063ffffffff614e8316565b601960009054906101000a90046001600160a01b03166001600160a01b03166318160ddd6040518163ffffffff1660e01b815260040160206040518083038186803b158015613cd657600080fd5b505afa158015613cea573d6000803e3d6000fd5b505050506040513d6020811015613d0057600080fd5b50519063ffffffff6138d516565b6000878152600c602090815260408083206001845290915290205461326f90606463ffffffff614e8316565b90506013548110613d5b57613d568560035b86600160026152d6565b613d66565b613d66856006610d6e565b50613f42565b613d76848461539a565b15613ef15760185460408051600160e01b63253eca1f0281526004810186905290516000926001600160a01b03169163253eca1f9160248083019286929190829003018186803b158015613dc957600080fd5b505afa158015613ddd573d6000803e3d6000fd5b505050506040513d6000823e601f3d908101601f1916820160405260e0811015613e0657600080fd5b815160208301516040840151606085015160808601805194969395929491939283019291600160201b811115613e3b57600080fd5b82016020810184811115613e4e57600080fd5b81518560208202830111600160201b82111715613e6a57600080fd5b50505060008c8152600c602090815260408083206001845290915280822054828052912054959850889750613ed69650613eaa9594509250506138d59050565b6000888152600c602090815260408083206001845290915290205461326f90606463ffffffff614e8316565b10613ee657613d56856003613d4c565b613d66856004610d6e565b600081118015613f1d57506017548190613f1a906001600160a01b0316630dc6f8476001613aa7565b10155b15613f3757613f3284600385600160026152d6565b613f42565b613f42846006610d6e565b6000848152600c6020526040902060020154156124795760195460005460408051600160e31b6227050b028152600160f11b6121a902600482015290516001600160a01b03938416936340c10f199316916301382858916024808301926020929190829003018186803b158015613fb857600080fd5b505afa158015613fcc573d6000803e3d6000fd5b505050506040513d6020811015613fe257600080fd5b5051600087815260046020819052604080832060030154815163ffffffff871660e01b81526001600160a01b039095169285019290925260248401919091525160448084019382900301818387803b15801561403d57600080fd5b505af1158015611f56573d6000803e3d6000fd5b60185460408051600160e01b63780052970281526004810184905290516001600160a01b0390921691637800529791602480820192602092909190829003018186803b1580156140a057600080fd5b505afa1580156140b4573d6000803e3d6000fd5b505050506040513d60208110156140ca57600080fd5b505115806140d6575080155b6140df57600080fd5b6015546000818152600460208181526040808420600580820180546001600160a01b0319163317905542919094015591815281832080546001810180835591855282852084519384019485905292859052909361414193929091019190615e16565b50506015805460010190556040805142808252608060208084018281528a51928501929092528951869533957f470106408ef1beec24fa0f364830357ef2a70d11457aa4eb9b30b1bbc0172abe95948d948d948d94840191606085019160a086019189019080838360005b838110156141c45781810151838201526020016141ac565b50505050905090810190601f1680156141f15780820380516001836020036101000a031916815260200191505b50848103835286518152865160209182019188019080838360005b8381101561422457818101518382015260200161420c565b50505050905090810190601f1680156142515780820380516001836020036101000a031916815260200191505b50848103825285518152855160209182019187019080838360005b8381101561428457818101518382015260200161426c565b50505050905090810190601f1680156142b15780820380516001836020036101000a031916815260200191505b5097505050505050505060405180910390a381156142d5576142d5818360006146ed565b5050505050565b6000838152600460208190526040808320600201546018548251600160e01b6357c7bec1028152938401829052915190936001600160a01b03909216926357c7bec1926024808301939192829003018186803b15801561433b57600080fd5b505afa15801561434f573d6000803e3d6000fd5b505050506040513d6000823e601f3d908101601f19168201604052602081101561437857600080fd5b810190808051600160201b81111561438f57600080fd5b820160208101848111156143a257600080fd5b8151600160201b8111828201871017156143bb57600080fd5b5050511515925061440d91505057815160208301207fc5d2460186f7233c927e7db2dcc703c0e500b653ca82273b7bfad8045d85a470146143fb57600080fd5b60046000858152601a60205260409020555b61441884838561554c565b614423846002610d6e565b60185460408051600160e01b63253eca1f0281526004810184905290516000926001600160a01b03169163253eca1f9160248083019286929190829003018186803b15801561447157600080fd5b505afa158015614485573d6000803e3d6000fd5b505050506040513d6000823e601f3d908101601f1916820160405260e08110156144ae57600080fd5b815160208301516040840151606085015160808601805194969395929491939283019291600160201b8111156144e357600080fd5b820160208101848111156144f657600080fd5b81518560208202830111600160201b8211171561451257600080fd5b5050506020015196508a95507fc5be51db6c7799c3f641eecd22b62761981da3190ac6d1d306bc367243566258945061455893508692504291505063ffffffff6138d516565b60408051918252519081900360200190a25050505050565b600061393283836040518060400160405280601a81526020017f536166654d6174683a206469766973696f6e206279207a65726f00000000000081525061564d565b6001600160a01b03811660009081526009602052604090205480156124fa576146216001600a6000600385815481106145e757fe5b60009182526020808320600160039093020191909101546001600160a01b031683528201929092526040019020549063ffffffff6156f216565b600a60006003848154811061463257fe5b60009182526020808320600392830201600101546001600160a01b03168452830193909352604090910181209290925580548390811061466e57fe5b906000526020600020906003020160010160006101000a8154816001600160a01b0302191690836001600160a01b0316021790555042600382815481106146b157fe5b60009182526020808320600260039093020191909101929092556001600160a01b038416815260068252604080822054600e9093529020555050565b6000821180156147755750601860009054906101000a90046001600160a01b03166001600160a01b03166339275b0a6040518163ffffffff1660e01b815260040160206040518083038186803b15801561474657600080fd5b505afa15801561475a573d6000803e3d6000fd5b505050506040513d602081101561477057600080fd5b505182105b6147c95760408051600160e51b62461bcd02815260206004820152601060248201527f496e76616c69642063617465676f727900000000000000000000000000000000604482015290519081900360640190fd5b60008381526004602090815260409182902060028101859055600381018490556001905581518481529151339286927f5c0ed4086100f9e2c57a36b2c5ae3a1f991b2fd6af5a44cf0b9afb8a21796cdc92918290030190a3505050565b33600090815260096020908152604080832054601854868552600493849052828520600201548351600160e01b63253eca1f028152948501529151909392839283926001600160a01b039091169163253eca1f9160248083019286929190829003018186803b15801561489857600080fd5b505afa1580156148ac573d6000803e3d6000fd5b505050506040513d6000823e601f3d908101601f1916820160405260e08110156148d557600080fd5b815160208301516040840151606085015160808601805194969395929491939283019291600160201b81111561490a57600080fd5b8201602081018481111561491d57600080fd5b81518560208202830111600160201b8211171561493957600080fd5b50505060209081015160008e815260049283905260409020909101549599509397509295504294506149769392508591505063ffffffff6138d516565b116149b75760408051600160e51b62461bcd0281526020600482015260066024820152600160d21b6510db1bdcd95902604482015290519081900360640190fd5b33600090815260086020908152604080832089845290915290205415614a185760408051600160e51b62461bcd02815260206004820152600b6024820152600160aa1b6a139bdd08185b1b1bddd95902604482015290519081900360640190fd5b831580614a905750600084118015614a62575060006001600160a01b031660038581548110614a4357fe5b60009182526020909120600160039092020101546001600160a01b0316145b8015614a905750614a9060038581548110614a7957fe5b906000526020600020906003020160020154615734565b614a9957600080fd5b60175460408051600160e01b63505ef22f0281523360048201526024810186905290516001600160a01b039092169163505ef22f91604480820192602092909190829003018186803b158015614aee57600080fd5b505afa158015614b02573d6000803e3d6000fd5b505050506040513d6020811015614b1857600080fd5b5051614b6e5760408051600160e51b62461bcd02815260206004820152600e60248201527f4e6f7420417574686f72697a6564000000000000000000000000000000000000604482015290519081900360640190fd5b6002805433600081815260066020908152604080832080546001808201835591855283852001869055848452600883528184208d8552835281842086905581516060810183528581528084018e8152428285018181528a549485018b559990965290517f405787fa12a823e0f2b7631cc41b3ba8828b3321ca811111fa75cd3aa3bb5ace600390930292830180546001600160a01b0319166001600160a01b03909216919091179055517f405787fa12a823e0f2b7631cc41b3ba8828b3321ca811111fa75cd3aa3bb5acf82015595517f405787fa12a823e0f2b7631cc41b3ba8828b3321ca811111fa75cd3aa3bb5ad090960195909555845191825281018990528351929384938b93927f89eb0be5e1a1bcbad3c382ad8d3f2698ea4d54d9a179cd2368d184358ecad45192908290030190a46003841415614cea578560011415614cda57614cd587600360008a815260046020526040902060020154600160036152d6565b614ce5565b614ce5876004610d6e565b614e7a565b60175460408051600160e01b630dc6f8470281526004810187905290516000926001600160a01b031691630dc6f847916024808301926020929190829003018186803b158015614d3957600080fd5b505afa158015614d4d573d6000803e3d6000fd5b505050506040513d6020811015614d6357600080fd5b50519050614d72888887615740565b6001851415614e2c576000888152600c602090815260408083206001808552019091529020548490614db190839061326f90606463ffffffff614e8316565b101580614dee57506000888152600c60209081526040808320838052600190810190925280832054918352909120548291614dec91906138d5565b145b15614e27576040805189815290517f9593d9bd30eff4872ec3bab10360ad82eaac80651801e68f47f0674c38415c3d9181900360200190a15b611f56565b6000888152600c6020526040902060020154811415611f56576040805189815290517f9593d9bd30eff4872ec3bab10360ad82eaac80651801e68f47f0674c38415c3d9181900360200190a1505b50505050505050565b600082614e9257506000613935565b82820282848281614e9f57fe5b041461393257604051600160e51b62461bcd028152600401808060200182810382526021815260200180615eaf6021913960400191505060405180910390fd5b6000828152601a6020526040808220600390556018548151600160e21b63352aabed02815260048101859052915183926060926001600160a01b03169163d4aaafb4916024808201928792909190829003018186803b158015614f4157600080fd5b505afa158015614f55573d6000803e3d6000fd5b505050506040513d6000823e601f3d908101601f1916820160405260a0811015614f7e57600080fd5b815160208301516040840151606085015160808601805194969395929491939283019291600160201b811115614fb357600080fd5b82016020810184811115614fc657600080fd5b8151600160201b811182820187101715614fdf57600080fd5b50959a509598509496505050600160f01b614d53026001600160f01b031988161415935061501e92505050576000546001600160a01b031691506150bd565b600160f31b6108ab026001600160f01b03198416146150bd5760005460408051600160e31b6227050b0281526001600160f01b03198616600482015290516001600160a01b0390921691630138285891602480820192602092909190829003018186803b15801561508e57600080fd5b505afa1580156150a2573d6000803e3d6000fd5b505050506040513d60208110156150b857600080fd5b505191505b600085815260056020526040812080546001600160a01b03851691849160019081106150e557fe5b906000526020600020016040516020018083805190602001908083835b602083106151215780518252601f199092019160209182019101615102565b6001836020036101000a0380198251168184511680821785525050505050509050018280546001816001161561010002031660029004801561519a5780601f1061517857610100808354040283529182019161519a565b820191906000526020600020905b815481529060010190602001808311615186575b5050925050506040516020818303038152906040526040518082805190602001908083835b602083106151de5780518252601f1990920191602091820191016151bf565b6001836020036101000a0380198251168184511680821785525050505050509050019150506000604051808303816000865af19150503d8060008114615240576040519150601f19603f3d011682016040523d82523d6000602084013e615245565b606091505b505090508015615287576040805187815290517f6535f242c0cf5f7c126188bcde0e013c21a0251762fa3be3c854f59ac30a5cdd9181900360200190a16125f1565b6000868152601a602090815260409182902060019055815188815291517fa6a7dbbd4f2866cba9cd5a436f4982496ce98682adb410540faa675e61cef0159281900390910190a1505050505050565b60008581526004602052604090206001018290556152f4858561393b565b6040805186815290517fd24c2047577899547bacebb29e319fc7d73f6712b5adb401d45556f34bb2aa3b9181900360200190a160046000868152601a6020526040902054146142d557600181600381111561534b57fe5b14156153605761535b8584614edf565b6142d5565b60016000868152601a6020526040902055601f54615384904263ffffffff6138d516565b6000868152601b60205260409020555050505050565b60185460408051600160e01b63253eca1f028152600481018490529051600092839283926001600160a01b039092169163253eca1f916024808201928692909190829003018186803b1580156153ef57600080fd5b505afa158015615403573d6000803e3d6000fd5b505050506040513d6000823e601f3d908101601f1916820160405260e081101561542c57600080fd5b815160208301516040840151606085015160808601805194969395929491939283019291600160201b81111561546157600080fd5b8201602081018481111561547457600080fd5b81518560208202830111600160201b8211171561549057600080fd5b505060175460408051600160e01b630dc6f847028152600481018a90529051969b509799508a9850615541976155039750613c8896670de0b6b3a764000096506001600160a01b039092169450630dc6f84793506024808201935060209291829003018186803b158015613c5057600080fd5b6000888152600c60209081526040808320600184529091528082205482805291205461326f91606491615535916138d5565b9063ffffffff614e8316565b101595945050505050565b6000838152600560209081526040822080546001810180835591845292829020855191936155809391019190860190615e16565b50506001600560008581526020019081526020016000208054905003336001600160a01b0316847f28aed3fdbf1b73725998bf6a5f364a2b9a08b85236c75f0c0270cfe1b65fba8c84426040518080602001838152602001828103825284818151815260200191508051906020019080838360005b8381101561560d5781810151838201526020016155f5565b50505050905090810190601f16801561563a5780820380516001836020036101000a031916815260200191505b50935050505060405180910390a4505050565b600081836156dc57604051600160e51b62461bcd0281526004018080602001828103825283818151815260200191508051906020019080838360005b838110156156a1578181015183820152602001615689565b50505050905090810190601f1680156156ce5780820380516001836020036101000a031916815260200191505b509250505060405180910390fd5b5060008385816156e857fe5b0495945050505050565b600061393283836040518060400160405280601e81526020017f536166654d6174683a207375627472616374696f6e206f766572666c6f770000815250615d8a565b60105442919091031190565b6018546000848152600460208190526040808320600201548151600160e01b6307149ba30281529283015251919283926001600160a01b03909116916307149ba3916024808301926060929190829003018186803b1580156157a157600080fd5b505afa1580156157b5573d6000803e3d6000fd5b505050506040513d60608110156157cb57600080fd5b506020818101516040928301516017548451600160e01b63505ef22f0281523360048201526001602482015294519296509094506001600160a01b03169263505ef22f926044808301939192829003018186803b15801561582b57600080fd5b505afa15801561583f573d6000803e3d6000fd5b505050506040513d602081101561585557600080fd5b505180156158635750600082115b8061586e5750600183145b1561589a576000858152600c602090815260408083208784526001908101909252909120805490910190555b60195460105460408051600160e01b634c47e71d0281523360048201526024810192909252516001600160a01b0390921691634c47e71d9160448082019260009290919082900301818387803b1580156158f357600080fd5b505af1158015615907573d6000803e3d6000fd5b5060019250615914915050565b83146142d55760195460408051600160e11b6325877015028152336004820152905160009260019284926001600160a01b0390921691634b0ee02a91602480820192602092909190829003018186803b15801561597057600080fd5b505afa158015615984573d6000803e3d6000fd5b505050506040513d602081101561599a57600080fd5b505160195460408051600160e01b6318160ddd02815290519293506000926001600160a01b03909216916318160ddd91600480820192602092909190829003018186803b1580156159ea57600080fd5b505afa1580156159fe573d6000803e3d6000fd5b505050506040513d6020811015615a1457600080fd5b505190506001851415615a4057615a3982670de0b6b3a764000063ffffffff6138d516565b9350615a7e565b615a7b670de0b6b3a7640000615a6f84615a6a606461326f87601254614e8390919063ffffffff16565b615de7565b9063ffffffff6138d516565b93505b615a86615df6565b60005b336000908152600b6020526040902054811015615d2557336000908152600b6020526040902080546003919083908110615abf57fe5b906000526020600020015481548110615ad457fe5b600091825260209182902060408051606081018252600390930290910180546001600160a01b0390811684526001820154169383018490526002015490820152925033148015615b2c5750615b2c8260400151615734565b15615d1d57601754825160408051600160e01b63505ef22f0281526001600160a01b039283166004820152602481018d90529051919092169163505ef22f916044808301926020929190829003018186803b158015615b8a57600080fd5b505afa158015615b9e573d6000803e3d6000fd5b505050506040513d6020811015615bb457600080fd5b505115615d1d57601954825160408051600160e11b63258770150281526001600160a01b03928316600482015290519190921691634b0ee02a916024808301926020929190829003018186803b158015615c0d57600080fd5b505afa158015615c21573d6000803e3d6000fd5b505050506040513d6020811015615c3757600080fd5b5051601954835160105460408051600160e01b634c47e71d0281526001600160a01b039384166004820152602481019290925251939750911691634c47e71d9160448082019260009290919082900301818387803b158015615c9857600080fd5b505af1158015615cac573d6000803e3d6000fd5b5050506001958601958814159050615ced57615ce6615cd985670de0b6b3a764000063ffffffff6138d516565b879063ffffffff6138d516565b9550615d1d565b615d1a615cd9670de0b6b3a7640000615a6f87615a6a606461326f8a601254614e8390919063ffffffff16565b95505b600101615a89565b5060008a8152600c602090815260408083208c8452909152902054615d50908663ffffffff6138d516565b60008b8152600c602081815260408084208e855280835290842094909455918d905290526002018054909401909355505050505050505050565b60008184841115615ddf57604051600160e51b62461bcd0281526020600482018181528351602484015283519092839260449091019190850190808383600083156156a1578181015183820152602001615689565b505050900390565b81818111156139355750919050565b604080516060810182526000808252602082018190529181019190915290565b828054600181600116156101000203166002900490600052602060002090601f016020900481019282601f10615e5757805160ff1916838001178555615e84565b82800160010185558215615e84579182015b82811115615e84578251825591602001919060010190615e69565b50615e90929150615e94565b5090565b61260f91905b80821115615e905760008155600101615e9a56fe536166654d6174683a206d756c7469706c69636174696f6e206f766572666c6f77a165627a7a723058200ed5b234e5eb3865605f9d52ef16e844b5be6dd0abb0f11ac33f5a6219457f6d0029",
  "compiler": {
    "name": "solc",
    "version": "0.5.7+commit.6da8b019.Emscripten.clang",
    "optimizer": {
      "enabled": true,
      "runs": 200
    },
    "evmVersion": "petersburg"
  }
}