{
  "fileName": "MasterMock.sol",
  "contractName": "MasterMock",
  "source": "/*\n    Copyright (C) 2020 NexusMutual.io\n\n    This program is free software: you can redistribute it and/or modify\n    it under the terms of the GNU General Public License as published by\n    the Free Software Foundation, either version 3 of the License, or\n    (at your option) any later version.\n\n    This program is distributed in the hope that it will be useful,\n    but WITHOUT ANY WARRANTY; without even the implied warranty of\n    MERCHANTABILITY or FITNESS FOR A PARTICULAR PURPOSE.  See the\n    GNU General Public License for more details.\n\n    You should have received a copy of the GNU General Public License\n    along with this program.  If not, see http://www.gnu.org/licenses/\n*/\n\npragma solidity ^0.5.0;\n\nimport \"../abstract/INXMMaster.sol\";\n\ncontract MasterMock {\n\n  enum Role {\n    NonMember,\n    Member,\n    AdvisoryBord,\n    Owner\n  }\n\n  mapping(address => Role) members;\n  mapping(address => bool) internalAddresses;\n  mapping(address => bool) governanceAddresses;\n  mapping(bytes2 => address payable) contractAddresses;\n\n  bool paused;\n  address public tokenAddress;\n\n  /* utils */\n\n  function enrollGovernance(address newGov) public {\n    governanceAddresses[newGov] = true;\n  }\n\n  function enrollInternal(address newInternal) public {\n    internalAddresses[newInternal] = true;\n  }\n\n  function enrollMember(address newMember, Role role) public {\n    members[newMember] = role;\n  }\n\n  function setLatestAddress(bytes2 contractName, address payable contractAddress) public {\n    contractAddresses[contractName] = contractAddress;\n  }\n\n  function setTokenAddress(address _tokenAddress) public {\n    tokenAddress = _tokenAddress;\n  }\n\n  function pause() public {\n    paused = true;\n  }\n\n  function unpause() public {\n    paused = false;\n  }\n\n  /* mocked implementations */\n\n  function checkIsAuthToGoverned(address caller) public view returns (bool) {\n    return governanceAddresses[caller];\n  }\n\n  function isInternal(address caller) public view returns (bool) {\n    return internalAddresses[caller];\n  }\n\n  function isMember(address caller) public view returns (bool) {\n    return members[caller] >= Role.Member;\n  }\n\n  function getLatestAddress(bytes2 contractName) public view returns (address payable) {\n    return contractAddresses[contractName];\n  }\n\n  function isPause() public view returns (bool) {\n    return paused;\n  }\n\n  /* unused functions */\n\n  modifier unused {\n    require(false, \"Unexpected MasterMock call\");\n    _;\n  }\n\n  function delegateCallBack(bytes32) unused external {}\n\n  function masterInitialized() unused public view returns (bool) {}\n\n  function isOwner(address) unused public view returns (bool) {}\n\n  function updatePauseTime(uint) unused public {}\n\n  function dAppLocker() unused public view returns (address) {}\n\n  function dAppToken() unused public view returns (address) {}\n\n  function owner() external view returns (address) {}\n\n  function pauseTime() external view returns (uint) {}\n\n}\n",
  "sourcePath": "contracts/mocks/MasterMock.sol",
  "abi": [
    {
      "constant": true,
      "inputs": [
        {
          "name": "contractName",
          "type": "bytes2"
        }
      ],
      "name": "getLatestAddress",
      "outputs": [
        {
          "name": "",
          "type": "address"
        }
      ],
      "payable": false,
      "stateMutability": "view",
      "type": "function"
    },
    {
      "constant": true,
      "inputs": [],
      "name": "pauseTime",
      "outputs": [
        {
          "name": "",
          "type": "uint256"
        }
      ],
      "payable": false,
      "stateMutability": "view",
      "type": "function"
    },
    {
      "constant": false,
      "inputs": [
        {
          "name": "_tokenAddress",
          "type": "address"
        }
      ],
      "name": "setTokenAddress",
      "outputs": [],
      "payable": false,
      "stateMutability": "nonpayable",
      "type": "function"
    },
    {
      "constant": true,
      "inputs": [
        {
          "name": "",
          "type": "address"
        }
      ],
      "name": "isOwner",
      "outputs": [
        {
          "name": "",
          "type": "bool"
        }
      ],
      "payable": false,
      "stateMutability": "view",
      "type": "function"
    },
    {
      "constant": true,
      "inputs": [],
      "name": "dAppLocker",
      "outputs": [
        {
          "name": "",
          "type": "address"
        }
      ],
      "payable": false,
      "stateMutability": "view",
      "type": "function"
    },
    {
      "constant": false,
      "inputs": [],
      "name": "unpause",
      "outputs": [],
      "payable": false,
      "stateMutability": "nonpayable",
      "type": "function"
    },
    {
      "constant": true,
      "inputs": [
        {
          "name": "caller",
          "type": "address"
        }
      ],
      "name": "checkIsAuthToGoverned",
      "outputs": [
        {
          "name": "",
          "type": "bool"
        }
      ],
      "payable": false,
      "stateMutability": "view",
      "type": "function"
    },
    {
      "constant": false,
      "inputs": [
        {
          "name": "newGov",
          "type": "address"
        }
      ],
      "name": "enrollGovernance",
      "outputs": [],
      "payable": false,
      "stateMutability": "nonpayable",
      "type": "function"
    },
    {
      "constant": false,
      "inputs": [
        {
          "name": "",
          "type": "uint256"
        }
      ],
      "name": "updatePauseTime",
      "outputs": [],
      "payable": false,
      "stateMutability": "nonpayable",
      "type": "function"
    },
    {
      "constant": false,
      "inputs": [],
      "name": "pause",
      "outputs": [],
      "payable": false,
      "stateMutability": "nonpayable",
      "type": "function"
    },
    {
      "constant": true,
      "inputs": [],
      "name": "owner",
      "outputs": [
        {
          "name": "",
          "type": "address"
        }
      ],
      "payable": false,
      "stateMutability": "view",
      "type": "function"
    },
    {
      "constant": false,
      "inputs": [
        {
          "name": "",
          "type": "bytes32"
        }
      ],
      "name": "delegateCallBack",
      "outputs": [],
      "payable": false,
      "stateMutability": "nonpayable",
      "type": "function"
    },
    {
      "constant": true,
      "inputs": [
        {
          "name": "caller",
          "type": "address"
        }
      ],
      "name": "isInternal",
      "outputs": [
        {
          "name": "",
          "type": "bool"
        }
      ],
      "payable": false,
      "stateMutability": "view",
      "type": "function"
    },
    {
      "constant": true,
      "inputs": [],
      "name": "tokenAddress",
      "outputs": [
        {
          "name": "",
          "type": "address"
        }
      ],
      "payable": false,
      "stateMutability": "view",
      "type": "function"
    },
    {
      "constant": true,
      "inputs": [
        {
          "name": "caller",
          "type": "address"
        }
      ],
      "name": "isMember",
      "outputs": [
        {
          "name": "",
          "type": "bool"
        }
      ],
      "payable": false,
      "stateMutability": "view",
      "type": "function"
    },
    {
      "constant": false,
      "inputs": [
        {
          "name": "contractName",
          "type": "bytes2"
        },
        {
          "name": "contractAddress",
          "type": "address"
        }
      ],
      "name": "setLatestAddress",
      "outputs": [],
      "payable": false,
      "stateMutability": "nonpayable",
      "type": "function"
    },
    {
      "constant": false,
      "inputs": [
        {
          "name": "newInternal",
          "type": "address"
        }
      ],
      "name": "enrollInternal",
      "outputs": [],
      "payable": false,
      "stateMutability": "nonpayable",
      "type": "function"
    },
    {
      "constant": true,
      "inputs": [],
      "name": "masterInitialized",
      "outputs": [
        {
          "name": "",
          "type": "bool"
        }
      ],
      "payable": false,
      "stateMutability": "view",
      "type": "function"
    },
    {
      "constant": false,
      "inputs": [
        {
          "name": "newMember",
          "type": "address"
        },
        {
          "name": "role",
          "type": "uint8"
        }
      ],
      "name": "enrollMember",
      "outputs": [],
      "payable": false,
      "stateMutability": "nonpayable",
      "type": "function"
    },
    {
      "constant": true,
      "inputs": [],
      "name": "dAppToken",
      "outputs": [
        {
          "name": "",
          "type": "address"
        }
      ],
      "payable": false,
      "stateMutability": "view",
      "type": "function"
    },
    {
      "constant": true,
      "inputs": [],
      "name": "isPause",
      "outputs": [
        {
          "name": "",
          "type": "bool"
        }
      ],
      "payable": false,
      "stateMutability": "view",
      "type": "function"
    }
  ],
  "bytecode": "0x608060405234801561001057600080fd5b506105f7806100206000396000f3fe608060405234801561001057600080fd5b50600436106101375760003560e01c80638da5cb5b116100b8578063a628316d1161007c578063a628316d146102d8578063b6888bb01461030e578063c15041d514610334578063cf772bdf1461033c578063eaf2c477146101fb578063ff0938a71461036b57610137565b80638da5cb5b1461027c5780638dd7ff9a146102575780638f16c41c146102845780639d76ea58146102aa578063a230c524146102b257610137565b80633f4ba83a116100ff5780633f4ba83a146102035780635834e67a1461020b5780635c55d6ca1461023157806378ddbed4146102575780638456cb591461027457610137565b8063013828581461013c578063015cb3ff1461017f57806326a4e8d2146101995780632f54bf6e146101c15780633a12507f146101fb575b600080fd5b6101636004803603602081101561015257600080fd5b50356001600160f01b031916610373565b604080516001600160a01b039092168252519081900360200190f35b610187610398565b60408051918252519081900360200190f35b6101bf600480360360208110156101af57600080fd5b50356001600160a01b031661039d565b005b6101e7600480360360208110156101d757600080fd5b50356001600160a01b03166103c5565b604080519115158252519081900360200190f35b6101636103c5565b6101bf610417565b6101e76004803603602081101561022157600080fd5b50356001600160a01b0316610423565b6101bf6004803603602081101561024757600080fd5b50356001600160a01b0316610441565b6101bf6004803603602081101561026d57600080fd5b5035610465565b6101bf6104b5565b610163610398565b6101e76004803603602081101561029a57600080fd5b50356001600160a01b03166104c4565b6101636104e2565b6101e7600480360360208110156102c857600080fd5b50356001600160a01b03166104f6565b6101bf600480360360408110156102ee57600080fd5b5080356001600160f01b03191690602001356001600160a01b0316610529565b6101bf6004803603602081101561032457600080fd5b50356001600160a01b0316610563565b6101e76103c5565b6101bf6004803603604081101561035257600080fd5b5080356001600160a01b0316906020013560ff1661058a565b6101e76105c2565b6001600160f01b0319166000908152600360205260409020546001600160a01b031690565b600090565b600480546001600160a01b0390921661010002610100600160a81b0319909216919091179055565b600060408051600160e51b62461bcd02815260206004820152601a60248201527f556e6578706563746564204d61737465724d6f636b2063616c6c000000000000604482015290519081900360640190fd5b6004805460ff19169055565b6001600160a01b031660009081526002602052604090205460ff1690565b6001600160a01b03166000908152600260205260409020805460ff19166001179055565b60408051600160e51b62461bcd02815260206004820152601a60248201527f556e6578706563746564204d61737465724d6f636b2063616c6c000000000000604482015290519081900360640190fd5b6004805460ff19166001179055565b6001600160a01b031660009081526001602052604090205460ff1690565b60045461010090046001600160a01b031681565b600060016001600160a01b03831660009081526020819052604090205460ff16600381111561052157fe5b101592915050565b6001600160f01b031991909116600090815260036020526040902080546001600160a01b0319166001600160a01b03909216919091179055565b6001600160a01b03166000908152600160208190526040909120805460ff19169091179055565b6001600160a01b0382166000908152602081905260409020805482919060ff191660018360038111156105b957fe5b02179055505050565b60045460ff169056fea165627a7a723058205025811aafc5ad36dc8160f24efb43f0283f9e34b5a6a0d616dcfd470e7a21720029",
  "compiler": {
    "name": "solc",
    "version": "0.5.7+commit.6da8b019.Emscripten.clang",
    "optimizer": {
      "enabled": true,
      "runs": 200
    },
    "evmVersion": "petersburg"
  }
}