{
  "fileName": "MasterAware.sol",
  "contractName": "MasterAware",
  "source": "/*\n    Copyright (C) 2020 NexusMutual.io\n\n    This program is free software: you can redistribute it and/or modify\n    it under the terms of the GNU General Public License as published by\n    the Free Software Foundation, either version 3 of the License, or\n    (at your option) any later version.\n\n    This program is distributed in the hope that it will be useful,\n    but WITHOUT ANY WARRANTY; without even the implied warranty of\n    MERCHANTABILITY or FITNESS FOR A PARTICULAR PURPOSE.  See the\n    GNU General Public License for more details.\n\n    You should have received a copy of the GNU General Public License\n    along with this program.  If not, see http://www.gnu.org/licenses/\n*/\n\npragma solidity ^0.5.0;\n\nimport \"./INXMMaster.sol\";\n\ncontract MasterAware {\n\n  INXMMaster public master;\n\n  modifier onlyMember {\n    require(master.isMember(msg.sender), \"Caller is not a member\");\n    _;\n  }\n\n  modifier onlyInternal {\n    require(master.isInternal(msg.sender), \"Caller is not an internal contract\");\n    _;\n  }\n\n  modifier onlyMaster {\n    if (address(master) != address(0)) {\n      require(address(master) == msg.sender, \"Not master\");\n    }\n    _;\n  }\n\n  modifier onlyGovernance {\n    require(\n      master.checkIsAuthToGoverned(msg.sender),\n      \"Caller is not authorized to govern\"\n    );\n    _;\n  }\n\n  modifier whenPaused {\n    require(master.isPause(), \"System is not paused\");\n    _;\n  }\n\n  modifier whenNotPaused {\n    require(!master.isPause(), \"System is paused\");\n    _;\n  }\n\n  function changeMasterAddress(address masterAddress) public onlyMaster {\n    master = INXMMaster(masterAddress);\n  }\n}\n",
  "sourcePath": "contracts/abstract/MasterAware.sol",
  "abi": [
    {
      "constant": false,
      "inputs": [
        {
          "name": "masterAddress",
          "type": "address"
        }
      ],
      "name": "changeMasterAddress",
      "outputs": [],
      "payable": false,
      "stateMutability": "nonpayable",
      "type": "function"
    },
    {
      "constant": true,
      "inputs": [],
      "name": "master",
      "outputs": [
        {
          "name": "",
          "type": "address"
        }
      ],
      "payable": false,
      "stateMutability": "view",
      "type": "function"
    }
  ],
  "bytecode": "0x608060405234801561001057600080fd5b50610147806100206000396000f3fe608060405234801561001057600080fd5b50600436106100365760003560e01c8063d46655f41461003b578063ee97f7f314610063575b600080fd5b6100616004803603602081101561005157600080fd5b50356001600160a01b0316610087565b005b61006b61010c565b604080516001600160a01b039092168252519081900360200190f35b6000546001600160a01b0316156100ea576000546001600160a01b031633146100ea5760408051600160e51b62461bcd02815260206004820152600a6024820152600160b11b692737ba1036b0b9ba32b902604482015290519081900360640190fd5b600080546001600160a01b0319166001600160a01b0392909216919091179055565b6000546001600160a01b03168156fea165627a7a72305820482dc050cebeff162fc8cd975a371db796ac619e21767b75af912a60164752640029",
  "compiler": {
    "name": "solc",
    "version": "0.5.7+commit.6da8b019.Emscripten.clang",
    "optimizer": {
      "enabled": true,
      "runs": 200
    },
    "evmVersion": "petersburg"
  }
}