{
  "fileName": "MCR.sol",
  "contractName": "MCR",
  "source": "/* Copyright (C) 2020 NexusMutual.io\n\n  This program is free software: you can redistribute it and/or modify\n    it under the terms of the GNU General Public License as published by\n    the Free Software Foundation, either version 3 of the License, or\n    (at your option) any later version.\n\n  This program is distributed in the hope that it will be useful,\n    but WITHOUT ANY WARRANTY; without even the implied warranty of\n    MERCHANTABILITY or FITNESS FOR A PARTICULAR PURPOSE.  See the\n    GNU General Public License for more details.\n\n  You should have received a copy of the GNU General Public License\n    along with this program.  If not, see http://www.gnu.org/licenses/ */\n\npragma solidity ^0.5.0;\n\nimport \"@openzeppelin/contracts/math/SafeMath.sol\";\nimport \"@openzeppelin/contracts/token/ERC20/IERC20.sol\";\nimport \"../capital/Pool1.sol\";\nimport \"../cover/QuotationData.sol\";\nimport \"../governance/MemberRoles.sol\";\nimport \"../governance/ProposalCategory.sol\";\nimport \"../token/NXMToken.sol\";\nimport \"../token/TokenData.sol\";\nimport \"./PoolData.sol\";\n\ncontract MCR is Iupgradable {\n  using SafeMath for uint;\n\n  Pool1 internal p1;\n  PoolData internal pd;\n  NXMToken internal tk;\n  QuotationData internal qd;\n  MemberRoles internal mr;\n  TokenData internal td;\n  ProposalCategory internal proposalCategory;\n\n  uint private constant DECIMAL1E18 = uint(10) ** 18;\n  uint private constant DECIMAL1E05 = uint(10) ** 5;\n  uint private constant DECIMAL1E19 = uint(10) ** 19;\n  uint private constant minCapFactor = uint(10) ** 21;\n\n  uint public variableMincap;\n  uint public dynamicMincapThresholdx100 = 13000;\n  uint public dynamicMincapIncrementx100 = 100;\n\n  event MCREvent(\n    uint indexed date,\n    uint blockNumber,\n    bytes4[] allCurr,\n    uint[] allCurrRates,\n    uint mcrEtherx100,\n    uint mcrPercx100,\n    uint vFull\n  );\n\n  /**\n   * @dev Adds new MCR data.\n   * @param mcrP  Minimum Capital Requirement in percentage.\n   * @param vF Pool1 fund value in Ether used in the last full daily calculation of the Capital model.\n   * @param onlyDate  Date(yyyymmdd) at which MCR details are getting added.\n   */\n  function addMCRData(\n    uint mcrP,\n    uint mcrE,\n    uint vF,\n    bytes4[] calldata curr,\n    uint[] calldata _threeDayAvg,\n    uint64 onlyDate\n  )\n  external\n  checkPause\n  {\n    require(proposalCategory.constructorCheck());\n    require(pd.isnotarise(msg.sender));\n    if (mr.launched() && pd.capReached() != 1) {\n\n      if (mcrP >= 10000)\n        pd.setCapReached(1);\n\n    }\n    uint len = pd.getMCRDataLength();\n    _addMCRData(len, onlyDate, curr, mcrE, mcrP, vF, _threeDayAvg);\n  }\n\n  /**\n   * @dev Adds MCR Data for last failed attempt.\n   */\n  function addLastMCRData(uint64 date) external checkPause onlyInternal {\n    uint64 lastdate = uint64(pd.getLastMCRDate());\n    uint64 failedDate = uint64(date);\n    if (failedDate >= lastdate) {\n      uint mcrP;\n      uint mcrE;\n      uint vF;\n      (mcrP, mcrE, vF,) = pd.getLastMCR();\n      uint len = pd.getAllCurrenciesLen();\n      pd.pushMCRData(mcrP, mcrE, vF, date);\n      for (uint j = 0; j < len; j++) {\n        bytes4 currName = pd.getCurrenciesByIndex(j);\n        pd.updateCAAvgRate(currName, pd.getCAAvgRate(currName));\n      }\n\n      emit MCREvent(date, block.number, new bytes4[](0), new uint[](0), mcrE, mcrP, vF);\n      // Oraclize call for next MCR calculation\n      _callOracliseForMCR();\n    }\n  }\n\n  /**\n   * @dev Iupgradable Interface to update dependent contract address\n   */\n  function changeDependentContractAddress() public onlyInternal {\n    qd = QuotationData(ms.getLatestAddress(\"QD\"));\n    p1 = Pool1(ms.getLatestAddress(\"P1\"));\n    pd = PoolData(ms.getLatestAddress(\"PD\"));\n    tk = NXMToken(ms.tokenAddress());\n    mr = MemberRoles(ms.getLatestAddress(\"MR\"));\n    td = TokenData(ms.getLatestAddress(\"TD\"));\n    proposalCategory = ProposalCategory(ms.getLatestAddress(\"PC\"));\n  }\n\n  /**\n   * @dev Gets total sum assured(in ETH).\n   * @return amount of sum assured\n   */\n  function getAllSumAssurance() public view returns (uint amount) {\n    uint len = pd.getAllCurrenciesLen();\n    for (uint i = 0; i < len; i++) {\n      bytes4 currName = pd.getCurrenciesByIndex(i);\n      if (currName == \"ETH\") {\n        amount = amount.add(qd.getTotalSumAssured(currName));\n      } else {\n        if (pd.getCAAvgRate(currName) > 0)\n          amount = amount.add((qd.getTotalSumAssured(currName).mul(100)).div(pd.getCAAvgRate(currName)));\n      }\n    }\n  }\n\n  /**\n   * @dev Calculates V(Tp) and MCR%(Tp), i.e, Pool Fund Value in Ether\n   * and MCR% used in the Token Price Calculation.\n   * @return vtp  Pool Fund Value in Ether used for the Token Price Model\n   * @return mcrtp MCR% used in the Token Price Model.\n   */\n  function _calVtpAndMCRtp(uint poolBalance) public view returns (uint vtp, uint mcrtp) {\n    vtp = 0;\n    IERC20 erc20;\n    uint currTokens = 0;\n    uint i;\n    for (i = 1; i < pd.getAllCurrenciesLen(); i++) {\n      bytes4 currency = pd.getCurrenciesByIndex(i);\n      erc20 = IERC20(pd.getCurrencyAssetAddress(currency));\n      currTokens = erc20.balanceOf(address(p1));\n      if (pd.getCAAvgRate(currency) > 0)\n        vtp = vtp.add((currTokens.mul(100)).div(pd.getCAAvgRate(currency)));\n    }\n\n    vtp = vtp.add(poolBalance).add(p1.getInvestmentAssetBalance());\n    uint mcrFullperc;\n    uint vFull;\n    (mcrFullperc, , vFull,) = pd.getLastMCR();\n    if (vFull > 0) {\n      mcrtp = (mcrFullperc.mul(vtp)).div(vFull);\n    }\n  }\n\n  /**\n   * @dev Calculates the Token Price of NXM in a given currency.\n   * @param curr Currency name.\n\n   */\n  function calculateStepTokenPrice(\n    bytes4 curr,\n    uint mcrtp\n  )\n  public\n  view\n  onlyInternal\n  returns (uint tokenPrice)\n  {\n    return _calculateTokenPrice(curr, mcrtp);\n  }\n\n  /**\n   * @dev Calculates the Token Price of NXM in a given currency\n   * with provided token supply for dynamic token price calculation\n   * @param curr Currency name.\n   */\n  function calculateTokenPrice(bytes4 curr) public view returns (uint tokenPrice) {\n    uint mcrtp;\n    (, mcrtp) = _calVtpAndMCRtp(address(p1).balance);\n    return _calculateTokenPrice(curr, mcrtp);\n  }\n\n  function calVtpAndMCRtp() public view returns (uint vtp, uint mcrtp) {\n    return _calVtpAndMCRtp(address(p1).balance);\n  }\n\n  function calculateVtpAndMCRtp(uint poolBalance) public view returns (uint vtp, uint mcrtp) {\n    return _calVtpAndMCRtp(poolBalance);\n  }\n\n  function getThresholdValues(uint vtp, uint vF, uint totalSA, uint minCap) public view returns (uint lowerThreshold, uint upperThreshold)\n  {\n    minCap = (minCap.mul(minCapFactor)).add(variableMincap);\n    uint lower = 0;\n    if (vtp >= vF) {\n      // Max Threshold = [MAX(Vtp, Vfull) x 120] / mcrMinCap\n      upperThreshold = vtp.mul(120).mul(100).div((minCap));\n    } else {\n      upperThreshold = vF.mul(120).mul(100).div((minCap));\n    }\n\n    if (vtp > 0) {\n      lower = totalSA.mul(DECIMAL1E18).mul(pd.shockParameter()).div(100);\n      if (lower < minCap.mul(11).div(10))\n        lower = minCap.mul(11).div(10);\n    }\n    if (lower > 0) {\n      // Min Threshold = [Vtp / MAX(TotalActiveSA x ShockParameter, mcrMinCap x 1.1)] x 100\n      lowerThreshold = vtp.mul(100).mul(100).div(lower);\n    }\n  }\n\n  /**\n   * @dev Gets max numbers of tokens that can be sold at the moment.\n   */\n  function getMaxSellTokens() public view returns (uint maxTokens) {\n    uint baseMin = pd.getCurrencyAssetBaseMin(\"ETH\");\n    uint maxTokensAccPoolBal;\n    if (address(p1).balance > baseMin.mul(50).div(100)) {\n      maxTokensAccPoolBal = address(p1).balance.sub(\n        (baseMin.mul(50)).div(100));\n    }\n    maxTokensAccPoolBal = (maxTokensAccPoolBal.mul(DECIMAL1E18)).div(\n      (calculateTokenPrice(\"ETH\").mul(975)).div(1000));\n    uint lastMCRPerc = pd.getLastMCRPerc();\n    if (lastMCRPerc > 10000)\n      maxTokens = (((uint(lastMCRPerc).sub(10000)).mul(2000)).mul(DECIMAL1E18)).div(10000);\n    if (maxTokens > maxTokensAccPoolBal)\n      maxTokens = maxTokensAccPoolBal;\n  }\n\n  /**\n   * @dev Gets Uint Parameters of a code\n   * @param code whose details we want\n   * @return string value of the code\n   * @return associated amount (time or perc or value) to the code\n   */\n  function getUintParameters(bytes8 code) external view returns (bytes8 codeVal, uint val) {\n    codeVal = code;\n    if (code == \"DMCT\") {\n      val = dynamicMincapThresholdx100;\n\n    } else if (code == \"DMCI\") {\n\n      val = dynamicMincapIncrementx100;\n\n    }\n\n  }\n\n  /**\n   * @dev Updates Uint Parameters of a code\n   * @param code whose details we want to update\n   * @param val value to set\n   */\n  function updateUintParameters(bytes8 code, uint val) public {\n    require(ms.checkIsAuthToGoverned(msg.sender));\n    if (code == \"DMCT\") {\n      dynamicMincapThresholdx100 = val;\n\n    } else if (code == \"DMCI\") {\n\n      dynamicMincapIncrementx100 = val;\n\n    }\n    else {\n      revert(\"Invalid param code\");\n    }\n\n  }\n\n  /**\n   * @dev Calls oraclize query to calculate MCR details after 24 hours.\n   */\n  function _callOracliseForMCR() internal {\n    p1.mcrOraclise(pd.mcrTime());\n  }\n\n  /**\n   * @dev Calculates the Token Price of NXM in a given currency\n   * with provided token supply for dynamic token price calculation\n   * @param _curr Currency name.\n   * @return tokenPrice Token price.\n   */\n  function _calculateTokenPrice(\n    bytes4 _curr,\n    uint mcrtp\n  )\n  internal\n  view\n  returns (uint tokenPrice)\n  {\n    uint getA;\n    uint getC;\n    uint getCAAvgRate;\n    uint tokenExponentValue = td.tokenExponent();\n    // uint max = (mcrtp.mul(mcrtp).mul(mcrtp).mul(mcrtp));\n    uint max = mcrtp ** tokenExponentValue;\n    uint dividingFactor = tokenExponentValue.mul(4);\n    (getA, getC, getCAAvgRate) = pd.getTokenPriceDetails(_curr);\n    uint mcrEth = pd.getLastMCREther();\n    getC = getC.mul(DECIMAL1E18);\n    tokenPrice = (mcrEth.mul(DECIMAL1E18).mul(max).div(getC)).div(10 ** dividingFactor);\n    tokenPrice = tokenPrice.add(getA.mul(DECIMAL1E18).div(DECIMAL1E05));\n    tokenPrice = tokenPrice.mul(getCAAvgRate * 10);\n    tokenPrice = (tokenPrice).div(10 ** 3);\n  }\n\n  /**\n   * @dev Adds MCR Data. Checks if MCR is within valid\n   * thresholds in order to rule out any incorrect calculations\n   */\n  function _addMCRData(\n    uint len,\n    uint64 newMCRDate,\n    bytes4[] memory curr,\n    uint mcrE,\n    uint mcrP,\n    uint vF,\n    uint[] memory _threeDayAvg\n  )\n  internal\n  {\n    uint vtp = 0;\n    uint lowerThreshold = 0;\n    uint upperThreshold = 0;\n    if (len > 1) {\n      (vtp,) = _calVtpAndMCRtp(address(p1).balance);\n      (lowerThreshold, upperThreshold) = getThresholdValues(vtp, vF, getAllSumAssurance(), pd.minCap());\n\n    }\n    if (mcrP > dynamicMincapThresholdx100)\n      variableMincap = (variableMincap.mul(dynamicMincapIncrementx100.add(10000)).add(minCapFactor.mul(pd.minCap().mul(dynamicMincapIncrementx100)))).div(10000);\n\n\n    // Explanation for above formula :-\n    // actual formula -> variableMinCap =  variableMinCap + (variableMinCap+minCap)*dynamicMincapIncrement/100\n    // Implemented formula is simplified form of actual formula.\n    // Let consider above formula as b = b + (a+b)*c/100\n    // here, dynamicMincapIncrement is in x100 format.\n    // so b+(a+b)*cx100/10000 can be written as => (10000.b + b.cx100 + a.cx100)/10000.\n    // It can further simplify to (b.(10000+cx100) + a.cx100)/10000.\n    if (len == 1 || (mcrP) >= lowerThreshold\n    && (mcrP) <= upperThreshold) {\n      // due to stack to deep error,we are reusing already declared variable\n      vtp = pd.getLastMCRDate();\n      pd.pushMCRData(mcrP, mcrE, vF, newMCRDate);\n      for (uint i = 0; i < curr.length; i++) {\n        pd.updateCAAvgRate(curr[i], _threeDayAvg[i]);\n      }\n      emit MCREvent(newMCRDate, block.number, curr, _threeDayAvg, mcrE, mcrP, vF);\n      // Oraclize call for next MCR calculation\n      if (vtp < newMCRDate) {\n        _callOracliseForMCR();\n      }\n    } else {\n      p1.mcrOracliseFail(newMCRDate, pd.mcrFailTime());\n    }\n  }\n\n}\n",
  "sourcePath": "contracts/modules/capital/MCR.sol",
  "abi": [
    {
      "constant": false,
      "inputs": [],
      "name": "changeDependentContractAddress",
      "outputs": [],
      "payable": false,
      "stateMutability": "nonpayable",
      "type": "function"
    },
    {
      "constant": true,
      "inputs": [
        {
          "name": "vtp",
          "type": "uint256"
        },
        {
          "name": "vF",
          "type": "uint256"
        },
        {
          "name": "totalSA",
          "type": "uint256"
        },
        {
          "name": "minCap",
          "type": "uint256"
        }
      ],
      "name": "getThresholdValues",
      "outputs": [
        {
          "name": "lowerThreshold",
          "type": "uint256"
        },
        {
          "name": "upperThreshold",
          "type": "uint256"
        }
      ],
      "payable": false,
      "stateMutability": "view",
      "type": "function"
    },
    {
      "constant": true,
      "inputs": [],
      "name": "getMaxSellTokens",
      "outputs": [
        {
          "name": "maxTokens",
          "type": "uint256"
        }
      ],
      "payable": false,
      "stateMutability": "view",
      "type": "function"
    },
    {
      "constant": true,
      "inputs": [
        {
          "name": "curr",
          "type": "bytes4"
        }
      ],
      "name": "calculateTokenPrice",
      "outputs": [
        {
          "name": "tokenPrice",
          "type": "uint256"
        }
      ],
      "payable": false,
      "stateMutability": "view",
      "type": "function"
    },
    {
      "constant": true,
      "inputs": [
        {
          "name": "poolBalance",
          "type": "uint256"
        }
      ],
      "name": "_calVtpAndMCRtp",
      "outputs": [
        {
          "name": "vtp",
          "type": "uint256"
        },
        {
          "name": "mcrtp",
          "type": "uint256"
        }
      ],
      "payable": false,
      "stateMutability": "view",
      "type": "function"
    },
    {
      "constant": true,
      "inputs": [
        {
          "name": "code",
          "type": "bytes8"
        }
      ],
      "name": "getUintParameters",
      "outputs": [
        {
          "name": "codeVal",
          "type": "bytes8"
        },
        {
          "name": "val",
          "type": "uint256"
        }
      ],
      "payable": false,
      "stateMutability": "view",
      "type": "function"
    },
    {
      "constant": true,
      "inputs": [
        {
          "name": "curr",
          "type": "bytes4"
        },
        {
          "name": "mcrtp",
          "type": "uint256"
        }
      ],
      "name": "calculateStepTokenPrice",
      "outputs": [
        {
          "name": "tokenPrice",
          "type": "uint256"
        }
      ],
      "payable": false,
      "stateMutability": "view",
      "type": "function"
    },
    {
      "constant": true,
      "inputs": [],
      "name": "dynamicMincapIncrementx100",
      "outputs": [
        {
          "name": "",
          "type": "uint256"
        }
      ],
      "payable": false,
      "stateMutability": "view",
      "type": "function"
    },
    {
      "constant": false,
      "inputs": [
        {
          "name": "date",
          "type": "uint64"
        }
      ],
      "name": "addLastMCRData",
      "outputs": [],
      "payable": false,
      "stateMutability": "nonpayable",
      "type": "function"
    },
    {
      "constant": false,
      "inputs": [
        {
          "name": "mcrP",
          "type": "uint256"
        },
        {
          "name": "mcrE",
          "type": "uint256"
        },
        {
          "name": "vF",
          "type": "uint256"
        },
        {
          "name": "curr",
          "type": "bytes4[]"
        },
        {
          "name": "_threeDayAvg",
          "type": "uint256[]"
        },
        {
          "name": "onlyDate",
          "type": "uint64"
        }
      ],
      "name": "addMCRData",
      "outputs": [],
      "payable": false,
      "stateMutability": "nonpayable",
      "type": "function"
    },
    {
      "constant": true,
      "inputs": [
        {
          "name": "poolBalance",
          "type": "uint256"
        }
      ],
      "name": "calculateVtpAndMCRtp",
      "outputs": [
        {
          "name": "vtp",
          "type": "uint256"
        },
        {
          "name": "mcrtp",
          "type": "uint256"
        }
      ],
      "payable": false,
      "stateMutability": "view",
      "type": "function"
    },
    {
      "constant": false,
      "inputs": [
        {
          "name": "code",
          "type": "bytes8"
        },
        {
          "name": "val",
          "type": "uint256"
        }
      ],
      "name": "updateUintParameters",
      "outputs": [],
      "payable": false,
      "stateMutability": "nonpayable",
      "type": "function"
    },
    {
      "constant": true,
      "inputs": [],
      "name": "dynamicMincapThresholdx100",
      "outputs": [
        {
          "name": "",
          "type": "uint256"
        }
      ],
      "payable": false,
      "stateMutability": "view",
      "type": "function"
    },
    {
      "constant": true,
      "inputs": [],
      "name": "ms",
      "outputs": [
        {
          "name": "",
          "type": "address"
        }
      ],
      "payable": false,
      "stateMutability": "view",
      "type": "function"
    },
    {
      "constant": true,
      "inputs": [],
      "name": "getAllSumAssurance",
      "outputs": [
        {
          "name": "amount",
          "type": "uint256"
        }
      ],
      "payable": false,
      "stateMutability": "view",
      "type": "function"
    },
    {
      "constant": false,
      "inputs": [
        {
          "name": "_masterAddress",
          "type": "address"
        }
      ],
      "name": "changeMasterAddress",
      "outputs": [],
      "payable": false,
      "stateMutability": "nonpayable",
      "type": "function"
    },
    {
      "constant": true,
      "inputs": [],
      "name": "calVtpAndMCRtp",
      "outputs": [
        {
          "name": "vtp",
          "type": "uint256"
        },
        {
          "name": "mcrtp",
          "type": "uint256"
        }
      ],
      "payable": false,
      "stateMutability": "view",
      "type": "function"
    },
    {
      "constant": true,
      "inputs": [],
      "name": "nxMasterAddress",
      "outputs": [
        {
          "name": "",
          "type": "address"
        }
      ],
      "payable": false,
      "stateMutability": "view",
      "type": "function"
    },
    {
      "constant": true,
      "inputs": [],
      "name": "variableMincap",
      "outputs": [
        {
          "name": "",
          "type": "uint256"
        }
      ],
      "payable": false,
      "stateMutability": "view",
      "type": "function"
    },
    {
      "anonymous": false,
      "inputs": [
        {
          "indexed": true,
          "name": "date",
          "type": "uint256"
        },
        {
          "indexed": false,
          "name": "blockNumber",
          "type": "uint256"
        },
        {
          "indexed": false,
          "name": "allCurr",
          "type": "bytes4[]"
        },
        {
          "indexed": false,
          "name": "allCurrRates",
          "type": "uint256[]"
        },
        {
          "indexed": false,
          "name": "mcrEtherx100",
          "type": "uint256"
        },
        {
          "indexed": false,
          "name": "mcrPercx100",
          "type": "uint256"
        },
        {
          "indexed": false,
          "name": "vFull",
          "type": "uint256"
        }
      ],
      "name": "MCREvent",
      "type": "event"
    }
  ],
  "bytecode": "0x60806040526132c8600a556064600b5534801561001b57600080fd5b50612c2f8061002b6000396000f3fe608060405234801561001057600080fd5b50600436106101215760003560e01c80639671683b116100ad578063b345248711610071578063b3452487146103d2578063d46655f4146103da578063d9ed1a7a14610400578063f17a3bec14610408578063f8a556741461041057610121565b80639671683b1461027d5780639af1f71f1461035c5780639dd86e0f146103795780639f3cd4ee146103a6578063a0b2d57f146103ae57610121565b8063456ee431116100f4578063456ee431146101b95780636122f840146101d65780636837a51f146102215780636bd482e91461024e57806380f342751461025657610121565b80630ea9c984146101265780632fb47b201461013057806336b7abd0146101785780633cb23b2d14610192575b600080fd5b61012e610418565b005b61015f6004803603608081101561014657600080fd5b50803590602081013590604081013590606001356108ae565b6040805192835260208301919091528051918290030190f35b610180610a44565b60408051918252519081900360200190f35b610180600480360360208110156101a857600080fd5b50356001600160e01b031916610c2c565b61015f600480360360208110156101cf57600080fd5b5035610c5c565b6101fd600480360360208110156101ec57600080fd5b50356001600160c01b0319166110e3565b604080516001600160c01b0319909316835260208301919091528051918290030190f35b6101806004803603604081101561023757600080fd5b506001600160e01b03198135169060200135611131565b6101806111c8565b61012e6004803603602081101561026c57600080fd5b503567ffffffffffffffff166111ce565b61012e600480360360c081101561029357600080fd5b813591602081013591604082013591908101906080810160608201356401000000008111156102c157600080fd5b8201836020820111156102d357600080fd5b803590602001918460208302840111640100000000831117156102f557600080fd5b91939092909160208101903564010000000081111561031357600080fd5b82018360208201111561032557600080fd5b8035906020019184602083028401116401000000008311171561034757600080fd5b91935091503567ffffffffffffffff166117a0565b61015f6004803603602081101561037257600080fd5b5035611ba6565b61012e6004803603604081101561038f57600080fd5b506001600160c01b03198135169060200135611bbb565b610180611cde565b6103b6611ce4565b604080516001600160a01b039092168252519081900360200190f35b610180611cf3565b61012e600480360360208110156103f057600080fd5b50356001600160a01b0316612079565b61015f612108565b6103b661212b565b61018061213a565b60005460408051600160e21b6323c5b10702815233600482015290516001600160a01b0390921691638f16c41c91602480820192602092909190829003018186803b15801561046657600080fd5b505afa15801561047a573d6000803e3d6000fd5b505050506040513d602081101561049057600080fd5b505161049b57600080fd5b60005460408051600160e31b6227050b028152600160f21b61145102600482015290516001600160a01b0390921691630138285891602480820192602092909190829003018186803b1580156104f057600080fd5b505afa158015610504573d6000803e3d6000fd5b505050506040513d602081101561051a57600080fd5b5051600580546001600160a01b0319166001600160a01b0392831617905560005460408051600160e31b6227050b028152600160f01b615031026004820152905191909216916301382858916024808301926020929190829003018186803b15801561058557600080fd5b505afa158015610599573d6000803e3d6000fd5b505050506040513d60208110156105af57600080fd5b5051600280546001600160a01b0319166001600160a01b0392831617905560005460408051600160e31b6227050b028152600160f21b611411026004820152905191909216916301382858916024808301926020929190829003018186803b15801561061a57600080fd5b505afa15801561062e573d6000803e3d6000fd5b505050506040513d602081101561064457600080fd5b5051600380546001600160a01b0319166001600160a01b0392831617905560005460408051600160e31b6313aedd4b02815290519190921691639d76ea58916004808301926020929190829003018186803b1580156106a257600080fd5b505afa1580156106b6573d6000803e3d6000fd5b505050506040513d60208110156106cc57600080fd5b5051600480546001600160a01b0319166001600160a01b0392831617815560005460408051600160e31b6227050b028152600160f11b6126a9029381019390935251921691630138285891602480820192602092909190829003018186803b15801561073757600080fd5b505afa15801561074b573d6000803e3d6000fd5b505050506040513d602081101561076157600080fd5b5051600680546001600160a01b0319166001600160a01b0392831617905560005460408051600160e31b6227050b028152600160f21b611511026004820152905191909216916301382858916024808301926020929190829003018186803b1580156107cc57600080fd5b505afa1580156107e0573d6000803e3d6000fd5b505050506040513d60208110156107f657600080fd5b5051600780546001600160a01b0319166001600160a01b0392831617905560005460408051600160e31b6227050b028152600160f01b615043026004820152905191909216916301382858916024808301926020929190829003018186803b15801561086157600080fd5b505afa158015610875573d6000803e3d6000fd5b505050506040513d602081101561088b57600080fd5b5051600880546001600160a01b0319166001600160a01b03909216919091179055565b60095460009081906108df906108d385683635c9adc5dea0000063ffffffff61214016565b9063ffffffff61219c16565b925060008587106109235761091c8461091060646109048b607863ffffffff61214016565b9063ffffffff61214016565b9063ffffffff6121f916565b9150610940565b61093d8461091060646109048a607863ffffffff61214016565b91505b8615610a18576109e06064610910600360009054906101000a90046001600160a01b03166001600160a01b031663d3fdadf76040518163ffffffff1660e01b815260040160206040518083038186803b15801561099c57600080fd5b505afa1580156109b0573d6000803e3d6000fd5b505050506040513d60208110156109c657600080fd5b505161090489670de0b6b3a764000063ffffffff61214016565b90506109f8600a61091086600b63ffffffff61214016565b811015610a1857610a15600a61091086600b63ffffffff61214016565b90505b8015610a3a57610a378161091060646109048b8263ffffffff61214016565b92505b5094509492505050565b60035460408051600160e11b630e2514f5028152600160eb1b6208aa89026004820152905160009283926001600160a01b0390911691631c4a29ea91602480820192602092909190829003018186803b158015610aa057600080fd5b505afa158015610ab4573d6000803e3d6000fd5b505050506040513d6020811015610aca57600080fd5b505190506000610ae6606461091084603263ffffffff61214016565b6002546001600160a01b0316311115610b2e57610b2b610b12606461091085603263ffffffff61214016565b6002546001600160a01b0316319063ffffffff61223b16565b90505b610b67610b4f6103e86109106103cf610904600160eb1b6208aa8902610c2c565b61091083670de0b6b3a764000063ffffffff61214016565b90506000600360009054906101000a90046001600160a01b03166001600160a01b031663818acb826040518163ffffffff1660e01b815260040160206040518083038186803b158015610bb957600080fd5b505afa158015610bcd573d6000803e3d6000fd5b505050506040513d6020811015610be357600080fd5b50519050612710811115610c1a57610c17612710610910670de0b6b3a76400006109046107d081878663ffffffff61223b16565b93505b81841115610c26578193505b50505090565b6002546000908190610c47906001600160a01b031631610c5c565b9150610c559050838261227d565b9392505050565b600080808060015b600360009054906101000a90046001600160a01b03166001600160a01b031663255f50496040518163ffffffff1660e01b815260040160206040518083038186803b158015610cb257600080fd5b505afa158015610cc6573d6000803e3d6000fd5b505050506040513d6020811015610cdc57600080fd5b5051811015610fac5760035460408051600160e41b6303c40b1f0281526004810184905290516000926001600160a01b031691633c40b1f0916024808301926020929190829003018186803b158015610d3457600080fd5b505afa158015610d48573d6000803e3d6000fd5b505050506040513d6020811015610d5e57600080fd5b505160035460408051600160e01b63e3dee2390281526001600160e01b03198416600482015290519293506001600160a01b039091169163e3dee23991602480820192602092909190829003018186803b158015610dbb57600080fd5b505afa158015610dcf573d6000803e3d6000fd5b505050506040513d6020811015610de557600080fd5b505160025460408051600160e01b6370a082310281526001600160a01b0392831660048201529051929650908616916370a0823191602480820192602092909190829003018186803b158015610e3a57600080fd5b505afa158015610e4e573d6000803e3d6000fd5b505050506040513d6020811015610e6457600080fd5b505160035460408051600160e21b63389bfcd30281526001600160e01b03198516600482015290519295506000926001600160a01b039092169163e26ff34c91602480820192602092909190829003018186803b158015610ec457600080fd5b505afa158015610ed8573d6000803e3d6000fd5b505050506040513d6020811015610eee57600080fd5b50511115610fa35760035460408051600160e21b63389bfcd30281526001600160e01b0319841660048201529051610fa092610f93926001600160a01b039091169163e26ff34c91602480820192602092909190829003018186803b158015610f5657600080fd5b505afa158015610f6a573d6000803e3d6000fd5b505050506040513d6020811015610f8057600080fd5b505161091086606463ffffffff61214016565b879063ffffffff61219c16565b95505b50600101610c64565b60025460408051600160e01b6369b0b7370281529051611031926001600160a01b0316916369b0b737916004808301926020929190829003018186803b158015610ff557600080fd5b505afa158015611009573d6000803e3d6000fd5b505050506040513d602081101561101f57600080fd5b50516108d3878963ffffffff61219c16565b9450600080600360009054906101000a90046001600160a01b03166001600160a01b031663c94f740f6040518163ffffffff1660e01b815260040160806040518083038186803b15801561108457600080fd5b505afa158015611098573d6000803e3d6000fd5b505050506040513d60808110156110ae57600080fd5b508051604090910151909250905080156110d9576110d681610910848a63ffffffff61214016565b95505b5050505050915091565b806000600160e21b63111350d5026001600160c01b03198316141561110b5750600a5461112c565b600160e01b63444d4349026001600160c01b03198416141561112c5750600b545b915091565b6000805460408051600160e21b6323c5b10702815233600482015290516001600160a01b0390921691638f16c41c91602480820192602092909190829003018186803b15801561118057600080fd5b505afa158015611194573d6000803e3d6000fd5b505050506040513d60208110156111aa57600080fd5b50516111b557600080fd5b6111bf838361227d565b90505b92915050565b600b5481565b6000809054906101000a90046001600160a01b03166001600160a01b031663ff0938a76040518163ffffffff1660e01b815260040160206040518083038186803b15801561121b57600080fd5b505afa15801561122f573d6000803e3d6000fd5b505050506040513d602081101561124557600080fd5b50511561125157600080fd5b60005460408051600160e21b6323c5b10702815233600482015290516001600160a01b0390921691638f16c41c91602480820192602092909190829003018186803b15801561129f57600080fd5b505afa1580156112b3573d6000803e3d6000fd5b505050506040513d60208110156112c957600080fd5b50516112d457600080fd5b600354604080517fff01023900000000000000000000000000000000000000000000000000000000815290516000926001600160a01b03169163ff010239916004808301926020929190829003018186803b15801561133257600080fd5b505afa158015611346573d6000803e3d6000fd5b505050506040513d602081101561135c57600080fd5b505190508167ffffffffffffffff8083169082161061179b576000806000600360009054906101000a90046001600160a01b03166001600160a01b031663c94f740f6040518163ffffffff1660e01b815260040160806040518083038186803b1580156113c857600080fd5b505afa1580156113dc573d6000803e3d6000fd5b505050506040513d60808110156113f257600080fd5b5080516020808301516040938401516003548551600160e01b63255f5049028152955194985091965094506000936001600160a01b039091169263255f504992600480840193919291829003018186803b15801561144f57600080fd5b505afa158015611463573d6000803e3d6000fd5b505050506040513d602081101561147957600080fd5b505160035460408051600160e01b637106767b02815260048101889052602481018790526044810186905267ffffffffffffffff8b16606482015290519293506001600160a01b0390911691637106767b9160848082019260009290919082900301818387803b1580156114ec57600080fd5b505af1158015611500573d6000803e3d6000fd5b506000925050505b8181101561168a5760035460408051600160e41b6303c40b1f0281526004810184905290516000926001600160a01b031691633c40b1f0916024808301926020929190829003018186803b15801561155f57600080fd5b505afa158015611573573d6000803e3d6000fd5b505050506040513d602081101561158957600080fd5b505160035460408051600160e21b63389bfcd30281526001600160e01b03198416600482015290519293506001600160a01b039091169163ade6a303918491849163e26ff34c916024808301926020929190829003018186803b1580156115ef57600080fd5b505afa158015611603573d6000803e3d6000fd5b505050506040513d602081101561161957600080fd5b50516040805163ffffffff851660e01b81526001600160e01b03199093166004840152602483019190915251604480830192600092919082900301818387803b15801561166557600080fd5b505af1158015611679573d6000803e3d6000fd5b505060019093019250611508915050565b506040805160008082526020808301828152838501948590524380865260a0850189905260c08086018b905260e08601899052606086019081528551610100870181905267ffffffffffffffff8f16977fe4d7c0f9c1462bca57d9d1c2ec3a19d83c4781ceaf9a37a0f15dc55a6b43de4d97939693958c948e948d94909260808a01926101208b01928a9202908190849084905b8381101561173657818101518382015260200161171e565b50505050905001838103825287818151815260200191508051906020019060200280838360005b8381101561177557818101518382015260200161175d565b505050509050019850505050505050505060405180910390a26117966124cf565b505050505b505050565b6000809054906101000a90046001600160a01b03166001600160a01b031663ff0938a76040518163ffffffff1660e01b815260040160206040518083038186803b1580156117ed57600080fd5b505afa158015611801573d6000803e3d6000fd5b505050506040513d602081101561181757600080fd5b50511561182357600080fd5b600860009054906101000a90046001600160a01b03166001600160a01b031663525050e16040518163ffffffff1660e01b815260040160206040518083038186803b15801561187157600080fd5b505afa158015611885573d6000803e3d6000fd5b505050506040513d602081101561189b57600080fd5b50516118a657600080fd5b60035460408051600160e01b6362ae372102815233600482015290516001600160a01b03909216916362ae372191602480820192602092909190829003018186803b1580156118f457600080fd5b505afa158015611908573d6000803e3d6000fd5b505050506040513d602081101561191e57600080fd5b505161192957600080fd5b600660009054906101000a90046001600160a01b03166001600160a01b0316638091f3bf6040518163ffffffff1660e01b815260040160206040518083038186803b15801561197757600080fd5b505afa15801561198b573d6000803e3d6000fd5b505050506040513d60208110156119a157600080fd5b50518015611a295750600360009054906101000a90046001600160a01b03166001600160a01b0316634f9359456040518163ffffffff1660e01b815260040160206040518083038186803b1580156119f857600080fd5b505afa158015611a0c573d6000803e3d6000fd5b505050506040513d6020811015611a2257600080fd5b5051600114155b15611aa0576127108810611aa05760035460408051600160e21b6338f2b2e70281526001600482015290516001600160a01b039092169163e3cacb9c9160248082019260009290919082900301818387803b158015611a8757600080fd5b505af1158015611a9b573d6000803e3d6000fd5b505050505b60035460408051600160e21b6328ba4aab02815290516000926001600160a01b03169163a2e92aac916004808301926020929190829003018186803b158015611ae857600080fd5b505afa158015611afc573d6000803e3d6000fd5b505050506040513d6020811015611b1257600080fd5b50516040805160208881028281018201909352888252929350611b9b9284928692918b918b91829190850190849080828437600081840152601f19601f820116905080830192505050505050508b8d8c8a8a8080602002602001604051908101604052809392919081815260200183836020028082843760009201919091525061259f92505050565b505050505050505050565b600080611bb283610c5c565b91509150915091565b60005460408051600160e11b632c1a733d02815233600482015290516001600160a01b0390921691635834e67a91602480820192602092909190829003018186803b158015611c0957600080fd5b505afa158015611c1d573d6000803e3d6000fd5b505050506040513d6020811015611c3357600080fd5b5051611c3e57600080fd5b600160e21b63111350d5026001600160c01b031983161415611c6457600a819055611cda565b600160e01b63444d4349026001600160c01b031983161415611c8a57600b819055611cda565b60408051600160e51b62461bcd02815260206004820152601260248201527f496e76616c696420706172616d20636f64650000000000000000000000000000604482015290519081900360640190fd5b5050565b600a5481565b6000546001600160a01b031681565b600080600360009054906101000a90046001600160a01b03166001600160a01b031663255f50496040518163ffffffff1660e01b815260040160206040518083038186803b158015611d4457600080fd5b505afa158015611d58573d6000803e3d6000fd5b505050506040513d6020811015611d6e57600080fd5b5051905060005b818110156120745760035460408051600160e41b6303c40b1f0281526004810184905290516000926001600160a01b031691633c40b1f0916024808301926020929190829003018186803b158015611dcc57600080fd5b505afa158015611de0573d6000803e3d6000fd5b505050506040513d6020811015611df657600080fd5b50519050600160eb1b6208aa89026001600160e01b031982161415611eae5760055460408051600160e01b633d5732a30281526001600160e01b0319841660048201529051611ea7926001600160a01b031691633d5732a3916024808301926020929190829003018186803b158015611e6e57600080fd5b505afa158015611e82573d6000803e3d6000fd5b505050506040513d6020811015611e9857600080fd5b5051859063ffffffff61219c16565b935061206b565b60035460408051600160e21b63389bfcd30281526001600160e01b03198416600482015290516000926001600160a01b03169163e26ff34c916024808301926020929190829003018186803b158015611f0657600080fd5b505afa158015611f1a573d6000803e3d6000fd5b505050506040513d6020811015611f3057600080fd5b5051111561206b5760035460408051600160e21b63389bfcd30281526001600160e01b03198416600482015290516120689261205b926001600160a01b039091169163e26ff34c91602480820192602092909190829003018186803b158015611f9857600080fd5b505afa158015611fac573d6000803e3d6000fd5b505050506040513d6020811015611fc257600080fd5b505160055460408051600160e01b633d5732a30281526001600160e01b0319871660048201529051610910926064926001600160a01b0390911691633d5732a391602480820192602092909190829003018186803b15801561202357600080fd5b505afa158015612037573d6000803e3d6000fd5b505050506040513d602081101561204d57600080fd5b50519063ffffffff61214016565b859063ffffffff61219c16565b93505b50600101611d75565b505090565b6000546001600160a01b0316156120dc576000546001600160a01b031633146120dc5760408051600160e51b62461bcd02815260206004820152600a6024820152600160b11b692737ba1036b0b9ba32b902604482015290519081900360640190fd5b600080546001600160a01b039092166001600160a01b0319928316811790915560018054909216179055565b6002546000908190612123906001600160a01b031631610c5c565b915091509091565b6001546001600160a01b031681565b60095481565b60008261214f575060006111c2565b8282028284828161215c57fe5b04146111bf57604051600160e51b62461bcd028152600401808060200182810382526021815260200180612be36021913960400191505060405180910390fd5b6000828201838110156111bf5760408051600160e51b62461bcd02815260206004820152601b60248201527f536166654d6174683a206164646974696f6e206f766572666c6f770000000000604482015290519081900360640190fd5b60006111bf83836040518060400160405280601a81526020017f536166654d6174683a206469766973696f6e206279207a65726f000000000000815250612ae0565b60006111bf83836040518060400160405280601e81526020017f536166654d6174683a207375627472616374696f6e206f766572666c6f770000815250612b85565b6000806000806000600760009054906101000a90046001600160a01b03166001600160a01b031663efd9066f6040518163ffffffff1660e01b815260040160206040518083038186803b1580156122d357600080fd5b505afa1580156122e7573d6000803e3d6000fd5b505050506040513d60208110156122fd57600080fd5b5051905080860a600061231783600463ffffffff61214016565b60035460408051600160e21b630759a3190281526001600160e01b03198d16600482015290519293506001600160a01b0390911691631d668c6491602480820192606092909190829003018186803b15801561237257600080fd5b505afa158015612386573d6000803e3d6000fd5b505050506040513d606081101561239c57600080fd5b5080516020808301516040938401516003548551600160e01b63b775a49d0281529551949b5091995097506000936001600160a01b039091169263b775a49d92600480840193919291829003018186803b1580156123f957600080fd5b505afa15801561240d573d6000803e3d6000fd5b505050506040513d602081101561242357600080fd5b5051905061243f86670de0b6b3a764000063ffffffff61214016565b9550612467600a83900a61091088818761090487670de0b6b3a764000063ffffffff61214016565b975061249861248b620186a06109108a670de0b6b3a764000063ffffffff61214016565b899063ffffffff61219c16565b97506124ad88600a870263ffffffff61214016565b97506124c1886103e863ffffffff6121f916565b9a9950505050505050505050565b60025460035460408051600160e91b623c907102815290516001600160a01b039384169363c57dbe00931691637920e200916004808301926020929190829003018186803b15801561252057600080fd5b505afa158015612534573d6000803e3d6000fd5b505050506040513d602081101561254a57600080fd5b50516040805163ffffffff841660e01b8152600481019290925251602480830192600092919082900301818387803b15801561258557600080fd5b505af1158015612599573d6000803e3d6000fd5b50505050565b6000808060018a1115612657576002546125c2906001600160a01b031631610c5c565b50925061265183866125d2611cf3565b600360009054906101000a90046001600160a01b03166001600160a01b0316633fa615b06040518163ffffffff1660e01b815260040160206040518083038186803b15801561262057600080fd5b505afa158015612634573d6000803e3d6000fd5b505050506040513d602081101561264a57600080fd5b50516108ae565b90925090505b600a54861115612703576126ff6127106109106126d76126c1600b54600360009054906101000a90046001600160a01b03166001600160a01b0316633fa615b06040518163ffffffff1660e01b815260040160206040518083038186803b15801561202357600080fd5b683635c9adc5dea000009063ffffffff61214016565b600b546108d3906126f09061271063ffffffff61219c16565b6009549063ffffffff61214016565b6009555b896001148061271d575081861015801561271d5750808611155b156129ef57600360009054906101000a90046001600160a01b03166001600160a01b031663ff0102396040518163ffffffff1660e01b815260040160206040518083038186803b15801561277057600080fd5b505afa158015612784573d6000803e3d6000fd5b505050506040513d602081101561279a57600080fd5b505160035460408051600160e01b637106767b028152600481018a9052602481018b90526044810189905267ffffffffffffffff8d8116606483015291519190931695506001600160a01b0390911691637106767b91608480830192600092919082900301818387803b15801561281057600080fd5b505af1158015612824573d6000803e3d6000fd5b506000925050505b88518110156128e95760035489516001600160a01b039091169063ade6a303908b908490811061285857fe5b602002602001015187848151811061286c57fe5b60200260200101516040518363ffffffff1660e01b815260040180836001600160e01b0319166001600160e01b031916815260200182815260200192505050600060405180830381600087803b1580156128c557600080fd5b505af11580156128d9573d6000803e3d6000fd5b50506001909201915061282c9050565b508867ffffffffffffffff167fe4d7c0f9c1462bca57d9d1c2ec3a19d83c4781ceaf9a37a0f15dc55a6b43de4d438a878b8b8b604051808781526020018060200180602001868152602001858152602001848152602001838103835288818151815260200191508051906020019060200280838360005b83811015612978578181015183820152602001612960565b50505050905001838103825287818151815260200191508051906020019060200280838360005b838110156129b757818101518382015260200161299f565b505050509050019850505050505050505060405180910390a28867ffffffffffffffff168310156129ea576129ea6124cf565b612ad4565b60025460035460408051600160e01b63702ddaab02815290516001600160a01b0393841693635085a074938e9391169163702ddaab91600480820192602092909190829003018186803b158015612a4557600080fd5b505afa158015612a59573d6000803e3d6000fd5b505050506040513d6020811015612a6f57600080fd5b50516040805163ffffffff851660e01b815267ffffffffffffffff9093166004840152602483019190915251604480830192600092919082900301818387803b158015612abb57600080fd5b505af1158015612acf573d6000803e3d6000fd5b505050505b50505050505050505050565b60008183612b6f57604051600160e51b62461bcd0281526004018080602001828103825283818151815260200191508051906020019080838360005b83811015612b34578181015183820152602001612b1c565b50505050905090810190601f168015612b615780820380516001836020036101000a031916815260200191505b509250505060405180910390fd5b506000838581612b7b57fe5b0495945050505050565b60008184841115612bda57604051600160e51b62461bcd028152602060048201818152835160248401528351909283926044909101919085019080838360008315612b34578181015183820152602001612b1c565b50505090039056fe536166654d6174683a206d756c7469706c69636174696f6e206f766572666c6f77a165627a7a723058208f6ba462fc50e6bf3e94112ca3005ac4fc21f2a2cb82d55c1f4d72ce8a8e99840029",
  "compiler": {
    "name": "solc",
    "version": "0.5.7+commit.6da8b019.Emscripten.clang",
    "optimizer": {
      "enabled": true,
      "runs": 200
    },
    "evmVersion": "petersburg"
  }
}