{
  "fileName": "MemberRolesMock.sol",
  "contractName": "MemberRolesMock",
  "source": "/* Copyright (C) 2020 NexusMutual.io\n\n  This program is free software: you can redistribute it and/or modify\n    it under the terms of the GNU General Public License as published by\n    the Free Software Foundation, either version 3 of the License, or\n    (at your option) any later version.\n\n  This program is distributed in the hope that it will be useful,\n    but WITHOUT ANY WARRANTY; without even the implied warranty of\n    MERCHANTABILITY or FITNESS FOR A PARTICULAR PURPOSE.  See the\n    GNU General Public License for more details.\n\n  You should have received a copy of the GNU General Public License\n    along with this program.  If not, see http://www.gnu.org/licenses/ */\n\npragma solidity ^0.5.0;\n\nimport \"../interfaces/IMemberRoles.sol\";\n\ncontract MemberRolesMock is IMemberRoles {\n\n  function memberAtIndex(uint, uint) external returns (address, bool) {\n    revert(\"Unexpected MemberRolesMock call\");\n  }\n\n  function membersLength(uint) external returns (uint) {\n    return 0;\n  }\n\n}\n",
  "sourcePath": "contracts/mocks/MemberRolesMock.sol",
  "abi": [
    {
      "constant": false,
      "inputs": [
        {
          "name": "",
          "type": "uint256"
        }
      ],
      "name": "membersLength",
      "outputs": [
        {
          "name": "",
          "type": "uint256"
        }
      ],
      "payable": false,
      "stateMutability": "nonpayable",
      "type": "function"
    },
    {
      "constant": false,
      "inputs": [
        {
          "name": "",
          "type": "uint256"
        },
        {
          "name": "",
          "type": "uint256"
        }
      ],
      "name": "memberAtIndex",
      "outputs": [
        {
          "name": "",
          "type": "address"
        },
        {
          "name": "",
          "type": "bool"
        }
      ],
      "payable": false,
      "stateMutability": "nonpayable",
      "type": "function"
    }
  ],
  "bytecode": "0x608060405234801561001057600080fd5b50610137806100206000396000f3fe608060405234801561001057600080fd5b50600436106100365760003560e01c80638bed69eb1461003b578063b53e46791461006a575b600080fd5b6100586004803603602081101561005157600080fd5b50356100b0565b60408051918252519081900360200190f35b61008d6004803603604081101561008057600080fd5b50803590602001356100b6565b604080516001600160a01b03909316835290151560208301528051918290030190f35b50600090565b60408051600160e51b62461bcd02815260206004820152601f60248201527f556e6578706563746564204d656d626572526f6c65734d6f636b2063616c6c006044820152905160009182919081900360640190fdfea165627a7a723058200635f6500e734b844173c36116d3a336396561866c68b128c9a19cee363ec5530029",
  "compiler": {
    "name": "solc",
    "version": "0.5.7+commit.6da8b019.Emscripten.clang",
    "optimizer": {
      "enabled": true,
      "runs": 200
    },
    "evmVersion": "petersburg"
  }
}