{
  "fileName": "MemberRoles.sol",
  "contractName": "MemberRoles",
  "source": "/* Copyright (C) 2017 GovBlocks.io\n  This program is free software: you can redistribute it and/or modify\n    it under the terms of the GNU General Public License as published by\n    the Free Software Foundation, either version 3 of the License, or\n    (at your option) any later version.\n  This program is distributed in the hope that it will be useful,\n    but WITHOUT ANY WARRANTY; without even the implied warranty of\n    MERCHANTABILITY or FITNESS FOR A PARTICULAR PURPOSE.  See the\n    GNU General Public License for more details.\n  You should have received a copy of the GNU General Public License\n    along with this program.  If not, see http://www.gnu.org/licenses/ */\n\npragma solidity ^0.5.0;\n\nimport \"../claims/ClaimsReward.sol\";\nimport \"../cover/QuotationData.sol\";\nimport \"../token/TokenController.sol\";\nimport \"../token/TokenData.sol\";\nimport \"../token/TokenFunctions.sol\";\nimport \"./Governance.sol\";\nimport \"./external/Governed.sol\";\n\ncontract MemberRoles is Governed, Iupgradable {\n\n  TokenController public dAppToken;\n  TokenData internal td;\n  QuotationData internal qd;\n  ClaimsReward internal cr;\n  Governance internal gv;\n  TokenFunctions internal tf;\n  NXMToken public tk;\n\n  struct MemberRoleDetails {\n    uint memberCounter;\n    mapping(address => bool) memberActive;\n    address[] memberAddress;\n    address authorized;\n  }\n\n  enum Role {UnAssigned, AdvisoryBoard, Member, Owner}\n\n  event MemberRole(uint256 indexed roleId, bytes32 roleName, string roleDescription);\n\n  event switchedMembership(address indexed previousMember, address indexed newMember, uint timeStamp);\n\n  MemberRoleDetails[] internal memberRoleData;\n  bool internal constructorCheck;\n  uint public maxABCount;\n  bool public launched;\n  uint public launchedOn;\n  modifier checkRoleAuthority(uint _memberRoleId) {\n    if (memberRoleData[_memberRoleId].authorized != address(0))\n      require(msg.sender == memberRoleData[_memberRoleId].authorized);\n    else\n      require(isAuthorizedToGovern(msg.sender), \"Not Authorized\");\n    _;\n  }\n\n  /**\n   * @dev to swap advisory board member\n   * @param _newABAddress is address of new AB member\n   * @param _removeAB is advisory board member to be removed\n   */\n  function swapABMember(\n    address _newABAddress,\n    address _removeAB\n  )\n  external\n  checkRoleAuthority(uint(Role.AdvisoryBoard)) {\n\n    _updateRole(_newABAddress, uint(Role.AdvisoryBoard), true);\n    _updateRole(_removeAB, uint(Role.AdvisoryBoard), false);\n\n  }\n\n  /**\n   * @dev to swap the owner address\n   * @param _newOwnerAddress is the new owner address\n   */\n  function swapOwner(\n    address _newOwnerAddress\n  )\n  external {\n    require(msg.sender == address(ms));\n    _updateRole(ms.owner(), uint(Role.Owner), false);\n    _updateRole(_newOwnerAddress, uint(Role.Owner), true);\n  }\n\n  /**\n   * @dev is used to add initital advisory board members\n   * @param abArray is the list of initial advisory board members\n   */\n  function addInitialABMembers(address[] calldata abArray) external onlyOwner {\n\n    //Ensure that NXMaster has initialized.\n    require(ms.masterInitialized());\n\n    require(maxABCount >=\n      SafeMath.add(numberOfMembers(uint(Role.AdvisoryBoard)), abArray.length)\n    );\n    //AB count can't exceed maxABCount\n    for (uint i = 0; i < abArray.length; i++) {\n      require(checkRole(abArray[i], uint(MemberRoles.Role.Member)));\n      _updateRole(abArray[i], uint(Role.AdvisoryBoard), true);\n    }\n  }\n\n  /**\n   * @dev to change max number of AB members allowed\n   * @param _val is the new value to be set\n   */\n  function changeMaxABCount(uint _val) external onlyInternal {\n    maxABCount = _val;\n  }\n\n  /**\n   * @dev Iupgradable Interface to update dependent contract address\n   */\n  function changeDependentContractAddress() public {\n    td = TokenData(ms.getLatestAddress(\"TD\"));\n    cr = ClaimsReward(ms.getLatestAddress(\"CR\"));\n    qd = QuotationData(ms.getLatestAddress(\"QD\"));\n    gv = Governance(ms.getLatestAddress(\"GV\"));\n    tf = TokenFunctions(ms.getLatestAddress(\"TF\"));\n    tk = NXMToken(ms.tokenAddress());\n    dAppToken = TokenController(ms.getLatestAddress(\"TC\"));\n  }\n\n  /**\n   * @dev to change the master address\n   * @param _masterAddress is the new master address\n   */\n  function changeMasterAddress(address _masterAddress) public {\n    if (masterAddress != address(0))\n      require(masterAddress == msg.sender);\n    masterAddress = _masterAddress;\n    ms = INXMMaster(_masterAddress);\n    nxMasterAddress = _masterAddress;\n\n  }\n\n  /**\n   * @dev to initiate the member roles\n   * @param _firstAB is the address of the first AB member\n   * @param memberAuthority is the authority (role) of the member\n   */\n  function memberRolesInitiate(address _firstAB, address memberAuthority) public {\n    require(!constructorCheck);\n    _addInitialMemberRoles(_firstAB, memberAuthority);\n    constructorCheck = true;\n  }\n\n  /// @dev Adds new member role\n  /// @param _roleName New role name\n  /// @param _roleDescription New description hash\n  /// @param _authorized Authorized member against every role id\n  function addRole(//solhint-disable-line\n    bytes32 _roleName,\n    string memory _roleDescription,\n    address _authorized\n  )\n  public\n  onlyAuthorizedToGovern {\n    _addRole(_roleName, _roleDescription, _authorized);\n  }\n\n  /// @dev Assign or Delete a member from specific role.\n  /// @param _memberAddress Address of Member\n  /// @param _roleId RoleId to update\n  /// @param _active active is set to be True if we want to assign this role to member, False otherwise!\n  function updateRole(//solhint-disable-line\n    address _memberAddress,\n    uint _roleId,\n    bool _active\n  )\n  public\n  checkRoleAuthority(_roleId) {\n    _updateRole(_memberAddress, _roleId, _active);\n  }\n\n  /**\n   * @dev to add members before launch\n   * @param userArray is list of addresses of members\n   * @param tokens is list of tokens minted for each array element\n   */\n  function addMembersBeforeLaunch(address[] memory userArray, uint[] memory tokens) public onlyOwner {\n    require(!launched);\n\n    for (uint i = 0; i < userArray.length; i++) {\n      require(!ms.isMember(userArray[i]));\n      dAppToken.addToWhitelist(userArray[i]);\n      _updateRole(userArray[i], uint(Role.Member), true);\n      dAppToken.mint(userArray[i], tokens[i]);\n    }\n    launched = true;\n    launchedOn = now;\n\n  }\n\n  /**\n    * @dev Called by user to pay joining membership fee\n    */\n  function payJoiningFee(address _userAddress) public payable {\n    require(_userAddress != address(0));\n    require(!ms.isPause(), \"Emergency Pause Applied\");\n    if (msg.sender == address(ms.getLatestAddress(\"QT\"))) {\n      require(td.walletAddress() != address(0), \"No walletAddress present\");\n      dAppToken.addToWhitelist(_userAddress);\n      _updateRole(_userAddress, uint(Role.Member), true);\n      td.walletAddress().transfer(msg.value);\n    } else {\n      require(!qd.refundEligible(_userAddress));\n      require(!ms.isMember(_userAddress));\n      require(msg.value == td.joiningFee());\n      qd.setRefundEligible(_userAddress, true);\n    }\n  }\n\n  /**\n   * @dev to perform kyc verdict\n   * @param _userAddress whose kyc is being performed\n   * @param verdict of kyc process\n   */\n  function kycVerdict(address payable _userAddress, bool verdict) public {\n\n    require(msg.sender == qd.kycAuthAddress());\n    require(!ms.isPause());\n    require(_userAddress != address(0));\n    require(!ms.isMember(_userAddress));\n    require(qd.refundEligible(_userAddress));\n    if (verdict) {\n      qd.setRefundEligible(_userAddress, false);\n      uint fee = td.joiningFee();\n      dAppToken.addToWhitelist(_userAddress);\n      _updateRole(_userAddress, uint(Role.Member), true);\n      td.walletAddress().transfer(fee); // solhint-disable-line\n\n    } else {\n      qd.setRefundEligible(_userAddress, false);\n      _userAddress.transfer(td.joiningFee()); // solhint-disable-line\n    }\n  }\n\n  /**\n   * @dev Called by existed member if wish to Withdraw membership.\n   */\n  function withdrawMembership() public {\n    require(!ms.isPause() && ms.isMember(msg.sender));\n    require(dAppToken.totalLockedBalance(msg.sender, now) == 0); // solhint-disable-line\n    require(!tf.isLockedForMemberVote(msg.sender)); // No locked tokens for Member/Governance voting\n    require(cr.getAllPendingRewardOfUser(msg.sender) == 0); // No pending reward to be claimed(claim assesment).\n    require(dAppToken.tokensUnlockable(msg.sender, \"CLA\") == 0, \"Member should have no CLA unlockable tokens\");\n    gv.removeDelegation(msg.sender);\n    dAppToken.burnFrom(msg.sender, tk.balanceOf(msg.sender));\n    _updateRole(msg.sender, uint(Role.Member), false);\n    dAppToken.removeFromWhitelist(msg.sender); // need clarification on whitelist\n  }\n\n\n  /**\n   * @dev Called by existed member if wish to switch membership to other address.\n   * @param _add address of user to forward membership.\n   */\n  function switchMembership(address _add) external {\n    require(!ms.isPause() && ms.isMember(msg.sender) && !ms.isMember(_add));\n    require(dAppToken.totalLockedBalance(msg.sender, now) == 0); // solhint-disable-line\n    require(!tf.isLockedForMemberVote(msg.sender)); // No locked tokens for Member/Governance voting\n    require(cr.getAllPendingRewardOfUser(msg.sender) == 0); // No pending reward to be claimed(claim assesment).\n    require(dAppToken.tokensUnlockable(msg.sender, \"CLA\") == 0, \"Member should have no CLA unlockable tokens\");\n    gv.removeDelegation(msg.sender);\n    dAppToken.addToWhitelist(_add);\n    _updateRole(_add, uint(Role.Member), true);\n    tk.transferFrom(msg.sender, _add, tk.balanceOf(msg.sender));\n    _updateRole(msg.sender, uint(Role.Member), false);\n    dAppToken.removeFromWhitelist(msg.sender);\n    emit switchedMembership(msg.sender, _add, now);\n  }\n\n  /// @dev Return number of member roles\n  function totalRoles() public view returns (uint256) {//solhint-disable-line\n    return memberRoleData.length;\n  }\n\n  /// @dev Change Member Address who holds the authority to Add/Delete any member from specific role.\n  /// @param _roleId roleId to update its Authorized Address\n  /// @param _newAuthorized New authorized address against role id\n  function changeAuthorized(uint _roleId, address _newAuthorized) public checkRoleAuthority(_roleId) {//solhint-disable-line\n    memberRoleData[_roleId].authorized = _newAuthorized;\n  }\n\n  /// @dev Gets the member addresses assigned by a specific role\n  /// @param _memberRoleId Member role id\n  /// @return roleId Role id\n  /// @return allMemberAddress Member addresses of specified role id\n  function members(uint _memberRoleId) public view returns (uint, address[] memory memberArray) {//solhint-disable-line\n    uint length = memberRoleData[_memberRoleId].memberAddress.length;\n    uint i;\n    uint j = 0;\n    memberArray = new address[](memberRoleData[_memberRoleId].memberCounter);\n    for (i = 0; i < length; i++) {\n      address member = memberRoleData[_memberRoleId].memberAddress[i];\n      if (memberRoleData[_memberRoleId].memberActive[member] && !_checkMemberInArray(member, memberArray)) {//solhint-disable-line\n        memberArray[j] = member;\n        j++;\n      }\n    }\n\n    return (_memberRoleId, memberArray);\n  }\n\n  /// @dev Gets all members' length\n  /// @param _memberRoleId Member role id\n  /// @return memberRoleData[_memberRoleId].memberCounter Member length\n  function numberOfMembers(uint _memberRoleId) public view returns (uint) {//solhint-disable-line\n    return memberRoleData[_memberRoleId].memberCounter;\n  }\n\n  /// @dev Return member address who holds the right to add/remove any member from specific role.\n  function authorized(uint _memberRoleId) public view returns (address) {//solhint-disable-line\n    return memberRoleData[_memberRoleId].authorized;\n  }\n\n  /// @dev Get All role ids array that has been assigned to a member so far.\n  function roles(address _memberAddress) public view returns (uint[] memory) {//solhint-disable-line\n    uint length = memberRoleData.length;\n    uint[] memory assignedRoles = new uint[](length);\n    uint counter = 0;\n    for (uint i = 1; i < length; i++) {\n      if (memberRoleData[i].memberActive[_memberAddress]) {\n        assignedRoles[counter] = i;\n        counter++;\n      }\n    }\n    return assignedRoles;\n  }\n\n  /// @dev Returns true if the given role id is assigned to a member.\n  /// @param _memberAddress Address of member\n  /// @param _roleId Checks member's authenticity with the roleId.\n  /// i.e. Returns true if this roleId is assigned to member\n  function checkRole(address _memberAddress, uint _roleId) public view returns (bool) {//solhint-disable-line\n    if (_roleId == uint(Role.UnAssigned))\n      return true;\n    else\n      if (memberRoleData[_roleId].memberActive[_memberAddress]) //solhint-disable-line\n        return true;\n      else\n        return false;\n  }\n\n  /// @dev Return total number of members assigned against each role id.\n  /// @return totalMembers Total members in particular role id\n  function getMemberLengthForAllRoles() public view returns (uint[] memory totalMembers) {//solhint-disable-line\n    totalMembers = new uint[](memberRoleData.length);\n    for (uint i = 0; i < memberRoleData.length; i++) {\n      totalMembers[i] = numberOfMembers(i);\n    }\n  }\n\n  /**\n   * @dev to update the member roles\n   * @param _memberAddress in concern\n   * @param _roleId the id of role\n   * @param _active if active is true, add the member, else remove it\n   */\n  function _updateRole(address _memberAddress,\n    uint _roleId,\n    bool _active) internal {\n    // require(_roleId != uint(Role.TokenHolder), \"Membership to Token holder is detected automatically\");\n    if (_active) {\n      require(!memberRoleData[_roleId].memberActive[_memberAddress]);\n      memberRoleData[_roleId].memberCounter = SafeMath.add(memberRoleData[_roleId].memberCounter, 1);\n      memberRoleData[_roleId].memberActive[_memberAddress] = true;\n      memberRoleData[_roleId].memberAddress.push(_memberAddress);\n    } else {\n      require(memberRoleData[_roleId].memberActive[_memberAddress]);\n      memberRoleData[_roleId].memberCounter = SafeMath.sub(memberRoleData[_roleId].memberCounter, 1);\n      delete memberRoleData[_roleId].memberActive[_memberAddress];\n    }\n  }\n\n  /// @dev Adds new member role\n  /// @param _roleName New role name\n  /// @param _roleDescription New description hash\n  /// @param _authorized Authorized member against every role id\n  function _addRole(\n    bytes32 _roleName,\n    string memory _roleDescription,\n    address _authorized\n  ) internal {\n    emit MemberRole(memberRoleData.length, _roleName, _roleDescription);\n    memberRoleData.push(MemberRoleDetails(0, new address[](0), _authorized));\n  }\n\n  /**\n   * @dev to check if member is in the given member array\n   * @param _memberAddress in concern\n   * @param memberArray in concern\n   * @return boolean to represent the presence\n   */\n  function _checkMemberInArray(\n    address _memberAddress,\n    address[] memory memberArray\n  )\n  internal\n  pure\n  returns (bool memberExists)\n  {\n    uint i;\n    for (i = 0; i < memberArray.length; i++) {\n      if (memberArray[i] == _memberAddress) {\n        memberExists = true;\n        break;\n      }\n    }\n  }\n\n  /**\n   * @dev to add initial member roles\n   * @param _firstAB is the member address to be added\n   * @param memberAuthority is the member authority(role) to be added for\n   */\n  function _addInitialMemberRoles(address _firstAB, address memberAuthority) internal {\n    maxABCount = 5;\n    _addRole(\"Unassigned\", \"Unassigned\", address(0));\n    _addRole(\n      \"Advisory Board\",\n      \"Selected few members that are deeply entrusted by the dApp. An ideal advisory board should be a mix of skills of domain, governance, research, technology, consulting etc to improve the performance of the dApp.\", //solhint-disable-line\n      address(0)\n    );\n    _addRole(\n      \"Member\",\n      \"Represents all users of Mutual.\", //solhint-disable-line\n      memberAuthority\n    );\n    _addRole(\n      \"Owner\",\n      \"Represents Owner of Mutual.\", //solhint-disable-line\n      address(0)\n    );\n    // _updateRole(_firstAB, uint(Role.AdvisoryBoard), true);\n    _updateRole(_firstAB, uint(Role.Owner), true);\n    // _updateRole(_firstAB, uint(Role.Member), true);\n    launchedOn = 0;\n  }\n\n  function memberAtIndex(uint _memberRoleId, uint index) external view returns (address, bool) {\n    address memberAddress = memberRoleData[_memberRoleId].memberAddress[index];\n    return (memberAddress, memberRoleData[_memberRoleId].memberActive[memberAddress]);\n  }\n\n  function membersLength(uint _memberRoleId) external view returns (uint) {\n    return memberRoleData[_memberRoleId].memberAddress.length;\n  }\n}\n",
  "sourcePath": "contracts/modules/governance/MemberRoles.sol",
  "abi": [
    {
      "constant": true,
      "inputs": [
        {
          "name": "_memberRoleId",
          "type": "uint256"
        }
      ],
      "name": "authorized",
      "outputs": [
        {
          "name": "",
          "type": "address"
        }
      ],
      "payable": false,
      "stateMutability": "view",
      "type": "function"
    },
    {
      "constant": true,
      "inputs": [
        {
          "name": "_memberRoleId",
          "type": "uint256"
        }
      ],
      "name": "numberOfMembers",
      "outputs": [
        {
          "name": "",
          "type": "uint256"
        }
      ],
      "payable": false,
      "stateMutability": "view",
      "type": "function"
    },
    {
      "constant": false,
      "inputs": [],
      "name": "changeDependentContractAddress",
      "outputs": [],
      "payable": false,
      "stateMutability": "nonpayable",
      "type": "function"
    },
    {
      "constant": false,
      "inputs": [
        {
          "name": "_userAddress",
          "type": "address"
        }
      ],
      "name": "payJoiningFee",
      "outputs": [],
      "payable": true,
      "stateMutability": "payable",
      "type": "function"
    },
    {
      "constant": false,
      "inputs": [
        {
          "name": "_firstAB",
          "type": "address"
        },
        {
          "name": "memberAuthority",
          "type": "address"
        }
      ],
      "name": "memberRolesInitiate",
      "outputs": [],
      "payable": false,
      "stateMutability": "nonpayable",
      "type": "function"
    },
    {
      "constant": true,
      "inputs": [],
      "name": "tk",
      "outputs": [
        {
          "name": "",
          "type": "address"
        }
      ],
      "payable": false,
      "stateMutability": "view",
      "type": "function"
    },
    {
      "constant": true,
      "inputs": [
        {
          "name": "_toCheck",
          "type": "address"
        }
      ],
      "name": "isAuthorizedToGovern",
      "outputs": [
        {
          "name": "",
          "type": "bool"
        }
      ],
      "payable": false,
      "stateMutability": "view",
      "type": "function"
    },
    {
      "constant": false,
      "inputs": [
        {
          "name": "_roleName",
          "type": "bytes32"
        },
        {
          "name": "_roleDescription",
          "type": "string"
        },
        {
          "name": "_authorized",
          "type": "address"
        }
      ],
      "name": "addRole",
      "outputs": [],
      "payable": false,
      "stateMutability": "nonpayable",
      "type": "function"
    },
    {
      "constant": false,
      "inputs": [
        {
          "name": "_memberAddress",
          "type": "address"
        },
        {
          "name": "_roleId",
          "type": "uint256"
        },
        {
          "name": "_active",
          "type": "bool"
        }
      ],
      "name": "updateRole",
      "outputs": [],
      "payable": false,
      "stateMutability": "nonpayable",
      "type": "function"
    },
    {
      "constant": true,
      "inputs": [],
      "name": "maxABCount",
      "outputs": [
        {
          "name": "",
          "type": "uint256"
        }
      ],
      "payable": false,
      "stateMutability": "view",
      "type": "function"
    },
    {
      "constant": false,
      "inputs": [
        {
          "name": "_add",
          "type": "address"
        }
      ],
      "name": "switchMembership",
      "outputs": [],
      "payable": false,
      "stateMutability": "nonpayable",
      "type": "function"
    },
    {
      "constant": true,
      "inputs": [
        {
          "name": "_memberAddress",
          "type": "address"
        },
        {
          "name": "_roleId",
          "type": "uint256"
        }
      ],
      "name": "checkRole",
      "outputs": [
        {
          "name": "",
          "type": "bool"
        }
      ],
      "payable": false,
      "stateMutability": "view",
      "type": "function"
    },
    {
      "constant": true,
      "inputs": [
        {
          "name": "_memberRoleId",
          "type": "uint256"
        }
      ],
      "name": "members",
      "outputs": [
        {
          "name": "",
          "type": "uint256"
        },
        {
          "name": "memberArray",
          "type": "address[]"
        }
      ],
      "payable": false,
      "stateMutability": "view",
      "type": "function"
    },
    {
      "constant": false,
      "inputs": [
        {
          "name": "abArray",
          "type": "address[]"
        }
      ],
      "name": "addInitialABMembers",
      "outputs": [],
      "payable": false,
      "stateMutability": "nonpayable",
      "type": "function"
    },
    {
      "constant": true,
      "inputs": [],
      "name": "getMemberLengthForAllRoles",
      "outputs": [
        {
          "name": "totalMembers",
          "type": "uint256[]"
        }
      ],
      "payable": false,
      "stateMutability": "view",
      "type": "function"
    },
    {
      "constant": false,
      "inputs": [
        {
          "name": "userArray",
          "type": "address[]"
        },
        {
          "name": "tokens",
          "type": "uint256[]"
        }
      ],
      "name": "addMembersBeforeLaunch",
      "outputs": [],
      "payable": false,
      "stateMutability": "nonpayable",
      "type": "function"
    },
    {
      "constant": true,
      "inputs": [],
      "name": "totalRoles",
      "outputs": [
        {
          "name": "",
          "type": "uint256"
        }
      ],
      "payable": false,
      "stateMutability": "view",
      "type": "function"
    },
    {
      "constant": true,
      "inputs": [],
      "name": "launched",
      "outputs": [
        {
          "name": "",
          "type": "bool"
        }
      ],
      "payable": false,
      "stateMutability": "view",
      "type": "function"
    },
    {
      "constant": true,
      "inputs": [
        {
          "name": "_memberRoleId",
          "type": "uint256"
        }
      ],
      "name": "membersLength",
      "outputs": [
        {
          "name": "",
          "type": "uint256"
        }
      ],
      "payable": false,
      "stateMutability": "view",
      "type": "function"
    },
    {
      "constant": false,
      "inputs": [
        {
          "name": "_val",
          "type": "uint256"
        }
      ],
      "name": "changeMaxABCount",
      "outputs": [],
      "payable": false,
      "stateMutability": "nonpayable",
      "type": "function"
    },
    {
      "constant": false,
      "inputs": [
        {
          "name": "_newOwnerAddress",
          "type": "address"
        }
      ],
      "name": "swapOwner",
      "outputs": [],
      "payable": false,
      "stateMutability": "nonpayable",
      "type": "function"
    },
    {
      "constant": true,
      "inputs": [
        {
          "name": "_memberAddress",
          "type": "address"
        }
      ],
      "name": "roles",
      "outputs": [
        {
          "name": "",
          "type": "uint256[]"
        }
      ],
      "payable": false,
      "stateMutability": "view",
      "type": "function"
    },
    {
      "constant": true,
      "inputs": [],
      "name": "ms",
      "outputs": [
        {
          "name": "",
          "type": "address"
        }
      ],
      "payable": false,
      "stateMutability": "view",
      "type": "function"
    },
    {
      "constant": false,
      "inputs": [
        {
          "name": "_roleId",
          "type": "uint256"
        },
        {
          "name": "_newAuthorized",
          "type": "address"
        }
      ],
      "name": "changeAuthorized",
      "outputs": [],
      "payable": false,
      "stateMutability": "nonpayable",
      "type": "function"
    },
    {
      "constant": false,
      "inputs": [],
      "name": "withdrawMembership",
      "outputs": [],
      "payable": false,
      "stateMutability": "nonpayable",
      "type": "function"
    },
    {
      "constant": true,
      "inputs": [
        {
          "name": "_memberRoleId",
          "type": "uint256"
        },
        {
          "name": "index",
          "type": "uint256"
        }
      ],
      "name": "memberAtIndex",
      "outputs": [
        {
          "name": "",
          "type": "address"
        },
        {
          "name": "",
          "type": "bool"
        }
      ],
      "payable": false,
      "stateMutability": "view",
      "type": "function"
    },
    {
      "constant": false,
      "inputs": [
        {
          "name": "_newABAddress",
          "type": "address"
        },
        {
          "name": "_removeAB",
          "type": "address"
        }
      ],
      "name": "swapABMember",
      "outputs": [],
      "payable": false,
      "stateMutability": "nonpayable",
      "type": "function"
    },
    {
      "constant": true,
      "inputs": [],
      "name": "masterAddress",
      "outputs": [
        {
          "name": "",
          "type": "address"
        }
      ],
      "payable": false,
      "stateMutability": "view",
      "type": "function"
    },
    {
      "constant": false,
      "inputs": [
        {
          "name": "_masterAddress",
          "type": "address"
        }
      ],
      "name": "changeMasterAddress",
      "outputs": [],
      "payable": false,
      "stateMutability": "nonpayable",
      "type": "function"
    },
    {
      "constant": false,
      "inputs": [
        {
          "name": "_userAddress",
          "type": "address"
        },
        {
          "name": "verdict",
          "type": "bool"
        }
      ],
      "name": "kycVerdict",
      "outputs": [],
      "payable": false,
      "stateMutability": "nonpayable",
      "type": "function"
    },
    {
      "constant": true,
      "inputs": [],
      "name": "launchedOn",
      "outputs": [
        {
          "name": "",
          "type": "uint256"
        }
      ],
      "payable": false,
      "stateMutability": "view",
      "type": "function"
    },
    {
      "constant": true,
      "inputs": [],
      "name": "dAppToken",
      "outputs": [
        {
          "name": "",
          "type": "address"
        }
      ],
      "payable": false,
      "stateMutability": "view",
      "type": "function"
    },
    {
      "constant": true,
      "inputs": [],
      "name": "nxMasterAddress",
      "outputs": [
        {
          "name": "",
          "type": "address"
        }
      ],
      "payable": false,
      "stateMutability": "view",
      "type": "function"
    },
    {
      "anonymous": false,
      "inputs": [
        {
          "indexed": true,
          "name": "roleId",
          "type": "uint256"
        },
        {
          "indexed": false,
          "name": "roleName",
          "type": "bytes32"
        },
        {
          "indexed": false,
          "name": "roleDescription",
          "type": "string"
        }
      ],
      "name": "MemberRole",
      "type": "event"
    },
    {
      "anonymous": false,
      "inputs": [
        {
          "indexed": true,
          "name": "previousMember",
          "type": "address"
        },
        {
          "indexed": true,
          "name": "newMember",
          "type": "address"
        },
        {
          "indexed": false,
          "name": "timeStamp",
          "type": "uint256"
        }
      ],
      "name": "switchedMembership",
      "type": "event"
    }
  ],
  "bytecode": "0x608060405234801561001057600080fd5b50613b0c806100206000396000f3fe6080604052600436106101ee5760003560e01c8063790e118c1161010d578063ae393df9116100a0578063d46655f41161006f578063d46655f41461094d578063d8b2114e14610980578063df05eef5146109bb578063eaf2c477146109d0578063f17a3bec146109e5576101ee565b8063ae393df914610895578063b53e4679146108aa578063c578f230146108fd578063d365a08e14610938576101ee565b806390a79368116100dc57806390a79368146107e15780639937464214610814578063a0b2d57f14610847578063aa561f9d1461085c576101ee565b8063790e118c146107635780638091f3bf146107785780638bed69eb1461078d5780638f8c0094146107b7576101ee565b80632f473021116101855780635daf08ca116101545780635daf08ca146104ce578063648edd9c146105535780636d1c31d2146105ce5780636eb4b91f14610633576101ee565b80632f4730211461040c57806337f15a581461044d5780634ed75d4714610462578063505ef22f14610495576101ee565b80631b5c6ded116101c15780631b5c6ded146102b257806321f408be146102ed57806322ce7254146103025780632dc4bdca14610349576101ee565b80630d48669a146101f35780630dc6f847146102395780630ea9c984146102755780630ead3e721461028c575b600080fd5b3480156101ff57600080fd5b5061021d6004803603602081101561021657600080fd5b50356109fa565b604080516001600160a01b039092168252519081900360200190f35b34801561024557600080fd5b506102636004803603602081101561025c57600080fd5b5035610a2c565b60408051918252519081900360200190f35b34801561028157600080fd5b5061028a610a54565b005b61028a600480360360208110156102a257600080fd5b50356001600160a01b0316610e67565b3480156102be57600080fd5b5061028a600480360360408110156102d557600080fd5b506001600160a01b03813581169160200135166113d1565b3480156102f957600080fd5b5061021d6113fc565b34801561030e57600080fd5b506103356004803603602081101561032557600080fd5b50356001600160a01b031661140b565b604080519115158252519081900360200190f35b34801561035557600080fd5b5061028a6004803603606081101561036c57600080fd5b81359190810190604081016020820135600160201b81111561038d57600080fd5b82018360208201111561039f57600080fd5b803590602001918460018302840111600160201b831117156103c057600080fd5b91908080601f016020809104026020016040519081016040528093929190818152602001838380828437600092019190915250929550505090356001600160a01b031691506114a39050565b34801561041857600080fd5b5061028a6004803603606081101561042f57600080fd5b506001600160a01b0381351690602081013590604001351515611597565b34801561045957600080fd5b50610263611668565b34801561046e57600080fd5b5061028a6004803603602081101561048557600080fd5b50356001600160a01b031661166e565b3480156104a157600080fd5b50610335600480360360408110156104b857600080fd5b506001600160a01b038135169060200135611ced565b3480156104da57600080fd5b506104f8600480360360208110156104f157600080fd5b5035611d4c565b6040518083815260200180602001828103825283818151815260200191508051906020019060200280838360005b8381101561053e578181015183820152602001610526565b50505050905001935050505060405180910390f35b34801561055f57600080fd5b5061028a6004803603602081101561057657600080fd5b810190602081018135600160201b81111561059057600080fd5b8201836020820111156105a257600080fd5b803590602001918460208302840111600160201b831117156105c357600080fd5b509092509050611eaa565b3480156105da57600080fd5b506105e361204f565b60408051602080825283518183015283519192839290830191858101910280838360005b8381101561061f578181015183820152602001610607565b505050509050019250505060405180910390f35b34801561063f57600080fd5b5061028a6004803603604081101561065657600080fd5b810190602081018135600160201b81111561067057600080fd5b82018360208201111561068257600080fd5b803590602001918460208302840111600160201b831117156106a357600080fd5b9190808060200260200160405190810160405280939291908181526020018383602002808284376000920191909152509295949360208101935035915050600160201b8111156106f257600080fd5b82018360208201111561070457600080fd5b803590602001918460208302840111600160201b8311171561072557600080fd5b9190808060200260200160405190810160405280939291908181526020018383602002808284376000920191909152509295506120b9945050505050565b34801561076f57600080fd5b50610263612376565b34801561078457600080fd5b5061033561237d565b34801561079957600080fd5b50610263600480360360208110156107b057600080fd5b5035612386565b3480156107c357600080fd5b5061028a600480360360208110156107da57600080fd5b50356123af565b3480156107ed57600080fd5b5061028a6004803603602081101561080457600080fd5b50356001600160a01b0316612437565b34801561082057600080fd5b506105e36004803603602081101561083757600080fd5b50356001600160a01b03166124d5565b34801561085357600080fd5b5061021d612586565b34801561086857600080fd5b5061028a6004803603604081101561087f57600080fd5b50803590602001356001600160a01b0316612595565b3480156108a157600080fd5b5061028a6126a3565b3480156108b657600080fd5b506108da600480360360408110156108cd57600080fd5b5080359060200135612bd9565b604080516001600160a01b03909316835290151560208301528051918290030190f35b34801561090957600080fd5b5061028a6004803603604081101561092057600080fd5b506001600160a01b0381358116916020013516612c6a565b34801561094457600080fd5b5061021d612d47565b34801561095957600080fd5b5061028a6004803603602081101561097057600080fd5b50356001600160a01b0316612d56565b34801561098c57600080fd5b5061028a600480360360408110156109a357600080fd5b506001600160a01b0381351690602001351515612db4565b3480156109c757600080fd5b5061026361331d565b3480156109dc57600080fd5b5061021d613323565b3480156109f157600080fd5b5061021d613332565b6000600a8281548110610a0957fe5b60009182526020909120600490910201600301546001600160a01b031692915050565b6000600a8281548110610a3b57fe5b9060005260206000209060040201600001549050919050565b60015460408051600160e31b6227050b028152600160f21b61151102600482015290516001600160a01b0390921691630138285891602480820192602092909190829003018186803b158015610aa957600080fd5b505afa158015610abd573d6000803e3d6000fd5b505050506040513d6020811015610ad357600080fd5b5051600480546001600160a01b0319166001600160a01b0392831617815560015460408051600160e31b6227050b028152600160f11b6121a9029381019390935251921691630138285891602480820192602092909190829003018186803b158015610b3e57600080fd5b505afa158015610b52573d6000803e3d6000fd5b505050506040513d6020811015610b6857600080fd5b5051600680546001600160a01b0319166001600160a01b0392831617905560015460408051600160e31b6227050b028152600160f21b611451026004820152905191909216916301382858916024808301926020929190829003018186803b158015610bd357600080fd5b505afa158015610be7573d6000803e3d6000fd5b505050506040513d6020811015610bfd57600080fd5b5051600580546001600160a01b0319166001600160a01b0392831617905560015460408051600160e31b6227050b028152600160f11b6123ab026004820152905191909216916301382858916024808301926020929190829003018186803b158015610c6857600080fd5b505afa158015610c7c573d6000803e3d6000fd5b505050506040513d6020811015610c9257600080fd5b5051600780546001600160a01b0319166001600160a01b0392831617905560015460408051600160e31b6227050b028152600160f11b612a23026004820152905191909216916301382858916024808301926020929190829003018186803b158015610cfd57600080fd5b505afa158015610d11573d6000803e3d6000fd5b505050506040513d6020811015610d2757600080fd5b5051600880546001600160a01b0319166001600160a01b0392831617905560015460408051600160e31b6313aedd4b02815290519190921691639d76ea58916004808301926020929190829003018186803b158015610d8557600080fd5b505afa158015610d99573d6000803e3d6000fd5b505050506040513d6020811015610daf57600080fd5b5051600980546001600160a01b0319166001600160a01b0392831617905560015460408051600160e31b6227050b028152600160f01b615443026004820152905191909216916301382858916024808301926020929190829003018186803b158015610e1a57600080fd5b505afa158015610e2e573d6000803e3d6000fd5b505050506040513d6020811015610e4457600080fd5b5051600380546001600160a01b0319166001600160a01b03909216919091179055565b6001600160a01b038116610e7a57600080fd5b600160009054906101000a90046001600160a01b03166001600160a01b031663ff0938a76040518163ffffffff1660e01b815260040160206040518083038186803b158015610ec857600080fd5b505afa158015610edc573d6000803e3d6000fd5b505050506040513d6020811015610ef257600080fd5b505115610f495760408051600160e51b62461bcd02815260206004820152601760248201527f456d657267656e6379205061757365204170706c696564000000000000000000604482015290519081900360640190fd5b60015460408051600160e31b6227050b028152600160f21b61145502600482015290516001600160a01b0390921691630138285891602480820192602092909190829003018186803b158015610f9e57600080fd5b505afa158015610fb2573d6000803e3d6000fd5b505050506040513d6020811015610fc857600080fd5b50516001600160a01b03163314156111d5576004805460408051600160e11b63356ad9f502815290516000936001600160a01b0390931692636ad5b3ea92808201926020929091829003018186803b15801561102357600080fd5b505afa158015611037573d6000803e3d6000fd5b505050506040513d602081101561104d57600080fd5b50516001600160a01b031614156110ae5760408051600160e51b62461bcd02815260206004820152601860248201527f4e6f2077616c6c6574416464726573732070726573656e740000000000000000604482015290519081900360640190fd5b60035460408051600160e01b63e43252d70281526001600160a01b0384811660048301529151919092169163e43252d791602480830192600092919082900301818387803b1580156110ff57600080fd5b505af1158015611113573d6000803e3d6000fd5b506111289250839150600290505b6001613341565b6004805460408051600160e11b63356ad9f502815290516001600160a01b0390921692636ad5b3ea928282019260209290829003018186803b15801561116d57600080fd5b505afa158015611181573d6000803e3d6000fd5b505050506040513d602081101561119757600080fd5b50516040516001600160a01b03909116903480156108fc02916000818181858888f193505050501580156111cf573d6000803e3d6000fd5b506113ce565b60055460408051600160e11b636f3adaf50281526001600160a01b0384811660048301529151919092169163de75b5ea916024808301926020929190829003018186803b15801561122557600080fd5b505afa158015611239573d6000803e3d6000fd5b505050506040513d602081101561124f57600080fd5b50511561125b57600080fd5b60015460408051600160e21b63288c31490281526001600160a01b0384811660048301529151919092169163a230c524916024808301926020929190829003018186803b1580156112ab57600080fd5b505afa1580156112bf573d6000803e3d6000fd5b505050506040513d60208110156112d557600080fd5b5051156112e157600080fd5b6004805460408051600160e01b636eeeaaa502815290516001600160a01b0390921692636eeeaaa5928282019260209290829003018186803b15801561132657600080fd5b505afa15801561133a573d6000803e3d6000fd5b505050506040513d602081101561135057600080fd5b5051341461135d57600080fd5b60055460408051600160e21b633d8ea1f50281526001600160a01b038481166004830152600160248301529151919092169163f63a87d491604480830192600092919082900301818387803b1580156113b557600080fd5b505af11580156113c9573d6000803e3d6000fd5b505050505b50565b600b5460ff16156113e157600080fd5b6113eb8282613537565b5050600b805460ff19166001179055565b6009546001600160a01b031681565b6000805460408051600160e31b6227050b028152600160f11b6123ab02600482015290516001600160a01b03928316928516918391630138285891602480820192602092909190829003018186803b15801561146657600080fd5b505afa15801561147a573d6000803e3d6000fd5b505050506040513d602081101561149057600080fd5b50516001600160a01b0316149392505050565b60005460408051600160e31b6227050b028152600160f11b6123ab02600482015290516001600160a01b039092169133918391630138285891602480820192602092909190829003018186803b1580156114fc57600080fd5b505afa158015611510573d6000803e3d6000fd5b505050506040513d602081101561152657600080fd5b50516001600160a01b0316146115865760408051600160e51b62461bcd02815260206004820152600e60248201527f4e6f7420617574686f72697a6564000000000000000000000000000000000000604482015290519081900360640190fd5b61159184848461365e565b50505050565b8160006001600160a01b0316600a82815481106115b057fe5b60009182526020909120600360049092020101546001600160a01b03161461160c57600a81815481106115df57fe5b60009182526020909120600490910201600301546001600160a01b0316331461160757600080fd5b61165d565b6116153361140b565b61165d5760408051600160e51b62461bcd02815260206004820152600e6024820152600160921b6d139bdd08105d5d1a1bdc9a5e995902604482015290519081900360640190fd5b611591848484613341565b600c5481565b600160009054906101000a90046001600160a01b03166001600160a01b031663ff0938a76040518163ffffffff1660e01b815260040160206040518083038186803b1580156116bc57600080fd5b505afa1580156116d0573d6000803e3d6000fd5b505050506040513d60208110156116e657600080fd5b505115801561176b575060015460408051600160e21b63288c314902815233600482015290516001600160a01b039092169163a230c52491602480820192602092909190829003018186803b15801561173e57600080fd5b505afa158015611752573d6000803e3d6000fd5b505050506040513d602081101561176857600080fd5b50515b80156117f0575060015460408051600160e21b63288c31490281526001600160a01b0384811660048301529151919092169163a230c524916024808301926020929190829003018186803b1580156117c257600080fd5b505afa1580156117d6573d6000803e3d6000fd5b505050506040513d60208110156117ec57600080fd5b5051155b6117f957600080fd5b60035460408051600160e11b631c840dc902815233600482015242602482015290516001600160a01b03909216916339081b9291604480820192602092909190829003018186803b15801561184d57600080fd5b505afa158015611861573d6000803e3d6000fd5b505050506040513d602081101561187757600080fd5b50511561188357600080fd5b60085460408051600160e11b63562d6d7b02815233600482015290516001600160a01b039092169163ac5adaf691602480820192602092909190829003018186803b1580156118d157600080fd5b505afa1580156118e5573d6000803e3d6000fd5b505050506040513d60208110156118fb57600080fd5b50511561190757600080fd5b60065460408051600160e11b631ad7d8a702815233600482015290516001600160a01b03909216916335afb14e91602480820192602092909190829003018186803b15801561195557600080fd5b505afa158015611969573d6000803e3d6000fd5b505050506040513d602081101561197f57600080fd5b50511561198b57600080fd5b60035460408051600160e31b630a529a1d028152336004820152600160e81b62434c4102602482015290516001600160a01b0390921691635294d0e891604480820192602092909190829003018186803b1580156119e857600080fd5b505afa1580156119fc573d6000803e3d6000fd5b505050506040513d6020811015611a1257600080fd5b505115611a5357604051600160e51b62461bcd02815260040180806020018281038252602b815260200180613ab6602b913960400191505060405180910390fd5b60075460408051600160e01b63f0466c7302815233600482015290516001600160a01b039092169163f0466c739160248082019260009290919082900301818387803b158015611aa257600080fd5b505af1158015611ab6573d6000803e3d6000fd5b505060035460408051600160e01b63e43252d70281526001600160a01b038681166004830152915191909216935063e43252d79250602480830192600092919082900301818387803b158015611b0b57600080fd5b505af1158015611b1f573d6000803e3d6000fd5b50611b31925083915060029050611121565b60095460408051600160e01b6370a08231028152336004820181905291516001600160a01b03909316926323b872dd9291859185916370a08231916024808301926020929190829003018186803b158015611b8b57600080fd5b505afa158015611b9f573d6000803e3d6000fd5b505050506040513d6020811015611bb557600080fd5b50516040805163ffffffff861660e01b81526001600160a01b0394851660048201529290931660248301526044820152905160648083019260209291908290030181600087803b158015611c0857600080fd5b505af1158015611c1c573d6000803e3d6000fd5b505050506040513d6020811015611c3257600080fd5b50611c4390503360025b6000613341565b60035460408051600160e01b638ab1d68102815233600482015290516001600160a01b0390921691638ab1d6819160248082019260009290919082900301818387803b158015611c9257600080fd5b505af1158015611ca6573d6000803e3d6000fd5b50506040805142815290516001600160a01b03851693503392507f192a4c3625bef7938e23abe9b048e44af0928d8ea055694936e5269479ae2ca19181900360200190a350565b600081611cfc57506001611d46565b600a8281548110611d0957fe5b600091825260208083206001600160a01b03871684526001600490930201919091019052604090205460ff1615611d4257506001611d46565b5060005b92915050565b600060606000600a8481548110611d5f57fe5b60009182526020822060026004909202010154600a8054919350829187908110611d8557fe5b906000526020600020906004020160000154604051908082528060200260200182016040528015611dc0578160200160208202803883390190505b509350600091505b82821015611e9f576000600a8781548110611ddf57fe5b90600052602060002090600402016002018381548110611dfb57fe5b600091825260209091200154600a80546001600160a01b0390921692509088908110611e2357fe5b600091825260208083206001600160a01b03851684526001600490930201919091019052604090205460ff168015611e625750611e6081866137d8565b155b15611e935780858381518110611e7457fe5b6001600160a01b03909216602092830291909101909101526001909101905b50600190910190611dc8565b508493505050915091565b60015460408051600160e11b6317aa5fb702815233600482015290516001600160a01b0390921691632f54bf6e91602480820192602092909190829003018186803b158015611ef857600080fd5b505afa158015611f0c573d6000803e3d6000fd5b505050506040513d6020811015611f2257600080fd5b5051611f2d57600080fd5b600160009054906101000a90046001600160a01b03166001600160a01b031663c15041d56040518163ffffffff1660e01b815260040160206040518083038186803b158015611f7b57600080fd5b505afa158015611f8f573d6000803e3d6000fd5b505050506040513d6020811015611fa557600080fd5b5051611fb057600080fd5b611fc3611fbd6001610a2c565b8261382a565b600c541015611fd157600080fd5b60005b8181101561204a5761200d838383818110611feb57fe5b905060200201356001600160a01b03166002600381111561200857fe5b611ced565b61201657600080fd5b61204283838381811061202557fe5b905060200201356001600160a01b03166001600381111561112157fe5b600101611fd4565b505050565b600a54604080518281526020808402820101909152606091801561207d578160200160208202803883390190505b50905060005b600a548110156120b55761209681610a2c565b8282815181106120a257fe5b6020908102919091010152600101612083565b5090565b60015460408051600160e11b6317aa5fb702815233600482015290516001600160a01b0390921691632f54bf6e91602480820192602092909190829003018186803b15801561210757600080fd5b505afa15801561211b573d6000803e3d6000fd5b505050506040513d602081101561213157600080fd5b505161213c57600080fd5b600d5460ff161561214c57600080fd5b60005b82518110156123605760015483516001600160a01b039091169063a230c5249085908490811061217b57fe5b60200260200101516040518263ffffffff1660e01b815260040180826001600160a01b03166001600160a01b0316815260200191505060206040518083038186803b1580156121c957600080fd5b505afa1580156121dd573d6000803e3d6000fd5b505050506040513d60208110156121f357600080fd5b5051156121ff57600080fd5b60035483516001600160a01b039091169063e43252d79085908490811061222257fe5b60200260200101516040518263ffffffff1660e01b815260040180826001600160a01b03166001600160a01b03168152602001915050600060405180830381600087803b15801561227257600080fd5b505af1158015612286573d6000803e3d6000fd5b505050506122ae83828151811061229957fe5b60200260200101516002600381111561112157fe5b60035483516001600160a01b03909116906340c10f19908590849081106122d157fe5b60200260200101518484815181106122e557fe5b60200260200101516040518363ffffffff1660e01b815260040180836001600160a01b03166001600160a01b0316815260200182815260200192505050600060405180830381600087803b15801561233c57600080fd5b505af1158015612350573d6000803e3d6000fd5b50506001909201915061214f9050565b5050600d805460ff191660011790555042600e55565b600a545b90565b600d5460ff1681565b6000600a828154811061239557fe5b600091825260209091206002600490920201015492915050565b60015460408051600160e21b6323c5b10702815233600482015290516001600160a01b0390921691638f16c41c91602480820192602092909190829003018186803b1580156123fd57600080fd5b505afa158015612411573d6000803e3d6000fd5b505050506040513d602081101561242757600080fd5b505161243257600080fd5b600c55565b6001546001600160a01b0316331461244e57600080fd5b60015460408051600160e01b638da5cb5b02815290516124ca926001600160a01b031691638da5cb5b916004808301926020929190829003018186803b15801561249757600080fd5b505afa1580156124ab573d6000803e3d6000fd5b505050506040513d60208110156124c157600080fd5b50516003611c3c565b6113ce816003611121565b600a54604080518281526020808402820101909152606091908290828015612507578160200160208202803883390190505b509050600060015b8381101561257c57600a818154811061252457fe5b600091825260208083206001600160a01b038a1684526001600490930201919091019052604090205460ff1615612574578083838151811061256257fe5b60209081029190910101526001909101905b60010161250f565b5090949350505050565b6001546001600160a01b031681565b8160006001600160a01b0316600a82815481106125ae57fe5b60009182526020909120600360049092020101546001600160a01b03161461260a57600a81815481106125dd57fe5b60009182526020909120600490910201600301546001600160a01b0316331461260557600080fd5b61265b565b6126133361140b565b61265b5760408051600160e51b62461bcd02815260206004820152600e6024820152600160921b6d139bdd08105d5d1a1bdc9a5e995902604482015290519081900360640190fd5b81600a848154811061266957fe5b906000526020600020906004020160030160006101000a8154816001600160a01b0302191690836001600160a01b03160217905550505050565b600160009054906101000a90046001600160a01b03166001600160a01b031663ff0938a76040518163ffffffff1660e01b815260040160206040518083038186803b1580156126f157600080fd5b505afa158015612705573d6000803e3d6000fd5b505050506040513d602081101561271b57600080fd5b50511580156127a0575060015460408051600160e21b63288c314902815233600482015290516001600160a01b039092169163a230c52491602480820192602092909190829003018186803b15801561277357600080fd5b505afa158015612787573d6000803e3d6000fd5b505050506040513d602081101561279d57600080fd5b50515b6127a957600080fd5b60035460408051600160e11b631c840dc902815233600482015242602482015290516001600160a01b03909216916339081b9291604480820192602092909190829003018186803b1580156127fd57600080fd5b505afa158015612811573d6000803e3d6000fd5b505050506040513d602081101561282757600080fd5b50511561283357600080fd5b60085460408051600160e11b63562d6d7b02815233600482015290516001600160a01b039092169163ac5adaf691602480820192602092909190829003018186803b15801561288157600080fd5b505afa158015612895573d6000803e3d6000fd5b505050506040513d60208110156128ab57600080fd5b5051156128b757600080fd5b60065460408051600160e11b631ad7d8a702815233600482015290516001600160a01b03909216916335afb14e91602480820192602092909190829003018186803b15801561290557600080fd5b505afa158015612919573d6000803e3d6000fd5b505050506040513d602081101561292f57600080fd5b50511561293b57600080fd5b60035460408051600160e31b630a529a1d028152336004820152600160e81b62434c4102602482015290516001600160a01b0390921691635294d0e891604480820192602092909190829003018186803b15801561299857600080fd5b505afa1580156129ac573d6000803e3d6000fd5b505050506040513d60208110156129c257600080fd5b505115612a0357604051600160e51b62461bcd02815260040180806020018281038252602b815260200180613ab6602b913960400191505060405180910390fd5b60075460408051600160e01b63f0466c7302815233600482015290516001600160a01b039092169163f0466c739160248082019260009290919082900301818387803b158015612a5257600080fd5b505af1158015612a66573d6000803e3d6000fd5b505060035460095460408051600160e01b6370a08231028152336004820181905291516001600160a01b0394851696506379cc679095509193909216916370a08231916024808301926020929190829003018186803b158015612ac857600080fd5b505afa158015612adc573d6000803e3d6000fd5b505050506040513d6020811015612af257600080fd5b50516040805163ffffffff851660e01b81526001600160a01b03909316600484015260248301919091525160448083019260209291908290030181600087803b158015612b3e57600080fd5b505af1158015612b52573d6000803e3d6000fd5b505050506040513d6020811015612b6857600080fd5b50612b769050336002611c3c565b60035460408051600160e01b638ab1d68102815233600482015290516001600160a01b0390921691638ab1d6819160248082019260009290919082900301818387803b158015612bc557600080fd5b505af1158015611591573d6000803e3d6000fd5b6000806000600a8581548110612beb57fe5b90600052602060002090600402016002018481548110612c0757fe5b600091825260209091200154600a80546001600160a01b039092169250829187908110612c3057fe5b600091825260208083206001600160a01b039095168352600160049092029094010190925260409091205490925060ff1690509250929050565b600160006001600160a01b0316600a8281548110612c8457fe5b60009182526020909120600360049092020101546001600160a01b031614612ce057600a8181548110612cb357fe5b60009182526020909120600490910201600301546001600160a01b03163314612cdb57600080fd5b612d31565b612ce93361140b565b612d315760408051600160e51b62461bcd02815260206004820152600e6024820152600160921b6d139bdd08105d5d1a1bdc9a5e995902604482015290519081900360640190fd5b612d3c836001611121565b61204a826001611c3c565b6000546001600160a01b031681565b6000546001600160a01b031615612d7e576000546001600160a01b03163314612d7e57600080fd5b600080546001600160a01b039092166001600160a01b031992831681179091556001805483168217905560028054909216179055565b600560009054906101000a90046001600160a01b03166001600160a01b03166384434b9f6040518163ffffffff1660e01b815260040160206040518083038186803b158015612e0257600080fd5b505afa158015612e16573d6000803e3d6000fd5b505050506040513d6020811015612e2c57600080fd5b50516001600160a01b03163314612e4257600080fd5b600160009054906101000a90046001600160a01b03166001600160a01b031663ff0938a76040518163ffffffff1660e01b815260040160206040518083038186803b158015612e9057600080fd5b505afa158015612ea4573d6000803e3d6000fd5b505050506040513d6020811015612eba57600080fd5b505115612ec657600080fd5b6001600160a01b038216612ed957600080fd5b60015460408051600160e21b63288c31490281526001600160a01b0385811660048301529151919092169163a230c524916024808301926020929190829003018186803b158015612f2957600080fd5b505afa158015612f3d573d6000803e3d6000fd5b505050506040513d6020811015612f5357600080fd5b505115612f5f57600080fd5b60055460408051600160e11b636f3adaf50281526001600160a01b0385811660048301529151919092169163de75b5ea916024808301926020929190829003018186803b158015612faf57600080fd5b505afa158015612fc3573d6000803e3d6000fd5b505050506040513d6020811015612fd957600080fd5b5051612fe457600080fd5b80156131fc5760055460408051600160e21b633d8ea1f50281526001600160a01b038581166004830152600060248301819052925193169263f63a87d49260448084019391929182900301818387803b15801561304057600080fd5b505af1158015613054573d6000803e3d6000fd5b505050506000600460009054906101000a90046001600160a01b03166001600160a01b0316636eeeaaa56040518163ffffffff1660e01b815260040160206040518083038186803b1580156130a857600080fd5b505afa1580156130bc573d6000803e3d6000fd5b505050506040513d60208110156130d257600080fd5b505160035460408051600160e01b63e43252d70281526001600160a01b038781166004830152915193945091169163e43252d79160248082019260009290919082900301818387803b15801561312757600080fd5b505af115801561313b573d6000803e3d6000fd5b5061314d925085915060029050611121565b6004805460408051600160e11b63356ad9f502815290516001600160a01b0390921692636ad5b3ea928282019260209290829003018186803b15801561319257600080fd5b505afa1580156131a6573d6000803e3d6000fd5b505050506040513d60208110156131bc57600080fd5b50516040516001600160a01b039091169082156108fc029083906000818181858888f193505050501580156131f5573d6000803e3d6000fd5b5050613319565b60055460408051600160e21b633d8ea1f50281526001600160a01b038581166004830152600060248301819052925193169263f63a87d49260448084019391929182900301818387803b15801561325257600080fd5b505af1158015613266573d6000803e3d6000fd5b50505050816001600160a01b03166108fc600460009054906101000a90046001600160a01b03166001600160a01b0316636eeeaaa56040518163ffffffff1660e01b815260040160206040518083038186803b1580156132c557600080fd5b505afa1580156132d9573d6000803e3d6000fd5b505050506040513d60208110156132ef57600080fd5b50516040518115909202916000818181858888f1935050505015801561204a573d6000803e3d6000fd5b5050565b600e5481565b6003546001600160a01b031681565b6002546001600160a01b031681565b801561346b57600a828154811061335457fe5b600091825260208083206001600160a01b03871684526001600490930201919091019052604090205460ff161561338a57600080fd5b6133b3600a838154811061339a57fe5b906000526020600020906004020160000154600161382a565b600a83815481106133c057fe5b9060005260206000209060040201600001819055506001600a83815481106133e457fe5b600091825260208083206001600160a01b0388168452600492909202909101600101905260409020805460ff1916911515919091179055600a80548390811061342957fe5b60009182526020808320600492909202909101600201805460018101825590835291200180546001600160a01b0319166001600160a01b03851617905561204a565b600a828154811061347857fe5b600091825260208083206001600160a01b03871684526001600490930201919091019052604090205460ff166134ad57600080fd5b6134d6600a83815481106134bd57fe5b906000526020600020906004020160000154600161388e565b600a83815481106134e357fe5b6000918252602090912060049091020155600a80548390811061350257fe5b600091825260208083206001600160a01b0387168452600160049093020191909101905260409020805460ff19169055505050565b6005600c5560408051808201909152600a8152600160b21b69155b985cdcda59db9959026020820181905261356d91600061365e565b6135b27f41647669736f727920426f61726400000000000000000000000000000000000060405180610100016040528060d181526020016139e560d19139600061365e565b6135fe600160d11b6526b2b6b132b9026040518060400160405280601f81526020017f526570726573656e747320616c6c207573657273206f66204d757475616c2e008152508361365e565b61364a600160d91b6427bbb732b9026040518060400160405280601b81526020017f526570726573656e7473204f776e6572206f66204d757475616c2e0000000000815250600061365e565b613655826003611121565b50506000600e55565b600a805490507fe2981862bbf692aa30ba39d4eca9c69e5dcebf3eae5fb93332940c23c1c4c3c584846040518083815260200180602001828103825283818151815260200191508051906020019080838360005b838110156136ca5781810151838201526020016136b2565b50505050905090810190601f1680156136f75780820380516001836020036101000a031916815260200191505b50935050505060405180910390a26040805160608101825260008082528251818152602080820185528084019182526001600160a01b03861694840194909452600a80546001810180835591909352835160049093027fc65a7bb8d6351c1cf70c95a316cc6a92839c986682d98bc35f958f4883f9d2a881019384559151805191956137a8937fc65a7bb8d6351c1cf70c95a316cc6a92839c986682d98bc35f958f4883f9d2aa0192910190613965565b5060409190910151600390910180546001600160a01b0319166001600160a01b0390921691909117905550505050565b6000805b825181101561382357836001600160a01b03168382815181106137fb57fe5b60200260200101516001600160a01b0316141561381b5760019150613823565b6001016137dc565b5092915050565b6000828201838110156138875760408051600160e51b62461bcd02815260206004820152601b60248201527f536166654d6174683a206164646974696f6e206f766572666c6f770000000000604482015290519081900360640190fd5b9392505050565b600061388783836040518060400160405280601e81526020017f536166654d6174683a207375627472616374696f6e206f766572666c6f7700008152506000818484111561395d57604051600160e51b62461bcd0281526004018080602001828103825283818151815260200191508051906020019080838360005b8381101561392257818101518382015260200161390a565b50505050905090810190601f16801561394f5780820380516001836020036101000a031916815260200191505b509250505060405180910390fd5b505050900390565b8280548282559060005260206000209081019282156139ba579160200282015b828111156139ba57825182546001600160a01b0319166001600160a01b03909116178255602090920191600190910190613985565b506120b59261237a9250905b808211156120b55780546001600160a01b03191681556001016139c656fe53656c656374656420666577206d656d6265727320746861742061726520646565706c7920656e747275737465642062792074686520644170702e20416e20696465616c2061647669736f727920626f6172642073686f756c642062652061206d6978206f6620736b696c6c73206f6620646f6d61696e2c20676f7665726e616e63652c2072657365617263682c20746563686e6f6c6f67792c20636f6e73756c74696e672065746320746f20696d70726f76652074686520706572666f726d616e6365206f662074686520644170702e4d656d6265722073686f756c642068617665206e6f20434c4120756e6c6f636b61626c6520746f6b656e73a165627a7a72305820b22229184a264cca10e0743f38bdc1c806558e7e90b553adbe048b07c37173c90029",
  "compiler": {
    "name": "solc",
    "version": "0.5.7+commit.6da8b019.Emscripten.clang",
    "optimizer": {
      "enabled": true,
      "runs": 200
    },
    "evmVersion": "petersburg"
  }
}