{
  "fileName": "NXMDSValue.sol",
  "contractName": "NXMDSValue",
  "source": "/* Copyright (C) 2020 NexusMutual.io\n\n  This program is free software: you can redistribute it and/or modify\n    it under the terms of the GNU General Public License as published by\n    the Free Software Foundation, either version 3 of the License, or\n    (at your option) any later version.\n\n  This program is distributed in the hope that it will be useful,\n    but WITHOUT ANY WARRANTY; without even the implied warranty of\n    MERCHANTABILITY or FITNESS FOR A PARTICULAR PURPOSE.  See the\n    GNU General Public License for more details.\n\n  You should have received a copy of the GNU General Public License\n    along with this program.  If not, see http://www.gnu.org/licenses/ */\n\npragma solidity ^0.5.0;\n\nimport \"@openzeppelin/contracts/math/SafeMath.sol\";\n\ncontract Aggregator {\n  function latestAnswer() public view returns (int);\n}\n\ncontract NXMDSValue {\n\n  using SafeMath for uint;\n\n  /// @dev Get DAI-ETH feed from Chainlink and convert it to ETH-DAI(in bytes32).\n  /// @return Return ETH-DAI rate in wei.\n  function read() public view returns (bytes32)\n  {\n\n    // Instance to get DAI-ETH feed from chainlink.\n    Aggregator aggregator = Aggregator(0x773616E4d11A78F511299002da57A0a94577F1f4);\n    int rate = aggregator.latestAnswer();\n\n    // Chainlink returns an int256. Ensure the value is always positive.\n    require(rate > 0, \"Rate should be a positive integer\");\n\n    // Reciprocating the obtained value because DSValue requires the value to be in format (ETH-DAI).\n    // Convert value to bytes32 to follow the DSValue format.\n    return bytes32(uint(10 ** 36).div(uint(rate)));\n  }\n}\n",
  "sourcePath": "contracts/modules/capital/NXMDSValue.sol",
  "abi": [
    {
      "constant": true,
      "inputs": [],
      "name": "read",
      "outputs": [
        {
          "name": "",
          "type": "bytes32"
        }
      ],
      "payable": false,
      "stateMutability": "view",
      "type": "function"
    }
  ],
  "bytecode": "0x608060405234801561001057600080fd5b50610270806100206000396000f3fe608060405234801561001057600080fd5b506004361061002b5760003560e01c806357de26a414610030575b600080fd5b61003861004a565b60408051918252519081900360200190f35b60008073773616e4d11a78f511299002da57a0a94577f1f490506000816001600160a01b03166350d25bcd6040518163ffffffff1660e01b815260040160206040518083038186803b15801561009f57600080fd5b505afa1580156100b3573d6000803e3d6000fd5b505050506040513d60208110156100c957600080fd5b505190506000811361010f57604051600160e51b62461bcd0281526004018080602001828103825260218152602001806102246021913960400191505060405180910390fd5b61012e6ec097ce7bc90715b34b9f10000000008263ffffffff61013516565b9250505090565b600061017783836040518060400160405280601a81526020017f536166654d6174683a206469766973696f6e206279207a65726f00000000000081525061017e565b9392505050565b6000818361020d57604051600160e51b62461bcd0281526004018080602001828103825283818151815260200191508051906020019080838360005b838110156101d25781810151838201526020016101ba565b50505050905090810190601f1680156101ff5780820380516001836020036101000a031916815260200191505b509250505060405180910390fd5b50600083858161021957fe5b049594505050505056fe526174652073686f756c64206265206120706f73697469766520696e7465676572a165627a7a723058204f852e21aa8e35f016253ebb78cb8e163fb0a291a1c223b3d17d5ffdaa7595c30029",
  "compiler": {
    "name": "solc",
    "version": "0.5.7+commit.6da8b019.Emscripten.clang",
    "optimizer": {
      "enabled": true,
      "runs": 200
    },
    "evmVersion": "petersburg"
  }
}