{
  "fileName": "NXMDSValueMock.sol",
  "contractName": "NXMDSValueMock",
  "source": "pragma solidity ^0.5.0;\n\nimport \"@openzeppelin/contracts/math/SafeMath.sol\";\n\ncontract NXMDSValueMock {\n  using SafeMath for uint;\n\n  int public rate;\n  address public owner;\n  bool internal zeroRate;\n\n  constructor(address _owner) public {\n    rate = int(uint(10 ** 18).div(120));\n    owner = _owner;\n  }\n\n  function read() public view returns (bytes32) {\n\n    if (zeroRate) {\n      return bytes32(0);\n    }\n\n    return bytes32(uint(10 ** 36).div(uint(rate)));\n  }\n\n  function setZeroRate(bool _zeroRate) public {\n    require(msg.sender == owner);\n    zeroRate = _zeroRate;\n  }\n\n  function setRate(uint value) public {\n    require(msg.sender == owner);\n    rate = int(uint(10 ** 18).div(value));\n  }\n}\n",
  "sourcePath": "contracts/mocks/NXMDSValueMock.sol",
  "abi": [
    {
      "constant": true,
      "inputs": [],
      "name": "rate",
      "outputs": [
        {
          "name": "",
          "type": "int256"
        }
      ],
      "payable": false,
      "stateMutability": "view",
      "type": "function"
    },
    {
      "constant": false,
      "inputs": [
        {
          "name": "value",
          "type": "uint256"
        }
      ],
      "name": "setRate",
      "outputs": [],
      "payable": false,
      "stateMutability": "nonpayable",
      "type": "function"
    },
    {
      "constant": false,
      "inputs": [
        {
          "name": "_zeroRate",
          "type": "bool"
        }
      ],
      "name": "setZeroRate",
      "outputs": [],
      "payable": false,
      "stateMutability": "nonpayable",
      "type": "function"
    },
    {
      "constant": true,
      "inputs": [],
      "name": "read",
      "outputs": [
        {
          "name": "",
          "type": "bytes32"
        }
      ],
      "payable": false,
      "stateMutability": "view",
      "type": "function"
    },
    {
      "constant": true,
      "inputs": [],
      "name": "owner",
      "outputs": [
        {
          "name": "",
          "type": "address"
        }
      ],
      "payable": false,
      "stateMutability": "view",
      "type": "function"
    },
    {
      "inputs": [
        {
          "name": "_owner",
          "type": "address"
        }
      ],
      "payable": false,
      "stateMutability": "nonpayable",
      "type": "constructor"
    }
  ],
  "bytecode": "0x608060405234801561001057600080fd5b506040516020806104628339810180604052602081101561003057600080fd5b5051610050670de0b6b3a76400006078610078602090811b6101b617901c565b600055600180546001600160a01b0319166001600160a01b0392909216919091179055610183565b60006100c083836040518060400160405280601a81526020017f536166654d6174683a206469766973696f6e206279207a65726f0000000000008152506100c760201b60201c565b9392505050565b6000818361016d576040517f08c379a00000000000000000000000000000000000000000000000000000000081526004018080602001828103825283818151815260200191508051906020019080838360005b8381101561013257818101518382015260200161011a565b50505050905090810190601f16801561015f5780820380516001836020036101000a031916815260200191505b509250505060405180910390fd5b50600083858161017957fe5b0495945050505050565b6102d0806101926000396000f3fe608060405234801561001057600080fd5b50600436106100575760003560e01c80632c4e722e1461005c57806334fcf437146100765780633af1b7411461009557806357de26a4146100b45780638da5cb5b146100bc575b600080fd5b6100646100e0565b60408051918252519081900360200190f35b6100936004803603602081101561008c57600080fd5b50356100e6565b005b610093600480360360208110156100ab57600080fd5b5035151561011b565b610064610161565b6100c46101a7565b604080516001600160a01b039092168252519081900360200190f35b60005481565b6001546001600160a01b031633146100fd57600080fd5b610115670de0b6b3a76400008263ffffffff6101b616565b60005550565b6001546001600160a01b0316331461013257600080fd5b60018054911515600160a01b0274ff000000000000000000000000000000000000000019909216919091179055565b600154600090600160a01b900460ff161561017e575060006101a4565b6000546101a1906ec097ce7bc90715b34b9f10000000009063ffffffff6101b616565b90505b90565b6001546001600160a01b031681565b60006101f883836040518060400160405280601a81526020017f536166654d6174683a206469766973696f6e206279207a65726f0000000000008152506101ff565b9392505050565b6000818361028e57604051600160e51b62461bcd0281526004018080602001828103825283818151815260200191508051906020019080838360005b8381101561025357818101518382015260200161023b565b50505050905090810190601f1680156102805780820380516001836020036101000a031916815260200191505b509250505060405180910390fd5b50600083858161029a57fe5b049594505050505056fea165627a7a7230582098fdac8a01d91324b16ce62a911e3f039c11130eb1fa238d5a4b50304e6c14a00029",
  "compiler": {
    "name": "solc",
    "version": "0.5.7+commit.6da8b019.Emscripten.clang",
    "optimizer": {
      "enabled": true,
      "runs": 200
    },
    "evmVersion": "petersburg"
  }
}