{
  "fileName": "NXMTokenMock.sol",
  "contractName": "NXMTokenMock",
  "source": "/*\n    Copyright (C) 2020 NexusMutual.io\n\n    This program is free software: you can redistribute it and/or modify\n    it under the terms of the GNU General Public License as published by\n    the Free Software Foundation, either version 3 of the License, or\n    (at your option) any later version.\n\n    This program is distributed in the hope that it will be useful,\n    but WITHOUT ANY WARRANTY; without even the implied warranty of\n    MERCHANTABILITY or FITNESS FOR A PARTICULAR PURPOSE.  See the\n    GNU General Public License for more details.\n\n    You should have received a copy of the GNU General Public License\n    along with this program.  If not, see http://www.gnu.org/licenses/\n*/\n\npragma solidity ^0.5.0;\n\nimport \"@openzeppelin/contracts/token/ERC20/ERC20.sol\";\nimport \"../abstract/INXMToken.sol\";\n\ncontract NXMTokenMock is INXMToken, ERC20 {\n\n  mapping(address => bool) public isLockedForMV;\n  address public operator;\n\n  function setLock(address _member, bool _lock) public {\n    isLockedForMV[_member] = _lock;\n  }\n\n  function setOperator(address _operator) public {\n    operator = _operator;\n  }\n\n  function operatorTransfer(address from, uint256 amount) public returns (bool) {\n    require(msg.sender == operator, \"Only operator can call operatorTransfer\");\n    _approve(from, msg.sender, allowance(from, msg.sender).sub(amount, \"ERC20: transfer amount exceeds allowance\"));\n    _transfer(from, operator, amount);\n    return true;\n  }\n\n  function transfer(address to, uint256 amount) public returns (bool) {\n    require(!isLockedForMV[msg.sender], \"Member should not be locked for member voting\");\n    _transfer(msg.sender, to, amount);\n    return true;\n  }\n\n  function transferFrom(address from, address to, uint256 amount) public returns (bool) {\n    require(!isLockedForMV[from], \"Member should not be locked for member voting\");\n    _approve(from, msg.sender, allowance(from, msg.sender).sub(amount, \"ERC20: transfer amount exceeds allowance\"));\n    _transfer(from, to, amount);\n    return true;\n  }\n\n  // not public in actual implementation\n  function mint(address account, uint256 amount) public {\n    _mint(account, amount);\n  }\n\n  function burn(uint256 amount) public returns (bool) {\n    _burn(msg.sender, amount);\n    return true;\n  }\n\n  function burnFrom(address from, uint256 value) public returns (bool) {\n    _burnFrom(from, value);\n    return true;\n  }\n}\n",
  "sourcePath": "contracts/mocks/NXMTokenMock.sol",
  "abi": [
    {
      "constant": false,
      "inputs": [
        {
          "name": "spender",
          "type": "address"
        },
        {
          "name": "amount",
          "type": "uint256"
        }
      ],
      "name": "approve",
      "outputs": [
        {
          "name": "",
          "type": "bool"
        }
      ],
      "payable": false,
      "stateMutability": "nonpayable",
      "type": "function"
    },
    {
      "constant": true,
      "inputs": [],
      "name": "totalSupply",
      "outputs": [
        {
          "name": "",
          "type": "uint256"
        }
      ],
      "payable": false,
      "stateMutability": "view",
      "type": "function"
    },
    {
      "constant": false,
      "inputs": [
        {
          "name": "from",
          "type": "address"
        },
        {
          "name": "to",
          "type": "address"
        },
        {
          "name": "amount",
          "type": "uint256"
        }
      ],
      "name": "transferFrom",
      "outputs": [
        {
          "name": "",
          "type": "bool"
        }
      ],
      "payable": false,
      "stateMutability": "nonpayable",
      "type": "function"
    },
    {
      "constant": false,
      "inputs": [
        {
          "name": "spender",
          "type": "address"
        },
        {
          "name": "addedValue",
          "type": "uint256"
        }
      ],
      "name": "increaseAllowance",
      "outputs": [
        {
          "name": "",
          "type": "bool"
        }
      ],
      "payable": false,
      "stateMutability": "nonpayable",
      "type": "function"
    },
    {
      "constant": false,
      "inputs": [
        {
          "name": "account",
          "type": "address"
        },
        {
          "name": "amount",
          "type": "uint256"
        }
      ],
      "name": "mint",
      "outputs": [],
      "payable": false,
      "stateMutability": "nonpayable",
      "type": "function"
    },
    {
      "constant": false,
      "inputs": [
        {
          "name": "amount",
          "type": "uint256"
        }
      ],
      "name": "burn",
      "outputs": [
        {
          "name": "",
          "type": "bool"
        }
      ],
      "payable": false,
      "stateMutability": "nonpayable",
      "type": "function"
    },
    {
      "constant": true,
      "inputs": [],
      "name": "operator",
      "outputs": [
        {
          "name": "",
          "type": "address"
        }
      ],
      "payable": false,
      "stateMutability": "view",
      "type": "function"
    },
    {
      "constant": true,
      "inputs": [
        {
          "name": "account",
          "type": "address"
        }
      ],
      "name": "balanceOf",
      "outputs": [
        {
          "name": "",
          "type": "uint256"
        }
      ],
      "payable": false,
      "stateMutability": "view",
      "type": "function"
    },
    {
      "constant": false,
      "inputs": [
        {
          "name": "from",
          "type": "address"
        },
        {
          "name": "value",
          "type": "uint256"
        }
      ],
      "name": "burnFrom",
      "outputs": [
        {
          "name": "",
          "type": "bool"
        }
      ],
      "payable": false,
      "stateMutability": "nonpayable",
      "type": "function"
    },
    {
      "constant": true,
      "inputs": [
        {
          "name": "",
          "type": "address"
        }
      ],
      "name": "isLockedForMV",
      "outputs": [
        {
          "name": "",
          "type": "bool"
        }
      ],
      "payable": false,
      "stateMutability": "view",
      "type": "function"
    },
    {
      "constant": false,
      "inputs": [
        {
          "name": "spender",
          "type": "address"
        },
        {
          "name": "subtractedValue",
          "type": "uint256"
        }
      ],
      "name": "decreaseAllowance",
      "outputs": [
        {
          "name": "",
          "type": "bool"
        }
      ],
      "payable": false,
      "stateMutability": "nonpayable",
      "type": "function"
    },
    {
      "constant": false,
      "inputs": [
        {
          "name": "to",
          "type": "address"
        },
        {
          "name": "amount",
          "type": "uint256"
        }
      ],
      "name": "transfer",
      "outputs": [
        {
          "name": "",
          "type": "bool"
        }
      ],
      "payable": false,
      "stateMutability": "nonpayable",
      "type": "function"
    },
    {
      "constant": false,
      "inputs": [
        {
          "name": "_member",
          "type": "address"
        },
        {
          "name": "_lock",
          "type": "bool"
        }
      ],
      "name": "setLock",
      "outputs": [],
      "payable": false,
      "stateMutability": "nonpayable",
      "type": "function"
    },
    {
      "constant": false,
      "inputs": [
        {
          "name": "from",
          "type": "address"
        },
        {
          "name": "amount",
          "type": "uint256"
        }
      ],
      "name": "operatorTransfer",
      "outputs": [
        {
          "name": "",
          "type": "bool"
        }
      ],
      "payable": false,
      "stateMutability": "nonpayable",
      "type": "function"
    },
    {
      "constant": false,
      "inputs": [
        {
          "name": "_operator",
          "type": "address"
        }
      ],
      "name": "setOperator",
      "outputs": [],
      "payable": false,
      "stateMutability": "nonpayable",
      "type": "function"
    },
    {
      "constant": true,
      "inputs": [
        {
          "name": "owner",
          "type": "address"
        },
        {
          "name": "spender",
          "type": "address"
        }
      ],
      "name": "allowance",
      "outputs": [
        {
          "name": "",
          "type": "uint256"
        }
      ],
      "payable": false,
      "stateMutability": "view",
      "type": "function"
    },
    {
      "anonymous": false,
      "inputs": [
        {
          "indexed": true,
          "name": "from",
          "type": "address"
        },
        {
          "indexed": true,
          "name": "to",
          "type": "address"
        },
        {
          "indexed": false,
          "name": "value",
          "type": "uint256"
        }
      ],
      "name": "Transfer",
      "type": "event"
    },
    {
      "anonymous": false,
      "inputs": [
        {
          "indexed": true,
          "name": "owner",
          "type": "address"
        },
        {
          "indexed": true,
          "name": "spender",
          "type": "address"
        },
        {
          "indexed": false,
          "name": "value",
          "type": "uint256"
        }
      ],
      "name": "Approval",
      "type": "event"
    }
  ],
  "bytecode": "0x6080604052610f03806100136000396000f3fe608060405234801561001057600080fd5b50600436106101005760003560e01c806379cc679011610097578063b03c4b3311610066578063b03c4b3314610300578063b0e65d071461032e578063b3ab15fb1461035a578063dd62ed3e1461038057610100565b806379cc67901461025657806398fd371f14610282578063a457c2d7146102a8578063a9059cbb146102d457610100565b806340c10f19116100d357806340c10f19146101c157806342966c68146101ef578063570ca7351461020c57806370a082311461023057610100565b8063095ea7b31461010557806318160ddd1461014557806323b872dd1461015f5780633950935114610195575b600080fd5b6101316004803603604081101561011b57600080fd5b506001600160a01b0381351690602001356103ae565b604080519115158252519081900360200190f35b61014d6103cb565b60408051918252519081900360200190f35b6101316004803603606081101561017557600080fd5b506001600160a01b038135811691602081013590911690604001356103d1565b610131600480360360408110156101ab57600080fd5b506001600160a01b03813516906020013561047f565b6101ed600480360360408110156101d757600080fd5b506001600160a01b0381351690602001356104d3565b005b6101316004803603602081101561020557600080fd5b50356104e1565b6102146104f5565b604080516001600160a01b039092168252519081900360200190f35b61014d6004803603602081101561024657600080fd5b50356001600160a01b0316610504565b6101316004803603604081101561026c57600080fd5b506001600160a01b03813516906020013561051f565b6101316004803603602081101561029857600080fd5b50356001600160a01b031661052b565b610131600480360360408110156102be57600080fd5b506001600160a01b038135169060200135610540565b610131600480360360408110156102ea57600080fd5b506001600160a01b0381351690602001356105ae565b6101ed6004803603604081101561031657600080fd5b506001600160a01b038135169060200135151561060b565b6101316004803603604081101561034457600080fd5b506001600160a01b038135169060200135610636565b6101ed6004803603602081101561037057600080fd5b50356001600160a01b03166106c9565b61014d6004803603604081101561039657600080fd5b506001600160a01b03813581169160200135166106eb565b60006103c26103bb610716565b848461071a565b50600192915050565b60025490565b6001600160a01b03831660009081526003602052604081205460ff161561042c57604051600160e51b62461bcd02815260040180806020018281038252602d815260200180610d83602d913960400191505060405180910390fd5b61046a843361046585604051806060016040528060288152602001610dfd602891396104588a336106eb565b919063ffffffff61080c16565b61071a565b6104758484846108a6565b5060019392505050565b60006103c261048c610716565b84610465856001600061049d610716565b6001600160a01b03908116825260208083019390935260409182016000908120918c16815292529020549063ffffffff610a0816565b6104dd8282610a6c565b5050565b60006104ed3383610b5f565b506001919050565b6004546001600160a01b031681565b6001600160a01b031660009081526020819052604090205490565b60006103c28383610c5e565b60036020526000908152604090205460ff1681565b60006103c261054d610716565b8461046585604051806060016040528060258152602001610eb36025913960016000610577610716565b6001600160a01b03908116825260208083019390935260409182016000908120918d1681529252902054919063ffffffff61080c16565b3360009081526003602052604081205460ff161561060057604051600160e51b62461bcd02815260040180806020018281038252602d815260200180610d83602d913960400191505060405180910390fd5b6103c23384846108a6565b6001600160a01b03919091166000908152600360205260409020805460ff1916911515919091179055565b6004546000906001600160a01b0316331461068557604051600160e51b62461bcd028152600401808060200182810382526027815260200180610dd66027913960400191505060405180910390fd5b6106b1833361046585604051806060016040528060288152602001610dfd6028913961045889336106eb565b6004546103c29084906001600160a01b0316846108a6565b600480546001600160a01b0319166001600160a01b0392909216919091179055565b6001600160a01b03918216600090815260016020908152604080832093909416825291909152205490565b3390565b6001600160a01b03831661076257604051600160e51b62461bcd028152600401808060200182810382526024815260200180610e8f6024913960400191505060405180910390fd5b6001600160a01b0382166107aa57604051600160e51b62461bcd028152600401808060200182810382526022815260200180610d616022913960400191505060405180910390fd5b6001600160a01b03808416600081815260016020908152604080832094871680845294825291829020859055815185815291517f8c5be1e5ebec7d5bd14f71427d1e84f3dd0314c0f7b2291e5b200ac8c7c3b9259281900390910190a3505050565b6000818484111561089e57604051600160e51b62461bcd0281526004018080602001828103825283818151815260200191508051906020019080838360005b8381101561086357818101518382015260200161084b565b50505050905090810190601f1680156108905780820380516001836020036101000a031916815260200191505b509250505060405180910390fd5b505050900390565b6001600160a01b0383166108ee57604051600160e51b62461bcd028152600401808060200182810382526025815260200180610e6a6025913960400191505060405180910390fd5b6001600160a01b03821661093657604051600160e51b62461bcd028152600401808060200182810382526023815260200180610d1c6023913960400191505060405180910390fd5b61097981604051806060016040528060268152602001610db0602691396001600160a01b038616600090815260208190526040902054919063ffffffff61080c16565b6001600160a01b0380851660009081526020819052604080822093909355908416815220546109ae908263ffffffff610a0816565b6001600160a01b038084166000818152602081815260409182902094909455805185815290519193928716927fddf252ad1be2c89b69c2b068fc378daa952ba7f163c4a11628f55a4df523b3ef92918290030190a3505050565b600082820183811015610a655760408051600160e51b62461bcd02815260206004820152601b60248201527f536166654d6174683a206164646974696f6e206f766572666c6f770000000000604482015290519081900360640190fd5b9392505050565b6001600160a01b038216610aca5760408051600160e51b62461bcd02815260206004820152601f60248201527f45524332303a206d696e7420746f20746865207a65726f206164647265737300604482015290519081900360640190fd5b600254610add908263ffffffff610a0816565b6002556001600160a01b038216600090815260208190526040902054610b09908263ffffffff610a0816565b6001600160a01b0383166000818152602081815260408083209490945583518581529351929391927fddf252ad1be2c89b69c2b068fc378daa952ba7f163c4a11628f55a4df523b3ef9281900390910190a35050565b6001600160a01b038216610ba757604051600160e51b62461bcd028152600401808060200182810382526021815260200180610e496021913960400191505060405180910390fd5b610bea81604051806060016040528060228152602001610d3f602291396001600160a01b038516600090815260208190526040902054919063ffffffff61080c16565b6001600160a01b038316600090815260208190526040902055600254610c16908263ffffffff610cd916565b6002556040805182815290516000916001600160a01b038516917fddf252ad1be2c89b69c2b068fc378daa952ba7f163c4a11628f55a4df523b3ef9181900360200190a35050565b610c688282610b5f565b6104dd82610c74610716565b61046584604051806060016040528060248152602001610e25602491396001600160a01b038816600090815260016020526040812090610cb2610716565b6001600160a01b03168152602081019190915260400160002054919063ffffffff61080c16565b6000610a6583836040518060400160405280601e81526020017f536166654d6174683a207375627472616374696f6e206f766572666c6f77000081525061080c56fe45524332303a207472616e7366657220746f20746865207a65726f206164647265737345524332303a206275726e20616d6f756e7420657863656564732062616c616e636545524332303a20617070726f766520746f20746865207a65726f20616464726573734d656d6265722073686f756c64206e6f74206265206c6f636b656420666f72206d656d62657220766f74696e6745524332303a207472616e7366657220616d6f756e7420657863656564732062616c616e63654f6e6c79206f70657261746f722063616e2063616c6c206f70657261746f725472616e7366657245524332303a207472616e7366657220616d6f756e74206578636565647320616c6c6f77616e636545524332303a206275726e20616d6f756e74206578636565647320616c6c6f77616e636545524332303a206275726e2066726f6d20746865207a65726f206164647265737345524332303a207472616e736665722066726f6d20746865207a65726f206164647265737345524332303a20617070726f76652066726f6d20746865207a65726f206164647265737345524332303a2064656372656173656420616c6c6f77616e63652062656c6f77207a65726fa165627a7a72305820fed2e2a5e7826788fff939ad875767682de43d94ef705d657ea94501f62bc9210029",
  "compiler": {
    "name": "solc",
    "version": "0.5.7+commit.6da8b019.Emscripten.clang",
    "optimizer": {
      "enabled": true,
      "runs": 200
    },
    "evmVersion": "petersburg"
  }
}