{
  "fileName": "PooledStaking.sol",
  "contractName": "PooledStaking",
  "source": "/*\n    Copyright (C) 2020 NexusMutual.io\n\n    This program is free software: you can redistribute it and/or modify\n    it under the terms of the GNU General Public License as published by\n    the Free Software Foundation, either version 3 of the License, or\n    (at your option) any later version.\n\n    This program is distributed in the hope that it will be useful,\n    but WITHOUT ANY WARRANTY; without even the implied warranty of\n    MERCHANTABILITY or FITNESS FOR A PARTICULAR PURPOSE.  See the\n    GNU General Public License for more details.\n\n    You should have received a copy of the GNU General Public License\n    along with this program.  If not, see http://www.gnu.org/licenses/\n*/\n\npragma solidity ^0.5.0;\n\nimport \"@openzeppelin/contracts/math/SafeMath.sol\";\nimport \"../../abstract/MasterAware.sol\";\nimport \"../../interfaces/IPooledStaking.sol\";\nimport \"../claims/ClaimsReward.sol\";\nimport \"../governance/MemberRoles.sol\";\nimport \"../token/NXMToken.sol\";\nimport \"../token/TokenController.sol\";\nimport \"../token/TokenData.sol\";\nimport \"../token/TokenFunctions.sol\";\n\ncontract PooledStaking is MasterAware, IPooledStaking {\n  using SafeMath for uint;\n\n  /* Data types */\n\n  struct Staker {\n    uint deposit; // total amount of deposit nxm\n    uint reward; // total amount that is ready to be claimed\n    address[] contracts; // list of contracts the staker has staked on\n\n    // staked amounts for each contract\n    mapping(address => uint) stakes;\n\n    // amount pending to be subtracted after all unstake requests will be processed\n    mapping(address => uint) pendingUnstakeRequestsTotal;\n\n    // flag to indicate the presence of this staker in the array of stakers of each contract\n    mapping(address => bool) isInContractStakers;\n  }\n\n  struct Burn {\n    uint amount;\n    uint burnedAt;\n    address contractAddress;\n  }\n\n  struct Reward {\n    uint amount;\n    uint rewardedAt;\n    address contractAddress;\n  }\n\n  struct UnstakeRequest {\n    uint amount;\n    uint unstakeAt;\n    address contractAddress;\n    address stakerAddress;\n    uint next; // id of the next unstake request in the linked list\n  }\n\n  struct ContractReward {\n    uint amount;\n    uint lastDistributionRound;\n  }\n\n  /* Events */\n\n  // deposits\n  event Deposited(address indexed staker, uint amount);\n  event Withdrawn(address indexed staker, uint amount);\n\n  // stakes\n  event Staked(address indexed contractAddress, address indexed staker, uint amount);\n  event UnstakeRequested(address indexed contractAddress, address indexed staker, uint amount, uint unstakeAt);\n  event Unstaked(address indexed contractAddress, address indexed staker, uint amount);\n\n  // burns\n  event BurnRequested(address indexed contractAddress, uint amount);\n  event Burned(address indexed contractAddress, uint amount, uint contractStakeBeforeBurn);\n\n  // rewards\n  event RewardAdded(address indexed contractAddress, uint amount);\n  event RewardRequested(address indexed contractAddress, uint amount);\n  event Rewarded(address indexed contractAddress, uint amount, uint contractStake);\n  event RewardWithdrawn(address indexed staker, uint amount);\n\n  // pending actions processing\n  event PendingActionsProcessed(bool finished);\n\n  /* Storage variables */\n\n  bool public initialized;\n\n  NXMToken public token;\n  TokenController public tokenController;\n\n  uint public MIN_STAKE;         // Minimum allowed stake per contract\n  uint public MAX_EXPOSURE;      // Stakes sum must be less than the deposit amount times this\n  uint public MIN_UNSTAKE;       // Forbid unstake of small amounts to prevent spam\n  uint public UNSTAKE_LOCK_TIME; // Lock period in seconds before unstaking takes place\n\n  mapping(address => Staker) public stakers;     // stakerAddress => Staker\n\n  // temporary variables\n  uint public contractStaked;   // used when processing burns and rewards\n  uint public contractBurned;   // used when processing burns\n  uint public contractRewarded; // used when processing rewards\n\n  // list of stakers for all contracts\n  mapping(address => address[]) public contractStakers;\n\n  // there can be only one pending burn\n  Burn public burn;\n\n  mapping(uint => Reward) public rewards; // reward id => Reward\n  uint public firstReward;\n  uint public lastRewardId;\n\n  mapping(uint => UnstakeRequest) public unstakeRequests; // unstake id => UnstakeRequest\n  // firstUnstakeRequest is stored at unstakeRequests[0].next\n  uint public lastUnstakeRequestId;\n\n  uint public processedToStakerIndex; // we processed the action up this staker\n  bool public isContractStakeCalculated; // flag to indicate whether staked amount is up to date or not\n\n  /* state vars for rewards groupping upgrade */\n\n  // rewards to be distributed at the end of the current round\n  // contract address => ContractRewards\n  mapping(address => ContractReward) public accumulatedRewards;\n\n  uint public REWARD_ROUND_DURATION;\n  uint public REWARD_ROUNDS_START;\n\n  /* Modifiers */\n\n  modifier noPendingActions {\n    require(!hasPendingActions(), \"Unable to execute request with unprocessed actions\");\n    _;\n  }\n\n  modifier noPendingBurns {\n    require(!hasPendingBurns(), \"Unable to execute request with unprocessed burns\");\n    _;\n  }\n\n  modifier noPendingUnstakeRequests {\n    require(!hasPendingUnstakeRequests(), \"Unable to execute request with unprocessed unstake requests\");\n    _;\n  }\n\n  modifier noPendingRewards {\n    require(!hasPendingRewards(), \"Unable to execute request with unprocessed rewards\");\n    _;\n  }\n\n  modifier whenNotPausedAndInitialized {\n    require(!master.isPause(), \"System is paused\");\n    require(initialized, \"Contract is not initialized\");\n    _;\n  }\n\n  /* Getters and view functions */\n\n  function contractStakerCount(address contractAddress) external view returns (uint) {\n    return contractStakers[contractAddress].length;\n  }\n\n  function contractStakerAtIndex(address contractAddress, uint stakerIndex) external view returns (address) {\n    return contractStakers[contractAddress][stakerIndex];\n  }\n\n  function contractStakersArray(address contractAddress) external view returns (address[] memory _stakers) {\n    return contractStakers[contractAddress];\n  }\n\n  function contractStake(address contractAddress) public view returns (uint) {\n\n    address[] storage _stakers = contractStakers[contractAddress];\n    uint stakerCount = _stakers.length;\n    uint stakedOnContract;\n\n    for (uint i = 0; i < stakerCount; i++) {\n      Staker storage staker = stakers[_stakers[i]];\n      uint deposit = staker.deposit;\n      uint stake = staker.stakes[contractAddress];\n\n      // add the minimum of the two\n      stake = deposit < stake ? deposit : stake;\n      stakedOnContract = stakedOnContract.add(stake);\n    }\n\n    return stakedOnContract;\n  }\n\n  function stakerContractCount(address staker) external view returns (uint) {\n    return stakers[staker].contracts.length;\n  }\n\n  function stakerContractAtIndex(address staker, uint contractIndex) external view returns (address) {\n    return stakers[staker].contracts[contractIndex];\n  }\n\n  function stakerContractsArray(address staker) external view returns (address[] memory) {\n    return stakers[staker].contracts;\n  }\n\n  function stakerContractStake(address staker, address contractAddress) external view returns (uint) {\n    uint stake = stakers[staker].stakes[contractAddress];\n    uint deposit = stakers[staker].deposit;\n    return stake < deposit ? stake : deposit;\n  }\n\n  function stakerContractPendingUnstakeTotal(address staker, address contractAddress) external view returns (uint) {\n    return stakers[staker].pendingUnstakeRequestsTotal[contractAddress];\n  }\n\n  function stakerReward(address staker) external view returns (uint) {\n    return stakers[staker].reward;\n  }\n\n  function stakerDeposit(address staker) external view returns (uint) {\n    return stakers[staker].deposit;\n  }\n\n  function stakerMaxWithdrawable(address stakerAddress) public view returns (uint) {\n\n    Staker storage staker = stakers[stakerAddress];\n    uint deposit = staker.deposit;\n    uint totalStaked;\n    uint maxStake;\n\n    for (uint i = 0; i < staker.contracts.length; i++) {\n\n      address contractAddress = staker.contracts[i];\n      uint initialStake = staker.stakes[contractAddress];\n      uint stake = deposit < initialStake ? deposit : initialStake;\n      totalStaked = totalStaked.add(stake);\n\n      if (stake > maxStake) {\n        maxStake = stake;\n      }\n    }\n\n    uint minRequired = totalStaked.div(MAX_EXPOSURE);\n    uint locked = maxStake > minRequired ? maxStake : minRequired;\n\n    return deposit.sub(locked);\n  }\n\n  function unstakeRequestAtIndex(uint unstakeRequestId) external view returns (\n    uint amount, uint unstakeAt, address contractAddress, address stakerAddress, uint next\n  ) {\n    UnstakeRequest storage unstakeRequest = unstakeRequests[unstakeRequestId];\n    amount = unstakeRequest.amount;\n    unstakeAt = unstakeRequest.unstakeAt;\n    contractAddress = unstakeRequest.contractAddress;\n    stakerAddress = unstakeRequest.stakerAddress;\n    next = unstakeRequest.next;\n  }\n\n  function hasPendingActions() public view returns (bool) {\n    return hasPendingBurns() || hasPendingUnstakeRequests() || hasPendingRewards();\n  }\n\n  function hasPendingBurns() public view returns (bool) {\n    return burn.burnedAt != 0;\n  }\n\n  function hasPendingUnstakeRequests() public view returns (bool){\n\n    uint nextRequestIndex = unstakeRequests[0].next;\n\n    if (nextRequestIndex == 0) {\n      return false;\n    }\n\n    return unstakeRequests[nextRequestIndex].unstakeAt <= now;\n  }\n\n  function hasPendingRewards() public view returns (bool){\n    return rewards[firstReward].rewardedAt != 0;\n  }\n\n  /* State-changing functions */\n\n  function depositAndStake(\n    uint amount,\n    address[] calldata _contracts,\n    uint[] calldata _stakes\n  ) external whenNotPausedAndInitialized onlyMember noPendingActions {\n\n    Staker storage staker = stakers[msg.sender];\n    uint oldLength = staker.contracts.length;\n\n    require(\n      _contracts.length >= oldLength,\n      \"Staking on fewer contracts is not allowed\"\n    );\n\n    require(\n      _contracts.length == _stakes.length,\n      \"Contracts and stakes arrays should have the same length\"\n    );\n\n    uint totalStaked;\n\n    // cap old stakes to this amount\n    uint oldDeposit = staker.deposit;\n    uint newDeposit = oldDeposit.add(amount);\n\n    staker.deposit = newDeposit;\n    tokenController.operatorTransfer(msg.sender, address(this), amount);\n\n    for (uint i = 0; i < _contracts.length; i++) {\n\n      address contractAddress = _contracts[i];\n\n      for (uint j = 0; j < i; j++) {\n        require(_contracts[j] != contractAddress, \"Contracts array should not contain duplicates\");\n      }\n\n      uint initialStake = staker.stakes[contractAddress];\n      uint oldStake = oldDeposit < initialStake ? oldDeposit : initialStake;\n      uint newStake = _stakes[i];\n      bool isNewStake = i >= oldLength;\n\n      if (!isNewStake) {\n        require(contractAddress == staker.contracts[i], \"Unexpected contract order\");\n        require(oldStake <= newStake, \"New stake is less than previous stake\");\n      } else {\n        require(newStake > 0, \"New stakes should be greater than 0\");\n        staker.contracts.push(contractAddress);\n      }\n\n      if (oldStake == newStake) {\n\n        // if there were burns but the stake was not updated, update it now\n        if (initialStake != newStake) {\n          staker.stakes[contractAddress] = newStake;\n        }\n\n        totalStaked = totalStaked.add(newStake);\n\n        // no other changes to this contract\n        continue;\n      }\n\n      require(newStake >= MIN_STAKE, \"Minimum stake amount not met\");\n      require(newStake <= newDeposit, \"Cannot stake more than deposited\");\n\n      if (isNewStake || !staker.isInContractStakers[contractAddress]) {\n        staker.isInContractStakers[contractAddress] = true;\n        contractStakers[contractAddress].push(msg.sender);\n      }\n\n      staker.stakes[contractAddress] = newStake;\n      totalStaked = totalStaked.add(newStake);\n      uint increase = newStake.sub(oldStake);\n\n      emit Staked(contractAddress, msg.sender, increase);\n    }\n\n    require(\n      totalStaked <= staker.deposit.mul(MAX_EXPOSURE),\n      \"Total stake exceeds maximum allowed\"\n    );\n\n    if (amount > 0) {\n      emit Deposited(msg.sender, amount);\n    }\n\n    // cleanup zero-amount contracts\n    uint lastContractIndex = _contracts.length - 1;\n\n    for (uint i = oldLength; i > 0; i--) {\n      if (_stakes[i - 1] == 0) {\n        staker.contracts[i - 1] = staker.contracts[lastContractIndex];\n        staker.contracts.pop();\n        --lastContractIndex;\n      }\n    }\n  }\n\n  function withdraw(uint amount) external whenNotPausedAndInitialized onlyMember noPendingBurns {\n    uint limit = stakerMaxWithdrawable(msg.sender);\n    require(limit >= amount, \"Requested amount exceeds max withdrawable amount\");\n    stakers[msg.sender].deposit = stakers[msg.sender].deposit.sub(amount);\n    token.transfer(msg.sender, amount);\n    emit Withdrawn(msg.sender, amount);\n  }\n\n  function requestUnstake(\n    address[] calldata _contracts,\n    uint[] calldata _amounts,\n    uint _insertAfter // unstake request id after which the new unstake request will be inserted\n  ) external whenNotPausedAndInitialized onlyMember {\n\n    require(\n      _contracts.length == _amounts.length,\n      \"Contracts and amounts arrays should have the same length\"\n    );\n\n    require(_insertAfter <= lastUnstakeRequestId, \"Invalid unstake request id provided\");\n\n    Staker storage staker = stakers[msg.sender];\n    uint deposit = staker.deposit;\n    uint previousId = _insertAfter;\n    uint unstakeAt = now.add(UNSTAKE_LOCK_TIME);\n\n    UnstakeRequest storage previousRequest = unstakeRequests[previousId];\n\n    // Forbid insertion after an empty slot when there are non-empty slots\n    // previousId != 0 allows inserting on the first position (in case lock time has been reduced)\n    if (previousId != 0) {\n      require(previousRequest.unstakeAt != 0, \"Provided unstake request id should not be an empty slot\");\n    }\n\n    for (uint i = 0; i < _contracts.length; i++) {\n\n      address contractAddress = _contracts[i];\n      uint stake = staker.stakes[contractAddress];\n\n      if (stake > deposit) {\n        stake = deposit;\n      }\n\n      uint pendingUnstakeAmount = staker.pendingUnstakeRequestsTotal[contractAddress];\n      uint requestedAmount = _amounts[i];\n      uint max = pendingUnstakeAmount > stake ? 0 : stake.sub(pendingUnstakeAmount);\n\n      require(max > 0, \"Nothing to unstake on this contract\");\n      require(requestedAmount <= max, \"Cannot unstake more than staked\");\n\n      // To prevent spam, small stakes and unstake requests are not allowed\n      // However, we allow the user to unstake the entire amount\n      if (requestedAmount != max) {\n        require(requestedAmount >= MIN_UNSTAKE, \"Unstaked amount cannot be less than minimum unstake amount\");\n        require(max.sub(requestedAmount) >= MIN_STAKE, \"Remaining stake cannot be less than minimum unstake amount\");\n      }\n\n      require(\n        unstakeAt >= previousRequest.unstakeAt,\n        \"Unstake request time must be greater or equal to previous unstake request\"\n      );\n\n      if (previousRequest.next != 0) {\n        UnstakeRequest storage nextRequest = unstakeRequests[previousRequest.next];\n        require(\n          nextRequest.unstakeAt > unstakeAt,\n          \"Next unstake request time must be greater than new unstake request time\"\n        );\n      }\n\n      // Note: We previously had an `id` variable that was assigned immediately to `previousId`.\n      //   It was removed in order to save some memory and previousId used instead.\n      //   This makes the next section slightly harder to read but you can read \"previousId\" as \"newId\" instead.\n\n      // get next available unstake request id. our new unstake request becomes previous for the next loop\n      previousId = ++lastUnstakeRequestId;\n\n      unstakeRequests[previousId] = UnstakeRequest(\n        requestedAmount,\n        unstakeAt,\n        contractAddress,\n        msg.sender,\n        previousRequest.next\n      );\n\n      // point to our new unstake request\n      previousRequest.next = previousId;\n\n      emit UnstakeRequested(contractAddress, msg.sender, requestedAmount, unstakeAt);\n\n      // increase pending unstake requests total so we keep track of final stake\n      uint newPending = staker.pendingUnstakeRequestsTotal[contractAddress].add(requestedAmount);\n      staker.pendingUnstakeRequestsTotal[contractAddress] = newPending;\n\n      // update the reference to the unstake request at target index for the next loop\n      previousRequest = unstakeRequests[previousId];\n    }\n  }\n\n  function withdrawReward(address stakerAddress) external whenNotPausedAndInitialized {\n\n    uint amount = stakers[stakerAddress].reward;\n    stakers[stakerAddress].reward = 0;\n\n    token.transfer(stakerAddress, amount);\n\n    emit RewardWithdrawn(stakerAddress, amount);\n  }\n\n  function pushBurn(\n    address contractAddress, uint amount\n  ) public onlyInternal whenNotPausedAndInitialized noPendingBurns {\n\n    address[] memory contractAddresses = new address[](1);\n    contractAddresses[0] = contractAddress;\n    _pushRewards(contractAddresses, true);\n\n    burn.amount = amount;\n    burn.burnedAt = now;\n    burn.contractAddress = contractAddress;\n\n    emit BurnRequested(contractAddress, amount);\n  }\n\n  function _getCurrentRewardsRound() internal view returns (uint) {\n\n    uint roundDuration = REWARD_ROUND_DURATION;\n    uint startTime = REWARD_ROUNDS_START;\n\n    require(startTime != 0, \"REWARD_ROUNDS_START is not initialized\");\n\n    return now <= startTime ? 0 : (now - startTime) / roundDuration;\n  }\n\n  function getCurrentRewardsRound() external view returns (uint) {\n    return _getCurrentRewardsRound();\n  }\n\n  /**\n   * @dev Pushes accumulated rewards to the processing queue.\n   */\n  function _pushRewards(address[] memory contractAddresses, bool skipRoundCheck) internal {\n\n    uint currentRound = _getCurrentRewardsRound();\n    uint lastRewardIdCounter = lastRewardId;\n    uint pushedRewards = 0;\n\n    for (uint i = 0; i < contractAddresses.length; i++) {\n\n      address contractAddress = contractAddresses[i];\n      ContractReward storage contractRewards = accumulatedRewards[contractAddress];\n      uint lastRound = contractRewards.lastDistributionRound;\n      uint amount = contractRewards.amount;\n\n      bool shouldPush = amount > 0 && (skipRoundCheck || currentRound > lastRound);\n\n      if (!shouldPush) {\n        // prevent unintended distribution of the first reward in round\n        if (lastRound != currentRound) {\n          contractRewards.lastDistributionRound = currentRound;\n        }\n        continue;\n      }\n\n      rewards[++lastRewardIdCounter] = Reward(amount, now, contractAddress);\n      emit RewardRequested(contractAddress, amount);\n\n      contractRewards.amount = 0;\n      contractRewards.lastDistributionRound = currentRound;\n      ++pushedRewards;\n\n      if (pushedRewards == 1 && firstReward == 0) {\n        firstReward = lastRewardIdCounter;\n      }\n    }\n\n    if (pushedRewards != 0) {\n      lastRewardId = lastRewardIdCounter;\n    }\n  }\n\n  /**\n   * @dev External function for pushing accumulated rewards in the processing queue.\n   * @dev `_pushRewards` checks the current round and will only push if rewards can be distributed.\n   */\n  function pushRewards(address[] calldata contractAddresses) external whenNotPausedAndInitialized {\n    _pushRewards(contractAddresses, false);\n  }\n\n  /**\n   * @dev Add reward for contract. Automatically triggers distribution if enough time has passed.\n   */\n  function accumulateReward(address contractAddress, uint amount) external onlyInternal whenNotPausedAndInitialized {\n\n    // will push rewards if needed\n    address[] memory contractAddresses = new address[](1);\n    contractAddresses[0] = contractAddress;\n    _pushRewards(contractAddresses, false);\n\n    ContractReward storage contractRewards = accumulatedRewards[contractAddress];\n    contractRewards.amount = contractRewards.amount.add(amount);\n    emit RewardAdded(contractAddress, amount);\n  }\n\n  function processPendingActions(uint maxIterations) public whenNotPausedAndInitialized returns (bool finished) {\n    (finished,) = _processPendingActions(maxIterations);\n  }\n\n  function processPendingActionsReturnLeft(uint maxIterations) public whenNotPausedAndInitialized returns (bool finished, uint iterationsLeft) {\n    (finished, iterationsLeft) = _processPendingActions(maxIterations);\n  }\n\n  function _processPendingActions(uint maxIterations) public whenNotPausedAndInitialized returns (bool finished, uint iterationsLeft) {\n\n    iterationsLeft = maxIterations;\n\n    while (true) {\n\n      uint firstUnstakeRequestIndex = unstakeRequests[0].next;\n      UnstakeRequest storage unstakeRequest = unstakeRequests[firstUnstakeRequestIndex];\n      Reward storage reward = rewards[firstReward];\n\n      // read storage and cache in memory\n      uint burnedAt = burn.burnedAt;\n      uint rewardedAt = reward.rewardedAt;\n      uint unstakeAt = unstakeRequest.unstakeAt;\n\n      bool canUnstake = firstUnstakeRequestIndex > 0 && unstakeAt <= now;\n      bool canBurn = burnedAt != 0;\n      bool canReward = firstReward != 0;\n\n      if (!canBurn && !canUnstake && !canReward) {\n        // everything is processed\n        break;\n      }\n\n      if (\n        canBurn &&\n        (!canUnstake || burnedAt < unstakeAt) &&\n        (!canReward || burnedAt < rewardedAt)\n      ) {\n\n        (finished, iterationsLeft) = _processBurn(iterationsLeft);\n\n        if (!finished) {\n          emit PendingActionsProcessed(false);\n          return (false, iterationsLeft);\n        }\n\n        continue;\n      }\n\n      if (\n        canUnstake &&\n        (!canReward || unstakeAt < rewardedAt)\n      ) {\n\n        // _processFirstUnstakeRequest is O(1) so we'll handle the iteration checks here\n        if (iterationsLeft == 0) {\n          emit PendingActionsProcessed(false);\n          return (false, iterationsLeft);\n        }\n\n        _processFirstUnstakeRequest();\n        --iterationsLeft;\n        continue;\n      }\n\n      (finished, iterationsLeft) = _processFirstReward(iterationsLeft);\n\n      if (!finished) {\n        emit PendingActionsProcessed(false);\n        return (false, iterationsLeft);\n      }\n    }\n\n    // everything is processed!\n    emit PendingActionsProcessed(true);\n    return (true, iterationsLeft);\n  }\n\n  function _processBurn(uint maxIterations) internal returns (bool finished, uint iterationsLeft) {\n\n    iterationsLeft = maxIterations;\n\n    address _contractAddress = burn.contractAddress;\n    uint _stakedOnContract;\n\n    (_stakedOnContract, finished, iterationsLeft) = _calculateContractStake(_contractAddress, iterationsLeft);\n\n    if (!finished) {\n      return (false, iterationsLeft);\n    }\n\n    address[] storage _contractStakers = contractStakers[_contractAddress];\n    uint _stakerCount = _contractStakers.length;\n\n    uint _totalBurnAmount = burn.amount;\n    uint _actualBurnAmount = contractBurned;\n\n    if (_totalBurnAmount > _stakedOnContract) {\n      _totalBurnAmount = _stakedOnContract;\n    }\n\n    for (uint i = processedToStakerIndex; i < _stakerCount; i++) {\n\n      if (iterationsLeft == 0) {\n        contractBurned = _actualBurnAmount;\n        processedToStakerIndex = i;\n        return (false, iterationsLeft);\n      }\n\n      --iterationsLeft;\n\n      Staker storage staker = stakers[_contractStakers[i]];\n      uint _stakerBurnAmount;\n      uint _newStake;\n\n      (_stakerBurnAmount, _newStake) = _burnStaker(staker, _contractAddress, _stakedOnContract, _totalBurnAmount);\n      _actualBurnAmount = _actualBurnAmount.add(_stakerBurnAmount);\n\n      if (_newStake != 0) {\n        continue;\n      }\n\n      // if we got here, the stake is explicitly set to 0\n      // the staker is removed from the contract stakers array\n      // and we will add the staker back if he stakes again\n      staker.isInContractStakers[_contractAddress] = false;\n      _contractStakers[i] = _contractStakers[_stakerCount - 1];\n      _contractStakers.pop();\n\n      // i-- might underflow to MAX_UINT\n      // but that's fine since it will be incremented back to 0 on the next loop\n      i--;\n      _stakerCount--;\n    }\n\n    delete burn;\n    contractBurned = 0;\n    processedToStakerIndex = 0;\n    isContractStakeCalculated = false;\n\n    token.burn(_actualBurnAmount);\n    emit Burned(_contractAddress, _actualBurnAmount, _stakedOnContract);\n\n    return (true, iterationsLeft);\n  }\n\n  function _burnStaker(\n    Staker storage staker, address _contractAddress, uint _stakedOnContract, uint _totalBurnAmount\n  ) internal returns (\n    uint _stakerBurnAmount, uint _newStake\n  ) {\n\n    uint _currentDeposit;\n    uint _currentStake;\n\n    // silence compiler warning\n    _newStake = 0;\n\n    // do we need a storage read?\n    if (_stakedOnContract != 0) {\n      _currentDeposit = staker.deposit;\n      _currentStake = staker.stakes[_contractAddress];\n\n      if (_currentStake > _currentDeposit) {\n        _currentStake = _currentDeposit;\n      }\n    }\n\n    if (_stakedOnContract != _totalBurnAmount) {\n      // formula: staker_burn = staker_stake / total_contract_stake * contract_burn\n      // reordered for precision loss prevention\n      _stakerBurnAmount = _currentStake.mul(_totalBurnAmount).div(_stakedOnContract);\n      _newStake = _currentStake.sub(_stakerBurnAmount);\n    } else {\n      // it's the whole stake\n      _stakerBurnAmount = _currentStake;\n    }\n\n    if (_stakerBurnAmount != 0) {\n      staker.deposit = _currentDeposit.sub(_stakerBurnAmount);\n    }\n\n    staker.stakes[_contractAddress] = _newStake;\n  }\n\n  function _calculateContractStake(\n    address _contractAddress, uint maxIterations\n  ) internal returns (\n    uint _stakedOnContract, bool finished, uint iterationsLeft\n  ) {\n\n    iterationsLeft = maxIterations;\n\n    if (isContractStakeCalculated) {\n      // use previously calculated staked amount\n      return (contractStaked, true, iterationsLeft);\n    }\n\n    address[] storage _contractStakers = contractStakers[_contractAddress];\n    uint _stakerCount = _contractStakers.length;\n    uint startIndex = processedToStakerIndex;\n\n    if (startIndex != 0) {\n      _stakedOnContract = contractStaked;\n    }\n\n    // calculate amount staked on contract\n    for (uint i = startIndex; i < _stakerCount; i++) {\n\n      if (iterationsLeft == 0) {\n        processedToStakerIndex = i;\n        contractStaked = _stakedOnContract;\n        return (_stakedOnContract, false, iterationsLeft);\n      }\n\n      --iterationsLeft;\n\n      Staker storage staker = stakers[_contractStakers[i]];\n      uint deposit = staker.deposit;\n      uint stake = staker.stakes[_contractAddress];\n      stake = deposit < stake ? deposit : stake;\n      _stakedOnContract = _stakedOnContract.add(stake);\n    }\n\n    contractStaked = _stakedOnContract;\n    isContractStakeCalculated = true;\n    processedToStakerIndex = 0;\n\n    return (_stakedOnContract, true, iterationsLeft);\n  }\n\n  function _processFirstUnstakeRequest() internal {\n\n    uint firstRequest = unstakeRequests[0].next;\n    UnstakeRequest storage unstakeRequest = unstakeRequests[firstRequest];\n    address stakerAddress = unstakeRequest.stakerAddress;\n    Staker storage staker = stakers[stakerAddress];\n\n    address contractAddress = unstakeRequest.contractAddress;\n    uint deposit = staker.deposit;\n    uint initialStake = staker.stakes[contractAddress];\n    uint stake = deposit < initialStake ? deposit : initialStake;\n\n    uint requestedAmount = unstakeRequest.amount;\n    uint actualUnstakedAmount = stake < requestedAmount ? stake : requestedAmount;\n    staker.stakes[contractAddress] = stake.sub(actualUnstakedAmount);\n\n    uint pendingUnstakeRequestsTotal = staker.pendingUnstakeRequestsTotal[contractAddress];\n    staker.pendingUnstakeRequestsTotal[contractAddress] = pendingUnstakeRequestsTotal.sub(requestedAmount);\n\n    // update pointer to first unstake request\n    unstakeRequests[0].next = unstakeRequest.next;\n    delete unstakeRequests[firstRequest];\n\n    emit Unstaked(contractAddress, stakerAddress, requestedAmount);\n  }\n\n  function _processFirstReward(uint maxIterations) internal returns (bool finished, uint iterationsLeft) {\n\n    iterationsLeft = maxIterations;\n\n    Reward storage reward = rewards[firstReward];\n    address _contractAddress = reward.contractAddress;\n    uint _totalRewardAmount = reward.amount;\n\n    uint _stakedOnContract;\n\n    (_stakedOnContract, finished, iterationsLeft) = _calculateContractStake(_contractAddress, iterationsLeft);\n\n    if (!finished) {\n      return (false, iterationsLeft);\n    }\n\n    address[] storage _contractStakers = contractStakers[_contractAddress];\n    uint _stakerCount = _contractStakers.length;\n    uint _actualRewardAmount = contractRewarded;\n\n    for (uint i = processedToStakerIndex; i < _stakerCount; i++) {\n\n      if (iterationsLeft == 0) {\n        contractRewarded = _actualRewardAmount;\n        processedToStakerIndex = i;\n        return (false, iterationsLeft);\n      }\n\n      --iterationsLeft;\n\n      address _stakerAddress = _contractStakers[i];\n\n      (uint _stakerRewardAmount, uint _stake) = _rewardStaker(\n        _stakerAddress, _contractAddress, _totalRewardAmount, _stakedOnContract\n      );\n\n      // remove 0-amount stakers, similar to what we're doing when processing burns\n      if (_stake == 0) {\n\n        // mark the user as not present in contract stakers array\n        Staker storage staker = stakers[_stakerAddress];\n        staker.isInContractStakers[_contractAddress] = false;\n\n        // remove the staker from the contract stakers array\n        _contractStakers[i] = _contractStakers[_stakerCount - 1];\n        _contractStakers.pop();\n        i--;\n        _stakerCount--;\n\n        // since the stake is 0, there's no reward to give\n        continue;\n      }\n\n      _actualRewardAmount = _actualRewardAmount.add(_stakerRewardAmount);\n    }\n\n    delete rewards[firstReward];\n    contractRewarded = 0;\n    processedToStakerIndex = 0;\n    isContractStakeCalculated = false;\n\n    if (++firstReward > lastRewardId) {\n      firstReward = 0;\n    }\n\n    tokenController.mint(address(this), _actualRewardAmount);\n    emit Rewarded(_contractAddress, _actualRewardAmount, _stakedOnContract);\n\n    return (true, iterationsLeft);\n  }\n\n  function _rewardStaker(\n    address stakerAddress, address contractAddress, uint totalRewardAmount, uint totalStakedOnContract\n  ) internal returns (uint rewardedAmount, uint stake) {\n\n    Staker storage staker = stakers[stakerAddress];\n    uint deposit = staker.deposit;\n    stake = staker.stakes[contractAddress];\n\n    if (stake > deposit) {\n      stake = deposit;\n    }\n\n    // prevent division by zero and set stake to zero\n    if (totalStakedOnContract == 0 || stake == 0) {\n      staker.stakes[contractAddress] = 0;\n      return (0, 0);\n    }\n\n    // reward = staker_stake / total_contract_stake * total_reward\n    rewardedAmount = totalRewardAmount.mul(stake).div(totalStakedOnContract);\n    staker.reward = staker.reward.add(rewardedAmount);\n  }\n\n  function updateUintParameters(bytes8 code, uint value) external onlyGovernance {\n\n    if (code == \"MIN_STAK\") {\n      MIN_STAKE = value;\n      return;\n    }\n\n    if (code == \"MAX_EXPO\") {\n      MAX_EXPOSURE = value;\n      return;\n    }\n\n    if (code == \"MIN_UNST\") {\n      MIN_UNSTAKE = value;\n      return;\n    }\n\n    if (code == \"UNST_LKT\") {\n      UNSTAKE_LOCK_TIME = value;\n      return;\n    }\n  }\n\n  function initialize() public {\n    require(!initialized, \"Contract is already initialized\");\n    tokenController.addToWhitelist(address(this));\n    initialized = true;\n  }\n\n  function initializeRewardRoundsStart() public {\n    require(REWARD_ROUNDS_START == 0, \"REWARD_ROUNDS_START already initialized\");\n    REWARD_ROUNDS_START = 1600074000;\n    REWARD_ROUND_DURATION = 7 days;\n\n    bytes32 location = MIGRATION_LAST_ID_POSITION;\n    uint lastRewardIdValue = lastRewardId;\n    assembly {\n      sstore(location, lastRewardIdValue)\n    }\n  }\n\n  function changeDependentContractAddress() public {\n\n    token = NXMToken(master.tokenAddress());\n    tokenController = TokenController(master.getLatestAddress(\"TC\"));\n\n    if (!initialized) {\n      initialize();\n    }\n\n    if (REWARD_ROUNDS_START == 0) {\n      initializeRewardRoundsStart();\n    }\n  }\n\n  event RewardsMigrationCompleted(\n    bool finished,\n    uint firstReward,\n    uint iterationsLeft\n  );\n\n  bytes32 private constant MIGRATION_LAST_ID_POSITION = keccak256(\"nexusmutual.pooledstaking.MIGRATION_LAST_ID_POINTER\");\n\n  function migrateRewardsToAccumulatedRewards(uint maxIterations) external returns (bool finished, uint iterationsLeft)  {\n    require(firstReward != 0, \"Nothing to migrate\");\n\n    uint ACCUMULATED_REWARDS_MIGRATION_LAST_ID;\n    bytes32 location = MIGRATION_LAST_ID_POSITION;\n    assembly {\n      ACCUMULATED_REWARDS_MIGRATION_LAST_ID := sload(location)\n    }\n\n    require(firstReward <= ACCUMULATED_REWARDS_MIGRATION_LAST_ID, \"Exceeded last migration id\");\n\n    iterationsLeft = maxIterations;\n\n    while (!finished && iterationsLeft > 0) {\n\n      iterationsLeft--;\n\n      Reward storage reward = rewards[firstReward];\n      ContractReward storage accumulatedReward = accumulatedRewards[reward.contractAddress];\n      accumulatedReward.amount = accumulatedReward.amount.add(reward.amount);\n      emit RewardAdded(reward.contractAddress, reward.amount);\n\n      delete rewards[firstReward];\n      firstReward++;\n\n      if (firstReward > ACCUMULATED_REWARDS_MIGRATION_LAST_ID) {\n        finished = true;\n      }\n\n      if (firstReward > lastRewardId) {\n        firstReward = 0;\n        finished = true;\n      }\n    }\n\n    if (finished) {\n      assembly {\n        sstore(location, 0)\n      }\n    }\n\n    emit RewardsMigrationCompleted(finished, firstReward, iterationsLeft);\n    return (finished, iterationsLeft);\n  }\n}\n",
  "sourcePath": "contracts/modules/staking/PooledStaking.sol",
  "abi": [
    {
      "constant": true,
      "inputs": [],
      "name": "MIN_UNSTAKE",
      "outputs": [
        {
          "name": "",
          "type": "uint256"
        }
      ],
      "payable": false,
      "stateMutability": "view",
      "type": "function"
    },
    {
      "constant": true,
      "inputs": [
        {
          "name": "staker",
          "type": "address"
        }
      ],
      "name": "stakerReward",
      "outputs": [
        {
          "name": "",
          "type": "uint256"
        }
      ],
      "payable": false,
      "stateMutability": "view",
      "type": "function"
    },
    {
      "constant": false,
      "inputs": [],
      "name": "changeDependentContractAddress",
      "outputs": [],
      "payable": false,
      "stateMutability": "nonpayable",
      "type": "function"
    },
    {
      "constant": true,
      "inputs": [
        {
          "name": "",
          "type": "address"
        },
        {
          "name": "",
          "type": "uint256"
        }
      ],
      "name": "contractStakers",
      "outputs": [
        {
          "name": "",
          "type": "address"
        }
      ],
      "payable": false,
      "stateMutability": "view",
      "type": "function"
    },
    {
      "constant": true,
      "inputs": [],
      "name": "initialized",
      "outputs": [
        {
          "name": "",
          "type": "bool"
        }
      ],
      "payable": false,
      "stateMutability": "view",
      "type": "function"
    },
    {
      "constant": true,
      "inputs": [],
      "name": "processedToStakerIndex",
      "outputs": [
        {
          "name": "",
          "type": "uint256"
        }
      ],
      "payable": false,
      "stateMutability": "view",
      "type": "function"
    },
    {
      "constant": true,
      "inputs": [],
      "name": "REWARD_ROUNDS_START",
      "outputs": [
        {
          "name": "",
          "type": "uint256"
        }
      ],
      "payable": false,
      "stateMutability": "view",
      "type": "function"
    },
    {
      "constant": false,
      "inputs": [],
      "name": "initializeRewardRoundsStart",
      "outputs": [],
      "payable": false,
      "stateMutability": "nonpayable",
      "type": "function"
    },
    {
      "constant": true,
      "inputs": [],
      "name": "hasPendingUnstakeRequests",
      "outputs": [
        {
          "name": "",
          "type": "bool"
        }
      ],
      "payable": false,
      "stateMutability": "view",
      "type": "function"
    },
    {
      "constant": true,
      "inputs": [],
      "name": "hasPendingActions",
      "outputs": [
        {
          "name": "",
          "type": "bool"
        }
      ],
      "payable": false,
      "stateMutability": "view",
      "type": "function"
    },
    {
      "constant": true,
      "inputs": [],
      "name": "MAX_EXPOSURE",
      "outputs": [
        {
          "name": "",
          "type": "uint256"
        }
      ],
      "payable": false,
      "stateMutability": "view",
      "type": "function"
    },
    {
      "constant": true,
      "inputs": [],
      "name": "REWARD_ROUND_DURATION",
      "outputs": [
        {
          "name": "",
          "type": "uint256"
        }
      ],
      "payable": false,
      "stateMutability": "view",
      "type": "function"
    },
    {
      "constant": false,
      "inputs": [
        {
          "name": "amount",
          "type": "uint256"
        }
      ],
      "name": "withdraw",
      "outputs": [],
      "payable": false,
      "stateMutability": "nonpayable",
      "type": "function"
    },
    {
      "constant": true,
      "inputs": [],
      "name": "firstReward",
      "outputs": [
        {
          "name": "",
          "type": "uint256"
        }
      ],
      "payable": false,
      "stateMutability": "view",
      "type": "function"
    },
    {
      "constant": true,
      "inputs": [
        {
          "name": "staker",
          "type": "address"
        },
        {
          "name": "contractAddress",
          "type": "address"
        }
      ],
      "name": "stakerContractPendingUnstakeTotal",
      "outputs": [
        {
          "name": "",
          "type": "uint256"
        }
      ],
      "payable": false,
      "stateMutability": "view",
      "type": "function"
    },
    {
      "constant": true,
      "inputs": [
        {
          "name": "staker",
          "type": "address"
        }
      ],
      "name": "stakerDeposit",
      "outputs": [
        {
          "name": "",
          "type": "uint256"
        }
      ],
      "payable": false,
      "stateMutability": "view",
      "type": "function"
    },
    {
      "constant": true,
      "inputs": [],
      "name": "burn",
      "outputs": [
        {
          "name": "amount",
          "type": "uint256"
        },
        {
          "name": "burnedAt",
          "type": "uint256"
        },
        {
          "name": "contractAddress",
          "type": "address"
        }
      ],
      "payable": false,
      "stateMutability": "view",
      "type": "function"
    },
    {
      "constant": true,
      "inputs": [
        {
          "name": "staker",
          "type": "address"
        }
      ],
      "name": "stakerContractsArray",
      "outputs": [
        {
          "name": "",
          "type": "address[]"
        }
      ],
      "payable": false,
      "stateMutability": "view",
      "type": "function"
    },
    {
      "constant": false,
      "inputs": [
        {
          "name": "maxIterations",
          "type": "uint256"
        }
      ],
      "name": "migrateRewardsToAccumulatedRewards",
      "outputs": [
        {
          "name": "finished",
          "type": "bool"
        },
        {
          "name": "iterationsLeft",
          "type": "uint256"
        }
      ],
      "payable": false,
      "stateMutability": "nonpayable",
      "type": "function"
    },
    {
      "constant": true,
      "inputs": [
        {
          "name": "contractAddress",
          "type": "address"
        }
      ],
      "name": "contractStake",
      "outputs": [
        {
          "name": "",
          "type": "uint256"
        }
      ],
      "payable": false,
      "stateMutability": "view",
      "type": "function"
    },
    {
      "constant": false,
      "inputs": [
        {
          "name": "contractAddress",
          "type": "address"
        },
        {
          "name": "amount",
          "type": "uint256"
        }
      ],
      "name": "pushBurn",
      "outputs": [],
      "payable": false,
      "stateMutability": "nonpayable",
      "type": "function"
    },
    {
      "constant": true,
      "inputs": [],
      "name": "hasPendingBurns",
      "outputs": [
        {
          "name": "",
          "type": "bool"
        }
      ],
      "payable": false,
      "stateMutability": "view",
      "type": "function"
    },
    {
      "constant": true,
      "inputs": [],
      "name": "lastUnstakeRequestId",
      "outputs": [
        {
          "name": "",
          "type": "uint256"
        }
      ],
      "payable": false,
      "stateMutability": "view",
      "type": "function"
    },
    {
      "constant": true,
      "inputs": [
        {
          "name": "",
          "type": "address"
        }
      ],
      "name": "accumulatedRewards",
      "outputs": [
        {
          "name": "amount",
          "type": "uint256"
        },
        {
          "name": "lastDistributionRound",
          "type": "uint256"
        }
      ],
      "payable": false,
      "stateMutability": "view",
      "type": "function"
    },
    {
      "constant": true,
      "inputs": [],
      "name": "getCurrentRewardsRound",
      "outputs": [
        {
          "name": "",
          "type": "uint256"
        }
      ],
      "payable": false,
      "stateMutability": "view",
      "type": "function"
    },
    {
      "constant": true,
      "inputs": [
        {
          "name": "staker",
          "type": "address"
        }
      ],
      "name": "stakerContractCount",
      "outputs": [
        {
          "name": "",
          "type": "uint256"
        }
      ],
      "payable": false,
      "stateMutability": "view",
      "type": "function"
    },
    {
      "constant": false,
      "inputs": [],
      "name": "initialize",
      "outputs": [],
      "payable": false,
      "stateMutability": "nonpayable",
      "type": "function"
    },
    {
      "constant": true,
      "inputs": [
        {
          "name": "contractAddress",
          "type": "address"
        }
      ],
      "name": "contractStakerCount",
      "outputs": [
        {
          "name": "",
          "type": "uint256"
        }
      ],
      "payable": false,
      "stateMutability": "view",
      "type": "function"
    },
    {
      "constant": false,
      "inputs": [
        {
          "name": "_contracts",
          "type": "address[]"
        },
        {
          "name": "_amounts",
          "type": "uint256[]"
        },
        {
          "name": "_insertAfter",
          "type": "uint256"
        }
      ],
      "name": "requestUnstake",
      "outputs": [],
      "payable": false,
      "stateMutability": "nonpayable",
      "type": "function"
    },
    {
      "constant": true,
      "inputs": [],
      "name": "UNSTAKE_LOCK_TIME",
      "outputs": [
        {
          "name": "",
          "type": "uint256"
        }
      ],
      "payable": false,
      "stateMutability": "view",
      "type": "function"
    },
    {
      "constant": true,
      "inputs": [
        {
          "name": "",
          "type": "address"
        }
      ],
      "name": "stakers",
      "outputs": [
        {
          "name": "deposit",
          "type": "uint256"
        },
        {
          "name": "reward",
          "type": "uint256"
        }
      ],
      "payable": false,
      "stateMutability": "view",
      "type": "function"
    },
    {
      "constant": true,
      "inputs": [],
      "name": "contractRewarded",
      "outputs": [
        {
          "name": "",
          "type": "uint256"
        }
      ],
      "payable": false,
      "stateMutability": "view",
      "type": "function"
    },
    {
      "constant": true,
      "inputs": [],
      "name": "contractBurned",
      "outputs": [
        {
          "name": "",
          "type": "uint256"
        }
      ],
      "payable": false,
      "stateMutability": "view",
      "type": "function"
    },
    {
      "constant": false,
      "inputs": [
        {
          "name": "code",
          "type": "bytes8"
        },
        {
          "name": "value",
          "type": "uint256"
        }
      ],
      "name": "updateUintParameters",
      "outputs": [],
      "payable": false,
      "stateMutability": "nonpayable",
      "type": "function"
    },
    {
      "constant": true,
      "inputs": [],
      "name": "hasPendingRewards",
      "outputs": [
        {
          "name": "",
          "type": "bool"
        }
      ],
      "payable": false,
      "stateMutability": "view",
      "type": "function"
    },
    {
      "constant": false,
      "inputs": [
        {
          "name": "maxIterations",
          "type": "uint256"
        }
      ],
      "name": "_processPendingActions",
      "outputs": [
        {
          "name": "finished",
          "type": "bool"
        },
        {
          "name": "iterationsLeft",
          "type": "uint256"
        }
      ],
      "payable": false,
      "stateMutability": "nonpayable",
      "type": "function"
    },
    {
      "constant": false,
      "inputs": [
        {
          "name": "maxIterations",
          "type": "uint256"
        }
      ],
      "name": "processPendingActionsReturnLeft",
      "outputs": [
        {
          "name": "finished",
          "type": "bool"
        },
        {
          "name": "iterationsLeft",
          "type": "uint256"
        }
      ],
      "payable": false,
      "stateMutability": "nonpayable",
      "type": "function"
    },
    {
      "constant": true,
      "inputs": [
        {
          "name": "stakerAddress",
          "type": "address"
        }
      ],
      "name": "stakerMaxWithdrawable",
      "outputs": [
        {
          "name": "",
          "type": "uint256"
        }
      ],
      "payable": false,
      "stateMutability": "view",
      "type": "function"
    },
    {
      "constant": false,
      "inputs": [
        {
          "name": "stakerAddress",
          "type": "address"
        }
      ],
      "name": "withdrawReward",
      "outputs": [],
      "payable": false,
      "stateMutability": "nonpayable",
      "type": "function"
    },
    {
      "constant": false,
      "inputs": [
        {
          "name": "amount",
          "type": "uint256"
        },
        {
          "name": "_contracts",
          "type": "address[]"
        },
        {
          "name": "_stakes",
          "type": "uint256[]"
        }
      ],
      "name": "depositAndStake",
      "outputs": [],
      "payable": false,
      "stateMutability": "nonpayable",
      "type": "function"
    },
    {
      "constant": true,
      "inputs": [],
      "name": "contractStaked",
      "outputs": [
        {
          "name": "",
          "type": "uint256"
        }
      ],
      "payable": false,
      "stateMutability": "view",
      "type": "function"
    },
    {
      "constant": true,
      "inputs": [],
      "name": "MIN_STAKE",
      "outputs": [
        {
          "name": "",
          "type": "uint256"
        }
      ],
      "payable": false,
      "stateMutability": "view",
      "type": "function"
    },
    {
      "constant": false,
      "inputs": [
        {
          "name": "masterAddress",
          "type": "address"
        }
      ],
      "name": "changeMasterAddress",
      "outputs": [],
      "payable": false,
      "stateMutability": "nonpayable",
      "type": "function"
    },
    {
      "constant": true,
      "inputs": [
        {
          "name": "contractAddress",
          "type": "address"
        },
        {
          "name": "stakerIndex",
          "type": "uint256"
        }
      ],
      "name": "contractStakerAtIndex",
      "outputs": [
        {
          "name": "",
          "type": "address"
        }
      ],
      "payable": false,
      "stateMutability": "view",
      "type": "function"
    },
    {
      "constant": true,
      "inputs": [
        {
          "name": "unstakeRequestId",
          "type": "uint256"
        }
      ],
      "name": "unstakeRequestAtIndex",
      "outputs": [
        {
          "name": "amount",
          "type": "uint256"
        },
        {
          "name": "unstakeAt",
          "type": "uint256"
        },
        {
          "name": "contractAddress",
          "type": "address"
        },
        {
          "name": "stakerAddress",
          "type": "address"
        },
        {
          "name": "next",
          "type": "uint256"
        }
      ],
      "payable": false,
      "stateMutability": "view",
      "type": "function"
    },
    {
      "constant": true,
      "inputs": [],
      "name": "isContractStakeCalculated",
      "outputs": [
        {
          "name": "",
          "type": "bool"
        }
      ],
      "payable": false,
      "stateMutability": "view",
      "type": "function"
    },
    {
      "constant": true,
      "inputs": [
        {
          "name": "staker",
          "type": "address"
        },
        {
          "name": "contractAddress",
          "type": "address"
        }
      ],
      "name": "stakerContractStake",
      "outputs": [
        {
          "name": "",
          "type": "uint256"
        }
      ],
      "payable": false,
      "stateMutability": "view",
      "type": "function"
    },
    {
      "constant": true,
      "inputs": [],
      "name": "tokenController",
      "outputs": [
        {
          "name": "",
          "type": "address"
        }
      ],
      "payable": false,
      "stateMutability": "view",
      "type": "function"
    },
    {
      "constant": true,
      "inputs": [],
      "name": "master",
      "outputs": [
        {
          "name": "",
          "type": "address"
        }
      ],
      "payable": false,
      "stateMutability": "view",
      "type": "function"
    },
    {
      "constant": true,
      "inputs": [
        {
          "name": "staker",
          "type": "address"
        },
        {
          "name": "contractIndex",
          "type": "uint256"
        }
      ],
      "name": "stakerContractAtIndex",
      "outputs": [
        {
          "name": "",
          "type": "address"
        }
      ],
      "payable": false,
      "stateMutability": "view",
      "type": "function"
    },
    {
      "constant": false,
      "inputs": [
        {
          "name": "contractAddress",
          "type": "address"
        },
        {
          "name": "amount",
          "type": "uint256"
        }
      ],
      "name": "accumulateReward",
      "outputs": [],
      "payable": false,
      "stateMutability": "nonpayable",
      "type": "function"
    },
    {
      "constant": true,
      "inputs": [
        {
          "name": "contractAddress",
          "type": "address"
        }
      ],
      "name": "contractStakersArray",
      "outputs": [
        {
          "name": "_stakers",
          "type": "address[]"
        }
      ],
      "payable": false,
      "stateMutability": "view",
      "type": "function"
    },
    {
      "constant": true,
      "inputs": [
        {
          "name": "",
          "type": "uint256"
        }
      ],
      "name": "rewards",
      "outputs": [
        {
          "name": "amount",
          "type": "uint256"
        },
        {
          "name": "rewardedAt",
          "type": "uint256"
        },
        {
          "name": "contractAddress",
          "type": "address"
        }
      ],
      "payable": false,
      "stateMutability": "view",
      "type": "function"
    },
    {
      "constant": true,
      "inputs": [],
      "name": "lastRewardId",
      "outputs": [
        {
          "name": "",
          "type": "uint256"
        }
      ],
      "payable": false,
      "stateMutability": "view",
      "type": "function"
    },
    {
      "constant": false,
      "inputs": [
        {
          "name": "contractAddresses",
          "type": "address[]"
        }
      ],
      "name": "pushRewards",
      "outputs": [],
      "payable": false,
      "stateMutability": "nonpayable",
      "type": "function"
    },
    {
      "constant": true,
      "inputs": [
        {
          "name": "",
          "type": "uint256"
        }
      ],
      "name": "unstakeRequests",
      "outputs": [
        {
          "name": "amount",
          "type": "uint256"
        },
        {
          "name": "unstakeAt",
          "type": "uint256"
        },
        {
          "name": "contractAddress",
          "type": "address"
        },
        {
          "name": "stakerAddress",
          "type": "address"
        },
        {
          "name": "next",
          "type": "uint256"
        }
      ],
      "payable": false,
      "stateMutability": "view",
      "type": "function"
    },
    {
      "constant": true,
      "inputs": [],
      "name": "token",
      "outputs": [
        {
          "name": "",
          "type": "address"
        }
      ],
      "payable": false,
      "stateMutability": "view",
      "type": "function"
    },
    {
      "constant": false,
      "inputs": [
        {
          "name": "maxIterations",
          "type": "uint256"
        }
      ],
      "name": "processPendingActions",
      "outputs": [
        {
          "name": "finished",
          "type": "bool"
        }
      ],
      "payable": false,
      "stateMutability": "nonpayable",
      "type": "function"
    },
    {
      "anonymous": false,
      "inputs": [
        {
          "indexed": true,
          "name": "staker",
          "type": "address"
        },
        {
          "indexed": false,
          "name": "amount",
          "type": "uint256"
        }
      ],
      "name": "Deposited",
      "type": "event"
    },
    {
      "anonymous": false,
      "inputs": [
        {
          "indexed": true,
          "name": "staker",
          "type": "address"
        },
        {
          "indexed": false,
          "name": "amount",
          "type": "uint256"
        }
      ],
      "name": "Withdrawn",
      "type": "event"
    },
    {
      "anonymous": false,
      "inputs": [
        {
          "indexed": true,
          "name": "contractAddress",
          "type": "address"
        },
        {
          "indexed": true,
          "name": "staker",
          "type": "address"
        },
        {
          "indexed": false,
          "name": "amount",
          "type": "uint256"
        }
      ],
      "name": "Staked",
      "type": "event"
    },
    {
      "anonymous": false,
      "inputs": [
        {
          "indexed": true,
          "name": "contractAddress",
          "type": "address"
        },
        {
          "indexed": true,
          "name": "staker",
          "type": "address"
        },
        {
          "indexed": false,
          "name": "amount",
          "type": "uint256"
        },
        {
          "indexed": false,
          "name": "unstakeAt",
          "type": "uint256"
        }
      ],
      "name": "UnstakeRequested",
      "type": "event"
    },
    {
      "anonymous": false,
      "inputs": [
        {
          "indexed": true,
          "name": "contractAddress",
          "type": "address"
        },
        {
          "indexed": true,
          "name": "staker",
          "type": "address"
        },
        {
          "indexed": false,
          "name": "amount",
          "type": "uint256"
        }
      ],
      "name": "Unstaked",
      "type": "event"
    },
    {
      "anonymous": false,
      "inputs": [
        {
          "indexed": true,
          "name": "contractAddress",
          "type": "address"
        },
        {
          "indexed": false,
          "name": "amount",
          "type": "uint256"
        }
      ],
      "name": "BurnRequested",
      "type": "event"
    },
    {
      "anonymous": false,
      "inputs": [
        {
          "indexed": true,
          "name": "contractAddress",
          "type": "address"
        },
        {
          "indexed": false,
          "name": "amount",
          "type": "uint256"
        },
        {
          "indexed": false,
          "name": "contractStakeBeforeBurn",
          "type": "uint256"
        }
      ],
      "name": "Burned",
      "type": "event"
    },
    {
      "anonymous": false,
      "inputs": [
        {
          "indexed": true,
          "name": "contractAddress",
          "type": "address"
        },
        {
          "indexed": false,
          "name": "amount",
          "type": "uint256"
        }
      ],
      "name": "RewardAdded",
      "type": "event"
    },
    {
      "anonymous": false,
      "inputs": [
        {
          "indexed": true,
          "name": "contractAddress",
          "type": "address"
        },
        {
          "indexed": false,
          "name": "amount",
          "type": "uint256"
        }
      ],
      "name": "RewardRequested",
      "type": "event"
    },
    {
      "anonymous": false,
      "inputs": [
        {
          "indexed": true,
          "name": "contractAddress",
          "type": "address"
        },
        {
          "indexed": false,
          "name": "amount",
          "type": "uint256"
        },
        {
          "indexed": false,
          "name": "contractStake",
          "type": "uint256"
        }
      ],
      "name": "Rewarded",
      "type": "event"
    },
    {
      "anonymous": false,
      "inputs": [
        {
          "indexed": true,
          "name": "staker",
          "type": "address"
        },
        {
          "indexed": false,
          "name": "amount",
          "type": "uint256"
        }
      ],
      "name": "RewardWithdrawn",
      "type": "event"
    },
    {
      "anonymous": false,
      "inputs": [
        {
          "indexed": false,
          "name": "finished",
          "type": "bool"
        }
      ],
      "name": "PendingActionsProcessed",
      "type": "event"
    },
    {
      "anonymous": false,
      "inputs": [
        {
          "indexed": false,
          "name": "finished",
          "type": "bool"
        },
        {
          "indexed": false,
          "name": "firstReward",
          "type": "uint256"
        },
        {
          "indexed": false,
          "name": "iterationsLeft",
          "type": "uint256"
        }
      ],
      "name": "RewardsMigrationCompleted",
      "type": "event"
    }
  ],
  "bytecode": "0x608060405234801561001057600080fd5b50614cd1806100206000396000f3fe608060405234801561001057600080fd5b506004361061038e5760003560e01c8063908ad10a116101de578063d6b5b8521161010f578063f0f923c0116100ad578063f6ceefa21161007c578063f6ceefa214610ae5578063f87975af14610b53578063fc0c546a14610b70578063ff551c8414610b785761038e565b8063f0f923c014610a6e578063f2078db514610a9a578063f301af4214610ac0578063f52790bc14610add5761038e565b8063eae01718116100e9578063eae0171814610a04578063eddd9d8214610a32578063ee97f7f314610a3a578063ef30375d14610a425761038e565b8063d6b5b8521461097e578063e3bc92c0146109aa578063ead4d174146109fc5761038e565b8063abb215be1161017c578063c001472e11610156578063c001472e14610883578063c65cfd5214610948578063cb1c2b5c14610950578063d46655f4146109585761038e565b8063abb215be1461081a578063afd369fd14610837578063b86e321c1461085d5761038e565b80639c6f6e84116101b85780639c6f6e84146107c05780639dd86e0f146107c8578063a4cc380b146107f5578063a81d8010146107fd5761038e565b8063908ad10a1461078a5780639168ae72146107925780639abbed05146107b85761038e565b806334892cea116102c35780637272135a1161026157806375a7720f1161023057806375a7720f146106785780638129fc1c1461069e57806385b39d83146106a65780638e91e6bd146106cc5761038e565b80637272135a1461062157806372af29321461062957806373f273fc1461063157806374ff6b90146106705761038e565b80635840ee441161029d5780635840ee44146105215780635ce929761461059757806365f212f9146105cf57806368989a59146105f55761038e565b806334892cea1461049e57806339ac5eb9146104cc57806344df8e70146104f25761038e565b806316faaa8f1161033057806324f412541161030a57806324f4125414610469578063285ece4e146104715780632e1a7d4d146104795780632e23dc8f146104965761038e565b806316faaa8f146104515780631a839ba71461045957806322b1c296146104615761038e565b80631354839d1161036c5780631354839d146103dd578063158ef93e1461042557806315c5673c146104415780631694a36a146104495761038e565b80630ca6de03146103935780630ea474c7146103ad5780630ea9c984146103d3575b600080fd5b61039b610b95565b60408051918252519081900360200190f35b61039b600480360360208110156103c357600080fd5b50356001600160a01b0316610b9b565b6103db610bb9565b005b610409600480360360408110156103f357600080fd5b506001600160a01b038135169060200135610d10565b604080516001600160a01b039092168252519081900360200190f35b61042d610d45565b604080519115158252519081900360200190f35b61039b610d55565b61039b610d5b565b6103db610d61565b61042d610dd5565b61042d610e2b565b61039b610e56565b61039b610e5c565b6103db6004803603602081101561048f57600080fd5b5035610e62565b61039b6111bf565b61039b600480360360408110156104b457600080fd5b506001600160a01b03813581169160200135166111c5565b61039b600480360360208110156104e257600080fd5b50356001600160a01b03166111f6565b6104fa611211565b6040805193845260208401929092526001600160a01b031682820152519081900360600190f35b6105476004803603602081101561053757600080fd5b50356001600160a01b0316611226565b60408051602080825283518183015283519192839290830191858101910280838360005b8381101561058357818101518382015260200161056b565b505050509050019250505060405180910390f35b6105b4600480360360208110156105ad57600080fd5b503561129f565b60408051921515835260208301919091528051918290030190f35b61039b600480360360208110156105e557600080fd5b50356001600160a01b03166114d4565b6103db6004803603604081101561060b57600080fd5b506001600160a01b038135169060200135611584565b61042d611849565b61039b611851565b6106576004803603602081101561064757600080fd5b50356001600160a01b0316611857565b6040805192835260208301919091528051918290030190f35b61039b611870565b61039b6004803603602081101561068e57600080fd5b50356001600160a01b031661187a565b6103db611898565b61039b600480360360208110156106bc57600080fd5b50356001600160a01b0316611987565b6103db600480360360608110156106e257600080fd5b810190602081018135600160201b8111156106fc57600080fd5b82018360208201111561070e57600080fd5b803590602001918460208302840111600160201b8311171561072f57600080fd5b919390929091602081019035600160201b81111561074c57600080fd5b82018360208201111561075e57600080fd5b803590602001918460208302840111600160201b8311171561077f57600080fd5b9193509150356119a2565b61039b6120b9565b610657600480360360208110156107a857600080fd5b50356001600160a01b03166120bf565b61039b6120d8565b61039b6120de565b6103db600480360360408110156107de57600080fd5b506001600160c01b031981351690602001356120e4565b61042d612244565b6105b46004803603602081101561081357600080fd5b503561225e565b6105b46004803603602081101561083057600080fd5b503561255e565b61039b6004803603602081101561084d57600080fd5b50356001600160a01b031661267a565b6103db6004803603602081101561087357600080fd5b50356001600160a01b0316612762565b6103db6004803603606081101561089957600080fd5b81359190810190604081016020820135600160201b8111156108ba57600080fd5b8201836020820111156108cc57600080fd5b803590602001918460208302840111600160201b831117156108ed57600080fd5b919390929091602081019035600160201b81111561090a57600080fd5b82018360208201111561091c57600080fd5b803590602001918460208302840111600160201b8311171561093d57600080fd5b509092509050612950565b61039b613264565b61039b61326a565b6103db6004803603602081101561096e57600080fd5b50356001600160a01b0316613270565b6104096004803603604081101561099457600080fd5b506001600160a01b0381351690602001356132f5565b6109c7600480360360208110156109c057600080fd5b5035613335565b6040805195865260208601949094526001600160a01b0392831685850152911660608401526080830152519081900360a00190f35b61042d61336f565b61039b60048036036040811015610a1a57600080fd5b506001600160a01b0381358116916020013516613378565b6104096133c0565b6104096133cf565b61040960048036036040811015610a5857600080fd5b506001600160a01b0381351690602001356133de565b6103db60048036036040811015610a8457600080fd5b506001600160a01b038135169060200135613405565b61054760048036036020811015610ab057600080fd5b50356001600160a01b0316613694565b6104fa60048036036020811015610ad657600080fd5b5035613708565b61039b613732565b6103db60048036036020811015610afb57600080fd5b810190602081018135600160201b811115610b1557600080fd5b820183602082011115610b2757600080fd5b803590602001918460208302840111600160201b83111715610b4857600080fd5b509092509050613738565b6109c760048036036020811015610b6957600080fd5b503561387f565b6104096138bb565b61042d60048036036020811015610b8e57600080fd5b50356138ca565b60055481565b6001600160a01b031660009081526007602052604090206001015490565b6000809054906101000a90046001600160a01b03166001600160a01b0316639d76ea586040518163ffffffff1660e01b815260040160206040518083038186803b158015610c0657600080fd5b505afa158015610c1a573d6000803e3d6000fd5b505050506040513d6020811015610c3057600080fd5b5051600180546001600160a01b0319166001600160a01b0392831617905560005460408051600160e31b6227050b028152600160f01b615443026004820152905191909216916301382858916024808301926020929190829003018186803b158015610c9b57600080fd5b505afa158015610caf573d6000803e3d6000fd5b505050506040513d6020811015610cc557600080fd5b5051600280546001600160a01b0319166001600160a01b03909216919091179055600054600160a01b900460ff16610cff57610cff611898565b601854610d0e57610d0e610d61565b565b600b6020528160005260406000208181548110610d2957fe5b6000918252602090912001546001600160a01b03169150829050565b600054600160a01b900460ff1681565b60145481565b60185481565b60185415610da357604051600160e51b62461bcd028152600401808060200182810382526027815260200180614a386027913960400191505060405180910390fd5b635f5f311060185562093a80601755604051600090806033614a05823960405190819003603301902060115490555050565b600080805260126020527f7e7fa33969761a458e04f477e039a608702b4f924981d6653935a8319a08ad7f5480610e10576000915050610e28565b60009081526012602052604090206001015442101590505b90565b6000610e35611849565b80610e435750610e43610dd5565b80610e515750610e51612244565b905090565b60045481565b60175481565b6000809054906101000a90046001600160a01b03166001600160a01b031663ff0938a76040518163ffffffff1660e01b815260040160206040518083038186803b158015610eaf57600080fd5b505afa158015610ec3573d6000803e3d6000fd5b505050506040513d6020811015610ed957600080fd5b505115610f1e5760408051600160e51b62461bcd028152602060048201526010602482015260008051602061499f833981519152604482015290519081900360640190fd5b600054600160a01b900460ff16610f6d5760408051600160e51b62461bcd02815260206004820152601b6024820152600080516020614b92833981519152604482015290519081900360640190fd5b60005460408051600160e21b63288c314902815233600482015290516001600160a01b039092169163a230c52491602480820192602092909190829003018186803b158015610fbb57600080fd5b505afa158015610fcf573d6000803e3d6000fd5b505050506040513d6020811015610fe557600080fd5b505161103b5760408051600160e51b62461bcd02815260206004820152601660248201527f43616c6c6572206973206e6f742061206d656d62657200000000000000000000604482015290519081900360640190fd5b611043611849565b1561108257604051600160e51b62461bcd02815260040180806020018281038252603081526020018061483e6030913960400191505060405180910390fd5b600061108d3361267a565b9050818110156110d157604051600160e51b62461bcd02815260040180806020018281038252603081526020018061494c6030913960400191505060405180910390fd5b336000908152600760205260409020546110f1908363ffffffff6139e716565b336000818152600760209081526040808320949094556001548451600160e01b63a9059cbb02815260048101949094526024840187905293516001600160a01b039094169363a9059cbb93604480820194918390030190829087803b15801561115957600080fd5b505af115801561116d573d6000803e3d6000fd5b505050506040513d602081101561118357600080fd5b505060408051838152905133917f7084f5476618d8e60b11ef0d7d3f06914655adb8793e28ff7f018d4c76d505d5919081900360200190a25050565b60105481565b6001600160a01b03808316600090815260076020908152604080832093851683526004909301905220545b92915050565b6001600160a01b031660009081526007602052604090205490565b600c54600d54600e546001600160a01b031683565b6001600160a01b03811660009081526007602090815260409182902060020180548351818402810184019094528084526060939283018282801561129357602002820191906000526020600020905b81546001600160a01b03168152600190910190602001808311611275575b50505050509050919050565b600080601054600014156112fd5760408051600160e51b62461bcd02815260206004820152601260248201527f4e6f7468696e6720746f206d6967726174650000000000000000000000000000604482015290519081900360640190fd5b6000806040518080614a0560339139603301905060405180910390209050805491508160105411156113795760408051600160e51b62461bcd02815260206004820152601a60248201527f4578636565646564206c617374206d6967726174696f6e206964000000000000604482015290519081900360640190fd5b8492505b8315801561138b5750600083115b1561147c576010546000908152600f6020908152604080832060028101546001600160a01b03168452601690925290912081548154600019909601956113d69163ffffffff613a3016565b81556002820154825460408051918252516001600160a01b03909216917fac24935fd910bc682b5ccb1a07b718cadf8cf2f6d1404c4f3ddc3662dae40e299181900360200190a2601080546000908152600f6020526040812081815560018082019290925560020180546001600160a01b03191690558154019081905584101561145f57600195505b6011546010541115611475576000601055600195505b505061137d565b831561148757600081555b6010546040805186151581526020810192909252818101859052517f26428374401ca9c5de60f1a0ec5c8be7450ddc4f9ce9731bbae77d3c40e77cf39181900360600190a150505b915091565b6001600160a01b0381166000908152600b60205260408120805482805b8281101561157b5760006007600086848154811061150b57fe5b60009182526020808320909101546001600160a01b03908116845283820194909452604092830182208054948c16835260038101909152919020549092508082106115565780611558565b815b905061156a858263ffffffff613a3016565b945050600190920191506114f19050565b50949350505050565b60005460408051600160e21b6323c5b10702815233600482015290516001600160a01b0390921691638f16c41c91602480820192602092909190829003018186803b1580156115d257600080fd5b505afa1580156115e6573d6000803e3d6000fd5b505050506040513d60208110156115fc57600080fd5b505161163c57604051600160e51b62461bcd028152600401808060200182810382526022815260200180614b706022913960400191505060405180910390fd5b6000809054906101000a90046001600160a01b03166001600160a01b031663ff0938a76040518163ffffffff1660e01b815260040160206040518083038186803b15801561168957600080fd5b505afa15801561169d573d6000803e3d6000fd5b505050506040513d60208110156116b357600080fd5b5051156116f85760408051600160e51b62461bcd028152602060048201526010602482015260008051602061499f833981519152604482015290519081900360640190fd5b600054600160a01b900460ff166117475760408051600160e51b62461bcd02815260206004820152601b6024820152600080516020614b92833981519152604482015290519081900360640190fd5b61174f611849565b1561178e57604051600160e51b62461bcd02815260040180806020018281038252603081526020018061483e6030913960400191505060405180910390fd5b6040805160018082528183019092526060916020808301908038833901905050905082816000815181106117be57fe5b60200260200101906001600160a01b031690816001600160a01b0316815250506117e9816001613a8d565b600c82905542600d55600e80546001600160a01b0385166001600160a01b031990911681179091556040805184815290517f5d06931c8dc69a16ea07030839ba70d3794cbda4dc0e16718165f9054db87a5a9181900360200190a2505050565b600d54151590565b60135481565b6016602052600090815260409020805460019091015482565b6000610e51613c01565b6001600160a01b031660009081526007602052604090206002015490565b600054600160a01b900460ff16156118fa5760408051600160e51b62461bcd02815260206004820152601f60248201527f436f6e747261637420697320616c726561647920696e697469616c697a656400604482015290519081900360640190fd5b60025460408051600160e01b63e43252d702815230600482015290516001600160a01b039092169163e43252d79160248082019260009290919082900301818387803b15801561194957600080fd5b505af115801561195d573d6000803e3d6000fd5b50506000805474ff00000000000000000000000000000000000000001916600160a01b1790555050565b6001600160a01b03166000908152600b602052604090205490565b6000809054906101000a90046001600160a01b03166001600160a01b031663ff0938a76040518163ffffffff1660e01b815260040160206040518083038186803b1580156119ef57600080fd5b505afa158015611a03573d6000803e3d6000fd5b505050506040513d6020811015611a1957600080fd5b505115611a5e5760408051600160e51b62461bcd028152602060048201526010602482015260008051602061499f833981519152604482015290519081900360640190fd5b600054600160a01b900460ff16611aad5760408051600160e51b62461bcd02815260206004820152601b6024820152600080516020614b92833981519152604482015290519081900360640190fd5b60005460408051600160e21b63288c314902815233600482015290516001600160a01b039092169163a230c52491602480820192602092909190829003018186803b158015611afb57600080fd5b505afa158015611b0f573d6000803e3d6000fd5b505050506040513d6020811015611b2557600080fd5b5051611b7b5760408051600160e51b62461bcd02815260206004820152601660248201527f43616c6c6572206973206e6f742061206d656d62657200000000000000000000604482015290519081900360640190fd5b838214611bbc57604051600160e51b62461bcd0281526004018080602001828103825260388152602001806149146038913960400191505060405180910390fd5b601354811115611c0057604051600160e51b62461bcd02815260040180806020018281038252602381526020018061497c6023913960400191505060405180910390fd5b336000908152600760205260408120805460065491929091849190611c2c90429063ffffffff613a3016565b60008381526012602052604090209091508215611c86576001810154611c8657604051600160e51b62461bcd028152600401808060200182810382526037815260200180614b176037913960400191505060405180910390fd5b60005b898110156120ac5760008b8b83818110611c9f57fe5b602090810292909201356001600160a01b0316600081815260038b019093526040909220549192505086811115611cd35750855b6001600160a01b0382166000908152600489016020526040812054908c8c86818110611cfb57fe5b9050602002013590506000838311611d2257611d1d848463ffffffff6139e716565b611d25565b60005b905060008111611d6957604051600160e51b62461bcd0281526004018080602001828103825260238152602001806149e26023913960400191505060405180910390fd5b80821115611dc15760408051600160e51b62461bcd02815260206004820152601f60248201527f43616e6e6f7420756e7374616b65206d6f7265207468616e207374616b656400604482015290519081900360640190fd5b808214611e5f57600554821015611e0c57604051600160e51b62461bcd02815260040180806020018281038252603a815260200180614add603a913960400191505060405180910390fd5b600354611e1f828463ffffffff6139e716565b1015611e5f57604051600160e51b62461bcd02815260040180806020018281038252603a815260200180614c24603a913960400191505060405180910390fd5b8660010154881015611ea557604051600160e51b62461bcd028152600401808060200182810382526049815260200180614bdb6049913960600191505060405180910390fd5b600487015415611f09576004870154600090815260126020526040902060018101548910611f0757604051600160e51b62461bcd02815260040180806020018281038252604781526020018061489b6047913960600191505060405180910390fd5b505b60136000815460010191905081905598506040518060a00160405280838152602001898152602001866001600160a01b03168152602001336001600160a01b031681526020018860040154815250601260008b8152602001908152602001600020600082015181600001556020820151816001015560408201518160020160006101000a8154816001600160a01b0302191690836001600160a01b0316021790555060608201518160030160006101000a8154816001600160a01b0302191690836001600160a01b0316021790555060808201518160040155905050888760040181905550336001600160a01b0316856001600160a01b03167ffe07ce9fff39f8420b3de5fbc6909ce08f809e2572b62f9df35c25f56d610bb0848b604051808381526020018281526020019250505060405180910390a36001600160a01b038516600090815260048c01602052604081205461206c908463ffffffff613a3016565b6001600160a01b03909616600090815260048d0160209081526040808320989098558b8252601290529590952096505060019094019350611c8992505050565b5050505050505050505050565b60065481565b6007602052600090815260409020805460019091015482565b600a5481565b60095481565b60005460408051600160e11b632c1a733d02815233600482015290516001600160a01b0390921691635834e67a91602480820192602092909190829003018186803b15801561213257600080fd5b505afa158015612146573d6000803e3d6000fd5b505050506040513d602081101561215c57600080fd5b505161219c57604051600160e51b62461bcd028152600401808060200182810382526022815260200180614b4e6022913960400191505060405180910390fd5b600160c01b674d494e5f5354414b026001600160c01b0319831614156121c6576003819055612240565b600160c01b674d41585f4558504f026001600160c01b0319831614156121f0576004819055612240565b600160c21b6713525397d55394d5026001600160c01b03198316141561221a576005819055612240565b600160c21b67155394d517d312d5026001600160c01b0319831614156122405760068190555b5050565b6010546000908152600f6020526040902060010154151590565b60008054604080516001600160e01b62f6c7590203198152905183926001600160a01b03169163ff0938a7916004808301926020929190829003018186803b1580156122a957600080fd5b505afa1580156122bd573d6000803e3d6000fd5b505050506040513d60208110156122d357600080fd5b5051156123185760408051600160e51b62461bcd028152602060048201526010602482015260008051602061499f833981519152604482015290519081900360640190fd5b600054600160a01b900460ff166123675760408051600160e51b62461bcd02815260206004820152601b6024820152600080516020614b92833981519152604482015290519081900360640190fd5b50815b601260209081527f7e7fa33969761a458e04f477e039a608702b4f924981d6653935a8319a08ad7f54600081815260408082206010548352600f9094528120600d546001808301549086015494959492939192909186158015906123ce5750428211155b6010549091508415801591151590826123e5575082155b80156123ef575080155b1561240257505050505050505050612521565b818015612416575082158061241657508386105b8015612429575080158061242957508486105b15612496576124378a613c6d565b909b5099508a61248857604080516000815290517ff3b343b97db20514b20b9c54105a005716230e231e9bf5d180b1a0dfe6e4fb8a9181900360200190a150600099506114cf975050505050505050565b50505050505050505061236a565b8280156124aa57508015806124aa57508484105b1561251857896124fb57604080516000815290517ff3b343b97db20514b20b9c54105a005716230e231e9bf5d180b1a0dfe6e4fb8a9181900360200190a150600099506114cf975050505050505050565b612503613f37565b8960019003995050505050505050505061236a565b6124378a61411c565b604080516001815290517ff3b343b97db20514b20b9c54105a005716230e231e9bf5d180b1a0dfe6e4fb8a9181900360200190a160019150915091565b60008054604080516001600160e01b62f6c7590203198152905183926001600160a01b03169163ff0938a7916004808301926020929190829003018186803b1580156125a957600080fd5b505afa1580156125bd573d6000803e3d6000fd5b505050506040513d60208110156125d357600080fd5b5051156126185760408051600160e51b62461bcd028152602060048201526010602482015260008051602061499f833981519152604482015290519081900360640190fd5b600054600160a01b900460ff166126675760408051600160e51b62461bcd02815260206004820152601b6024820152600080516020614b92833981519152604482015290519081900360640190fd5b6126708361225e565b9094909350915050565b6001600160a01b038116600090815260076020526040812080548280805b60028501548110156127195760008560020182815481106126b557fe5b60009182526020808320909101546001600160a01b0316808352600389019091526040822054909250908187106126ec57816126ee565b865b9050612700868263ffffffff613a3016565b95508481111561270e578094505b505050600101612698565b5060006127316004548461441090919063ffffffff16565b905060008183116127425781612744565b825b9050612756858263ffffffff6139e716565b98975050505050505050565b6000809054906101000a90046001600160a01b03166001600160a01b031663ff0938a76040518163ffffffff1660e01b815260040160206040518083038186803b1580156127af57600080fd5b505afa1580156127c3573d6000803e3d6000fd5b505050506040513d60208110156127d957600080fd5b50511561281e5760408051600160e51b62461bcd028152602060048201526010602482015260008051602061499f833981519152604482015290519081900360640190fd5b600054600160a01b900460ff1661286d5760408051600160e51b62461bcd02815260206004820152601b6024820152600080516020614b92833981519152604482015290519081900360640190fd5b6001600160a01b038082166000818152600760209081526040808320600190810180549085905590548251600160e01b63a9059cbb02815260048101969096526024860182905291519095919091169363a9059cbb9360448083019493928390030190829087803b1580156128e157600080fd5b505af11580156128f5573d6000803e3d6000fd5b505050506040513d602081101561290b57600080fd5b50506040805182815290516001600160a01b038416917f1d3eee4ca001cff39eec6ec7615aacf2f2bd61791273830728ba00ccbd6e1337919081900360200190a25050565b6000809054906101000a90046001600160a01b03166001600160a01b031663ff0938a76040518163ffffffff1660e01b815260040160206040518083038186803b15801561299d57600080fd5b505afa1580156129b1573d6000803e3d6000fd5b505050506040513d60208110156129c757600080fd5b505115612a0c5760408051600160e51b62461bcd028152602060048201526010602482015260008051602061499f833981519152604482015290519081900360640190fd5b600054600160a01b900460ff16612a5b5760408051600160e51b62461bcd02815260206004820152601b6024820152600080516020614b92833981519152604482015290519081900360640190fd5b60005460408051600160e21b63288c314902815233600482015290516001600160a01b039092169163a230c52491602480820192602092909190829003018186803b158015612aa957600080fd5b505afa158015612abd573d6000803e3d6000fd5b505050506040513d6020811015612ad357600080fd5b5051612b295760408051600160e51b62461bcd02815260206004820152601660248201527f43616c6c6572206973206e6f742061206d656d62657200000000000000000000604482015290519081900360640190fd5b612b31610e2b565b15612b7057604051600160e51b62461bcd0281526004018080602001828103825260328152602001806148e26032913960400191505060405180910390fd5b336000908152600760205260409020600281015480851015612bc657604051600160e51b62461bcd028152600401808060200182810382526029815260200180614bb26029913960400191505060405180910390fd5b848314612c0757604051600160e51b62461bcd028152600401808060200182810382526037815260200180614aa66037913960400191505060405180910390fd5b815460009081612c1d828b63ffffffff613a3016565b80865560025460408051600160e01b630d1af103028152336004820152306024820152604481018e905290519293506001600160a01b0390911691630d1af103916064808201926020929091908290030181600087803b158015612c8057600080fd5b505af1158015612c94573d6000803e3d6000fd5b505050506040513d6020811015612caa57600080fd5b50600090505b888110156130ee5760008a8a83818110612cc657fe5b905060200201356001600160a01b0316905060008090505b82811015612d5d57816001600160a01b03168c8c83818110612cfc57fe5b905060200201356001600160a01b03166001600160a01b03161415612d5557604051600160e51b62461bcd02815260040180806020018281038252602d81526020018061486e602d913960400191505060405180910390fd5b600101612cde565b506001600160a01b038116600090815260038801602052604081205490818610612d875781612d89565b855b905060008b8b86818110612d9957fe5b60200291909101359150508885101580612e71578a6002018681548110612dbc57fe5b6000918252602090912001546001600160a01b03868116911614612e2a5760408051600160e51b62461bcd02815260206004820152601960248201527f556e657870656374656420636f6e7472616374206f7264657200000000000000604482015290519081900360640190fd5b81831115612e6c57604051600160e51b62461bcd028152600401808060200182810382526025815260200180614c5e6025913960400191505060405180910390fd5b612ee4565b60008211612eb357604051600160e51b62461bcd0281526004018080602001828103825260238152602001806149bf6023913960400191505060405180910390fd5b60028b018054600181018255600091825260209091200180546001600160a01b0319166001600160a01b0387161790555b81831415612f2d57818414612f11576001600160a01b038516600090815260038c01602052604090208290555b612f21898363ffffffff613a3016565b985050505050506130e6565b600354821015612f875760408051600160e51b62461bcd02815260206004820152601c60248201527f4d696e696d756d207374616b6520616d6f756e74206e6f74206d657400000000604482015290519081900360640190fd5b86821115612fdf5760408051600160e51b62461bcd02815260206004820181905260248201527f43616e6e6f74207374616b65206d6f7265207468616e206465706f7369746564604482015290519081900360640190fd5b808061300657506001600160a01b038516600090815260058c01602052604090205460ff16155b1561305a576001600160a01b038516600090815260058c0160209081526040808320805460ff19166001908117909155600b835290832080549182018155835291200180546001600160a01b031916331790555b6001600160a01b038516600090815260038c0160205260409020829055613087898363ffffffff613a3016565b9850600061309b838563ffffffff6139e716565b60408051828152905191925033916001600160a01b038916917f5dac0c1b1112564a045ba943c9d50270893e8e826c49be8e7073adc713ab7bd7919081900360200190a35050505050505b600101612cb0565b5060045485546131039163ffffffff61445216565b83111561314457604051600160e51b62461bcd028152600401808060200182810382526023815260200180614c836023913960400191505060405180910390fd5b891561318157604080518b8152905133917f2da466a7b24304f47e87fa2e1e5a81b9831ce54fec19055ce277ca2f39ba42c4919081900360200190a25b6000198801845b80156132565788886001830381811061319d57fe5b905060200201356000141561324d578660020182815481106131bb57fe5b6000918252602090912001546002880180546001600160a01b039092169160001984019081106131e757fe5b9060005260206000200160006101000a8154816001600160a01b0302191690836001600160a01b031602179055508660020180548061322257fe5b600082815260209020810160001990810180546001600160a01b031916905590810190915591909101905b60001901613188565b505050505050505050505050565b60085481565b60035481565b6000546001600160a01b0316156132d3576000546001600160a01b031633146132d35760408051600160e51b62461bcd02815260206004820152600a6024820152600160b11b692737ba1036b0b9ba32b902604482015290519081900360640190fd5b600080546001600160a01b0319166001600160a01b0392909216919091179055565b6001600160a01b0382166000908152600b6020526040812080548390811061331957fe5b6000918252602090912001546001600160a01b03169392505050565b60009081526012602052604090208054600182015460028301546003840154600490940154929491936001600160a01b0391821693911691565b60155460ff1681565b6001600160a01b03808316600081815260076020818152604080842095871684526003860182528320549383525291548082106133b557806133b7565b815b95945050505050565b6002546001600160a01b031681565b6000546001600160a01b031681565b6001600160a01b038216600090815260076020526040812060020180548390811061331957fe5b60005460408051600160e21b6323c5b10702815233600482015290516001600160a01b0390921691638f16c41c91602480820192602092909190829003018186803b15801561345357600080fd5b505afa158015613467573d6000803e3d6000fd5b505050506040513d602081101561347d57600080fd5b50516134bd57604051600160e51b62461bcd028152600401808060200182810382526022815260200180614b706022913960400191505060405180910390fd5b6000809054906101000a90046001600160a01b03166001600160a01b031663ff0938a76040518163ffffffff1660e01b815260040160206040518083038186803b15801561350a57600080fd5b505afa15801561351e573d6000803e3d6000fd5b505050506040513d602081101561353457600080fd5b5051156135795760408051600160e51b62461bcd028152602060048201526010602482015260008051602061499f833981519152604482015290519081900360640190fd5b600054600160a01b900460ff166135c85760408051600160e51b62461bcd02815260206004820152601b6024820152600080516020614b92833981519152604482015290519081900360640190fd5b6040805160018082528183019092526060916020808301908038833901905050905082816000815181106135f857fe5b60200260200101906001600160a01b031690816001600160a01b031681525050613623816000613a8d565b6001600160a01b0383166000908152601660205260409020805461364d908463ffffffff613a3016565b81556040805184815290516001600160a01b038616917fac24935fd910bc682b5ccb1a07b718cadf8cf2f6d1404c4f3ddc3662dae40e29919081900360200190a250505050565b6001600160a01b0381166000908152600b6020908152604091829020805483518184028101840190945280845260609392830182828015611293576020028201919060005260206000209081546001600160a01b031681526001909101906020018083116112755750505050509050919050565b600f602052600090815260409020805460018201546002909201549091906001600160a01b031683565b60115481565b6000809054906101000a90046001600160a01b03166001600160a01b031663ff0938a76040518163ffffffff1660e01b815260040160206040518083038186803b15801561378557600080fd5b505afa158015613799573d6000803e3d6000fd5b505050506040513d60208110156137af57600080fd5b5051156137f45760408051600160e51b62461bcd028152602060048201526010602482015260008051602061499f833981519152604482015290519081900360640190fd5b600054600160a01b900460ff166138435760408051600160e51b62461bcd02815260206004820152601b6024820152600080516020614b92833981519152604482015290519081900360640190fd5b61224082828080602002602001604051908101604052809392919081815260200183836020028082843760009201829052509250613a8d915050565b60126020526000908152604090208054600182015460028301546003840154600490940154929391926001600160a01b03918216929091169085565b6001546001600160a01b031681565b60008060009054906101000a90046001600160a01b03166001600160a01b031663ff0938a76040518163ffffffff1660e01b815260040160206040518083038186803b15801561391957600080fd5b505afa15801561392d573d6000803e3d6000fd5b505050506040513d602081101561394357600080fd5b5051156139885760408051600160e51b62461bcd028152602060048201526010602482015260008051602061499f833981519152604482015290519081900360640190fd5b600054600160a01b900460ff166139d75760408051600160e51b62461bcd02815260206004820152601b6024820152600080516020614b92833981519152604482015290519081900360640190fd5b6139e08261225e565b5092915050565b6000613a2983836040518060400160405280601e81526020017f536166654d6174683a207375627472616374696f6e206f766572666c6f7700008152506144ae565b9392505050565b600082820183811015613a295760408051600160e51b62461bcd02815260206004820152601b60248201527f536166654d6174683a206164646974696f6e206f766572666c6f770000000000604482015290519081900360640190fd5b6000613a97613c01565b6011549091506000805b8551811015613bed576000868281518110613ab857fe5b6020908102919091018101516001600160a01b03811660009081526016909252604082206001810154815492945090929091908115801590613b0057508980613b0057508289115b905080613b2057888314613b1657600184018990555b5050505050613be5565b604080516060810182528381524260208083019182526001600160a01b0389811684860181815260019e8f016000818152600f86528890209651875594519e86019e909e559c51600290940180546001600160a01b031916949091169390931790925582518581529251909a927f5f5b850fcbd0c09e2b8624b44902a5be89312011ae945e14bc73514fb719891e92908290030190a26000845560018085018a90559687019687148015613bd45750601054155b15613bdf5760108890555b50505050505b600101613aa1565b508015613bfa5760118290555b5050505050565b6017546018546000919080613c4a57604051600160e51b62461bcd028152600401808060200182810382526026815260200180614a806026913960400191505060405180910390fd5b80421115613c63578181420381613c5d57fe5b04613c66565b60005b9250505090565b600e5460009082906001600160a01b031682613c898284614548565b9095509350905083613ca15750600092506114cf9050565b6001600160a01b0382166000908152600b602052604090208054600c5460095484821115613ccd578491505b6014545b83811015613e375787613cf65760099190915560145550600095506114cf9350505050565b87600190039750600060076000878481548110613d0f57fe5b60009182526020808320909101546001600160a01b031683528201929092526040018120915080613d42838b8b89614665565b9092509050613d57858363ffffffff613a3016565b94508015613d6757505050613e2f565b6001600160a01b038a1660009081526005840160205260409020805460ff19169055875488906000198901908110613d9b57fe5b9060005260206000200160009054906101000a90046001600160a01b0316888581548110613dc557fe5b9060005260206000200160006101000a8154816001600160a01b0302191690836001600160a01b0316021790555087805480613dfd57fe5b600082815260209020810160001990810180546001600160a01b03191690559081019091559687019693909301925050505b600101613cd1565b506000600c819055600d819055600e80546001600160a01b0319169055600981905560148190556015805460ff1916905560015460408051600160e31b630852cd8d0281526004810185905290516001600160a01b03909216926342966c68926024808401936020939083900390910190829087803b158015613eb957600080fd5b505af1158015613ecd573d6000803e3d6000fd5b505050506040513d6020811015613ee357600080fd5b5050604080518281526020810187905281516001600160a01b038916927f23ff0e75edf108e3d0392d92e13e8c8a868ef19001bd49f9e94876dc46dff87f928290030190a250600196505050505050915091565b601260209081527f7e7fa33969761a458e04f477e039a608702b4f924981d6653935a8319a08ad7f54600081815260408082206003808201546001600160a01b03908116808652600788528486206002850154815493168088529381019098529385205495969295939492939192909190818310613fb55781613fb7565b825b87549091506000818310613fcb5781613fcd565b825b9050613fdf838263ffffffff6139e716565b6001600160a01b038716600090815260038901602090815260408083209390935560048a0190522054614018818463ffffffff6139e716565b886004016000896001600160a01b03166001600160a01b031681526020019081526020016000208190555089600401546012600080815260200190815260200160002060040181905550601260008c815260200190815260200160002060008082016000905560018201600090556002820160006101000a8154906001600160a01b0302191690556003820160006101000a8154906001600160a01b03021916905560048201600090555050886001600160a01b0316876001600160a01b03167fd8654fcc8cf5b36d30b3f5e4688fc78118e6d68de60b9994e09902268b57c3e3856040518082815260200191505060405180910390a35050505050505050505050565b6010546000908152600f60205260408120600281015481548492916001600160a01b0316908461414c8386614548565b90975095509050856141665750600094506114cf92505050565b6001600160a01b0383166000908152600b602052604090208054600a546014545b828110156142ee57886141ad57600a9190915560145550600096506114cf945050505050565b8860019003985060008482815481106141c257fe5b60009182526020822001546001600160a01b03169150806141e5838b8b8b614721565b9150915080600014156142d0576001600160a01b038084166000908152600760209081526040808320938e168352600584019091529020805460ff1916905587548890600019890190811061423657fe5b9060005260206000200160009054906101000a90046001600160a01b031688868154811061426057fe5b9060005260206000200160006101000a8154816001600160a01b0302191690836001600160a01b031602179055508780548061429857fe5b600082815260209020810160001990810180546001600160a01b0319169055908101909155968701969490940193506142e692505050565b6142e0858363ffffffff613a3016565b94505050505b600101614187565b50601080546000908152600f602052604081208181556001808201839055600290910180546001600160a01b0319169055600a8290556014919091556015805460ff19169055601154825490910191829055101561434c5760006010555b60025460408051600160e01b6340c10f190281523060048201526024810184905290516001600160a01b03909216916340c10f199160448082019260009290919082900301818387803b1580156143a257600080fd5b505af11580156143b6573d6000803e3d6000fd5b5050604080518481526020810188905281516001600160a01b038b1694507f291e8ba3c0f4b0bd86e6e2346fcee1e7ca0975b1cc1886bfbc722d34f3f24d9193509081900390910190a25060019750505050505050915091565b6000613a2983836040518060400160405280601a81526020017f536166654d6174683a206469766973696f6e206279207a65726f0000000000008152506147d5565b600082614461575060006111f0565b8282028284828161446e57fe5b0414613a2957604051600160e51b62461bcd028152600401808060200182810382526021815260200180614a5f6021913960400191505060405180910390fd5b6000818484111561454057604051600160e51b62461bcd0281526004018080602001828103825283818151815260200191508051906020019080838360005b838110156145055781810151838201526020016144ed565b50505050905090810190601f1680156145325780820380516001836020036101000a031916815260200191505b509250505060405180910390fd5b505050900390565b6015546000908190839060ff16156145685760085492506001915061465e565b6001600160a01b0385166000908152600b60205260409020805460145480156145915760085495505b805b8281101561463d57846145b45760145550505060088390556000915061465e565b846001900394506000600760008684815481106145cd57fe5b60009182526020808320909101546001600160a01b03908116845283820194909452604092830182208054948f1683526003810190915291902054909250808210614618578061461a565b815b905061462c8a8263ffffffff613a3016565b995050600190920191506145939050565b5050506008849055506015805460ff19166001908117909155600060145591505b9250925092565b6000808080851561469a57505085546001600160a01b03861660009081526003880160205260409020548181111561469a5750805b8486146146da576146c1866146b5838863ffffffff61445216565b9063ffffffff61441016565b93506146d3818563ffffffff6139e716565b92506146de565b8093505b83156146f7576146f4828563ffffffff6139e716565b88555b50506001600160a01b03909416600090815260039095016020526040909420839055509192909150565b6001600160a01b038085166000908152600760209081526040808320805494881684526003810190925282205491928083111561475c578092505b841580614767575082155b1561479557506001600160a01b038616600090815260039091016020526040812081905591508190506147cc565b6147a9856146b5888663ffffffff61445216565b60018301549094506147c1908563ffffffff613a3016565b826001018190555050505b94509492505050565b6000818361482757604051600160e51b62461bcd0281526020600482018181528351602484015283519092839260449091019190850190808383600083156145055781810151838201526020016144ed565b50600083858161483357fe5b049594505050505056fe556e61626c6520746f20657865637574652072657175657374207769746820756e70726f636573736564206275726e73436f6e7472616374732061727261792073686f756c64206e6f7420636f6e7461696e206475706c6963617465734e65787420756e7374616b6520726571756573742074696d65206d7573742062652067726561746572207468616e206e657720756e7374616b6520726571756573742074696d65556e61626c6520746f20657865637574652072657175657374207769746820756e70726f63657373656420616374696f6e73436f6e74726163747320616e6420616d6f756e7473206172726179732073686f756c642068617665207468652073616d65206c656e67746852657175657374656420616d6f756e742065786365656473206d617820776974686472617761626c6520616d6f756e74496e76616c696420756e7374616b6520726571756573742069642070726f766964656453797374656d20697320706175736564000000000000000000000000000000004e6577207374616b65732073686f756c642062652067726561746572207468616e20304e6f7468696e6720746f20756e7374616b65206f6e207468697320636f6e74726163746e657875736d757475616c2e706f6f6c65647374616b696e672e4d4947524154494f4e5f4c4153545f49445f504f494e5445525245574152445f524f554e44535f535441525420616c726561647920696e697469616c697a6564536166654d6174683a206d756c7469706c69636174696f6e206f766572666c6f775245574152445f524f554e44535f5354415254206973206e6f7420696e697469616c697a6564436f6e74726163747320616e64207374616b6573206172726179732073686f756c642068617665207468652073616d65206c656e677468556e7374616b656420616d6f756e742063616e6e6f74206265206c657373207468616e206d696e696d756d20756e7374616b6520616d6f756e7450726f766964656420756e7374616b6520726571756573742069642073686f756c64206e6f7420626520616e20656d70747920736c6f7443616c6c6572206973206e6f7420617574686f72697a656420746f20676f7665726e43616c6c6572206973206e6f7420616e20696e7465726e616c20636f6e7472616374436f6e7472616374206973206e6f7420696e697469616c697a656400000000005374616b696e67206f6e20666577657220636f6e747261637473206973206e6f7420616c6c6f776564556e7374616b6520726571756573742074696d65206d7573742062652067726561746572206f7220657175616c20746f2070726576696f757320756e7374616b65207265717565737452656d61696e696e67207374616b652063616e6e6f74206265206c657373207468616e206d696e696d756d20756e7374616b6520616d6f756e744e6577207374616b65206973206c657373207468616e2070726576696f7573207374616b65546f74616c207374616b652065786365656473206d6178696d756d20616c6c6f776564a165627a7a72305820525cdffc1bd040164ba79031c64cb588d9324e91ca3bcf2dd9d0abf3e9f1b4eb0029",
  "compiler": {
    "name": "solc",
    "version": "0.5.7+commit.6da8b019.Emscripten.clang",
    "optimizer": {
      "enabled": true,
      "runs": 200
    },
    "evmVersion": "petersburg"
  }
}