{
  "fileName": "Pool1.sol",
  "contractName": "Pool1",
  "source": "/* Copyright (C) 2020 NexusMutual.io\n\n  This program is free software: you can redistribute it and/or modify\n    it under the terms of the GNU General Public License as published by\n    the Free Software Foundation, either version 3 of the License, or\n    (at your option) any later version.\n\n  This program is distributed in the hope that it will be useful,\n    but WITHOUT ANY WARRANTY; without even the implied warranty of\n    MERCHANTABILITY or FITNESS FOR A PARTICULAR PURPOSE.  See the\n    GNU General Public License for more details.\n\n  You should have received a copy of the GNU General Public License\n    along with this program.  If not, see http://www.gnu.org/licenses/ */\n\npragma solidity ^0.5.0;\n\nimport \"@openzeppelin/contracts/math/SafeMath.sol\";\nimport \"@openzeppelin/contracts/token/ERC20/IERC20.sol\";\nimport \"../../external/oraclize/ethereum-api/usingOraclize.sol\";\nimport \"../claims/Claims.sol\";\nimport \"../cover/Quotation.sol\";\nimport \"./MCR.sol\";\nimport \"./Pool2.sol\";\nimport \"./PoolData.sol\";\n\ncontract Pool1 is usingOraclize, Iupgradable {\n  using SafeMath for uint;\n\n  Quotation internal q2;\n  NXMToken internal tk;\n  TokenController internal tc;\n  TokenFunctions internal tf;\n  Pool2 internal p2;\n  PoolData internal pd;\n  MCR internal m1;\n  Claims public c1;\n  TokenData internal td;\n  bool internal locked;\n\n  uint internal constant DECIMAL1E18 = uint(10) ** 18;\n\n  event Apiresult(address indexed sender, string msg, bytes32 myid);\n  event Payout(address indexed to, uint coverId, uint tokens);\n\n  modifier noReentrancy() {\n    require(!locked, \"Reentrant call.\");\n    locked = true;\n    _;\n    locked = false;\n  }\n\n  function() external payable {} // solhint-disable-line\n\n  /**\n   * @dev Pays out the sum assured in case a claim is accepted\n   * @param coverid Cover Id.\n   * @param claimid Claim Id.\n   * @return succ true if payout is successful, false otherwise.\n   */\n  function sendClaimPayout(\n    uint coverid,\n    uint claimid,\n    uint sumAssured,\n    address payable coverHolder,\n    bytes4 coverCurr\n  )\n  external\n  onlyInternal\n  noReentrancy\n  returns (bool succ)\n  {\n\n    uint sa = sumAssured.div(DECIMAL1E18);\n    bool check;\n    IERC20 erc20 = IERC20(pd.getCurrencyAssetAddress(coverCurr));\n\n    //Payout\n    if (coverCurr == \"ETH\" && address(this).balance >= sumAssured) {\n      // check = _transferCurrencyAsset(coverCurr, coverHolder, sumAssured);\n      coverHolder.transfer(sumAssured);\n      check = true;\n    } else if (coverCurr == \"DAI\" && erc20.balanceOf(address(this)) >= sumAssured) {\n      erc20.transfer(coverHolder, sumAssured);\n      check = true;\n    }\n\n    if (check == true) {\n      q2.removeSAFromCSA(coverid, sa);\n      pd.changeCurrencyAssetVarMin(coverCurr,\n        pd.getCurrencyAssetVarMin(coverCurr).sub(sumAssured));\n      emit Payout(coverHolder, coverid, sumAssured);\n      succ = true;\n    } else {\n      c1.setClaimStatus(claimid, 12);\n    }\n    _triggerExternalLiquidityTrade();\n    // p2.internalLiquiditySwap(coverCurr);\n\n    tf.burnStakerLockedToken(coverid, coverCurr, sumAssured);\n  }\n\n  /**\n   * @dev to trigger external liquidity trade\n   */\n  function triggerExternalLiquidityTrade() external onlyInternal {\n    _triggerExternalLiquidityTrade();\n  }\n\n  ///@dev Oraclize call to close emergency pause.\n  function closeEmergencyPause(uint time) external onlyInternal {\n    bytes32 myid = _oraclizeQuery(4, time, \"URL\", \"\", 300000);\n    _saveApiDetails(myid, \"EP\", 0);\n  }\n\n  /// @dev Calls the Oraclize Query to close a given Claim after a given period of time.\n  /// @param id Claim Id to be closed\n  /// @param time Time (in seconds) after which Claims assessment voting needs to be closed\n  function closeClaimsOraclise(uint id, uint time) external onlyInternal {\n    bytes32 myid = _oraclizeQuery(4, time, \"URL\", \"\", 3000000);\n    _saveApiDetails(myid, \"CLA\", id);\n  }\n\n  /// @dev Calls Oraclize Query to expire a given Cover after a given period of time.\n  /// @param id Quote Id to be expired\n  /// @param time Time (in seconds) after which the cover should be expired\n  function closeCoverOraclise(uint id, uint64 time) external onlyInternal {\n    bytes32 myid = _oraclizeQuery(4, time, \"URL\", strConcat(\n        \"http://a1.nexusmutual.io/api/Claims/closeClaim_hash/\", uint2str(id)), 1000000);\n    _saveApiDetails(myid, \"COV\", id);\n  }\n\n  /// @dev Calls the Oraclize Query to initiate MCR calculation.\n  /// @param time Time (in milliseconds) after which the next MCR calculation should be initiated\n  function mcrOraclise(uint time) external onlyInternal {\n    bytes32 myid = _oraclizeQuery(3, time, \"URL\", \"https://api.nexusmutual.io/postMCR/M1\", 0);\n    _saveApiDetails(myid, \"MCR\", 0);\n  }\n\n  /// @dev Calls the Oraclize Query in case MCR calculation fails.\n  /// @param time Time (in seconds) after which the next MCR calculation should be initiated\n  function mcrOracliseFail(uint id, uint time) external onlyInternal {\n    bytes32 myid = _oraclizeQuery(4, time, \"URL\", \"\", 1000000);\n    _saveApiDetails(myid, \"MCRF\", id);\n  }\n\n  /// @dev Oraclize call to update investment asset rates.\n  function saveIADetailsOracalise(uint time) external onlyInternal {\n    bytes32 myid = _oraclizeQuery(3, time, \"URL\", \"https://api.nexusmutual.io/saveIADetails/M1\", 0);\n    _saveApiDetails(myid, \"IARB\", 0);\n  }\n\n  /**\n   * @dev Transfers all assest (i.e ETH balance, Currency Assest) from old Pool to new Pool\n   * @param newPoolAddress Address of the new Pool\n   */\n  function upgradeCapitalPool(address payable newPoolAddress) external noReentrancy onlyInternal {\n    for (uint64 i = 1; i < pd.getAllCurrenciesLen(); i++) {\n      bytes4 caName = pd.getCurrenciesByIndex(i);\n      _upgradeCapitalPool(caName, newPoolAddress);\n    }\n    if (address(this).balance > 0) {\n      Pool1 newP1 = Pool1(newPoolAddress);\n      newP1.sendEther.value(address(this).balance)();\n    }\n  }\n\n  /**\n   * @dev Iupgradable Interface to update dependent contract address\n   */\n  function changeDependentContractAddress() public {\n    m1 = MCR(ms.getLatestAddress(\"MC\"));\n    tk = NXMToken(ms.tokenAddress());\n    tf = TokenFunctions(ms.getLatestAddress(\"TF\"));\n    tc = TokenController(ms.getLatestAddress(\"TC\"));\n    pd = PoolData(ms.getLatestAddress(\"PD\"));\n    q2 = Quotation(ms.getLatestAddress(\"QT\"));\n    p2 = Pool2(ms.getLatestAddress(\"P2\"));\n    c1 = Claims(ms.getLatestAddress(\"CL\"));\n    td = TokenData(ms.getLatestAddress(\"TD\"));\n  }\n\n  function sendEther() public payable {\n\n  }\n\n  /**\n   * @dev transfers currency asset to an address\n   * @param curr is the currency of currency asset to transfer\n   * @param amount is amount of currency asset to transfer\n   * @return boolean to represent success or failure\n   */\n  function transferCurrencyAsset(\n    bytes4 curr,\n    uint amount\n  )\n  public\n  onlyInternal\n  noReentrancy\n  returns (bool)\n  {\n\n    return _transferCurrencyAsset(curr, amount);\n  }\n\n  /// @dev Handles callback of external oracle query.\n  function __callback(bytes32 myid, string memory result) public {\n    result; // silence compiler warning\n    ms.delegateCallBack(myid);\n  }\n\n  /// @dev Enables user to purchase cover with funding in ETH.\n  /// @param smartCAdd Smart Contract Address\n  function makeCoverBegin(\n    address smartCAdd,\n    bytes4 coverCurr,\n    uint[] memory coverDetails,\n    uint16 coverPeriod,\n    uint8 _v,\n    bytes32 _r,\n    bytes32 _s\n  ) public isMember checkPause payable {\n    require(msg.value == coverDetails[1]);\n    q2.verifyCoverDetails(msg.sender, smartCAdd, coverCurr, coverDetails, coverPeriod, _v, _r, _s);\n  }\n\n  /**\n   * @dev Enables user to purchase cover via currency asset eg DAI\n   */\n  function makeCoverUsingCA(\n    address smartCAdd,\n    bytes4 coverCurr,\n    uint[] memory coverDetails,\n    uint16 coverPeriod,\n    uint8 _v,\n    bytes32 _r,\n    bytes32 _s\n  ) public isMember checkPause {\n    IERC20 erc20 = IERC20(pd.getCurrencyAssetAddress(coverCurr));\n    require(erc20.transferFrom(msg.sender, address(this), coverDetails[1]), \"Transfer failed\");\n    q2.verifyCoverDetails(msg.sender, smartCAdd, coverCurr, coverDetails, coverPeriod, _v, _r, _s);\n  }\n\n  /// @dev Enables user to purchase NXM at the current token price.\n  function buyToken() public payable isMember checkPause returns (bool success) {\n    require(msg.value > 0);\n    uint tokenPurchased = _getToken(address(this).balance, msg.value);\n    tc.mint(msg.sender, tokenPurchased);\n    success = true;\n  }\n\n  /// @dev Sends a given amount of Ether to a given address.\n  /// @param amount amount (in wei) to send.\n  /// @param _add Receiver's address.\n  /// @return succ True if transfer is a success, otherwise False.\n  function transferEther(uint amount, address payable _add) public noReentrancy checkPause returns (bool succ) {\n    require(ms.checkIsAuthToGoverned(msg.sender), \"Not authorized to Govern\");\n    succ = _add.send(amount);\n  }\n\n  /**\n   * @dev Allows selling of NXM for ether.\n   * Seller first needs to give this contract allowance to\n   * transfer/burn tokens in the NXMToken contract\n   * @param  _amount Amount of NXM to sell\n   * @return success returns true on successfull sale\n   */\n  function sellNXMTokens(uint _amount) public isMember noReentrancy checkPause returns (bool success) {\n    require(tk.balanceOf(msg.sender) >= _amount, \"Not enough balance\");\n    require(!tf.isLockedForMemberVote(msg.sender), \"Member voted\");\n    require(_amount <= m1.getMaxSellTokens(), \"exceeds maximum token sell limit\");\n    uint sellingPrice = _getWei(_amount);\n    tc.burnFrom(msg.sender, _amount);\n    msg.sender.transfer(sellingPrice);\n    success = true;\n  }\n\n  /**\n   * @dev gives the investment asset balance\n   * @return investment asset balance\n   */\n  function getInvestmentAssetBalance() public view returns (uint balance) {\n    IERC20 erc20;\n    uint currTokens;\n    for (uint i = 1; i < pd.getInvestmentCurrencyLen(); i++) {\n      bytes4 currency = pd.getInvestmentCurrencyByIndex(i);\n      erc20 = IERC20(pd.getInvestmentAssetAddress(currency));\n      currTokens = erc20.balanceOf(address(p2));\n      if (pd.getIAAvgRate(currency) > 0)\n        balance = balance.add((currTokens.mul(100)).div(pd.getIAAvgRate(currency)));\n    }\n\n    balance = balance.add(address(p2).balance);\n  }\n\n  /**\n   * @dev Returns the amount of wei a seller will get for selling NXM\n   * @param amount Amount of NXM to sell\n   * @return weiToPay Amount of wei the seller will get\n   */\n  function getWei(uint amount) public view returns (uint weiToPay) {\n    return _getWei(amount);\n  }\n\n  /**\n   * @dev Returns the amount of token a buyer will get for corresponding wei\n   * @param weiPaid Amount of wei\n   * @return tokenToGet Amount of tokens the buyer will get\n   */\n  function getToken(uint weiPaid) public view returns (uint tokenToGet) {\n    return _getToken((address(this).balance).add(weiPaid), weiPaid);\n  }\n\n  /**\n   * @dev to trigger external liquidity trade\n   */\n  function _triggerExternalLiquidityTrade() internal {\n    if (now > pd.lastLiquidityTradeTrigger().add(pd.liquidityTradeCallbackTime())) {\n      pd.setLastLiquidityTradeTrigger();\n      bytes32 myid = _oraclizeQuery(4, pd.liquidityTradeCallbackTime(), \"URL\", \"\", 300000);\n      _saveApiDetails(myid, \"ULT\", 0);\n    }\n  }\n\n  /**\n   * @dev Returns the amount of wei a seller will get for selling NXM\n   * @param _amount Amount of NXM to sell\n   * @return weiToPay Amount of wei the seller will get\n   */\n  function _getWei(uint _amount) internal view returns (uint weiToPay) {\n    uint tokenPrice;\n    uint weiPaid;\n    uint tokenSupply = tk.totalSupply();\n    uint vtp;\n    uint mcrFullperc;\n    uint vFull;\n    uint mcrtp;\n    (mcrFullperc, , vFull,) = pd.getLastMCR();\n    (vtp,) = m1.calVtpAndMCRtp();\n\n    while (_amount > 0) {\n      mcrtp = (mcrFullperc.mul(vtp)).div(vFull);\n      tokenPrice = m1.calculateStepTokenPrice(\"ETH\", mcrtp);\n      tokenPrice = (tokenPrice.mul(975)).div(1000); // 97.5%\n      if (_amount <= td.priceStep().mul(DECIMAL1E18)) {\n        weiToPay = weiToPay.add((tokenPrice.mul(_amount)).div(DECIMAL1E18));\n        break;\n      } else {\n        _amount = _amount.sub(td.priceStep().mul(DECIMAL1E18));\n        tokenSupply = tokenSupply.sub(td.priceStep().mul(DECIMAL1E18));\n        weiPaid = (tokenPrice.mul(td.priceStep().mul(DECIMAL1E18))).div(DECIMAL1E18);\n        vtp = vtp.sub(weiPaid);\n        weiToPay = weiToPay.add(weiPaid);\n      }\n    }\n  }\n\n  /**\n   * @dev gives the token\n   * @param _poolBalance is the pool balance\n   * @param _weiPaid is the amount paid in wei\n   * @return the token to get\n   */\n  function _getToken(uint _poolBalance, uint _weiPaid) internal view returns (uint tokenToGet) {\n    uint tokenPrice;\n    uint superWeiLeft = (_weiPaid).mul(DECIMAL1E18);\n    uint tempTokens;\n    uint superWeiSpent;\n    uint tokenSupply = tk.totalSupply();\n    uint vtp;\n    uint mcrFullperc;\n    uint vFull;\n    uint mcrtp;\n    (mcrFullperc, , vFull,) = pd.getLastMCR();\n    (vtp,) = m1.calculateVtpAndMCRtp((_poolBalance).sub(_weiPaid));\n\n    require(m1.calculateTokenPrice(\"ETH\") > 0, \"Token price can not be zero\");\n    while (superWeiLeft > 0) {\n      mcrtp = (mcrFullperc.mul(vtp)).div(vFull);\n      tokenPrice = m1.calculateStepTokenPrice(\"ETH\", mcrtp);\n      tempTokens = superWeiLeft.div(tokenPrice);\n      if (tempTokens <= td.priceStep().mul(DECIMAL1E18)) {\n        tokenToGet = tokenToGet.add(tempTokens);\n        break;\n      } else {\n        tokenToGet = tokenToGet.add(td.priceStep().mul(DECIMAL1E18));\n        tokenSupply = tokenSupply.add(td.priceStep().mul(DECIMAL1E18));\n        superWeiSpent = td.priceStep().mul(DECIMAL1E18).mul(tokenPrice);\n        superWeiLeft = superWeiLeft.sub(superWeiSpent);\n        vtp = vtp.add((td.priceStep().mul(DECIMAL1E18).mul(tokenPrice)).div(DECIMAL1E18));\n      }\n    }\n  }\n\n  /**\n   * @dev Save the details of the Oraclize API.\n   * @param myid Id return by the oraclize query.\n   * @param _typeof type of the query for which oraclize call is made.\n   * @param id ID of the proposal, quote, cover etc. for which oraclize call is made.\n   */\n  function _saveApiDetails(bytes32 myid, bytes4 _typeof, uint id) internal {\n    pd.saveApiDetails(myid, _typeof, id);\n    pd.addInAllApiCall(myid);\n  }\n\n  /**\n   * @dev transfers currency asset\n   * @param _curr is currency of asset to transfer\n   * @param _amount is the amount to be transferred\n   * @return boolean representing the success of transfer\n   */\n  function _transferCurrencyAsset(bytes4 _curr, uint _amount) internal returns (bool succ) {\n    if (_curr == \"ETH\") {\n      if (address(this).balance < _amount)\n        _amount = address(this).balance;\n      p2.sendEther.value(_amount)();\n      succ = true;\n    } else {\n      IERC20 erc20 = IERC20(pd.getCurrencyAssetAddress(_curr)); // solhint-disable-line\n      if (erc20.balanceOf(address(this)) < _amount)\n        _amount = erc20.balanceOf(address(this));\n      require(erc20.transfer(address(p2), _amount));\n      succ = true;\n\n    }\n  }\n\n  /**\n   * @dev Transfers ERC20 Currency asset from this Pool to another Pool on upgrade.\n   */\n  function _upgradeCapitalPool(\n    bytes4 _curr,\n    address _newPoolAddress\n  )\n  internal\n  {\n    IERC20 erc20 = IERC20(pd.getCurrencyAssetAddress(_curr));\n    if (erc20.balanceOf(address(this)) > 0)\n      require(erc20.transfer(_newPoolAddress, erc20.balanceOf(address(this))));\n  }\n\n  /**\n   * @dev oraclize query\n   * @param paramCount is number of paramters passed\n   * @param timestamp is the current timestamp\n   * @param datasource in concern\n   * @param arg in concern\n   * @param gasLimit required for query\n   * @return id of oraclize query\n   */\n  function _oraclizeQuery(\n    uint paramCount,\n    uint timestamp,\n    string memory datasource,\n    string memory arg,\n    uint gasLimit\n  ) internal returns (bytes32 id){\n\n    if (paramCount == 4) {\n      id = oraclize_query(timestamp, datasource, arg, gasLimit);\n    } else if (paramCount == 3) {\n      id = oraclize_query(timestamp, datasource, arg);\n    } else {\n      id = oraclize_query(datasource, arg);\n    }\n\n  }\n}\n",
  "sourcePath": "contracts/modules/capital/Pool1.sol",
  "abi": [
    {
      "constant": false,
      "inputs": [
        {
          "name": "time",
          "type": "uint256"
        }
      ],
      "name": "saveIADetailsOracalise",
      "outputs": [],
      "payable": false,
      "stateMutability": "nonpayable",
      "type": "function"
    },
    {
      "constant": false,
      "inputs": [],
      "name": "sendEther",
      "outputs": [],
      "payable": true,
      "stateMutability": "payable",
      "type": "function"
    },
    {
      "constant": false,
      "inputs": [],
      "name": "changeDependentContractAddress",
      "outputs": [],
      "payable": false,
      "stateMutability": "nonpayable",
      "type": "function"
    },
    {
      "constant": false,
      "inputs": [
        {
          "name": "curr",
          "type": "bytes4"
        },
        {
          "name": "amount",
          "type": "uint256"
        }
      ],
      "name": "transferCurrencyAsset",
      "outputs": [
        {
          "name": "",
          "type": "bool"
        }
      ],
      "payable": false,
      "stateMutability": "nonpayable",
      "type": "function"
    },
    {
      "constant": false,
      "inputs": [
        {
          "name": "myid",
          "type": "bytes32"
        },
        {
          "name": "result",
          "type": "string"
        }
      ],
      "name": "__callback",
      "outputs": [],
      "payable": false,
      "stateMutability": "nonpayable",
      "type": "function"
    },
    {
      "constant": false,
      "inputs": [
        {
          "name": "_myid",
          "type": "bytes32"
        },
        {
          "name": "_result",
          "type": "string"
        },
        {
          "name": "_proof",
          "type": "bytes"
        }
      ],
      "name": "__callback",
      "outputs": [],
      "payable": false,
      "stateMutability": "nonpayable",
      "type": "function"
    },
    {
      "constant": false,
      "inputs": [
        {
          "name": "id",
          "type": "uint256"
        },
        {
          "name": "time",
          "type": "uint256"
        }
      ],
      "name": "mcrOracliseFail",
      "outputs": [],
      "payable": false,
      "stateMutability": "nonpayable",
      "type": "function"
    },
    {
      "constant": true,
      "inputs": [],
      "name": "c1",
      "outputs": [
        {
          "name": "",
          "type": "address"
        }
      ],
      "payable": false,
      "stateMutability": "view",
      "type": "function"
    },
    {
      "constant": false,
      "inputs": [
        {
          "name": "newPoolAddress",
          "type": "address"
        }
      ],
      "name": "upgradeCapitalPool",
      "outputs": [],
      "payable": false,
      "stateMutability": "nonpayable",
      "type": "function"
    },
    {
      "constant": false,
      "inputs": [
        {
          "name": "smartCAdd",
          "type": "address"
        },
        {
          "name": "coverCurr",
          "type": "bytes4"
        },
        {
          "name": "coverDetails",
          "type": "uint256[]"
        },
        {
          "name": "coverPeriod",
          "type": "uint16"
        },
        {
          "name": "_v",
          "type": "uint8"
        },
        {
          "name": "_r",
          "type": "bytes32"
        },
        {
          "name": "_s",
          "type": "bytes32"
        }
      ],
      "name": "makeCoverBegin",
      "outputs": [],
      "payable": true,
      "stateMutability": "payable",
      "type": "function"
    },
    {
      "constant": true,
      "inputs": [],
      "name": "getInvestmentAssetBalance",
      "outputs": [
        {
          "name": "balance",
          "type": "uint256"
        }
      ],
      "payable": false,
      "stateMutability": "view",
      "type": "function"
    },
    {
      "constant": false,
      "inputs": [
        {
          "name": "_amount",
          "type": "uint256"
        }
      ],
      "name": "sellNXMTokens",
      "outputs": [
        {
          "name": "success",
          "type": "bool"
        }
      ],
      "payable": false,
      "stateMutability": "nonpayable",
      "type": "function"
    },
    {
      "constant": false,
      "inputs": [
        {
          "name": "smartCAdd",
          "type": "address"
        },
        {
          "name": "coverCurr",
          "type": "bytes4"
        },
        {
          "name": "coverDetails",
          "type": "uint256[]"
        },
        {
          "name": "coverPeriod",
          "type": "uint16"
        },
        {
          "name": "_v",
          "type": "uint8"
        },
        {
          "name": "_r",
          "type": "bytes32"
        },
        {
          "name": "_s",
          "type": "bytes32"
        }
      ],
      "name": "makeCoverUsingCA",
      "outputs": [],
      "payable": false,
      "stateMutability": "nonpayable",
      "type": "function"
    },
    {
      "constant": false,
      "inputs": [
        {
          "name": "coverid",
          "type": "uint256"
        },
        {
          "name": "claimid",
          "type": "uint256"
        },
        {
          "name": "sumAssured",
          "type": "uint256"
        },
        {
          "name": "coverHolder",
          "type": "address"
        },
        {
          "name": "coverCurr",
          "type": "bytes4"
        }
      ],
      "name": "sendClaimPayout",
      "outputs": [
        {
          "name": "succ",
          "type": "bool"
        }
      ],
      "payable": false,
      "stateMutability": "nonpayable",
      "type": "function"
    },
    {
      "constant": false,
      "inputs": [],
      "name": "triggerExternalLiquidityTrade",
      "outputs": [],
      "payable": false,
      "stateMutability": "nonpayable",
      "type": "function"
    },
    {
      "constant": false,
      "inputs": [
        {
          "name": "id",
          "type": "uint256"
        },
        {
          "name": "time",
          "type": "uint64"
        }
      ],
      "name": "closeCoverOraclise",
      "outputs": [],
      "payable": false,
      "stateMutability": "nonpayable",
      "type": "function"
    },
    {
      "constant": true,
      "inputs": [],
      "name": "ms",
      "outputs": [
        {
          "name": "",
          "type": "address"
        }
      ],
      "payable": false,
      "stateMutability": "view",
      "type": "function"
    },
    {
      "constant": false,
      "inputs": [
        {
          "name": "id",
          "type": "uint256"
        },
        {
          "name": "time",
          "type": "uint256"
        }
      ],
      "name": "closeClaimsOraclise",
      "outputs": [],
      "payable": false,
      "stateMutability": "nonpayable",
      "type": "function"
    },
    {
      "constant": false,
      "inputs": [],
      "name": "buyToken",
      "outputs": [
        {
          "name": "success",
          "type": "bool"
        }
      ],
      "payable": true,
      "stateMutability": "payable",
      "type": "function"
    },
    {
      "constant": false,
      "inputs": [
        {
          "name": "amount",
          "type": "uint256"
        },
        {
          "name": "_add",
          "type": "address"
        }
      ],
      "name": "transferEther",
      "outputs": [
        {
          "name": "succ",
          "type": "bool"
        }
      ],
      "payable": false,
      "stateMutability": "nonpayable",
      "type": "function"
    },
    {
      "constant": false,
      "inputs": [
        {
          "name": "time",
          "type": "uint256"
        }
      ],
      "name": "mcrOraclise",
      "outputs": [],
      "payable": false,
      "stateMutability": "nonpayable",
      "type": "function"
    },
    {
      "constant": false,
      "inputs": [
        {
          "name": "_masterAddress",
          "type": "address"
        }
      ],
      "name": "changeMasterAddress",
      "outputs": [],
      "payable": false,
      "stateMutability": "nonpayable",
      "type": "function"
    },
    {
      "constant": false,
      "inputs": [
        {
          "name": "time",
          "type": "uint256"
        }
      ],
      "name": "closeEmergencyPause",
      "outputs": [],
      "payable": false,
      "stateMutability": "nonpayable",
      "type": "function"
    },
    {
      "constant": true,
      "inputs": [
        {
          "name": "weiPaid",
          "type": "uint256"
        }
      ],
      "name": "getToken",
      "outputs": [
        {
          "name": "tokenToGet",
          "type": "uint256"
        }
      ],
      "payable": false,
      "stateMutability": "view",
      "type": "function"
    },
    {
      "constant": true,
      "inputs": [
        {
          "name": "amount",
          "type": "uint256"
        }
      ],
      "name": "getWei",
      "outputs": [
        {
          "name": "weiToPay",
          "type": "uint256"
        }
      ],
      "payable": false,
      "stateMutability": "view",
      "type": "function"
    },
    {
      "constant": true,
      "inputs": [],
      "name": "nxMasterAddress",
      "outputs": [
        {
          "name": "",
          "type": "address"
        }
      ],
      "payable": false,
      "stateMutability": "view",
      "type": "function"
    },
    {
      "payable": true,
      "stateMutability": "payable",
      "type": "fallback"
    },
    {
      "anonymous": false,
      "inputs": [
        {
          "indexed": true,
          "name": "sender",
          "type": "address"
        },
        {
          "indexed": false,
          "name": "msg",
          "type": "string"
        },
        {
          "indexed": false,
          "name": "myid",
          "type": "bytes32"
        }
      ],
      "name": "Apiresult",
      "type": "event"
    },
    {
      "anonymous": false,
      "inputs": [
        {
          "indexed": true,
          "name": "to",
          "type": "address"
        },
        {
          "indexed": false,
          "name": "coverId",
          "type": "uint256"
        },
        {
          "indexed": false,
          "name": "tokens",
          "type": "uint256"
        }
      ],
      "name": "Payout",
      "type": "event"
    }
  ],
  "bytecode": "0x608060405234801561001057600080fd5b5061592f80620000216000396000f3fe6080604052600436106101815760003560e01c806399bb5856116100d1578063bd03e5011161008a578063d8ea6b0811610064578063d8ea6b0814610836578063e4b50cb814610860578063e942c5641461088a578063f17a3bec146108b457610181565b8063bd03e501146107a0578063c57dbe00146107d9578063d46655f41461080357610181565b806399bb5856146106af5780639c1fe927146107045780639cb341e314610719578063a0b2d57f14610753578063a19ed78314610768578063a48217191461079857610181565b80635085a0741161013e57806368da80af1161011857806368da80af146104a157806369b0b7371461057957806374bd0ace146105a05780638076083d146105ca57610181565b80635085a0741461040d5780635f57697c1461043d57806366fd551d1461046e57610181565b80630a7000f0146101835780630e29df22146101ad5780630ea9c984146101b55780631fac40b4146101ca57806327dc297e1461021857806338bbfa50146102d0575b005b34801561018f57600080fd5b50610181600480360360208110156101a657600080fd5b50356108c9565b6101816109af565b3480156101c157600080fd5b506101816109b1565b3480156101d657600080fd5b50610204600480360360408110156101ed57600080fd5b506001600160e01b03198135169060200135610eee565b604080519115158252519081900360200190f35b34801561022457600080fd5b506101816004803603604081101561023b57600080fd5b81359190810190604081016020820135600160201b81111561025c57600080fd5b82018360208201111561026e57600080fd5b803590602001918460018302840111600160201b8311171561028f57600080fd5b91908080601f016020809104026020016040519081016040528093929190818152602001838380828437600092019190915250929550610fff945050505050565b3480156102dc57600080fd5b50610181600480360360608110156102f357600080fd5b81359190810190604081016020820135600160201b81111561031457600080fd5b82018360208201111561032657600080fd5b803590602001918460018302840111600160201b8311171561034757600080fd5b91908080601f0160208091040260200160405190810160405280939291908181526020018383808284376000920191909152509295949360208101935035915050600160201b81111561039957600080fd5b8201836020820111156103ab57600080fd5b803590602001918460018302840111600160201b831117156103cc57600080fd5b91908080601f01602080910402602001604051908101604052809392919081815260200183838082843760009201919091525092955061106b945050505050565b34801561041957600080fd5b506101816004803603604081101561043057600080fd5b5080359060200135611070565b34801561044957600080fd5b5061045261114a565b604080516001600160a01b039092168252519081900360200190f35b34801561047a57600080fd5b506101816004803603602081101561049157600080fd5b50356001600160a01b0316611159565b610181600480360360e08110156104b757600080fd5b6001600160a01b03823516916001600160e01b031960208201351691810190606081016040820135600160201b8111156104f057600080fd5b82018360208201111561050257600080fd5b803590602001918460208302840111600160201b8311171561052357600080fd5b9190808060200260200160405190810160405280939291908181526020018383602002808284376000920191909152509295505061ffff83351693505060ff6020830135169160408101359150606001356113f0565b34801561058557600080fd5b5061058e611654565b60408051918252519081900360200190f35b3480156105ac57600080fd5b50610204600480360360208110156105c357600080fd5b50356119d5565b3480156105d657600080fd5b50610181600480360360e08110156105ed57600080fd5b6001600160a01b03823516916001600160e01b031960208201351691810190606081016040820135600160201b81111561062657600080fd5b82018360208201111561063857600080fd5b803590602001918460208302840111600160201b8311171561065957600080fd5b9190808060200260200160405190810160405280939291908181526020018383602002808284376000920191909152509295505061ffff83351693505060ff602083013516916040810135915060600135611ec8565b3480156106bb57600080fd5b50610204600480360360a08110156106d257600080fd5b5080359060208101359060408101359060608101356001600160a01b031690608001356001600160e01b0319166122a8565b34801561071057600080fd5b506101816128b7565b34801561072557600080fd5b506101816004803603604081101561073c57600080fd5b508035906020013567ffffffffffffffff16612942565b34801561075f57600080fd5b50610452612a3f565b34801561077457600080fd5b506101816004803603604081101561078b57600080fd5b5080359060200135612a4e565b610204612b27565b3480156107ac57600080fd5b50610204600480360360408110156107c357600080fd5b50803590602001356001600160a01b0316612cfc565b3480156107e557600080fd5b50610181600480360360208110156107fc57600080fd5b5035612ef6565b34801561080f57600080fd5b506101816004803603602081101561082657600080fd5b50356001600160a01b0316612fd7565b34801561084257600080fd5b506101816004803603602081101561085957600080fd5b5035613066565b34801561086c57600080fd5b5061058e6004803603602081101561088357600080fd5b503561313f565b34801561089657600080fd5b5061058e600480360360208110156108ad57600080fd5b5035613163565b3480156108c057600080fd5b5061045261316e565b60055460408051600160e21b6323c5b10702815233600482015290516001600160a01b0390921691638f16c41c91602480820192602092909190829003018186803b15801561091757600080fd5b505afa15801561092b573d6000803e3d6000fd5b505050506040513d602081101561094157600080fd5b505161094c57600080fd5b6000610993600383604051806040016040528060038152602001600160ea1b62155493028152506040518060600160405280602b8152602001615893602b9139600061317d565b90506109ab81600160e11b6324a0a9210260006131c5565b5050565b565b60055460408051600160e31b6227050b028152600160f01b614d4302600482015290516001600160a01b0390921691630138285891602480820192602092909190829003018186803b158015610a0657600080fd5b505afa158015610a1a573d6000803e3d6000fd5b505050506040513d6020811015610a3057600080fd5b5051600d80546001600160a01b0319166001600160a01b0392831617905560055460408051600160e31b6313aedd4b02815290519190921691639d76ea58916004808301926020929190829003018186803b158015610a8e57600080fd5b505afa158015610aa2573d6000803e3d6000fd5b505050506040513d6020811015610ab857600080fd5b5051600880546001600160a01b0319166001600160a01b0392831617905560055460408051600160e31b6227050b028152600160f11b612a23026004820152905191909216916301382858916024808301926020929190829003018186803b158015610b2357600080fd5b505afa158015610b37573d6000803e3d6000fd5b505050506040513d6020811015610b4d57600080fd5b5051600a80546001600160a01b0319166001600160a01b0392831617905560055460408051600160e31b6227050b028152600160f01b615443026004820152905191909216916301382858916024808301926020929190829003018186803b158015610bb857600080fd5b505afa158015610bcc573d6000803e3d6000fd5b505050506040513d6020811015610be257600080fd5b5051600980546001600160a01b0319166001600160a01b0392831617905560055460408051600160e31b6227050b028152600160f21b611411026004820152905191909216916301382858916024808301926020929190829003018186803b158015610c4d57600080fd5b505afa158015610c61573d6000803e3d6000fd5b505050506040513d6020811015610c7757600080fd5b5051600c80546001600160a01b0319166001600160a01b0392831617905560055460408051600160e31b6227050b028152600160f21b611455026004820152905191909216916301382858916024808301926020929190829003018186803b158015610ce257600080fd5b505afa158015610cf6573d6000803e3d6000fd5b505050506040513d6020811015610d0c57600080fd5b5051600780546001600160a01b0319166001600160a01b0392831617905560055460408051600160e31b6227050b028152600160f11b612819026004820152905191909216916301382858916024808301926020929190829003018186803b158015610d7757600080fd5b505afa158015610d8b573d6000803e3d6000fd5b505050506040513d6020811015610da157600080fd5b5051600b80546001600160a01b0319166001600160a01b0392831617905560055460408051600160e31b6227050b028152600160f21b6110d3026004820152905191909216916301382858916024808301926020929190829003018186803b158015610e0c57600080fd5b505afa158015610e20573d6000803e3d6000fd5b505050506040513d6020811015610e3657600080fd5b5051600e80546001600160a01b0319166001600160a01b0392831617905560055460408051600160e31b6227050b028152600160f21b611511026004820152905191909216916301382858916024808301926020929190829003018186803b158015610ea157600080fd5b505afa158015610eb5573d6000803e3d6000fd5b505050506040513d6020811015610ecb57600080fd5b5051600f80546001600160a01b0319166001600160a01b03909216919091179055565b60055460408051600160e21b6323c5b10702815233600482015290516000926001600160a01b031691638f16c41c916024808301926020929190829003018186803b158015610f3c57600080fd5b505afa158015610f50573d6000803e3d6000fd5b505050506040513d6020811015610f6657600080fd5b5051610f7157600080fd5b600f54600160a01b900460ff1615610fc85760408051600160e51b62461bcd02815260206004820152600f6024820152600160891b6e2932b2b73a3930b73a1031b0b6361702604482015290519081900360640190fd5b600f8054600160a01b60ff021916600160a01b179055610fe883836132b1565b600f8054600160a01b60ff02191690559392505050565b60055460408051600160e11b6346ebffcd0281526004810185905290516001600160a01b0390921691638dd7ff9a9160248082019260009290919082900301818387803b15801561104f57600080fd5b505af1158015611063573d6000803e3d6000fd5b505050505050565b505050565b60055460408051600160e21b6323c5b10702815233600482015290516001600160a01b0390921691638f16c41c91602480820192602092909190829003018186803b1580156110be57600080fd5b505afa1580156110d2573d6000803e3d6000fd5b505050506040513d60208110156110e857600080fd5b50516110f357600080fd5b6000611133600483604051806040016040528060038152602001600160ea1b621554930281525060405180602001604052806000815250620f424061317d565b905061106b81600160e11b6326a1a92302856131c5565b600e546001600160a01b031681565b600f54600160a01b900460ff16156111b05760408051600160e51b62461bcd02815260206004820152600f6024820152600160891b6e2932b2b73a3930b73a1031b0b6361702604482015290519081900360640190fd5b600f8054600160a01b60ff021916600160a01b17905560055460408051600160e21b6323c5b10702815233600482015290516001600160a01b0390921691638f16c41c91602480820192602092909190829003018186803b15801561121457600080fd5b505afa158015611228573d6000803e3d6000fd5b505050506040513d602081101561123e57600080fd5b505161124957600080fd5b60015b600c60009054906101000a90046001600160a01b03166001600160a01b031663255f50496040518163ffffffff1660e01b815260040160206040518083038186803b15801561129a57600080fd5b505afa1580156112ae573d6000803e3d6000fd5b505050506040513d60208110156112c457600080fd5b505167ffffffffffffffff8216101561137057600c5460408051600160e41b6303c40b1f02815267ffffffffffffffff8416600482015290516000926001600160a01b031691633c40b1f0916024808301926020929190829003018186803b15801561132f57600080fd5b505afa158015611343573d6000803e3d6000fd5b505050506040513d602081101561135957600080fd5b505190506113678184613564565b5060010161124c565b503031156113dd576000819050806001600160a01b0316630e29df22306001600160a01b0316316040518263ffffffff1660e01b81526004016000604051808303818588803b1580156113c257600080fd5b505af11580156113d6573d6000803e3d6000fd5b5050505050505b50600f8054600160a01b60ff0219169055565b60055460408051600160e21b63288c314902815233600482015290516001600160a01b039092169163a230c52491602480820192602092909190829003018186803b15801561143e57600080fd5b505afa158015611452573d6000803e3d6000fd5b505050506040513d602081101561146857600080fd5b50516114ae5760408051600160e51b62461bcd02815260206004820152600a6024820152600160b11b692737ba1036b2b6b132b902604482015290519081900360640190fd5b600560009054906101000a90046001600160a01b03166001600160a01b031663ff0938a76040518163ffffffff1660e01b815260040160206040518083038186803b1580156114fc57600080fd5b505afa158015611510573d6000803e3d6000fd5b505050506040513d602081101561152657600080fd5b50511561153257600080fd5b8460018151811061153f57fe5b6020026020010151341461155257600080fd5b600754604051600160e11b63250bc23902815233600482018181526001600160a01b038b811660248501526001600160e01b03198b16604485015261ffff8916608485015260ff881660a485015260c4840187905260e48401869052610100606485019081528a516101048601528a519190951694634a178472948d938d938d938d938d938d938d93919261012401906020808a01910280838360005b838110156116075781810151838201526020016115ef565b505050509050019950505050505050505050600060405180830381600087803b15801561163357600080fd5b505af1158015611647573d6000803e3d6000fd5b5050505050505050505050565b6000808060015b600c60009054906101000a90046001600160a01b03166001600160a01b0316637d03238f6040518163ffffffff1660e01b815260040160206040518083038186803b1580156116a957600080fd5b505afa1580156116bd573d6000803e3d6000fd5b505050506040513d60208110156116d357600080fd5b50518110156119af57600c5460408051600160e01b63dc68e16b0281526004810184905290516000926001600160a01b03169163dc68e16b916024808301926020929190829003018186803b15801561172b57600080fd5b505afa15801561173f573d6000803e3d6000fd5b505050506040513d602081101561175557600080fd5b5051600c5460408051600160e01b637e2d14d90281526001600160e01b03198416600482015290519293506001600160a01b0390911691637e2d14d991602480820192602092909190829003018186803b1580156117b257600080fd5b505afa1580156117c6573d6000803e3d6000fd5b505050506040513d60208110156117dc57600080fd5b5051600b5460408051600160e01b6370a082310281526001600160a01b0392831660048201529051929650908616916370a0823191602480820192602092909190829003018186803b15801561183157600080fd5b505afa158015611845573d6000803e3d6000fd5b505050506040513d602081101561185b57600080fd5b5051600c5460408051600160e11b637e33261b0281526001600160e01b03198516600482015290519295506000926001600160a01b039092169163fc664c3691602480820192602092909190829003018186803b1580156118bb57600080fd5b505afa1580156118cf573d6000803e3d6000fd5b505050506040513d60208110156118e557600080fd5b505111156119a657600c5460408051600160e11b637e33261b0281526001600160e01b03198416600482015290516119a392611996926001600160a01b039091169163fc664c3691602480820192602092909190829003018186803b15801561194d57600080fd5b505afa158015611961573d6000803e3d6000fd5b505050506040513d602081101561197757600080fd5b505161198a86606463ffffffff61376816565b9063ffffffff6137cb16565b869063ffffffff61380d16565b94505b5060010161165b565b50600b546119ce9084906001600160a01b03163163ffffffff61380d16565b9250505090565b60055460408051600160e21b63288c314902815233600482015290516000926001600160a01b03169163a230c524916024808301926020929190829003018186803b158015611a2357600080fd5b505afa158015611a37573d6000803e3d6000fd5b505050506040513d6020811015611a4d57600080fd5b5051611a935760408051600160e51b62461bcd02815260206004820152600a6024820152600160b11b692737ba1036b2b6b132b902604482015290519081900360640190fd5b600f54600160a01b900460ff1615611aea5760408051600160e51b62461bcd02815260206004820152600f6024820152600160891b6e2932b2b73a3930b73a1031b0b6361702604482015290519081900360640190fd5b600f8054600160a01b60ff021916600160a01b179055600554604080516001600160e01b62f6c759020319815290516001600160a01b039092169163ff0938a791600480820192602092909190829003018186803b158015611b4b57600080fd5b505afa158015611b5f573d6000803e3d6000fd5b505050506040513d6020811015611b7557600080fd5b505115611b8157600080fd5b60085460408051600160e01b6370a08231028152336004820152905184926001600160a01b0316916370a08231916024808301926020929190829003018186803b158015611bce57600080fd5b505afa158015611be2573d6000803e3d6000fd5b505050506040513d6020811015611bf857600080fd5b50511015611c505760408051600160e51b62461bcd02815260206004820152601260248201527f4e6f7420656e6f7567682062616c616e63650000000000000000000000000000604482015290519081900360640190fd5b600a5460408051600160e11b63562d6d7b02815233600482015290516001600160a01b039092169163ac5adaf691602480820192602092909190829003018186803b158015611c9e57600080fd5b505afa158015611cb2573d6000803e3d6000fd5b505050506040513d6020811015611cc857600080fd5b505115611d1f5760408051600160e51b62461bcd02815260206004820152600c60248201527f4d656d62657220766f7465640000000000000000000000000000000000000000604482015290519081900360640190fd5b600d60009054906101000a90046001600160a01b03166001600160a01b03166336b7abd06040518163ffffffff1660e01b815260040160206040518083038186803b158015611d6d57600080fd5b505afa158015611d81573d6000803e3d6000fd5b505050506040513d6020811015611d9757600080fd5b5051821115611df05760408051600160e51b62461bcd02815260206004820181905260248201527f65786365656473206d6178696d756d20746f6b656e2073656c6c206c696d6974604482015290519081900360640190fd5b6000611dfb8361386a565b60095460408051600160e41b63079cc6790281523360048201526024810187905290519293506001600160a01b03909116916379cc6790916044808201926020929091908290030181600087803b158015611e5557600080fd5b505af1158015611e69573d6000803e3d6000fd5b505050506040513d6020811015611e7f57600080fd5b5050604051339082156108fc029083906000818181858888f19350505050158015611eae573d6000803e3d6000fd5b5050600f8054600160a01b60ff0219169055506001919050565b60055460408051600160e21b63288c314902815233600482015290516001600160a01b039092169163a230c52491602480820192602092909190829003018186803b158015611f1657600080fd5b505afa158015611f2a573d6000803e3d6000fd5b505050506040513d6020811015611f4057600080fd5b5051611f865760408051600160e51b62461bcd02815260206004820152600a6024820152600160b11b692737ba1036b2b6b132b902604482015290519081900360640190fd5b600560009054906101000a90046001600160a01b03166001600160a01b031663ff0938a76040518163ffffffff1660e01b815260040160206040518083038186803b158015611fd457600080fd5b505afa158015611fe8573d6000803e3d6000fd5b505050506040513d6020811015611ffe57600080fd5b50511561200a57600080fd5b600c5460408051600160e01b63e3dee2390281526001600160e01b03198916600482015290516000926001600160a01b03169163e3dee239916024808301926020929190829003018186803b15801561206257600080fd5b505afa158015612076573d6000803e3d6000fd5b505050506040513d602081101561208c57600080fd5b505186519091506001600160a01b038216906323b872dd90339030908a9060019081106120b557fe5b60200260200101516040518463ffffffff1660e01b815260040180846001600160a01b03166001600160a01b03168152602001836001600160a01b03166001600160a01b031681526020018281526020019350505050602060405180830381600087803b15801561212557600080fd5b505af1158015612139573d6000803e3d6000fd5b505050506040513d602081101561214f57600080fd5b50516121a55760408051600160e51b62461bcd02815260206004820152600f60248201527f5472616e73666572206661696c65640000000000000000000000000000000000604482015290519081900360640190fd5b600754604051600160e11b63250bc23902815233600482018181526001600160a01b038c811660248501526001600160e01b03198c16604485015261ffff8a16608485015260ff891660a485015260c4840188905260e48401879052610100606485019081528b516101048601528b519190951694634a178472948e938e938e938e938e938e938e93919261012401906020808a01910280838360005b8381101561225a578181015183820152602001612242565b505050509050019950505050505050505050600060405180830381600087803b15801561228657600080fd5b505af115801561229a573d6000803e3d6000fd5b505050505050505050505050565b60055460408051600160e21b6323c5b10702815233600482015290516000926001600160a01b031691638f16c41c916024808301926020929190829003018186803b1580156122f657600080fd5b505afa15801561230a573d6000803e3d6000fd5b505050506040513d602081101561232057600080fd5b505161232b57600080fd5b600f54600160a01b900460ff16156123825760408051600160e51b62461bcd02815260206004820152600f6024820152600160891b6e2932b2b73a3930b73a1031b0b6361702604482015290519081900360640190fd5b600f8054600160a01b60ff021916600160a01b17905560006123b285670de0b6b3a764000063ffffffff6137cb16565b600c5460408051600160e01b63e3dee2390281526001600160e01b031987166004820152905192935060009283926001600160a01b03169163e3dee239916024808301926020929190829003018186803b15801561240f57600080fd5b505afa158015612423573d6000803e3d6000fd5b505050506040513d602081101561243957600080fd5b50519050600160eb1b6208aa89026001600160e01b03198616148015612460575030318711155b156124a5576040516001600160a01b0387169088156108fc029089906000818181858888f1935050505015801561249b573d6000803e3d6000fd5b50600191506125d3565b600160e81b62444149026001600160e01b0319861614801561253d575060408051600160e01b6370a08231028152306004820152905188916001600160a01b038416916370a0823191602480820192602092909190829003018186803b15801561250e57600080fd5b505afa158015612522573d6000803e3d6000fd5b505050506040513d602081101561253857600080fd5b505110155b156125d357806001600160a01b031663a9059cbb87896040518363ffffffff1660e01b815260040180836001600160a01b03166001600160a01b0316815260200182815260200192505050602060405180830381600087803b1580156125a257600080fd5b505af11580156125b6573d6000803e3d6000fd5b505050506040513d60208110156125cc57600080fd5b5060019250505b600182151514156127a35760075460408051600160e11b633fb453cf028152600481018c90526024810186905290516001600160a01b0390921691637f68a79e9160448082019260009290919082900301818387803b15801561263557600080fd5b505af1158015612649573d6000803e3d6000fd5b5050600c5460408051600160e81b62487d2d0281526001600160e01b03198a16600482015290516001600160a01b03909216935063d1750585925088916126eb918c91869163487d2d00916024808301926020929190829003018186803b1580156126b357600080fd5b505afa1580156126c7573d6000803e3d6000fd5b505050506040513d60208110156126dd57600080fd5b50519063ffffffff613cde16565b6040518363ffffffff1660e01b815260040180836001600160e01b0319166001600160e01b031916815260200182815260200192505050600060405180830381600087803b15801561273c57600080fd5b505af1158015612750573d6000803e3d6000fd5b5050604080518c8152602081018b905281516001600160a01b038b1694507f634235fcf5af0adbca1a405ec65f6f6c08f55e1f379c2c45cd10f23cb29e0e3193509081900390910190a260019350612813565b600e5460408051600160e11b637a88deff028152600481018b9052600c602482015290516001600160a01b039092169163f511bdfe9160448082019260009290919082900301818387803b1580156127fa57600080fd5b505af115801561280e573d6000803e3d6000fd5b505050505b61281b613d20565b600a5460408051600160e31b631f359581028152600481018c90526001600160e01b031988166024820152604481018a905290516001600160a01b039092169163f9acac089160648082019260009290919082900301818387803b15801561288257600080fd5b505af1158015612896573d6000803e3d6000fd5b5050600f8054600160a01b60ff021916905550939998505050505050505050565b60055460408051600160e21b6323c5b10702815233600482015290516001600160a01b0390921691638f16c41c91602480820192602092909190829003018186803b15801561290557600080fd5b505afa158015612919573d6000803e3d6000fd5b505050506040513d602081101561292f57600080fd5b505161293a57600080fd5b6109af613d20565b60055460408051600160e21b6323c5b10702815233600482015290516001600160a01b0390921691638f16c41c91602480820192602092909190829003018186803b15801561299057600080fd5b505afa1580156129a4573d6000803e3d6000fd5b505050506040513d60208110156129ba57600080fd5b50516129c557600080fd5b6000612a2960048367ffffffffffffffff16604051806040016040528060038152602001600160ea1b6215549302815250612a2060405180606001604052806034815260200161585f60349139612a1b89613f4d565b614011565b620f424061317d565b905061106b81600160e91b6221a7ab02856131c5565b6005546001600160a01b031681565b60055460408051600160e21b6323c5b10702815233600482015290516001600160a01b0390921691638f16c41c91602480820192602092909190829003018186803b158015612a9c57600080fd5b505afa158015612ab0573d6000803e3d6000fd5b505050506040513d6020811015612ac657600080fd5b5051612ad157600080fd5b6000612b11600483604051806040016040528060038152602001600160ea1b621554930281525060405180602001604052806000815250622dc6c061317d565b905061106b81600160e81b62434c4102856131c5565b60055460408051600160e21b63288c314902815233600482015290516000926001600160a01b03169163a230c524916024808301926020929190829003018186803b158015612b7557600080fd5b505afa158015612b89573d6000803e3d6000fd5b505050506040513d6020811015612b9f57600080fd5b5051612be55760408051600160e51b62461bcd02815260206004820152600a6024820152600160b11b692737ba1036b2b6b132b902604482015290519081900360640190fd5b600560009054906101000a90046001600160a01b03166001600160a01b031663ff0938a76040518163ffffffff1660e01b815260040160206040518083038186803b158015612c3357600080fd5b505afa158015612c47573d6000803e3d6000fd5b505050506040513d6020811015612c5d57600080fd5b505115612c6957600080fd5b60003411612c7657600080fd5b6000612c8330313461404d565b60095460408051600160e01b6340c10f190281523360048201526024810184905290519293506001600160a01b03909116916340c10f199160448082019260009290919082900301818387803b158015612cdc57600080fd5b505af1158015612cf0573d6000803e3d6000fd5b50505050600191505090565b600f54600090600160a01b900460ff1615612d565760408051600160e51b62461bcd02815260206004820152600f6024820152600160891b6e2932b2b73a3930b73a1031b0b6361702604482015290519081900360640190fd5b600f8054600160a01b60ff021916600160a01b179055600554604080516001600160e01b62f6c759020319815290516001600160a01b039092169163ff0938a791600480820192602092909190829003018186803b158015612db757600080fd5b505afa158015612dcb573d6000803e3d6000fd5b505050506040513d6020811015612de157600080fd5b505115612ded57600080fd5b60055460408051600160e11b632c1a733d02815233600482015290516001600160a01b0390921691635834e67a91602480820192602092909190829003018186803b158015612e3b57600080fd5b505afa158015612e4f573d6000803e3d6000fd5b505050506040513d6020811015612e6557600080fd5b5051612ebb5760408051600160e51b62461bcd02815260206004820152601860248201527f4e6f7420617574686f72697a656420746f20476f7665726e0000000000000000604482015290519081900360640190fd5b6040516001600160a01b0383169084156108fc029085906000818181858888f1600f8054600160a01b60ff0219169055979650505050505050565b60055460408051600160e21b6323c5b10702815233600482015290516001600160a01b0390921691638f16c41c91602480820192602092909190829003018186803b158015612f4457600080fd5b505afa158015612f58573d6000803e3d6000fd5b505050506040513d6020811015612f6e57600080fd5b5051612f7957600080fd5b6000612fc0600383604051806040016040528060038152602001600160ea1b62155493028152506040518060600160405280602581526020016158df60259139600061317d565b90506109ab81600160e91b6226a1a90260006131c5565b6005546001600160a01b03161561303a576005546001600160a01b0316331461303a5760408051600160e51b62461bcd02815260206004820152600a6024820152600160b11b692737ba1036b0b9ba32b902604482015290519081900360640190fd5b600580546001600160a01b039092166001600160a01b0319928316811790915560068054909216179055565b60055460408051600160e21b6323c5b10702815233600482015290516001600160a01b0390921691638f16c41c91602480820192602092909190829003018186803b1580156130b457600080fd5b505afa1580156130c8573d6000803e3d6000fd5b505050506040513d60208110156130de57600080fd5b50516130e957600080fd5b6000613129600483604051806040016040528060038152602001600160ea1b621554930281525060405180602001604052806000815250620493e061317d565b90506109ab81600160f41b6104550260006131c5565b600061315b61315530318463ffffffff61380d16565b8361404d565b90505b919050565b600061315b8261386a565b6006546001600160a01b031681565b6000856004141561319b57613194858585856145c5565b90506131bc565b85600314156131af5761319485858561499f565b6131b98484614d69565b90505b95945050505050565b600c5460408051600160e41b630424593b028152600481018690526001600160e01b0319851660248201526044810184905290516001600160a01b039092169163424593b09160648082019260009290919082900301818387803b15801561322c57600080fd5b505af1158015613240573d6000803e3d6000fd5b5050600c5460408051600160e01b63d676ee910281526004810188905290516001600160a01b03909216935063d676ee91925060248082019260009290919082900301818387803b15801561329457600080fd5b505af11580156132a8573d6000803e3d6000fd5b50505050505050565b6000600160eb1b6208aa89026001600160e01b03198416141561334e5730318211156132dc57303191505b600b60009054906101000a90046001600160a01b03166001600160a01b0316630e29df22836040518263ffffffff1660e01b81526004016000604051808303818588803b15801561332c57600080fd5b505af1158015613340573d6000803e3d6000fd5b50505050506001905061355e565b600c5460408051600160e01b63e3dee2390281526001600160e01b03198616600482015290516000926001600160a01b03169163e3dee239916024808301926020929190829003018186803b1580156133a657600080fd5b505afa1580156133ba573d6000803e3d6000fd5b505050506040513d60208110156133d057600080fd5b505160408051600160e01b6370a08231028152306004820152905191925084916001600160a01b038416916370a08231916024808301926020929190829003018186803b15801561342057600080fd5b505afa158015613434573d6000803e3d6000fd5b505050506040513d602081101561344a57600080fd5b505110156134ca5760408051600160e01b6370a0823102815230600482015290516001600160a01b038316916370a08231916024808301926020929190829003018186803b15801561349b57600080fd5b505afa1580156134af573d6000803e3d6000fd5b505050506040513d60208110156134c557600080fd5b505192505b600b5460408051600160e01b63a9059cbb0281526001600160a01b0392831660048201526024810186905290519183169163a9059cbb916044808201926020929091908290030181600087803b15801561352357600080fd5b505af1158015613537573d6000803e3d6000fd5b505050506040513d602081101561354d57600080fd5b505161355857600080fd5b60019150505b92915050565b600c5460408051600160e01b63e3dee2390281526001600160e01b03198516600482015290516000926001600160a01b03169163e3dee239916024808301926020929190829003018186803b1580156135bc57600080fd5b505afa1580156135d0573d6000803e3d6000fd5b505050506040513d60208110156135e657600080fd5b505160408051600160e01b6370a0823102815230600482015290519192506000916001600160a01b038416916370a08231916024808301926020929190829003018186803b15801561363757600080fd5b505afa15801561364b573d6000803e3d6000fd5b505050506040513d602081101561366157600080fd5b5051111561106b5760408051600160e01b6370a0823102815230600482015290516001600160a01b0383169163a9059cbb91859184916370a0823191602480820192602092909190829003018186803b1580156136bd57600080fd5b505afa1580156136d1573d6000803e3d6000fd5b505050506040513d60208110156136e757600080fd5b50516040805163ffffffff851660e01b81526001600160a01b03909316600484015260248301919091525160448083019260209291908290030181600087803b15801561373357600080fd5b505af1158015613747573d6000803e3d6000fd5b505050506040513d602081101561375d57600080fd5b505161106b57600080fd5b6000826137775750600061355e565b8282028284828161378457fe5b04146137c457604051600160e51b62461bcd0281526004018080602001828103825260218152602001806158be6021913960400191505060405180910390fd5b9392505050565b60006137c483836040518060400160405280601a81526020017f536166654d6174683a206469766973696f6e206279207a65726f00000000000081525061512d565b6000828201838110156137c45760408051600160e51b62461bcd02815260206004820152601b60248201527f536166654d6174683a206164646974696f6e206f766572666c6f770000000000604482015290519081900360640190fd5b600080600080600860009054906101000a90046001600160a01b03166001600160a01b03166318160ddd6040518163ffffffff1660e01b815260040160206040518083038186803b1580156138be57600080fd5b505afa1580156138d2573d6000803e3d6000fd5b505050506040513d60208110156138e857600080fd5b5051600c5460408051600160e01b63c94f740f02815290519293506000928392839283926001600160a01b039092169163c94f740f91600480820192608092909190829003018186803b15801561393e57600080fd5b505afa158015613952573d6000803e3d6000fd5b505050506040513d608081101561396857600080fd5b508051604091820151600d548351600160e11b636cf68d3d02815284519397509195506001600160a01b03169263d9ed1a7a92600480840193829003018186803b1580156139b557600080fd5b505afa1580156139c9573d6000803e3d6000fd5b505050506040513d60408110156139df57600080fd5b505193505b8815613cd2576139fe8261198a858763ffffffff61376816565b600d5460408051600160e01b636837a51f028152600160eb1b6208aa890260048201526024810184905290519293506001600160a01b0390911691636837a51f91604480820192602092909190829003018186803b158015613a5f57600080fd5b505afa158015613a73573d6000803e3d6000fd5b505050506040513d6020811015613a8957600080fd5b50519650613aa56103e861198a896103cf63ffffffff61376816565b600f5460408051600160e21b63223546710281529051929950613b3392670de0b6b3a7640000926001600160a01b0316916388d519c4916004808301926020929190829003018186803b158015613afb57600080fd5b505afa158015613b0f573d6000803e3d6000fd5b505050506040513d6020811015613b2557600080fd5b50519063ffffffff61376816565b8911613b6c57613b65613b58670de0b6b3a764000061198a8a8d63ffffffff61376816565b899063ffffffff61380d16565b9750613cd2565b613bd2613bc56012600a0a600f60009054906101000a90046001600160a01b03166001600160a01b03166388d519c46040518163ffffffff1660e01b815260040160206040518083038186803b158015613afb57600080fd5b8a9063ffffffff613cde16565b9850613c3a613c2d6012600a0a600f60009054906101000a90046001600160a01b03166001600160a01b03166388d519c46040518163ffffffff1660e01b815260040160206040518083038186803b158015613afb57600080fd5b869063ffffffff613cde16565b600f5460408051600160e21b63223546710281529051929750613ca792670de0b6b3a76400009261198a92613c9a9285926001600160a01b0316916388d519c4916004808301926020929190829003018186803b158015613afb57600080fd5b8a9063ffffffff61376816565b9550613cb9848763ffffffff613cde16565b9350613ccb888763ffffffff61380d16565b97506139e4565b50505050505050919050565b60006137c483836040518060400160405280601e81526020017f536166654d6174683a207375627472616374696f6e206f766572666c6f7700008152506151d2565b600c5460408051600160e31b630ca93feb0281529051613e15926001600160a01b031691636549ff58916004808301926020929190829003018186803b158015613d6957600080fd5b505afa158015613d7d573d6000803e3d6000fd5b505050506040513d6020811015613d9357600080fd5b5051600c5460408051600160e01b634e55a69b02815290516001600160a01b0390921691634e55a69b91600480820192602092909190829003018186803b158015613ddd57600080fd5b505afa158015613df1573d6000803e3d6000fd5b505050506040513d6020811015613e0757600080fd5b50519063ffffffff61380d16565b4211156109af57600c60009054906101000a90046001600160a01b03166001600160a01b03166384769f446040518163ffffffff1660e01b8152600401600060405180830381600087803b158015613e6c57600080fd5b505af1158015613e80573d6000803e3d6000fd5b5050600c5460408051600160e31b630ca93feb028152905160009450613f3393506004926001600160a01b031691636549ff5891818501916020919081900386018186803b158015613ed157600080fd5b505afa158015613ee5573d6000803e3d6000fd5b505050506040513d6020811015613efb57600080fd5b505160408051808201825260038152600160ea1b621554930260208281019190915282519081019092526000825290620493e061317d565b9050613f4a81600160ea1b621553150260006131c5565b50565b606081613f7557506040805180820190915260018152600160fc1b600302602082015261315e565b8160005b8115613f8d57600101600a82049150613f79565b6060816040519080825280601f01601f191660200182016040528015613fba576020820181803883390190505b50905060001982015b851561400857600a860660300160f81b82828060019003935081518110613fe657fe5b60200101906001600160f81b031916908160001a905350600a86049550613fc3565b50949350505050565b60606137c4838360405180602001604052806000815250604051806020016040528060008152506040518060200160405280600081525061522f565b6000808061406984670de0b6b3a764000063ffffffff61376816565b90506000806000600860009054906101000a90046001600160a01b03166001600160a01b03166318160ddd6040518163ffffffff1660e01b815260040160206040518083038186803b1580156140be57600080fd5b505afa1580156140d2573d6000803e3d6000fd5b505050506040513d60208110156140e857600080fd5b5051600c5460408051600160e01b63c94f740f02815290519293506000928392839283926001600160a01b039092169163c94f740f91600480820192608092909190829003018186803b15801561413e57600080fd5b505afa158015614152573d6000803e3d6000fd5b505050506040513d608081101561416857600080fd5b508051604090910151600d5491945092506001600160a01b0316639af1f71f6141978e8e63ffffffff613cde16565b6040518263ffffffff1660e01b815260040180828152602001915050604080518083038186803b1580156141ca57600080fd5b505afa1580156141de573d6000803e3d6000fd5b505050506040513d60408110156141f457600080fd5b5051600d5460408051600160e01b633cb23b2d028152600160eb1b6208aa8902600482015290519296506000926001600160a01b0390921691633cb23b2d91602480820192602092909190829003018186803b15801561425357600080fd5b505afa158015614267573d6000803e3d6000fd5b505050506040513d602081101561427d57600080fd5b5051116142d45760408051600160e51b62461bcd02815260206004820152601b60248201527f546f6b656e2070726963652063616e206e6f74206265207a65726f0000000000604482015290519081900360640190fd5b87156145b6576142ee8261198a858763ffffffff61376816565b600d5460408051600160e01b636837a51f028152600160eb1b6208aa890260048201526024810184905290519293506001600160a01b0390911691636837a51f91604480820192602092909190829003018186803b15801561434f57600080fd5b505afa158015614363573d6000803e3d6000fd5b505050506040513d602081101561437957600080fd5b5051985061438d888a63ffffffff6137cb16565b600f5460408051600160e21b632235467102815290519299506143e392670de0b6b3a7640000926001600160a01b0316916388d519c4916004808301926020929190829003018186803b158015613afb57600080fd5b8711614400576143f98a8863ffffffff61380d16565b99506145b6565b6144666144596012600a0a600f60009054906101000a90046001600160a01b03166001600160a01b03166388d519c46040518163ffffffff1660e01b815260040160206040518083038186803b158015613afb57600080fd5b8b9063ffffffff61380d16565b99506144c16119966012600a0a600f60009054906101000a90046001600160a01b03166001600160a01b03166388d519c46040518163ffffffff1660e01b815260040160206040518083038186803b158015613afb57600080fd5b94506145298961451d6012600a0a600f60009054906101000a90046001600160a01b03166001600160a01b03166388d519c46040518163ffffffff1660e01b815260040160206040518083038186803b158015613afb57600080fd5b9063ffffffff61376816565b955061453b888763ffffffff613cde16565b97506145af6145a26012600a0a61198a8c61451d6012600a0a600f60009054906101000a90046001600160a01b03166001600160a01b03166388d519c46040518163ffffffff1660e01b815260040160206040518083038186803b158015613afb57600080fd5b859063ffffffff61380d16565b93506142d4565b50505050505050505092915050565b6001546000906001600160a01b031615806145f257506001546145f0906001600160a01b0316615443565b155b15614603576146016000615447565b505b600160009054906101000a90046001600160a01b03166001600160a01b03166338cc48316040518163ffffffff1660e01b8152600401602060405180830381600087803b15801561465357600080fd5b505af1158015614667573d6000803e3d6000fd5b505050506040513d602081101561467d57600080fd5b50516000546001600160a01b0390811691161461473057600160009054906101000a90046001600160a01b03166001600160a01b03166338cc48316040518163ffffffff1660e01b8152600401602060405180830381600087803b1580156146e457600080fd5b505af11580156146f8573d6000803e3d6000fd5b505050506040513d602081101561470e57600080fd5b5051600080546001600160a01b0319166001600160a01b039092169190911790555b6000805460408051600160e21b630bbceb3302815260248101869052600481019182528751604482015287516001600160a01b0390931692632ef3accc928992889282916064019060208601908083838c5b8381101561479a578181015183820152602001614782565b50505050905090810190601f1680156147c75780820380516001836020036101000a031916815260200191505b509350505050602060405180830381600087803b1580156147e757600080fd5b505af11580156147fb573d6000803e3d6000fd5b505050506040513d602081101561481157600080fd5b50519050670de0b6b3a76400003a840201811115614833575060009050614997565b6000809054906101000a90046001600160a01b03166001600160a01b031663c51be90f82888888886040518663ffffffff1660e01b8152600401808581526020018060200180602001848152602001838103835286818151815260200191508051906020019080838360005b838110156148b757818101518382015260200161489f565b50505050905090810190601f1680156148e45780820380516001836020036101000a031916815260200191505b50838103825285518152855160209182019187019080838360005b838110156149175781810151838201526020016148ff565b50505050905090810190601f1680156149445780820380516001836020036101000a031916815260200191505b5096505050505050506020604051808303818588803b15801561496657600080fd5b505af115801561497a573d6000803e3d6000fd5b50505050506040513d602081101561499157600080fd5b50519150505b949350505050565b6001546000906001600160a01b031615806149cc57506001546149ca906001600160a01b0316615443565b155b156149dd576149db6000615447565b505b600160009054906101000a90046001600160a01b03166001600160a01b03166338cc48316040518163ffffffff1660e01b8152600401602060405180830381600087803b158015614a2d57600080fd5b505af1158015614a41573d6000803e3d6000fd5b505050506040513d6020811015614a5757600080fd5b50516000546001600160a01b03908116911614614b0a57600160009054906101000a90046001600160a01b03166001600160a01b03166338cc48316040518163ffffffff1660e01b8152600401602060405180830381600087803b158015614abe57600080fd5b505af1158015614ad2573d6000803e3d6000fd5b505050506040513d6020811015614ae857600080fd5b5051600080546001600160a01b0319166001600160a01b039092169190911790555b60008054604051600160e01b63524f38890281526020600482018181528751602484015287516001600160a01b039094169363524f38899389938392604490920191908501908083838b5b83811015614b6d578181015183820152602001614b55565b50505050905090810190601f168015614b9a5780820380516001836020036101000a031916815260200191505b5092505050602060405180830381600087803b158015614bb957600080fd5b505af1158015614bcd573d6000803e3d6000fd5b505050506040513d6020811015614be357600080fd5b50519050670de0b6b3a764000062030d403a0201811115614c085750600090506137c4565b6000809054906101000a90046001600160a01b03166001600160a01b031663adf59f99828787876040518563ffffffff1660e01b8152600401808481526020018060200180602001838103835285818151815260200191508051906020019080838360005b83811015614c85578181015183820152602001614c6d565b50505050905090810190601f168015614cb25780820380516001836020036101000a031916815260200191505b50838103825284518152845160209182019186019080838360005b83811015614ce5578181015183820152602001614ccd565b50505050905090810190601f168015614d125780820380516001836020036101000a031916815260200191505b50955050505050506020604051808303818588803b158015614d3357600080fd5b505af1158015614d47573d6000803e3d6000fd5b50505050506040513d6020811015614d5e57600080fd5b505195945050505050565b6001546000906001600160a01b03161580614d965750600154614d94906001600160a01b0316615443565b155b15614da757614da56000615447565b505b600160009054906101000a90046001600160a01b03166001600160a01b03166338cc48316040518163ffffffff1660e01b8152600401602060405180830381600087803b158015614df757600080fd5b505af1158015614e0b573d6000803e3d6000fd5b505050506040513d6020811015614e2157600080fd5b50516000546001600160a01b03908116911614614ed457600160009054906101000a90046001600160a01b03166001600160a01b03166338cc48316040518163ffffffff1660e01b8152600401602060405180830381600087803b158015614e8857600080fd5b505af1158015614e9c573d6000803e3d6000fd5b505050506040513d6020811015614eb257600080fd5b5051600080546001600160a01b0319166001600160a01b039092169190911790555b60008054604051600160e01b63524f38890281526020600482018181528751602484015287516001600160a01b039094169363524f38899389938392604490920191908501908083838b5b83811015614f37578181015183820152602001614f1f565b50505050905090810190601f168015614f645780820380516001836020036101000a031916815260200191505b5092505050602060405180830381600087803b158015614f8357600080fd5b505af1158015614f97573d6000803e3d6000fd5b505050506040513d6020811015614fad57600080fd5b50519050670de0b6b3a764000062030d403a0201811115614fd257506000905061355e565b60008054604051600160e01b63adf59f99028152600481018381526060602483019081528851606484015288516001600160a01b039094169463adf59f9994879491938b938b9391929091604481019160849091019060208701908083838b5b8381101561504a578181015183820152602001615032565b50505050905090810190601f1680156150775780820380516001836020036101000a031916815260200191505b50838103825284518152845160209182019186019080838360005b838110156150aa578181015183820152602001615092565b50505050905090810190601f1680156150d75780820380516001836020036101000a031916815260200191505b50955050505050506020604051808303818588803b1580156150f857600080fd5b505af115801561510c573d6000803e3d6000fd5b50505050506040513d602081101561512357600080fd5b5051949350505050565b600081836151bc57604051600160e51b62461bcd0281526004018080602001828103825283818151815260200191508051906020019080838360005b83811015615181578181015183820152602001615169565b50505050905090810190601f1680156151ae5780820380516001836020036101000a031916815260200191505b509250505060405180910390fd5b5060008385816151c857fe5b0495945050505050565b6000818484111561522757604051600160e51b62461bcd028152602060048201818152835160248401528351909283926044909101919085019080838360008315615181578181015183820152602001615169565b505050900390565b6060808690506060869050606086905060608690506060869050606081518351855187518951010101016040519080825280601f01601f191660200182016040528015615283576020820181803883390190505b509050806000805b88518110156152dc578881815181106152a057fe5b602001015160f81c60f81b8383806001019450815181106152bd57fe5b60200101906001600160f81b031916908160001a90535060010161528b565b5060005b8751811015615331578781815181106152f557fe5b602001015160f81c60f81b83838060010194508151811061531257fe5b60200101906001600160f81b031916908160001a9053506001016152e0565b5060005b86518110156153865786818151811061534a57fe5b602001015160f81c60f81b83838060010194508151811061536757fe5b60200101906001600160f81b031916908160001a905350600101615335565b5060005b85518110156153db5785818151811061539f57fe5b602001015160f81c60f81b8383806001019450815181106153bc57fe5b60200101906001600160f81b031916908160001a90535060010161538a565b5060005b8451811015615430578481815181106153f457fe5b602001015160f81c60f81b83838060010194508151811061541157fe5b60200101906001600160f81b031916908160001a9053506001016153df565b50909d9c50505050505050505050505050565b3b90565b600061315b60008061546c731d3b2638a7cc9f2cb3d298a3da7a90b67e5506ed615443565b11156154ce57600180546001600160a01b031916731d3b2638a7cc9f2cb3d298a3da7a90b67e5506ed17905560408051808201909152600b8152600160aa1b6a195d1a17db585a5b9b995d0260208201526154c6906157b8565b5060016157b5565b60006154ed73c03a2615d5efaf5f49f60b7bb6583eaec212fdf1615443565b111561555657600180546001600160a01b03191673c03a2615d5efaf5f49f60b7bb6583eaec212fdf117905560408051808201909152600c81527f6574685f726f707374656e33000000000000000000000000000000000000000060208201526154c6906157b8565b600061557573b7a07bcf2ba2f2703b24c0691b5278999c59ac7e615443565b11156155cd57600180546001600160a01b03191673b7a07bcf2ba2f2703b24c0691b5278999c59ac7e1790556040805180820190915260098152600160b91b6832ba342fb5b7bb30b70260208201526154c6906157b8565b60006155ec73146500cfd35b22e4a392fe0adc06de1a1368ed48615443565b111561564657600180546001600160a01b03191673146500cfd35b22e4a392fe0adc06de1a1368ed4817905560408051808201909152600b8152600160a81b6a6574685f72696e6b6562790260208201526154c6906157b8565b600061566573a2998efd205fb9d4b4963afb70778d6354ad3a41615443565b11156156be57600180546001600160a01b03191673a2998efd205fb9d4b4963afb70778d6354ad3a4117905560408051808201909152600a8152600160b01b696574685f676f65726c690260208201526154c6906157b8565b60006156dd736f485c8bf6fc43ea212e93bbf8ce046c7f1cb475615443565b111561570f5750600180546001600160a01b031916736f485c8bf6fc43ea212e93bbf8ce046c7f1cb4751781556157b5565b600061572e7320e12a1f859b3feae5fb2a0a32c18f5a65555bbf615443565b11156157605750600180546001600160a01b0319167320e12a1f859b3feae5fb2a0a32c18f5a65555bbf1781556157b5565b600061577f7351efaf4c8b3c9afbd5ab9f4bbc82784ab6ef8faa615443565b11156157b15750600180546001600160a01b0319167351efaf4c8b3c9afbd5ab9f4bbc82784ab6ef8faa1781556157b5565b5060005b90565b80516109ab906002906020840190828054600181600116156101000203166002900490600052602060002090601f016020900481019282601f1061580757805160ff1916838001178555615834565b82800160010185558215615834579182015b82811115615834578251825591602001919060010190615819565b50615840929150615844565b5090565b6157b591905b80821115615840576000815560010161584a56fe687474703a2f2f61312e6e657875736d757475616c2e696f2f6170692f436c61696d732f636c6f7365436c61696d5f686173682f68747470733a2f2f6170692e6e657875736d757475616c2e696f2f73617665494144657461696c732f4d31536166654d6174683a206d756c7469706c69636174696f6e206f766572666c6f7768747470733a2f2f6170692e6e657875736d757475616c2e696f2f706f73744d43522f4d31a165627a7a72305820dabe37bf3f2d93a1bb5a54890a4f2ba7e02626727aee6496c2279fbdf8cc36670029",
  "compiler": {
    "name": "solc",
    "version": "0.5.7+commit.6da8b019.Emscripten.clang",
    "optimizer": {
      "enabled": true,
      "runs": 200
    },
    "evmVersion": "petersburg"
  }
}