{
  "fileName": "Pool1Mock.sol",
  "contractName": "Pool1Mock",
  "source": "pragma solidity ^0.5.0;\n\nimport \"../modules/capital/Pool1.sol\";\nimport \"../modules/claims/ClaimsData.sol\";\n\ncontract Pool1Mock is Pool1 {\n\n  function _oraclizeQuery(\n    uint paramCount,\n    uint timestamp,\n    string memory datasource,\n    string memory arg,\n    uint gasLimit\n  )\n  internal\n  returns (bytes32)\n  {\n    return bytes32(\n      keccak256(abi.encodePacked(paramCount, timestamp, datasource, arg, gasLimit, now))\n    );\n  }\n}\n",
  "sourcePath": "contracts/mocks/Pool1Mock.sol",
  "abi": [
    {
      "constant": false,
      "inputs": [
        {
          "name": "time",
          "type": "uint256"
        }
      ],
      "name": "saveIADetailsOracalise",
      "outputs": [],
      "payable": false,
      "stateMutability": "nonpayable",
      "type": "function"
    },
    {
      "constant": false,
      "inputs": [],
      "name": "sendEther",
      "outputs": [],
      "payable": true,
      "stateMutability": "payable",
      "type": "function"
    },
    {
      "constant": false,
      "inputs": [],
      "name": "changeDependentContractAddress",
      "outputs": [],
      "payable": false,
      "stateMutability": "nonpayable",
      "type": "function"
    },
    {
      "constant": false,
      "inputs": [
        {
          "name": "curr",
          "type": "bytes4"
        },
        {
          "name": "amount",
          "type": "uint256"
        }
      ],
      "name": "transferCurrencyAsset",
      "outputs": [
        {
          "name": "",
          "type": "bool"
        }
      ],
      "payable": false,
      "stateMutability": "nonpayable",
      "type": "function"
    },
    {
      "constant": false,
      "inputs": [
        {
          "name": "myid",
          "type": "bytes32"
        },
        {
          "name": "result",
          "type": "string"
        }
      ],
      "name": "__callback",
      "outputs": [],
      "payable": false,
      "stateMutability": "nonpayable",
      "type": "function"
    },
    {
      "constant": false,
      "inputs": [
        {
          "name": "_myid",
          "type": "bytes32"
        },
        {
          "name": "_result",
          "type": "string"
        },
        {
          "name": "_proof",
          "type": "bytes"
        }
      ],
      "name": "__callback",
      "outputs": [],
      "payable": false,
      "stateMutability": "nonpayable",
      "type": "function"
    },
    {
      "constant": false,
      "inputs": [
        {
          "name": "id",
          "type": "uint256"
        },
        {
          "name": "time",
          "type": "uint256"
        }
      ],
      "name": "mcrOracliseFail",
      "outputs": [],
      "payable": false,
      "stateMutability": "nonpayable",
      "type": "function"
    },
    {
      "constant": true,
      "inputs": [],
      "name": "c1",
      "outputs": [
        {
          "name": "",
          "type": "address"
        }
      ],
      "payable": false,
      "stateMutability": "view",
      "type": "function"
    },
    {
      "constant": false,
      "inputs": [
        {
          "name": "newPoolAddress",
          "type": "address"
        }
      ],
      "name": "upgradeCapitalPool",
      "outputs": [],
      "payable": false,
      "stateMutability": "nonpayable",
      "type": "function"
    },
    {
      "constant": false,
      "inputs": [
        {
          "name": "smartCAdd",
          "type": "address"
        },
        {
          "name": "coverCurr",
          "type": "bytes4"
        },
        {
          "name": "coverDetails",
          "type": "uint256[]"
        },
        {
          "name": "coverPeriod",
          "type": "uint16"
        },
        {
          "name": "_v",
          "type": "uint8"
        },
        {
          "name": "_r",
          "type": "bytes32"
        },
        {
          "name": "_s",
          "type": "bytes32"
        }
      ],
      "name": "makeCoverBegin",
      "outputs": [],
      "payable": true,
      "stateMutability": "payable",
      "type": "function"
    },
    {
      "constant": true,
      "inputs": [],
      "name": "getInvestmentAssetBalance",
      "outputs": [
        {
          "name": "balance",
          "type": "uint256"
        }
      ],
      "payable": false,
      "stateMutability": "view",
      "type": "function"
    },
    {
      "constant": false,
      "inputs": [
        {
          "name": "_amount",
          "type": "uint256"
        }
      ],
      "name": "sellNXMTokens",
      "outputs": [
        {
          "name": "success",
          "type": "bool"
        }
      ],
      "payable": false,
      "stateMutability": "nonpayable",
      "type": "function"
    },
    {
      "constant": false,
      "inputs": [
        {
          "name": "smartCAdd",
          "type": "address"
        },
        {
          "name": "coverCurr",
          "type": "bytes4"
        },
        {
          "name": "coverDetails",
          "type": "uint256[]"
        },
        {
          "name": "coverPeriod",
          "type": "uint16"
        },
        {
          "name": "_v",
          "type": "uint8"
        },
        {
          "name": "_r",
          "type": "bytes32"
        },
        {
          "name": "_s",
          "type": "bytes32"
        }
      ],
      "name": "makeCoverUsingCA",
      "outputs": [],
      "payable": false,
      "stateMutability": "nonpayable",
      "type": "function"
    },
    {
      "constant": false,
      "inputs": [
        {
          "name": "coverid",
          "type": "uint256"
        },
        {
          "name": "claimid",
          "type": "uint256"
        },
        {
          "name": "sumAssured",
          "type": "uint256"
        },
        {
          "name": "coverHolder",
          "type": "address"
        },
        {
          "name": "coverCurr",
          "type": "bytes4"
        }
      ],
      "name": "sendClaimPayout",
      "outputs": [
        {
          "name": "succ",
          "type": "bool"
        }
      ],
      "payable": false,
      "stateMutability": "nonpayable",
      "type": "function"
    },
    {
      "constant": false,
      "inputs": [],
      "name": "triggerExternalLiquidityTrade",
      "outputs": [],
      "payable": false,
      "stateMutability": "nonpayable",
      "type": "function"
    },
    {
      "constant": false,
      "inputs": [
        {
          "name": "id",
          "type": "uint256"
        },
        {
          "name": "time",
          "type": "uint64"
        }
      ],
      "name": "closeCoverOraclise",
      "outputs": [],
      "payable": false,
      "stateMutability": "nonpayable",
      "type": "function"
    },
    {
      "constant": true,
      "inputs": [],
      "name": "ms",
      "outputs": [
        {
          "name": "",
          "type": "address"
        }
      ],
      "payable": false,
      "stateMutability": "view",
      "type": "function"
    },
    {
      "constant": false,
      "inputs": [
        {
          "name": "id",
          "type": "uint256"
        },
        {
          "name": "time",
          "type": "uint256"
        }
      ],
      "name": "closeClaimsOraclise",
      "outputs": [],
      "payable": false,
      "stateMutability": "nonpayable",
      "type": "function"
    },
    {
      "constant": false,
      "inputs": [],
      "name": "buyToken",
      "outputs": [
        {
          "name": "success",
          "type": "bool"
        }
      ],
      "payable": true,
      "stateMutability": "payable",
      "type": "function"
    },
    {
      "constant": false,
      "inputs": [
        {
          "name": "amount",
          "type": "uint256"
        },
        {
          "name": "_add",
          "type": "address"
        }
      ],
      "name": "transferEther",
      "outputs": [
        {
          "name": "succ",
          "type": "bool"
        }
      ],
      "payable": false,
      "stateMutability": "nonpayable",
      "type": "function"
    },
    {
      "constant": false,
      "inputs": [
        {
          "name": "time",
          "type": "uint256"
        }
      ],
      "name": "mcrOraclise",
      "outputs": [],
      "payable": false,
      "stateMutability": "nonpayable",
      "type": "function"
    },
    {
      "constant": false,
      "inputs": [
        {
          "name": "_masterAddress",
          "type": "address"
        }
      ],
      "name": "changeMasterAddress",
      "outputs": [],
      "payable": false,
      "stateMutability": "nonpayable",
      "type": "function"
    },
    {
      "constant": false,
      "inputs": [
        {
          "name": "time",
          "type": "uint256"
        }
      ],
      "name": "closeEmergencyPause",
      "outputs": [],
      "payable": false,
      "stateMutability": "nonpayable",
      "type": "function"
    },
    {
      "constant": true,
      "inputs": [
        {
          "name": "weiPaid",
          "type": "uint256"
        }
      ],
      "name": "getToken",
      "outputs": [
        {
          "name": "tokenToGet",
          "type": "uint256"
        }
      ],
      "payable": false,
      "stateMutability": "view",
      "type": "function"
    },
    {
      "constant": true,
      "inputs": [
        {
          "name": "amount",
          "type": "uint256"
        }
      ],
      "name": "getWei",
      "outputs": [
        {
          "name": "weiToPay",
          "type": "uint256"
        }
      ],
      "payable": false,
      "stateMutability": "view",
      "type": "function"
    },
    {
      "constant": true,
      "inputs": [],
      "name": "nxMasterAddress",
      "outputs": [
        {
          "name": "",
          "type": "address"
        }
      ],
      "payable": false,
      "stateMutability": "view",
      "type": "function"
    },
    {
      "payable": true,
      "stateMutability": "payable",
      "type": "fallback"
    },
    {
      "anonymous": false,
      "inputs": [
        {
          "indexed": true,
          "name": "sender",
          "type": "address"
        },
        {
          "indexed": false,
          "name": "msg",
          "type": "string"
        },
        {
          "indexed": false,
          "name": "myid",
          "type": "bytes32"
        }
      ],
      "name": "Apiresult",
      "type": "event"
    },
    {
      "anonymous": false,
      "inputs": [
        {
          "indexed": true,
          "name": "to",
          "type": "address"
        },
        {
          "indexed": false,
          "name": "coverId",
          "type": "uint256"
        },
        {
          "indexed": false,
          "name": "tokens",
          "type": "uint256"
        }
      ],
      "name": "Payout",
      "type": "event"
    }
  ],
  "bytecode": "0x608060405234801561001057600080fd5b50614a3d806100206000396000f3fe6080604052600436106101815760003560e01c806399bb5856116100d1578063bd03e5011161008a578063d8ea6b0811610064578063d8ea6b0814610836578063e4b50cb814610860578063e942c5641461088a578063f17a3bec146108b457610181565b8063bd03e501146107a0578063c57dbe00146107d9578063d46655f41461080357610181565b806399bb5856146106af5780639c1fe927146107045780639cb341e314610719578063a0b2d57f14610753578063a19ed78314610768578063a48217191461079857610181565b80635085a0741161013e57806368da80af1161011857806368da80af146104a157806369b0b7371461057957806374bd0ace146105a05780638076083d146105ca57610181565b80635085a0741461040d5780635f57697c1461043d57806366fd551d1461046e57610181565b80630a7000f0146101835780630e29df22146101ad5780630ea9c984146101b55780631fac40b4146101ca57806327dc297e1461021857806338bbfa50146102d0575b005b34801561018f57600080fd5b50610181600480360360208110156101a657600080fd5b50356108c9565b6101816109af565b3480156101c157600080fd5b506101816109b1565b3480156101d657600080fd5b50610204600480360360408110156101ed57600080fd5b506001600160e01b03198135169060200135610eee565b604080519115158252519081900360200190f35b34801561022457600080fd5b506101816004803603604081101561023b57600080fd5b81359190810190604081016020820135600160201b81111561025c57600080fd5b82018360208201111561026e57600080fd5b803590602001918460018302840111600160201b8311171561028f57600080fd5b91908080601f016020809104026020016040519081016040528093929190818152602001838380828437600092019190915250929550610fff945050505050565b3480156102dc57600080fd5b50610181600480360360608110156102f357600080fd5b81359190810190604081016020820135600160201b81111561031457600080fd5b82018360208201111561032657600080fd5b803590602001918460018302840111600160201b8311171561034757600080fd5b91908080601f0160208091040260200160405190810160405280939291908181526020018383808284376000920191909152509295949360208101935035915050600160201b81111561039957600080fd5b8201836020820111156103ab57600080fd5b803590602001918460018302840111600160201b831117156103cc57600080fd5b91908080601f01602080910402602001604051908101604052809392919081815260200183838082843760009201919091525092955061106b945050505050565b34801561041957600080fd5b506101816004803603604081101561043057600080fd5b5080359060200135611070565b34801561044957600080fd5b5061045261114a565b604080516001600160a01b039092168252519081900360200190f35b34801561047a57600080fd5b506101816004803603602081101561049157600080fd5b50356001600160a01b0316611159565b610181600480360360e08110156104b757600080fd5b6001600160a01b03823516916001600160e01b031960208201351691810190606081016040820135600160201b8111156104f057600080fd5b82018360208201111561050257600080fd5b803590602001918460208302840111600160201b8311171561052357600080fd5b9190808060200260200160405190810160405280939291908181526020018383602002808284376000920191909152509295505061ffff83351693505060ff6020830135169160408101359150606001356113f0565b34801561058557600080fd5b5061058e611654565b60408051918252519081900360200190f35b3480156105ac57600080fd5b50610204600480360360208110156105c357600080fd5b50356119d5565b3480156105d657600080fd5b50610181600480360360e08110156105ed57600080fd5b6001600160a01b03823516916001600160e01b031960208201351691810190606081016040820135600160201b81111561062657600080fd5b82018360208201111561063857600080fd5b803590602001918460208302840111600160201b8311171561065957600080fd5b9190808060200260200160405190810160405280939291908181526020018383602002808284376000920191909152509295505061ffff83351693505060ff602083013516916040810135915060600135611ec8565b3480156106bb57600080fd5b50610204600480360360a08110156106d257600080fd5b5080359060208101359060408101359060608101356001600160a01b031690608001356001600160e01b0319166122a8565b34801561071057600080fd5b506101816128b7565b34801561072557600080fd5b506101816004803603604081101561073c57600080fd5b508035906020013567ffffffffffffffff16612942565b34801561075f57600080fd5b50610452612a3f565b34801561077457600080fd5b506101816004803603604081101561078b57600080fd5b5080359060200135612a4e565b610204612b27565b3480156107ac57600080fd5b50610204600480360360408110156107c357600080fd5b50803590602001356001600160a01b0316612cfc565b3480156107e557600080fd5b50610181600480360360208110156107fc57600080fd5b5035612ef6565b34801561080f57600080fd5b506101816004803603602081101561082657600080fd5b50356001600160a01b0316612fd7565b34801561084257600080fd5b506101816004803603602081101561085957600080fd5b5035613066565b34801561086c57600080fd5b5061058e6004803603602081101561088357600080fd5b503561313f565b34801561089657600080fd5b5061058e600480360360208110156108ad57600080fd5b5035613163565b3480156108c057600080fd5b5061045261316e565b60055460408051600160e21b6323c5b10702815233600482015290516001600160a01b0390921691638f16c41c91602480820192602092909190829003018186803b15801561091757600080fd5b505afa15801561092b573d6000803e3d6000fd5b505050506040513d602081101561094157600080fd5b505161094c57600080fd5b6000610993600383604051806040016040528060038152602001600160ea1b62155493028152506040518060600160405280602b81526020016149a1602b9139600061317d565b90506109ab81600160e11b6324a0a921026000613256565b5050565b565b60055460408051600160e31b6227050b028152600160f01b614d4302600482015290516001600160a01b0390921691630138285891602480820192602092909190829003018186803b158015610a0657600080fd5b505afa158015610a1a573d6000803e3d6000fd5b505050506040513d6020811015610a3057600080fd5b5051600d80546001600160a01b0319166001600160a01b0392831617905560055460408051600160e31b6313aedd4b02815290519190921691639d76ea58916004808301926020929190829003018186803b158015610a8e57600080fd5b505afa158015610aa2573d6000803e3d6000fd5b505050506040513d6020811015610ab857600080fd5b5051600880546001600160a01b0319166001600160a01b0392831617905560055460408051600160e31b6227050b028152600160f11b612a23026004820152905191909216916301382858916024808301926020929190829003018186803b158015610b2357600080fd5b505afa158015610b37573d6000803e3d6000fd5b505050506040513d6020811015610b4d57600080fd5b5051600a80546001600160a01b0319166001600160a01b0392831617905560055460408051600160e31b6227050b028152600160f01b615443026004820152905191909216916301382858916024808301926020929190829003018186803b158015610bb857600080fd5b505afa158015610bcc573d6000803e3d6000fd5b505050506040513d6020811015610be257600080fd5b5051600980546001600160a01b0319166001600160a01b0392831617905560055460408051600160e31b6227050b028152600160f21b611411026004820152905191909216916301382858916024808301926020929190829003018186803b158015610c4d57600080fd5b505afa158015610c61573d6000803e3d6000fd5b505050506040513d6020811015610c7757600080fd5b5051600c80546001600160a01b0319166001600160a01b0392831617905560055460408051600160e31b6227050b028152600160f21b611455026004820152905191909216916301382858916024808301926020929190829003018186803b158015610ce257600080fd5b505afa158015610cf6573d6000803e3d6000fd5b505050506040513d6020811015610d0c57600080fd5b5051600780546001600160a01b0319166001600160a01b0392831617905560055460408051600160e31b6227050b028152600160f11b612819026004820152905191909216916301382858916024808301926020929190829003018186803b158015610d7757600080fd5b505afa158015610d8b573d6000803e3d6000fd5b505050506040513d6020811015610da157600080fd5b5051600b80546001600160a01b0319166001600160a01b0392831617905560055460408051600160e31b6227050b028152600160f21b6110d3026004820152905191909216916301382858916024808301926020929190829003018186803b158015610e0c57600080fd5b505afa158015610e20573d6000803e3d6000fd5b505050506040513d6020811015610e3657600080fd5b5051600e80546001600160a01b0319166001600160a01b0392831617905560055460408051600160e31b6227050b028152600160f21b611511026004820152905191909216916301382858916024808301926020929190829003018186803b158015610ea157600080fd5b505afa158015610eb5573d6000803e3d6000fd5b505050506040513d6020811015610ecb57600080fd5b5051600f80546001600160a01b0319166001600160a01b03909216919091179055565b60055460408051600160e21b6323c5b10702815233600482015290516000926001600160a01b031691638f16c41c916024808301926020929190829003018186803b158015610f3c57600080fd5b505afa158015610f50573d6000803e3d6000fd5b505050506040513d6020811015610f6657600080fd5b5051610f7157600080fd5b600f54600160a01b900460ff1615610fc85760408051600160e51b62461bcd02815260206004820152600f6024820152600160891b6e2932b2b73a3930b73a1031b0b6361702604482015290519081900360640190fd5b600f8054600160a01b60ff021916600160a01b179055610fe88383613342565b600f8054600160a01b60ff02191690559392505050565b60055460408051600160e11b6346ebffcd0281526004810185905290516001600160a01b0390921691638dd7ff9a9160248082019260009290919082900301818387803b15801561104f57600080fd5b505af1158015611063573d6000803e3d6000fd5b505050505050565b505050565b60055460408051600160e21b6323c5b10702815233600482015290516001600160a01b0390921691638f16c41c91602480820192602092909190829003018186803b1580156110be57600080fd5b505afa1580156110d2573d6000803e3d6000fd5b505050506040513d60208110156110e857600080fd5b50516110f357600080fd5b6000611133600483604051806040016040528060038152602001600160ea1b621554930281525060405180602001604052806000815250620f424061317d565b905061106b81600160e11b6326a1a9230285613256565b600e546001600160a01b031681565b600f54600160a01b900460ff16156111b05760408051600160e51b62461bcd02815260206004820152600f6024820152600160891b6e2932b2b73a3930b73a1031b0b6361702604482015290519081900360640190fd5b600f8054600160a01b60ff021916600160a01b17905560055460408051600160e21b6323c5b10702815233600482015290516001600160a01b0390921691638f16c41c91602480820192602092909190829003018186803b15801561121457600080fd5b505afa158015611228573d6000803e3d6000fd5b505050506040513d602081101561123e57600080fd5b505161124957600080fd5b60015b600c60009054906101000a90046001600160a01b03166001600160a01b031663255f50496040518163ffffffff1660e01b815260040160206040518083038186803b15801561129a57600080fd5b505afa1580156112ae573d6000803e3d6000fd5b505050506040513d60208110156112c457600080fd5b505167ffffffffffffffff8216101561137057600c5460408051600160e41b6303c40b1f02815267ffffffffffffffff8416600482015290516000926001600160a01b031691633c40b1f0916024808301926020929190829003018186803b15801561132f57600080fd5b505afa158015611343573d6000803e3d6000fd5b505050506040513d602081101561135957600080fd5b5051905061136781846135f5565b5060010161124c565b503031156113dd576000819050806001600160a01b0316630e29df22306001600160a01b0316316040518263ffffffff1660e01b81526004016000604051808303818588803b1580156113c257600080fd5b505af11580156113d6573d6000803e3d6000fd5b5050505050505b50600f8054600160a01b60ff0219169055565b60055460408051600160e21b63288c314902815233600482015290516001600160a01b039092169163a230c52491602480820192602092909190829003018186803b15801561143e57600080fd5b505afa158015611452573d6000803e3d6000fd5b505050506040513d602081101561146857600080fd5b50516114ae5760408051600160e51b62461bcd02815260206004820152600a6024820152600160b11b692737ba1036b2b6b132b902604482015290519081900360640190fd5b600560009054906101000a90046001600160a01b03166001600160a01b031663ff0938a76040518163ffffffff1660e01b815260040160206040518083038186803b1580156114fc57600080fd5b505afa158015611510573d6000803e3d6000fd5b505050506040513d602081101561152657600080fd5b50511561153257600080fd5b8460018151811061153f57fe5b6020026020010151341461155257600080fd5b600754604051600160e11b63250bc23902815233600482018181526001600160a01b038b811660248501526001600160e01b03198b16604485015261ffff8916608485015260ff881660a485015260c4840187905260e48401869052610100606485019081528a516101048601528a519190951694634a178472948d938d938d938d938d938d938d93919261012401906020808a01910280838360005b838110156116075781810151838201526020016115ef565b505050509050019950505050505050505050600060405180830381600087803b15801561163357600080fd5b505af1158015611647573d6000803e3d6000fd5b5050505050505050505050565b6000808060015b600c60009054906101000a90046001600160a01b03166001600160a01b0316637d03238f6040518163ffffffff1660e01b815260040160206040518083038186803b1580156116a957600080fd5b505afa1580156116bd573d6000803e3d6000fd5b505050506040513d60208110156116d357600080fd5b50518110156119af57600c5460408051600160e01b63dc68e16b0281526004810184905290516000926001600160a01b03169163dc68e16b916024808301926020929190829003018186803b15801561172b57600080fd5b505afa15801561173f573d6000803e3d6000fd5b505050506040513d602081101561175557600080fd5b5051600c5460408051600160e01b637e2d14d90281526001600160e01b03198416600482015290519293506001600160a01b0390911691637e2d14d991602480820192602092909190829003018186803b1580156117b257600080fd5b505afa1580156117c6573d6000803e3d6000fd5b505050506040513d60208110156117dc57600080fd5b5051600b5460408051600160e01b6370a082310281526001600160a01b0392831660048201529051929650908616916370a0823191602480820192602092909190829003018186803b15801561183157600080fd5b505afa158015611845573d6000803e3d6000fd5b505050506040513d602081101561185b57600080fd5b5051600c5460408051600160e11b637e33261b0281526001600160e01b03198516600482015290519295506000926001600160a01b039092169163fc664c3691602480820192602092909190829003018186803b1580156118bb57600080fd5b505afa1580156118cf573d6000803e3d6000fd5b505050506040513d60208110156118e557600080fd5b505111156119a657600c5460408051600160e11b637e33261b0281526001600160e01b03198416600482015290516119a392611996926001600160a01b039091169163fc664c3691602480820192602092909190829003018186803b15801561194d57600080fd5b505afa158015611961573d6000803e3d6000fd5b505050506040513d602081101561197757600080fd5b505161198a86606463ffffffff6137f916565b9063ffffffff61385c16565b869063ffffffff61389e16565b94505b5060010161165b565b50600b546119ce9084906001600160a01b03163163ffffffff61389e16565b9250505090565b60055460408051600160e21b63288c314902815233600482015290516000926001600160a01b03169163a230c524916024808301926020929190829003018186803b158015611a2357600080fd5b505afa158015611a37573d6000803e3d6000fd5b505050506040513d6020811015611a4d57600080fd5b5051611a935760408051600160e51b62461bcd02815260206004820152600a6024820152600160b11b692737ba1036b2b6b132b902604482015290519081900360640190fd5b600f54600160a01b900460ff1615611aea5760408051600160e51b62461bcd02815260206004820152600f6024820152600160891b6e2932b2b73a3930b73a1031b0b6361702604482015290519081900360640190fd5b600f8054600160a01b60ff021916600160a01b179055600554604080516001600160e01b62f6c759020319815290516001600160a01b039092169163ff0938a791600480820192602092909190829003018186803b158015611b4b57600080fd5b505afa158015611b5f573d6000803e3d6000fd5b505050506040513d6020811015611b7557600080fd5b505115611b8157600080fd5b60085460408051600160e01b6370a08231028152336004820152905184926001600160a01b0316916370a08231916024808301926020929190829003018186803b158015611bce57600080fd5b505afa158015611be2573d6000803e3d6000fd5b505050506040513d6020811015611bf857600080fd5b50511015611c505760408051600160e51b62461bcd02815260206004820152601260248201527f4e6f7420656e6f7567682062616c616e63650000000000000000000000000000604482015290519081900360640190fd5b600a5460408051600160e11b63562d6d7b02815233600482015290516001600160a01b039092169163ac5adaf691602480820192602092909190829003018186803b158015611c9e57600080fd5b505afa158015611cb2573d6000803e3d6000fd5b505050506040513d6020811015611cc857600080fd5b505115611d1f5760408051600160e51b62461bcd02815260206004820152600c60248201527f4d656d62657220766f7465640000000000000000000000000000000000000000604482015290519081900360640190fd5b600d60009054906101000a90046001600160a01b03166001600160a01b03166336b7abd06040518163ffffffff1660e01b815260040160206040518083038186803b158015611d6d57600080fd5b505afa158015611d81573d6000803e3d6000fd5b505050506040513d6020811015611d9757600080fd5b5051821115611df05760408051600160e51b62461bcd02815260206004820181905260248201527f65786365656473206d6178696d756d20746f6b656e2073656c6c206c696d6974604482015290519081900360640190fd5b6000611dfb836138fb565b60095460408051600160e41b63079cc6790281523360048201526024810187905290519293506001600160a01b03909116916379cc6790916044808201926020929091908290030181600087803b158015611e5557600080fd5b505af1158015611e69573d6000803e3d6000fd5b505050506040513d6020811015611e7f57600080fd5b5050604051339082156108fc029083906000818181858888f19350505050158015611eae573d6000803e3d6000fd5b5050600f8054600160a01b60ff0219169055506001919050565b60055460408051600160e21b63288c314902815233600482015290516001600160a01b039092169163a230c52491602480820192602092909190829003018186803b158015611f1657600080fd5b505afa158015611f2a573d6000803e3d6000fd5b505050506040513d6020811015611f4057600080fd5b5051611f865760408051600160e51b62461bcd02815260206004820152600a6024820152600160b11b692737ba1036b2b6b132b902604482015290519081900360640190fd5b600560009054906101000a90046001600160a01b03166001600160a01b031663ff0938a76040518163ffffffff1660e01b815260040160206040518083038186803b158015611fd457600080fd5b505afa158015611fe8573d6000803e3d6000fd5b505050506040513d6020811015611ffe57600080fd5b50511561200a57600080fd5b600c5460408051600160e01b63e3dee2390281526001600160e01b03198916600482015290516000926001600160a01b03169163e3dee239916024808301926020929190829003018186803b15801561206257600080fd5b505afa158015612076573d6000803e3d6000fd5b505050506040513d602081101561208c57600080fd5b505186519091506001600160a01b038216906323b872dd90339030908a9060019081106120b557fe5b60200260200101516040518463ffffffff1660e01b815260040180846001600160a01b03166001600160a01b03168152602001836001600160a01b03166001600160a01b031681526020018281526020019350505050602060405180830381600087803b15801561212557600080fd5b505af1158015612139573d6000803e3d6000fd5b505050506040513d602081101561214f57600080fd5b50516121a55760408051600160e51b62461bcd02815260206004820152600f60248201527f5472616e73666572206661696c65640000000000000000000000000000000000604482015290519081900360640190fd5b600754604051600160e11b63250bc23902815233600482018181526001600160a01b038c811660248501526001600160e01b03198c16604485015261ffff8a16608485015260ff891660a485015260c4840188905260e48401879052610100606485019081528b516101048601528b519190951694634a178472948e938e938e938e938e938e938e93919261012401906020808a01910280838360005b8381101561225a578181015183820152602001612242565b505050509050019950505050505050505050600060405180830381600087803b15801561228657600080fd5b505af115801561229a573d6000803e3d6000fd5b505050505050505050505050565b60055460408051600160e21b6323c5b10702815233600482015290516000926001600160a01b031691638f16c41c916024808301926020929190829003018186803b1580156122f657600080fd5b505afa15801561230a573d6000803e3d6000fd5b505050506040513d602081101561232057600080fd5b505161232b57600080fd5b600f54600160a01b900460ff16156123825760408051600160e51b62461bcd02815260206004820152600f6024820152600160891b6e2932b2b73a3930b73a1031b0b6361702604482015290519081900360640190fd5b600f8054600160a01b60ff021916600160a01b17905560006123b285670de0b6b3a764000063ffffffff61385c16565b600c5460408051600160e01b63e3dee2390281526001600160e01b031987166004820152905192935060009283926001600160a01b03169163e3dee239916024808301926020929190829003018186803b15801561240f57600080fd5b505afa158015612423573d6000803e3d6000fd5b505050506040513d602081101561243957600080fd5b50519050600160eb1b6208aa89026001600160e01b03198616148015612460575030318711155b156124a5576040516001600160a01b0387169088156108fc029089906000818181858888f1935050505015801561249b573d6000803e3d6000fd5b50600191506125d3565b600160e81b62444149026001600160e01b0319861614801561253d575060408051600160e01b6370a08231028152306004820152905188916001600160a01b038416916370a0823191602480820192602092909190829003018186803b15801561250e57600080fd5b505afa158015612522573d6000803e3d6000fd5b505050506040513d602081101561253857600080fd5b505110155b156125d357806001600160a01b031663a9059cbb87896040518363ffffffff1660e01b815260040180836001600160a01b03166001600160a01b0316815260200182815260200192505050602060405180830381600087803b1580156125a257600080fd5b505af11580156125b6573d6000803e3d6000fd5b505050506040513d60208110156125cc57600080fd5b5060019250505b600182151514156127a35760075460408051600160e11b633fb453cf028152600481018c90526024810186905290516001600160a01b0390921691637f68a79e9160448082019260009290919082900301818387803b15801561263557600080fd5b505af1158015612649573d6000803e3d6000fd5b5050600c5460408051600160e81b62487d2d0281526001600160e01b03198a16600482015290516001600160a01b03909216935063d1750585925088916126eb918c91869163487d2d00916024808301926020929190829003018186803b1580156126b357600080fd5b505afa1580156126c7573d6000803e3d6000fd5b505050506040513d60208110156126dd57600080fd5b50519063ffffffff613d6f16565b6040518363ffffffff1660e01b815260040180836001600160e01b0319166001600160e01b031916815260200182815260200192505050600060405180830381600087803b15801561273c57600080fd5b505af1158015612750573d6000803e3d6000fd5b5050604080518c8152602081018b905281516001600160a01b038b1694507f634235fcf5af0adbca1a405ec65f6f6c08f55e1f379c2c45cd10f23cb29e0e3193509081900390910190a260019350612813565b600e5460408051600160e11b637a88deff028152600481018b9052600c602482015290516001600160a01b039092169163f511bdfe9160448082019260009290919082900301818387803b1580156127fa57600080fd5b505af115801561280e573d6000803e3d6000fd5b505050505b61281b613db1565b600a5460408051600160e31b631f359581028152600481018c90526001600160e01b031988166024820152604481018a905290516001600160a01b039092169163f9acac089160648082019260009290919082900301818387803b15801561288257600080fd5b505af1158015612896573d6000803e3d6000fd5b5050600f8054600160a01b60ff021916905550939998505050505050505050565b60055460408051600160e21b6323c5b10702815233600482015290516001600160a01b0390921691638f16c41c91602480820192602092909190829003018186803b15801561290557600080fd5b505afa158015612919573d6000803e3d6000fd5b505050506040513d602081101561292f57600080fd5b505161293a57600080fd5b6109af613db1565b60055460408051600160e21b6323c5b10702815233600482015290516001600160a01b0390921691638f16c41c91602480820192602092909190829003018186803b15801561299057600080fd5b505afa1580156129a4573d6000803e3d6000fd5b505050506040513d60208110156129ba57600080fd5b50516129c557600080fd5b6000612a2960048367ffffffffffffffff16604051806040016040528060038152602001600160ea1b6215549302815250612a2060405180606001604052806034815260200161496d60349139612a1b89613fde565b6140a2565b620f424061317d565b905061106b81600160e91b6221a7ab0285613256565b6005546001600160a01b031681565b60055460408051600160e21b6323c5b10702815233600482015290516001600160a01b0390921691638f16c41c91602480820192602092909190829003018186803b158015612a9c57600080fd5b505afa158015612ab0573d6000803e3d6000fd5b505050506040513d6020811015612ac657600080fd5b5051612ad157600080fd5b6000612b11600483604051806040016040528060038152602001600160ea1b621554930281525060405180602001604052806000815250622dc6c061317d565b905061106b81600160e81b62434c410285613256565b60055460408051600160e21b63288c314902815233600482015290516000926001600160a01b03169163a230c524916024808301926020929190829003018186803b158015612b7557600080fd5b505afa158015612b89573d6000803e3d6000fd5b505050506040513d6020811015612b9f57600080fd5b5051612be55760408051600160e51b62461bcd02815260206004820152600a6024820152600160b11b692737ba1036b2b6b132b902604482015290519081900360640190fd5b600560009054906101000a90046001600160a01b03166001600160a01b031663ff0938a76040518163ffffffff1660e01b815260040160206040518083038186803b158015612c3357600080fd5b505afa158015612c47573d6000803e3d6000fd5b505050506040513d6020811015612c5d57600080fd5b505115612c6957600080fd5b60003411612c7657600080fd5b6000612c833031346140de565b60095460408051600160e01b6340c10f190281523360048201526024810184905290519293506001600160a01b03909116916340c10f199160448082019260009290919082900301818387803b158015612cdc57600080fd5b505af1158015612cf0573d6000803e3d6000fd5b50505050600191505090565b600f54600090600160a01b900460ff1615612d565760408051600160e51b62461bcd02815260206004820152600f6024820152600160891b6e2932b2b73a3930b73a1031b0b6361702604482015290519081900360640190fd5b600f8054600160a01b60ff021916600160a01b179055600554604080516001600160e01b62f6c759020319815290516001600160a01b039092169163ff0938a791600480820192602092909190829003018186803b158015612db757600080fd5b505afa158015612dcb573d6000803e3d6000fd5b505050506040513d6020811015612de157600080fd5b505115612ded57600080fd5b60055460408051600160e11b632c1a733d02815233600482015290516001600160a01b0390921691635834e67a91602480820192602092909190829003018186803b158015612e3b57600080fd5b505afa158015612e4f573d6000803e3d6000fd5b505050506040513d6020811015612e6557600080fd5b5051612ebb5760408051600160e51b62461bcd02815260206004820152601860248201527f4e6f7420617574686f72697a656420746f20476f7665726e0000000000000000604482015290519081900360640190fd5b6040516001600160a01b0383169084156108fc029085906000818181858888f1600f8054600160a01b60ff0219169055979650505050505050565b60055460408051600160e21b6323c5b10702815233600482015290516001600160a01b0390921691638f16c41c91602480820192602092909190829003018186803b158015612f4457600080fd5b505afa158015612f58573d6000803e3d6000fd5b505050506040513d6020811015612f6e57600080fd5b5051612f7957600080fd5b6000612fc0600383604051806040016040528060038152602001600160ea1b62155493028152506040518060600160405280602581526020016149ed60259139600061317d565b90506109ab81600160e91b6226a1a9026000613256565b6005546001600160a01b03161561303a576005546001600160a01b0316331461303a5760408051600160e51b62461bcd02815260206004820152600a6024820152600160b11b692737ba1036b0b9ba32b902604482015290519081900360640190fd5b600580546001600160a01b039092166001600160a01b0319928316811790915560068054909216179055565b60055460408051600160e21b6323c5b10702815233600482015290516001600160a01b0390921691638f16c41c91602480820192602092909190829003018186803b1580156130b457600080fd5b505afa1580156130c8573d6000803e3d6000fd5b505050506040513d60208110156130de57600080fd5b50516130e957600080fd5b6000613129600483604051806040016040528060038152602001600160ea1b621554930281525060405180602001604052806000815250620493e061317d565b90506109ab81600160f41b610455026000613256565b600061315b61315530318463ffffffff61389e16565b836140de565b90505b919050565b600061315b826138fb565b6006546001600160a01b031681565b60008585858585426040516020018087815260200186815260200185805190602001908083835b602083106131c35780518252601f1990920191602091820191016131a4565b51815160209384036101000a600019018019909216911617905287519190930192870191508083835b6020831061320b5780518252601f1990920191602091820191016131ec565b51815160209384036101000a600019018019909216911617905292019485525083810192909252506040805180840383018152928101905281519101209a9950505050505050505050565b600c5460408051600160e41b630424593b028152600481018690526001600160e01b0319851660248201526044810184905290516001600160a01b039092169163424593b09160648082019260009290919082900301818387803b1580156132bd57600080fd5b505af11580156132d1573d6000803e3d6000fd5b5050600c5460408051600160e01b63d676ee910281526004810188905290516001600160a01b03909216935063d676ee91925060248082019260009290919082900301818387803b15801561332557600080fd5b505af1158015613339573d6000803e3d6000fd5b50505050505050565b6000600160eb1b6208aa89026001600160e01b0319841614156133df57303182111561336d57303191505b600b60009054906101000a90046001600160a01b03166001600160a01b0316630e29df22836040518263ffffffff1660e01b81526004016000604051808303818588803b1580156133bd57600080fd5b505af11580156133d1573d6000803e3d6000fd5b5050505050600190506135ef565b600c5460408051600160e01b63e3dee2390281526001600160e01b03198616600482015290516000926001600160a01b03169163e3dee239916024808301926020929190829003018186803b15801561343757600080fd5b505afa15801561344b573d6000803e3d6000fd5b505050506040513d602081101561346157600080fd5b505160408051600160e01b6370a08231028152306004820152905191925084916001600160a01b038416916370a08231916024808301926020929190829003018186803b1580156134b157600080fd5b505afa1580156134c5573d6000803e3d6000fd5b505050506040513d60208110156134db57600080fd5b5051101561355b5760408051600160e01b6370a0823102815230600482015290516001600160a01b038316916370a08231916024808301926020929190829003018186803b15801561352c57600080fd5b505afa158015613540573d6000803e3d6000fd5b505050506040513d602081101561355657600080fd5b505192505b600b5460408051600160e01b63a9059cbb0281526001600160a01b0392831660048201526024810186905290519183169163a9059cbb916044808201926020929091908290030181600087803b1580156135b457600080fd5b505af11580156135c8573d6000803e3d6000fd5b505050506040513d60208110156135de57600080fd5b50516135e957600080fd5b60019150505b92915050565b600c5460408051600160e01b63e3dee2390281526001600160e01b03198516600482015290516000926001600160a01b03169163e3dee239916024808301926020929190829003018186803b15801561364d57600080fd5b505afa158015613661573d6000803e3d6000fd5b505050506040513d602081101561367757600080fd5b505160408051600160e01b6370a0823102815230600482015290519192506000916001600160a01b038416916370a08231916024808301926020929190829003018186803b1580156136c857600080fd5b505afa1580156136dc573d6000803e3d6000fd5b505050506040513d60208110156136f257600080fd5b5051111561106b5760408051600160e01b6370a0823102815230600482015290516001600160a01b0383169163a9059cbb91859184916370a0823191602480820192602092909190829003018186803b15801561374e57600080fd5b505afa158015613762573d6000803e3d6000fd5b505050506040513d602081101561377857600080fd5b50516040805163ffffffff851660e01b81526001600160a01b03909316600484015260248301919091525160448083019260209291908290030181600087803b1580156137c457600080fd5b505af11580156137d8573d6000803e3d6000fd5b505050506040513d60208110156137ee57600080fd5b505161106b57600080fd5b600082613808575060006135ef565b8282028284828161381557fe5b041461385557604051600160e51b62461bcd0281526004018080602001828103825260218152602001806149cc6021913960400191505060405180910390fd5b9392505050565b600061385583836040518060400160405280601a81526020017f536166654d6174683a206469766973696f6e206279207a65726f000000000000815250614656565b6000828201838110156138555760408051600160e51b62461bcd02815260206004820152601b60248201527f536166654d6174683a206164646974696f6e206f766572666c6f770000000000604482015290519081900360640190fd5b600080600080600860009054906101000a90046001600160a01b03166001600160a01b03166318160ddd6040518163ffffffff1660e01b815260040160206040518083038186803b15801561394f57600080fd5b505afa158015613963573d6000803e3d6000fd5b505050506040513d602081101561397957600080fd5b5051600c5460408051600160e01b63c94f740f02815290519293506000928392839283926001600160a01b039092169163c94f740f91600480820192608092909190829003018186803b1580156139cf57600080fd5b505afa1580156139e3573d6000803e3d6000fd5b505050506040513d60808110156139f957600080fd5b508051604091820151600d548351600160e11b636cf68d3d02815284519397509195506001600160a01b03169263d9ed1a7a92600480840193829003018186803b158015613a4657600080fd5b505afa158015613a5a573d6000803e3d6000fd5b505050506040513d6040811015613a7057600080fd5b505193505b8815613d6357613a8f8261198a858763ffffffff6137f916565b600d5460408051600160e01b636837a51f028152600160eb1b6208aa890260048201526024810184905290519293506001600160a01b0390911691636837a51f91604480820192602092909190829003018186803b158015613af057600080fd5b505afa158015613b04573d6000803e3d6000fd5b505050506040513d6020811015613b1a57600080fd5b50519650613b366103e861198a896103cf63ffffffff6137f916565b600f5460408051600160e21b63223546710281529051929950613bc492670de0b6b3a7640000926001600160a01b0316916388d519c4916004808301926020929190829003018186803b158015613b8c57600080fd5b505afa158015613ba0573d6000803e3d6000fd5b505050506040513d6020811015613bb657600080fd5b50519063ffffffff6137f916565b8911613bfd57613bf6613be9670de0b6b3a764000061198a8a8d63ffffffff6137f916565b899063ffffffff61389e16565b9750613d63565b613c63613c566012600a0a600f60009054906101000a90046001600160a01b03166001600160a01b03166388d519c46040518163ffffffff1660e01b815260040160206040518083038186803b158015613b8c57600080fd5b8a9063ffffffff613d6f16565b9850613ccb613cbe6012600a0a600f60009054906101000a90046001600160a01b03166001600160a01b03166388d519c46040518163ffffffff1660e01b815260040160206040518083038186803b158015613b8c57600080fd5b869063ffffffff613d6f16565b600f5460408051600160e21b63223546710281529051929750613d3892670de0b6b3a76400009261198a92613d2b9285926001600160a01b0316916388d519c4916004808301926020929190829003018186803b158015613b8c57600080fd5b8a9063ffffffff6137f916565b9550613d4a848763ffffffff613d6f16565b9350613d5c888763ffffffff61389e16565b9750613a75565b50505050505050919050565b600061385583836040518060400160405280601e81526020017f536166654d6174683a207375627472616374696f6e206f766572666c6f7700008152506146fb565b600c5460408051600160e31b630ca93feb0281529051613ea6926001600160a01b031691636549ff58916004808301926020929190829003018186803b158015613dfa57600080fd5b505afa158015613e0e573d6000803e3d6000fd5b505050506040513d6020811015613e2457600080fd5b5051600c5460408051600160e01b634e55a69b02815290516001600160a01b0390921691634e55a69b91600480820192602092909190829003018186803b158015613e6e57600080fd5b505afa158015613e82573d6000803e3d6000fd5b505050506040513d6020811015613e9857600080fd5b50519063ffffffff61389e16565b4211156109af57600c60009054906101000a90046001600160a01b03166001600160a01b03166384769f446040518163ffffffff1660e01b8152600401600060405180830381600087803b158015613efd57600080fd5b505af1158015613f11573d6000803e3d6000fd5b5050600c5460408051600160e31b630ca93feb028152905160009450613fc493506004926001600160a01b031691636549ff5891818501916020919081900386018186803b158015613f6257600080fd5b505afa158015613f76573d6000803e3d6000fd5b505050506040513d6020811015613f8c57600080fd5b505160408051808201825260038152600160ea1b621554930260208281019190915282519081019092526000825290620493e061317d565b9050613fdb81600160ea1b62155315026000613256565b50565b60608161400657506040805180820190915260018152600160fc1b600302602082015261315e565b8160005b811561401e57600101600a8204915061400a565b6060816040519080825280601f01601f19166020018201604052801561404b576020820181803883390190505b50905060001982015b851561409957600a860660300160f81b8282806001900393508151811061407757fe5b60200101906001600160f81b031916908160001a905350600a86049550614054565b50949350505050565b60606138558383604051806020016040528060008152506040518060200160405280600081525060405180602001604052806000815250614758565b600080806140fa84670de0b6b3a764000063ffffffff6137f916565b90506000806000600860009054906101000a90046001600160a01b03166001600160a01b03166318160ddd6040518163ffffffff1660e01b815260040160206040518083038186803b15801561414f57600080fd5b505afa158015614163573d6000803e3d6000fd5b505050506040513d602081101561417957600080fd5b5051600c5460408051600160e01b63c94f740f02815290519293506000928392839283926001600160a01b039092169163c94f740f91600480820192608092909190829003018186803b1580156141cf57600080fd5b505afa1580156141e3573d6000803e3d6000fd5b505050506040513d60808110156141f957600080fd5b508051604090910151600d5491945092506001600160a01b0316639af1f71f6142288e8e63ffffffff613d6f16565b6040518263ffffffff1660e01b815260040180828152602001915050604080518083038186803b15801561425b57600080fd5b505afa15801561426f573d6000803e3d6000fd5b505050506040513d604081101561428557600080fd5b5051600d5460408051600160e01b633cb23b2d028152600160eb1b6208aa8902600482015290519296506000926001600160a01b0390921691633cb23b2d91602480820192602092909190829003018186803b1580156142e457600080fd5b505afa1580156142f8573d6000803e3d6000fd5b505050506040513d602081101561430e57600080fd5b5051116143655760408051600160e51b62461bcd02815260206004820152601b60248201527f546f6b656e2070726963652063616e206e6f74206265207a65726f0000000000604482015290519081900360640190fd5b87156146475761437f8261198a858763ffffffff6137f916565b600d5460408051600160e01b636837a51f028152600160eb1b6208aa890260048201526024810184905290519293506001600160a01b0390911691636837a51f91604480820192602092909190829003018186803b1580156143e057600080fd5b505afa1580156143f4573d6000803e3d6000fd5b505050506040513d602081101561440a57600080fd5b5051985061441e888a63ffffffff61385c16565b600f5460408051600160e21b6322354671028152905192995061447492670de0b6b3a7640000926001600160a01b0316916388d519c4916004808301926020929190829003018186803b158015613b8c57600080fd5b87116144915761448a8a8863ffffffff61389e16565b9950614647565b6144f76144ea6012600a0a600f60009054906101000a90046001600160a01b03166001600160a01b03166388d519c46040518163ffffffff1660e01b815260040160206040518083038186803b158015613b8c57600080fd5b8b9063ffffffff61389e16565b99506145526119966012600a0a600f60009054906101000a90046001600160a01b03166001600160a01b03166388d519c46040518163ffffffff1660e01b815260040160206040518083038186803b158015613b8c57600080fd5b94506145ba896145ae6012600a0a600f60009054906101000a90046001600160a01b03166001600160a01b03166388d519c46040518163ffffffff1660e01b815260040160206040518083038186803b158015613b8c57600080fd5b9063ffffffff6137f916565b95506145cc888763ffffffff613d6f16565b97506146406146336012600a0a61198a8c6145ae6012600a0a600f60009054906101000a90046001600160a01b03166001600160a01b03166388d519c46040518163ffffffff1660e01b815260040160206040518083038186803b158015613b8c57600080fd5b859063ffffffff61389e16565b9350614365565b50505050505050505092915050565b600081836146e557604051600160e51b62461bcd0281526004018080602001828103825283818151815260200191508051906020019080838360005b838110156146aa578181015183820152602001614692565b50505050905090810190601f1680156146d75780820380516001836020036101000a031916815260200191505b509250505060405180910390fd5b5060008385816146f157fe5b0495945050505050565b6000818484111561475057604051600160e51b62461bcd0281526020600482018181528351602484015283519092839260449091019190850190808383600083156146aa578181015183820152602001614692565b505050900390565b6060808690506060869050606086905060608690506060869050606081518351855187518951010101016040519080825280601f01601f1916602001820160405280156147ac576020820181803883390190505b509050806000805b8851811015614805578881815181106147c957fe5b602001015160f81c60f81b8383806001019450815181106147e657fe5b60200101906001600160f81b031916908160001a9053506001016147b4565b5060005b875181101561485a5787818151811061481e57fe5b602001015160f81c60f81b83838060010194508151811061483b57fe5b60200101906001600160f81b031916908160001a905350600101614809565b5060005b86518110156148af5786818151811061487357fe5b602001015160f81c60f81b83838060010194508151811061489057fe5b60200101906001600160f81b031916908160001a90535060010161485e565b5060005b8551811015614904578581815181106148c857fe5b602001015160f81c60f81b8383806001019450815181106148e557fe5b60200101906001600160f81b031916908160001a9053506001016148b3565b5060005b84518110156149595784818151811061491d57fe5b602001015160f81c60f81b83838060010194508151811061493a57fe5b60200101906001600160f81b031916908160001a905350600101614908565b50909d9c5050505050505050505050505056fe687474703a2f2f61312e6e657875736d757475616c2e696f2f6170692f436c61696d732f636c6f7365436c61696d5f686173682f68747470733a2f2f6170692e6e657875736d757475616c2e696f2f73617665494144657461696c732f4d31536166654d6174683a206d756c7469706c69636174696f6e206f766572666c6f7768747470733a2f2f6170692e6e657875736d757475616c2e696f2f706f73744d43522f4d31a165627a7a723058208652bfeb0285c34959a23f446e6908b402987a98b452157e17dda9f33bcbab190029",
  "compiler": {
    "name": "solc",
    "version": "0.5.7+commit.6da8b019.Emscripten.clang",
    "optimizer": {
      "enabled": true,
      "runs": 200
    },
    "evmVersion": "petersburg"
  }
}