{
  "fileName": "Pool2.sol",
  "contractName": "Pool2",
  "source": "/* Copyright (C) 2020 NexusMutual.io\n\n  This program is free software: you can redistribute it and/or modify\n    it under the terms of the GNU General Public License as published by\n    the Free Software Foundation, either version 3 of the License, or\n    (at your option) any later version.\n\n  This program is distributed in the hope that it will be useful,\n    but WITHOUT ANY WARRANTY; without even the implied warranty of\n    MERCHANTABILITY or FITNESS FOR A PARTICULAR PURPOSE.  See the\n    GNU General Public License for more details.\n\n  You should have received a copy of the GNU General Public License\n    along with this program.  If not, see http://www.gnu.org/licenses/ */\n\npragma solidity ^0.5.0;\n\nimport \"@openzeppelin/contracts/math/SafeMath.sol\";\nimport \"../../interfaces/Exchange.sol\";\nimport \"../claims/ClaimsReward.sol\";\nimport \"../cover/Quotation.sol\";\n\ncontract Pool2 is Iupgradable {\n  using SafeMath for uint;\n\n  MCR internal m1;\n  Pool1 internal p1;\n  PoolData internal pd;\n  Factory internal factory;\n  address public uniswapFactoryAddress;\n  uint internal constant DECIMAL1E18 = uint(10) ** 18;\n  bool internal locked;\n\n  constructor(address _uniswapFactoryAdd) public {\n\n    uniswapFactoryAddress = _uniswapFactoryAdd;\n    factory = Factory(_uniswapFactoryAdd);\n  }\n\n  function() external payable {}\n\n  event Liquidity(bytes16 typeOf, bytes16 functionName);\n\n  event Rebalancing(bytes4 iaCurr, uint tokenAmount);\n\n  modifier noReentrancy() {\n    require(!locked, \"Reentrant call.\");\n    locked = true;\n    _;\n    locked = false;\n  }\n\n  /**\n   * @dev to change the uniswap factory address\n   * @param newFactoryAddress is the new factory address in concern\n   * @return the status of the concerned coverId\n   */\n  function changeUniswapFactoryAddress(address newFactoryAddress) external onlyInternal {\n    // require(ms.isOwner(msg.sender) || ms.checkIsAuthToGoverned(msg.sender));\n    uniswapFactoryAddress = newFactoryAddress;\n    factory = Factory(uniswapFactoryAddress);\n  }\n\n  /**\n   * @dev On upgrade transfer all investment assets and ether to new Investment Pool\n   * @param newPoolAddress New Investment Assest Pool address\n   */\n  function upgradeInvestmentPool(address payable newPoolAddress) external onlyInternal noReentrancy {\n    uint len = pd.getInvestmentCurrencyLen();\n    for (uint64 i = 1; i < len; i++) {\n      bytes4 iaName = pd.getInvestmentCurrencyByIndex(i);\n      _upgradeInvestmentPool(iaName, newPoolAddress);\n    }\n\n    if (address(this).balance > 0) {\n      Pool2 newP2 = Pool2(newPoolAddress);\n      newP2.sendEther.value(address(this).balance)();\n    }\n  }\n\n  /**\n   * @dev Internal Swap of assets between Capital\n   * and Investment Sub pool for excess or insufficient\n   * liquidity conditions of a given currency.\n   */\n  function internalLiquiditySwap(bytes4 curr) external onlyInternal noReentrancy {\n    uint caBalance;\n    uint baseMin;\n    uint varMin;\n    (, baseMin, varMin) = pd.getCurrencyAssetVarBase(curr);\n    caBalance = _getCurrencyAssetsBalance(curr);\n\n    if (caBalance > uint(baseMin).add(varMin).mul(2)) {\n      _internalExcessLiquiditySwap(curr, baseMin, varMin, caBalance);\n    } else if (caBalance < uint(baseMin).add(varMin)) {\n      _internalInsufficientLiquiditySwap(curr, baseMin, varMin, caBalance);\n\n    }\n  }\n\n  /**\n   * @dev Saves a given investment asset details. To be called daily.\n   * @param curr array of Investment asset name.\n   * @param rate array of investment asset exchange rate.\n   * @param date current date in yyyymmdd.\n   */\n  function saveIADetails(bytes4[] calldata curr, uint64[] calldata rate, uint64 date, bool bit)\n  external checkPause noReentrancy {\n    bytes4 maxCurr;\n    bytes4 minCurr;\n    uint64 maxRate;\n    uint64 minRate;\n    //ONLY NOTARZIE ADDRESS CAN POST\n    require(pd.isnotarise(msg.sender));\n    (maxCurr, maxRate, minCurr, minRate) = _calculateIARank(curr, rate);\n    pd.saveIARankDetails(maxCurr, maxRate, minCurr, minRate, date);\n    pd.updatelastDate(date);\n    uint len = curr.length;\n    for (uint i = 0; i < len; i++) {\n      pd.updateIAAvgRate(curr[i], rate[i]);\n    }\n    if (bit)   //for testing purpose\n      _rebalancingLiquidityTrading(maxCurr, maxRate);\n    p1.saveIADetailsOracalise(pd.iaRatesTime());\n  }\n\n  /**\n   * @dev External Trade for excess or insufficient\n   * liquidity conditions of a given currency.\n   */\n  function externalLiquidityTrade() external onlyInternal {\n\n    bool triggerTrade;\n    bytes4 curr;\n    bytes4 minIACurr;\n    bytes4 maxIACurr;\n    uint amount;\n    uint minIARate;\n    uint maxIARate;\n    uint baseMin;\n    uint varMin;\n    uint caBalance;\n\n\n    (maxIACurr, maxIARate, minIACurr, minIARate) = pd.getIARankDetailsByDate(pd.getLastDate());\n    uint len = pd.getAllCurrenciesLen();\n    for (uint64 i = 0; i < len; i++) {\n      curr = pd.getCurrenciesByIndex(i);\n      (, baseMin, varMin) = pd.getCurrencyAssetVarBase(curr);\n      caBalance = _getCurrencyAssetsBalance(curr);\n\n      if (caBalance > uint(baseMin).add(varMin).mul(2)) {// excess\n        amount = caBalance.sub(((uint(baseMin).add(varMin)).mul(3)).div(2)); // *10**18;\n        triggerTrade = _externalExcessLiquiditySwap(curr, minIACurr, amount);\n      } else if (caBalance < uint(baseMin).add(varMin)) {// insufficient\n        amount = (((uint(baseMin).add(varMin)).mul(3)).div(2)).sub(caBalance);\n        triggerTrade = _externalInsufficientLiquiditySwap(curr, maxIACurr, amount);\n      }\n\n      if (triggerTrade) {\n        p1.triggerExternalLiquidityTrade();\n      }\n    }\n  }\n\n  /**\n   * Iupgradable Interface to update dependent contract address\n   */\n  function changeDependentContractAddress() public onlyInternal {\n    m1 = MCR(ms.getLatestAddress(\"MC\"));\n    pd = PoolData(ms.getLatestAddress(\"PD\"));\n    p1 = Pool1(ms.getLatestAddress(\"P1\"));\n  }\n\n  function sendEther() public payable {\n\n  }\n\n  /**\n   * @dev Gets currency asset balance for a given currency name.\n   */\n  function _getCurrencyAssetsBalance(bytes4 _curr) public view returns (uint caBalance) {\n    if (_curr == \"ETH\") {\n      caBalance = address(p1).balance;\n    } else {\n      IERC20 erc20 = IERC20(pd.getCurrencyAssetAddress(_curr));\n      caBalance = erc20.balanceOf(address(p1));\n    }\n  }\n\n  /**\n   * @dev Transfers ERC20 investment asset from this Pool to another Pool.\n   */\n  function _transferInvestmentAsset(\n    bytes4 _curr,\n    address _transferTo,\n    uint _amount\n  )\n  internal\n  {\n    if (_curr == \"ETH\") {\n      if (_amount > address(this).balance)\n        _amount = address(this).balance;\n      p1.sendEther.value(_amount)();\n    } else {\n      IERC20 erc20 = IERC20(pd.getInvestmentAssetAddress(_curr));\n      if (_amount > erc20.balanceOf(address(this)))\n        _amount = erc20.balanceOf(address(this));\n      require(erc20.transfer(_transferTo, _amount));\n    }\n  }\n\n  /**\n   * @dev to perform rebalancing\n   * @param iaCurr is the investment asset currency\n   * @param iaRate is the investment asset rate\n   */\n  function _rebalancingLiquidityTrading(\n    bytes4 iaCurr,\n    uint64 iaRate\n  )\n  internal\n  checkPause\n  {\n    uint amountToSell;\n    uint totalRiskBal = pd.getLastVfull();\n    uint intermediaryEth;\n    uint ethVol = pd.ethVolumeLimit();\n\n    totalRiskBal = (totalRiskBal.mul(100000)).div(DECIMAL1E18);\n    Exchange exchange;\n    if (totalRiskBal > 0) {\n      amountToSell = ((totalRiskBal.mul(2).mul(\n        iaRate)).mul(pd.variationPercX100())).div(100 * 100 * 100000);\n      amountToSell = (amountToSell.mul(\n        10 ** uint(pd.getInvestmentAssetDecimals(iaCurr)))).div(100); // amount of asset to sell\n\n      if (iaCurr != \"ETH\" && _checkTradeConditions(iaCurr, iaRate, totalRiskBal)) {\n        exchange = Exchange(factory.getExchange(pd.getInvestmentAssetAddress(iaCurr)));\n        intermediaryEth = exchange.getTokenToEthInputPrice(amountToSell);\n        if (intermediaryEth > (address(exchange).balance.mul(ethVol)).div(100)) {\n          intermediaryEth = (address(exchange).balance.mul(ethVol)).div(100);\n          amountToSell = (exchange.getEthToTokenInputPrice(intermediaryEth).mul(995)).div(1000);\n        }\n        IERC20 erc20;\n        erc20 = IERC20(pd.getCurrencyAssetAddress(iaCurr));\n        erc20.approve(address(exchange), amountToSell);\n        exchange.tokenToEthSwapInput(amountToSell, (exchange.getTokenToEthInputPrice(\n          amountToSell).mul(995)).div(1000), pd.uniswapDeadline().add(now));\n      } else if (iaCurr == \"ETH\" && _checkTradeConditions(iaCurr, iaRate, totalRiskBal)) {\n\n        _transferInvestmentAsset(iaCurr, ms.getLatestAddress(\"P1\"), amountToSell);\n      }\n      emit Rebalancing(iaCurr, amountToSell);\n    }\n  }\n\n  /**\n   * @dev Checks whether trading is required for a\n   * given investment asset at a given exchange rate.\n   */\n  function _checkTradeConditions(\n    bytes4 curr,\n    uint64 iaRate,\n    uint totalRiskBal\n  )\n  internal\n  view\n  returns (bool check)\n  {\n    if (iaRate > 0) {\n      uint iaBalance = _getInvestmentAssetBalance(curr).div(DECIMAL1E18);\n      if (iaBalance > 0 && totalRiskBal > 0) {\n        uint iaMax;\n        uint iaMin;\n        uint checkNumber;\n        uint z;\n        (iaMin, iaMax) = pd.getInvestmentAssetHoldingPerc(curr);\n        z = pd.variationPercX100();\n        checkNumber = (iaBalance.mul(100 * 100000)).div(totalRiskBal.mul(iaRate));\n        if ((checkNumber > ((totalRiskBal.mul(iaMax.add(z))).mul(100000)).div(100)) ||\n          (checkNumber < ((totalRiskBal.mul(iaMin.sub(z))).mul(100000)).div(100)))\n          check = true; // eligibleIA\n      }\n    }\n  }\n\n  /**\n   * @dev Gets the investment asset rank.\n   */\n  function _getIARank(\n    bytes4 curr,\n    uint64 rateX100,\n    uint totalRiskPoolBalance\n  )\n  internal\n  view\n  returns (int rhsh, int rhsl) //internal function\n  {\n\n    uint currentIAmaxHolding;\n    uint currentIAminHolding;\n    uint iaBalance = _getInvestmentAssetBalance(curr);\n    (currentIAminHolding, currentIAmaxHolding) = pd.getInvestmentAssetHoldingPerc(curr);\n\n    if (rateX100 > 0) {\n      uint rhsf;\n      rhsf = (iaBalance.mul(1000000)).div(totalRiskPoolBalance.mul(rateX100));\n      rhsh = int(rhsf - currentIAmaxHolding);\n      rhsl = int(rhsf - currentIAminHolding);\n    }\n  }\n\n  /**\n   * @dev Calculates the investment asset rank.\n   */\n  function _calculateIARank(\n    bytes4[] memory curr,\n    uint64[] memory rate\n  )\n  internal\n  view\n  returns (\n    bytes4 maxCurr,\n    uint64 maxRate,\n    bytes4 minCurr,\n    uint64 minRate\n  )\n  {\n    int max = 0;\n    int min = - 1;\n    int rhsh;\n    int rhsl;\n    uint totalRiskPoolBalance;\n    (totalRiskPoolBalance,) = m1.calVtpAndMCRtp();\n    uint len = curr.length;\n    for (uint i = 0; i < len; i++) {\n      rhsl = 0;\n      rhsh = 0;\n      if (pd.getInvestmentAssetStatus(curr[i])) {\n        (rhsh, rhsl) = _getIARank(curr[i], rate[i], totalRiskPoolBalance);\n        if (rhsh > max || i == 0) {\n          max = rhsh;\n          maxCurr = curr[i];\n          maxRate = rate[i];\n        }\n        if (rhsl < min || rhsl == 0 || i == 0) {\n          min = rhsl;\n          minCurr = curr[i];\n          minRate = rate[i];\n        }\n      }\n    }\n  }\n\n  /**\n   * @dev to get balance of an investment asset\n   * @param _curr is the investment asset in concern\n   * @return the balance\n   */\n  function _getInvestmentAssetBalance(bytes4 _curr) internal view returns (uint balance) {\n    if (_curr == \"ETH\") {\n      balance = address(this).balance;\n    } else {\n      IERC20 erc20 = IERC20(pd.getInvestmentAssetAddress(_curr));\n      balance = erc20.balanceOf(address(this));\n    }\n  }\n\n  /**\n   * @dev Creates Excess liquidity trading order for a given currency and a given balance.\n   */\n  function _internalExcessLiquiditySwap(bytes4 _curr, uint _baseMin, uint _varMin, uint _caBalance) internal {\n    // require(ms.isInternal(msg.sender) || md.isnotarise(msg.sender));\n    bytes4 minIACurr;\n    // uint amount;\n\n    (,, minIACurr,) = pd.getIARankDetailsByDate(pd.getLastDate());\n    if (_curr == minIACurr) {\n      // amount = _caBalance.sub(((_baseMin.add(_varMin)).mul(3)).div(2)); //*10**18;\n      p1.transferCurrencyAsset(_curr, _caBalance.sub(((_baseMin.add(_varMin)).mul(3)).div(2)));\n    } else {\n      p1.triggerExternalLiquidityTrade();\n    }\n  }\n\n  /**\n   * @dev insufficient liquidity swap\n   * for a given currency and a given balance.\n   */\n  function _internalInsufficientLiquiditySwap(bytes4 _curr, uint _baseMin, uint _varMin, uint _caBalance) internal {\n\n    bytes4 maxIACurr;\n    uint amount;\n\n    (maxIACurr,,,) = pd.getIARankDetailsByDate(pd.getLastDate());\n\n    if (_curr == maxIACurr) {\n      amount = (((_baseMin.add(_varMin)).mul(3)).div(2)).sub(_caBalance);\n      _transferInvestmentAsset(_curr, ms.getLatestAddress(\"P1\"), amount);\n    } else {\n      IERC20 erc20 = IERC20(pd.getInvestmentAssetAddress(maxIACurr));\n      if ((maxIACurr == \"ETH\" && address(this).balance > 0) ||\n        (maxIACurr != \"ETH\" && erc20.balanceOf(address(this)) > 0))\n        p1.triggerExternalLiquidityTrade();\n\n    }\n  }\n\n  /**\n   * @dev Creates External excess liquidity trading\n   * order for a given currency and a given balance.\n   * @param curr Currency Asset to Sell\n   * @param minIACurr Investment Asset to Buy\n   * @param amount Amount of Currency Asset to Sell\n   */\n  function _externalExcessLiquiditySwap(\n    bytes4 curr,\n    bytes4 minIACurr,\n    uint256 amount\n  )\n  internal\n  returns (bool trigger)\n  {\n    uint intermediaryEth;\n    Exchange exchange;\n    IERC20 erc20;\n    uint ethVol = pd.ethVolumeLimit();\n    if (curr == minIACurr) {\n      p1.transferCurrencyAsset(curr, amount);\n    } else if (curr == \"ETH\" && minIACurr != \"ETH\") {\n\n      exchange = Exchange(factory.getExchange(pd.getInvestmentAssetAddress(minIACurr)));\n      if (amount > (address(exchange).balance.mul(ethVol)).div(100)) {// 4% ETH volume limit\n        amount = (address(exchange).balance.mul(ethVol)).div(100);\n        trigger = true;\n      }\n      p1.transferCurrencyAsset(curr, amount);\n      exchange.ethToTokenSwapInput.value(amount)\n      (exchange.getEthToTokenInputPrice(amount).mul(995).div(1000), pd.uniswapDeadline().add(now));\n    } else if (curr != \"ETH\" && minIACurr == \"ETH\") {\n      exchange = Exchange(factory.getExchange(pd.getCurrencyAssetAddress(curr)));\n      erc20 = IERC20(pd.getCurrencyAssetAddress(curr));\n      intermediaryEth = exchange.getTokenToEthInputPrice(amount);\n\n      if (intermediaryEth > (address(exchange).balance.mul(ethVol)).div(100)) {\n        intermediaryEth = (address(exchange).balance.mul(ethVol)).div(100);\n        amount = exchange.getEthToTokenInputPrice(intermediaryEth);\n        intermediaryEth = exchange.getTokenToEthInputPrice(amount);\n        trigger = true;\n      }\n      p1.transferCurrencyAsset(curr, amount);\n      // erc20.decreaseAllowance(address(exchange), erc20.allowance(address(this), address(exchange)));\n      erc20.approve(address(exchange), amount);\n\n      exchange.tokenToEthSwapInput(amount, (\n      intermediaryEth.mul(995)).div(1000), pd.uniswapDeadline().add(now));\n    } else {\n\n      exchange = Exchange(factory.getExchange(pd.getCurrencyAssetAddress(curr)));\n      intermediaryEth = exchange.getTokenToEthInputPrice(amount);\n\n      if (intermediaryEth > (address(exchange).balance.mul(ethVol)).div(100)) {\n        intermediaryEth = (address(exchange).balance.mul(ethVol)).div(100);\n        amount = exchange.getEthToTokenInputPrice(intermediaryEth);\n        trigger = true;\n      }\n\n      Exchange tmp = Exchange(factory.getExchange(\n          pd.getInvestmentAssetAddress(minIACurr))); // minIACurr exchange\n\n      if (intermediaryEth > address(tmp).balance.mul(ethVol).div(100)) {\n        intermediaryEth = address(tmp).balance.mul(ethVol).div(100);\n        amount = exchange.getEthToTokenInputPrice(intermediaryEth);\n        trigger = true;\n      }\n      p1.transferCurrencyAsset(curr, amount);\n      erc20 = IERC20(pd.getCurrencyAssetAddress(curr));\n      erc20.approve(address(exchange), amount);\n\n      exchange.tokenToTokenSwapInput(amount, (tmp.getEthToTokenInputPrice(\n        intermediaryEth).mul(995)).div(1000), (intermediaryEth.mul(995)).div(1000),\n        pd.uniswapDeadline().add(now), pd.getInvestmentAssetAddress(minIACurr));\n    }\n  }\n\n  /**\n   * @dev insufficient liquidity swap\n   * for a given currency and a given balance.\n   * @param curr Currency Asset to buy\n   * @param maxIACurr Investment Asset to sell\n   * @param amount Amount of Investment Asset to sell\n   */\n  function _externalInsufficientLiquiditySwap(\n    bytes4 curr,\n    bytes4 maxIACurr,\n    uint256 amount\n  )\n  internal\n  returns (bool trigger)\n  {\n\n    Exchange exchange;\n    IERC20 erc20;\n    uint intermediaryEth;\n    // uint ethVol = pd.ethVolumeLimit();\n    if (curr == maxIACurr) {\n      _transferInvestmentAsset(curr, ms.getLatestAddress(\"P1\"), amount);\n    } else if (curr == \"ETH\" && maxIACurr != \"ETH\") {\n      exchange = Exchange(factory.getExchange(pd.getInvestmentAssetAddress(maxIACurr)));\n      intermediaryEth = exchange.getEthToTokenInputPrice(amount);\n\n\n      if (amount > (address(exchange).balance.mul(pd.ethVolumeLimit())).div(100)) {\n        amount = (address(exchange).balance.mul(pd.ethVolumeLimit())).div(100);\n        // amount = exchange.getEthToTokenInputPrice(intermediaryEth);\n        intermediaryEth = exchange.getEthToTokenInputPrice(amount);\n        trigger = true;\n      }\n\n      erc20 = IERC20(pd.getCurrencyAssetAddress(maxIACurr));\n      if (intermediaryEth > erc20.balanceOf(address(this))) {\n        intermediaryEth = erc20.balanceOf(address(this));\n      }\n      // erc20.decreaseAllowance(address(exchange), erc20.allowance(address(this), address(exchange)));\n      erc20.approve(address(exchange), intermediaryEth);\n      exchange.tokenToEthTransferInput(intermediaryEth, (\n      exchange.getTokenToEthInputPrice(intermediaryEth).mul(995)).div(1000),\n        pd.uniswapDeadline().add(now), address(p1));\n\n    } else if (curr != \"ETH\" && maxIACurr == \"ETH\") {\n      exchange = Exchange(factory.getExchange(pd.getCurrencyAssetAddress(curr)));\n      intermediaryEth = exchange.getTokenToEthInputPrice(amount);\n      if (intermediaryEth > address(this).balance)\n        intermediaryEth = address(this).balance;\n      if (intermediaryEth > (address(exchange).balance.mul\n      (pd.ethVolumeLimit())).div(100)) {// 4% ETH volume limit\n        intermediaryEth = (address(exchange).balance.mul(pd.ethVolumeLimit())).div(100);\n        trigger = true;\n      }\n      exchange.ethToTokenTransferInput.value(intermediaryEth)((exchange.getEthToTokenInputPrice(\n        intermediaryEth).mul(995)).div(1000), pd.uniswapDeadline().add(now), address(p1));\n    } else {\n      address currAdd = pd.getCurrencyAssetAddress(curr);\n      exchange = Exchange(factory.getExchange(currAdd));\n      intermediaryEth = exchange.getTokenToEthInputPrice(amount);\n      if (intermediaryEth > (address(exchange).balance.mul(pd.ethVolumeLimit())).div(100)) {\n        intermediaryEth = (address(exchange).balance.mul(pd.ethVolumeLimit())).div(100);\n        trigger = true;\n      }\n      Exchange tmp = Exchange(factory.getExchange(pd.getInvestmentAssetAddress(maxIACurr)));\n\n      if (intermediaryEth > address(tmp).balance.mul(pd.ethVolumeLimit()).div(100)) {\n        intermediaryEth = address(tmp).balance.mul(pd.ethVolumeLimit()).div(100);\n        // amount = exchange.getEthToTokenInputPrice(intermediaryEth);\n        trigger = true;\n      }\n\n      uint maxIAToSell = tmp.getEthToTokenInputPrice(intermediaryEth);\n\n      erc20 = IERC20(pd.getInvestmentAssetAddress(maxIACurr));\n      uint maxIABal = erc20.balanceOf(address(this));\n      if (maxIAToSell > maxIABal) {\n        maxIAToSell = maxIABal;\n        intermediaryEth = tmp.getTokenToEthInputPrice(maxIAToSell);\n        // amount = exchange.getEthToTokenInputPrice(intermediaryEth);\n      }\n      amount = exchange.getEthToTokenInputPrice(intermediaryEth);\n      erc20.approve(address(tmp), maxIAToSell);\n      tmp.tokenToTokenTransferInput(maxIAToSell, (\n      amount.mul(995)).div(1000), (\n        intermediaryEth), pd.uniswapDeadline().add(now), address(p1), currAdd);\n    }\n  }\n\n  /**\n   * @dev Transfers ERC20 investment asset from this Pool to another Pool.\n   */\n  function _upgradeInvestmentPool(\n    bytes4 _curr,\n    address _newPoolAddress\n  )\n  internal\n  {\n    IERC20 erc20 = IERC20(pd.getInvestmentAssetAddress(_curr));\n    if (erc20.balanceOf(address(this)) > 0)\n      require(erc20.transfer(_newPoolAddress, erc20.balanceOf(address(this))));\n  }\n}\n",
  "sourcePath": "contracts/modules/capital/Pool2.sol",
  "abi": [
    {
      "constant": false,
      "inputs": [],
      "name": "sendEther",
      "outputs": [],
      "payable": true,
      "stateMutability": "payable",
      "type": "function"
    },
    {
      "constant": false,
      "inputs": [],
      "name": "changeDependentContractAddress",
      "outputs": [],
      "payable": false,
      "stateMutability": "nonpayable",
      "type": "function"
    },
    {
      "constant": false,
      "inputs": [
        {
          "name": "curr",
          "type": "bytes4"
        }
      ],
      "name": "internalLiquiditySwap",
      "outputs": [],
      "payable": false,
      "stateMutability": "nonpayable",
      "type": "function"
    },
    {
      "constant": true,
      "inputs": [],
      "name": "uniswapFactoryAddress",
      "outputs": [
        {
          "name": "",
          "type": "address"
        }
      ],
      "payable": false,
      "stateMutability": "view",
      "type": "function"
    },
    {
      "constant": false,
      "inputs": [
        {
          "name": "curr",
          "type": "bytes4[]"
        },
        {
          "name": "rate",
          "type": "uint64[]"
        },
        {
          "name": "date",
          "type": "uint64"
        },
        {
          "name": "bit",
          "type": "bool"
        }
      ],
      "name": "saveIADetails",
      "outputs": [],
      "payable": false,
      "stateMutability": "nonpayable",
      "type": "function"
    },
    {
      "constant": false,
      "inputs": [
        {
          "name": "newPoolAddress",
          "type": "address"
        }
      ],
      "name": "upgradeInvestmentPool",
      "outputs": [],
      "payable": false,
      "stateMutability": "nonpayable",
      "type": "function"
    },
    {
      "constant": true,
      "inputs": [
        {
          "name": "_curr",
          "type": "bytes4"
        }
      ],
      "name": "_getCurrencyAssetsBalance",
      "outputs": [
        {
          "name": "caBalance",
          "type": "uint256"
        }
      ],
      "payable": false,
      "stateMutability": "view",
      "type": "function"
    },
    {
      "constant": true,
      "inputs": [],
      "name": "ms",
      "outputs": [
        {
          "name": "",
          "type": "address"
        }
      ],
      "payable": false,
      "stateMutability": "view",
      "type": "function"
    },
    {
      "constant": false,
      "inputs": [
        {
          "name": "newFactoryAddress",
          "type": "address"
        }
      ],
      "name": "changeUniswapFactoryAddress",
      "outputs": [],
      "payable": false,
      "stateMutability": "nonpayable",
      "type": "function"
    },
    {
      "constant": false,
      "inputs": [
        {
          "name": "_masterAddress",
          "type": "address"
        }
      ],
      "name": "changeMasterAddress",
      "outputs": [],
      "payable": false,
      "stateMutability": "nonpayable",
      "type": "function"
    },
    {
      "constant": true,
      "inputs": [],
      "name": "nxMasterAddress",
      "outputs": [
        {
          "name": "",
          "type": "address"
        }
      ],
      "payable": false,
      "stateMutability": "view",
      "type": "function"
    },
    {
      "constant": false,
      "inputs": [],
      "name": "externalLiquidityTrade",
      "outputs": [],
      "payable": false,
      "stateMutability": "nonpayable",
      "type": "function"
    },
    {
      "inputs": [
        {
          "name": "_uniswapFactoryAdd",
          "type": "address"
        }
      ],
      "payable": false,
      "stateMutability": "nonpayable",
      "type": "constructor"
    },
    {
      "payable": true,
      "stateMutability": "payable",
      "type": "fallback"
    },
    {
      "anonymous": false,
      "inputs": [
        {
          "indexed": false,
          "name": "typeOf",
          "type": "bytes16"
        },
        {
          "indexed": false,
          "name": "functionName",
          "type": "bytes16"
        }
      ],
      "name": "Liquidity",
      "type": "event"
    },
    {
      "anonymous": false,
      "inputs": [
        {
          "indexed": false,
          "name": "iaCurr",
          "type": "bytes4"
        },
        {
          "indexed": false,
          "name": "tokenAmount",
          "type": "uint256"
        }
      ],
      "name": "Rebalancing",
      "type": "event"
    }
  ],
  "bytecode": "0x60806040523480156200001157600080fd5b5060405160208062005660833981018060405260208110156200003357600080fd5b5051600680546001600160a01b039092166001600160a01b03199283168117909155600580549092161790556155f1806200006f6000396000f3fe6080604052600436106100a75760003560e01c806383e4a6741161006457806383e4a6741461023e578063a0b2d57f14610284578063b19ab66d14610299578063d46655f4146102cc578063f17a3bec146102ff578063f720036c14610314576100a7565b80630e29df22146100a95780630ea9c984146100b15780632d9fa500146100c65780633655ac3c146100fa5780634a0d95d61461012b5780636dce9b3d1461020b575b005b6100a7610329565b3480156100bd57600080fd5b506100a761032b565b3480156100d257600080fd5b506100a7600480360360208110156100e957600080fd5b50356001600160e01b03191661057a565b34801561010657600080fd5b5061010f610782565b604080516001600160a01b039092168252519081900360200190f35b34801561013757600080fd5b506100a76004803603608081101561014e57600080fd5b81019060208101813564010000000081111561016957600080fd5b82018360208201111561017b57600080fd5b8035906020019184602083028401116401000000008311171561019d57600080fd5b9193909290916020810190356401000000008111156101bb57600080fd5b8201836020820111156101cd57600080fd5b803590602001918460208302840111640100000000831117156101ef57600080fd5b91935091506001600160401b0381351690602001351515610791565b34801561021757600080fd5b506100a76004803603602081101561022e57600080fd5b50356001600160a01b0316610c64565b34801561024a57600080fd5b506102726004803603602081101561026157600080fd5b50356001600160e01b031916610efc565b60408051918252519081900360200190f35b34801561029057600080fd5b5061010f61103c565b3480156102a557600080fd5b506100a7600480360360208110156102bc57600080fd5b50356001600160a01b031661104b565b3480156102d857600080fd5b506100a7600480360360208110156102ef57600080fd5b50356001600160a01b03166110fd565b34801561030b57600080fd5b5061010f61118c565b34801561032057600080fd5b506100a761119b565b565b60005460408051600160e21b6323c5b10702815233600482015290516001600160a01b0390921691638f16c41c91602480820192602092909190829003018186803b15801561037957600080fd5b505afa15801561038d573d6000803e3d6000fd5b505050506040513d60208110156103a357600080fd5b50516103ae57600080fd5b60005460408051600160e31b6227050b028152600160f01b614d4302600482015290516001600160a01b0390921691630138285891602480820192602092909190829003018186803b15801561040357600080fd5b505afa158015610417573d6000803e3d6000fd5b505050506040513d602081101561042d57600080fd5b5051600280546001600160a01b0319166001600160a01b0392831617905560005460408051600160e31b6227050b028152600160f21b611411026004820152905191909216916301382858916024808301926020929190829003018186803b15801561049857600080fd5b505afa1580156104ac573d6000803e3d6000fd5b505050506040513d60208110156104c257600080fd5b5051600480546001600160a01b0319166001600160a01b0392831617815560005460408051600160e31b6227050b028152600160f01b615031029381019390935251921691630138285891602480820192602092909190829003018186803b15801561052d57600080fd5b505afa158015610541573d6000803e3d6000fd5b505050506040513d602081101561055757600080fd5b5051600380546001600160a01b0319166001600160a01b03909216919091179055565b60005460408051600160e21b6323c5b10702815233600482015290516001600160a01b0390921691638f16c41c91602480820192602092909190829003018186803b1580156105c857600080fd5b505afa1580156105dc573d6000803e3d6000fd5b505050506040513d60208110156105f257600080fd5b50516105fd57600080fd5b600654600160a01b900460ff16156106545760408051600160e51b62461bcd02815260206004820152600f6024820152600160891b6e2932b2b73a3930b73a1031b0b6361702604482015290519081900360640190fd5b60068054600160a01b60ff021916600160a01b1790556004805460408051600160e01b6377449c0b0281526001600160e01b031985169381019390935251600092839283926001600160a01b03909116916377449c0b916024808301926060929190829003018186803b1580156106ca57600080fd5b505afa1580156106de573d6000803e3d6000fd5b505050506040513d60608110156106f457600080fd5b506020810151604090910151909250905061070e84610efc565b92506107316002610725848463ffffffff61162816565b9063ffffffff61168e16565b83111561074957610744848383866116ea565b61076c565b610759828263ffffffff61162816565b83101561076c5761076c84838386611922565b505060068054600160a01b60ff02191690555050565b6006546001600160a01b031681565b6000809054906101000a90046001600160a01b03166001600160a01b031663ff0938a76040518163ffffffff1660e01b815260040160206040518083038186803b1580156107de57600080fd5b505afa1580156107f2573d6000803e3d6000fd5b505050506040513d602081101561080857600080fd5b50511561081457600080fd5b600654600160a01b900460ff161561086b5760408051600160e51b62461bcd02815260206004820152600f6024820152600160891b6e2932b2b73a3930b73a1031b0b6361702604482015290519081900360640190fd5b60068054600160a01b60ff021916600160a01b1790556004805460408051600160e01b6362ae37210281523393810193909352516000928392839283926001600160a01b03909216916362ae3721916024808301926020929190829003018186803b1580156108d957600080fd5b505afa1580156108ed573d6000803e3d6000fd5b505050506040513d602081101561090357600080fd5b505161090e57600080fd5b61097b8a8a8080602002602001604051908101604052809392919081815260200183836020028082843760009201919091525050604080516020808e0282810182019093528d82529093508d92508c918291850190849080828437600092019190915250611c9592505050565b6004805460408051600160e11b63210825570281526001600160e01b0319808916948201949094526001600160401b03808816602483015293861660448201528385166064820152928d1660848401525195995092975092955093506001600160a01b0316916342104aae9160a48082019260009290919082900301818387803b158015610a0857600080fd5b505af1158015610a1c573d6000803e3d6000fd5b50506004805460408051600160e11b6352d0e2010281526001600160401b038c1693810193909352516001600160a01b03909116935063a5a1c4029250602480830192600092919082900301818387803b158015610a7957600080fd5b505af1158015610a8d573d6000803e3d6000fd5b508b925060009150505b81811015610b67576004546001600160a01b0316637deb85768d8d84818110610abc57fe5b905060200201356001600160e01b0319168c8c85818110610ad957fe5b905060200201356001600160401b03166040518363ffffffff1660e01b815260040180836001600160e01b0319166001600160e01b0319168152602001826001600160401b0316815260200192505050600060405180830381600087803b158015610b4357600080fd5b505af1158015610b57573d6000803e3d6000fd5b505060019092019150610a979050565b508515610b7857610b788584611eab565b6003546004805460408051600160e01b634c69d49702815290516001600160a01b0394851694630a7000f094931692634c69d49792808201926020929091829003018186803b158015610bca57600080fd5b505afa158015610bde573d6000803e3d6000fd5b505050506040513d6020811015610bf457600080fd5b50516040805163ffffffff841660e01b8152600481019290925251602480830192600092919082900301818387803b158015610c2f57600080fd5b505af1158015610c43573d6000803e3d6000fd5b505060068054600160a01b60ff021916905550505050505050505050505050565b60005460408051600160e21b6323c5b10702815233600482015290516001600160a01b0390921691638f16c41c91602480820192602092909190829003018186803b158015610cb257600080fd5b505afa158015610cc6573d6000803e3d6000fd5b505050506040513d6020811015610cdc57600080fd5b5051610ce757600080fd5b600654600160a01b900460ff1615610d3e5760408051600160e51b62461bcd02815260206004820152600f6024820152600160891b6e2932b2b73a3930b73a1031b0b6361702604482015290519081900360640190fd5b60068054600160a01b60ff021916600160a01b1790556004805460408051600160e01b637d03238f02815290516000936001600160a01b0390931692637d03238f92808201926020929091829003018186803b158015610d9d57600080fd5b505afa158015610db1573d6000803e3d6000fd5b505050506040513d6020811015610dc757600080fd5b5051905060015b81816001600160401b03161015610e7b576004805460408051600160e01b63dc68e16b0281526001600160401b03851693810193909352516000926001600160a01b039092169163dc68e16b916024808301926020929190829003018186803b158015610e3a57600080fd5b505afa158015610e4e573d6000803e3d6000fd5b505050506040513d6020811015610e6457600080fd5b50519050610e728185612778565b50600101610dce565b50303115610ee8576000829050806001600160a01b0316630e29df22306001600160a01b0316316040518263ffffffff1660e01b81526004016000604051808303818588803b158015610ecd57600080fd5b505af1158015610ee1573d6000803e3d6000fd5b5050505050505b505060068054600160a01b60ff0219169055565b6000600160eb1b6208aa89026001600160e01b031983161415610f2c57506003546001600160a01b031631611037565b6004805460408051600160e01b63e3dee2390281526001600160e01b0319861693810193909352516000926001600160a01b039092169163e3dee239916024808301926020929190829003018186803b158015610f8857600080fd5b505afa158015610f9c573d6000803e3d6000fd5b505050506040513d6020811015610fb257600080fd5b505160035460408051600160e01b6370a082310281526001600160a01b0392831660048201529051929350908316916370a0823191602480820192602092909190829003018186803b15801561100757600080fd5b505afa15801561101b573d6000803e3d6000fd5b505050506040513d602081101561103157600080fd5b50519150505b919050565b6000546001600160a01b031681565b60005460408051600160e21b6323c5b10702815233600482015290516001600160a01b0390921691638f16c41c91602480820192602092909190829003018186803b15801561109957600080fd5b505afa1580156110ad573d6000803e3d6000fd5b505050506040513d60208110156110c357600080fd5b50516110ce57600080fd5b600680546001600160a01b03199081166001600160a01b03938416179182905560058054929093169116179055565b6000546001600160a01b031615611160576000546001600160a01b031633146111605760408051600160e51b62461bcd02815260206004820152600a6024820152600160b11b692737ba1036b0b9ba32b902604482015290519081900360640190fd5b600080546001600160a01b039092166001600160a01b0319928316811790915560018054909216179055565b6001546001600160a01b031681565b60005460408051600160e21b6323c5b10702815233600482015290516001600160a01b0390921691638f16c41c91602480820192602092909190829003018186803b1580156111e957600080fd5b505afa1580156111fd573d6000803e3d6000fd5b505050506040513d602081101561121357600080fd5b505161121e57600080fd5b6004805460408051600160e01b6356571fc302815290516000938493849384938493849384938493849384936001600160a01b031692630e412f5c9284926356571fc392808201926020929091829003018186803b15801561127f57600080fd5b505afa158015611293573d6000803e3d6000fd5b505050506040513d60208110156112a957600080fd5b50516040805163ffffffff841660e01b81526001600160401b039092166004830152516024808301926080929190829003018186803b1580156112eb57600080fd5b505afa1580156112ff573d6000803e3d6000fd5b505050506040513d608081101561131557600080fd5b508051602080830151604080850151606090950151600480548351600160e01b63255f50490281529351979f50959d506001600160401b039182169b50921698506000946001600160a01b039094169363255f504993828401939092829003018186803b15801561138557600080fd5b505afa158015611399573d6000803e3d6000fd5b505050506040513d60208110156113af57600080fd5b5051905060005b81816001600160401b0316101561161a576004805460408051600160e41b6303c40b1f0281526001600160401b03851693810193909352516001600160a01b0390911691633c40b1f0916024808301926020929190829003018186803b15801561141f57600080fd5b505afa158015611433573d6000803e3d6000fd5b505050506040513d602081101561144957600080fd5b50516004805460408051600160e01b6377449c0b0281526001600160e01b031985169381019390935251929d506001600160a01b0316916377449c0b91602480820192606092909190829003018186803b1580156114a657600080fd5b505afa1580156114ba573d6000803e3d6000fd5b505050506040513d60608110156114d057600080fd5b50602081015160409091015190955093506114ea8b610efc565b92506115016002610725878763ffffffff61162816565b8311156115525761153e611531600261152560036107258a8a63ffffffff61162816565b9063ffffffff61298516565b849063ffffffff6129c716565b975061154b8b8b8a612a09565b9b506115a3565b611562858563ffffffff61162816565b8310156115a35761159383611587600261152560036107258b8b63ffffffff61162816565b9063ffffffff6129c716565b97506115a08b8a8a613b17565b9b505b8b1561161257600360009054906101000a90046001600160a01b03166001600160a01b0316639c1fe9276040518163ffffffff1660e01b8152600401600060405180830381600087803b1580156115f957600080fd5b505af115801561160d573d6000803e3d6000fd5b505050505b6001016113b6565b505050505050505050505050565b6000828201838110156116855760408051600160e51b62461bcd02815260206004820152601b60248201527f536166654d6174683a206164646974696f6e206f766572666c6f770000000000604482015290519081900360640190fd5b90505b92915050565b60008261169d57506000611688565b828202828482816116aa57fe5b041461168557604051600160e51b62461bcd0281526004018080602001828103825260218152602001806155a56021913960400191505060405180910390fd5b6004805460408051600160e01b6356571fc302815290516000936001600160a01b0390931692630e412f5c9284926356571fc392828101926020929190829003018186803b15801561173b57600080fd5b505afa15801561174f573d6000803e3d6000fd5b505050506040513d602081101561176557600080fd5b50516040805163ffffffff841660e01b81526001600160401b039092166004830152516024808301926080929190829003018186803b1580156117a757600080fd5b505afa1580156117bb573d6000803e3d6000fd5b505050506040513d60808110156117d157600080fd5b506040015190506001600160e01b031985811690821614156118b257600380546001600160a01b031690631fac40b490879061182f9061182290600290611525906107258c8c63ffffffff61162816565b869063ffffffff6129c716565b6040518363ffffffff1660e01b815260040180836001600160e01b0319166001600160e01b031916815260200182815260200192505050602060405180830381600087803b15801561188057600080fd5b505af1158015611894573d6000803e3d6000fd5b505050506040513d60208110156118aa57600080fd5b5061191b9050565b600360009054906101000a90046001600160a01b03166001600160a01b0316639c1fe9276040518163ffffffff1660e01b8152600401600060405180830381600087803b15801561190257600080fd5b505af1158015611916573d6000803e3d6000fd5b505050505b5050505050565b6004805460408051600160e01b6356571fc3028152905160009384936001600160a01b031692630e412f5c9284926356571fc392808201926020929091829003018186803b15801561197357600080fd5b505afa158015611987573d6000803e3d6000fd5b505050506040513d602081101561199d57600080fd5b50516040805163ffffffff841660e01b81526001600160401b039092166004830152516024808301926080929190829003018186803b1580156119df57600080fd5b505afa1580156119f3573d6000803e3d6000fd5b505050506040513d6080811015611a0957600080fd5b505191506001600160e01b03198681169083161415611ad257611a4083611587600261152560036107258b8b63ffffffff61162816565b60005460408051600160e31b6227050b028152600160f01b6150310260048201529051929350611acd9289926001600160a01b0316916301382858916024808301926020929190829003018186803b158015611a9b57600080fd5b505afa158015611aaf573d6000803e3d6000fd5b505050506040513d6020811015611ac557600080fd5b505183614e05565b611c8d565b6004805460408051600160e01b637e2d14d90281526001600160e01b0319861693810193909352516000926001600160a01b0390921691637e2d14d9916024808301926020929190829003018186803b158015611b2e57600080fd5b505afa158015611b42573d6000803e3d6000fd5b505050506040513d6020811015611b5857600080fd5b50519050600160eb1b6208aa89026001600160e01b03198416148015611b7e5750303115155b80611c1d5750600160eb1b6208aa89026001600160e01b0319841614801590611c1d575060408051600160e01b6370a0823102815230600482015290516000916001600160a01b038416916370a0823191602480820192602092909190829003018186803b158015611bef57600080fd5b505afa158015611c03573d6000803e3d6000fd5b505050506040513d6020811015611c1957600080fd5b5051115b15611c8b57600360009054906101000a90046001600160a01b03166001600160a01b0316639c1fe9276040518163ffffffff1660e01b8152600401600060405180830381600087803b158015611c7257600080fd5b505af1158015611c86573d6000803e3d6000fd5b505050505b505b505050505050565b60025460408051600160e11b636cf68d3d02815281516000938493849384938493600019938593849384936001600160a01b03169263d9ed1a7a9260048082019391829003018186803b158015611ceb57600080fd5b505afa158015611cff573d6000803e3d6000fd5b505050506040513d6040811015611d1557600080fd5b50518b5190915060005b81811015611e9b576004548d51600096508695506001600160a01b03909116906324da1128908f9084908110611d5157fe5b60200260200101516040518263ffffffff1660e01b815260040180826001600160e01b0319166001600160e01b031916815260200191505060206040518083038186803b158015611da157600080fd5b505afa158015611db5573d6000803e3d6000fd5b505050506040513d6020811015611dcb57600080fd5b505115611e9357611e038d8281518110611de157fe5b60200260200101518d8381518110611df557fe5b6020026020010151856150b6565b909550935086851380611e14575080155b15611e49578496508c8181518110611e2857fe5b60200260200101519a508b8181518110611e3e57fe5b602002602001015199505b85841280611e55575083155b80611e5e575080155b15611e93578395508c8181518110611e7257fe5b602002602001015198508b8181518110611e8857fe5b602002602001015197505b600101611d1f565b5050505050505092959194509250565b6000809054906101000a90046001600160a01b03166001600160a01b031663ff0938a76040518163ffffffff1660e01b815260040160206040518083038186803b158015611ef857600080fd5b505afa158015611f0c573d6000803e3d6000fd5b505050506040513d6020811015611f2257600080fd5b505115611f2e57600080fd5b6004805460408051600160e01b63e3d22ebd028152905160009384936001600160a01b03169263e3d22ebd9281830192602092829003018186803b158015611f7557600080fd5b505afa158015611f89573d6000803e3d6000fd5b505050506040513d6020811015611f9f57600080fd5b50516004805460408051600160e11b6371283da5028152905193945060009384936001600160a01b039093169263e2507b4a92808201926020929091829003018186803b158015611fef57600080fd5b505afa158015612003573d6000803e3d6000fd5b505050506040513d602081101561201957600080fd5b5051905061203c670de0b6b3a764000061152585620186a063ffffffff61168e16565b925060008315611c8b576120e7633b9aca00611525600460009054906101000a90046001600160a01b03166001600160a01b0316638c3f8fa46040518163ffffffff1660e01b815260040160206040518083038186803b15801561209f57600080fd5b505afa1580156120b3573d6000803e3d6000fd5b505050506040513d60208110156120c957600080fd5b50516107256001600160401b038b16818a600263ffffffff61168e16565b6004805460408051600160e21b632dcbbf1f0281526001600160e01b03198c16938101939093525192975061218c92606492611525926001600160a01b03169163b72efc7c91602480820192602092909190829003018186803b15801561214d57600080fd5b505afa158015612161573d6000803e3d6000fd5b505050506040513d602081101561217757600080fd5b5051889060ff16600a0a63ffffffff61168e16565b9450600160eb1b6208aa89026001600160e01b03198816148015906121b757506121b78787866151b5565b15612670576005546004805460408051600160e01b637e2d14d90281526001600160e01b03198c1693810193909352516001600160a01b03938416936306f2bf6293921691637e2d14d9916024808301926020929190829003018186803b15801561222157600080fd5b505afa158015612235573d6000803e3d6000fd5b505050506040513d602081101561224b57600080fd5b50516040805163ffffffff841660e01b81526001600160a01b039092166004830152516024808301926020929190829003018186803b15801561228d57600080fd5b505afa1580156122a1573d6000803e3d6000fd5b505050506040513d60208110156122b757600080fd5b505160408051600160e01b6395b68fe70281526004810188905290519192506001600160a01b038316916395b68fe791602480820192602092909190829003018186803b15801561230757600080fd5b505afa15801561231b573d6000803e3d6000fd5b505050506040513d602081101561233157600080fd5b5051925061235460646115256001600160a01b038416318563ffffffff61168e16565b8311156124075761237a60646115256001600160a01b038416318563ffffffff61168e16565b92506124046103e86115256103e3846001600160a01b031663cd7724c3886040518263ffffffff1660e01b81526004018082815260200191505060206040518083038186803b1580156123cc57600080fd5b505afa1580156123e0573d6000803e3d6000fd5b505050506040513d60208110156123f657600080fd5b50519063ffffffff61168e16565b94505b6004805460408051600160e01b63e3dee2390281526001600160e01b03198b1693810193909352516000926001600160a01b039092169163e3dee239916024808301926020929190829003018186803b15801561246357600080fd5b505afa158015612477573d6000803e3d6000fd5b505050506040513d602081101561248d57600080fd5b505160408051600160e01b63095ea7b30281526001600160a01b038581166004830152602482018a905291519293509083169163095ea7b3916044808201926020929091908290030181600087803b1580156124e857600080fd5b505af11580156124fc573d6000803e3d6000fd5b505050506040513d602081101561251257600080fd5b505060408051600160e01b6395b68fe70281526004810188905290516001600160a01b038416916395e3c50b918991612579916103e891611525916103e39188916395b68fe791602480820192602092909190829003018186803b1580156123cc57600080fd5b6004805460408051600160e01b6339d2ad2902815290516125f99342936001600160a01b0316926339d2ad299281830192602092829003018186803b1580156125c157600080fd5b505afa1580156125d5573d6000803e3d6000fd5b505050506040513d60208110156125eb57600080fd5b50519063ffffffff61162816565b6040518463ffffffff1660e01b8152600401808481526020018381526020018281526020019350505050602060405180830381600087803b15801561263d57600080fd5b505af1158015612651573d6000803e3d6000fd5b505050506040513d602081101561266757600080fd5b5061272a915050565b600160eb1b6208aa89026001600160e01b0319881614801561269857506126988787866151b5565b1561272a5760005460408051600160e31b6227050b028152600160f01b615031026004820152905161272a928a926001600160a01b0390911691630138285891602480820192602092909190829003018186803b1580156126f857600080fd5b505afa15801561270c573d6000803e3d6000fd5b505050506040513d602081101561272257600080fd5b505187614e05565b604080516001600160e01b0319891681526020810187905281517f5b9a4c8e608b5c093e929f19155d286db4301c8af758938fc5b1418915c37ca8929181900390910190a150505050505050565b6004805460408051600160e01b637e2d14d90281526001600160e01b0319861693810193909352516000926001600160a01b0390921691637e2d14d9916024808301926020929190829003018186803b1580156127d457600080fd5b505afa1580156127e8573d6000803e3d6000fd5b505050506040513d60208110156127fe57600080fd5b505160408051600160e01b6370a0823102815230600482015290519192506000916001600160a01b038416916370a08231916024808301926020929190829003018186803b15801561284f57600080fd5b505afa158015612863573d6000803e3d6000fd5b505050506040513d602081101561287957600080fd5b505111156129805760408051600160e01b6370a0823102815230600482015290516001600160a01b0383169163a9059cbb91859184916370a0823191602480820192602092909190829003018186803b1580156128d557600080fd5b505afa1580156128e9573d6000803e3d6000fd5b505050506040513d60208110156128ff57600080fd5b50516040805163ffffffff851660e01b81526001600160a01b03909316600484015260248301919091525160448083019260209291908290030181600087803b15801561294b57600080fd5b505af115801561295f573d6000803e3d6000fd5b505050506040513d602081101561297557600080fd5b505161298057600080fd5b505050565b600061168583836040518060400160405280601a81526020017f536166654d6174683a206469766973696f6e206279207a65726f0000000000008152506153a8565b600061168583836040518060400160405280601e81526020017f536166654d6174683a207375627472616374696f6e206f766572666c6f77000081525061544d565b6000806000806000600460009054906101000a90046001600160a01b03166001600160a01b031663e2507b4a6040518163ffffffff1660e01b815260040160206040518083038186803b158015612a5f57600080fd5b505afa158015612a73573d6000803e3d6000fd5b505050506040513d6020811015612a8957600080fd5b505190506001600160e01b03198881169088161415612b355760035460408051600160e21b6307eb102d0281526001600160e01b03198b1660048201526024810189905290516001600160a01b0390921691631fac40b4916044808201926020929091908290030181600087803b158015612b0357600080fd5b505af1158015612b17573d6000803e3d6000fd5b505050506040513d6020811015612b2d57600080fd5b50613b0c9050565b600160eb1b6208aa89026001600160e01b03198916148015612b6a5750600160eb1b6208aa89026001600160e01b0319881614155b15612e5b576005546004805460408051600160e01b637e2d14d90281526001600160e01b03198c1693810193909352516001600160a01b03938416936306f2bf6293921691637e2d14d9916024808301926020929190829003018186803b158015612bd457600080fd5b505afa158015612be8573d6000803e3d6000fd5b505050506040513d6020811015612bfe57600080fd5b50516040805163ffffffff841660e01b81526001600160a01b039092166004830152516024808301926020929190829003018186803b158015612c4057600080fd5b505afa158015612c54573d6000803e3d6000fd5b505050506040513d6020811015612c6a57600080fd5b50519250612c8d60646115256001600160a01b038616318463ffffffff61168e16565b861115612cba57612cb360646115256001600160a01b038616318463ffffffff61168e16565b9550600194505b60035460408051600160e21b6307eb102d0281526001600160e01b03198b1660048201526024810189905290516001600160a01b0390921691631fac40b4916044808201926020929091908290030181600087803b158015612d1b57600080fd5b505af1158015612d2f573d6000803e3d6000fd5b505050506040513d6020811015612d4557600080fd5b505060408051600160e01b63cd7724c30281526004810188905290516001600160a01b0385169163f39b5b9b918991612dac916103e891611525916103e391889163cd7724c391602480820192602092909190829003018186803b1580156123cc57600080fd5b6004805460408051600160e01b6339d2ad290281529051612df49342936001600160a01b0316926339d2ad299281830192602092829003018186803b1580156125c157600080fd5b6040518463ffffffff1660e01b815260040180838152602001828152602001925050506020604051808303818588803b158015612e3057600080fd5b505af1158015612e44573d6000803e3d6000fd5b50505050506040513d6020811015612b2d57600080fd5b600160eb1b6208aa89026001600160e01b0319891614801590612e905750600160eb1b6208aa89026001600160e01b03198816145b15613390576005546004805460408051600160e01b63e3dee2390281526001600160e01b03198d1693810193909352516001600160a01b03938416936306f2bf629392169163e3dee239916024808301926020929190829003018186803b158015612efa57600080fd5b505afa158015612f0e573d6000803e3d6000fd5b505050506040513d6020811015612f2457600080fd5b50516040805163ffffffff841660e01b81526001600160a01b039092166004830152516024808301926020929190829003018186803b158015612f6657600080fd5b505afa158015612f7a573d6000803e3d6000fd5b505050506040513d6020811015612f9057600080fd5b50516004805460408051600160e01b63e3dee2390281526001600160e01b03198d1693810193909352519295506001600160a01b03169163e3dee23991602480820192602092909190829003018186803b158015612fed57600080fd5b505afa158015613001573d6000803e3d6000fd5b505050506040513d602081101561301757600080fd5b505160408051600160e01b6395b68fe70281526004810189905290519193506001600160a01b038516916395b68fe791602480820192602092909190829003018186803b15801561306757600080fd5b505afa15801561307b573d6000803e3d6000fd5b505050506040513d602081101561309157600080fd5b505193506130b460646115256001600160a01b038616318463ffffffff61168e16565b8411156131cd576130da60646115256001600160a01b038616318463ffffffff61168e16565b9350826001600160a01b031663cd7724c3856040518263ffffffff1660e01b81526004018082815260200191505060206040518083038186803b15801561312057600080fd5b505afa158015613134573d6000803e3d6000fd5b505050506040513d602081101561314a57600080fd5b505160408051600160e01b6395b68fe70281526004810183905290519197506001600160a01b038516916395b68fe791602480820192602092909190829003018186803b15801561319a57600080fd5b505afa1580156131ae573d6000803e3d6000fd5b505050506040513d60208110156131c457600080fd5b50516001955093505b60035460408051600160e21b6307eb102d0281526001600160e01b03198b1660048201526024810189905290516001600160a01b0390921691631fac40b4916044808201926020929091908290030181600087803b15801561322e57600080fd5b505af1158015613242573d6000803e3d6000fd5b505050506040513d602081101561325857600080fd5b505060408051600160e01b63095ea7b30281526001600160a01b0385811660048301526024820189905291519184169163095ea7b3916044808201926020929091908290030181600087803b1580156132b057600080fd5b505af11580156132c4573d6000803e3d6000fd5b505050506040513d60208110156132da57600080fd5b50506001600160a01b0383166395e3c50b876133046103e8611525896103e363ffffffff61168e16565b6004805460408051600160e01b6339d2ad29028152905161334c9342936001600160a01b0316926339d2ad299281830192602092829003018186803b1580156125c157600080fd5b6040518463ffffffff1660e01b8152600401808481526020018381526020018281526020019350505050602060405180830381600087803b158015612b0357600080fd5b6005546004805460408051600160e01b63e3dee2390281526001600160e01b03198d1693810193909352516001600160a01b03938416936306f2bf629392169163e3dee239916024808301926020929190829003018186803b1580156133f557600080fd5b505afa158015613409573d6000803e3d6000fd5b505050506040513d602081101561341f57600080fd5b50516040805163ffffffff841660e01b81526001600160a01b039092166004830152516024808301926020929190829003018186803b15801561346157600080fd5b505afa158015613475573d6000803e3d6000fd5b505050506040513d602081101561348b57600080fd5b505160408051600160e01b6395b68fe70281526004810189905290519194506001600160a01b038516916395b68fe791602480820192602092909190829003018186803b1580156134db57600080fd5b505afa1580156134ef573d6000803e3d6000fd5b505050506040513d602081101561350557600080fd5b5051935061352860646115256001600160a01b038616318463ffffffff61168e16565b8411156135c75761354e60646115256001600160a01b038616318463ffffffff61168e16565b9350826001600160a01b031663cd7724c3856040518263ffffffff1660e01b81526004018082815260200191505060206040518083038186803b15801561359457600080fd5b505afa1580156135a8573d6000803e3d6000fd5b505050506040513d60208110156135be57600080fd5b50519550600194505b6005546004805460408051600160e01b637e2d14d90281526001600160e01b03198c1693810193909352516000936001600160a01b03908116936306f2bf629390911691637e2d14d991602480820192602092909190829003018186803b15801561363157600080fd5b505afa158015613645573d6000803e3d6000fd5b505050506040513d602081101561365b57600080fd5b50516040805163ffffffff841660e01b81526001600160a01b039092166004830152516024808301926020929190829003018186803b15801561369d57600080fd5b505afa1580156136b1573d6000803e3d6000fd5b505050506040513d60208110156136c757600080fd5b505190506136ea60646115256001600160a01b038416318563ffffffff61168e16565b8511156137895761371060646115256001600160a01b038416318563ffffffff61168e16565b9450836001600160a01b031663cd7724c3866040518263ffffffff1660e01b81526004018082815260200191505060206040518083038186803b15801561375657600080fd5b505afa15801561376a573d6000803e3d6000fd5b505050506040513d602081101561378057600080fd5b50519650600195505b60035460408051600160e21b6307eb102d0281526001600160e01b03198c166004820152602481018a905290516001600160a01b0390921691631fac40b4916044808201926020929091908290030181600087803b1580156137ea57600080fd5b505af11580156137fe573d6000803e3d6000fd5b505050506040513d602081101561381457600080fd5b50506004805460408051600160e01b63e3dee2390281526001600160e01b03198d1693810193909352516001600160a01b039091169163e3dee239916024808301926020929190829003018186803b15801561386f57600080fd5b505afa158015613883573d6000803e3d6000fd5b505050506040513d602081101561389957600080fd5b505160408051600160e01b63095ea7b30281526001600160a01b038781166004830152602482018b905291519295509085169163095ea7b3916044808201926020929091908290030181600087803b1580156138f457600080fd5b505af1158015613908573d6000803e3d6000fd5b505050506040513d602081101561391e57600080fd5b505060408051600160e01b63cd7724c30281526004810187905290516001600160a01b038087169263ddf7e1a7928b92613988926103e892611525926103e392908a169163cd7724c391602480820192602092909190829003018186803b1580156123cc57600080fd5b6139a06103e86115258b6103e363ffffffff61168e16565b6004805460408051600160e01b6339d2ad2902815290516139e89342936001600160a01b0316926339d2ad299281830192602092829003018186803b1580156125c157600080fd5b600460009054906101000a90046001600160a01b03166001600160a01b0316637e2d14d98f6040518263ffffffff1660e01b815260040180826001600160e01b0319166001600160e01b031916815260200191505060206040518083038186803b158015613a5557600080fd5b505afa158015613a69573d6000803e3d6000fd5b505050506040513d6020811015613a7f57600080fd5b50516040805163ffffffff881660e01b815260048101969096526024860194909452604485019290925260648401526001600160a01b031660848301525160a48083019260209291908290030181600087803b158015613ade57600080fd5b505af1158015613af2573d6000803e3d6000fd5b505050506040513d6020811015613b0857600080fd5b5050505b505050509392505050565b60008080806001600160e01b03198781169087161415613b915760005460408051600160e31b6227050b028152600160f01b6150310260048201529051613b8c928a926001600160a01b0390911691630138285891602480820192602092909190829003018186803b1580156126f857600080fd5b614dfb565b600160eb1b6208aa89026001600160e01b03198816148015613bc65750600160eb1b6208aa89026001600160e01b0319871614155b156141ee576005546004805460408051600160e01b637e2d14d90281526001600160e01b03198b1693810193909352516001600160a01b03938416936306f2bf6293921691637e2d14d9916024808301926020929190829003018186803b158015613c3057600080fd5b505afa158015613c44573d6000803e3d6000fd5b505050506040513d6020811015613c5a57600080fd5b50516040805163ffffffff841660e01b81526001600160a01b039092166004830152516024808301926020929190829003018186803b158015613c9c57600080fd5b505afa158015613cb0573d6000803e3d6000fd5b505050506040513d6020811015613cc657600080fd5b505160408051600160e01b63cd7724c30281526004810188905290519194506001600160a01b0385169163cd7724c391602480820192602092909190829003018186803b158015613d1657600080fd5b505afa158015613d2a573d6000803e3d6000fd5b505050506040513d6020811015613d4057600080fd5b50516004805460408051600160e11b6371283da50281529051939450613dd593606493611525936001600160a01b03169263e2507b4a9281830192602092829003018186803b158015613d9257600080fd5b505afa158015613da6573d6000803e3d6000fd5b505050506040513d6020811015613dbc57600080fd5b50516001600160a01b038716319063ffffffff61168e16565b851115613eab57613e326064611525600460009054906101000a90046001600160a01b03166001600160a01b031663e2507b4a6040518163ffffffff1660e01b815260040160206040518083038186803b158015613d9257600080fd5b9450826001600160a01b031663cd7724c3866040518263ffffffff1660e01b81526004018082815260200191505060206040518083038186803b158015613e7857600080fd5b505afa158015613e8c573d6000803e3d6000fd5b505050506040513d6020811015613ea257600080fd5b50516001945090505b6004805460408051600160e01b63e3dee2390281526001600160e01b03198a1693810193909352516001600160a01b039091169163e3dee239916024808301926020929190829003018186803b158015613f0457600080fd5b505afa158015613f18573d6000803e3d6000fd5b505050506040513d6020811015613f2e57600080fd5b505160408051600160e01b6370a0823102815230600482015290519193506001600160a01b038416916370a0823191602480820192602092909190829003018186803b158015613f7d57600080fd5b505afa158015613f91573d6000803e3d6000fd5b505050506040513d6020811015613fa757600080fd5b50518111156140285760408051600160e01b6370a0823102815230600482015290516001600160a01b038416916370a08231916024808301926020929190829003018186803b158015613ff957600080fd5b505afa15801561400d573d6000803e3d6000fd5b505050506040513d602081101561402357600080fd5b505190505b816001600160a01b031663095ea7b384836040518363ffffffff1660e01b815260040180836001600160a01b03166001600160a01b0316815260200182815260200192505050602060405180830381600087803b15801561408857600080fd5b505af115801561409c573d6000803e3d6000fd5b505050506040513d60208110156140b257600080fd5b505060408051600160e01b6395b68fe70281526004810183905290516001600160a01b03851691637237e031918491614119916103e891611525916103e39188916395b68fe791602480820192602092909190829003018186803b1580156123cc57600080fd5b6004805460408051600160e01b6339d2ad2902815290516141619342936001600160a01b0316926339d2ad299281830192602092829003018186803b1580156125c157600080fd5b6003546040805163ffffffff871660e01b81526004810195909552602485019390935260448401919091526001600160a01b031660648301525160848083019260209291908290030181600087803b1580156141bc57600080fd5b505af11580156141d0573d6000803e3d6000fd5b505050506040513d60208110156141e657600080fd5b50614dfb9050565b600160eb1b6208aa89026001600160e01b03198816148015906142235750600160eb1b6208aa89026001600160e01b03198716145b1561458d576005546004805460408051600160e01b63e3dee2390281526001600160e01b03198c1693810193909352516001600160a01b03938416936306f2bf629392169163e3dee239916024808301926020929190829003018186803b15801561428d57600080fd5b505afa1580156142a1573d6000803e3d6000fd5b505050506040513d60208110156142b757600080fd5b50516040805163ffffffff841660e01b81526001600160a01b039092166004830152516024808301926020929190829003018186803b1580156142f957600080fd5b505afa15801561430d573d6000803e3d6000fd5b505050506040513d602081101561432357600080fd5b505160408051600160e01b6395b68fe70281526004810188905290519194506001600160a01b038516916395b68fe791602480820192602092909190829003018186803b15801561437357600080fd5b505afa158015614387573d6000803e3d6000fd5b505050506040513d602081101561439d57600080fd5b5051905030318111156143ae575030315b6144046064611525600460009054906101000a90046001600160a01b03166001600160a01b031663e2507b4a6040518163ffffffff1660e01b815260040160206040518083038186803b158015613d9257600080fd5b811115614468576144616064611525600460009054906101000a90046001600160a01b03166001600160a01b031663e2507b4a6040518163ffffffff1660e01b815260040160206040518083038186803b158015613d9257600080fd5b9050600193505b826001600160a01b031663ad65d76d826144c86103e86115256103e3896001600160a01b031663cd7724c3896040518263ffffffff1660e01b81526004018082815260200191505060206040518083038186803b1580156123cc57600080fd5b6004805460408051600160e01b6339d2ad2902815290516145109342936001600160a01b0316926339d2ad299281830192602092829003018186803b1580156125c157600080fd5b6003546040805163ffffffff871660e01b8152600481019490945260248401929092526001600160a01b0316604483015251606480830192602092919082900301818588803b15801561456257600080fd5b505af1158015614576573d6000803e3d6000fd5b50505050506040513d60208110156141e657600080fd5b6004805460408051600160e01b63e3dee2390281526001600160e01b03198b1693810193909352516000926001600160a01b039092169163e3dee239916024808301926020929190829003018186803b1580156145e957600080fd5b505afa1580156145fd573d6000803e3d6000fd5b505050506040513d602081101561461357600080fd5b505160055460408051600160e11b6303795fb10281526001600160a01b03808516600483015291519394509116916306f2bf6291602480820192602092909190829003018186803b15801561466757600080fd5b505afa15801561467b573d6000803e3d6000fd5b505050506040513d602081101561469157600080fd5b505160408051600160e01b6395b68fe70281526004810189905290519195506001600160a01b038616916395b68fe791602480820192602092909190829003018186803b1580156146e157600080fd5b505afa1580156146f5573d6000803e3d6000fd5b505050506040513d602081101561470b57600080fd5b50516004805460408051600160e11b6371283da502815290519395506147a093606493611525936001600160a01b03169263e2507b4a9281830192602092829003018186803b15801561475d57600080fd5b505afa158015614771573d6000803e3d6000fd5b505050506040513d602081101561478757600080fd5b50516001600160a01b038816319063ffffffff61168e16565b821115614804576147fd6064611525600460009054906101000a90046001600160a01b03166001600160a01b031663e2507b4a6040518163ffffffff1660e01b815260040160206040518083038186803b15801561475d57600080fd5b9150600194505b6005546004805460408051600160e01b637e2d14d90281526001600160e01b03198c1693810193909352516000936001600160a01b03908116936306f2bf629390911691637e2d14d991602480820192602092909190829003018186803b15801561486e57600080fd5b505afa158015614882573d6000803e3d6000fd5b505050506040513d602081101561489857600080fd5b50516040805163ffffffff841660e01b81526001600160a01b039092166004830152516024808301926020929190829003018186803b1580156148da57600080fd5b505afa1580156148ee573d6000803e3d6000fd5b505050506040513d602081101561490457600080fd5b50516004805460408051600160e11b6371283da5028152905193945061499993606493611525936001600160a01b03169263e2507b4a9281830192602092829003018186803b15801561495657600080fd5b505afa15801561496a573d6000803e3d6000fd5b505050506040513d602081101561498057600080fd5b50516001600160a01b038516319063ffffffff61168e16565b8311156149fd576149f66064611525600460009054906101000a90046001600160a01b03166001600160a01b031663e2507b4a6040518163ffffffff1660e01b815260040160206040518083038186803b15801561495657600080fd5b9250600195505b6000816001600160a01b031663cd7724c3856040518263ffffffff1660e01b81526004018082815260200191505060206040518083038186803b158015614a4357600080fd5b505afa158015614a57573d6000803e3d6000fd5b505050506040513d6020811015614a6d57600080fd5b50516004805460408051600160e01b637e2d14d90281526001600160e01b03198e1693810193909352519293506001600160a01b031691637e2d14d991602480820192602092909190829003018186803b158015614aca57600080fd5b505afa158015614ade573d6000803e3d6000fd5b505050506040513d6020811015614af457600080fd5b505160408051600160e01b6370a0823102815230600482015290519196506000916001600160a01b038816916370a08231916024808301926020929190829003018186803b158015614b4557600080fd5b505afa158015614b59573d6000803e3d6000fd5b505050506040513d6020811015614b6f57600080fd5b5051905080821115614bf157809150826001600160a01b03166395b68fe7836040518263ffffffff1660e01b81526004018082815260200191505060206040518083038186803b158015614bc257600080fd5b505afa158015614bd6573d6000803e3d6000fd5b505050506040513d6020811015614bec57600080fd5b505194505b866001600160a01b031663cd7724c3866040518263ffffffff1660e01b81526004018082815260200191505060206040518083038186803b158015614c3557600080fd5b505afa158015614c49573d6000803e3d6000fd5b505050506040513d6020811015614c5f57600080fd5b505160408051600160e01b63095ea7b30281526001600160a01b038681166004830152602482018690529151929b509088169163095ea7b3916044808201926020929091908290030181600087803b158015614cba57600080fd5b505af1158015614cce573d6000803e3d6000fd5b505050506040513d6020811015614ce457600080fd5b50506001600160a01b03831663f552d91b83614d0e6103e86115258e6103e363ffffffff61168e16565b88614d6142600460009054906101000a90046001600160a01b03166001600160a01b03166339d2ad296040518163ffffffff1660e01b815260040160206040518083038186803b1580156125c157600080fd5b6003546040805163ffffffff881660e01b815260048101969096526024860194909452604485019290925260648401526001600160a01b039081166084840152881660a48301525160c48083019260209291908290030181600087803b158015614dca57600080fd5b505af1158015614dde573d6000803e3d6000fd5b505050506040513d6020811015614df457600080fd5b5050505050505b5050509392505050565b600160eb1b6208aa89026001600160e01b031984161415614e9b573031811115614e2d575030315b600360009054906101000a90046001600160a01b03166001600160a01b0316630e29df22826040518263ffffffff1660e01b81526004016000604051808303818588803b158015614e7d57600080fd5b505af1158015614e91573d6000803e3d6000fd5b5050505050612980565b6004805460408051600160e01b637e2d14d90281526001600160e01b0319871693810193909352516000926001600160a01b0390921691637e2d14d9916024808301926020929190829003018186803b158015614ef757600080fd5b505afa158015614f0b573d6000803e3d6000fd5b505050506040513d6020811015614f2157600080fd5b505160408051600160e01b6370a0823102815230600482015290519192506001600160a01b038316916370a0823191602480820192602092909190829003018186803b158015614f7057600080fd5b505afa158015614f84573d6000803e3d6000fd5b505050506040513d6020811015614f9a57600080fd5b505182111561501b5760408051600160e01b6370a0823102815230600482015290516001600160a01b038316916370a08231916024808301926020929190829003018186803b158015614fec57600080fd5b505afa158015615000573d6000803e3d6000fd5b505050506040513d602081101561501657600080fd5b505191505b806001600160a01b031663a9059cbb84846040518363ffffffff1660e01b815260040180836001600160a01b03166001600160a01b0316815260200182815260200192505050602060405180830381600087803b15801561507b57600080fd5b505af115801561508f573d6000803e3d6000fd5b505050506040513d60208110156150a557600080fd5b50516150b057600080fd5b50505050565b60008060008060006150c7886154aa565b6004805460408051600160e01b6395dcbd1f0281526001600160e01b03198d169381019390935280519394506001600160a01b03909116926395dcbd1f926024808201939291829003018186803b15801561512157600080fd5b505afa158015615135573d6000803e3d6000fd5b505050506040513d604081101561514b57600080fd5b5080516020909101516001600160401b03908116945090811692508716156151aa57600061519e61518b886001600160401b038b1663ffffffff61168e16565b61152584620f424063ffffffff61168e16565b84810396508390039450505b505050935093915050565b60006001600160401b038316156153a15760006151dd670de0b6b3a7640000611525876154aa565b90506000811180156151ef5750600083115b1561539f576004805460408051600160e01b6395dcbd1f0281526001600160e01b031989169381019390935280516000938493849384936001600160a01b03909216926395dcbd1f9260248083019392829003018186803b15801561525357600080fd5b505afa158015615267573d6000803e3d6000fd5b505050506040513d604081101561527d57600080fd5b5080516020918201516004805460408051600160e21b63230fe3e902815290516001600160401b039485169a509390941697506001600160a01b031693638c3f8fa49380830193919290829003018186803b1580156152db57600080fd5b505afa1580156152ef573d6000803e3d6000fd5b505050506040513d602081101561530557600080fd5b50519050615338615325886001600160401b038b1663ffffffff61168e16565b611525876298968063ffffffff61168e16565b91506153666064611525620186a0610725615359898763ffffffff61162816565b8c9063ffffffff61168e16565b821180615390575061538d6064611525620186a0610725615359888763ffffffff6129c716565b82105b1561539a57600195505b505050505b505b9392505050565b6000818361543757604051600160e51b62461bcd0281526004018080602001828103825283818151815260200191508051906020019080838360005b838110156153fc5781810151838201526020016153e4565b50505050905090810190601f1680156154295780820380516001836020036101000a031916815260200191505b509250505060405180910390fd5b50600083858161544357fe5b0495945050505050565b600081848411156154a257604051600160e51b62461bcd0281526020600482018181528351602484015283519092839260449091019190850190808383600083156153fc5781810151838201526020016153e4565b505050900390565b6000600160eb1b6208aa89026001600160e01b0319831614156154cf57503031611037565b6004805460408051600160e01b637e2d14d90281526001600160e01b0319861693810193909352516000926001600160a01b0390921691637e2d14d9916024808301926020929190829003018186803b15801561552b57600080fd5b505afa15801561553f573d6000803e3d6000fd5b505050506040513d602081101561555557600080fd5b505160408051600160e01b6370a0823102815230600482015290519192506001600160a01b038316916370a0823191602480820192602092909190829003018186803b15801561100757600080fdfe536166654d6174683a206d756c7469706c69636174696f6e206f766572666c6f77a165627a7a7230582007fa91badf112a5c3f11f9a5308f471b632d7f7beed01813cf3ae056b130186b0029",
  "compiler": {
    "name": "solc",
    "version": "0.5.7+commit.6da8b019.Emscripten.clang",
    "optimizer": {
      "enabled": true,
      "runs": 200
    },
    "evmVersion": "petersburg"
  }
}