{
  "fileName": "ProposalCategory.sol",
  "contractName": "ProposalCategory",
  "source": "/* Copyright (C) 2017 GovBlocks.io\n  This program is free software: you can redistribute it and/or modify\n    it under the terms of the GNU General Public License as published by\n    the Free Software Foundation, either version 3 of the License, or\n    (at your option) any later version.\n  This program is distributed in the hope that it will be useful,\n    but WITHOUT ANY WARRANTY; without even the implied warranty of\n    MERCHANTABILITY or FITNESS FOR A PARTICULAR PURPOSE.  See the\n    GNU General Public License for more details.\n  You should have received a copy of the GNU General Public License\n    along with this program.  If not, see http://www.gnu.org/licenses/ */\npragma solidity ^0.5.0;\n\nimport \"../../abstract/Iupgradable.sol\";\nimport \"./MemberRoles.sol\";\nimport \"./external/Governed.sol\";\nimport \"./external/IProposalCategory.sol\";\n\ncontract ProposalCategory is Governed, IProposalCategory, Iupgradable {\n\n  bool public constructorCheck;\n  MemberRoles internal mr;\n\n  struct CategoryStruct {\n    uint memberRoleToVote;\n    uint majorityVotePerc;\n    uint quorumPerc;\n    uint[] allowedToCreateProposal;\n    uint closingTime;\n    uint minStake;\n  }\n\n  struct CategoryAction {\n    uint defaultIncentive;\n    address contractAddress;\n    bytes2 contractName;\n  }\n\n  CategoryStruct[] internal allCategory;\n  mapping(uint => CategoryAction) internal categoryActionData;\n  mapping(uint => uint) public categoryABReq;\n  mapping(uint => uint) public isSpecialResolution;\n  mapping(uint => bytes) public categoryActionHashes;\n\n  bool public categoryActionHashUpdated;\n\n  /**\n  * @dev Adds new category (Discontinued, moved functionality to newCategory)\n  * @param _name Category name\n  * @param _memberRoleToVote Voting Layer sequence in which the voting has to be performed.\n  * @param _majorityVotePerc Majority Vote threshold for Each voting layer\n  * @param _quorumPerc minimum threshold percentage required in voting to calculate result\n  * @param _allowedToCreateProposal Member roles allowed to create the proposal\n  * @param _closingTime Vote closing time for Each voting layer\n  * @param _actionHash hash of details containing the action that has to be performed after proposal is accepted\n  * @param _contractAddress address of contract to call after proposal is accepted\n  * @param _contractName name of contract to be called after proposal is accepted\n  * @param _incentives rewards to distributed after proposal is accepted\n  */\n  function addCategory(\n    string calldata _name,\n    uint _memberRoleToVote,\n    uint _majorityVotePerc,\n    uint _quorumPerc,\n    uint[] calldata _allowedToCreateProposal,\n    uint _closingTime,\n    string calldata _actionHash,\n    address _contractAddress,\n    bytes2 _contractName,\n    uint[] calldata _incentives\n  ) external {}\n\n  /**\n  * @dev Initiates Default settings for Proposal Category contract (Adding default categories)\n  */\n  function proposalCategoryInitiate() external {}\n\n  /**\n  * @dev Initiates Default action function hashes for existing categories\n  * To be called after the contract has been upgraded by governance\n  */\n  function updateCategoryActionHashes() external onlyOwner {\n\n    require(!categoryActionHashUpdated, \"Category action hashes already updated\");\n    categoryActionHashUpdated = true;\n    categoryActionHashes[1] = abi.encodeWithSignature(\"addRole(bytes32,string,address)\");\n    categoryActionHashes[2] = abi.encodeWithSignature(\"updateRole(address,uint256,bool)\");\n    categoryActionHashes[3] = abi.encodeWithSignature(\"newCategory(string,uint256,uint256,uint256,uint256[],uint256,string,address,bytes2,uint256[],string)\"); // solhint-disable-line\n    categoryActionHashes[4] = abi.encodeWithSignature(\"editCategory(uint256,string,uint256,uint256,uint256,uint256[],uint256,string,address,bytes2,uint256[],string)\"); // solhint-disable-line\n    categoryActionHashes[5] = abi.encodeWithSignature(\"upgradeContractImplementation(bytes2,address)\");\n    categoryActionHashes[6] = abi.encodeWithSignature(\"startEmergencyPause()\");\n    categoryActionHashes[7] = abi.encodeWithSignature(\"addEmergencyPause(bool,bytes4)\");\n    categoryActionHashes[8] = abi.encodeWithSignature(\"burnCAToken(uint256,uint256,address)\");\n    categoryActionHashes[9] = abi.encodeWithSignature(\"setUserClaimVotePausedOn(address)\");\n    categoryActionHashes[12] = abi.encodeWithSignature(\"transferEther(uint256,address)\");\n    categoryActionHashes[13] = abi.encodeWithSignature(\"addInvestmentAssetCurrency(bytes4,address,bool,uint64,uint64,uint8)\"); // solhint-disable-line\n    categoryActionHashes[14] = abi.encodeWithSignature(\"changeInvestmentAssetHoldingPerc(bytes4,uint64,uint64)\");\n    categoryActionHashes[15] = abi.encodeWithSignature(\"changeInvestmentAssetStatus(bytes4,bool)\");\n    categoryActionHashes[16] = abi.encodeWithSignature(\"swapABMember(address,address)\");\n    categoryActionHashes[17] = abi.encodeWithSignature(\"addCurrencyAssetCurrency(bytes4,address,uint256)\");\n    categoryActionHashes[20] = abi.encodeWithSignature(\"updateUintParameters(bytes8,uint256)\");\n    categoryActionHashes[21] = abi.encodeWithSignature(\"updateUintParameters(bytes8,uint256)\");\n    categoryActionHashes[22] = abi.encodeWithSignature(\"updateUintParameters(bytes8,uint256)\");\n    categoryActionHashes[23] = abi.encodeWithSignature(\"updateUintParameters(bytes8,uint256)\");\n    categoryActionHashes[24] = abi.encodeWithSignature(\"updateUintParameters(bytes8,uint256)\");\n    categoryActionHashes[25] = abi.encodeWithSignature(\"updateUintParameters(bytes8,uint256)\");\n    categoryActionHashes[26] = abi.encodeWithSignature(\"updateUintParameters(bytes8,uint256)\");\n    categoryActionHashes[27] = abi.encodeWithSignature(\"updateAddressParameters(bytes8,address)\");\n    categoryActionHashes[28] = abi.encodeWithSignature(\"updateOwnerParameters(bytes8,address)\");\n    categoryActionHashes[29] = abi.encodeWithSignature(\"upgradeContract(bytes2,address)\");\n    categoryActionHashes[30] = abi.encodeWithSignature(\"changeCurrencyAssetAddress(bytes4,address)\");\n    categoryActionHashes[31] = abi.encodeWithSignature(\"changeCurrencyAssetBaseMin(bytes4,uint256)\");\n    categoryActionHashes[32] = abi.encodeWithSignature(\"changeInvestmentAssetAddressAndDecimal(bytes4,address,uint8)\"); // solhint-disable-line\n    categoryActionHashes[33] = abi.encodeWithSignature(\"externalLiquidityTrade()\");\n  }\n\n  /**\n  * @dev Gets Total number of categories added till now\n  */\n  function totalCategories() external view returns (uint) {\n    return allCategory.length;\n  }\n\n  /**\n  * @dev Gets category details\n  */\n  function category(uint _categoryId) external view returns (uint, uint, uint, uint, uint[] memory, uint, uint) {\n    return (\n    _categoryId,\n    allCategory[_categoryId].memberRoleToVote,\n    allCategory[_categoryId].majorityVotePerc,\n    allCategory[_categoryId].quorumPerc,\n    allCategory[_categoryId].allowedToCreateProposal,\n    allCategory[_categoryId].closingTime,\n    allCategory[_categoryId].minStake\n    );\n  }\n\n  /**\n  * @dev Gets category ab required and isSpecialResolution\n  * @return the category id\n  * @return if AB voting is required\n  * @return is category a special resolution\n  */\n  function categoryExtendedData(uint _categoryId) external view returns (uint, uint, uint) {\n    return (\n    _categoryId,\n    categoryABReq[_categoryId],\n    isSpecialResolution[_categoryId]\n    );\n  }\n\n  /**\n   * @dev Gets the category acion details\n   * @param _categoryId is the category id in concern\n   * @return the category id\n   * @return the contract address\n   * @return the contract name\n   * @return the default incentive\n   */\n  function categoryAction(uint _categoryId) external view returns (uint, address, bytes2, uint) {\n\n    return (\n    _categoryId,\n    categoryActionData[_categoryId].contractAddress,\n    categoryActionData[_categoryId].contractName,\n    categoryActionData[_categoryId].defaultIncentive\n    );\n  }\n\n  /**\n   * @dev Gets the category acion details of a category id\n   * @param _categoryId is the category id in concern\n   * @return the category id\n   * @return the contract address\n   * @return the contract name\n   * @return the default incentive\n   * @return action function hash\n   */\n  function categoryActionDetails(uint _categoryId) external view returns (uint, address, bytes2, uint, bytes memory) {\n    return (\n    _categoryId,\n    categoryActionData[_categoryId].contractAddress,\n    categoryActionData[_categoryId].contractName,\n    categoryActionData[_categoryId].defaultIncentive,\n    categoryActionHashes[_categoryId]\n    );\n  }\n\n  /**\n  * @dev Updates dependant contract addresses\n  */\n  function changeDependentContractAddress() public {\n    mr = MemberRoles(ms.getLatestAddress(\"MR\"));\n  }\n\n  /**\n  * @dev Adds new category\n  * @param _name Category name\n  * @param _memberRoleToVote Voting Layer sequence in which the voting has to be performed.\n  * @param _majorityVotePerc Majority Vote threshold for Each voting layer\n  * @param _quorumPerc minimum threshold percentage required in voting to calculate result\n  * @param _allowedToCreateProposal Member roles allowed to create the proposal\n  * @param _closingTime Vote closing time for Each voting layer\n  * @param _actionHash hash of details containing the action that has to be performed after proposal is accepted\n  * @param _contractAddress address of contract to call after proposal is accepted\n  * @param _contractName name of contract to be called after proposal is accepted\n  * @param _incentives rewards to distributed after proposal is accepted\n  * @param _functionHash function signature to be executed\n  */\n  function newCategory(\n    string memory _name,\n    uint _memberRoleToVote,\n    uint _majorityVotePerc,\n    uint _quorumPerc,\n    uint[] memory _allowedToCreateProposal,\n    uint _closingTime,\n    string memory _actionHash,\n    address _contractAddress,\n    bytes2 _contractName,\n    uint[] memory _incentives,\n    string memory _functionHash\n  )\n  public\n  onlyAuthorizedToGovern\n  {\n\n    require(_quorumPerc <= 100 && _majorityVotePerc <= 100, \"Invalid percentage\");\n\n    require((_contractName == \"EX\" && _contractAddress == address(0)) || bytes(_functionHash).length > 0);\n\n    require(_incentives[3] <= 1, \"Invalid special resolution flag\");\n\n    //If category is special resolution role authorized should be member\n    if (_incentives[3] == 1) {\n      require(_memberRoleToVote == uint(MemberRoles.Role.Member));\n      _majorityVotePerc = 0;\n      _quorumPerc = 0;\n    }\n\n    _addCategory(\n      _name,\n      _memberRoleToVote,\n      _majorityVotePerc,\n      _quorumPerc,\n      _allowedToCreateProposal,\n      _closingTime,\n      _actionHash,\n      _contractAddress,\n      _contractName,\n      _incentives\n    );\n\n\n    if (bytes(_functionHash).length > 0 && abi.encodeWithSignature(_functionHash).length == 4) {\n      categoryActionHashes[allCategory.length - 1] = abi.encodeWithSignature(_functionHash);\n    }\n  }\n\n  /**\n   * @dev Changes the master address and update it's instance\n   * @param _masterAddress is the new master address\n   */\n  function changeMasterAddress(address _masterAddress) public {\n    if (masterAddress != address(0))\n      require(masterAddress == msg.sender);\n    masterAddress = _masterAddress;\n    ms = INXMMaster(_masterAddress);\n    nxMasterAddress = _masterAddress;\n\n  }\n\n  /**\n  * @dev Updates category details (Discontinued, moved functionality to editCategory)\n  * @param _categoryId Category id that needs to be updated\n  * @param _name Category name\n  * @param _memberRoleToVote Voting Layer sequence in which the voting has to be performed.\n  * @param _allowedToCreateProposal Member roles allowed to create the proposal\n  * @param _majorityVotePerc Majority Vote threshold for Each voting layer\n  * @param _quorumPerc minimum threshold percentage required in voting to calculate result\n  * @param _closingTime Vote closing time for Each voting layer\n  * @param _actionHash hash of details containing the action that has to be performed after proposal is accepted\n  * @param _contractAddress address of contract to call after proposal is accepted\n  * @param _contractName name of contract to be called after proposal is accepted\n  * @param _incentives rewards to distributed after proposal is accepted\n  */\n  function updateCategory(\n    uint _categoryId,\n    string memory _name,\n    uint _memberRoleToVote,\n    uint _majorityVotePerc,\n    uint _quorumPerc,\n    uint[] memory _allowedToCreateProposal,\n    uint _closingTime,\n    string memory _actionHash,\n    address _contractAddress,\n    bytes2 _contractName,\n    uint[] memory _incentives\n  ) public {}\n\n  /**\n  * @dev Updates category details\n  * @param _categoryId Category id that needs to be updated\n  * @param _name Category name\n  * @param _memberRoleToVote Voting Layer sequence in which the voting has to be performed.\n  * @param _allowedToCreateProposal Member roles allowed to create the proposal\n  * @param _majorityVotePerc Majority Vote threshold for Each voting layer\n  * @param _quorumPerc minimum threshold percentage required in voting to calculate result\n  * @param _closingTime Vote closing time for Each voting layer\n  * @param _actionHash hash of details containing the action that has to be performed after proposal is accepted\n  * @param _contractAddress address of contract to call after proposal is accepted\n  * @param _contractName name of contract to be called after proposal is accepted\n  * @param _incentives rewards to distributed after proposal is accepted\n  * @param _functionHash function signature to be executed\n  */\n  function editCategory(\n    uint _categoryId,\n    string memory _name,\n    uint _memberRoleToVote,\n    uint _majorityVotePerc,\n    uint _quorumPerc,\n    uint[] memory _allowedToCreateProposal,\n    uint _closingTime,\n    string memory _actionHash,\n    address _contractAddress,\n    bytes2 _contractName,\n    uint[] memory _incentives,\n    string memory _functionHash\n  )\n  public\n  onlyAuthorizedToGovern\n  {\n    require(_verifyMemberRoles(_memberRoleToVote, _allowedToCreateProposal) == 1, \"Invalid Role\");\n\n    require(_quorumPerc <= 100 && _majorityVotePerc <= 100, \"Invalid percentage\");\n\n    require((_contractName == \"EX\" && _contractAddress == address(0)) || bytes(_functionHash).length > 0);\n\n    require(_incentives[3] <= 1, \"Invalid special resolution flag\");\n\n    //If category is special resolution role authorized should be member\n    if (_incentives[3] == 1) {\n      require(_memberRoleToVote == uint(MemberRoles.Role.Member));\n      _majorityVotePerc = 0;\n      _quorumPerc = 0;\n    }\n\n    delete categoryActionHashes[_categoryId];\n    if (bytes(_functionHash).length > 0 && abi.encodeWithSignature(_functionHash).length == 4) {\n      categoryActionHashes[_categoryId] = abi.encodeWithSignature(_functionHash);\n    }\n    allCategory[_categoryId].memberRoleToVote = _memberRoleToVote;\n    allCategory[_categoryId].majorityVotePerc = _majorityVotePerc;\n    allCategory[_categoryId].closingTime = _closingTime;\n    allCategory[_categoryId].allowedToCreateProposal = _allowedToCreateProposal;\n    allCategory[_categoryId].minStake = _incentives[0];\n    allCategory[_categoryId].quorumPerc = _quorumPerc;\n    categoryActionData[_categoryId].defaultIncentive = _incentives[1];\n    categoryActionData[_categoryId].contractName = _contractName;\n    categoryActionData[_categoryId].contractAddress = _contractAddress;\n    categoryABReq[_categoryId] = _incentives[2];\n    isSpecialResolution[_categoryId] = _incentives[3];\n    emit Category(_categoryId, _name, _actionHash);\n  }\n\n  /**\n  * @dev Internal call to add new category\n  * @param _name Category name\n  * @param _memberRoleToVote Voting Layer sequence in which the voting has to be performed.\n  * @param _majorityVotePerc Majority Vote threshold for Each voting layer\n  * @param _quorumPerc minimum threshold percentage required in voting to calculate result\n  * @param _allowedToCreateProposal Member roles allowed to create the proposal\n  * @param _closingTime Vote closing time for Each voting layer\n  * @param _actionHash hash of details containing the action that has to be performed after proposal is accepted\n  * @param _contractAddress address of contract to call after proposal is accepted\n  * @param _contractName name of contract to be called after proposal is accepted\n  * @param _incentives rewards to distributed after proposal is accepted\n  */\n  function _addCategory(\n    string memory _name,\n    uint _memberRoleToVote,\n    uint _majorityVotePerc,\n    uint _quorumPerc,\n    uint[] memory _allowedToCreateProposal,\n    uint _closingTime,\n    string memory _actionHash,\n    address _contractAddress,\n    bytes2 _contractName,\n    uint[] memory _incentives\n  )\n  internal\n  {\n    require(_verifyMemberRoles(_memberRoleToVote, _allowedToCreateProposal) == 1, \"Invalid Role\");\n    allCategory.push(\n      CategoryStruct(\n        _memberRoleToVote,\n        _majorityVotePerc,\n        _quorumPerc,\n        _allowedToCreateProposal,\n        _closingTime,\n        _incentives[0]\n      )\n    );\n    uint categoryId = allCategory.length - 1;\n    categoryActionData[categoryId] = CategoryAction(_incentives[1], _contractAddress, _contractName);\n    categoryABReq[categoryId] = _incentives[2];\n    isSpecialResolution[categoryId] = _incentives[3];\n    emit Category(categoryId, _name, _actionHash);\n  }\n\n  /**\n  * @dev Internal call to check if given roles are valid or not\n  */\n  function _verifyMemberRoles(uint _memberRoleToVote, uint[] memory _allowedToCreateProposal)\n  internal view returns (uint) {\n    uint totalRoles = mr.totalRoles();\n    if (_memberRoleToVote >= totalRoles) {\n      return 0;\n    }\n    for (uint i = 0; i < _allowedToCreateProposal.length; i++) {\n      if (_allowedToCreateProposal[i] >= totalRoles) {\n        return 0;\n      }\n    }\n    return 1;\n  }\n\n}\n",
  "sourcePath": "contracts/modules/governance/ProposalCategory.sol",
  "abi": [
    {
      "constant": true,
      "inputs": [
        {
          "name": "_categoryId",
          "type": "uint256"
        }
      ],
      "name": "categoryExtendedData",
      "outputs": [
        {
          "name": "",
          "type": "uint256"
        },
        {
          "name": "",
          "type": "uint256"
        },
        {
          "name": "",
          "type": "uint256"
        }
      ],
      "payable": false,
      "stateMutability": "view",
      "type": "function"
    },
    {
      "constant": false,
      "inputs": [],
      "name": "changeDependentContractAddress",
      "outputs": [],
      "payable": false,
      "stateMutability": "nonpayable",
      "type": "function"
    },
    {
      "constant": true,
      "inputs": [
        {
          "name": "_toCheck",
          "type": "address"
        }
      ],
      "name": "isAuthorizedToGovern",
      "outputs": [
        {
          "name": "",
          "type": "bool"
        }
      ],
      "payable": false,
      "stateMutability": "view",
      "type": "function"
    },
    {
      "constant": true,
      "inputs": [
        {
          "name": "_categoryId",
          "type": "uint256"
        }
      ],
      "name": "category",
      "outputs": [
        {
          "name": "",
          "type": "uint256"
        },
        {
          "name": "",
          "type": "uint256"
        },
        {
          "name": "",
          "type": "uint256"
        },
        {
          "name": "",
          "type": "uint256"
        },
        {
          "name": "",
          "type": "uint256[]"
        },
        {
          "name": "",
          "type": "uint256"
        },
        {
          "name": "",
          "type": "uint256"
        }
      ],
      "payable": false,
      "stateMutability": "view",
      "type": "function"
    },
    {
      "constant": true,
      "inputs": [],
      "name": "totalCategories",
      "outputs": [
        {
          "name": "",
          "type": "uint256"
        }
      ],
      "payable": false,
      "stateMutability": "view",
      "type": "function"
    },
    {
      "constant": true,
      "inputs": [],
      "name": "constructorCheck",
      "outputs": [
        {
          "name": "",
          "type": "bool"
        }
      ],
      "payable": false,
      "stateMutability": "view",
      "type": "function"
    },
    {
      "constant": true,
      "inputs": [],
      "name": "categoryActionHashUpdated",
      "outputs": [
        {
          "name": "",
          "type": "bool"
        }
      ],
      "payable": false,
      "stateMutability": "view",
      "type": "function"
    },
    {
      "constant": true,
      "inputs": [
        {
          "name": "",
          "type": "uint256"
        }
      ],
      "name": "categoryActionHashes",
      "outputs": [
        {
          "name": "",
          "type": "bytes"
        }
      ],
      "payable": false,
      "stateMutability": "view",
      "type": "function"
    },
    {
      "constant": true,
      "inputs": [
        {
          "name": "_categoryId",
          "type": "uint256"
        }
      ],
      "name": "categoryAction",
      "outputs": [
        {
          "name": "",
          "type": "uint256"
        },
        {
          "name": "",
          "type": "address"
        },
        {
          "name": "",
          "type": "bytes2"
        },
        {
          "name": "",
          "type": "uint256"
        }
      ],
      "payable": false,
      "stateMutability": "view",
      "type": "function"
    },
    {
      "constant": false,
      "inputs": [],
      "name": "updateCategoryActionHashes",
      "outputs": [],
      "payable": false,
      "stateMutability": "nonpayable",
      "type": "function"
    },
    {
      "constant": true,
      "inputs": [
        {
          "name": "",
          "type": "uint256"
        }
      ],
      "name": "categoryABReq",
      "outputs": [
        {
          "name": "",
          "type": "uint256"
        }
      ],
      "payable": false,
      "stateMutability": "view",
      "type": "function"
    },
    {
      "constant": true,
      "inputs": [
        {
          "name": "",
          "type": "uint256"
        }
      ],
      "name": "isSpecialResolution",
      "outputs": [
        {
          "name": "",
          "type": "uint256"
        }
      ],
      "payable": false,
      "stateMutability": "view",
      "type": "function"
    },
    {
      "constant": false,
      "inputs": [
        {
          "name": "_categoryId",
          "type": "uint256"
        },
        {
          "name": "_name",
          "type": "string"
        },
        {
          "name": "_memberRoleToVote",
          "type": "uint256"
        },
        {
          "name": "_majorityVotePerc",
          "type": "uint256"
        },
        {
          "name": "_quorumPerc",
          "type": "uint256"
        },
        {
          "name": "_allowedToCreateProposal",
          "type": "uint256[]"
        },
        {
          "name": "_closingTime",
          "type": "uint256"
        },
        {
          "name": "_actionHash",
          "type": "string"
        },
        {
          "name": "_contractAddress",
          "type": "address"
        },
        {
          "name": "_contractName",
          "type": "bytes2"
        },
        {
          "name": "_incentives",
          "type": "uint256[]"
        }
      ],
      "name": "updateCategory",
      "outputs": [],
      "payable": false,
      "stateMutability": "nonpayable",
      "type": "function"
    },
    {
      "constant": true,
      "inputs": [],
      "name": "ms",
      "outputs": [
        {
          "name": "",
          "type": "address"
        }
      ],
      "payable": false,
      "stateMutability": "view",
      "type": "function"
    },
    {
      "constant": false,
      "inputs": [
        {
          "name": "_name",
          "type": "string"
        },
        {
          "name": "_memberRoleToVote",
          "type": "uint256"
        },
        {
          "name": "_majorityVotePerc",
          "type": "uint256"
        },
        {
          "name": "_quorumPerc",
          "type": "uint256"
        },
        {
          "name": "_allowedToCreateProposal",
          "type": "uint256[]"
        },
        {
          "name": "_closingTime",
          "type": "uint256"
        },
        {
          "name": "_actionHash",
          "type": "string"
        },
        {
          "name": "_contractAddress",
          "type": "address"
        },
        {
          "name": "_contractName",
          "type": "bytes2"
        },
        {
          "name": "_incentives",
          "type": "uint256[]"
        },
        {
          "name": "_functionHash",
          "type": "string"
        }
      ],
      "name": "newCategory",
      "outputs": [],
      "payable": false,
      "stateMutability": "nonpayable",
      "type": "function"
    },
    {
      "constant": false,
      "inputs": [
        {
          "name": "_categoryId",
          "type": "uint256"
        },
        {
          "name": "_name",
          "type": "string"
        },
        {
          "name": "_memberRoleToVote",
          "type": "uint256"
        },
        {
          "name": "_majorityVotePerc",
          "type": "uint256"
        },
        {
          "name": "_quorumPerc",
          "type": "uint256"
        },
        {
          "name": "_allowedToCreateProposal",
          "type": "uint256[]"
        },
        {
          "name": "_closingTime",
          "type": "uint256"
        },
        {
          "name": "_actionHash",
          "type": "string"
        },
        {
          "name": "_contractAddress",
          "type": "address"
        },
        {
          "name": "_contractName",
          "type": "bytes2"
        },
        {
          "name": "_incentives",
          "type": "uint256[]"
        },
        {
          "name": "_functionHash",
          "type": "string"
        }
      ],
      "name": "editCategory",
      "outputs": [],
      "payable": false,
      "stateMutability": "nonpayable",
      "type": "function"
    },
    {
      "constant": false,
      "inputs": [],
      "name": "proposalCategoryInitiate",
      "outputs": [],
      "payable": false,
      "stateMutability": "nonpayable",
      "type": "function"
    },
    {
      "constant": true,
      "inputs": [],
      "name": "masterAddress",
      "outputs": [
        {
          "name": "",
          "type": "address"
        }
      ],
      "payable": false,
      "stateMutability": "view",
      "type": "function"
    },
    {
      "constant": false,
      "inputs": [
        {
          "name": "_masterAddress",
          "type": "address"
        }
      ],
      "name": "changeMasterAddress",
      "outputs": [],
      "payable": false,
      "stateMutability": "nonpayable",
      "type": "function"
    },
    {
      "constant": true,
      "inputs": [
        {
          "name": "_categoryId",
          "type": "uint256"
        }
      ],
      "name": "categoryActionDetails",
      "outputs": [
        {
          "name": "",
          "type": "uint256"
        },
        {
          "name": "",
          "type": "address"
        },
        {
          "name": "",
          "type": "bytes2"
        },
        {
          "name": "",
          "type": "uint256"
        },
        {
          "name": "",
          "type": "bytes"
        }
      ],
      "payable": false,
      "stateMutability": "view",
      "type": "function"
    },
    {
      "constant": false,
      "inputs": [
        {
          "name": "_name",
          "type": "string"
        },
        {
          "name": "_memberRoleToVote",
          "type": "uint256"
        },
        {
          "name": "_majorityVotePerc",
          "type": "uint256"
        },
        {
          "name": "_quorumPerc",
          "type": "uint256"
        },
        {
          "name": "_allowedToCreateProposal",
          "type": "uint256[]"
        },
        {
          "name": "_closingTime",
          "type": "uint256"
        },
        {
          "name": "_actionHash",
          "type": "string"
        },
        {
          "name": "_contractAddress",
          "type": "address"
        },
        {
          "name": "_contractName",
          "type": "bytes2"
        },
        {
          "name": "_incentives",
          "type": "uint256[]"
        }
      ],
      "name": "addCategory",
      "outputs": [],
      "payable": false,
      "stateMutability": "nonpayable",
      "type": "function"
    },
    {
      "constant": true,
      "inputs": [],
      "name": "nxMasterAddress",
      "outputs": [
        {
          "name": "",
          "type": "address"
        }
      ],
      "payable": false,
      "stateMutability": "view",
      "type": "function"
    },
    {
      "anonymous": false,
      "inputs": [
        {
          "indexed": true,
          "name": "categoryId",
          "type": "uint256"
        },
        {
          "indexed": false,
          "name": "categoryName",
          "type": "string"
        },
        {
          "indexed": false,
          "name": "actionHash",
          "type": "string"
        }
      ],
      "name": "Category",
      "type": "event"
    }
  ],
  "bytecode": "0x608060405234801561001057600080fd5b50612fb4806100206000396000f3fe608060405234801561001057600080fd5b50600436106101425760003560e01c806386957731116100b8578063cf3acfbc1161007c578063cf3acfbc14610c24578063d365a08e14610c2c578063d46655f414610c34578063d4aaafb414610c5a578063da3f7bd114610d31578063f17a3bec14610ec557610142565b8063869577311461039657806395566ebd146103b3578063a0b2d57f14610621578063aef8123614610645578063b02bc3161461093157610142565b8063525050e11161010a578063525050e11461027b57806354911e121461028357806357c7bec11461028b578063674aa7121461031d5780636debdabf14610371578063780052971461037957610142565b806307149ba3146101475780630ea9c9841461018257806322ce72541461018c578063253eca1f146101c657806339275b0a14610261575b600080fd5b6101646004803603602081101561015d57600080fd5b5035610ecd565b60408051938452602084019290925282820152519081900360600190f35b61018a610eef565b005b6101b2600480360360208110156101a257600080fd5b50356001600160a01b0316610f91565b604080519115158252519081900360200190f35b6101e3600480360360208110156101dc57600080fd5b5035611029565b6040518088815260200187815260200186815260200185815260200180602001848152602001838152602001828103825285818151815260200191508051906020019060200280838360005b8381101561024757818101518382015260200161022f565b505050509050019850505050505050505060405180910390f35b610269611159565b60408051918252519081900360200190f35b6101b2611160565b6101b2611170565b6102a8600480360360208110156102a157600080fd5b5035611179565b6040805160208082528351818301528351919283929083019185019080838360005b838110156102e25781810151838201526020016102ca565b50505050905090810190601f16801561030f5780820380516001836020036101000a031916815260200191505b509250505060405180910390f35b61033a6004803603602081101561033357600080fd5b5035611214565b604080519485526001600160a01b0390931660208501526001600160f01b0319909116838301526060830152519081900360800190f35b61018a611245565b6102696004803603602081101561038f57600080fd5b5035611ea5565b610269600480360360208110156103ac57600080fd5b5035611eb7565b61018a60048036036101608110156103ca57600080fd5b81359190810190604081016020820135600160201b8111156103eb57600080fd5b8201836020820111156103fd57600080fd5b803590602001918460018302840111600160201b8311171561041e57600080fd5b91908080601f0160208091040260200160405190810160405280939291908181526020018383808284376000920191909152509295843595602086013595604081013595509193509150608081019060600135600160201b81111561048257600080fd5b82018360208201111561049457600080fd5b803590602001918460208302840111600160201b831117156104b557600080fd5b91908080602002602001604051908101604052809392919081815260200183836020028082843760009201919091525092958435959094909350604081019250602001359050600160201b81111561050c57600080fd5b82018360208201111561051e57600080fd5b803590602001918460018302840111600160201b8311171561053f57600080fd5b91908080601f01602080910402602001604051908101604052809392919081815260200183838082843760009201919091525092956001600160a01b03853516956001600160f01b031960208701351695919450925060608101915060400135600160201b8111156105b057600080fd5b8201836020820111156105c257600080fd5b803590602001918460208302840111600160201b831117156105e357600080fd5b919080806020026020016040519081016040528093929190818152602001838360200280828437600092019190915250929550611ec9945050505050565b610629611ed6565b604080516001600160a01b039092168252519081900360200190f35b61018a600480360361016081101561065c57600080fd5b810190602081018135600160201b81111561067657600080fd5b82018360208201111561068857600080fd5b803590602001918460018302840111600160201b831117156106a957600080fd5b91908080601f0160208091040260200160405190810160405280939291908181526020018383808284376000920191909152509295843595602086013595604081013595509193509150608081019060600135600160201b81111561070d57600080fd5b82018360208201111561071f57600080fd5b803590602001918460208302840111600160201b8311171561074057600080fd5b91908080602002602001604051908101604052809392919081815260200183836020028082843760009201919091525092958435959094909350604081019250602001359050600160201b81111561079757600080fd5b8201836020820111156107a957600080fd5b803590602001918460018302840111600160201b831117156107ca57600080fd5b91908080601f01602080910402602001604051908101604052809392919081815260200183838082843760009201919091525092956001600160a01b03853516956001600160f01b031960208701351695919450925060608101915060400135600160201b81111561083b57600080fd5b82018360208201111561084d57600080fd5b803590602001918460208302840111600160201b8311171561086e57600080fd5b9190808060200260200160405190810160405280939291908181526020018383602002808284376000920191909152509295949360208101935035915050600160201b8111156108bd57600080fd5b8201836020820111156108cf57600080fd5b803590602001918460018302840111600160201b831117156108f057600080fd5b91908080601f016020809104026020016040519081016040528093929190818152602001838380828437600092019190915250929550611ee5945050505050565b61018a600480360361018081101561094857600080fd5b81359190810190604081016020820135600160201b81111561096957600080fd5b82018360208201111561097b57600080fd5b803590602001918460018302840111600160201b8311171561099c57600080fd5b91908080601f0160208091040260200160405190810160405280939291908181526020018383808284376000920191909152509295843595602086013595604081013595509193509150608081019060600135600160201b811115610a0057600080fd5b820183602082011115610a1257600080fd5b803590602001918460208302840111600160201b83111715610a3357600080fd5b91908080602002602001604051908101604052809392919081815260200183836020028082843760009201919091525092958435959094909350604081019250602001359050600160201b811115610a8a57600080fd5b820183602082011115610a9c57600080fd5b803590602001918460018302840111600160201b83111715610abd57600080fd5b91908080601f01602080910402602001604051908101604052809392919081815260200183838082843760009201919091525092956001600160a01b03853516956001600160f01b031960208701351695919450925060608101915060400135600160201b811115610b2e57600080fd5b820183602082011115610b4057600080fd5b803590602001918460208302840111600160201b83111715610b6157600080fd5b9190808060200260200160405190810160405280939291908181526020018383602002808284376000920191909152509295949360208101935035915050600160201b811115610bb057600080fd5b820183602082011115610bc257600080fd5b803590602001918460018302840111600160201b83111715610be357600080fd5b91908080601f01602080910402602001604051908101604052809392919081815260200183838082843760009201919091525092955061226c945050505050565b61018a612902565b610629612904565b61018a60048036036020811015610c4a57600080fd5b50356001600160a01b0316612913565b610c7760048036036020811015610c7057600080fd5b5035612971565b60405180868152602001856001600160a01b03166001600160a01b03168152602001846001600160f01b0319166001600160f01b031916815260200183815260200180602001828103825283818151815260200191508051906020019080838360005b83811015610cf2578181015183820152602001610cda565b50505050905090810190601f168015610d1f5780820380516001836020036101000a031916815260200191505b50965050505050505060405180910390f35b61018a6004803603610140811015610d4857600080fd5b810190602081018135600160201b811115610d6257600080fd5b820183602082011115610d7457600080fd5b803590602001918460018302840111600160201b83111715610d9557600080fd5b919390928235926020810135926040820135929091608081019060600135600160201b811115610dc457600080fd5b820183602082011115610dd657600080fd5b803590602001918460208302840111600160201b83111715610df757600080fd5b91939092823592604081019060200135600160201b811115610e1857600080fd5b820183602082011115610e2a57600080fd5b803590602001918460018302840111600160201b83111715610e4b57600080fd5b919390926001600160a01b03833516926001600160f01b0319602082013516929190606081019060400135600160201b811115610e8757600080fd5b820183602082011115610e9957600080fd5b803590602001918460208302840111600160201b83111715610eba57600080fd5b509092509050612a51565b610629612a61565b6000818152600660209081526040808320546007909252909120549192909190565b60015460408051600160e31b6227050b028152600160f11b6126a902600482015290516001600160a01b0390921691630138285891602480820192602092909190829003018186803b158015610f4457600080fd5b505afa158015610f58573d6000803e3d6000fd5b505050506040513d6020811015610f6e57600080fd5b5051600380546001600160a01b0319166001600160a01b03909216919091179055565b6000805460408051600160e31b6227050b028152600160f11b6123ab02600482015290516001600160a01b03928316928516918391630138285891602480820192602092909190829003018186803b158015610fec57600080fd5b505afa158015611000573d6000803e3d6000fd5b505050506040513d602081101561101657600080fd5b50516001600160a01b0316149392505050565b6000806000806060600080876004898154811061104257fe5b90600052602060002090600602016000015460048a8154811061106157fe5b90600052602060002090600602016001015460048b8154811061108057fe5b90600052602060002090600602016002015460048c8154811061109f57fe5b906000526020600020906006020160030160048d815481106110bd57fe5b90600052602060002090600602016004015460048e815481106110dc57fe5b9060005260206000209060060201600501548280548060200260200160405190810160405280929190818152602001828054801561113957602002820191906000526020600020905b815481526020019060010190808311611125575b505050505092509650965096509650965096509650919395979092949650565b6004545b90565b600254600160a01b900460ff1681565b60095460ff1681565b60086020908152600091825260409182902080548351601f60026000196101006001861615020190931692909204918201849004840281018401909452808452909183018282801561120c5780601f106111e15761010080835404028352916020019161120c565b820191906000526020600020905b8154815290600101906020018083116111ef57829003601f168201915b505050505081565b60008181526005602052604090206001810154905491926001600160a01b03821692600160a01b90920460f01b9190565b60015460408051600160e11b6317aa5fb702815233600482015290516001600160a01b0390921691632f54bf6e91602480820192602092909190829003018186803b15801561129357600080fd5b505afa1580156112a7573d6000803e3d6000fd5b505050506040513d60208110156112bd57600080fd5b50516112c857600080fd5b60095460ff161561130d57604051600160e51b62461bcd028152600401808060200182810382526026815260200180612f636026913960400191505060405180910390fd5b6009805460ff19166001908117909155604080516004815260248101909152602080820180516001600160e01b0316600160e11b6316e25ee5021781526000939093526008905251611380917fad67d757c34507f157cacfa2e3153e9f260a2244f30428821be7be64587ac55f91612e4c565b50604080516004815260248101909152602080820180516001600160e01b0316600160e01b632f473021021781526002600052600890915290516113e5917f6add646517a5b0f6793cd5891b7937d28a5b2981a5d88ebc7cd776088fea904191612e4c565b50604080516004815260248101909152602080820180516001600160e01b0316600160e11b63577c091b0217815260036000526008909152905161144a917f625b35f5e76f098dd7c3a05b10e2e5e78a4a01228d60c3b143426cdf36d2645591612e4c565b5060408051600480825260248201909252602080820180516001600160e01b0316600160e11b635815e18b0217815260009390935260089052516114af917f9321edea6e3be4df59a344b401fab4f888b556fda1f954244cff9204bad624b891612e4c565b50604080516004815260248101909152602080820180516001600160e01b0316600160e01b6365a8c52302178152600560005260089091529051611514917f91238f30f286c9a1c6e901c4eda3b214c381c846e3dbe48df95c21488e8e1fdb91612e4c565b50604080516004815260248101909152602080820180516001600160e01b0316600160e01b63872f1eb302178152600660005260089091529051611579917f13acf3fc7bed94759963f076d5d3443d88732026bffc8253bdf4a6e65f21ecc591612e4c565b50604080516004815260248101909152602080820180516001600160e01b03167fffa39929000000000000000000000000000000000000000000000000000000001781526007600052600890915290516115f4917f24cd397636bedc6cf9b490d0edd57c769c19b367fb7d5c2344ae1ddc7d21c14491612e4c565b50604080516004815260248101909152602080820180516001600160e01b0316600160e01b63ccace7df02178152600860008190529091529051611659917fe4c2e8be66af8dd2d277000f4f830a10546f8b14e45cd850b875c98ba0f0d2cd91612e4c565b50604080516004815260248101909152602080820180516001600160e01b0316600160e11b63311e15e5021781526009600052600890915290516116be917f82c9e868e45873bb5a4f47c09e14a12f6a6314e13aabd611e4374762bb4e8b3691612e4c565b50604080516004815260248101909152602080820180516001600160e01b0316600160e01b63bd03e50102178152600c60005260089091529051611723917faba08fc86a199da17c4b45fa0fb586714474d27e5e1f0220658b6275561b2e1891612e4c565b50604080516004815260248101909152602080820180516001600160e01b0316600160e01b63c6318c2302178152600d60005260089091529051611788917f9006e1a1959cda25aa0dba7b7a958efb843c4c8cb81a2c2fb8637a074e0818f291612e4c565b50604080516004815260248101909152602080820180516001600160e01b0316600160e01b63c85e5efd02178152600e600052600890915290516117ed917fb6457486547dfd0925a66a479476c3a3e54935ea6192a908abe6bd58ec247b4191612e4c565b50604080516004815260248101909152602080820180516001600160e01b0316600160e01b6342a049cd02178152600f60005260089091529051611852917f8fab3b3b6d3bf24f9b00213fe8dda2fb1e188fcd88f523fcb711ff1f6aed59e391612e4c565b50604080516004815260248101909152602080820180516001600160e01b0316600160e41b630c578f23021781526010600052600890915290516118b7917fdf6cae10d416b4d6f459eba806bebc4b85f190dfac647ab7cb4cd2638815444c91612e4c565b50604080516004815260248101909152602080820180516001600160e01b0316600160e01b63ebff71c30217815260116000526008909152905161191c917fbb47c685b7a6169f9415fd073108f8b7da3e741b7dde8513850bca404684fa9791612e4c565b50604080516004815260248101909152602080820180516001600160e01b0316600160e01b639dd86e0f02178152601460005260089091529051611981917fbb1110247bce6eaaf3cb168d5660645ab99866afefe1e7c6fa4388014157e5ba91612e4c565b50604080516004815260248101909152602080820180516001600160e01b0316600160e01b639dd86e0f021781526015600052600890915290516119e6917fb29f796e1978e2043677a1f0396c8f9106e30db6bae4734a9de4f7fffa6f3fb891612e4c565b50604080516004815260248101909152602080820180516001600160e01b0316600160e01b639dd86e0f02178152601660005260089091529051611a4b917fe34c1268cf989e507da6d357c2274f08fc653db420491bb916dfda9e5c93bd5591612e4c565b50604080516004815260248101909152602080820180516001600160e01b0316600160e01b639dd86e0f02178152601760005260089091529051611ab0917f69dd648f27f59b1ee254e03cc0e7f3101ebd5768b9ab5a13693b554f528fc0c591612e4c565b50604080516004815260248101909152602080820180516001600160e01b0316600160e01b639dd86e0f02178152601860005260089091529051611b15917f83ba890607818823e46eb1e5ed8f7282277ac60de8c863727688b48d92a8da6d91612e4c565b50604080516004815260248101909152602080820180516001600160e01b0316600160e01b639dd86e0f02178152601960005260089091529051611b7a917f18fd5681ae57cb24534810e7d412d5f5690a9c6f8b4cd1522e2df7c22ae0888691612e4c565b50604080516004815260248101909152602080820180516001600160e01b0316600160e01b639dd86e0f02178152601a60005260089091529051611bdf917fb3f2dad8dfd667db2559ced4f80a5b7ba4238a3f650ecbeac793568105f8aa4991612e4c565b50604080516004815260248101909152602080820180516001600160e01b0316600160e11b6356a6621f02178152601b60005260089091529051611c44917fa7061849acf4dd50ca004db0f3783d22ac4c1e6e6ac4087d7aeaa0345df7c87b91612e4c565b50604080516004815260248101909152602080820180516001600160e01b0316600160e01b63e2cab14d02178152601c60005260089091529051611ca9917faec422c4c208375fe057bc4dcd2923fcfe7cde0b12bdd0474d1da225c34309b991612e4c565b50604080516004815260248101909152602080820180516001600160e01b0316600160e11b63495850ab02178152601d60005260089091529051611d0e917f103255ffe274dc2acf72b5305eaa32de1b2a3ce1e49af62b6d4c6ca9993c9e1691612e4c565b50604080516004815260248101909152602080820180516001600160e01b0316600160e01b63eaad1b3b02178152601e60005260089091529051611d73917f8ff154b69b3b40c11effaf182586e40eb0e8eab5c2d51945cbe34b1b0bcf6e2891612e4c565b50604080516004815260248101909152602080820180516001600160e01b0316600160e11b6324b5a44302178152601f60005260089091529051611dd8917f3d4691043262bb71b358bddc6f01f8c4de71fc1f1a1b51e3a78463b85cab661e91612e4c565b50604080516004815260248101909152602080820180516001600160e01b0316600160e11b6352931d5102178152600082905260089091529051611e3d917f67c7b623d08894662a80b2d62b2359114b69172cd083a38f4bea1a9a8dcc7eb891612e4c565b50604080516004815260248101909152602080820180516001600160e01b0316600160e21b633dc800db02178152602160005260089091529051611ea2917f1e00437c059ded11d56fbc0f9acb2b99126636f749097c5c8224b228fcea6fe191612e4c565b50565b60066020526000908152604090205481565b60076020526000908152604090205481565b5050505050505050505050565b6001546001600160a01b031681565b60005460408051600160e31b6227050b028152600160f11b6123ab02600482015290516001600160a01b039092169133918391630138285891602480820192602092909190829003018186803b158015611f3e57600080fd5b505afa158015611f52573d6000803e3d6000fd5b505050506040513d6020811015611f6857600080fd5b50516001600160a01b031614611fbc5760408051600160e51b62461bcd02815260206004820152600e6024820152600160921b6d139bdd08185d5d1a1bdc9a5e995902604482015290519081900360640190fd5b60648911158015611fce575060648a11155b61201a5760408051600160e51b62461bcd0281526020600482015260126024820152600160701b71496e76616c69642070657263656e7461676502604482015290519081900360640190fd5b600160f31b6108ab026001600160f01b0319851614801561204257506001600160a01b038516155b8061204e575060008251115b61205757600080fd5b60018360038151811061206657fe5b602002602001015111156120c45760408051600160e51b62461bcd02815260206004820152601f60248201527f496e76616c6964207370656369616c207265736f6c7574696f6e20666c616700604482015290519081900360640190fd5b826003815181106120d157fe5b6020026020010151600114156120f75760028b146120ee57600080fd5b60009950600098505b6121098c8c8c8c8c8c8c8c8c8c612a70565b600082511180156121a8575060408051600481526024810191829052835190918491819060208401908083835b602083106121555780518252601f199092019160209182019101612136565b51815160209384036101000a600019018019909216911617905260405191909301819003902091850180516001600160e01b03199093166001600160e01b03909316929092179091525050905160041490505b1561225e5760408051600481526024810191829052835190918491819060208401908083835b602083106121ed5780518252601f1990920191602091820191016121ce565b51815160001960209485036101000a810191821691199290921617909152604080519590930185900390942087820180516001600160e01b03166001600160e01b03199092169190911781526004549094016000908152600890915220945161225c959450919250612e4c9050565b505b505050505050505050505050565b60005460408051600160e31b6227050b028152600160f11b6123ab02600482015290516001600160a01b039092169133918391630138285891602480820192602092909190829003018186803b1580156122c557600080fd5b505afa1580156122d9573d6000803e3d6000fd5b505050506040513d60208110156122ef57600080fd5b50516001600160a01b0316146123435760408051600160e51b62461bcd02815260206004820152600e6024820152600160921b6d139bdd08185d5d1a1bdc9a5e995902604482015290519081900360640190fd5b61234d8b89612d76565b6001146123965760408051600160e51b62461bcd02815260206004820152600c6024820152600160a01b6b496e76616c696420526f6c6502604482015290519081900360640190fd5b606489111580156123a8575060648a11155b6123f45760408051600160e51b62461bcd0281526020600482015260126024820152600160701b71496e76616c69642070657263656e7461676502604482015290519081900360640190fd5b600160f31b6108ab026001600160f01b0319851614801561241c57506001600160a01b038516155b80612428575060008251115b61243157600080fd5b60018360038151811061244057fe5b6020026020010151111561249e5760408051600160e51b62461bcd02815260206004820152601f60248201527f496e76616c6964207370656369616c207265736f6c7574696f6e20666c616700604482015290519081900360640190fd5b826003815181106124ab57fe5b6020026020010151600114156124d15760028b146124c857600080fd5b60009950600098505b60008d81526008602052604081206124e891612eca565b60008251118015612587575060408051600481526024810191829052835190918491819060208401908083835b602083106125345780518252601f199092019160209182019101612515565b51815160209384036101000a600019018019909216911617905260405191909301819003902091850180516001600160e01b03199093166001600160e01b03909316929092179091525050905160041490505b156126445760408051600481526024810191829052835190918491819060208401908083835b602083106125cc5780518252601f1990920191602091820191016125ad565b6001836020036101000a03801982511681845116808217855250505050505090500191505060405180910390206001600160e01b0319166020820180516001600160e01b038381831617835250505050600860008f81526020019081526020016000209080519060200190612642929190612e4c565b505b8a60048e8154811061265257fe5b9060005260206000209060060201600001819055508960048e8154811061267557fe5b9060005260206000209060060201600101819055508660048e8154811061269857fe5b9060005260206000209060060201600401819055508760048e815481106126bb57fe5b906000526020600020906006020160030190805190602001906126df929190612f0e565b50826000815181106126ed57fe5b602002602001015160048e8154811061270257fe5b9060005260206000209060060201600501819055508860048e8154811061272557fe5b9060005260206000209060060201600201819055508260018151811061274757fe5b60209081029190910181015160008f8152600590925260409091209081556001018054600160a01b61ffff021916600160a01b60f087901c02176001600160a01b0319166001600160a01b0387161790558251839060029081106127a757fe5b6020026020010151600660008f815260200190815260200160002081905550826003815181106127d357fe5b6020026020010151600760008f8152602001908152602001600020819055508c7f2a65d0fe76508fb4e604d4804927dce75b70f82e64a2025e3bffb2fc003418508d88604051808060200180602001838103835285818151815260200191508051906020019080838360005b8381101561285757818101518382015260200161283f565b50505050905090810190601f1680156128845780820380516001836020036101000a031916815260200191505b50838103825284518152845160209182019186019080838360005b838110156128b757818101518382015260200161289f565b50505050905090810190601f1680156128e45780820380516001836020036101000a031916815260200191505b5094505050505060405180910390a250505050505050505050505050565b565b6000546001600160a01b031681565b6000546001600160a01b03161561293b576000546001600160a01b0316331461293b57600080fd5b600080546001600160a01b039092166001600160a01b031992831681179091556001805483168217905560028054909216179055565b600081815260056020908152604080832060018082015491546008855283862080548551600261010095831615959095026000190190911693909304601f81018790048702840187019095528483528695869586956060958b956001600160a01b03831695600160a01b90930460f01b9490938391830182828015612a375780601f10612a0c57610100808354040283529160200191612a37565b820191906000526020600020905b815481529060010190602001808311612a1a57829003601f168201915b505050505090509450945094509450945091939590929450565b5050505050505050505050505050565b6002546001600160a01b031681565b612a7a8987612d76565b600114612ac35760408051600160e51b62461bcd02815260206004820152600c6024820152600160a01b6b496e76616c696420526f6c6502604482015290519081900360640190fd5b60046040518060c001604052808b81526020018a815260200189815260200188815260200187815260200183600081518110612afb57fe5b602090810291909101810151909152825460018181018086556000958652948390208451600690930201918255838301519082015560408301516002820155606083015180519192612b5592600385019290910190612f0e565b506080820151816004015560a0820151816005015550505060006001600480549050039050604051806060016040528083600181518110612b9257fe5b60209081029190910181015182526001600160a01b03808816838301526001600160f01b03198716604093840152600085815260058352839020845181559184015160019092018054949093015160f01c600160a01b02600160a01b61ffff0219929091166001600160a01b03199094169390931716919091179055815182906002908110612c1d57fe5b6020026020010151600660008381526020019081526020016000208190555081600381518110612c4957fe5b60200260200101516007600083815260200190815260200160002081905550807f2a65d0fe76508fb4e604d4804927dce75b70f82e64a2025e3bffb2fc003418508c87604051808060200180602001838103835285818151815260200191508051906020019080838360005b83811015612ccd578181015183820152602001612cb5565b50505050905090810190601f168015612cfa5780820380516001836020036101000a031916815260200191505b50838103825284518152845160209182019186019080838360005b83811015612d2d578181015183820152602001612d15565b50505050905090810190601f168015612d5a5780820380516001836020036101000a031916815260200191505b5094505050505060405180910390a25050505050505050505050565b600080600360009054906101000a90046001600160a01b03166001600160a01b031663790e118c6040518163ffffffff1660e01b815260040160206040518083038186803b158015612dc757600080fd5b505afa158015612ddb573d6000803e3d6000fd5b505050506040513d6020811015612df157600080fd5b50519050808410612e06576000915050612e46565b60005b8351811015612e3f5781848281518110612e1f57fe5b602002602001015110612e3757600092505050612e46565b600101612e09565b5060019150505b92915050565b828054600181600116156101000203166002900490600052602060002090601f016020900481019282601f10612e8d57805160ff1916838001178555612eba565b82800160010185558215612eba579182015b82811115612eba578251825591602001919060010190612e9f565b50612ec6929150612f48565b5090565b50805460018160011615610100020316600290046000825580601f10612ef05750611ea2565b601f016020900490600052602060002090810190611ea29190612f48565b828054828255906000526020600020908101928215612eba5791602002820182811115612eba578251825591602001919060010190612e9f565b61115d91905b80821115612ec65760008155600101612f4e56fe43617465676f727920616374696f6e2068617368657320616c72656164792075706461746564a165627a7a723058209d856812445f8fb096799eed1bd0632c39f801fbd112820bbe3981b1451bd5060029",
  "compiler": {
    "name": "solc",
    "version": "0.5.7+commit.6da8b019.Emscripten.clang",
    "optimizer": {
      "enabled": true,
      "runs": 200
    },
    "evmVersion": "petersburg"
  }
}