{
  "fileName": "Quotation.sol",
  "contractName": "Quotation",
  "source": "/* Copyright (C) 2020 NexusMutual.io\n\n  This program is free software: you can redistribute it and/or modify\n    it under the terms of the GNU General Public License as published by\n    the Free Software Foundation, either version 3 of the License, or\n    (at your option) any later version.\n\n  This program is distributed in the hope that it will be useful,\n    but WITHOUT ANY WARRANTY; without even the implied warranty of\n    MERCHANTABILITY or FITNESS FOR A PARTICULAR PURPOSE.  See the\n    GNU General Public License for more details.\n\n  You should have received a copy of the GNU General Public License\n    along with this program.  If not, see http://www.gnu.org/licenses/ */\n\npragma solidity ^0.5.0;\n\nimport \"@openzeppelin/contracts/token/ERC20/IERC20.sol\";\nimport \"../capital/MCR.sol\";\nimport \"../capital/Pool1.sol\";\nimport \"../capital/PoolData.sol\";\nimport \"../governance/MemberRoles.sol\";\nimport \"../token/TokenController.sol\";\nimport \"../token/TokenData.sol\";\nimport \"../token/TokenFunctions.sol\";\nimport \"./QuotationData.sol\";\n\ncontract Quotation is Iupgradable {\n  using SafeMath for uint;\n\n  TokenFunctions internal tf;\n  TokenController internal tc;\n  TokenData internal td;\n  Pool1 internal p1;\n  PoolData internal pd;\n  QuotationData internal qd;\n  MCR internal m1;\n  MemberRoles internal mr;\n  bool internal locked;\n\n  event RefundEvent(address indexed user, bool indexed status, uint holdedCoverID, bytes32 reason);\n\n  modifier noReentrancy() {\n    require(!locked, \"Reentrant call.\");\n    locked = true;\n    _;\n    locked = false;\n  }\n\n  /**\n   * @dev Iupgradable Interface to update dependent contract address\n   */\n  function changeDependentContractAddress() public onlyInternal {\n    m1 = MCR(ms.getLatestAddress(\"MC\"));\n    tf = TokenFunctions(ms.getLatestAddress(\"TF\"));\n    tc = TokenController(ms.getLatestAddress(\"TC\"));\n    td = TokenData(ms.getLatestAddress(\"TD\"));\n    qd = QuotationData(ms.getLatestAddress(\"QD\"));\n    p1 = Pool1(ms.getLatestAddress(\"P1\"));\n    pd = PoolData(ms.getLatestAddress(\"PD\"));\n    mr = MemberRoles(ms.getLatestAddress(\"MR\"));\n  }\n\n  function sendEther() public payable {\n\n  }\n\n  /**\n   * @dev Expires a cover after a set period of time.\n   * Changes the status of the Cover and reduces the current\n   * sum assured of all areas in which the quotation lies\n   * Unlocks the CN tokens of the cover. Updates the Total Sum Assured value.\n   * @param _cid Cover Id.\n   */\n  function expireCover(uint _cid) public {\n    require(checkCoverExpired(_cid) && qd.getCoverStatusNo(_cid) != uint(QuotationData.CoverStatus.CoverExpired));\n\n    tf.unlockCN(_cid);\n    bytes4 curr;\n    address scAddress;\n    uint sumAssured;\n    (,, scAddress, curr, sumAssured,) = qd.getCoverDetailsByCoverID1(_cid);\n    if (qd.getCoverStatusNo(_cid) != uint(QuotationData.CoverStatus.ClaimAccepted))\n      _removeSAFromCSA(_cid, sumAssured);\n    qd.changeCoverStatusNo(_cid, uint8(QuotationData.CoverStatus.CoverExpired));\n  }\n\n  /**\n   * @dev Checks if a cover should get expired/closed or not.\n   * @param _cid Cover Index.\n   * @return expire true if the Cover's time has expired, false otherwise.\n   */\n  function checkCoverExpired(uint _cid) public view returns (bool expire) {\n\n    expire = qd.getValidityOfCover(_cid) < uint64(now);\n\n  }\n\n  /**\n   * @dev Updates the Sum Assured Amount of all the quotation.\n   * @param _cid Cover id\n   * @param _amount that will get subtracted Current Sum Assured\n   * amount that comes under a quotation.\n   */\n  function removeSAFromCSA(uint _cid, uint _amount) public onlyInternal {\n    _removeSAFromCSA(_cid, _amount);\n  }\n\n  /**\n   * @dev Makes Cover funded via NXM tokens.\n   * @param smartCAdd Smart Contract Address\n   */\n  function makeCoverUsingNXMTokens(\n    uint[] memory coverDetails,\n    uint16 coverPeriod,\n    bytes4 coverCurr,\n    address smartCAdd,\n    uint8 _v,\n    bytes32 _r,\n    bytes32 _s\n  )\n  public\n  isMemberAndcheckPause\n  {\n\n    tc.burnFrom(msg.sender, coverDetails[2]); // need burn allowance\n    _verifyCoverDetails(msg.sender, smartCAdd, coverCurr, coverDetails, coverPeriod, _v, _r, _s);\n  }\n\n  /**\n   * @dev Verifies cover details signed off chain.\n   * @param from address of funder.\n   * @param scAddress Smart Contract Address\n   */\n  function verifyCoverDetails(\n    address payable from,\n    address scAddress,\n    bytes4 coverCurr,\n    uint[] memory coverDetails,\n    uint16 coverPeriod,\n    uint8 _v,\n    bytes32 _r,\n    bytes32 _s\n  )\n  public\n  onlyInternal\n  {\n    _verifyCoverDetails(\n      from,\n      scAddress,\n      coverCurr,\n      coverDetails,\n      coverPeriod,\n      _v,\n      _r,\n      _s\n    );\n  }\n\n  /**\n   * @dev Verifies signature.\n   * @param coverDetails details related to cover.\n   * @param coverPeriod validity of cover.\n   * @param smaratCA smarat contract address.\n   * @param _v argument from vrs hash.\n   * @param _r argument from vrs hash.\n   * @param _s argument from vrs hash.\n   */\n  function verifySign(\n    uint[] memory coverDetails,\n    uint16 coverPeriod,\n    bytes4 curr,\n    address smaratCA,\n    uint8 _v,\n    bytes32 _r,\n    bytes32 _s\n  )\n  public\n  view\n  returns (bool)\n  {\n    require(smaratCA != address(0));\n    require(pd.capReached() == 1, \"Can not buy cover until cap reached for 1st time\");\n    bytes32 hash = getOrderHash(coverDetails, coverPeriod, curr, smaratCA);\n    return isValidSignature(hash, _v, _r, _s);\n  }\n\n  /**\n   * @dev Gets order hash for given cover details.\n   * @param coverDetails details realted to cover.\n   * @param coverPeriod validity of cover.\n   * @param smaratCA smarat contract address.\n   */\n  function getOrderHash(\n    uint[] memory coverDetails,\n    uint16 coverPeriod,\n    bytes4 curr,\n    address smaratCA\n  )\n  public\n  view\n  returns (bytes32)\n  {\n    return keccak256(\n      abi.encodePacked(\n        coverDetails[0],\n        curr, coverPeriod,\n        smaratCA,\n        coverDetails[1],\n        coverDetails[2],\n        coverDetails[3],\n        coverDetails[4],\n        address(this)\n      )\n    );\n  }\n\n  /**\n   * @dev Verifies signature.\n   * @param hash order hash\n   * @param v argument from vrs hash.\n   * @param r argument from vrs hash.\n   * @param s argument from vrs hash.\n   */\n  function isValidSignature(bytes32 hash, uint8 v, bytes32 r, bytes32 s) public view returns (bool) {\n    bytes memory prefix = \"\\x19Ethereum Signed Message:\\n32\";\n    bytes32 prefixedHash = keccak256(abi.encodePacked(prefix, hash));\n    address a = ecrecover(prefixedHash, v, r, s);\n    return (a == qd.getAuthQuoteEngine());\n  }\n\n  /**\n   * @dev to get the status of recently holded coverID\n   * @param userAdd is the user address in concern\n   * @return the status of the concerned coverId\n   */\n  function getRecentHoldedCoverIdStatus(address userAdd) public view returns (int) {\n\n    uint holdedCoverLen = qd.getUserHoldedCoverLength(userAdd);\n    if (holdedCoverLen == 0) {\n      return - 1;\n    } else {\n      uint holdedCoverID = qd.getUserHoldedCoverByIndex(userAdd, holdedCoverLen.sub(1));\n      return int(qd.holdedCoverIDStatus(holdedCoverID));\n    }\n  }\n\n  /**\n   * @dev to initiate the membership and the cover\n   * @param smartCAdd is the smart contract address to make cover on\n   * @param coverCurr is the currency used to make cover\n   * @param coverDetails list of details related to cover like cover amount, expire time, coverCurrPrice and priceNXM\n   * @param coverPeriod is cover period for which cover is being bought\n   * @param _v argument from vrs hash\n   * @param _r argument from vrs hash\n   * @param _s argument from vrs hash\n   */\n  function initiateMembershipAndCover(\n    address smartCAdd,\n    bytes4 coverCurr,\n    uint[] memory coverDetails,\n    uint16 coverPeriod,\n    uint8 _v,\n    bytes32 _r,\n    bytes32 _s\n  )\n  public\n  payable\n  checkPause\n  {\n    require(coverDetails[3] > now);\n    require(!qd.timestampRepeated(coverDetails[4]));\n    qd.setTimestampRepeated(coverDetails[4]);\n    require(!ms.isMember(msg.sender));\n    require(qd.refundEligible(msg.sender) == false);\n    uint joinFee = td.joiningFee();\n    uint totalFee = joinFee;\n    if (coverCurr == \"ETH\") {\n      totalFee = joinFee.add(coverDetails[1]);\n    } else {\n      IERC20 erc20 = IERC20(pd.getCurrencyAssetAddress(coverCurr));\n      require(erc20.transferFrom(msg.sender, address(this), coverDetails[1]));\n    }\n    require(msg.value == totalFee);\n    require(verifySign(coverDetails, coverPeriod, coverCurr, smartCAdd, _v, _r, _s));\n    qd.addHoldCover(msg.sender, smartCAdd, coverCurr, coverDetails, coverPeriod);\n    qd.setRefundEligible(msg.sender, true);\n  }\n\n  /**\n   * @dev to get the verdict of kyc process\n   * @param status is the kyc status\n   * @param _add is the address of member\n   */\n  function kycVerdict(address _add, bool status) public checkPause noReentrancy {\n    require(msg.sender == qd.kycAuthAddress());\n    _kycTrigger(status, _add);\n  }\n\n  /**\n   * @dev transfering Ethers to newly created quotation contract.\n   */\n  function transferAssetsToNewContract(address newAdd) public onlyInternal noReentrancy {\n    uint amount = address(this).balance;\n    IERC20 erc20;\n    if (amount > 0) {\n      // newAdd.transfer(amount);\n      Quotation newQT = Quotation(newAdd);\n      newQT.sendEther.value(amount)();\n    }\n    uint currAssetLen = pd.getAllCurrenciesLen();\n    for (uint64 i = 1; i < currAssetLen; i++) {\n      bytes4 currName = pd.getCurrenciesByIndex(i);\n      address currAddr = pd.getCurrencyAssetAddress(currName);\n      erc20 = IERC20(currAddr); // solhint-disable-line\n      if (erc20.balanceOf(address(this)) > 0) {\n        require(erc20.transfer(newAdd, erc20.balanceOf(address(this))));\n      }\n    }\n  }\n\n\n  /**\n   * @dev Creates cover of the quotation, changes the status of the quotation ,\n   * updates the total sum assured and locks the tokens of the cover against a quote.\n   * @param from Quote member Ethereum address.\n   */\n\n  function _makeCover(//solhint-disable-line\n    address payable from,\n    address scAddress,\n    bytes4 coverCurr,\n    uint[] memory coverDetails,\n    uint16 coverPeriod\n  )\n  internal\n  {\n    uint cid = qd.getCoverLength();\n    qd.addCover(coverPeriod, coverDetails[0],\n      from, coverCurr, scAddress, coverDetails[1], coverDetails[2]);\n    // if cover period of quote is less than 60 days.\n    if (coverPeriod <= 60) {\n      p1.closeCoverOraclise(cid, uint64(uint(coverPeriod).mul(1 days)));\n    }\n    uint coverNoteAmount = (coverDetails[2].mul(qd.tokensRetained())).div(100);\n    tc.mint(from, coverNoteAmount);\n    tf.lockCN(coverNoteAmount, coverPeriod, cid, from);\n    qd.addInTotalSumAssured(coverCurr, coverDetails[0]);\n    qd.addInTotalSumAssuredSC(scAddress, coverCurr, coverDetails[0]);\n\n\n    tf.pushStakerRewards(scAddress, coverDetails[2]);\n  }\n\n  /**\n   * @dev Makes a vover.\n   * @param from address of funder.\n   * @param scAddress Smart Contract Address\n   */\n  function _verifyCoverDetails(\n    address payable from,\n    address scAddress,\n    bytes4 coverCurr,\n    uint[] memory coverDetails,\n    uint16 coverPeriod,\n    uint8 _v,\n    bytes32 _r,\n    bytes32 _s\n  )\n  internal\n  {\n    require(coverDetails[3] > now);\n    require(!qd.timestampRepeated(coverDetails[4]));\n    qd.setTimestampRepeated(coverDetails[4]);\n    require(verifySign(coverDetails, coverPeriod, coverCurr, scAddress, _v, _r, _s));\n    _makeCover(from, scAddress, coverCurr, coverDetails, coverPeriod);\n\n  }\n\n  /**\n   * @dev Updates the Sum Assured Amount of all the quotation.\n   * @param _cid Cover id\n   * @param _amount that will get subtracted Current Sum Assured\n   * amount that comes under a quotation.\n   */\n  function _removeSAFromCSA(uint _cid, uint _amount) internal checkPause {\n    address _add;\n    bytes4 coverCurr;\n    (,, _add, coverCurr,,) = qd.getCoverDetailsByCoverID1(_cid);\n    qd.subFromTotalSumAssured(coverCurr, _amount);\n    qd.subFromTotalSumAssuredSC(_add, coverCurr, _amount);\n  }\n\n  /**\n   * @dev to trigger the kyc process\n   * @param status is the kyc status\n   * @param _add is the address of member\n   */\n  function _kycTrigger(bool status, address _add) internal {\n\n    uint holdedCoverLen = qd.getUserHoldedCoverLength(_add).sub(1);\n    uint holdedCoverID = qd.getUserHoldedCoverByIndex(_add, holdedCoverLen);\n    address payable userAdd;\n    address scAddress;\n    bytes4 coverCurr;\n    uint16 coverPeriod;\n    uint[]  memory coverDetails = new uint[](4);\n    IERC20 erc20;\n\n    (, userAdd, coverDetails) = qd.getHoldedCoverDetailsByID2(holdedCoverID);\n    (, scAddress, coverCurr, coverPeriod) = qd.getHoldedCoverDetailsByID1(holdedCoverID);\n    require(qd.refundEligible(userAdd));\n    qd.setRefundEligible(userAdd, false);\n    require(qd.holdedCoverIDStatus(holdedCoverID) == uint(QuotationData.HCIDStatus.kycPending));\n    uint joinFee = td.joiningFee();\n    if (status) {\n      mr.payJoiningFee.value(joinFee)(userAdd);\n      if (coverDetails[3] > now) {\n        qd.setHoldedCoverIDStatus(holdedCoverID, uint(QuotationData.HCIDStatus.kycPass));\n        address poolAdd = ms.getLatestAddress(\"P1\");\n        if (coverCurr == \"ETH\") {\n          p1.sendEther.value(coverDetails[1])();\n        } else {\n          erc20 = IERC20(pd.getCurrencyAssetAddress(coverCurr)); // solhint-disable-line\n          require(erc20.transfer(poolAdd, coverDetails[1]));\n        }\n        emit RefundEvent(userAdd, status, holdedCoverID, \"KYC Passed\");\n        _makeCover(userAdd, scAddress, coverCurr, coverDetails, coverPeriod);\n\n      } else {\n        qd.setHoldedCoverIDStatus(holdedCoverID, uint(QuotationData.HCIDStatus.kycPassNoCover));\n        if (coverCurr == \"ETH\") {\n          userAdd.transfer(coverDetails[1]);\n        } else {\n          erc20 = IERC20(pd.getCurrencyAssetAddress(coverCurr)); // solhint-disable-line\n          require(erc20.transfer(userAdd, coverDetails[1]));\n        }\n        emit RefundEvent(userAdd, status, holdedCoverID, \"Cover Failed\");\n      }\n    } else {\n      qd.setHoldedCoverIDStatus(holdedCoverID, uint(QuotationData.HCIDStatus.kycFailedOrRefunded));\n      uint totalRefund = joinFee;\n      if (coverCurr == \"ETH\") {\n        totalRefund = coverDetails[1].add(joinFee);\n      } else {\n        erc20 = IERC20(pd.getCurrencyAssetAddress(coverCurr)); // solhint-disable-line\n        require(erc20.transfer(userAdd, coverDetails[1]));\n      }\n      userAdd.transfer(totalRefund);\n      emit RefundEvent(userAdd, status, holdedCoverID, \"KYC Failed\");\n    }\n\n  }\n}\n",
  "sourcePath": "contracts/modules/cover/Quotation.sol",
  "abi": [
    {
      "constant": false,
      "inputs": [],
      "name": "sendEther",
      "outputs": [],
      "payable": true,
      "stateMutability": "payable",
      "type": "function"
    },
    {
      "constant": false,
      "inputs": [],
      "name": "changeDependentContractAddress",
      "outputs": [],
      "payable": false,
      "stateMutability": "nonpayable",
      "type": "function"
    },
    {
      "constant": false,
      "inputs": [
        {
          "name": "from",
          "type": "address"
        },
        {
          "name": "scAddress",
          "type": "address"
        },
        {
          "name": "coverCurr",
          "type": "bytes4"
        },
        {
          "name": "coverDetails",
          "type": "uint256[]"
        },
        {
          "name": "coverPeriod",
          "type": "uint16"
        },
        {
          "name": "_v",
          "type": "uint8"
        },
        {
          "name": "_r",
          "type": "bytes32"
        },
        {
          "name": "_s",
          "type": "bytes32"
        }
      ],
      "name": "verifyCoverDetails",
      "outputs": [],
      "payable": false,
      "stateMutability": "nonpayable",
      "type": "function"
    },
    {
      "constant": false,
      "inputs": [
        {
          "name": "smartCAdd",
          "type": "address"
        },
        {
          "name": "coverCurr",
          "type": "bytes4"
        },
        {
          "name": "coverDetails",
          "type": "uint256[]"
        },
        {
          "name": "coverPeriod",
          "type": "uint16"
        },
        {
          "name": "_v",
          "type": "uint8"
        },
        {
          "name": "_r",
          "type": "bytes32"
        },
        {
          "name": "_s",
          "type": "bytes32"
        }
      ],
      "name": "initiateMembershipAndCover",
      "outputs": [],
      "payable": true,
      "stateMutability": "payable",
      "type": "function"
    },
    {
      "constant": true,
      "inputs": [
        {
          "name": "coverDetails",
          "type": "uint256[]"
        },
        {
          "name": "coverPeriod",
          "type": "uint16"
        },
        {
          "name": "curr",
          "type": "bytes4"
        },
        {
          "name": "smaratCA",
          "type": "address"
        },
        {
          "name": "_v",
          "type": "uint8"
        },
        {
          "name": "_r",
          "type": "bytes32"
        },
        {
          "name": "_s",
          "type": "bytes32"
        }
      ],
      "name": "verifySign",
      "outputs": [
        {
          "name": "",
          "type": "bool"
        }
      ],
      "payable": false,
      "stateMutability": "view",
      "type": "function"
    },
    {
      "constant": false,
      "inputs": [
        {
          "name": "coverDetails",
          "type": "uint256[]"
        },
        {
          "name": "coverPeriod",
          "type": "uint16"
        },
        {
          "name": "coverCurr",
          "type": "bytes4"
        },
        {
          "name": "smartCAdd",
          "type": "address"
        },
        {
          "name": "_v",
          "type": "uint8"
        },
        {
          "name": "_r",
          "type": "bytes32"
        },
        {
          "name": "_s",
          "type": "bytes32"
        }
      ],
      "name": "makeCoverUsingNXMTokens",
      "outputs": [],
      "payable": false,
      "stateMutability": "nonpayable",
      "type": "function"
    },
    {
      "constant": false,
      "inputs": [
        {
          "name": "_cid",
          "type": "uint256"
        },
        {
          "name": "_amount",
          "type": "uint256"
        }
      ],
      "name": "removeSAFromCSA",
      "outputs": [],
      "payable": false,
      "stateMutability": "nonpayable",
      "type": "function"
    },
    {
      "constant": true,
      "inputs": [
        {
          "name": "hash",
          "type": "bytes32"
        },
        {
          "name": "v",
          "type": "uint8"
        },
        {
          "name": "r",
          "type": "bytes32"
        },
        {
          "name": "s",
          "type": "bytes32"
        }
      ],
      "name": "isValidSignature",
      "outputs": [
        {
          "name": "",
          "type": "bool"
        }
      ],
      "payable": false,
      "stateMutability": "view",
      "type": "function"
    },
    {
      "constant": true,
      "inputs": [],
      "name": "ms",
      "outputs": [
        {
          "name": "",
          "type": "address"
        }
      ],
      "payable": false,
      "stateMutability": "view",
      "type": "function"
    },
    {
      "constant": true,
      "inputs": [
        {
          "name": "coverDetails",
          "type": "uint256[]"
        },
        {
          "name": "coverPeriod",
          "type": "uint16"
        },
        {
          "name": "curr",
          "type": "bytes4"
        },
        {
          "name": "smaratCA",
          "type": "address"
        }
      ],
      "name": "getOrderHash",
      "outputs": [
        {
          "name": "",
          "type": "bytes32"
        }
      ],
      "payable": false,
      "stateMutability": "view",
      "type": "function"
    },
    {
      "constant": false,
      "inputs": [
        {
          "name": "_masterAddress",
          "type": "address"
        }
      ],
      "name": "changeMasterAddress",
      "outputs": [],
      "payable": false,
      "stateMutability": "nonpayable",
      "type": "function"
    },
    {
      "constant": true,
      "inputs": [
        {
          "name": "userAdd",
          "type": "address"
        }
      ],
      "name": "getRecentHoldedCoverIdStatus",
      "outputs": [
        {
          "name": "",
          "type": "int256"
        }
      ],
      "payable": false,
      "stateMutability": "view",
      "type": "function"
    },
    {
      "constant": false,
      "inputs": [
        {
          "name": "_add",
          "type": "address"
        },
        {
          "name": "status",
          "type": "bool"
        }
      ],
      "name": "kycVerdict",
      "outputs": [],
      "payable": false,
      "stateMutability": "nonpayable",
      "type": "function"
    },
    {
      "constant": true,
      "inputs": [
        {
          "name": "_cid",
          "type": "uint256"
        }
      ],
      "name": "checkCoverExpired",
      "outputs": [
        {
          "name": "expire",
          "type": "bool"
        }
      ],
      "payable": false,
      "stateMutability": "view",
      "type": "function"
    },
    {
      "constant": false,
      "inputs": [
        {
          "name": "newAdd",
          "type": "address"
        }
      ],
      "name": "transferAssetsToNewContract",
      "outputs": [],
      "payable": false,
      "stateMutability": "nonpayable",
      "type": "function"
    },
    {
      "constant": true,
      "inputs": [],
      "name": "nxMasterAddress",
      "outputs": [
        {
          "name": "",
          "type": "address"
        }
      ],
      "payable": false,
      "stateMutability": "view",
      "type": "function"
    },
    {
      "constant": false,
      "inputs": [
        {
          "name": "_cid",
          "type": "uint256"
        }
      ],
      "name": "expireCover",
      "outputs": [],
      "payable": false,
      "stateMutability": "nonpayable",
      "type": "function"
    },
    {
      "anonymous": false,
      "inputs": [
        {
          "indexed": true,
          "name": "user",
          "type": "address"
        },
        {
          "indexed": true,
          "name": "status",
          "type": "bool"
        },
        {
          "indexed": false,
          "name": "holdedCoverID",
          "type": "uint256"
        },
        {
          "indexed": false,
          "name": "reason",
          "type": "bytes32"
        }
      ],
      "name": "RefundEvent",
      "type": "event"
    }
  ],
  "bytecode": "0x608060405234801561001057600080fd5b50613e4a806100206000396000f3fe6080604052600436106100fe5760003560e01c8063a0b2d57f11610095578063d8b2114e11610064578063d8b2114e146106b1578063dce2c861146106ec578063e262997414610716578063f17a3bec14610749578063f4136f7f1461075e576100fe565b8063a0b2d57f14610538578063d077e3b114610569578063d46655f41461064b578063d817a3511461067e576100fe565b806365a81825116100d157806365a81825146102eb57806379c84328146103e45780637f68a79e146104c95780638b257d3d146104f9576100fe565b80630e29df22146101035780630ea9c9841461010d5780634a1784721461012257806362d5038e14610213575b600080fd5b61010b610788565b005b34801561011957600080fd5b5061010b61078a565b34801561012e57600080fd5b5061010b600480360361010081101561014657600080fd5b6001600160a01b0382358116926020810135909116916001600160e01b03196040830135169190810190608081016060820135600160201b81111561018a57600080fd5b82018360208201111561019c57600080fd5b803590602001918460208302840111600160201b831117156101bd57600080fd5b9190808060200260200160405190810160405280939291908181526020018383602002808284376000920191909152509295505061ffff83351693505060ff602083013516916040810135915060600135610cc2565b61010b600480360360e081101561022957600080fd5b6001600160a01b03823516916001600160e01b031960208201351691810190606081016040820135600160201b81111561026257600080fd5b82018360208201111561027457600080fd5b803590602001918460208302840111600160201b8311171561029557600080fd5b9190808060200260200160405190810160405280939291908181526020018383602002808284376000920191909152509295505061ffff83351693505060ff602083013516916040810135915060600135610d5f565b3480156102f757600080fd5b506103d0600480360360e081101561030e57600080fd5b810190602081018135600160201b81111561032857600080fd5b82018360208201111561033a57600080fd5b803590602001918460208302840111600160201b8311171561035b57600080fd5b9190808060200260200160405190810160405280939291908181526020018383602002808284376000920191909152509295505061ffff8335169350506001600160e01b0319602083013516916001600160a01b03604082013516915060ff6060820135169060808101359060a001356113a9565b604080519115158252519081900360200190f35b3480156103f057600080fd5b5061010b600480360360e081101561040757600080fd5b810190602081018135600160201b81111561042157600080fd5b82018360208201111561043357600080fd5b803590602001918460208302840111600160201b8311171561045457600080fd5b9190808060200260200160405190810160405280939291908181526020018383602002808284376000920191909152509295505061ffff8335169350506001600160e01b0319602083013516916001600160a01b03604082013516915060ff6060820135169060808101359060a001356114a2565b3480156104d557600080fd5b5061010b600480360360408110156104ec57600080fd5b508035906020013561166f565b34801561050557600080fd5b506103d06004803603608081101561051c57600080fd5b5080359060ff6020820135169060408101359060600135611700565b34801561054457600080fd5b5061054d611899565b604080516001600160a01b039092168252519081900360200190f35b34801561057557600080fd5b506106396004803603608081101561058c57600080fd5b810190602081018135600160201b8111156105a657600080fd5b8201836020820111156105b857600080fd5b803590602001918460208302840111600160201b831117156105d957600080fd5b9190808060200260200160405190810160405280939291908181526020018383602002808284376000920191909152509295505050813561ffff1692505060208101356001600160e01b03191690604001356001600160a01b03166118a8565b60408051918252519081900360200190f35b34801561065757600080fd5b5061010b6004803603602081101561066e57600080fd5b50356001600160a01b031661199f565b34801561068a57600080fd5b50610639600480360360208110156106a157600080fd5b50356001600160a01b0316611a2e565b3480156106bd57600080fd5b5061010b600480360360408110156106d457600080fd5b506001600160a01b0381351690602001351515611bea565b3480156106f857600080fd5b506103d06004803603602081101561070f57600080fd5b5035611d80565b34801561072257600080fd5b5061010b6004803603602081101561073957600080fd5b50356001600160a01b0316611e11565b34801561075557600080fd5b5061054d6122a3565b34801561076a57600080fd5b5061010b6004803603602081101561078157600080fd5b50356122b2565b565b60005460408051600160e21b6323c5b10702815233600482015290516001600160a01b0390921691638f16c41c91602480820192602092909190829003018186803b1580156107d857600080fd5b505afa1580156107ec573d6000803e3d6000fd5b505050506040513d602081101561080257600080fd5b505161080d57600080fd5b60005460408051600160e31b6227050b028152600160f01b614d4302600482015290516001600160a01b0390921691630138285891602480820192602092909190829003018186803b15801561086257600080fd5b505afa158015610876573d6000803e3d6000fd5b505050506040513d602081101561088c57600080fd5b5051600880546001600160a01b0319166001600160a01b0392831617905560005460408051600160e31b6227050b028152600160f11b612a23026004820152905191909216916301382858916024808301926020929190829003018186803b1580156108f757600080fd5b505afa15801561090b573d6000803e3d6000fd5b505050506040513d602081101561092157600080fd5b5051600280546001600160a01b0319166001600160a01b0392831617905560005460408051600160e31b6227050b028152600160f01b615443026004820152905191909216916301382858916024808301926020929190829003018186803b15801561098c57600080fd5b505afa1580156109a0573d6000803e3d6000fd5b505050506040513d60208110156109b657600080fd5b5051600380546001600160a01b0319166001600160a01b0392831617905560005460408051600160e31b6227050b028152600160f21b611511026004820152905191909216916301382858916024808301926020929190829003018186803b158015610a2157600080fd5b505afa158015610a35573d6000803e3d6000fd5b505050506040513d6020811015610a4b57600080fd5b5051600480546001600160a01b0319166001600160a01b0392831617815560005460408051600160e31b6227050b028152600160f21b611451029381019390935251921691630138285891602480820192602092909190829003018186803b158015610ab657600080fd5b505afa158015610aca573d6000803e3d6000fd5b505050506040513d6020811015610ae057600080fd5b5051600780546001600160a01b0319166001600160a01b0392831617905560005460408051600160e31b6227050b028152600160f01b615031026004820152905191909216916301382858916024808301926020929190829003018186803b158015610b4b57600080fd5b505afa158015610b5f573d6000803e3d6000fd5b505050506040513d6020811015610b7557600080fd5b5051600580546001600160a01b0319166001600160a01b0392831617905560005460408051600160e31b6227050b028152600160f21b611411026004820152905191909216916301382858916024808301926020929190829003018186803b158015610be057600080fd5b505afa158015610bf4573d6000803e3d6000fd5b505050506040513d6020811015610c0a57600080fd5b5051600680546001600160a01b0319166001600160a01b0392831617905560005460408051600160e31b6227050b028152600160f11b6126a9026004820152905191909216916301382858916024808301926020929190829003018186803b158015610c7557600080fd5b505afa158015610c89573d6000803e3d6000fd5b505050506040513d6020811015610c9f57600080fd5b5051600980546001600160a01b0319166001600160a01b03909216919091179055565b60005460408051600160e21b6323c5b10702815233600482015290516001600160a01b0390921691638f16c41c91602480820192602092909190829003018186803b158015610d1057600080fd5b505afa158015610d24573d6000803e3d6000fd5b505050506040513d6020811015610d3a57600080fd5b5051610d4557600080fd5b610d558888888888888888612543565b5050505050505050565b6000809054906101000a90046001600160a01b03166001600160a01b031663ff0938a76040518163ffffffff1660e01b815260040160206040518083038186803b158015610dac57600080fd5b505afa158015610dc0573d6000803e3d6000fd5b505050506040513d6020811015610dd657600080fd5b505115610de257600080fd5b4285600381518110610df057fe5b602002602001015111610e0257600080fd5b60075485516001600160a01b039091169063922fd67f9087906004908110610e2657fe5b60200260200101516040518263ffffffff1660e01b81526004018082815260200191505060206040518083038186803b158015610e6257600080fd5b505afa158015610e76573d6000803e3d6000fd5b505050506040513d6020811015610e8c57600080fd5b505115610e9857600080fd5b60075485516001600160a01b03909116906383fa95859087906004908110610ebc57fe5b60200260200101516040518263ffffffff1660e01b815260040180828152602001915050600060405180830381600087803b158015610efa57600080fd5b505af1158015610f0e573d6000803e3d6000fd5b505060005460408051600160e21b63288c314902815233600482015290516001600160a01b03909216935063a230c5249250602480820192602092909190829003018186803b158015610f6057600080fd5b505afa158015610f74573d6000803e3d6000fd5b505050506040513d6020811015610f8a57600080fd5b505115610f9657600080fd5b60075460408051600160e11b636f3adaf502815233600482015290516001600160a01b039092169163de75b5ea91602480820192602092909190829003018186803b158015610fe457600080fd5b505afa158015610ff8573d6000803e3d6000fd5b505050506040513d602081101561100e57600080fd5b50511561101a57600080fd5b6000600460009054906101000a90046001600160a01b03166001600160a01b0316636eeeaaa56040518163ffffffff1660e01b815260040160206040518083038186803b15801561106a57600080fd5b505afa15801561107e573d6000803e3d6000fd5b505050506040513d602081101561109457600080fd5b5051905080600160eb1b6208aa89026001600160e01b0319891614156110e2576110db876001815181106110c457fe5b60200260200101518361269890919063ffffffff16565b9050611234565b60065460408051600160e01b63e3dee2390281526001600160e01b03198b16600482015290516000926001600160a01b03169163e3dee239916024808301926020929190829003018186803b15801561113a57600080fd5b505afa15801561114e573d6000803e3d6000fd5b505050506040513d602081101561116457600080fd5b505188519091506001600160a01b038216906323b872dd90339030908c90600190811061118d57fe5b60200260200101516040518463ffffffff1660e01b815260040180846001600160a01b03166001600160a01b03168152602001836001600160a01b03166001600160a01b031681526020018281526020019350505050602060405180830381600087803b1580156111fd57600080fd5b505af1158015611211573d6000803e3d6000fd5b505050506040513d602081101561122757600080fd5b505161123257600080fd5b505b80341461124057600080fd5b61124f87878a8c8989896113a9565b61125857600080fd5b600754604051600160e11b6314956a8502815233600482018181526001600160a01b038d811660248501526001600160e01b03198d16604485015261ffff8b16608485015260a0606485019081528c5160a48601528c51919095169463292ad50a948f938f938f938f93909160c4909101906020808701910280838360005b838110156112ef5781810151838201526020016112d7565b505050509050019650505050505050600060405180830381600087803b15801561131857600080fd5b505af115801561132c573d6000803e3d6000fd5b505060075460408051600160e21b633d8ea1f50281523360048201526001602482015290516001600160a01b03909216935063f63a87d4925060448082019260009290919082900301818387803b15801561138657600080fd5b505af115801561139a573d6000803e3d6000fd5b50505050505050505050505050565b60006001600160a01b0385166113be57600080fd5b600660009054906101000a90046001600160a01b03166001600160a01b0316634f9359456040518163ffffffff1660e01b815260040160206040518083038186803b15801561140c57600080fd5b505afa158015611420573d6000803e3d6000fd5b505050506040513d602081101561143657600080fd5b505160011461147957604051600160e51b62461bcd028152600401808060200182810382526030815260200180613dce6030913960400191505060405180910390fd5b6000611487898989896118a8565b905061149581868686611700565b9998505050505050505050565b6000809054906101000a90046001600160a01b03166001600160a01b031663ff0938a76040518163ffffffff1660e01b815260040160206040518083038186803b1580156114ef57600080fd5b505afa158015611503573d6000803e3d6000fd5b505050506040513d602081101561151957600080fd5b50511580156115a3575060005460408051600160e21b63288c314902815233600482015290516001600160a01b039092169163a230c52491602480820192602092909190829003018186803b15801561157157600080fd5b505afa158015611585573d6000803e3d6000fd5b505050506040513d602081101561159b57600080fd5b505115156001145b6115ac57600080fd5b60035487516001600160a01b03909116906379cc67909033908a9060029081106115d257fe5b60200260200101516040518363ffffffff1660e01b815260040180836001600160a01b03166001600160a01b0316815260200182815260200192505050602060405180830381600087803b15801561162957600080fd5b505af115801561163d573d6000803e3d6000fd5b505050506040513d602081101561165357600080fd5b5061166690503385878a8a888888612543565b50505050505050565b60005460408051600160e21b6323c5b10702815233600482015290516001600160a01b0390921691638f16c41c91602480820192602092909190829003018186803b1580156116bd57600080fd5b505afa1580156116d1573d6000803e3d6000fd5b505050506040513d60208110156116e757600080fd5b50516116f257600080fd5b6116fc82826126fe565b5050565b600060606040518060400160405280601c81526020017f19457468657265756d205369676e6564204d6573736167653a0a3332000000008152509050600081876040516020018083805190602001908083835b602083106117725780518252601f199092019160209182019101611753565b51815160209384036101000a600019018019909216911617905292019384525060408051808503815284830180835281519184019190912060009182905282860180845281905260ff8d166060870152608086018c905260a086018b90529151919650945060019360c08082019450601f19830192918290030190855afa158015611801573d6000803e3d6000fd5b505060408051601f19810151600754600160e21b633a34eba702835292519094506001600160a01b03909216925063e8d3ae9c916004808301926020929190829003018186803b15801561185457600080fd5b505afa158015611868573d6000803e3d6000fd5b505050506040513d602081101561187e57600080fd5b50516001600160a01b03908116911614979650505050505050565b6000546001600160a01b031681565b6000846000815181106118b757fe5b6020026020010151838584886001815181106118cf57fe5b6020026020010151896002815181106118e457fe5b60200260200101518a6003815181106118f957fe5b60200260200101518b60048151811061190e57fe5b602090810291909101810151604080518084019a909a526001600160e01b03199098168989015261ffff90961660f01b60448901526001600160a01b03909416606090811b6046890152605a880193909352607a870191909152609a86015260ba8501929092523090911b60da840152815160ce81850301815260ee90930190915281519101209050949350505050565b6000546001600160a01b031615611a02576000546001600160a01b03163314611a025760408051600160e51b62461bcd02815260206004820152600a6024820152600160b11b692737ba1036b0b9ba32b902604482015290519081900360640190fd5b600080546001600160a01b039092166001600160a01b0319928316811790915560018054909216179055565b60075460408051600160e01b63c60781bd0281526001600160a01b03848116600483015291516000938493169163c60781bd916024808301926020929190829003018186803b158015611a8057600080fd5b505afa158015611a94573d6000803e3d6000fd5b505050506040513d6020811015611aaa57600080fd5b5051905080611abe57600019915050611be5565b6007546000906001600160a01b031663f0bd022285611ae485600163ffffffff6128ee16565b6040518363ffffffff1660e01b815260040180836001600160a01b03166001600160a01b031681526020018281526020019250505060206040518083038186803b158015611b3157600080fd5b505afa158015611b45573d6000803e3d6000fd5b505050506040513d6020811015611b5b57600080fd5b505160075460408051600160e01b63baaa46f90281526004810184905290519293506001600160a01b039091169163baaa46f991602480820192602092909190829003018186803b158015611baf57600080fd5b505afa158015611bc3573d6000803e3d6000fd5b505050506040513d6020811015611bd957600080fd5b50519250611be5915050565b919050565b6000809054906101000a90046001600160a01b03166001600160a01b031663ff0938a76040518163ffffffff1660e01b815260040160206040518083038186803b158015611c3757600080fd5b505afa158015611c4b573d6000803e3d6000fd5b505050506040513d6020811015611c6157600080fd5b505115611c6d57600080fd5b600954600160a01b900460ff1615611cc45760408051600160e51b62461bcd02815260206004820152600f6024820152600160891b6e2932b2b73a3930b73a1031b0b6361702604482015290519081900360640190fd5b60098054600160a01b60ff021916600160a01b17905560075460408051600160e01b6384434b9f02815290516001600160a01b03909216916384434b9f91600480820192602092909190829003018186803b158015611d2257600080fd5b505afa158015611d36573d6000803e3d6000fd5b505050506040513d6020811015611d4c57600080fd5b50516001600160a01b03163314611d6257600080fd5b611d6c8183612930565b505060098054600160a01b60ff0219169055565b60075460408051600160e11b63388d67c302815260048101849052905160009267ffffffffffffffff4216926001600160a01b039091169163711acf8691602480820192602092909190829003018186803b158015611dde57600080fd5b505afa158015611df2573d6000803e3d6000fd5b505050506040513d6020811015611e0857600080fd5b50511092915050565b60005460408051600160e21b6323c5b10702815233600482015290516001600160a01b0390921691638f16c41c91602480820192602092909190829003018186803b158015611e5f57600080fd5b505afa158015611e73573d6000803e3d6000fd5b505050506040513d6020811015611e8957600080fd5b5051611e9457600080fd5b600954600160a01b900460ff1615611eeb5760408051600160e51b62461bcd02815260206004820152600f6024820152600160891b6e2932b2b73a3930b73a1031b0b6361702604482015290519081900360640190fd5b60098054600160a01b60ff021916600160a01b179055303160008115611f66576000839050806001600160a01b0316630e29df22846040518263ffffffff1660e01b81526004016000604051808303818588803b158015611f4b57600080fd5b505af1158015611f5f573d6000803e3d6000fd5b5050505050505b60065460408051600160e01b63255f504902815290516000926001600160a01b03169163255f5049916004808301926020929190829003018186803b158015611fae57600080fd5b505afa158015611fc2573d6000803e3d6000fd5b505050506040513d6020811015611fd857600080fd5b5051905060015b818167ffffffffffffffff16101561228c5760065460408051600160e41b6303c40b1f02815267ffffffffffffffff8416600482015290516000926001600160a01b031691633c40b1f0916024808301926020929190829003018186803b15801561204957600080fd5b505afa15801561205d573d6000803e3d6000fd5b505050506040513d602081101561207357600080fd5b505160065460408051600160e01b63e3dee2390281526001600160e01b03198416600482015290519293506000926001600160a01b039092169163e3dee23991602480820192602092909190829003018186803b1580156120d357600080fd5b505afa1580156120e7573d6000803e3d6000fd5b505050506040513d60208110156120fd57600080fd5b505160408051600160e01b6370a0823102815230600482015290519196508692506000916001600160a01b038416916370a08231916024808301926020929190829003018186803b15801561215157600080fd5b505afa158015612165573d6000803e3d6000fd5b505050506040513d602081101561217b57600080fd5b505111156122825760408051600160e01b6370a0823102815230600482015290516001600160a01b0387169163a9059cbb918a9184916370a0823191602480820192602092909190829003018186803b1580156121d757600080fd5b505afa1580156121eb573d6000803e3d6000fd5b505050506040513d602081101561220157600080fd5b50516040805163ffffffff851660e01b81526001600160a01b03909316600484015260248301919091525160448083019260209291908290030181600087803b15801561224d57600080fd5b505af1158015612261573d6000803e3d6000fd5b505050506040513d602081101561227757600080fd5b505161228257600080fd5b5050600101611fdf565b505060098054600160a01b60ff0219169055505050565b6001546001600160a01b031681565b6122bb81611d80565b8015612343575060075460408051600160e01b634b2cc0a10281526004810184905290516003926001600160a01b031691634b2cc0a1916024808301926020929190829003018186803b15801561231157600080fd5b505afa158015612325573d6000803e3d6000fd5b505050506040513d602081101561233b57600080fd5b505160ff1614155b61234c57600080fd5b60025460408051600160e21b63217d48810281526004810184905290516001600160a01b03909216916385f522049160248082019260009290919082900301818387803b15801561239c57600080fd5b505af11580156123b0573d6000803e3d6000fd5b505060075460408051600160e01b63df09fea70281526004810186905290516000945084935083926001600160a01b03169163df09fea79160248083019260c0929190829003018186803b15801561240757600080fd5b505afa15801561241b573d6000803e3d6000fd5b505050506040513d60c081101561243157600080fd5b506040810151606082015160809092015191945092509050600160075460408051600160e01b634b2cc0a10281526004810188905290516001600160a01b0390921691634b2cc0a191602480820192602092909190829003018186803b15801561249a57600080fd5b505afa1580156124ae573d6000803e3d6000fd5b505050506040513d60208110156124c457600080fd5b505160ff16146124d8576124d884826126fe565b60075460408051600160e11b63570e2f65028152600481018790526003602482015290516001600160a01b039092169163ae1c5eca9160448082019260009290919082900301818387803b15801561252f57600080fd5b505af1158015610d55573d6000803e3d6000fd5b428560038151811061255157fe5b60200260200101511161256357600080fd5b60075485516001600160a01b039091169063922fd67f908790600490811061258757fe5b60200260200101516040518263ffffffff1660e01b81526004018082815260200191505060206040518083038186803b1580156125c357600080fd5b505afa1580156125d7573d6000803e3d6000fd5b505050506040513d60208110156125ed57600080fd5b5051156125f957600080fd5b60075485516001600160a01b03909116906383fa9585908790600490811061261d57fe5b60200260200101516040518263ffffffff1660e01b815260040180828152602001915050600060405180830381600087803b15801561265b57600080fd5b505af115801561266f573d6000803e3d6000fd5b505050506126828585888a8787876113a9565b61268b57600080fd5b610d5588888888886136b5565b6000828201838110156126f55760408051600160e51b62461bcd02815260206004820152601b60248201527f536166654d6174683a206164646974696f6e206f766572666c6f770000000000604482015290519081900360640190fd5b90505b92915050565b6000809054906101000a90046001600160a01b03166001600160a01b031663ff0938a76040518163ffffffff1660e01b815260040160206040518083038186803b15801561274b57600080fd5b505afa15801561275f573d6000803e3d6000fd5b505050506040513d602081101561277557600080fd5b50511561278157600080fd5b60075460408051600160e01b63df09fea702815260048101859052905160009283926001600160a01b039091169163df09fea79160248082019260c092909190829003018186803b1580156127d557600080fd5b505afa1580156127e9573d6000803e3d6000fd5b505050506040513d60c08110156127ff57600080fd5b506040808201516060909201516007548251600160e01b6360a230e70281526001600160e01b0319831660048201526024810188905292519395509093506001600160a01b0316916360a230e79160448082019260009290919082900301818387803b15801561286e57600080fd5b505af1158015612882573d6000803e3d6000fd5b505060075460408051600160e11b6340ebb0570281526001600160a01b0387811660048301526001600160e01b0319871660248301526044820189905291519190921693506381d760ae9250606480830192600092919082900301818387803b15801561252f57600080fd5b60006126f583836040518060400160405280601e81526020017f536166654d6174683a207375627472616374696f6e206f766572666c6f770000815250613c32565b60075460408051600160e01b63c60781bd0281526001600160a01b03848116600483015291516000936129c19360019391169163c60781bd91602480820192602092909190829003018186803b15801561298957600080fd5b505afa15801561299d573d6000803e3d6000fd5b505050506040513d60208110156129b357600080fd5b50519063ffffffff6128ee16565b60075460408051600160e11b63785e81110281526001600160a01b038681166004830152602482018590529151939450600093919092169163f0bd0222916044808301926020929190829003018186803b158015612a1e57600080fd5b505afa158015612a32573d6000803e3d6000fd5b505050506040513d6020811015612a4857600080fd5b505160408051600480825260a082019092529192506000918291829182916060919060208201608080388339505060075460408051600160e21b6333104907028152600481018b905290519394506000936001600160a01b03909216925063cc41241c9160248083019286929190829003018186803b158015612aca57600080fd5b505afa158015612ade573d6000803e3d6000fd5b505050506040513d6000823e601f3d908101601f191682016040526060811015612b0757600080fd5b8151602083015160408401805192949193820192600160201b811115612b2c57600080fd5b82016020810184811115612b3f57600080fd5b81518560208202830111600160201b82111715612b5b57600080fd5b50509291905050509091508093508197505050600760009054906101000a90046001600160a01b03166001600160a01b0316633f77ea65886040518263ffffffff1660e01b81526004018082815260200191505060806040518083038186803b158015612bc757600080fd5b505afa158015612bdb573d6000803e3d6000fd5b505050506040513d6080811015612bf157600080fd5b506020808201516040808401516060909401516007548251600160e11b636f3adaf50281526001600160a01b038d811660048301529351949b50959950909750169263de75b5ea926024808301939192829003018186803b158015612c5557600080fd5b505afa158015612c69573d6000803e3d6000fd5b505050506040513d6020811015612c7f57600080fd5b5051612c8a57600080fd5b60075460408051600160e21b633d8ea1f50281526001600160a01b038981166004830152600060248301819052925193169263f63a87d49260448084019391929182900301818387803b158015612ce057600080fd5b505af1158015612cf4573d6000803e3d6000fd5b5060019250612d01915050565b60075460408051600160e01b63baaa46f9028152600481018b905290516001600160a01b039092169163baaa46f991602480820192602092909190829003018186803b158015612d5057600080fd5b505afa158015612d64573d6000803e3d6000fd5b505050506040513d6020811015612d7a57600080fd5b505114612d8657600080fd5b6000600460009054906101000a90046001600160a01b03166001600160a01b0316636eeeaaa56040518163ffffffff1660e01b815260040160206040518083038186803b158015612dd657600080fd5b505afa158015612dea573d6000803e3d6000fd5b505050506040513d6020811015612e0057600080fd5b505190508a1561342d5760095460408051600160e11b6307569f390281526001600160a01b038a8116600483015291519190921691630ead3e7291849160248082019260009290919082900301818588803b158015612e5e57600080fd5b505af1158015612e72573d6000803e3d6000fd5b50505050504283600381518110612e8557fe5b602002602001015111156131b2576007546001600160a01b0316636e13d8c58960026040518363ffffffff1660e01b81526004018083815260200182815260200192505050600060405180830381600087803b158015612ee457600080fd5b505af1158015612ef8573d6000803e3d6000fd5b50506000805460408051600160e31b6227050b028152600160f01b61503102600482015290519294506001600160a01b0390911692506301382858916024808301926020929190829003018186803b158015612f5357600080fd5b505afa158015612f67573d6000803e3d6000fd5b505050506040513d6020811015612f7d57600080fd5b50519050600160eb1b6208aa89026001600160e01b0319871614156130115760055484516001600160a01b0390911690630e29df229086906001908110612fc057fe5b60200260200101516040518263ffffffff1660e01b81526004016000604051808303818588803b158015612ff357600080fd5b505af1158015613007573d6000803e3d6000fd5b5050505050613146565b60065460408051600160e01b63e3dee2390281526001600160e01b03198916600482015290516001600160a01b039092169163e3dee23991602480820192602092909190829003018186803b15801561306957600080fd5b505afa15801561307d573d6000803e3d6000fd5b505050506040513d602081101561309357600080fd5b505184519093506001600160a01b0384169063a9059cbb908390879060019081106130ba57fe5b60200260200101516040518363ffffffff1660e01b815260040180836001600160a01b03166001600160a01b0316815260200182815260200192505050602060405180830381600087803b15801561311157600080fd5b505af1158015613125573d6000803e3d6000fd5b505050506040513d602081101561313b57600080fd5b505161314657600080fd5b604080518a8152600160b21b6912d650c814185cdcd95902602082015281518e1515926001600160a01b038c16927fb9a54f82713d4f0f38515b9ab47189872914a2187d882fce60b1a21519224797929081900390910190a36131ac88888887896136b5565b50613428565b6007546001600160a01b0316636e13d8c58960046040518363ffffffff1660e01b81526004018083815260200182815260200192505050600060405180830381600087803b15801561320357600080fd5b505af1158015613217573d6000803e3d6000fd5b50505050846001600160e01b031916600160eb1b6208aa8902141561328957866001600160a01b03166108fc8460018151811061325057fe5b60200260200101519081150290604051600060405180830381858888f19350505050158015613283573d6000803e3d6000fd5b506133be565b60065460408051600160e01b63e3dee2390281526001600160e01b03198816600482015290516001600160a01b039092169163e3dee23991602480820192602092909190829003018186803b1580156132e157600080fd5b505afa1580156132f5573d6000803e3d6000fd5b505050506040513d602081101561330b57600080fd5b505183519092506001600160a01b0383169063a9059cbb9089908690600190811061333257fe5b60200260200101516040518363ffffffff1660e01b815260040180836001600160a01b03166001600160a01b0316815260200182815260200192505050602060405180830381600087803b15801561338957600080fd5b505af115801561339d573d6000803e3d6000fd5b505050506040513d60208110156133b357600080fd5b50516133be57600080fd5b604080518981527f436f766572204661696c65640000000000000000000000000000000000000000602082015281518d1515926001600160a01b038b16927fb9a54f82713d4f0f38515b9ab47189872914a2187d882fce60b1a21519224797929081900390910190a35b6136a8565b6007546001600160a01b0316636e13d8c58960036040518363ffffffff1660e01b81526004018083815260200182815260200192505050600060405180830381600087803b15801561347e57600080fd5b505af1158015613492573d6000803e3d6000fd5b508392505050600160eb1b6208aa89026001600160e01b0319871614156134e1576134da82856001815181106134c457fe5b602002602001015161269890919063ffffffff16565b9050613616565b60065460408051600160e01b63e3dee2390281526001600160e01b03198916600482015290516001600160a01b039092169163e3dee23991602480820192602092909190829003018186803b15801561353957600080fd5b505afa15801561354d573d6000803e3d6000fd5b505050506040513d602081101561356357600080fd5b505184519093506001600160a01b0384169063a9059cbb908a908790600190811061358a57fe5b60200260200101516040518363ffffffff1660e01b815260040180836001600160a01b03166001600160a01b0316815260200182815260200192505050602060405180830381600087803b1580156135e157600080fd5b505af11580156135f5573d6000803e3d6000fd5b505050506040513d602081101561360b57600080fd5b505161361657600080fd5b6040516001600160a01b0389169082156108fc029083906000818181858888f1935050505015801561364c573d6000803e3d6000fd5b50604080518a8152600160b21b6912d650c811985a5b195902602082015281518e1515926001600160a01b038c16927fb9a54f82713d4f0f38515b9ab47189872914a2187d882fce60b1a21519224797929081900390910190a3505b5050505050505050505050565b60075460408051600160e41b63067157ff02815290516000926001600160a01b0316916367157ff0916004808301926020929190829003018186803b1580156136fd57600080fd5b505afa158015613711573d6000803e3d6000fd5b505050506040513d602081101561372757600080fd5b505160075484519192506001600160a01b031690638ce80a65908490869060009061374e57fe5b602002602001015189888a8960018151811061376657fe5b60200260200101518a60028151811061377b57fe5b60209081029190910101516040805163ffffffff8a1660e01b815261ffff909816600489015260248801969096526001600160a01b0394851660448801526001600160e01b031990931660648701529216608485015260a484019190915260c48301525160e480830192600092919082900301818387803b1580156137ff57600080fd5b505af1158015613813573d6000803e3d6000fd5b50505050603c8261ffff16116138b6576005546001600160a01b0316639cb341e38261384c61ffff86166201518063ffffffff613ccc16565b6040518363ffffffff1660e01b8152600401808381526020018267ffffffffffffffff1667ffffffffffffffff16815260200192505050600060405180830381600087803b15801561389d57600080fd5b505af11580156138b1573d6000803e3d6000fd5b505050505b600061396b606461395f600760009054906101000a90046001600160a01b03166001600160a01b031663f3ab26cc6040518163ffffffff1660e01b815260040160206040518083038186803b15801561390e57600080fd5b505afa158015613922573d6000803e3d6000fd5b505050506040513d602081101561393857600080fd5b505187518890600290811061394957fe5b6020026020010151613ccc90919063ffffffff16565b9063ffffffff613d2816565b60035460408051600160e01b6340c10f190281526001600160a01b038b811660048301526024820185905291519394509116916340c10f199160448082019260009290919082900301818387803b1580156139c557600080fd5b505af11580156139d9573d6000803e3d6000fd5b505060025460408051600160e01b63f075be1f0281526004810186905261ffff88166024820152604481018790526001600160a01b038c81166064830152915191909216935063f075be1f9250608480830192600092919082900301818387803b158015613a4657600080fd5b505af1158015613a5a573d6000803e3d6000fd5b505060075486516001600160a01b03909116925063a2c6bc25915087908790600090613a8257fe5b60200260200101516040518363ffffffff1660e01b815260040180836001600160e01b0319166001600160e01b031916815260200182815260200192505050600060405180830381600087803b158015613adb57600080fd5b505af1158015613aef573d6000803e3d6000fd5b505060075486516001600160a01b039091169250633994b3d59150889088908890600090613b1957fe5b60200260200101516040518463ffffffff1660e01b815260040180846001600160a01b03166001600160a01b03168152602001836001600160e01b0319166001600160e01b03191681526020018281526020019350505050600060405180830381600087803b158015613b8b57600080fd5b505af1158015613b9f573d6000803e3d6000fd5b50506002805487516001600160a01b03909116935063899ec98f9250899188918110613bc757fe5b60200260200101516040518363ffffffff1660e01b815260040180836001600160a01b03166001600160a01b0316815260200182815260200192505050600060405180830381600087803b158015613c1e57600080fd5b505af11580156136a8573d6000803e3d6000fd5b60008184841115613cc457604051600160e51b62461bcd0281526004018080602001828103825283818151815260200191508051906020019080838360005b83811015613c89578181015183820152602001613c71565b50505050905090810190601f168015613cb65780820380516001836020036101000a031916815260200191505b509250505060405180910390fd5b505050900390565b600082613cdb575060006126f8565b82820282848281613ce857fe5b04146126f557604051600160e51b62461bcd028152600401808060200182810382526021815260200180613dfe6021913960400191505060405180910390fd5b60006126f583836040518060400160405280601a81526020017f536166654d6174683a206469766973696f6e206279207a65726f00000000000081525060008183613db757604051600160e51b62461bcd028152602060048201818152835160248401528351909283926044909101919085019080838360008315613c89578181015183820152602001613c71565b506000838581613dc357fe5b049594505050505056fe43616e206e6f742062757920636f76657220756e74696c20636170207265616368656420666f72203173742074696d65536166654d6174683a206d756c7469706c69636174696f6e206f766572666c6f77a165627a7a72305820a6a5979ee9610d6b9c7f9a257ecc3db56b3c4dbd4911cea445997be47edcf9430029",
  "compiler": {
    "name": "solc",
    "version": "0.5.7+commit.6da8b019.Emscripten.clang",
    "optimizer": {
      "enabled": true,
      "runs": 200
    },
    "evmVersion": "petersburg"
  }
}