{
  "fileName": "TokenControllerMock.sol",
  "contractName": "TokenControllerMock",
  "source": "/*\n    Copyright (C) 2020 NexusMutual.io\n\n    This program is free software: you can redistribute it and/or modify\n    it under the terms of the GNU General Public License as published by\n    the Free Software Foundation, either version 3 of the License, or\n    (at your option) any later version.\n\n    This program is distributed in the hope that it will be useful,\n    but WITHOUT ANY WARRANTY; without even the implied warranty of\n    MERCHANTABILITY or FITNESS FOR A PARTICULAR PURPOSE.  See the\n    GNU General Public License for more details.\n\n    You should have received a copy of the GNU General Public License\n    along with this program.  If not, see http://www.gnu.org/licenses/\n*/\n\npragma solidity ^0.5.0;\n\nimport \"../interfaces/ITokenController.sol\";\nimport \"../abstract/MasterAware.sol\";\nimport \"../modules/token/NXMToken.sol\";\n\ncontract TokenControllerMock is ITokenController, MasterAware {\n\n  NXMToken token;\n\n  function mint(address _member, uint256 _amount) public onlyInternal {\n    token.mint(_member, _amount);\n  }\n\n  function addToWhitelist(address _member) public onlyInternal {\n    // noop\n    _member;\n  }\n\n  function changeDependentContractAddress() public {\n    token = NXMToken(master.tokenAddress());\n  }\n\n  function operatorTransfer(address _from, address _to, uint _value) onlyInternal external returns (bool) {\n    require(msg.sender == master.getLatestAddress(\"PS\"), \"Call is only allowed from PooledStaking address\");\n    require(token.operatorTransfer(_from, _value), \"Operator transfer failed\");\n    require(token.transfer(_to, _value), \"Internal transfer failed\");\n    return true;\n  }\n\n  /* unused functions */\n\n  modifier unused {\n    require(false, \"Unexpected TokenControllerMock call\");\n    _;\n  }\n\n  function burnLockedTokens(address, bytes32, uint256) unused external {}\n\n  function tokensLocked(address, bytes32) unused external view returns (uint256) {}\n\n  function releaseLockedTokens(address _of, bytes32 _reason, uint256 _amount) unused external {}\n}\n",
  "sourcePath": "contracts/mocks/TokenControllerMock.sol",
  "abi": [
    {
      "constant": false,
      "inputs": [
        {
          "name": "_from",
          "type": "address"
        },
        {
          "name": "_to",
          "type": "address"
        },
        {
          "name": "_value",
          "type": "uint256"
        }
      ],
      "name": "operatorTransfer",
      "outputs": [
        {
          "name": "",
          "type": "bool"
        }
      ],
      "payable": false,
      "stateMutability": "nonpayable",
      "type": "function"
    },
    {
      "constant": false,
      "inputs": [],
      "name": "changeDependentContractAddress",
      "outputs": [],
      "payable": false,
      "stateMutability": "nonpayable",
      "type": "function"
    },
    {
      "constant": false,
      "inputs": [
        {
          "name": "_member",
          "type": "address"
        },
        {
          "name": "_amount",
          "type": "uint256"
        }
      ],
      "name": "mint",
      "outputs": [],
      "payable": false,
      "stateMutability": "nonpayable",
      "type": "function"
    },
    {
      "constant": true,
      "inputs": [
        {
          "name": "",
          "type": "address"
        },
        {
          "name": "",
          "type": "bytes32"
        }
      ],
      "name": "tokensLocked",
      "outputs": [
        {
          "name": "",
          "type": "uint256"
        }
      ],
      "payable": false,
      "stateMutability": "view",
      "type": "function"
    },
    {
      "constant": false,
      "inputs": [
        {
          "name": "",
          "type": "address"
        },
        {
          "name": "",
          "type": "bytes32"
        },
        {
          "name": "",
          "type": "uint256"
        }
      ],
      "name": "burnLockedTokens",
      "outputs": [],
      "payable": false,
      "stateMutability": "nonpayable",
      "type": "function"
    },
    {
      "constant": false,
      "inputs": [
        {
          "name": "_of",
          "type": "address"
        },
        {
          "name": "_reason",
          "type": "bytes32"
        },
        {
          "name": "_amount",
          "type": "uint256"
        }
      ],
      "name": "releaseLockedTokens",
      "outputs": [],
      "payable": false,
      "stateMutability": "nonpayable",
      "type": "function"
    },
    {
      "constant": false,
      "inputs": [
        {
          "name": "masterAddress",
          "type": "address"
        }
      ],
      "name": "changeMasterAddress",
      "outputs": [],
      "payable": false,
      "stateMutability": "nonpayable",
      "type": "function"
    },
    {
      "constant": false,
      "inputs": [
        {
          "name": "_member",
          "type": "address"
        }
      ],
      "name": "addToWhitelist",
      "outputs": [],
      "payable": false,
      "stateMutability": "nonpayable",
      "type": "function"
    },
    {
      "constant": true,
      "inputs": [],
      "name": "master",
      "outputs": [
        {
          "name": "",
          "type": "address"
        }
      ],
      "payable": false,
      "stateMutability": "view",
      "type": "function"
    }
  ],
  "bytecode": "0x608060405234801561001057600080fd5b50610962806100206000396000f3fe608060405234801561001057600080fd5b50600436106100935760003560e01c80637aef5b73116100665780637aef5b731461015657806380c7561a14610156578063d46655f414610188578063e43252d7146101ae578063ee97f7f3146101d457610093565b80630d1af103146100985780630ea9c984146100e257806340c10f19146100ec5780635ca48d8c14610118575b600080fd5b6100ce600480360360608110156100ae57600080fd5b506001600160a01b038135811691602081013590911690604001356101f8565b604080519115158252519081900360200190f35b6100ea610537565b005b6100ea6004803603604081101561010257600080fd5b506001600160a01b0381351690602001356105d1565b6101446004803603604081101561012e57600080fd5b506001600160a01b0381351690602001356106fd565b60408051918252519081900360200190f35b6100ea6004803603606081101561016c57600080fd5b506001600160a01b038135169060208101359060400135610739565b6100ea6004803603602081101561019e57600080fd5b50356001600160a01b0316610773565b6100ea600480360360208110156101c457600080fd5b50356001600160a01b03166107f8565b6101dc6108b3565b604080516001600160a01b039092168252519081900360200190f35b6000805460408051600160e21b6323c5b10702815233600482015290516001600160a01b0390921691638f16c41c91602480820192602092909190829003018186803b15801561024757600080fd5b505afa15801561025b573d6000803e3d6000fd5b505050506040513d602081101561027157600080fd5b50516102b157604051600160e51b62461bcd0281526004018080602001828103825260228152602001806108e66022913960400191505060405180910390fd5b60005460408051600160e31b6227050b028152600160f01b61505302600482015290516001600160a01b0390921691630138285891602480820192602092909190829003018186803b15801561030657600080fd5b505afa15801561031a573d6000803e3d6000fd5b505050506040513d602081101561033057600080fd5b50516001600160a01b0316331461037b57604051600160e51b62461bcd02815260040180806020018281038252602f815260200180610908602f913960400191505060405180910390fd5b60015460408051600160e01b63b0e65d070281526001600160a01b038781166004830152602482018690529151919092169163b0e65d079160448083019260209291908290030181600087803b1580156103d457600080fd5b505af11580156103e8573d6000803e3d6000fd5b505050506040513d60208110156103fe57600080fd5b50516104545760408051600160e51b62461bcd02815260206004820152601860248201527f4f70657261746f72207472616e73666572206661696c65640000000000000000604482015290519081900360640190fd5b60015460408051600160e01b63a9059cbb0281526001600160a01b038681166004830152602482018690529151919092169163a9059cbb9160448083019260209291908290030181600087803b1580156104ad57600080fd5b505af11580156104c1573d6000803e3d6000fd5b505050506040513d60208110156104d757600080fd5b505161052d5760408051600160e51b62461bcd02815260206004820152601860248201527f496e7465726e616c207472616e73666572206661696c65640000000000000000604482015290519081900360640190fd5b5060019392505050565b6000809054906101000a90046001600160a01b03166001600160a01b0316639d76ea586040518163ffffffff1660e01b815260040160206040518083038186803b15801561058457600080fd5b505afa158015610598573d6000803e3d6000fd5b505050506040513d60208110156105ae57600080fd5b5051600180546001600160a01b0319166001600160a01b03909216919091179055565b60005460408051600160e21b6323c5b10702815233600482015290516001600160a01b0390921691638f16c41c91602480820192602092909190829003018186803b15801561061f57600080fd5b505afa158015610633573d6000803e3d6000fd5b505050506040513d602081101561064957600080fd5b505161068957604051600160e51b62461bcd0281526004018080602001828103825260228152602001806108e66022913960400191505060405180910390fd5b60015460408051600160e01b6340c10f190281526001600160a01b03858116600483015260248201859052915191909216916340c10f1991604480830192600092919082900301818387803b1580156106e157600080fd5b505af11580156106f5573d6000803e3d6000fd5b505050505050565b6000604051600160e51b62461bcd0281526004018080602001828103825260238152602001806108c36023913960400191505060405180910390fd5b604051600160e51b62461bcd0281526004018080602001828103825260238152602001806108c36023913960400191505060405180910390fd5b6000546001600160a01b0316156107d6576000546001600160a01b031633146107d65760408051600160e51b62461bcd02815260206004820152600a6024820152600160b11b692737ba1036b0b9ba32b902604482015290519081900360640190fd5b600080546001600160a01b0319166001600160a01b0392909216919091179055565b60005460408051600160e21b6323c5b10702815233600482015290516001600160a01b0390921691638f16c41c91602480820192602092909190829003018186803b15801561084657600080fd5b505afa15801561085a573d6000803e3d6000fd5b505050506040513d602081101561087057600080fd5b50516108b057604051600160e51b62461bcd0281526004018080602001828103825260228152602001806108e66022913960400191505060405180910390fd5b50565b6000546001600160a01b03168156fe556e657870656374656420546f6b656e436f6e74726f6c6c65724d6f636b2063616c6c43616c6c6572206973206e6f7420616e20696e7465726e616c20636f6e747261637443616c6c206973206f6e6c7920616c6c6f7765642066726f6d20506f6f6c65645374616b696e672061646472657373a165627a7a723058201a550f083539de0615e978c1096644612a60e086ee23dd49ac6996de16e3537c0029",
  "compiler": {
    "name": "solc",
    "version": "0.5.7+commit.6da8b019.Emscripten.clang",
    "optimizer": {
      "enabled": true,
      "runs": 200
    },
    "evmVersion": "petersburg"
  }
}